{
  "_format": "hh-sol-artifact-1",
  "contractName": "VaporLauncher",
  "sourceName": "contracts/VaporLauncher.sol",
  "abi": [
    {
      "inputs": [],
      "stateMutability": "nonpayable",
      "type": "constructor"
    },
    {
      "anonymous": false,
      "inputs": [
        {
          "indexed": true,
          "internalType": "address",
          "name": "owner",
          "type": "address"
        },
        {
          "indexed": true,
          "internalType": "address",
          "name": "addr",
          "type": "address"
        },
        {
          "indexed": false,
          "internalType": "address",
          "name": "launcherTemplate",
          "type": "address"
        }
      ],
      "name": "LauncherCreated",
      "type": "event"
    },
    {
      "anonymous": false,
      "inputs": [
        {
          "indexed": false,
          "internalType": "address",
          "name": "newLauncher",
          "type": "address"
        },
        {
          "indexed": false,
          "internalType": "uint256",
          "name": "templateId",
          "type": "uint256"
        }
      ],
      "name": "LauncherTemplateAdded",
      "type": "event"
    },
    {
      "anonymous": false,
      "inputs": [
        {
          "indexed": false,
          "internalType": "address",
          "name": "launcher",
          "type": "address"
        },
        {
          "indexed": false,
          "internalType": "uint256",
          "name": "templateId",
          "type": "uint256"
        }
      ],
      "name": "LauncherTemplateRemoved",
      "type": "event"
    },
    {
      "anonymous": false,
      "inputs": [
        {
          "indexed": false,
          "internalType": "address",
          "name": "sender",
          "type": "address"
        }
      ],
      "name": "VaporInitLauncher",
      "type": "event"
    },
    {
      "inputs": [],
      "name": "LAUNCHER_MINTER_ROLE",
      "outputs": [
        {
          "internalType": "bytes32",
          "name": "",
          "type": "bytes32"
        }
      ],
      "stateMutability": "view",
      "type": "function"
    },
    {
      "inputs": [],
      "name": "VaporDiv",
      "outputs": [
        {
          "internalType": "address payable",
          "name": "",
          "type": "address"
        }
      ],
      "stateMutability": "view",
      "type": "function"
    },
    {
      "inputs": [],
      "name": "WETH",
      "outputs": [
        {
          "internalType": "address",
          "name": "",
          "type": "address"
        }
      ],
      "stateMutability": "view",
      "type": "function"
    },
    {
      "inputs": [],
      "name": "accessControls",
      "outputs": [
        {
          "internalType": "contract VaporAccessControls",
          "name": "",
          "type": "address"
        }
      ],
      "stateMutability": "view",
      "type": "function"
    },
    {
      "inputs": [
        {
          "internalType": "address",
          "name": "_template",
          "type": "address"
        }
      ],
      "name": "addLiquidityLauncherTemplate",
      "outputs": [],
      "stateMutability": "nonpayable",
      "type": "function"
    },
    {
      "inputs": [],
      "name": "bentoBox",
      "outputs": [
        {
          "internalType": "contract IBentoBoxFactory",
          "name": "",
          "type": "address"
        }
      ],
      "stateMutability": "view",
      "type": "function"
    },
    {
      "inputs": [
        {
          "internalType": "uint256",
          "name": "_templateId",
          "type": "uint256"
        },
        {
          "internalType": "address",
          "name": "_token",
          "type": "address"
        },
        {
          "internalType": "uint256",
          "name": "_tokenSupply",
          "type": "uint256"
        },
        {
          "internalType": "address payable",
          "name": "_integratorFeeAccount",
          "type": "address"
        },
        {
          "internalType": "bytes",
          "name": "_data",
          "type": "bytes"
        }
      ],
      "name": "createLauncher",
      "outputs": [
        {
          "internalType": "address",
          "name": "newLauncher",
          "type": "address"
        }
      ],
      "stateMutability": "payable",
      "type": "function"
    },
    {
      "inputs": [
        {
          "internalType": "uint256",
          "name": "",
          "type": "uint256"
        }
      ],
      "name": "currentTemplateId",
      "outputs": [
        {
          "internalType": "uint256",
          "name": "",
          "type": "uint256"
        }
      ],
      "stateMutability": "view",
      "type": "function"
    },
    {
      "inputs": [
        {
          "internalType": "uint256",
          "name": "_templateId",
          "type": "uint256"
        },
        {
          "internalType": "address payable",
          "name": "_integratorFeeAccount",
          "type": "address"
        }
      ],
      "name": "deployLauncher",
      "outputs": [
        {
          "internalType": "address",
          "name": "launcher",
          "type": "address"
        }
      ],
      "stateMutability": "payable",
      "type": "function"
    },
    {
      "inputs": [
        {
          "internalType": "address",
          "name": "_launcher",
          "type": "address"
        }
      ],
      "name": "getLauncherTemplateId",
      "outputs": [
        {
          "internalType": "uint64",
          "name": "",
          "type": "uint64"
        }
      ],
      "stateMutability": "view",
      "type": "function"
    },
    {
      "inputs": [],
      "name": "getLaunchers",
      "outputs": [
        {
          "internalType": "address[]",
          "name": "",
          "type": "address[]"
        }
      ],
      "stateMutability": "view",
      "type": "function"
    },
    {
      "inputs": [
        {
          "internalType": "uint256",
          "name": "_templateId",
          "type": "uint256"
        }
      ],
      "name": "getLiquidityLauncherTemplate",
      "outputs": [
        {
          "internalType": "address",
          "name": "",
          "type": "address"
        }
      ],
      "stateMutability": "view",
      "type": "function"
    },
    {
      "inputs": [
        {
          "internalType": "address",
          "name": "_launcherTemplate",
          "type": "address"
        }
      ],
      "name": "getTemplateId",
      "outputs": [
        {
          "internalType": "uint256",
          "name": "",
          "type": "uint256"
        }
      ],
      "stateMutability": "view",
      "type": "function"
    },
    {
      "inputs": [
        {
          "internalType": "address",
          "name": "_address",
          "type": "address"
        }
      ],
      "name": "hasLauncherMinterRole",
      "outputs": [
        {
          "internalType": "bool",
          "name": "",
          "type": "bool"
        }
      ],
      "stateMutability": "view",
      "type": "function"
    },
    {
      "inputs": [
        {
          "internalType": "address",
          "name": "_accessControls",
          "type": "address"
        },
        {
          "internalType": "address",
          "name": "_WETH",
          "type": "address"
        },
        {
          "internalType": "address",
          "name": "_bentoBox",
          "type": "address"
        }
      ],
      "name": "initVaporLauncher",
      "outputs": [],
      "stateMutability": "nonpayable",
      "type": "function"
    },
    {
      "inputs": [],
      "name": "launcherFees",
      "outputs": [
        {
          "internalType": "uint128",
          "name": "minimumFee",
          "type": "uint128"
        },
        {
          "internalType": "uint32",
          "name": "integratorFeePct",
          "type": "uint32"
        }
      ],
      "stateMutability": "view",
      "type": "function"
    },
    {
      "inputs": [
        {
          "internalType": "address",
          "name": "",
          "type": "address"
        }
      ],
      "name": "launcherInfo",
      "outputs": [
        {
          "internalType": "bool",
          "name": "exists",
          "type": "bool"
        },
        {
          "internalType": "uint64",
          "name": "templateId",
          "type": "uint64"
        },
        {
          "internalType": "uint128",
          "name": "index",
          "type": "uint128"
        }
      ],
      "stateMutability": "view",
      "type": "function"
    },
    {
      "inputs": [],
      "name": "launcherTemplateId",
      "outputs": [
        {
          "internalType": "uint256",
          "name": "",
          "type": "uint256"
        }
      ],
      "stateMutability": "view",
      "type": "function"
    },
    {
      "inputs": [
        {
          "internalType": "uint256",
          "name": "",
          "type": "uint256"
        }
      ],
      "name": "launchers",
      "outputs": [
        {
          "internalType": "address",
          "name": "",
          "type": "address"
        }
      ],
      "stateMutability": "view",
      "type": "function"
    },
    {
      "inputs": [],
      "name": "locked",
      "outputs": [
        {
          "internalType": "bool",
          "name": "",
          "type": "bool"
        }
      ],
      "stateMutability": "view",
      "type": "function"
    },
    {
      "inputs": [],
      "name": "minimumFee",
      "outputs": [
        {
          "internalType": "uint128",
          "name": "",
          "type": "uint128"
        }
      ],
      "stateMutability": "view",
      "type": "function"
    },
    {
      "inputs": [],
      "name": "numberOfLiquidityLauncherContracts",
      "outputs": [
        {
          "internalType": "uint256",
          "name": "",
          "type": "uint256"
        }
      ],
      "stateMutability": "view",
      "type": "function"
    },
    {
      "inputs": [
        {
          "internalType": "uint256",
          "name": "_templateId",
          "type": "uint256"
        }
      ],
      "name": "removeLiquidityLauncherTemplate",
      "outputs": [],
      "stateMutability": "nonpayable",
      "type": "function"
    },
    {
      "inputs": [
        {
          "internalType": "uint256",
          "name": "_templateType",
          "type": "uint256"
        },
        {
          "internalType": "uint256",
          "name": "_templateId",
          "type": "uint256"
        }
      ],
      "name": "setCurrentTemplateId",
      "outputs": [],
      "stateMutability": "nonpayable",
      "type": "function"
    },
    {
      "inputs": [
        {
          "internalType": "address payable",
          "name": "_divaddr",
          "type": "address"
        }
      ],
      "name": "setDividends",
      "outputs": [],
      "stateMutability": "nonpayable",
      "type": "function"
    },
    {
      "inputs": [
        {
          "internalType": "uint256",
          "name": "_amount",
          "type": "uint256"
        }
      ],
      "name": "setIntegratorFeePct",
      "outputs": [],
      "stateMutability": "nonpayable",
      "type": "function"
    },
    {
      "inputs": [
        {
          "internalType": "bool",
          "name": "_locked",
          "type": "bool"
        }
      ],
      "name": "setLocked",
      "outputs": [],
      "stateMutability": "nonpayable",
      "type": "function"
    },
    {
      "inputs": [
        {
          "internalType": "uint256",
          "name": "_amount",
          "type": "uint256"
        }
      ],
      "name": "setMinimumFee",
      "outputs": [],
      "stateMutability": "nonpayable",
      "type": "function"
    }
  ],
  "bytecode": "0x608060405234801561001057600080fd5b50612309806100206000396000f3fe6080604052600436106101b75760003560e01c80638637e041116100ec578063ad5c46481161008a578063cf30901211610064578063cf309012146105b0578063d335ebda146105ca578063e1f6b03414610600578063fcb62f901461062557600080fd5b8063ad5c46481461051f578063bc79913b1461053f578063cd70f7341461059d57600080fd5b806392787b48116100c657806392787b48146104a957806396f1266e146104c95780639e5940cc146104df5780639e9188ea146104ff57600080fd5b80638637e0411461043057806386adc322146104645780638c363a0b1461047957600080fd5b8063632cef90116101595780636de88d97116101335780636de88d971461039857806370433d03146103ce578063748365ef146103f05780637b7fb1531461041057600080fd5b8063632cef90146102de5780636b2ace87146102f15780636c4ceb361461031157600080fd5b80632ed4f578116101955780632ed4f5781461022b5780633eb63aa0146102665780633f1f44b01461029e578063538da559146102be57600080fd5b8063182a7506146101bc5780631a7626e7146101de578063211e28b61461020b575b600080fd5b3480156101c857600080fd5b506101dc6101d736600461204c565b610678565b005b3480156101ea57600080fd5b506009546040516001600160801b0390911681526020015b60405180910390f35b34801561021757600080fd5b506101dc610226366004612014565b610797565b34801561023757600080fd5b5061025861024636600461204c565b60076020526000908152604090205481565b604051908152602001610202565b34801561027257600080fd5b5061028661028136600461204c565b61087d565b6040516001600160a01b039091168152602001610202565b3480156102aa57600080fd5b506101dc6102b936600461204c565b6108a7565b3480156102ca57600080fd5b506101dc6102d9366004611fca565b610a3e565b6102866102ec3660046120ab565b610c7d565b3480156102fd57600080fd5b50600454610286906001600160a01b031681565b34801561031d57600080fd5b5061036961032c366004611f8b565b60086020526000908152604090205460ff811690610100810467ffffffffffffffff1690690100000000000000000090046001600160801b031683565b60408051931515845267ffffffffffffffff90921660208401526001600160801b031690820152606001610202565b3480156103a457600080fd5b506102866103b336600461204c565b6000908152600560205260409020546001600160a01b031690565b3480156103da57600080fd5b506103e3610eb7565b60405161020291906121aa565b3480156103fc57600080fd5b50600054610286906001600160a01b031681565b34801561041c57600080fd5b506101dc61042b366004611f8b565b610f19565b34801561043c57600080fd5b506102587fceb69df9dd42f6c115645ad1e6ac8c9f124a39546dd50de2e04024128b14698081565b34801561047057600080fd5b50600154610258565b34801561048557600080fd5b50610499610494366004611f8b565b611207565b6040519015158152602001610202565b3480156104b557600080fd5b506101dc6104c436600461204c565b6112ca565b3480156104d557600080fd5b5061025860025481565b3480156104eb57600080fd5b506101dc6104fa366004612150565b6114ba565b34801561050b57600080fd5b506101dc61051a366004611f8b565b611620565b34801561052b57600080fd5b50600354610286906001600160a01b031681565b34801561054b57600080fd5b5061058461055a366004611f8b565b6001600160a01b0316600090815260086020526040902054610100900467ffffffffffffffff1690565b60405167ffffffffffffffff9091168152602001610202565b6102866105ab36600461207c565b61175f565b3480156105bc57600080fd5b50600a546104999060ff1681565b3480156105d657600080fd5b506102586105e5366004611f8b565b6001600160a01b031660009081526006602052604090205490565b34801561060c57600080fd5b50600a546102869061010090046001600160a01b031681565b34801561063157600080fd5b50600954610654906001600160801b03811690600160801b900463ffffffff1682565b604080516001600160801b03909316835263ffffffff909116602083015201610202565b60005460405163c395fcb360e01b81523360048201526001600160a01b039091169063c395fcb39060240160206040518083038186803b1580156106bb57600080fd5b505afa1580156106cf573d6000803e3d6000fd5b505050506040513d601f19601f820116820180604052508101906106f39190612030565b6107535760405162461bcd60e51b815260206004820152602660248201527f5661706f724c61756e636865723a2053656e646572206d757374206265206f7060448201526532b930ba37b960d11b60648201526084015b60405180910390fd5b61075c81611d52565b600980547fffffffffffffffffffffffffffffffff00000000000000000000000000000000166001600160801b039290921691909117905550565b60005460405163c395fcb360e01b81523360048201526001600160a01b039091169063c395fcb39060240160206040518083038186803b1580156107da57600080fd5b505afa1580156107ee573d6000803e3d6000fd5b505050506040513d601f19601f820116820180604052508101906108129190612030565b61086a5760405162461bcd60e51b815260206004820152602360248201527f5661706f724c61756e636865723a2053656e646572206d75737420626520616460448201526236b4b760e91b606482015260840161074a565b600a805460ff1916911515919091179055565b6001818154811061088d57600080fd5b6000918252602090912001546001600160a01b0316905081565b60005460405163c395fcb360e01b81523360048201526001600160a01b039091169063c395fcb39060240160206040518083038186803b1580156108ea57600080fd5b505afa1580156108fe573d6000803e3d6000fd5b505050506040513d601f19601f820116820180604052508101906109229190612030565b61097d5760405162461bcd60e51b815260206004820152602660248201527f5661706f724c61756e636865723a2053656e646572206d757374206265206f7060448201526532b930ba37b960d11b606482015260840161074a565b6103e88111156109f55760405162461bcd60e51b815260206004820152602860248201527f5661706f724c61756e636865723a2050657263656e74616765206973206f757460448201527f206f662031303030000000000000000000000000000000000000000000000000606482015260840161074a565b6109fe81611daf565b6009805463ffffffff92909216600160801b027fffffffffffffffffffffffff00000000ffffffffffffffffffffffffffffffff90921691909117905550565b600054600160a01b900460ff1615610a5557600080fd5b6001600160a01b038216610ad15760405162461bcd60e51b815260206004820152602d60248201527f696e69745661706f724c61756e636865723a20574554482063616e6e6f74206260448201527f652073657420746f207a65726f00000000000000000000000000000000000000606482015260840161074a565b6001600160a01b038316610b4d5760405162461bcd60e51b815260206004820152603760248201527f696e69745661706f724c61756e636865723a20616363657373436f6e74726f6c60448201527f732063616e6e6f742062652073657420746f207a65726f000000000000000000606482015260840161074a565b6001600160a01b038116610bc95760405162461bcd60e51b815260206004820152603160248201527f696e69745661706f724c61756e636865723a2062656e746f426f782063616e6e60448201527f6f742062652073657420746f207a65726f000000000000000000000000000000606482015260840161074a565b60008054600480546001600160a01b0385811673ffffffffffffffffffffffffffffffffffffffff1992831617909255600380548784169216919091179055600a805460ff191660011790557fffffffffffffffffffffff00000000000000000000000000000000000000000090911690851617600160a01b1790556040513381527f973525647e8cd303f9c07b529f5621e8a4f0789101b923aab48268c82de376419060200160405180910390a1505050565b6000610c89878561175f565b90508415610d8357610c9c863387611e05565b6040517f095ea7b30000000000000000000000000000000000000000000000000000000081526001600160a01b0382811660048301526024820187905287169063095ea7b390604401602060405180830381600087803b158015610cff57600080fd5b505af1158015610d13573d6000803e3d6000fd5b505050506040513d601f19601f82011682018060405250810190610d379190612030565b610d835760405162461bcd60e51b815260206004820152600160248201527f3100000000000000000000000000000000000000000000000000000000000000604482015260640161074a565b6040517ff82fc8ce0000000000000000000000000000000000000000000000000000000081526001600160a01b0382169063f82fc8ce90610dca90869086906004016121f7565b600060405180830381600087803b158015610de457600080fd5b505af1158015610df8573d6000803e3d6000fd5b505050506000851115610ead576040517f70a082310000000000000000000000000000000000000000000000000000000081523060048201526000906001600160a01b038816906370a082319060240160206040518083038186803b158015610e6057600080fd5b505afa158015610e74573d6000803e3d6000fd5b505050506040513d601f19601f82011682018060405250810190610e989190612064565b90508015610eab57610eab873383611f01565b505b9695505050505050565b60606001805480602002602001604051908101604052809291908181526020018280548015610f0f57602002820191906000526020600020905b81546001600160a01b03168152600190910190602001808311610ef1575b5050505050905090565b60005460405163c395fcb360e01b81523360048201526001600160a01b039091169063c395fcb39060240160206040518083038186803b158015610f5c57600080fd5b505afa158015610f70573d6000803e3d6000fd5b505050506040513d601f19601f82011682018060405250810190610f949190612030565b806110155750600054604051637e271f0560e11b81523360048201526001600160a01b039091169063fc4e3e0a9060240160206040518083038186803b158015610fdd57600080fd5b505afa158015610ff1573d6000803e3d6000fd5b505050506040513d601f19601f820116820180604052508101906110159190612030565b6110705760405162461bcd60e51b815260206004820152602660248201527f5661706f724c61756e636865723a2053656e646572206d757374206265206f7060448201526532b930ba37b960d11b606482015260840161074a565b6000816001600160a01b0316638566de4b6040518163ffffffff1660e01b815260040160206040518083038186803b1580156110ab57600080fd5b505afa1580156110bf573d6000803e3d6000fd5b505050506040513d601f19601f820116820180604052508101906110e39190612064565b90506000811161115b5760405162461bcd60e51b815260206004820152602760248201527f5661706f724c61756e636865723a20496e636f72726563742074656d706c617460448201527f6520636f64652000000000000000000000000000000000000000000000000000606482015260840161074a565b6002805490600061116b8361227c565b9091555050600280546000908152600560209081526040808320805473ffffffffffffffffffffffffffffffffffffffff19166001600160a01b03881690811790915593548484526006835281842081905585845260078352928190208390558051938452908301919091527f6c52e34db307a16709b387d61b2de0b4dd4a2ef6fd68b04b5515ef00a533b18f91015b60405180910390a15050565b600080546040517f91d148540000000000000000000000000000000000000000000000000000000081527fceb69df9dd42f6c115645ad1e6ac8c9f124a39546dd50de2e04024128b14698060048201526001600160a01b038481166024830152909116906391d148549060440160206040518083038186803b15801561128c57600080fd5b505afa1580156112a0573d6000803e3d6000fd5b505050506040513d601f19601f820116820180604052508101906112c49190612030565b92915050565b60005460405163c395fcb360e01b81523360048201526001600160a01b039091169063c395fcb39060240160206040518083038186803b15801561130d57600080fd5b505afa158015611321573d6000803e3d6000fd5b505050506040513d601f19601f820116820180604052508101906113459190612030565b806113c65750600054604051637e271f0560e11b81523360048201526001600160a01b039091169063fc4e3e0a9060240160206040518083038186803b15801561138e57600080fd5b505afa1580156113a2573d6000803e3d6000fd5b505050506040513d601f19601f820116820180604052508101906113c69190612030565b6114215760405162461bcd60e51b815260206004820152602660248201527f5661706f724c61756e636865723a2053656e646572206d757374206265206f7060448201526532b930ba37b960d11b606482015260840161074a565b6000818152600560205260409020546001600160a01b031661144257600080fd5b6000818152600560209081526040808320805473ffffffffffffffffffffffffffffffffffffffff1981169091556001600160a01b0316808452600683528184209390935580518381529182018490527f9c4b27a4ee95cde6444d871111211ff603accbdff0b4e96e07af9f4eba52be5791016111fb565b60005460405163c395fcb360e01b81523360048201526001600160a01b039091169063c395fcb39060240160206040518083038186803b1580156114fd57600080fd5b505afa158015611511573d6000803e3d6000fd5b505050506040513d601f19601f820116820180604052508101906115359190612030565b806115b65750600054604051637e271f0560e11b81523360048201526001600160a01b039091169063fc4e3e0a9060240160206040518083038186803b15801561157e57600080fd5b505afa158015611592573d6000803e3d6000fd5b505050506040513d601f19601f820116820180604052508101906115b69190612030565b61160e5760405162461bcd60e51b815260206004820152602360248201527f5661706f724c61756e636865723a2053656e646572206d75737420626520616460448201526236b4b760e91b606482015260840161074a565b60009182526007602052604090912055565b60005460405163c395fcb360e01b81523360048201526001600160a01b039091169063c395fcb39060240160206040518083038186803b15801561166357600080fd5b505afa158015611677573d6000803e3d6000fd5b505050506040513d601f19601f8201168201806040525081019061169b9190612030565b61170d5760405162461bcd60e51b815260206004820152602d60248201527f5661706f724c61756e636865722e7365744465763a2053656e646572206d757360448201527f74206265206f70657261746f7200000000000000000000000000000000000000606482015260840161074a565b6001600160a01b03811661172057600080fd5b600a80546001600160a01b03909216610100027fffffffffffffffffffffff0000000000000000000000000000000000000000ff909216919091179055565b600a5460009060ff16156119035760005460405163c395fcb360e01b81523360048201526001600160a01b039091169063c395fcb39060240160206040518083038186803b1580156117b057600080fd5b505afa1580156117c4573d6000803e3d6000fd5b505050506040513d601f19601f820116820180604052508101906117e89190612030565b8061188257506000546040517f099db0170000000000000000000000000000000000000000000000000000000081523360048201526001600160a01b039091169063099db0179060240160206040518083038186803b15801561184a57600080fd5b505afa15801561185e573d6000803e3d6000fd5b505050506040513d601f19601f820116820180604052508101906118829190612030565b80611891575061189133611207565b6119035760405162461bcd60e51b815260206004820152602e60248201527f5661706f724c61756e636865723a2053656e646572206d757374206265206d6960448201527f6e746572206966206c6f636b6564000000000000000000000000000000000000606482015260840161074a565b6040805180820182526009546001600160801b038082168352600160801b90910463ffffffff16602080840191909152600087815260059091529290922054815191926001600160a01b0390911691163410156119c85760405162461bcd60e51b815260206004820152602c60248201527f5661706f724c61756e636865723a204661696c656420746f207472616e73666560448201527f72206d696e696d756d4665650000000000000000000000000000000000000000606482015260840161074a565b6001600160a01b038116611a445760405162461bcd60e51b815260206004820152602e60248201527f5661706f724c61756e636865723a204c61756e636865722074656d706c61746560448201527f20646f65736e2774206578697374000000000000000000000000000000000000606482015260840161074a565b6000346001600160a01b03861615801590611a725750600a546001600160a01b038781166101009092041614155b15611aa9576103e8846020015163ffffffff1682611a909190612246565b611a9a9190612226565b9150611aa68282612265565b90505b600480546040517f1f54245b0000000000000000000000000000000000000000000000000000000081526001600160a01b0386811693820193909352606060248201526000606482018190526044820152911690631f54245b90608401602060405180830381600087803b158015611b2057600080fd5b505af1158015611b34573d6000803e3d6000fd5b505050506040513d601f19601f82011682018060405250810190611b589190611fae565b94506040518060600160405280600115158152602001611b7789611f31565b67ffffffffffffffff168152602001611b94600180549050611d52565b6001600160801b039081169091526001600160a01b0387811660008181526008602090815260408083208751815489850151998401519098166901000000000000000000027fffffffffffffff00000000000000000000000000000000ffffffffffffffffff67ffffffffffffffff909a166101000268ffffffffffffffff00199215159290921668ffffffffffffffffff1990991698909817179790971695909517909555600180548082019091557fb10e2d527612073b26eecdfd717e6a320cf44b4afac2b0732d9fcbe2b7fa0cf601805473ffffffffffffffffffffffffffffffffffffffff1916831790558b8152600585528390205492519290911682529133917f3ba8b254094e662ed7500a3ad77fd9f4f041f221a7b9f0714e3fdbf324c5d863910160405180910390a38015611d0a57600a546040516101009091046001600160a01b0316906108fc8315029083906000818181858888f19350505050158015611d08573d6000803e3d6000fd5b505b8115611d48576040516001600160a01b0387169083156108fc029084906000818181858888f19350505050158015611d46573d6000803e3d6000fd5b505b5050505092915050565b60006001600160801b03821115611dab5760405162461bcd60e51b815260206004820152601c60248201527f426f72696e674d6174683a2075696e74313238204f766572666c6f7700000000604482015260640161074a565b5090565b600063ffffffff821115611dab5760405162461bcd60e51b815260206004820152601b60248201527f426f72696e674d6174683a2075696e743332204f766572666c6f770000000000604482015260640161074a565b6040516001600160a01b0383811660248301523060448301526064820183905260009182918616906323b872dd906084015b6040516020818303038152906040529060e01b6020820180517bffffffffffffffffffffffffffffffffffffffffffffffffffffffff8381831617835250505050604051611e859190612171565b6000604051808303816000865af19150503d8060008114611ec2576040519150601f19603f3d011682016040523d82523d6000602084013e611ec7565b606091505b5091509150818015611ef1575080511580611ef1575080806020019051810190611ef19190612030565b611efa57600080fd5b5050505050565b6040516001600160a01b03838116602483015260448201839052600091829186169063a9059cbb90606401611e37565b600067ffffffffffffffff821115611dab5760405162461bcd60e51b815260206004820152601b60248201527f426f72696e674d6174683a2075696e743634204f766572666c6f770000000000604482015260640161074a565b600060208284031215611f9c578081fd5b8135611fa7816122ad565b9392505050565b600060208284031215611fbf578081fd5b8151611fa7816122ad565b600080600060608486031215611fde578182fd5b8335611fe9816122ad565b92506020840135611ff9816122ad565b91506040840135612009816122ad565b809150509250925092565b600060208284031215612025578081fd5b8135611fa7816122c5565b600060208284031215612041578081fd5b8151611fa7816122c5565b60006020828403121561205d578081fd5b5035919050565b600060208284031215612075578081fd5b5051919050565b6000806040838503121561208e578182fd5b8235915060208301356120a0816122ad565b809150509250929050565b60008060008060008060a087890312156120c3578182fd5b8635955060208701356120d5816122ad565b94506040870135935060608701356120ec816122ad565b9250608087013567ffffffffffffffff80821115612108578384fd5b818901915089601f83011261211b578384fd5b813581811115612129578485fd5b8a602082850101111561213a578485fd5b6020830194508093505050509295509295509295565b60008060408385031215612162578182fd5b50508035926020909101359150565b60008251815b818110156121915760208186018101518583015201612177565b8181111561219f5782828501525b509190910192915050565b6020808252825182820181905260009190848201906040850190845b818110156121eb5783516001600160a01b0316835292840192918401916001016121c6565b50909695505050505050565b60208152816020820152818360408301376000818301604090810191909152601f909201601f19160101919050565b60008261224157634e487b7160e01b81526012600452602481fd5b500490565b600081600019048311821515161561226057612260612297565b500290565b60008282101561227757612277612297565b500390565b600060001982141561229057612290612297565b5060010190565b634e487b7160e01b600052601160045260246000fd5b6001600160a01b03811681146122c257600080fd5b50565b80151581146122c257600080fdfea2646970667358221220f67c0f466109507b5edaf5847c0a0600e8f63e6ae42008244b82f3f51a1becce64736f6c63430008040033",
  "linkReferences": {},
  "deployedLinkReferences": {}
}