{
  "_format": "hh-sol-artifact-1",
  "contractName": "ERC777",
  "sourceName": "contracts/@openzeppelin/contracts/token/ERC777/ERC777.sol",
  "abi": [
    {
      "inputs": [
        {
          "internalType": "string",
          "name": "name_",
          "type": "string"
        },
        {
          "internalType": "string",
          "name": "symbol_",
          "type": "string"
        },
        {
          "internalType": "address[]",
          "name": "defaultOperators_",
          "type": "address[]"
        }
      ],
      "stateMutability": "nonpayable",
      "type": "constructor"
    },
    {
      "anonymous": false,
      "inputs": [
        {
          "indexed": true,
          "internalType": "address",
          "name": "owner",
          "type": "address"
        },
        {
          "indexed": true,
          "internalType": "address",
          "name": "spender",
          "type": "address"
        },
        {
          "indexed": false,
          "internalType": "uint256",
          "name": "value",
          "type": "uint256"
        }
      ],
      "name": "Approval",
      "type": "event"
    },
    {
      "anonymous": false,
      "inputs": [
        {
          "indexed": true,
          "internalType": "address",
          "name": "operator",
          "type": "address"
        },
        {
          "indexed": true,
          "internalType": "address",
          "name": "tokenHolder",
          "type": "address"
        }
      ],
      "name": "AuthorizedOperator",
      "type": "event"
    },
    {
      "anonymous": false,
      "inputs": [
        {
          "indexed": true,
          "internalType": "address",
          "name": "operator",
          "type": "address"
        },
        {
          "indexed": true,
          "internalType": "address",
          "name": "from",
          "type": "address"
        },
        {
          "indexed": false,
          "internalType": "uint256",
          "name": "amount",
          "type": "uint256"
        },
        {
          "indexed": false,
          "internalType": "bytes",
          "name": "data",
          "type": "bytes"
        },
        {
          "indexed": false,
          "internalType": "bytes",
          "name": "operatorData",
          "type": "bytes"
        }
      ],
      "name": "Burned",
      "type": "event"
    },
    {
      "anonymous": false,
      "inputs": [
        {
          "indexed": true,
          "internalType": "address",
          "name": "operator",
          "type": "address"
        },
        {
          "indexed": true,
          "internalType": "address",
          "name": "to",
          "type": "address"
        },
        {
          "indexed": false,
          "internalType": "uint256",
          "name": "amount",
          "type": "uint256"
        },
        {
          "indexed": false,
          "internalType": "bytes",
          "name": "data",
          "type": "bytes"
        },
        {
          "indexed": false,
          "internalType": "bytes",
          "name": "operatorData",
          "type": "bytes"
        }
      ],
      "name": "Minted",
      "type": "event"
    },
    {
      "anonymous": false,
      "inputs": [
        {
          "indexed": true,
          "internalType": "address",
          "name": "operator",
          "type": "address"
        },
        {
          "indexed": true,
          "internalType": "address",
          "name": "tokenHolder",
          "type": "address"
        }
      ],
      "name": "RevokedOperator",
      "type": "event"
    },
    {
      "anonymous": false,
      "inputs": [
        {
          "indexed": true,
          "internalType": "address",
          "name": "operator",
          "type": "address"
        },
        {
          "indexed": true,
          "internalType": "address",
          "name": "from",
          "type": "address"
        },
        {
          "indexed": true,
          "internalType": "address",
          "name": "to",
          "type": "address"
        },
        {
          "indexed": false,
          "internalType": "uint256",
          "name": "amount",
          "type": "uint256"
        },
        {
          "indexed": false,
          "internalType": "bytes",
          "name": "data",
          "type": "bytes"
        },
        {
          "indexed": false,
          "internalType": "bytes",
          "name": "operatorData",
          "type": "bytes"
        }
      ],
      "name": "Sent",
      "type": "event"
    },
    {
      "anonymous": false,
      "inputs": [
        {
          "indexed": true,
          "internalType": "address",
          "name": "from",
          "type": "address"
        },
        {
          "indexed": true,
          "internalType": "address",
          "name": "to",
          "type": "address"
        },
        {
          "indexed": false,
          "internalType": "uint256",
          "name": "value",
          "type": "uint256"
        }
      ],
      "name": "Transfer",
      "type": "event"
    },
    {
      "inputs": [
        {
          "internalType": "address",
          "name": "holder",
          "type": "address"
        },
        {
          "internalType": "address",
          "name": "spender",
          "type": "address"
        }
      ],
      "name": "allowance",
      "outputs": [
        {
          "internalType": "uint256",
          "name": "",
          "type": "uint256"
        }
      ],
      "stateMutability": "view",
      "type": "function"
    },
    {
      "inputs": [
        {
          "internalType": "address",
          "name": "spender",
          "type": "address"
        },
        {
          "internalType": "uint256",
          "name": "value",
          "type": "uint256"
        }
      ],
      "name": "approve",
      "outputs": [
        {
          "internalType": "bool",
          "name": "",
          "type": "bool"
        }
      ],
      "stateMutability": "nonpayable",
      "type": "function"
    },
    {
      "inputs": [
        {
          "internalType": "address",
          "name": "operator",
          "type": "address"
        }
      ],
      "name": "authorizeOperator",
      "outputs": [],
      "stateMutability": "nonpayable",
      "type": "function"
    },
    {
      "inputs": [
        {
          "internalType": "address",
          "name": "tokenHolder",
          "type": "address"
        }
      ],
      "name": "balanceOf",
      "outputs": [
        {
          "internalType": "uint256",
          "name": "",
          "type": "uint256"
        }
      ],
      "stateMutability": "view",
      "type": "function"
    },
    {
      "inputs": [
        {
          "internalType": "uint256",
          "name": "amount",
          "type": "uint256"
        },
        {
          "internalType": "bytes",
          "name": "data",
          "type": "bytes"
        }
      ],
      "name": "burn",
      "outputs": [],
      "stateMutability": "nonpayable",
      "type": "function"
    },
    {
      "inputs": [],
      "name": "decimals",
      "outputs": [
        {
          "internalType": "uint8",
          "name": "",
          "type": "uint8"
        }
      ],
      "stateMutability": "pure",
      "type": "function"
    },
    {
      "inputs": [],
      "name": "defaultOperators",
      "outputs": [
        {
          "internalType": "address[]",
          "name": "",
          "type": "address[]"
        }
      ],
      "stateMutability": "view",
      "type": "function"
    },
    {
      "inputs": [],
      "name": "granularity",
      "outputs": [
        {
          "internalType": "uint256",
          "name": "",
          "type": "uint256"
        }
      ],
      "stateMutability": "view",
      "type": "function"
    },
    {
      "inputs": [
        {
          "internalType": "address",
          "name": "operator",
          "type": "address"
        },
        {
          "internalType": "address",
          "name": "tokenHolder",
          "type": "address"
        }
      ],
      "name": "isOperatorFor",
      "outputs": [
        {
          "internalType": "bool",
          "name": "",
          "type": "bool"
        }
      ],
      "stateMutability": "view",
      "type": "function"
    },
    {
      "inputs": [],
      "name": "name",
      "outputs": [
        {
          "internalType": "string",
          "name": "",
          "type": "string"
        }
      ],
      "stateMutability": "view",
      "type": "function"
    },
    {
      "inputs": [
        {
          "internalType": "address",
          "name": "account",
          "type": "address"
        },
        {
          "internalType": "uint256",
          "name": "amount",
          "type": "uint256"
        },
        {
          "internalType": "bytes",
          "name": "data",
          "type": "bytes"
        },
        {
          "internalType": "bytes",
          "name": "operatorData",
          "type": "bytes"
        }
      ],
      "name": "operatorBurn",
      "outputs": [],
      "stateMutability": "nonpayable",
      "type": "function"
    },
    {
      "inputs": [
        {
          "internalType": "address",
          "name": "sender",
          "type": "address"
        },
        {
          "internalType": "address",
          "name": "recipient",
          "type": "address"
        },
        {
          "internalType": "uint256",
          "name": "amount",
          "type": "uint256"
        },
        {
          "internalType": "bytes",
          "name": "data",
          "type": "bytes"
        },
        {
          "internalType": "bytes",
          "name": "operatorData",
          "type": "bytes"
        }
      ],
      "name": "operatorSend",
      "outputs": [],
      "stateMutability": "nonpayable",
      "type": "function"
    },
    {
      "inputs": [
        {
          "internalType": "address",
          "name": "operator",
          "type": "address"
        }
      ],
      "name": "revokeOperator",
      "outputs": [],
      "stateMutability": "nonpayable",
      "type": "function"
    },
    {
      "inputs": [
        {
          "internalType": "address",
          "name": "recipient",
          "type": "address"
        },
        {
          "internalType": "uint256",
          "name": "amount",
          "type": "uint256"
        },
        {
          "internalType": "bytes",
          "name": "data",
          "type": "bytes"
        }
      ],
      "name": "send",
      "outputs": [],
      "stateMutability": "nonpayable",
      "type": "function"
    },
    {
      "inputs": [],
      "name": "symbol",
      "outputs": [
        {
          "internalType": "string",
          "name": "",
          "type": "string"
        }
      ],
      "stateMutability": "view",
      "type": "function"
    },
    {
      "inputs": [],
      "name": "totalSupply",
      "outputs": [
        {
          "internalType": "uint256",
          "name": "",
          "type": "uint256"
        }
      ],
      "stateMutability": "view",
      "type": "function"
    },
    {
      "inputs": [
        {
          "internalType": "address",
          "name": "recipient",
          "type": "address"
        },
        {
          "internalType": "uint256",
          "name": "amount",
          "type": "uint256"
        }
      ],
      "name": "transfer",
      "outputs": [
        {
          "internalType": "bool",
          "name": "",
          "type": "bool"
        }
      ],
      "stateMutability": "nonpayable",
      "type": "function"
    },
    {
      "inputs": [
        {
          "internalType": "address",
          "name": "holder",
          "type": "address"
        },
        {
          "internalType": "address",
          "name": "recipient",
          "type": "address"
        },
        {
          "internalType": "uint256",
          "name": "amount",
          "type": "uint256"
        }
      ],
      "name": "transferFrom",
      "outputs": [
        {
          "internalType": "bool",
          "name": "",
          "type": "bool"
        }
      ],
      "stateMutability": "nonpayable",
      "type": "function"
    }
  ],
  "bytecode": "0x60806040523480156200001157600080fd5b506040516200360a3803806200360a833981810160405281019062000037919062000500565b82600290805190602001906200004f92919062000296565b5081600390805190602001906200006892919062000296565b5080600490805190602001906200008192919062000327565b5060005b81518110156200013e57600160056000848481518110620000cf577f4e487b7100000000000000000000000000000000000000000000000000000000600052603260045260246000fd5b602002602001015173ffffffffffffffffffffffffffffffffffffffff1673ffffffffffffffffffffffffffffffffffffffff16815260200190815260200160002060006101000a81548160ff0219169083151502179055508080620001359062000778565b91505062000085565b50731820a4b7618bde71dce8cdc73aab6c95905fad2473ffffffffffffffffffffffffffffffffffffffff166329965a1d307fac7fbab5f54a3ca8194167523c6753bfeb96a445279294b6125b68cce2177054306040518463ffffffff1660e01b8152600401620001b293929190620005c3565b600060405180830381600087803b158015620001cd57600080fd5b505af1158015620001e2573d6000803e3d6000fd5b50505050731820a4b7618bde71dce8cdc73aab6c95905fad2473ffffffffffffffffffffffffffffffffffffffff166329965a1d307faea199e31a596269b42cdafd93407f14436db6e4cad65417994c2eb37381e05a306040518463ffffffff1660e01b81526004016200025993929190620005c3565b600060405180830381600087803b1580156200027457600080fd5b505af115801562000289573d6000803e3d6000fd5b505050505050506200087e565b828054620002a4906200070c565b90600052602060002090601f016020900481019282620002c8576000855562000314565b82601f10620002e357805160ff191683800117855562000314565b8280016001018555821562000314579182015b8281111562000313578251825591602001919060010190620002f6565b5b509050620003239190620003b6565b5090565b828054828255906000526020600020908101928215620003a3579160200282015b82811115620003a25782518260006101000a81548173ffffffffffffffffffffffffffffffffffffffff021916908373ffffffffffffffffffffffffffffffffffffffff1602179055509160200191906001019062000348565b5b509050620003b29190620003b6565b5090565b5b80821115620003d1576000816000905550600101620003b7565b5090565b6000620003ec620003e68462000629565b62000600565b905080838252602082019050828560208602820111156200040c57600080fd5b60005b858110156200044057816200042588826200048f565b8452602084019350602083019250506001810190506200040f565b5050509392505050565b6000620004616200045b8462000658565b62000600565b9050828152602081018484840111156200047a57600080fd5b62000487848285620006d6565b509392505050565b600081519050620004a08162000864565b92915050565b600082601f830112620004b857600080fd5b8151620004ca848260208601620003d5565b91505092915050565b600082601f830112620004e557600080fd5b8151620004f78482602086016200044a565b91505092915050565b6000806000606084860312156200051657600080fd5b600084015167ffffffffffffffff8111156200053157600080fd5b6200053f86828701620004d3565b935050602084015167ffffffffffffffff8111156200055d57600080fd5b6200056b86828701620004d3565b925050604084015167ffffffffffffffff8111156200058957600080fd5b6200059786828701620004a6565b9150509250925092565b620005ac816200068e565b82525050565b620005bd81620006a2565b82525050565b6000606082019050620005da6000830186620005a1565b620005e96020830185620005b2565b620005f86040830184620005a1565b949350505050565b60006200060c6200061f565b90506200061a828262000742565b919050565b6000604051905090565b600067ffffffffffffffff82111562000647576200064662000824565b5b602082029050602081019050919050565b600067ffffffffffffffff82111562000676576200067562000824565b5b620006818262000853565b9050602081019050919050565b60006200069b82620006ac565b9050919050565b6000819050919050565b600073ffffffffffffffffffffffffffffffffffffffff82169050919050565b6000819050919050565b60005b83811015620006f6578082015181840152602081019050620006d9565b8381111562000706576000848401525b50505050565b600060028204905060018216806200072557607f821691505b602082108114156200073c576200073b620007f5565b5b50919050565b6200074d8262000853565b810181811067ffffffffffffffff821117156200076f576200076e62000824565b5b80604052505050565b60006200078582620006cc565b91507fffffffffffffffffffffffffffffffffffffffffffffffffffffffffffffffff821415620007bb57620007ba620007c6565b5b600182019050919050565b7f4e487b7100000000000000000000000000000000000000000000000000000000600052601160045260246000fd5b7f4e487b7100000000000000000000000000000000000000000000000000000000600052602260045260246000fd5b7f4e487b7100000000000000000000000000000000000000000000000000000000600052604160045260246000fd5b6000601f19601f8301169050919050565b6200086f816200068e565b81146200087b57600080fd5b50565b612d7c806200088e6000396000f3fe608060405234801561001057600080fd5b50600436106101165760003560e01c8063959b8c3f116100a2578063d95b637111610071578063d95b6371146102e3578063dd62ed3e14610313578063fad8b32a14610343578063fc673c4f1461035f578063fe9d93031461037b57610116565b8063959b8c3f1461025d57806395d89b41146102795780639bd9bbc614610297578063a9059cbb146102b357610116565b806323b872dd116100e957806323b872dd146101a5578063313ce567146101d5578063556f0dc7146101f357806362ad1b831461021157806370a082311461022d57610116565b806306e485381461011b57806306fdde0314610139578063095ea7b31461015757806318160ddd14610187575b600080fd5b610123610397565b604051610130919061235f565b60405180910390f35b610141610425565b60405161014e919061239c565b60405180910390f35b610171600480360381019061016c9190611e11565b6104b7565b60405161017e9190612381565b60405180910390f35b61018f6104da565b60405161019c919061257e565b60405180910390f35b6101bf60048036038101906101ba9190611d1b565b6104e4565b6040516101cc9190612381565b60405180910390f35b6101dd61066e565b6040516101ea91906125de565b60405180910390f35b6101fb610677565b604051610208919061257e565b60405180910390f35b61022b60048036038101906102269190611d6a565b610680565b005b61024760048036038101906102429190611c8d565b6106e6565b604051610254919061257e565b60405180910390f35b61027760048036038101906102729190611c8d565b61072e565b005b61028161098f565b60405161028e919061239c565b60405180910390f35b6102b160048036038101906102ac9190611e4d565b610a21565b005b6102cd60048036038101906102c89190611e11565b610a4b565b6040516102da9190612381565b60405180910390f35b6102fd60048036038101906102f89190611cdf565b610b59565b60405161030a9190612381565b60405180910390f35b61032d60048036038101906103289190611cdf565b610d0a565b60405161033a919061257e565b60405180910390f35b61035d60048036038101906103589190611c8d565b610d91565b005b61037960048036038101906103749190611eb4565b610ff2565b005b61039560048036038101906103909190611f47565b611054565b005b6060600480548060200260200160405190810160405280929190818152602001828054801561041b57602002820191906000526020600020905b8160009054906101000a900473ffffffffffffffffffffffffffffffffffffffff1673ffffffffffffffffffffffffffffffffffffffff16815260200190600101908083116103d1575b5050505050905090565b606060028054610434906127eb565b80601f0160208091040260200160405190810160405280929190818152602001828054610460906127eb565b80156104ad5780601f10610482576101008083540402835291602001916104ad565b820191906000526020600020905b81548152906001019060200180831161049057829003601f168201915b5050505050905090565b6000806104c261107a565b90506104cf818585611082565b600191505092915050565b6000600154905090565b60008073ffffffffffffffffffffffffffffffffffffffff168373ffffffffffffffffffffffffffffffffffffffff161415610555576040517f08c379a000000000000000000000000000000000000000000000000000000000815260040161054c906124be565b60405180910390fd5b600073ffffffffffffffffffffffffffffffffffffffff168473ffffffffffffffffffffffffffffffffffffffff1614156105c5576040517f08c379a00000000000000000000000000000000000000000000000000000000081526004016105bc906124fe565b60405180910390fd5b60006105cf61107a565b90506105fd81868686604051806020016040528060008152506040518060200160405280600081525061124d565b6106088582856113c3565b61063481868686604051806020016040528060008152506040518060200160405280600081525061144f565b6106628186868660405180602001604052806000815250604051806020016040528060008152506000611669565b60019150509392505050565b60006012905090565b60006001905090565b61069161068b61107a565b86610b59565b6106d0576040517f08c379a00000000000000000000000000000000000000000000000000000000081526004016106c7906124de565b60405180910390fd5b6106df8585858585600161184a565b5050505050565b60008060008373ffffffffffffffffffffffffffffffffffffffff1673ffffffffffffffffffffffffffffffffffffffff168152602001908152602001600020549050919050565b8073ffffffffffffffffffffffffffffffffffffffff1661074d61107a565b73ffffffffffffffffffffffffffffffffffffffff1614156107a4576040517f08c379a000000000000000000000000000000000000000000000000000000000815260040161079b9061245e565b60405180910390fd5b600560008273ffffffffffffffffffffffffffffffffffffffff1673ffffffffffffffffffffffffffffffffffffffff16815260200190815260200160002060009054906101000a900460ff161561088e576007600061080261107a565b73ffffffffffffffffffffffffffffffffffffffff1673ffffffffffffffffffffffffffffffffffffffff16815260200190815260200160002060008273ffffffffffffffffffffffffffffffffffffffff1673ffffffffffffffffffffffffffffffffffffffff16815260200190815260200160002060006101000a81549060ff021916905561092b565b60016006600061089c61107a565b73ffffffffffffffffffffffffffffffffffffffff1673ffffffffffffffffffffffffffffffffffffffff16815260200190815260200160002060008373ffffffffffffffffffffffffffffffffffffffff1673ffffffffffffffffffffffffffffffffffffffff16815260200190815260200160002060006101000a81548160ff0219169083151502179055505b61093361107a565b73ffffffffffffffffffffffffffffffffffffffff168173ffffffffffffffffffffffffffffffffffffffff167ff4caeb2d6ca8932a215a353d0703c326ec2d81fc68170f320eb2ab49e9df61f960405160405180910390a350565b60606003805461099e906127eb565b80601f01602080910402602001604051908101604052809291908181526020018280546109ca906127eb565b8015610a175780601f106109ec57610100808354040283529160200191610a17565b820191906000526020600020905b8154815290600101906020018083116109fa57829003601f168201915b5050505050905090565b610a46610a2c61107a565b84848460405180602001604052806000815250600161184a565b505050565b60008073ffffffffffffffffffffffffffffffffffffffff168373ffffffffffffffffffffffffffffffffffffffff161415610abc576040517f08c379a0000000000000000000000000000000000000000000000000000000008152600401610ab3906124be565b60405180910390fd5b6000610ac661107a565b9050610af481828686604051806020016040528060008152506040518060200160405280600081525061124d565b610b2081828686604051806020016040528060008152506040518060200160405280600081525061144f565b610b4e8182868660405180602001604052806000815250604051806020016040528060008152506000611669565b600191505092915050565b60008173ffffffffffffffffffffffffffffffffffffffff168373ffffffffffffffffffffffffffffffffffffffff161480610c715750600560008473ffffffffffffffffffffffffffffffffffffffff1673ffffffffffffffffffffffffffffffffffffffff16815260200190815260200160002060009054906101000a900460ff168015610c705750600760008373ffffffffffffffffffffffffffffffffffffffff1673ffffffffffffffffffffffffffffffffffffffff16815260200190815260200160002060008473ffffffffffffffffffffffffffffffffffffffff1673ffffffffffffffffffffffffffffffffffffffff16815260200190815260200160002060009054906101000a900460ff16155b5b80610d025750600660008373ffffffffffffffffffffffffffffffffffffffff1673ffffffffffffffffffffffffffffffffffffffff16815260200190815260200160002060008473ffffffffffffffffffffffffffffffffffffffff1673ffffffffffffffffffffffffffffffffffffffff16815260200190815260200160002060009054906101000a900460ff165b905092915050565b6000600860008473ffffffffffffffffffffffffffffffffffffffff1673ffffffffffffffffffffffffffffffffffffffff16815260200190815260200160002060008373ffffffffffffffffffffffffffffffffffffffff1673ffffffffffffffffffffffffffffffffffffffff16815260200190815260200160002054905092915050565b610d9961107a565b73ffffffffffffffffffffffffffffffffffffffff168173ffffffffffffffffffffffffffffffffffffffff161415610e07576040517f08c379a0000000000000000000000000000000000000000000000000000000008152600401610dfe9061247e565b60405180910390fd5b600560008273ffffffffffffffffffffffffffffffffffffffff1673ffffffffffffffffffffffffffffffffffffffff16815260200190815260200160002060009054906101000a900460ff1615610efa57600160076000610e6761107a565b73ffffffffffffffffffffffffffffffffffffffff1673ffffffffffffffffffffffffffffffffffffffff16815260200190815260200160002060008373ffffffffffffffffffffffffffffffffffffffff1673ffffffffffffffffffffffffffffffffffffffff16815260200190815260200160002060006101000a81548160ff021916908315150217905550610f8e565b60066000610f0661107a565b73ffffffffffffffffffffffffffffffffffffffff1673ffffffffffffffffffffffffffffffffffffffff16815260200190815260200160002060008273ffffffffffffffffffffffffffffffffffffffff1673ffffffffffffffffffffffffffffffffffffffff16815260200190815260200160002060006101000a81549060ff02191690555b610f9661107a565b73ffffffffffffffffffffffffffffffffffffffff168173ffffffffffffffffffffffffffffffffffffffff167f50546e66e5f44d728365dc3908c63bc5cfeeab470722c1677e3073a6ac294aa160405160405180910390a350565b611003610ffd61107a565b85610b59565b611042576040517f08c379a0000000000000000000000000000000000000000000000000000000008152600401611039906124de565b60405180910390fd5b61104e8484848461196a565b50505050565b61107661105f61107a565b83836040518060200160405280600081525061196a565b5050565b600033905090565b600073ffffffffffffffffffffffffffffffffffffffff168373ffffffffffffffffffffffffffffffffffffffff1614156110f2576040517f08c379a00000000000000000000000000000000000000000000000000000000081526004016110e9906123be565b60405180910390fd5b600073ffffffffffffffffffffffffffffffffffffffff168273ffffffffffffffffffffffffffffffffffffffff161415611162576040517f08c379a00000000000000000000000000000000000000000000000000000000081526004016111599061255e565b60405180910390fd5b80600860008573ffffffffffffffffffffffffffffffffffffffff1673ffffffffffffffffffffffffffffffffffffffff16815260200190815260200160002060008473ffffffffffffffffffffffffffffffffffffffff1673ffffffffffffffffffffffffffffffffffffffff168152602001908152602001600020819055508173ffffffffffffffffffffffffffffffffffffffff168373ffffffffffffffffffffffffffffffffffffffff167f8c5be1e5ebec7d5bd14f71427d1e84f3dd0314c0f7b2291e5b200ac8c7c3b92583604051611240919061257e565b60405180910390a3505050565b6000731820a4b7618bde71dce8cdc73aab6c95905fad2473ffffffffffffffffffffffffffffffffffffffff1663aabbb8ca877f29ddb589b1fb5fc7cf394961c1adf5f8c6454761adf795e67fe149f658abe8956040518363ffffffff1660e01b81526004016112be929190612336565b60206040518083038186803b1580156112d657600080fd5b505afa1580156112ea573d6000803e3d6000fd5b505050506040513d601f19601f8201168201806040525081019061130e9190611cb6565b9050600073ffffffffffffffffffffffffffffffffffffffff168173ffffffffffffffffffffffffffffffffffffffff16146113ba578073ffffffffffffffffffffffffffffffffffffffff166375ab97828888888888886040518763ffffffff1660e01b8152600401611387969594939291906122c7565b600060405180830381600087803b1580156113a157600080fd5b505af11580156113b5573d6000803e3d6000fd5b505050505b50505050505050565b60006113cf8484610d0a565b90507fffffffffffffffffffffffffffffffffffffffffffffffffffffffffffffffff8114611449578181101561143b576040517f08c379a00000000000000000000000000000000000000000000000000000000081526004016114329061243e565b60405180910390fd5b6114488484848403611082565b5b50505050565b61145b86868686611bbd565b60008060008773ffffffffffffffffffffffffffffffffffffffff1673ffffffffffffffffffffffffffffffffffffffff168152602001908152602001600020549050838110156114e1576040517f08c379a00000000000000000000000000000000000000000000000000000000081526004016114d8906123fe565b60405180910390fd5b8381036000808873ffffffffffffffffffffffffffffffffffffffff1673ffffffffffffffffffffffffffffffffffffffff16815260200190815260200160002081905550836000808773ffffffffffffffffffffffffffffffffffffffff1673ffffffffffffffffffffffffffffffffffffffff168152602001908152602001600020600082825461157491906126c0565b925050819055508473ffffffffffffffffffffffffffffffffffffffff168673ffffffffffffffffffffffffffffffffffffffff168873ffffffffffffffffffffffffffffffffffffffff167f06b541ddaa720db2b10a4d0cdac39b8d360425fc073085fac19bc826146779878787876040516115f393929190612599565b60405180910390a48473ffffffffffffffffffffffffffffffffffffffff168673ffffffffffffffffffffffffffffffffffffffff167fddf252ad1be2c89b69c2b068fc378daa952ba7f163c4a11628f55a4df523b3ef86604051611658919061257e565b60405180910390a350505050505050565b6000731820a4b7618bde71dce8cdc73aab6c95905fad2473ffffffffffffffffffffffffffffffffffffffff1663aabbb8ca877fb281fc8c12954d22544db45de3159a39272895b169a852b314f9cc762e44c53b6040518363ffffffff1660e01b81526004016116da929190612336565b60206040518083038186803b1580156116f257600080fd5b505afa158015611706573d6000803e3d6000fd5b505050506040513d601f19601f8201168201806040525081019061172a9190611cb6565b9050600073ffffffffffffffffffffffffffffffffffffffff168173ffffffffffffffffffffffffffffffffffffffff16146117d9578073ffffffffffffffffffffffffffffffffffffffff166223de298989898989896040518763ffffffff1660e01b81526004016117a2969594939291906122c7565b600060405180830381600087803b1580156117bc57600080fd5b505af11580156117d0573d6000803e3d6000fd5b50505050611840565b811561183f576117fe8673ffffffffffffffffffffffffffffffffffffffff16611bc3565b1561183e576040517f08c379a00000000000000000000000000000000000000000000000000000000081526004016118359061249e565b60405180910390fd5b5b5b5050505050505050565b600073ffffffffffffffffffffffffffffffffffffffff168673ffffffffffffffffffffffffffffffffffffffff1614156118ba576040517f08c379a00000000000000000000000000000000000000000000000000000000081526004016118b1906123de565b60405180910390fd5b600073ffffffffffffffffffffffffffffffffffffffff168573ffffffffffffffffffffffffffffffffffffffff16141561192a576040517f08c379a00000000000000000000000000000000000000000000000000000000081526004016119219061253e565b60405180910390fd5b600061193461107a565b905061194481888888888861124d565b61195281888888888861144f565b61196181888888888888611669565b50505050505050565b600073ffffffffffffffffffffffffffffffffffffffff168473ffffffffffffffffffffffffffffffffffffffff1614156119da576040517f08c379a00000000000000000000000000000000000000000000000000000000081526004016119d19061241e565b60405180910390fd5b60006119e461107a565b90506119f58186600087878761124d565b611a028186600087611bbd565b60008060008773ffffffffffffffffffffffffffffffffffffffff1673ffffffffffffffffffffffffffffffffffffffff16815260200190815260200160002054905084811015611a88576040517f08c379a0000000000000000000000000000000000000000000000000000000008152600401611a7f9061251e565b60405180910390fd5b8481036000808873ffffffffffffffffffffffffffffffffffffffff1673ffffffffffffffffffffffffffffffffffffffff168152602001908152602001600020819055508460016000828254611adf9190612716565b925050819055508573ffffffffffffffffffffffffffffffffffffffff168273ffffffffffffffffffffffffffffffffffffffff167fa78a9be3a7b862d26933ad85fb11d80ef66b8f972d7cbba06621d583943a4098878787604051611b4793929190612599565b60405180910390a3600073ffffffffffffffffffffffffffffffffffffffff168673ffffffffffffffffffffffffffffffffffffffff167fddf252ad1be2c89b69c2b068fc378daa952ba7f163c4a11628f55a4df523b3ef87604051611bad919061257e565b60405180910390a3505050505050565b50505050565b6000808273ffffffffffffffffffffffffffffffffffffffff163b119050919050565b6000611bf9611bf48461261e565b6125f9565b905082815260208101848484011115611c1157600080fd5b611c1c8482856127a9565b509392505050565b600081359050611c3381612d18565b92915050565b600081519050611c4881612d18565b92915050565b600082601f830112611c5f57600080fd5b8135611c6f848260208601611be6565b91505092915050565b600081359050611c8781612d2f565b92915050565b600060208284031215611c9f57600080fd5b6000611cad84828501611c24565b91505092915050565b600060208284031215611cc857600080fd5b6000611cd684828501611c39565b91505092915050565b60008060408385031215611cf257600080fd5b6000611d0085828601611c24565b9250506020611d1185828601611c24565b9150509250929050565b600080600060608486031215611d3057600080fd5b6000611d3e86828701611c24565b9350506020611d4f86828701611c24565b9250506040611d6086828701611c78565b9150509250925092565b600080600080600060a08688031215611d8257600080fd5b6000611d9088828901611c24565b9550506020611da188828901611c24565b9450506040611db288828901611c78565b935050606086013567ffffffffffffffff811115611dcf57600080fd5b611ddb88828901611c4e565b925050608086013567ffffffffffffffff811115611df857600080fd5b611e0488828901611c4e565b9150509295509295909350565b60008060408385031215611e2457600080fd5b6000611e3285828601611c24565b9250506020611e4385828601611c78565b9150509250929050565b600080600060608486031215611e6257600080fd5b6000611e7086828701611c24565b9350506020611e8186828701611c78565b925050604084013567ffffffffffffffff811115611e9e57600080fd5b611eaa86828701611c4e565b9150509250925092565b60008060008060808587031215611eca57600080fd5b6000611ed887828801611c24565b9450506020611ee987828801611c78565b935050604085013567ffffffffffffffff811115611f0657600080fd5b611f1287828801611c4e565b925050606085013567ffffffffffffffff811115611f2f57600080fd5b611f3b87828801611c4e565b91505092959194509250565b60008060408385031215611f5a57600080fd5b6000611f6885828601611c78565b925050602083013567ffffffffffffffff811115611f8557600080fd5b611f9185828601611c4e565b9150509250929050565b6000611fa78383611fb3565b60208301905092915050565b611fbc8161274a565b82525050565b611fcb8161274a565b82525050565b6000611fdc8261265f565b611fe6818561268d565b9350611ff18361264f565b8060005b838110156120225781516120098882611f9b565b975061201483612680565b925050600181019050611ff5565b5085935050505092915050565b6120388161275c565b82525050565b61204781612768565b82525050565b60006120588261266a565b612062818561269e565b93506120728185602086016127b8565b61207b816128db565b840191505092915050565b600061209182612675565b61209b81856126af565b93506120ab8185602086016127b8565b6120b4816128db565b840191505092915050565b60006120cc6025836126af565b91506120d7826128ec565b604082019050919050565b60006120ef6022836126af565b91506120fa8261293b565b604082019050919050565b60006121126027836126af565b915061211d8261298a565b604082019050919050565b60006121356022836126af565b9150612140826129d9565b604082019050919050565b6000612158601e836126af565b915061216382612a28565b602082019050919050565b600061217b6024836126af565b915061218682612a51565b604082019050919050565b600061219e6021836126af565b91506121a982612aa0565b604082019050919050565b60006121c1604d836126af565b91506121cc82612aef565b606082019050919050565b60006121e46024836126af565b91506121ef82612b64565b604082019050919050565b6000612207602c836126af565b915061221282612bb3565b604082019050919050565b600061222a6026836126af565b915061223582612c02565b604082019050919050565b600061224d6023836126af565b915061225882612c51565b604082019050919050565b60006122706020836126af565b915061227b82612ca0565b602082019050919050565b60006122936023836126af565b915061229e82612cc9565b604082019050919050565b6122b281612792565b82525050565b6122c18161279c565b82525050565b600060c0820190506122dc6000830189611fc2565b6122e96020830188611fc2565b6122f66040830187611fc2565b61230360608301866122a9565b8181036080830152612315818561204d565b905081810360a0830152612329818461204d565b9050979650505050505050565b600060408201905061234b6000830185611fc2565b612358602083018461203e565b9392505050565b600060208201905081810360008301526123798184611fd1565b905092915050565b6000602082019050612396600083018461202f565b92915050565b600060208201905081810360008301526123b68184612086565b905092915050565b600060208201905081810360008301526123d7816120bf565b9050919050565b600060208201905081810360008301526123f7816120e2565b9050919050565b6000602082019050818103600083015261241781612105565b9050919050565b6000602082019050818103600083015261243781612128565b9050919050565b600060208201905081810360008301526124578161214b565b9050919050565b600060208201905081810360008301526124778161216e565b9050919050565b6000602082019050818103600083015261249781612191565b9050919050565b600060208201905081810360008301526124b7816121b4565b9050919050565b600060208201905081810360008301526124d7816121d7565b9050919050565b600060208201905081810360008301526124f7816121fa565b9050919050565b600060208201905081810360008301526125178161221d565b9050919050565b6000602082019050818103600083015261253781612240565b9050919050565b6000602082019050818103600083015261255781612263565b9050919050565b6000602082019050818103600083015261257781612286565b9050919050565b600060208201905061259360008301846122a9565b92915050565b60006060820190506125ae60008301866122a9565b81810360208301526125c0818561204d565b905081810360408301526125d4818461204d565b9050949350505050565b60006020820190506125f360008301846122b8565b92915050565b6000612603612614565b905061260f828261281d565b919050565b6000604051905090565b600067ffffffffffffffff821115612639576126386128ac565b5b612642826128db565b9050602081019050919050565b6000819050602082019050919050565b600081519050919050565b600081519050919050565b600081519050919050565b6000602082019050919050565b600082825260208201905092915050565b600082825260208201905092915050565b600082825260208201905092915050565b60006126cb82612792565b91506126d683612792565b9250827fffffffffffffffffffffffffffffffffffffffffffffffffffffffffffffffff0382111561270b5761270a61284e565b5b828201905092915050565b600061272182612792565b915061272c83612792565b92508282101561273f5761273e61284e565b5b828203905092915050565b600061275582612772565b9050919050565b60008115159050919050565b6000819050919050565b600073ffffffffffffffffffffffffffffffffffffffff82169050919050565b6000819050919050565b600060ff82169050919050565b82818337600083830152505050565b60005b838110156127d65780820151818401526020810190506127bb565b838111156127e5576000848401525b50505050565b6000600282049050600182168061280357607f821691505b602082108114156128175761281661287d565b5b50919050565b612826826128db565b810181811067ffffffffffffffff82111715612845576128446128ac565b5b80604052505050565b7f4e487b7100000000000000000000000000000000000000000000000000000000600052601160045260246000fd5b7f4e487b7100000000000000000000000000000000000000000000000000000000600052602260045260246000fd5b7f4e487b7100000000000000000000000000000000000000000000000000000000600052604160045260246000fd5b6000601f19601f8301169050919050565b7f4552433737373a20617070726f76652066726f6d20746865207a65726f20616460008201527f6472657373000000000000000000000000000000000000000000000000000000602082015250565b7f4552433737373a2073656e642066726f6d20746865207a65726f20616464726560008201527f7373000000000000000000000000000000000000000000000000000000000000602082015250565b7f4552433737373a207472616e7366657220616d6f756e7420657863656564732060008201527f62616c616e636500000000000000000000000000000000000000000000000000602082015250565b7f4552433737373a206275726e2066726f6d20746865207a65726f20616464726560008201527f7373000000000000000000000000000000000000000000000000000000000000602082015250565b7f4552433737373a20696e73756666696369656e7420616c6c6f77616e63650000600082015250565b7f4552433737373a20617574686f72697a696e672073656c66206173206f70657260008201527f61746f7200000000000000000000000000000000000000000000000000000000602082015250565b7f4552433737373a207265766f6b696e672073656c66206173206f70657261746f60008201527f7200000000000000000000000000000000000000000000000000000000000000602082015250565b7f4552433737373a20746f6b656e20726563697069656e7420636f6e747261637460008201527f20686173206e6f20696d706c656d656e74657220666f7220455243373737546f60208201527f6b656e73526563697069656e7400000000000000000000000000000000000000604082015250565b7f4552433737373a207472616e7366657220746f20746865207a65726f2061646460008201527f7265737300000000000000000000000000000000000000000000000000000000602082015250565b7f4552433737373a2063616c6c6572206973206e6f7420616e206f70657261746f60008201527f7220666f7220686f6c6465720000000000000000000000000000000000000000602082015250565b7f4552433737373a207472616e736665722066726f6d20746865207a65726f206160008201527f6464726573730000000000000000000000000000000000000000000000000000602082015250565b7f4552433737373a206275726e20616d6f756e7420657863656564732062616c6160008201527f6e63650000000000000000000000000000000000000000000000000000000000602082015250565b7f4552433737373a2073656e6420746f20746865207a65726f2061646472657373600082015250565b7f4552433737373a20617070726f766520746f20746865207a65726f206164647260008201527f6573730000000000000000000000000000000000000000000000000000000000602082015250565b612d218161274a565b8114612d2c57600080fd5b50565b612d3881612792565b8114612d4357600080fd5b5056fea2646970667358221220489ec921fad8537fa8e56dcf7654a7fb3fe0a3b5b9890d789670e4759d427bca64736f6c63430008040033",
  "linkReferences": {},
  "deployedLinkReferences": {}
}