{
  "_format": "hh-sol-artifact-1",
  "contractName": "MISOLauncher",
  "sourceName": "contracts/MISOLauncher.sol",
  "abi": [
    {
      "inputs": [],
      "stateMutability": "nonpayable",
      "type": "constructor"
    },
    {
      "anonymous": false,
      "inputs": [
        {
          "indexed": true,
          "internalType": "address",
          "name": "owner",
          "type": "address"
        },
        {
          "indexed": true,
          "internalType": "address",
          "name": "addr",
          "type": "address"
        },
        {
          "indexed": false,
          "internalType": "address",
          "name": "launcherTemplate",
          "type": "address"
        }
      ],
      "name": "LauncherCreated",
      "type": "event"
    },
    {
      "anonymous": false,
      "inputs": [
        {
          "indexed": false,
          "internalType": "address",
          "name": "newLauncher",
          "type": "address"
        },
        {
          "indexed": false,
          "internalType": "uint256",
          "name": "templateId",
          "type": "uint256"
        }
      ],
      "name": "LauncherTemplateAdded",
      "type": "event"
    },
    {
      "anonymous": false,
      "inputs": [
        {
          "indexed": false,
          "internalType": "address",
          "name": "launcher",
          "type": "address"
        },
        {
          "indexed": false,
          "internalType": "uint256",
          "name": "templateId",
          "type": "uint256"
        }
      ],
      "name": "LauncherTemplateRemoved",
      "type": "event"
    },
    {
      "anonymous": false,
      "inputs": [
        {
          "indexed": false,
          "internalType": "address",
          "name": "sender",
          "type": "address"
        }
      ],
      "name": "MisoInitLauncher",
      "type": "event"
    },
    {
      "inputs": [],
      "name": "LAUNCHER_MINTER_ROLE",
      "outputs": [
        {
          "internalType": "bytes32",
          "name": "",
          "type": "bytes32"
        }
      ],
      "stateMutability": "view",
      "type": "function"
    },
    {
      "inputs": [],
      "name": "WETH",
      "outputs": [
        {
          "internalType": "address",
          "name": "",
          "type": "address"
        }
      ],
      "stateMutability": "view",
      "type": "function"
    },
    {
      "inputs": [],
      "name": "accessControls",
      "outputs": [
        {
          "internalType": "contract MISOAccessControls",
          "name": "",
          "type": "address"
        }
      ],
      "stateMutability": "view",
      "type": "function"
    },
    {
      "inputs": [
        {
          "internalType": "address",
          "name": "_template",
          "type": "address"
        }
      ],
      "name": "addLiquidityLauncherTemplate",
      "outputs": [],
      "stateMutability": "nonpayable",
      "type": "function"
    },
    {
      "inputs": [],
      "name": "bentoBox",
      "outputs": [
        {
          "internalType": "contract IBentoBoxFactory",
          "name": "",
          "type": "address"
        }
      ],
      "stateMutability": "view",
      "type": "function"
    },
    {
      "inputs": [
        {
          "internalType": "uint256",
          "name": "_templateId",
          "type": "uint256"
        },
        {
          "internalType": "address",
          "name": "_token",
          "type": "address"
        },
        {
          "internalType": "uint256",
          "name": "_tokenSupply",
          "type": "uint256"
        },
        {
          "internalType": "address payable",
          "name": "_integratorFeeAccount",
          "type": "address"
        },
        {
          "internalType": "bytes",
          "name": "_data",
          "type": "bytes"
        }
      ],
      "name": "createLauncher",
      "outputs": [
        {
          "internalType": "address",
          "name": "newLauncher",
          "type": "address"
        }
      ],
      "stateMutability": "payable",
      "type": "function"
    },
    {
      "inputs": [
        {
          "internalType": "uint256",
          "name": "",
          "type": "uint256"
        }
      ],
      "name": "currentTemplateId",
      "outputs": [
        {
          "internalType": "uint256",
          "name": "",
          "type": "uint256"
        }
      ],
      "stateMutability": "view",
      "type": "function"
    },
    {
      "inputs": [
        {
          "internalType": "uint256",
          "name": "_templateId",
          "type": "uint256"
        },
        {
          "internalType": "address payable",
          "name": "_integratorFeeAccount",
          "type": "address"
        }
      ],
      "name": "deployLauncher",
      "outputs": [
        {
          "internalType": "address",
          "name": "launcher",
          "type": "address"
        }
      ],
      "stateMutability": "payable",
      "type": "function"
    },
    {
      "inputs": [
        {
          "internalType": "address",
          "name": "_launcher",
          "type": "address"
        }
      ],
      "name": "getLauncherTemplateId",
      "outputs": [
        {
          "internalType": "uint64",
          "name": "",
          "type": "uint64"
        }
      ],
      "stateMutability": "view",
      "type": "function"
    },
    {
      "inputs": [],
      "name": "getLaunchers",
      "outputs": [
        {
          "internalType": "address[]",
          "name": "",
          "type": "address[]"
        }
      ],
      "stateMutability": "view",
      "type": "function"
    },
    {
      "inputs": [
        {
          "internalType": "uint256",
          "name": "_templateId",
          "type": "uint256"
        }
      ],
      "name": "getLiquidityLauncherTemplate",
      "outputs": [
        {
          "internalType": "address",
          "name": "",
          "type": "address"
        }
      ],
      "stateMutability": "view",
      "type": "function"
    },
    {
      "inputs": [
        {
          "internalType": "address",
          "name": "_launcherTemplate",
          "type": "address"
        }
      ],
      "name": "getTemplateId",
      "outputs": [
        {
          "internalType": "uint256",
          "name": "",
          "type": "uint256"
        }
      ],
      "stateMutability": "view",
      "type": "function"
    },
    {
      "inputs": [
        {
          "internalType": "address",
          "name": "_address",
          "type": "address"
        }
      ],
      "name": "hasLauncherMinterRole",
      "outputs": [
        {
          "internalType": "bool",
          "name": "",
          "type": "bool"
        }
      ],
      "stateMutability": "view",
      "type": "function"
    },
    {
      "inputs": [
        {
          "internalType": "address",
          "name": "_accessControls",
          "type": "address"
        },
        {
          "internalType": "address",
          "name": "_WETH",
          "type": "address"
        },
        {
          "internalType": "address",
          "name": "_bentoBox",
          "type": "address"
        }
      ],
      "name": "initMISOLauncher",
      "outputs": [],
      "stateMutability": "nonpayable",
      "type": "function"
    },
    {
      "inputs": [],
      "name": "launcherFees",
      "outputs": [
        {
          "internalType": "uint128",
          "name": "minimumFee",
          "type": "uint128"
        },
        {
          "internalType": "uint32",
          "name": "integratorFeePct",
          "type": "uint32"
        }
      ],
      "stateMutability": "view",
      "type": "function"
    },
    {
      "inputs": [
        {
          "internalType": "address",
          "name": "",
          "type": "address"
        }
      ],
      "name": "launcherInfo",
      "outputs": [
        {
          "internalType": "bool",
          "name": "exists",
          "type": "bool"
        },
        {
          "internalType": "uint64",
          "name": "templateId",
          "type": "uint64"
        },
        {
          "internalType": "uint128",
          "name": "index",
          "type": "uint128"
        }
      ],
      "stateMutability": "view",
      "type": "function"
    },
    {
      "inputs": [],
      "name": "launcherTemplateId",
      "outputs": [
        {
          "internalType": "uint256",
          "name": "",
          "type": "uint256"
        }
      ],
      "stateMutability": "view",
      "type": "function"
    },
    {
      "inputs": [
        {
          "internalType": "uint256",
          "name": "",
          "type": "uint256"
        }
      ],
      "name": "launchers",
      "outputs": [
        {
          "internalType": "address",
          "name": "",
          "type": "address"
        }
      ],
      "stateMutability": "view",
      "type": "function"
    },
    {
      "inputs": [],
      "name": "locked",
      "outputs": [
        {
          "internalType": "bool",
          "name": "",
          "type": "bool"
        }
      ],
      "stateMutability": "view",
      "type": "function"
    },
    {
      "inputs": [],
      "name": "minimumFee",
      "outputs": [
        {
          "internalType": "uint128",
          "name": "",
          "type": "uint128"
        }
      ],
      "stateMutability": "view",
      "type": "function"
    },
    {
      "inputs": [],
      "name": "misoDiv",
      "outputs": [
        {
          "internalType": "address payable",
          "name": "",
          "type": "address"
        }
      ],
      "stateMutability": "view",
      "type": "function"
    },
    {
      "inputs": [],
      "name": "numberOfLiquidityLauncherContracts",
      "outputs": [
        {
          "internalType": "uint256",
          "name": "",
          "type": "uint256"
        }
      ],
      "stateMutability": "view",
      "type": "function"
    },
    {
      "inputs": [
        {
          "internalType": "uint256",
          "name": "_templateId",
          "type": "uint256"
        }
      ],
      "name": "removeLiquidityLauncherTemplate",
      "outputs": [],
      "stateMutability": "nonpayable",
      "type": "function"
    },
    {
      "inputs": [
        {
          "internalType": "uint256",
          "name": "_templateType",
          "type": "uint256"
        },
        {
          "internalType": "uint256",
          "name": "_templateId",
          "type": "uint256"
        }
      ],
      "name": "setCurrentTemplateId",
      "outputs": [],
      "stateMutability": "nonpayable",
      "type": "function"
    },
    {
      "inputs": [
        {
          "internalType": "address payable",
          "name": "_divaddr",
          "type": "address"
        }
      ],
      "name": "setDividends",
      "outputs": [],
      "stateMutability": "nonpayable",
      "type": "function"
    },
    {
      "inputs": [
        {
          "internalType": "uint256",
          "name": "_amount",
          "type": "uint256"
        }
      ],
      "name": "setIntegratorFeePct",
      "outputs": [],
      "stateMutability": "nonpayable",
      "type": "function"
    },
    {
      "inputs": [
        {
          "internalType": "bool",
          "name": "_locked",
          "type": "bool"
        }
      ],
      "name": "setLocked",
      "outputs": [],
      "stateMutability": "nonpayable",
      "type": "function"
    },
    {
      "inputs": [
        {
          "internalType": "uint256",
          "name": "_amount",
          "type": "uint256"
        }
      ],
      "name": "setMinimumFee",
      "outputs": [],
      "stateMutability": "nonpayable",
      "type": "function"
    }
  ],
  "bytecode": "0x608060405234801561001057600080fd5b50613ac4806100206000396000f3fe6080604052600436106101b75760003560e01c806386adc322116100ec578063ad5c46481161008a578063cd70f73411610064578063cd70f73414610627578063cf30901214610657578063d335ebda14610682578063fcb62f90146106bf576101b7565b8063ad5c464814610594578063bc79913b146105bf578063c9907b08146105fc576101b7565b806396f1266e116100c657806396f1266e146104ee5780639e5940cc146105195780639e9188ea14610542578063a5f4d70f1461056b576101b7565b806386adc3221461045d5780638c363a0b1461048857806392787b48146104c5576101b7565b80636b2ace871161015957806370433d031161013357806370433d03146103b3578063748365ef146103de5780637b7fb153146104095780638637e04114610432576101b7565b80636b2ace871461030c5780636c4ceb36146103375780636de88d9714610376576101b7565b80632ed4f578116101955780632ed4f578146102395780633eb63aa0146102765780633f1f44b0146102b3578063632cef90146102dc576101b7565b8063182a7506146101bc5780631a7626e7146101e5578063211e28b614610210575b600080fd5b3480156101c857600080fd5b506101e360048036038101906101de91906129b6565b6106eb565b005b3480156101f157600080fd5b506101fa61081a565b6040516102079190613296565b60405180910390f35b34801561021c57600080fd5b5061023760048036038101906102329190612964565b610843565b005b34801561024557600080fd5b50610260600480360381019061025b91906129b6565b610948565b60405161026d91906132da565b60405180910390f35b34801561028257600080fd5b5061029d600480360381019061029891906129b6565b610960565b6040516102aa9190612ed2565b60405180910390f35b3480156102bf57600080fd5b506102da60048036038101906102d591906129b6565b61099f565b005b6102f660048036038101906102f19190612a44565b610afb565b6040516103039190612ed2565b60405180910390f35b34801561031857600080fd5b50610321610d0e565b60405161032e9190613080565b60405180910390f35b34801561034357600080fd5b5061035e6004803603810190610359919061289a565b610d34565b60405161036d93929190612fe1565b60405180910390f35b34801561038257600080fd5b5061039d600480360381019061039891906129b6565b610d9b565b6040516103aa9190612ed2565b60405180910390f35b3480156103bf57600080fd5b506103c8610dd8565b6040516103d59190612fa4565b60405180910390f35b3480156103ea57600080fd5b506103f3610e66565b604051610400919061309b565b60405180910390f35b34801561041557600080fd5b50610430600480360381019061042b919061289a565b610e8a565b005b34801561043e57600080fd5b506104476111f2565b6040516104549190613018565b60405180910390f35b34801561046957600080fd5b50610472611216565b60405161047f91906132da565b60405180910390f35b34801561049457600080fd5b506104af60048036038101906104aa919061289a565b611223565b6040516104bc9190612fc6565b60405180910390f35b3480156104d157600080fd5b506104ec60048036038101906104e791906129b6565b6112f8565b005b3480156104fa57600080fd5b50610503611608565b60405161051091906132da565b60405180910390f35b34801561052557600080fd5b50610540600480360381019061053b9190612ad6565b61160e565b005b34801561054e57600080fd5b50610569600480360381019061056491906128ec565b6117c2565b005b34801561057757600080fd5b50610592600480360381019061058d9190612915565b611928565b005b3480156105a057600080fd5b506105a9611bc6565b6040516105b69190612ed2565b60405180910390f35b3480156105cb57600080fd5b506105e660048036038101906105e1919061289a565b611bec565b6040516105f391906132f5565b60405180910390f35b34801561060857600080fd5b50610611611c4c565b60405161061e9190612eed565b60405180910390f35b610641600480360381019061063c9190612a08565b611c72565b60405161064e9190612ed2565b60405180910390f35b34801561066357600080fd5b5061066c612418565b6040516106799190612fc6565b60405180910390f35b34801561068e57600080fd5b506106a960048036038101906106a4919061289a565b61242b565b6040516106b691906132da565b60405180910390f35b3480156106cb57600080fd5b506106d4612474565b6040516106e29291906132b1565b60405180910390f35b60008054906101000a900473ffffffffffffffffffffffffffffffffffffffff1673ffffffffffffffffffffffffffffffffffffffff1663c395fcb3336040518263ffffffff1660e01b81526004016107449190612ed2565b60206040518083038186803b15801561075c57600080fd5b505afa158015610770573d6000803e3d6000fd5b505050506040513d601f19601f82011682018060405250810190610794919061298d565b6107d3576040517f08c379a00000000000000000000000000000000000000000000000000000000081526004016107ca906130d6565b60405180910390fd5b6107dc816124b2565b600960000160006101000a8154816fffffffffffffffffffffffffffffffff02191690836fffffffffffffffffffffffffffffffff16021790555050565b6000600960000160009054906101000a90046fffffffffffffffffffffffffffffffff16905090565b60008054906101000a900473ffffffffffffffffffffffffffffffffffffffff1673ffffffffffffffffffffffffffffffffffffffff1663c395fcb3336040518263ffffffff1660e01b815260040161089c9190612ed2565b60206040518083038186803b1580156108b457600080fd5b505afa1580156108c8573d6000803e3d6000fd5b505050506040513d601f19601f820116820180604052508101906108ec919061298d565b61092b576040517f08c379a000000000000000000000000000000000000000000000000000000000815260040161092290613156565b60405180910390fd5b80600a60006101000a81548160ff02191690831515021790555050565b60076020528060005260406000206000915090505481565b6001818154811061097057600080fd5b906000526020600020016000915054906101000a900473ffffffffffffffffffffffffffffffffffffffff1681565b60008054906101000a900473ffffffffffffffffffffffffffffffffffffffff1673ffffffffffffffffffffffffffffffffffffffff1663c395fcb3336040518263ffffffff1660e01b81526004016109f89190612ed2565b60206040518083038186803b158015610a1057600080fd5b505afa158015610a24573d6000803e3d6000fd5b505050506040513d601f19601f82011682018060405250810190610a48919061298d565b610a87576040517f08c379a0000000000000000000000000000000000000000000000000000000008152600401610a7e906130d6565b60405180910390fd5b6103e8811115610acc576040517f08c379a0000000000000000000000000000000000000000000000000000000008152600401610ac3906130f6565b60405180910390fd5b610ad581612511565b600960000160106101000a81548163ffffffff021916908363ffffffff16021790555050565b6000610b078785611c72565b90506000851115610bea57610b1d863387612564565b8573ffffffffffffffffffffffffffffffffffffffff1663095ea7b382876040518363ffffffff1660e01b8152600401610b58929190612f7b565b602060405180830381600087803b158015610b7257600080fd5b505af1158015610b86573d6000803e3d6000fd5b505050506040513d601f19601f82011682018060405250810190610baa919061298d565b610be9576040517f08c379a0000000000000000000000000000000000000000000000000000000008152600401610be090613236565b60405180910390fd5b5b8073ffffffffffffffffffffffffffffffffffffffff1663f82fc8ce84846040518363ffffffff1660e01b8152600401610c2592919061305c565b600060405180830381600087803b158015610c3f57600080fd5b505af1158015610c53573d6000803e3d6000fd5b505050506000851115610d045760008673ffffffffffffffffffffffffffffffffffffffff166370a08231306040518263ffffffff1660e01b8152600401610c9b9190612ed2565b60206040518083038186803b158015610cb357600080fd5b505afa158015610cc7573d6000803e3d6000fd5b505050506040513d601f19601f82011682018060405250810190610ceb91906129df565b90506000811115610d0257610d01873383612666565b5b505b9695505050505050565b600460009054906101000a900473ffffffffffffffffffffffffffffffffffffffff1681565b60086020528060005260406000206000915090508060000160009054906101000a900460ff16908060000160019054906101000a900467ffffffffffffffff16908060000160099054906101000a90046fffffffffffffffffffffffffffffffff16905083565b60006005600083815260200190815260200160002060009054906101000a900473ffffffffffffffffffffffffffffffffffffffff169050919050565b60606001805480602002602001604051908101604052809291908181526020018280548015610e5c57602002820191906000526020600020905b8160009054906101000a900473ffffffffffffffffffffffffffffffffffffffff1673ffffffffffffffffffffffffffffffffffffffff1681526020019060010190808311610e12575b5050505050905090565b60008054906101000a900473ffffffffffffffffffffffffffffffffffffffff1681565b60008054906101000a900473ffffffffffffffffffffffffffffffffffffffff1673ffffffffffffffffffffffffffffffffffffffff1663c395fcb3336040518263ffffffff1660e01b8152600401610ee39190612ed2565b60206040518083038186803b158015610efb57600080fd5b505afa158015610f0f573d6000803e3d6000fd5b505050506040513d601f19601f82011682018060405250810190610f33919061298d565b80610fe3575060008054906101000a900473ffffffffffffffffffffffffffffffffffffffff1673ffffffffffffffffffffffffffffffffffffffff1663fc4e3e0a336040518263ffffffff1660e01b8152600401610f929190612ed2565b60206040518083038186803b158015610faa57600080fd5b505afa158015610fbe573d6000803e3d6000fd5b505050506040513d601f19601f82011682018060405250810190610fe2919061298d565b5b611022576040517f08c379a0000000000000000000000000000000000000000000000000000000008152600401611019906130d6565b60405180910390fd5b60008173ffffffffffffffffffffffffffffffffffffffff16638566de4b6040518163ffffffff1660e01b815260040160206040518083038186803b15801561106a57600080fd5b505afa15801561107e573d6000803e3d6000fd5b505050506040513d601f19601f820116820180604052508101906110a291906129df565b9050600081116110e7576040517f08c379a00000000000000000000000000000000000000000000000000000000081526004016110de90613116565b60405180910390fd5b600260008154809291906110fa9061356e565b91905055508160056000600254815260200190815260200160002060006101000a81548173ffffffffffffffffffffffffffffffffffffffff021916908373ffffffffffffffffffffffffffffffffffffffff160217905550600254600660008473ffffffffffffffffffffffffffffffffffffffff1673ffffffffffffffffffffffffffffffffffffffff1681526020019081526020016000208190555060025460076000838152602001908152602001600020819055507f6c52e34db307a16709b387d61b2de0b4dd4a2ef6fd68b04b5515ef00a533b18f826002546040516111e6929190612f7b565b60405180910390a15050565b7fceb69df9dd42f6c115645ad1e6ac8c9f124a39546dd50de2e04024128b14698081565b6000600180549050905090565b60008060009054906101000a900473ffffffffffffffffffffffffffffffffffffffff1673ffffffffffffffffffffffffffffffffffffffff166391d148547fceb69df9dd42f6c115645ad1e6ac8c9f124a39546dd50de2e04024128b146980846040518363ffffffff1660e01b81526004016112a1929190613033565b60206040518083038186803b1580156112b957600080fd5b505afa1580156112cd573d6000803e3d6000fd5b505050506040513d601f19601f820116820180604052508101906112f1919061298d565b9050919050565b60008054906101000a900473ffffffffffffffffffffffffffffffffffffffff1673ffffffffffffffffffffffffffffffffffffffff1663c395fcb3336040518263ffffffff1660e01b81526004016113519190612ed2565b60206040518083038186803b15801561136957600080fd5b505afa15801561137d573d6000803e3d6000fd5b505050506040513d601f19601f820116820180604052508101906113a1919061298d565b80611451575060008054906101000a900473ffffffffffffffffffffffffffffffffffffffff1673ffffffffffffffffffffffffffffffffffffffff1663fc4e3e0a336040518263ffffffff1660e01b81526004016114009190612ed2565b60206040518083038186803b15801561141857600080fd5b505afa15801561142c573d6000803e3d6000fd5b505050506040513d601f19601f82011682018060405250810190611450919061298d565b5b611490576040517f08c379a0000000000000000000000000000000000000000000000000000000008152600401611487906130d6565b60405180910390fd5b600073ffffffffffffffffffffffffffffffffffffffff166005600083815260200190815260200160002060009054906101000a900473ffffffffffffffffffffffffffffffffffffffff1673ffffffffffffffffffffffffffffffffffffffff1614156114fd57600080fd5b60006005600083815260200190815260200160002060009054906101000a900473ffffffffffffffffffffffffffffffffffffffff16905060006005600084815260200190815260200160002060006101000a81548173ffffffffffffffffffffffffffffffffffffffff021916908373ffffffffffffffffffffffffffffffffffffffff160217905550600660008273ffffffffffffffffffffffffffffffffffffffff1673ffffffffffffffffffffffffffffffffffffffff168152602001908152602001600020600090557f9c4b27a4ee95cde6444d871111211ff603accbdff0b4e96e07af9f4eba52be5781836040516115fc929190612f7b565b60405180910390a15050565b60025481565b60008054906101000a900473ffffffffffffffffffffffffffffffffffffffff1673ffffffffffffffffffffffffffffffffffffffff1663c395fcb3336040518263ffffffff1660e01b81526004016116679190612ed2565b60206040518083038186803b15801561167f57600080fd5b505afa158015611693573d6000803e3d6000fd5b505050506040513d601f19601f820116820180604052508101906116b7919061298d565b80611767575060008054906101000a900473ffffffffffffffffffffffffffffffffffffffff1673ffffffffffffffffffffffffffffffffffffffff1663fc4e3e0a336040518263ffffffff1660e01b81526004016117169190612ed2565b60206040518083038186803b15801561172e57600080fd5b505afa158015611742573d6000803e3d6000fd5b505050506040513d601f19601f82011682018060405250810190611766919061298d565b5b6117a6576040517f08c379a000000000000000000000000000000000000000000000000000000000815260040161179d90613156565b60405180910390fd5b8060076000848152602001908152602001600020819055505050565b60008054906101000a900473ffffffffffffffffffffffffffffffffffffffff1673ffffffffffffffffffffffffffffffffffffffff1663c395fcb3336040518263ffffffff1660e01b815260040161181b9190612ed2565b60206040518083038186803b15801561183357600080fd5b505afa158015611847573d6000803e3d6000fd5b505050506040513d601f19601f8201168201806040525081019061186b919061298d565b6118aa576040517f08c379a00000000000000000000000000000000000000000000000000000000081526004016118a1906131b6565b60405180910390fd5b600073ffffffffffffffffffffffffffffffffffffffff168173ffffffffffffffffffffffffffffffffffffffff1614156118e457600080fd5b80600a60016101000a81548173ffffffffffffffffffffffffffffffffffffffff021916908373ffffffffffffffffffffffffffffffffffffffff16021790555050565b600060149054906101000a900460ff161561194257600080fd5b600073ffffffffffffffffffffffffffffffffffffffff168273ffffffffffffffffffffffffffffffffffffffff1614156119b2576040517f08c379a00000000000000000000000000000000000000000000000000000000081526004016119a990613276565b60405180910390fd5b600073ffffffffffffffffffffffffffffffffffffffff168373ffffffffffffffffffffffffffffffffffffffff161415611a22576040517f08c379a0000000000000000000000000000000000000000000000000000000008152600401611a19906131f6565b60405180910390fd5b600073ffffffffffffffffffffffffffffffffffffffff168173ffffffffffffffffffffffffffffffffffffffff161415611a92576040517f08c379a0000000000000000000000000000000000000000000000000000000008152600401611a8990613216565b60405180910390fd5b826000806101000a81548173ffffffffffffffffffffffffffffffffffffffff021916908373ffffffffffffffffffffffffffffffffffffffff16021790555080600460006101000a81548173ffffffffffffffffffffffffffffffffffffffff021916908373ffffffffffffffffffffffffffffffffffffffff16021790555081600360006101000a81548173ffffffffffffffffffffffffffffffffffffffff021916908373ffffffffffffffffffffffffffffffffffffffff1602179055506001600a60006101000a81548160ff0219169083151502179055506001600060146101000a81548160ff0219169083151502179055507f273553a2db9d9c7afb53120e2c4a60f274686bbe8e64b350d64aaa9d6289397e33604051611bb99190612ed2565b60405180910390a1505050565b600360009054906101000a900473ffffffffffffffffffffffffffffffffffffffff1681565b6000600860008373ffffffffffffffffffffffffffffffffffffffff1673ffffffffffffffffffffffffffffffffffffffff16815260200190815260200160002060000160019054906101000a900467ffffffffffffffff169050919050565b600a60019054906101000a900473ffffffffffffffffffffffffffffffffffffffff1681565b6000600a60009054906101000a900460ff1615611e325760008054906101000a900473ffffffffffffffffffffffffffffffffffffffff1673ffffffffffffffffffffffffffffffffffffffff1663c395fcb3336040518263ffffffff1660e01b8152600401611ce29190612ed2565b60206040518083038186803b158015611cfa57600080fd5b505afa158015611d0e573d6000803e3d6000fd5b505050506040513d601f19601f82011682018060405250810190611d32919061298d565b80611de2575060008054906101000a900473ffffffffffffffffffffffffffffffffffffffff1673ffffffffffffffffffffffffffffffffffffffff1663099db017336040518263ffffffff1660e01b8152600401611d919190612ed2565b60206040518083038186803b158015611da957600080fd5b505afa158015611dbd573d6000803e3d6000fd5b505050506040513d601f19601f82011682018060405250810190611de1919061298d565b5b80611df25750611df133611223565b5b611e31576040517f08c379a0000000000000000000000000000000000000000000000000000000008152600401611e2890613196565b60405180910390fd5b5b600060096040518060400160405290816000820160009054906101000a90046fffffffffffffffffffffffffffffffff166fffffffffffffffffffffffffffffffff166fffffffffffffffffffffffffffffffff1681526020016000820160109054906101000a900463ffffffff1663ffffffff1663ffffffff1681525050905060006005600086815260200190815260200160002060009054906101000a900473ffffffffffffffffffffffffffffffffffffffff16905081600001516fffffffffffffffffffffffffffffffff16341015611f44576040517f08c379a0000000000000000000000000000000000000000000000000000000008152600401611f3b90613136565b60405180910390fd5b600073ffffffffffffffffffffffffffffffffffffffff168173ffffffffffffffffffffffffffffffffffffffff161415611fb4576040517f08c379a0000000000000000000000000000000000000000000000000000000008152600401611fab906130b6565b60405180910390fd5b600080349050600073ffffffffffffffffffffffffffffffffffffffff168673ffffffffffffffffffffffffffffffffffffffff16141580156120455750600a60019054906101000a900473ffffffffffffffffffffffffffffffffffffffff1673ffffffffffffffffffffffffffffffffffffffff168673ffffffffffffffffffffffffffffffffffffffff1614155b1561207e576103e8846020015163ffffffff168261206391906133b2565b61206d9190613381565b9150818161207b919061340c565b90505b600460009054906101000a900473ffffffffffffffffffffffffffffffffffffffff1673ffffffffffffffffffffffffffffffffffffffff16631f54245b8460006040518363ffffffff1660e01b81526004016120dc929190612f3f565b602060405180830381600087803b1580156120f657600080fd5b505af115801561210a573d6000803e3d6000fd5b505050506040513d601f19601f8201168201806040525081019061212e91906128c3565b9450604051806060016040528060011515815260200161214d89612766565b67ffffffffffffffff16815260200161216a6001805490506124b2565b6fffffffffffffffffffffffffffffffff16815250600860008773ffffffffffffffffffffffffffffffffffffffff1673ffffffffffffffffffffffffffffffffffffffff16815260200190815260200160002060008201518160000160006101000a81548160ff02191690831515021790555060208201518160000160016101000a81548167ffffffffffffffff021916908367ffffffffffffffff16021790555060408201518160000160096101000a8154816fffffffffffffffffffffffffffffffff02191690836fffffffffffffffffffffffffffffffff1602179055509050506001859080600181540180825580915050600190039060005260206000200160009091909190916101000a81548173ffffffffffffffffffffffffffffffffffffffff021916908373ffffffffffffffffffffffffffffffffffffffff1602179055508473ffffffffffffffffffffffffffffffffffffffff163373ffffffffffffffffffffffffffffffffffffffff167f3ba8b254094e662ed7500a3ad77fd9f4f041f221a7b9f0714e3fdbf324c5d863600560008b815260200190815260200160002060009054906101000a900473ffffffffffffffffffffffffffffffffffffffff166040516123429190612ed2565b60405180910390a360008111156123bd57600a60019054906101000a900473ffffffffffffffffffffffffffffffffffffffff1673ffffffffffffffffffffffffffffffffffffffff166108fc829081150290604051600060405180830381858888f193505050501580156123bb573d6000803e3d6000fd5b505b600082111561240e578573ffffffffffffffffffffffffffffffffffffffff166108fc839081150290604051600060405180830381858888f1935050505015801561240c573d6000803e3d6000fd5b505b5050505092915050565b600a60009054906101000a900460ff1681565b6000600660008373ffffffffffffffffffffffffffffffffffffffff1673ffffffffffffffffffffffffffffffffffffffff168152602001908152602001600020549050919050565b60098060000160009054906101000a90046fffffffffffffffffffffffffffffffff16908060000160109054906101000a900463ffffffff16905082565b60006fffffffffffffffffffffffffffffffff8016821115612509576040517f08c379a000000000000000000000000000000000000000000000000000000000815260040161250090613176565b60405180910390fd5b819050919050565b600063ffffffff801682111561255c576040517f08c379a000000000000000000000000000000000000000000000000000000000815260040161255390613256565b60405180910390fd5b819050919050565b6000808473ffffffffffffffffffffffffffffffffffffffff166323b872dd85308660405160240161259893929190612f08565b6040516020818303038152906040529060e01b6020820180517bffffffffffffffffffffffffffffffffffffffffffffffffffffffff83818316178352505050506040516125e69190612ebb565b6000604051808303816000865af19150503d8060008114612623576040519150601f19603f3d011682016040523d82523d6000602084013e612628565b606091505b50915091508180156126565750600081511480612655575080806020019051810190612654919061298d565b5b5b61265f57600080fd5b5050505050565b6000808473ffffffffffffffffffffffffffffffffffffffff1663a9059cbb8585604051602401612698929190612f7b565b6040516020818303038152906040529060e01b6020820180517bffffffffffffffffffffffffffffffffffffffffffffffffffffffff83818316178352505050506040516126e69190612ebb565b6000604051808303816000865af19150503d8060008114612723576040519150601f19603f3d011682016040523d82523d6000602084013e612728565b606091505b50915091508180156127565750600081511480612755575080806020019051810190612754919061298d565b5b5b61275f57600080fd5b5050505050565b600067ffffffffffffffff80168211156127b5576040517f08c379a00000000000000000000000000000000000000000000000000000000081526004016127ac906131d6565b60405180910390fd5b819050919050565b6000813590506127cc81613a32565b92915050565b6000815190506127e181613a32565b92915050565b6000813590506127f681613a49565b92915050565b60008135905061280b81613a60565b92915050565b60008151905061282081613a60565b92915050565b60008083601f84011261283857600080fd5b8235905067ffffffffffffffff81111561285157600080fd5b60208301915083600182028301111561286957600080fd5b9250929050565b60008135905061287f81613a77565b92915050565b60008151905061289481613a77565b92915050565b6000602082840312156128ac57600080fd5b60006128ba848285016127bd565b91505092915050565b6000602082840312156128d557600080fd5b60006128e3848285016127d2565b91505092915050565b6000602082840312156128fe57600080fd5b600061290c848285016127e7565b91505092915050565b60008060006060848603121561292a57600080fd5b6000612938868287016127bd565b9350506020612949868287016127bd565b925050604061295a868287016127bd565b9150509250925092565b60006020828403121561297657600080fd5b6000612984848285016127fc565b91505092915050565b60006020828403121561299f57600080fd5b60006129ad84828501612811565b91505092915050565b6000602082840312156129c857600080fd5b60006129d684828501612870565b91505092915050565b6000602082840312156129f157600080fd5b60006129ff84828501612885565b91505092915050565b60008060408385031215612a1b57600080fd5b6000612a2985828601612870565b9250506020612a3a858286016127e7565b9150509250929050565b60008060008060008060a08789031215612a5d57600080fd5b6000612a6b89828a01612870565b9650506020612a7c89828a016127bd565b9550506040612a8d89828a01612870565b9450506060612a9e89828a016127e7565b935050608087013567ffffffffffffffff811115612abb57600080fd5b612ac789828a01612826565b92509250509295509295509295565b60008060408385031215612ae957600080fd5b6000612af785828601612870565b9250506020612b0885828601612870565b9150509250929050565b6000612b1e8383612b39565b60208301905092915050565b612b3381613452565b82525050565b612b4281613440565b82525050565b612b5181613440565b82525050565b6000612b6282613320565b612b6c8185613343565b9350612b7783613310565b8060005b83811015612ba8578151612b8f8882612b12565b9750612b9a83613336565b925050600181019050612b7b565b5085935050505092915050565b612bbe81613464565b82525050565b612bcd81613470565b82525050565b6000612bdf8385613354565b9350612bec83858461352c565b612bf583613615565b840190509392505050565b6000612c0b8261332b565b612c158185613365565b9350612c2581856020860161353b565b80840191505092915050565b612c3a816134e4565b82525050565b612c4981613508565b82525050565b6000612c5c602d83613370565b9150612c6782613626565b604082019050919050565b6000612c7f602583613370565b9150612c8a82613675565b604082019050919050565b6000612ca2602783613370565b9150612cad826136c4565b604082019050919050565b6000612cc5602683613370565b9150612cd082613713565b604082019050919050565b6000612ce8602b83613370565b9150612cf382613762565b604082019050919050565b6000612d0b602283613370565b9150612d16826137b1565b604082019050919050565b6000612d2e601c83613370565b9150612d3982613800565b602082019050919050565b6000612d51602d83613370565b9150612d5c82613829565b604082019050919050565b6000612d74602c83613370565b9150612d7f82613878565b604082019050919050565b6000612d97601b83613370565b9150612da2826138c7565b602082019050919050565b6000612dba603683613370565b9150612dc5826138f0565b604082019050919050565b6000612ddd600083613354565b9150612de88261393f565b600082019050919050565b6000612e00603083613370565b9150612e0b82613942565b604082019050919050565b6000612e23600183613370565b9150612e2e82613991565b602082019050919050565b6000612e46601b83613370565b9150612e51826139ba565b602082019050919050565b6000612e69602c83613370565b9150612e74826139e3565b604082019050919050565b612e888161347a565b82525050565b612e97816134b6565b82525050565b612ea6816134c0565b82525050565b612eb5816134d0565b82525050565b6000612ec78284612c00565b915081905092915050565b6000602082019050612ee76000830184612b48565b92915050565b6000602082019050612f026000830184612b2a565b92915050565b6000606082019050612f1d6000830186612b48565b612f2a6020830185612b48565b612f376040830184612e8e565b949350505050565b6000606082019050612f546000830185612b48565b8181036020830152612f6581612dd0565b9050612f746040830184612bb5565b9392505050565b6000604082019050612f906000830185612b48565b612f9d6020830184612e8e565b9392505050565b60006020820190508181036000830152612fbe8184612b57565b905092915050565b6000602082019050612fdb6000830184612bb5565b92915050565b6000606082019050612ff66000830186612bb5565b6130036020830185612eac565b6130106040830184612e7f565b949350505050565b600060208201905061302d6000830184612bc4565b92915050565b60006040820190506130486000830185612bc4565b6130556020830184612b48565b9392505050565b60006020820190508181036000830152613077818486612bd3565b90509392505050565b60006020820190506130956000830184612c31565b92915050565b60006020820190506130b06000830184612c40565b92915050565b600060208201905081810360008301526130cf81612c4f565b9050919050565b600060208201905081810360008301526130ef81612c72565b9050919050565b6000602082019050818103600083015261310f81612c95565b9050919050565b6000602082019050818103600083015261312f81612cb8565b9050919050565b6000602082019050818103600083015261314f81612cdb565b9050919050565b6000602082019050818103600083015261316f81612cfe565b9050919050565b6000602082019050818103600083015261318f81612d21565b9050919050565b600060208201905081810360008301526131af81612d44565b9050919050565b600060208201905081810360008301526131cf81612d67565b9050919050565b600060208201905081810360008301526131ef81612d8a565b9050919050565b6000602082019050818103600083015261320f81612dad565b9050919050565b6000602082019050818103600083015261322f81612df3565b9050919050565b6000602082019050818103600083015261324f81612e16565b9050919050565b6000602082019050818103600083015261326f81612e39565b9050919050565b6000602082019050818103600083015261328f81612e5c565b9050919050565b60006020820190506132ab6000830184612e7f565b92915050565b60006040820190506132c66000830185612e7f565b6132d36020830184612e9d565b9392505050565b60006020820190506132ef6000830184612e8e565b92915050565b600060208201905061330a6000830184612eac565b92915050565b6000819050602082019050919050565b600081519050919050565b600081519050919050565b6000602082019050919050565b600082825260208201905092915050565b600082825260208201905092915050565b600081905092915050565b600082825260208201905092915050565b600061338c826134b6565b9150613397836134b6565b9250826133a7576133a66135e6565b5b828204905092915050565b60006133bd826134b6565b91506133c8836134b6565b9250817fffffffffffffffffffffffffffffffffffffffffffffffffffffffffffffffff0483118215151615613401576134006135b7565b5b828202905092915050565b6000613417826134b6565b9150613422836134b6565b925082821015613435576134346135b7565b5b828203905092915050565b600061344b82613496565b9050919050565b600061345d82613496565b9050919050565b60008115159050919050565b6000819050919050565b60006fffffffffffffffffffffffffffffffff82169050919050565b600073ffffffffffffffffffffffffffffffffffffffff82169050919050565b6000819050919050565b600063ffffffff82169050919050565b600067ffffffffffffffff82169050919050565b60006134ef826134f6565b9050919050565b600061350182613496565b9050919050565b60006135138261351a565b9050919050565b600061352582613496565b9050919050565b82818337600083830152505050565b60005b8381101561355957808201518184015260208101905061353e565b83811115613568576000848401525b50505050565b6000613579826134b6565b91507fffffffffffffffffffffffffffffffffffffffffffffffffffffffffffffffff8214156135ac576135ab6135b7565b5b600182019050919050565b7f4e487b7100000000000000000000000000000000000000000000000000000000600052601160045260246000fd5b7f4e487b7100000000000000000000000000000000000000000000000000000000600052601260045260246000fd5b6000601f19601f8301169050919050565b7f4d49534f4c61756e636865723a204c61756e636865722074656d706c6174652060008201527f646f65736e277420657869737400000000000000000000000000000000000000602082015250565b7f4d49534f4c61756e636865723a2053656e646572206d757374206265206f706560008201527f7261746f72000000000000000000000000000000000000000000000000000000602082015250565b7f4d49534f4c61756e636865723a2050657263656e74616765206973206f75742060008201527f6f66203130303000000000000000000000000000000000000000000000000000602082015250565b7f4d49534f4c61756e636865723a20496e636f72726563742074656d706c61746560008201527f20636f6465200000000000000000000000000000000000000000000000000000602082015250565b7f4d49534f4c61756e636865723a204661696c656420746f207472616e7366657260008201527f206d696e696d756d466565000000000000000000000000000000000000000000602082015250565b7f4d49534f4c61756e636865723a2053656e646572206d7573742062652061646d60008201527f696e000000000000000000000000000000000000000000000000000000000000602082015250565b7f426f72696e674d6174683a2075696e74313238204f766572666c6f7700000000600082015250565b7f4d49534f4c61756e636865723a2053656e646572206d757374206265206d696e60008201527f746572206966206c6f636b656400000000000000000000000000000000000000602082015250565b7f4d49534f4c61756e636865722e7365744465763a2053656e646572206d75737460008201527f206265206f70657261746f720000000000000000000000000000000000000000602082015250565b7f426f72696e674d6174683a2075696e743634204f766572666c6f770000000000600082015250565b7f696e69744d49534f4c61756e636865723a20616363657373436f6e74726f6c7360008201527f2063616e6e6f742062652073657420746f207a65726f00000000000000000000602082015250565b50565b7f696e69744d49534f4c61756e636865723a2062656e746f426f782063616e6e6f60008201527f742062652073657420746f207a65726f00000000000000000000000000000000602082015250565b7f3100000000000000000000000000000000000000000000000000000000000000600082015250565b7f426f72696e674d6174683a2075696e743332204f766572666c6f770000000000600082015250565b7f696e69744d49534f4c61756e636865723a20574554482063616e6e6f7420626560008201527f2073657420746f207a65726f0000000000000000000000000000000000000000602082015250565b613a3b81613440565b8114613a4657600080fd5b50565b613a5281613452565b8114613a5d57600080fd5b50565b613a6981613464565b8114613a7457600080fd5b50565b613a80816134b6565b8114613a8b57600080fd5b5056fea2646970667358221220f5ec55492d8c65c8be6790676fd1665800952b422397558d1e4ceef7c954dc0164736f6c63430008040033",
  "linkReferences": {},
  "deployedLinkReferences": {}
}