{
  "_format": "hh-sol-artifact-1",
  "contractName": "TokenList",
  "sourceName": "contracts/Access/TokenList.sol",
  "abi": [
    {
      "inputs": [],
      "stateMutability": "nonpayable",
      "type": "constructor"
    },
    {
      "inputs": [
        {
          "internalType": "address",
          "name": "_account",
          "type": "address"
        },
        {
          "internalType": "uint256",
          "name": "_amount",
          "type": "uint256"
        }
      ],
      "name": "hasPoints",
      "outputs": [
        {
          "internalType": "bool",
          "name": "",
          "type": "bool"
        }
      ],
      "stateMutability": "view",
      "type": "function"
    },
    {
      "inputs": [
        {
          "internalType": "contract IERC20",
          "name": "_token",
          "type": "address"
        }
      ],
      "name": "initPointList",
      "outputs": [],
      "stateMutability": "nonpayable",
      "type": "function"
    },
    {
      "inputs": [
        {
          "internalType": "address",
          "name": "_account",
          "type": "address"
        }
      ],
      "name": "isInList",
      "outputs": [
        {
          "internalType": "bool",
          "name": "",
          "type": "bool"
        }
      ],
      "stateMutability": "view",
      "type": "function"
    },
    {
      "inputs": [],
      "name": "token",
      "outputs": [
        {
          "internalType": "contract IERC20",
          "name": "",
          "type": "address"
        }
      ],
      "stateMutability": "view",
      "type": "function"
    }
  ],
  "bytecode": "0x608060405234801561001057600080fd5b50610626806100206000396000f3fe608060405234801561001057600080fd5b506004361061004c5760003560e01c80631cd53d5514610051578063283ba19b14610081578063fa33bcf31461009d578063fc0c546a146100cd575b600080fd5b61006b600480360381019061006691906103a4565b6100eb565b604051610078919061049d565b60405180910390f35b61009b600480360381019061009691906103e0565b6101a1565b005b6100b760048036038101906100b2919061037b565b61024f565b6040516100c4919061049d565b60405180910390f35b6100d5610303565b6040516100e291906104b8565b60405180910390f35b60008160008054906101000a900473ffffffffffffffffffffffffffffffffffffffff1673ffffffffffffffffffffffffffffffffffffffff166370a08231856040518263ffffffff1660e01b81526004016101479190610482565b60206040518083038186803b15801561015f57600080fd5b505afa158015610173573d6000803e3d6000fd5b505050506040513d601f19601f820116820180604052508101906101979190610409565b1015905092915050565b600060149054906101000a900460ff16156101f1576040517f08c379a00000000000000000000000000000000000000000000000000000000081526004016101e8906104d3565b60405180910390fd5b806000806101000a81548173ffffffffffffffffffffffffffffffffffffffff021916908373ffffffffffffffffffffffffffffffffffffffff1602179055506001600060146101000a81548160ff02191690831515021790555050565b60008060008054906101000a900473ffffffffffffffffffffffffffffffffffffffff1673ffffffffffffffffffffffffffffffffffffffff166370a08231846040518263ffffffff1660e01b81526004016102ab9190610482565b60206040518083038186803b1580156102c357600080fd5b505afa1580156102d7573d6000803e3d6000fd5b505050506040513d601f19601f820116820180604052508101906102fb9190610409565b119050919050565b60008054906101000a900473ffffffffffffffffffffffffffffffffffffffff1681565b600081359050610336816105ab565b92915050565b60008135905061034b816105c2565b92915050565b600081359050610360816105d9565b92915050565b600081519050610375816105d9565b92915050565b60006020828403121561038d57600080fd5b600061039b84828501610327565b91505092915050565b600080604083850312156103b757600080fd5b60006103c585828601610327565b92505060206103d685828601610351565b9150509250929050565b6000602082840312156103f257600080fd5b60006104008482850161033c565b91505092915050565b60006020828403121561041b57600080fd5b600061042984828501610366565b91505092915050565b61043b81610504565b82525050565b61044a81610516565b82525050565b6104598161055e565b82525050565b600061046c6013836104f3565b915061047782610582565b602082019050919050565b60006020820190506104976000830184610432565b92915050565b60006020820190506104b26000830184610441565b92915050565b60006020820190506104cd6000830184610450565b92915050565b600060208201905081810360008301526104ec8161045f565b9050919050565b600082825260208201905092915050565b600061050f82610534565b9050919050565b60008115159050919050565b600061052d82610504565b9050919050565b600073ffffffffffffffffffffffffffffffffffffffff82169050919050565b6000819050919050565b600061056982610570565b9050919050565b600061057b82610534565b9050919050565b7f416c726561647920696e697469616c6973656400000000000000000000000000600082015250565b6105b481610504565b81146105bf57600080fd5b50565b6105cb81610522565b81146105d657600080fd5b50565b6105e281610554565b81146105ed57600080fd5b5056fea264697066735822122048411797fa7dcf0b2ace4540c564865a0cd9b031a2b8a61657c65e148013d18b64736f6c63430008040033",
  "linkReferences": {},
  "deployedLinkReferences": {}
}