{
  "_format": "hh-sol-artifact-1",
  "contractName": "TokenList",
  "sourceName": "contracts/Access/TokenList.sol",
  "abi": [
    {
      "inputs": [],
      "stateMutability": "nonpayable",
      "type": "constructor"
    },
    {
      "inputs": [
        {
          "internalType": "address",
          "name": "_account",
          "type": "address"
        },
        {
          "internalType": "uint256",
          "name": "_amount",
          "type": "uint256"
        }
      ],
      "name": "hasPoints",
      "outputs": [
        {
          "internalType": "bool",
          "name": "",
          "type": "bool"
        }
      ],
      "stateMutability": "view",
      "type": "function"
    },
    {
      "inputs": [
        {
          "internalType": "contract IERC20",
          "name": "_token",
          "type": "address"
        }
      ],
      "name": "initPointList",
      "outputs": [],
      "stateMutability": "nonpayable",
      "type": "function"
    },
    {
      "inputs": [
        {
          "internalType": "address",
          "name": "_account",
          "type": "address"
        }
      ],
      "name": "isInList",
      "outputs": [
        {
          "internalType": "bool",
          "name": "",
          "type": "bool"
        }
      ],
      "stateMutability": "view",
      "type": "function"
    },
    {
      "inputs": [],
      "name": "token",
      "outputs": [
        {
          "internalType": "contract IERC20",
          "name": "",
          "type": "address"
        }
      ],
      "stateMutability": "view",
      "type": "function"
    }
  ],
  "bytecode": "0x608060405234801561001057600080fd5b50610343806100206000396000f3fe608060405234801561001057600080fd5b506004361061004c5760003560e01c80631cd53d5514610051578063283ba19b14610079578063fa33bcf31461008e578063fc0c546a146100a1575b600080fd5b61006461005f3660046102b2565b6100cc565b60405190151581526020015b60405180910390f35b61008c61008736600461028f565b610153565b005b61006461009c36600461028f565b61020a565b6000546100b4906001600160a01b031681565b6040516001600160a01b039091168152602001610070565b600080546040516370a0823160e01b81526001600160a01b038581166004830152849216906370a082319060240160206040518083038186803b15801561011257600080fd5b505afa158015610126573d6000803e3d6000fd5b505050506040513d601f19601f8201168201806040525081019061014a91906102dd565b10159392505050565b600054600160a01b900460ff16156101cb576040517f08c379a000000000000000000000000000000000000000000000000000000000815260206004820152601360248201527f416c726561647920696e697469616c6973656400000000000000000000000000604482015260640160405180910390fd5b600080547fffffffffffffffffffffff000000000000000000000000000000000000000000166001600160a01b0390921691909117600160a01b179055565b600080546040516370a0823160e01b81526001600160a01b038481166004830152839216906370a082319060240160206040518083038186803b15801561025057600080fd5b505afa158015610264573d6000803e3d6000fd5b505050506040513d601f19601f8201168201806040525081019061028891906102dd565b1192915050565b6000602082840312156102a0578081fd5b81356102ab816102f5565b9392505050565b600080604083850312156102c4578081fd5b82356102cf816102f5565b946020939093013593505050565b6000602082840312156102ee578081fd5b5051919050565b6001600160a01b038116811461030a57600080fd5b5056fea2646970667358221220309b9a1ab012e2b15a9740681e6e7a682c4cce855e70dc60db76d673382ce1cf64736f6c63430008040033",
  "linkReferences": {},
  "deployedLinkReferences": {}
}