{
  "_format": "hh-sol-artifact-1",
  "contractName": "MISOAccessControls",
  "sourceName": "contracts/Access/MISOAccessControls.sol",
  "abi": [
    {
      "inputs": [],
      "stateMutability": "nonpayable",
      "type": "constructor"
    },
    {
      "anonymous": false,
      "inputs": [
        {
          "indexed": true,
          "internalType": "address",
          "name": "beneficiary",
          "type": "address"
        },
        {
          "indexed": true,
          "internalType": "address",
          "name": "caller",
          "type": "address"
        }
      ],
      "name": "AdminRoleGranted",
      "type": "event"
    },
    {
      "anonymous": false,
      "inputs": [
        {
          "indexed": true,
          "internalType": "address",
          "name": "beneficiary",
          "type": "address"
        },
        {
          "indexed": true,
          "internalType": "address",
          "name": "caller",
          "type": "address"
        }
      ],
      "name": "AdminRoleRemoved",
      "type": "event"
    },
    {
      "anonymous": false,
      "inputs": [
        {
          "indexed": true,
          "internalType": "address",
          "name": "beneficiary",
          "type": "address"
        },
        {
          "indexed": true,
          "internalType": "address",
          "name": "caller",
          "type": "address"
        }
      ],
      "name": "MinterRoleGranted",
      "type": "event"
    },
    {
      "anonymous": false,
      "inputs": [
        {
          "indexed": true,
          "internalType": "address",
          "name": "beneficiary",
          "type": "address"
        },
        {
          "indexed": true,
          "internalType": "address",
          "name": "caller",
          "type": "address"
        }
      ],
      "name": "MinterRoleRemoved",
      "type": "event"
    },
    {
      "anonymous": false,
      "inputs": [
        {
          "indexed": true,
          "internalType": "address",
          "name": "beneficiary",
          "type": "address"
        },
        {
          "indexed": true,
          "internalType": "address",
          "name": "caller",
          "type": "address"
        }
      ],
      "name": "OperatorRoleGranted",
      "type": "event"
    },
    {
      "anonymous": false,
      "inputs": [
        {
          "indexed": true,
          "internalType": "address",
          "name": "beneficiary",
          "type": "address"
        },
        {
          "indexed": true,
          "internalType": "address",
          "name": "caller",
          "type": "address"
        }
      ],
      "name": "OperatorRoleRemoved",
      "type": "event"
    },
    {
      "anonymous": false,
      "inputs": [
        {
          "indexed": true,
          "internalType": "bytes32",
          "name": "role",
          "type": "bytes32"
        },
        {
          "indexed": true,
          "internalType": "bytes32",
          "name": "previousAdminRole",
          "type": "bytes32"
        },
        {
          "indexed": true,
          "internalType": "bytes32",
          "name": "newAdminRole",
          "type": "bytes32"
        }
      ],
      "name": "RoleAdminChanged",
      "type": "event"
    },
    {
      "anonymous": false,
      "inputs": [
        {
          "indexed": true,
          "internalType": "bytes32",
          "name": "role",
          "type": "bytes32"
        },
        {
          "indexed": true,
          "internalType": "address",
          "name": "account",
          "type": "address"
        },
        {
          "indexed": true,
          "internalType": "address",
          "name": "sender",
          "type": "address"
        }
      ],
      "name": "RoleGranted",
      "type": "event"
    },
    {
      "anonymous": false,
      "inputs": [
        {
          "indexed": true,
          "internalType": "bytes32",
          "name": "role",
          "type": "bytes32"
        },
        {
          "indexed": true,
          "internalType": "address",
          "name": "account",
          "type": "address"
        },
        {
          "indexed": true,
          "internalType": "address",
          "name": "sender",
          "type": "address"
        }
      ],
      "name": "RoleRevoked",
      "type": "event"
    },
    {
      "anonymous": false,
      "inputs": [
        {
          "indexed": true,
          "internalType": "address",
          "name": "beneficiary",
          "type": "address"
        },
        {
          "indexed": true,
          "internalType": "address",
          "name": "caller",
          "type": "address"
        }
      ],
      "name": "SmartContractRoleGranted",
      "type": "event"
    },
    {
      "anonymous": false,
      "inputs": [
        {
          "indexed": true,
          "internalType": "address",
          "name": "beneficiary",
          "type": "address"
        },
        {
          "indexed": true,
          "internalType": "address",
          "name": "caller",
          "type": "address"
        }
      ],
      "name": "SmartContractRoleRemoved",
      "type": "event"
    },
    {
      "inputs": [],
      "name": "DEFAULT_ADMIN_ROLE",
      "outputs": [
        {
          "internalType": "bytes32",
          "name": "",
          "type": "bytes32"
        }
      ],
      "stateMutability": "view",
      "type": "function"
    },
    {
      "inputs": [],
      "name": "MINTER_ROLE",
      "outputs": [
        {
          "internalType": "bytes32",
          "name": "",
          "type": "bytes32"
        }
      ],
      "stateMutability": "view",
      "type": "function"
    },
    {
      "inputs": [],
      "name": "OPERATOR_ROLE",
      "outputs": [
        {
          "internalType": "bytes32",
          "name": "",
          "type": "bytes32"
        }
      ],
      "stateMutability": "view",
      "type": "function"
    },
    {
      "inputs": [],
      "name": "SMART_CONTRACT_ROLE",
      "outputs": [
        {
          "internalType": "bytes32",
          "name": "",
          "type": "bytes32"
        }
      ],
      "stateMutability": "view",
      "type": "function"
    },
    {
      "inputs": [
        {
          "internalType": "address",
          "name": "_address",
          "type": "address"
        }
      ],
      "name": "addAdminRole",
      "outputs": [],
      "stateMutability": "nonpayable",
      "type": "function"
    },
    {
      "inputs": [
        {
          "internalType": "address",
          "name": "_address",
          "type": "address"
        }
      ],
      "name": "addMinterRole",
      "outputs": [],
      "stateMutability": "nonpayable",
      "type": "function"
    },
    {
      "inputs": [
        {
          "internalType": "address",
          "name": "_address",
          "type": "address"
        }
      ],
      "name": "addOperatorRole",
      "outputs": [],
      "stateMutability": "nonpayable",
      "type": "function"
    },
    {
      "inputs": [
        {
          "internalType": "address",
          "name": "_address",
          "type": "address"
        }
      ],
      "name": "addSmartContractRole",
      "outputs": [],
      "stateMutability": "nonpayable",
      "type": "function"
    },
    {
      "inputs": [
        {
          "internalType": "bytes32",
          "name": "role",
          "type": "bytes32"
        }
      ],
      "name": "getRoleAdmin",
      "outputs": [
        {
          "internalType": "bytes32",
          "name": "",
          "type": "bytes32"
        }
      ],
      "stateMutability": "view",
      "type": "function"
    },
    {
      "inputs": [
        {
          "internalType": "bytes32",
          "name": "role",
          "type": "bytes32"
        },
        {
          "internalType": "uint256",
          "name": "index",
          "type": "uint256"
        }
      ],
      "name": "getRoleMember",
      "outputs": [
        {
          "internalType": "address",
          "name": "",
          "type": "address"
        }
      ],
      "stateMutability": "view",
      "type": "function"
    },
    {
      "inputs": [
        {
          "internalType": "bytes32",
          "name": "role",
          "type": "bytes32"
        }
      ],
      "name": "getRoleMemberCount",
      "outputs": [
        {
          "internalType": "uint256",
          "name": "",
          "type": "uint256"
        }
      ],
      "stateMutability": "view",
      "type": "function"
    },
    {
      "inputs": [
        {
          "internalType": "bytes32",
          "name": "role",
          "type": "bytes32"
        },
        {
          "internalType": "address",
          "name": "account",
          "type": "address"
        }
      ],
      "name": "grantRole",
      "outputs": [],
      "stateMutability": "nonpayable",
      "type": "function"
    },
    {
      "inputs": [
        {
          "internalType": "address",
          "name": "_address",
          "type": "address"
        }
      ],
      "name": "hasAdminRole",
      "outputs": [
        {
          "internalType": "bool",
          "name": "",
          "type": "bool"
        }
      ],
      "stateMutability": "view",
      "type": "function"
    },
    {
      "inputs": [
        {
          "internalType": "address",
          "name": "_address",
          "type": "address"
        }
      ],
      "name": "hasMinterRole",
      "outputs": [
        {
          "internalType": "bool",
          "name": "",
          "type": "bool"
        }
      ],
      "stateMutability": "view",
      "type": "function"
    },
    {
      "inputs": [
        {
          "internalType": "address",
          "name": "_address",
          "type": "address"
        }
      ],
      "name": "hasOperatorRole",
      "outputs": [
        {
          "internalType": "bool",
          "name": "",
          "type": "bool"
        }
      ],
      "stateMutability": "view",
      "type": "function"
    },
    {
      "inputs": [
        {
          "internalType": "bytes32",
          "name": "role",
          "type": "bytes32"
        },
        {
          "internalType": "address",
          "name": "account",
          "type": "address"
        }
      ],
      "name": "hasRole",
      "outputs": [
        {
          "internalType": "bool",
          "name": "",
          "type": "bool"
        }
      ],
      "stateMutability": "view",
      "type": "function"
    },
    {
      "inputs": [
        {
          "internalType": "address",
          "name": "_address",
          "type": "address"
        }
      ],
      "name": "hasSmartContractRole",
      "outputs": [
        {
          "internalType": "bool",
          "name": "",
          "type": "bool"
        }
      ],
      "stateMutability": "view",
      "type": "function"
    },
    {
      "inputs": [
        {
          "internalType": "address",
          "name": "_admin",
          "type": "address"
        }
      ],
      "name": "initAccessControls",
      "outputs": [],
      "stateMutability": "nonpayable",
      "type": "function"
    },
    {
      "inputs": [
        {
          "internalType": "address",
          "name": "_address",
          "type": "address"
        }
      ],
      "name": "removeAdminRole",
      "outputs": [],
      "stateMutability": "nonpayable",
      "type": "function"
    },
    {
      "inputs": [
        {
          "internalType": "address",
          "name": "_address",
          "type": "address"
        }
      ],
      "name": "removeMinterRole",
      "outputs": [],
      "stateMutability": "nonpayable",
      "type": "function"
    },
    {
      "inputs": [
        {
          "internalType": "address",
          "name": "_address",
          "type": "address"
        }
      ],
      "name": "removeOperatorRole",
      "outputs": [],
      "stateMutability": "nonpayable",
      "type": "function"
    },
    {
      "inputs": [
        {
          "internalType": "address",
          "name": "_address",
          "type": "address"
        }
      ],
      "name": "removeSmartContractRole",
      "outputs": [],
      "stateMutability": "nonpayable",
      "type": "function"
    },
    {
      "inputs": [
        {
          "internalType": "bytes32",
          "name": "role",
          "type": "bytes32"
        },
        {
          "internalType": "address",
          "name": "account",
          "type": "address"
        }
      ],
      "name": "renounceRole",
      "outputs": [],
      "stateMutability": "nonpayable",
      "type": "function"
    },
    {
      "inputs": [
        {
          "internalType": "bytes32",
          "name": "role",
          "type": "bytes32"
        },
        {
          "internalType": "address",
          "name": "account",
          "type": "address"
        }
      ],
      "name": "revokeRole",
      "outputs": [],
      "stateMutability": "nonpayable",
      "type": "function"
    }
  ],
  "bytecode": "0x608060405234801561001057600080fd5b50611746806100206000396000f3fe608060405234801561001057600080fd5b50600436106101585760003560e01c80639478941c116100c3578063d53913931161007c578063d5391393146103e5578063d547741f14610403578063dccfe3101461041f578063e6594abd1461043b578063f5b541a614610457578063fc4e3e0a1461047557610158565b80639478941c14610313578063a217fddf1461032f578063adbf37761461034d578063b7928b1d14610369578063c395fcb314610385578063ca15c873146103b557610158565b806354f1e1261161011557806354f1e126146102415780636595171c1461025d578063857d2608146102795780638a845fc0146102975780639010d07c146102b357806391d14854146102e357610158565b8063099db0171461015d578063113b0ab21461018d578063248a9ca3146101bd5780632f2ff15d146101ed57806336568abe146102095780633f16431a14610225575b600080fd5b61017760048036038101906101729190611189565b6104a5565b6040516101849190611359565b60405180910390f35b6101a760048036038101906101a29190611189565b6104d8565b6040516101b49190611359565b60405180910390f35b6101d760048036038101906101d291906111b2565b61050b565b6040516101e49190611374565b60405180910390f35b610207600480360381019061020291906111db565b61052a565b005b610223600480360381019061021e91906111db565b61059d565b005b61023f600480360381019061023a9190611189565b610620565b005b61025b60048036038101906102569190611189565b6106ae565b005b61027760048036038101906102729190611189565b61073c565b005b6102816107ad565b60405161028e9190611374565b60405180910390f35b6102b160048036038101906102ac9190611189565b6107d1565b005b6102cd60048036038101906102c89190611217565b61085f565b6040516102da919061133e565b60405180910390f35b6102fd60048036038101906102f891906111db565b610890565b60405161030a9190611359565b60405180910390f35b61032d60048036038101906103289190611189565b6108c1565b005b61033761094f565b6040516103449190611374565b60405180910390f35b61036760048036038101906103629190611189565b610956565b005b610383600480360381019061037e9190611189565b6109e4565b005b61039f600480360381019061039a9190611189565b610a72565b6040516103ac9190611359565b60405180910390f35b6103cf60048036038101906103ca91906111b2565b610a88565b6040516103dc919061142f565b60405180910390f35b6103ed610aae565b6040516103fa9190611374565b60405180910390f35b61041d600480360381019061041891906111db565b610ad2565b005b61043960048036038101906104349190611189565b610b45565b005b61045560048036038101906104509190611189565b610bb6565b005b61045f610c30565b60405161046c9190611374565b60405180910390f35b61048f600480360381019061048a9190611189565b610c54565b60405161049c9190611359565b60405180910390f35b60006104d17f9f2df0fed2c77648de5860a4cc508cd0818c85b8b8a1ab4ceeef8d981c8956a683610890565b9050919050565b60006105047f9d49f397ae9ef1a834b569acb967799a367061e305932181a44f5773da873bfd83610890565b9050919050565b6000806000838152602001908152602001600020600201549050919050565b6105506000808481526020019081526020016000206002015461054b610c87565b610890565b61058f576040517f08c379a0000000000000000000000000000000000000000000000000000000008152600401610586906113cf565b60405180910390fd5b6105998282610c8f565b5050565b6105a5610c87565b73ffffffffffffffffffffffffffffffffffffffff168173ffffffffffffffffffffffffffffffffffffffff1614610612576040517f08c379a00000000000000000000000000000000000000000000000000000000081526004016106099061140f565b60405180910390fd5b61061c8282610d22565b5050565b61064a7f9d49f397ae9ef1a834b569acb967799a367061e305932181a44f5773da873bfd8261052a565b610652610c87565b73ffffffffffffffffffffffffffffffffffffffff168173ffffffffffffffffffffffffffffffffffffffff167f1d5f9ec24c6f91be922ea13ceaad919ad6554a41b5c26087f96289a9baf98ad260405160405180910390a350565b6106d87f9f2df0fed2c77648de5860a4cc508cd0818c85b8b8a1ab4ceeef8d981c8956a682610ad2565b6106e0610c87565b73ffffffffffffffffffffffffffffffffffffffff168173ffffffffffffffffffffffffffffffffffffffff167f56692a161ffec953ddf9def93b958ea8d1ec95e21b80870c66be91a4374dc4e360405160405180910390a350565b6107496000801b8261052a565b610751610c87565b73ffffffffffffffffffffffffffffffffffffffff168173ffffffffffffffffffffffffffffffffffffffff167f2570ac42fd8b322dc453ada624dc2ed0e9bdd67f16f201a25bbd30468f2aa18760405160405180910390a350565b7f9d49f397ae9ef1a834b569acb967799a367061e305932181a44f5773da873bfd81565b6107fb7f9d49f397ae9ef1a834b569acb967799a367061e305932181a44f5773da873bfd82610ad2565b610803610c87565b73ffffffffffffffffffffffffffffffffffffffff168173ffffffffffffffffffffffffffffffffffffffff167fe5f1aa9e528307345194b88b24a32401c13926e0823060f1049d9b26c0bb62b260405160405180910390a350565b600061088882600080868152602001908152602001600020600001610db590919063ffffffff16565b905092915050565b60006108b982600080868152602001908152602001600020600001610dcf90919063ffffffff16565b905092915050565b6108eb7f97667070c54ef182b0f5858b034beac1b6f3089aa2d3188bb1e8929f4fa9b92982610ad2565b6108f3610c87565b73ffffffffffffffffffffffffffffffffffffffff168173ffffffffffffffffffffffffffffffffffffffff167f70b25138b6fadeb9992d18b9653564271823e34b3e3257515d12a6d4b15fcddf60405160405180910390a350565b6000801b81565b6109807f9f2df0fed2c77648de5860a4cc508cd0818c85b8b8a1ab4ceeef8d981c8956a68261052a565b610988610c87565b73ffffffffffffffffffffffffffffffffffffffff168173ffffffffffffffffffffffffffffffffffffffff167f0be6ab9784c7401fafb73f7bc47bc67cc4ef8c47a60ad3cb66d1de0353a0784c60405160405180910390a350565b610a0e7f97667070c54ef182b0f5858b034beac1b6f3089aa2d3188bb1e8929f4fa9b9298261052a565b610a16610c87565b73ffffffffffffffffffffffffffffffffffffffff168173ffffffffffffffffffffffffffffffffffffffff167f2d45ee102874989882745a26688d0b4fffee125a18df26536b12582c7fde4e1760405160405180910390a350565b6000610a816000801b83610890565b9050919050565b6000610aa7600080848152602001908152602001600020600001610dff565b9050919050565b7f9f2df0fed2c77648de5860a4cc508cd0818c85b8b8a1ab4ceeef8d981c8956a681565b610af860008084815260200190815260200160002060020154610af3610c87565b610890565b610b37576040517f08c379a0000000000000000000000000000000000000000000000000000000008152600401610b2e906113ef565b60405180910390fd5b610b418282610d22565b5050565b610b526000801b82610ad2565b610b5a610c87565b73ffffffffffffffffffffffffffffffffffffffff168173ffffffffffffffffffffffffffffffffffffffff167f21ba1239795d4e22874e3dc55f0a9d7b65bfb23069d32965d7c23be9524ccf9560405160405180910390a350565b600160009054906101000a900460ff1615610c06576040517f08c379a0000000000000000000000000000000000000000000000000000000008152600401610bfd9061138f565b60405180910390fd5b610c136000801b82610e14565b60018060006101000a81548160ff02191690831515021790555050565b7f97667070c54ef182b0f5858b034beac1b6f3089aa2d3188bb1e8929f4fa9b92981565b6000610c807f97667070c54ef182b0f5858b034beac1b6f3089aa2d3188bb1e8929f4fa9b92983610890565b9050919050565b600033905090565b610cb681600080858152602001908152602001600020600001610e2290919063ffffffff16565b15610d1e57610cc3610c87565b73ffffffffffffffffffffffffffffffffffffffff168173ffffffffffffffffffffffffffffffffffffffff16837f2f8788117e7eff1d82e926ec794901d17c78024a50270940304540a733656f0d60405160405180910390a45b5050565b610d4981600080858152602001908152602001600020600001610e5290919063ffffffff16565b15610db157610d56610c87565b73ffffffffffffffffffffffffffffffffffffffff168173ffffffffffffffffffffffffffffffffffffffff16837ff6391f5c32d9c69d2a47ea670b442974b53935d1edc7fd64eb21e047a839171b60405160405180910390a45b5050565b6000610dc48360000183610e82565b60001c905092915050565b6000610df7836000018373ffffffffffffffffffffffffffffffffffffffff1660001b610f1c565b905092915050565b6000610e0d82600001610f3f565b9050919050565b610e1e8282610c8f565b5050565b6000610e4a836000018373ffffffffffffffffffffffffffffffffffffffff1660001b610f50565b905092915050565b6000610e7a836000018373ffffffffffffffffffffffffffffffffffffffff1660001b610fc0565b905092915050565b600081836000018054905011610ecd576040517f08c379a0000000000000000000000000000000000000000000000000000000008152600401610ec4906113af565b60405180910390fd5b826000018281548110610f09577f4e487b7100000000000000000000000000000000000000000000000000000000600052603260045260246000fd5b9060005260206000200154905092915050565b600080836001016000848152602001908152602001600020541415905092915050565b600081600001805490509050919050565b6000610f5c8383610f1c565b610fb5578260000182908060018154018082558091505060019003906000526020600020016000909190919091505582600001805490508360010160008481526020019081526020016000208190555060019050610fba565b600090505b92915050565b6000808360010160008481526020019081526020016000205490506000811461113e576000600182610ff291906114b1565b905060006001866000018054905061100a91906114b1565b9050600086600001828154811061104a577f4e487b7100000000000000000000000000000000000000000000000000000000600052603260045260246000fd5b9060005260206000200154905080876000018481548110611094577f4e487b7100000000000000000000000000000000000000000000000000000000600052603260045260246000fd5b90600052602060002001819055506001836110af919061145b565b8760010160008381526020019081526020016000208190555086600001805480611102577f4e487b7100000000000000000000000000000000000000000000000000000000600052603160045260246000fd5b60019003818190600052602060002001600090559055866001016000878152602001908152602001600020600090556001945050505050611144565b60009150505b92915050565b600081359050611159816116cb565b92915050565b60008135905061116e816116e2565b92915050565b600081359050611183816116f9565b92915050565b60006020828403121561119b57600080fd5b60006111a98482850161114a565b91505092915050565b6000602082840312156111c457600080fd5b60006111d28482850161115f565b91505092915050565b600080604083850312156111ee57600080fd5b60006111fc8582860161115f565b925050602061120d8582860161114a565b9150509250929050565b6000806040838503121561122a57600080fd5b60006112388582860161115f565b925050602061124985828601611174565b9150509250929050565b61125c816114e5565b82525050565b61126b816114f7565b82525050565b61127a81611503565b82525050565b600061128d60138361144a565b915061129882611566565b602082019050919050565b60006112b060228361144a565b91506112bb8261158f565b604082019050919050565b60006112d3602f8361144a565b91506112de826115de565b604082019050919050565b60006112f660308361144a565b91506113018261162d565b604082019050919050565b6000611319602f8361144a565b91506113248261167c565b604082019050919050565b6113388161152d565b82525050565b60006020820190506113536000830184611253565b92915050565b600060208201905061136e6000830184611262565b92915050565b60006020820190506113896000830184611271565b92915050565b600060208201905081810360008301526113a881611280565b9050919050565b600060208201905081810360008301526113c8816112a3565b9050919050565b600060208201905081810360008301526113e8816112c6565b9050919050565b60006020820190508181036000830152611408816112e9565b9050919050565b600060208201905081810360008301526114288161130c565b9050919050565b6000602082019050611444600083018461132f565b92915050565b600082825260208201905092915050565b60006114668261152d565b91506114718361152d565b9250827fffffffffffffffffffffffffffffffffffffffffffffffffffffffffffffffff038211156114a6576114a5611537565b5b828201905092915050565b60006114bc8261152d565b91506114c78361152d565b9250828210156114da576114d9611537565b5b828203905092915050565b60006114f08261150d565b9050919050565b60008115159050919050565b6000819050919050565b600073ffffffffffffffffffffffffffffffffffffffff82169050919050565b6000819050919050565b7f4e487b7100000000000000000000000000000000000000000000000000000000600052601160045260246000fd5b7f416c726561647920696e697469616c6973656400000000000000000000000000600082015250565b7f456e756d657261626c655365743a20696e646578206f7574206f6620626f756e60008201527f6473000000000000000000000000000000000000000000000000000000000000602082015250565b7f416363657373436f6e74726f6c3a2073656e646572206d75737420626520616e60008201527f2061646d696e20746f206772616e740000000000000000000000000000000000602082015250565b7f416363657373436f6e74726f6c3a2073656e646572206d75737420626520616e60008201527f2061646d696e20746f207265766f6b6500000000000000000000000000000000602082015250565b7f416363657373436f6e74726f6c3a2063616e206f6e6c792072656e6f756e636560008201527f20726f6c657320666f722073656c660000000000000000000000000000000000602082015250565b6116d4816114e5565b81146116df57600080fd5b50565b6116eb81611503565b81146116f657600080fd5b50565b6117028161152d565b811461170d57600080fd5b5056fea2646970667358221220d83b360b8f79fd8e6920b12cfa2aa6b2125d4d62150bcec5e060d43763c4a82464736f6c63430008040033",
  "linkReferences": {},
  "deployedLinkReferences": {}
}