{
  "_format": "hh-sol-artifact-1",
  "contractName": "GnosisSafeFactory",
  "sourceName": "contracts/Vault/GnosisSafeFactory.sol",
  "abi": [
    {
      "anonymous": false,
      "inputs": [
        {
          "indexed": true,
          "internalType": "address",
          "name": "user",
          "type": "address"
        },
        {
          "indexed": true,
          "internalType": "address",
          "name": "proxy",
          "type": "address"
        },
        {
          "indexed": false,
          "internalType": "address",
          "name": "safeGnosis",
          "type": "address"
        },
        {
          "indexed": false,
          "internalType": "address",
          "name": "proxyFactory",
          "type": "address"
        }
      ],
      "name": "GnosisSafeCreated",
      "type": "event"
    },
    {
      "anonymous": false,
      "inputs": [
        {
          "indexed": true,
          "internalType": "address",
          "name": "sender",
          "type": "address"
        },
        {
          "indexed": false,
          "internalType": "address",
          "name": "oldProxyFactory",
          "type": "address"
        },
        {
          "indexed": false,
          "internalType": "address",
          "name": "newProxyFactory",
          "type": "address"
        }
      ],
      "name": "ProxyFactoryUpdated",
      "type": "event"
    },
    {
      "anonymous": false,
      "inputs": [
        {
          "indexed": true,
          "internalType": "address",
          "name": "sender",
          "type": "address"
        },
        {
          "indexed": false,
          "internalType": "address",
          "name": "oldSafeGnosis",
          "type": "address"
        },
        {
          "indexed": false,
          "internalType": "address",
          "name": "newSafeGnosis",
          "type": "address"
        }
      ],
      "name": "SafeGnosisUpdated",
      "type": "event"
    },
    {
      "anonymous": false,
      "inputs": [
        {
          "indexed": false,
          "internalType": "address",
          "name": "sender",
          "type": "address"
        }
      ],
      "name": "VaporInitGnosisVault",
      "type": "event"
    },
    {
      "inputs": [],
      "name": "accessControls",
      "outputs": [
        {
          "internalType": "contract VaporAccessControls",
          "name": "",
          "type": "address"
        }
      ],
      "stateMutability": "view",
      "type": "function"
    },
    {
      "inputs": [
        {
          "internalType": "address[]",
          "name": "_owners",
          "type": "address[]"
        },
        {
          "internalType": "uint256",
          "name": "_threshold",
          "type": "uint256"
        },
        {
          "internalType": "address",
          "name": "to",
          "type": "address"
        },
        {
          "internalType": "bytes",
          "name": "data",
          "type": "bytes"
        },
        {
          "internalType": "address",
          "name": "fallbackHandler",
          "type": "address"
        },
        {
          "internalType": "address",
          "name": "paymentToken",
          "type": "address"
        },
        {
          "internalType": "uint256",
          "name": "payment",
          "type": "uint256"
        },
        {
          "internalType": "address payable",
          "name": "paymentReceiver",
          "type": "address"
        }
      ],
      "name": "createSafe",
      "outputs": [
        {
          "internalType": "contract ISafeGnosis",
          "name": "proxy",
          "type": "address"
        }
      ],
      "stateMutability": "nonpayable",
      "type": "function"
    },
    {
      "inputs": [
        {
          "internalType": "address",
          "name": "_accessControls",
          "type": "address"
        },
        {
          "internalType": "address",
          "name": "_safeGnosis",
          "type": "address"
        },
        {
          "internalType": "address",
          "name": "_proxyFactory",
          "type": "address"
        }
      ],
      "name": "initGnosisVault",
      "outputs": [],
      "stateMutability": "nonpayable",
      "type": "function"
    },
    {
      "inputs": [],
      "name": "proxyFactory",
      "outputs": [
        {
          "internalType": "contract IGnosisProxyFactory",
          "name": "",
          "type": "address"
        }
      ],
      "stateMutability": "view",
      "type": "function"
    },
    {
      "inputs": [],
      "name": "safeGnosis",
      "outputs": [
        {
          "internalType": "contract ISafeGnosis",
          "name": "",
          "type": "address"
        }
      ],
      "stateMutability": "view",
      "type": "function"
    },
    {
      "inputs": [
        {
          "internalType": "address",
          "name": "_proxyFactory",
          "type": "address"
        }
      ],
      "name": "setProxyFactory",
      "outputs": [],
      "stateMutability": "nonpayable",
      "type": "function"
    },
    {
      "inputs": [
        {
          "internalType": "address",
          "name": "_safeGnosis",
          "type": "address"
        }
      ],
      "name": "setSafeGnosis",
      "outputs": [],
      "stateMutability": "nonpayable",
      "type": "function"
    }
  ],
  "bytecode": "0x608060405234801561001057600080fd5b50610a33806100206000396000f3fe608060405234801561001057600080fd5b506004361061007d5760003560e01c806385ae71dc1161005b57806385ae71dc146100d9578063c10f1a75146100ec578063c54eb139146100ff578063fbddd7511461011257600080fd5b8063115eda4d1461008257806315cdde80146100b1578063748365ef146100c6575b600080fd5b6100956100903660046106c9565b610125565b6040516001600160a01b03909116815260200160405180910390f35b6100c46100bf36600461067f565b61028d565b005b600254610095906001600160a01b031681565b6100c46100e736600461065c565b61034c565b600154610095906001600160a01b031681565b600054610095906001600160a01b031681565b6100c461012036600461065c565b6104af565b6000808b8b8b8b8b8b8b8b8b8b60405160200161014b9a999897969594939291906108c9565b60408051601f19818403018152908290526001546000547f61b69abd0000000000000000000000000000000000000000000000000000000084529193506001600160a01b03908116926361b69abd926101aa9216908590600401610865565b602060405180830381600087803b1580156101c457600080fd5b505af11580156101d8573d6000803e3d6000fd5b505050506040513d601f19601f820116820180604052508101906101fc91906107d8565b336000818152600360209081526040808320805473ffffffffffffffffffffffffffffffffffffffff19166001600160a01b038781169182179092559354600154835191831682529091169281019290925293955090927ffaca5c644c0ff31b7bf7b1189f2ed2dbc1d6226dc231e6af5f4a6f277088a7bf910160405180910390a3509a9950505050505050505050565b600254600160a01b900460ff16156102a457600080fd5b600080546001600160a01b0384811673ffffffffffffffffffffffffffffffffffffffff1992831617909255600180548484169216919091179055600280547fffffffffffffffffffffff0000000000000000000000000000000000000000001691851691909117600160a01b1790556040513381527fa0674618b3403752df5f64789819cdebeb036d4d81377ea5b11bfd9e77920c8f9060200160405180910390a1505050565b600254604051637e271f0560e11b81523360048201526001600160a01b039091169063fc4e3e0a9060240160206040518083038186803b15801561038f57600080fd5b505afa1580156103a3573d6000803e3d6000fd5b505050506040513d601f19601f820116820180604052508101906103c791906107b8565b61043e5760405162461bcd60e51b815260206004820152603260248201527f476e6f7369735661756c742e73657453616665476e6f7369733a2053656e646560448201527f72206d757374206265206f70657261746f72000000000000000000000000000060648201526084015b60405180910390fd5b600080546001600160a01b0383811673ffffffffffffffffffffffffffffffffffffffff19831681179093556040805191909216808252602082019390935233917fb15d4762c790f8d8e3db790e685fa4aeb87d3e704ce8a25dd64c1ce6d9f9b6e691015b60405180910390a25050565b600254604051637e271f0560e11b81523360048201526001600160a01b039091169063fc4e3e0a9060240160206040518083038186803b1580156104f257600080fd5b505afa158015610506573d6000803e3d6000fd5b505050506040513d601f19601f8201168201806040525081019061052a91906107b8565b61059c5760405162461bcd60e51b815260206004820152603460248201527f476e6f7369735661756c742e73657450726f7879466163746f72793a2053656e60448201527f646572206d757374206265206f70657261746f720000000000000000000000006064820152608401610435565b600180546001600160a01b0383811673ffffffffffffffffffffffffffffffffffffffff19831681179093556040805191909216808252602082019390935233917f433a1443462da55041a586a5a566005aeda3132ec57b6afb76e7f51ae63fe6fb91016104a3565b8035610610816109e5565b919050565b60008083601f840112610626578182fd5b50813567ffffffffffffffff81111561063d578182fd5b60208301915083602082850101111561065557600080fd5b9250929050565b60006020828403121561066d578081fd5b8135610678816109e5565b9392505050565b600080600060608486031215610693578182fd5b833561069e816109e5565b925060208401356106ae816109e5565b915060408401356106be816109e5565b809150509250925092565b6000806000806000806000806000806101008b8d0312156106e8578586fd5b8a3567ffffffffffffffff808211156106ff578788fd5b818d0191508d601f830112610712578788fd5b813581811115610720578889fd5b8e60208260051b8501011115610734578889fd5b60208381019d50909b508d0135995061074f60408e01610605565b985060608d0135915080821115610764578788fd5b506107718d828e01610615565b9097509550610784905060808c01610605565b935061079260a08c01610605565b925060c08b013591506107a760e08c01610605565b90509295989b9194979a5092959850565b6000602082840312156107c9578081fd5b81518015158114610678578182fd5b6000602082840312156107e9578081fd5b8151610678816109e5565b81835260006020808501945082825b85811015610831578135610816816109e5565b6001600160a01b031687529582019590820190600101610803565b509495945050505050565b81835281816020850137506000828201602090810191909152601f909101601f19169091010190565b6001600160a01b0383168152600060206040818401528351806040850152825b818110156108a157858101830151858201606001528201610885565b818111156108b25783606083870101525b50601f01601f191692909201606001949350505050565b6000610120808352604681840152507f736574757028616464726573735b5d2c75696e743235362c616464726573732c6101408301527f62797465732c616464726573732c616464726573732c75696e743235362c61646101608301527f64726573732900000000000000000000000000000000000000000000000000006101808301526101a08060208401526109638184018d8f6107f4565b90508a6040840152610980606084018b6001600160a01b03169052565b828103608084015261099381898b61083c565b9150506109ab60a08301876001600160a01b03169052565b6001600160a01b03851660c08301528360e08301526109d66101008301846001600160a01b03169052565b9b9a5050505050505050505050565b6001600160a01b03811681146109fa57600080fd5b5056fea2646970667358221220bbf4c321092d7652ef2ed7fb760e1ab1cfc6c64cfc1bc3bb57d919532abf1b1064736f6c63430008040033",
  "linkReferences": {},
  "deployedLinkReferences": {}
}