{
  "_format": "hh-sol-artifact-1",
  "contractName": "GnosisSafeFactory",
  "sourceName": "contracts/Vault/GnosisSafeFactory.sol",
  "abi": [
    {
      "anonymous": false,
      "inputs": [
        {
          "indexed": true,
          "internalType": "address",
          "name": "user",
          "type": "address"
        },
        {
          "indexed": true,
          "internalType": "address",
          "name": "proxy",
          "type": "address"
        },
        {
          "indexed": false,
          "internalType": "address",
          "name": "safeGnosis",
          "type": "address"
        },
        {
          "indexed": false,
          "internalType": "address",
          "name": "proxyFactory",
          "type": "address"
        }
      ],
      "name": "GnosisSafeCreated",
      "type": "event"
    },
    {
      "anonymous": false,
      "inputs": [
        {
          "indexed": false,
          "internalType": "address",
          "name": "sender",
          "type": "address"
        }
      ],
      "name": "MisoInitGnosisVault",
      "type": "event"
    },
    {
      "anonymous": false,
      "inputs": [
        {
          "indexed": true,
          "internalType": "address",
          "name": "sender",
          "type": "address"
        },
        {
          "indexed": false,
          "internalType": "address",
          "name": "oldProxyFactory",
          "type": "address"
        },
        {
          "indexed": false,
          "internalType": "address",
          "name": "newProxyFactory",
          "type": "address"
        }
      ],
      "name": "ProxyFactoryUpdated",
      "type": "event"
    },
    {
      "anonymous": false,
      "inputs": [
        {
          "indexed": true,
          "internalType": "address",
          "name": "sender",
          "type": "address"
        },
        {
          "indexed": false,
          "internalType": "address",
          "name": "oldSafeGnosis",
          "type": "address"
        },
        {
          "indexed": false,
          "internalType": "address",
          "name": "newSafeGnosis",
          "type": "address"
        }
      ],
      "name": "SafeGnosisUpdated",
      "type": "event"
    },
    {
      "inputs": [],
      "name": "accessControls",
      "outputs": [
        {
          "internalType": "contract MISOAccessControls",
          "name": "",
          "type": "address"
        }
      ],
      "stateMutability": "view",
      "type": "function"
    },
    {
      "inputs": [
        {
          "internalType": "address[]",
          "name": "_owners",
          "type": "address[]"
        },
        {
          "internalType": "uint256",
          "name": "_threshold",
          "type": "uint256"
        },
        {
          "internalType": "address",
          "name": "to",
          "type": "address"
        },
        {
          "internalType": "bytes",
          "name": "data",
          "type": "bytes"
        },
        {
          "internalType": "address",
          "name": "fallbackHandler",
          "type": "address"
        },
        {
          "internalType": "address",
          "name": "paymentToken",
          "type": "address"
        },
        {
          "internalType": "uint256",
          "name": "payment",
          "type": "uint256"
        },
        {
          "internalType": "address payable",
          "name": "paymentReceiver",
          "type": "address"
        }
      ],
      "name": "createSafe",
      "outputs": [
        {
          "internalType": "contract ISafeGnosis",
          "name": "proxy",
          "type": "address"
        }
      ],
      "stateMutability": "nonpayable",
      "type": "function"
    },
    {
      "inputs": [
        {
          "internalType": "address",
          "name": "_accessControls",
          "type": "address"
        },
        {
          "internalType": "address",
          "name": "_safeGnosis",
          "type": "address"
        },
        {
          "internalType": "address",
          "name": "_proxyFactory",
          "type": "address"
        }
      ],
      "name": "initGnosisVault",
      "outputs": [],
      "stateMutability": "nonpayable",
      "type": "function"
    },
    {
      "inputs": [],
      "name": "proxyFactory",
      "outputs": [
        {
          "internalType": "contract IGnosisProxyFactory",
          "name": "",
          "type": "address"
        }
      ],
      "stateMutability": "view",
      "type": "function"
    },
    {
      "inputs": [],
      "name": "safeGnosis",
      "outputs": [
        {
          "internalType": "contract ISafeGnosis",
          "name": "",
          "type": "address"
        }
      ],
      "stateMutability": "view",
      "type": "function"
    },
    {
      "inputs": [
        {
          "internalType": "address",
          "name": "_proxyFactory",
          "type": "address"
        }
      ],
      "name": "setProxyFactory",
      "outputs": [],
      "stateMutability": "nonpayable",
      "type": "function"
    },
    {
      "inputs": [
        {
          "internalType": "address",
          "name": "_safeGnosis",
          "type": "address"
        }
      ],
      "name": "setSafeGnosis",
      "outputs": [],
      "stateMutability": "nonpayable",
      "type": "function"
    }
  ],
  "bytecode": "0x608060405234801561001057600080fd5b50611228806100206000396000f3fe608060405234801561001057600080fd5b506004361061007d5760003560e01c806385ae71dc1161005b57806385ae71dc146100ec578063c10f1a7514610108578063c54eb13914610126578063fbddd751146101445761007d565b8063115eda4d1461008257806315cdde80146100b2578063748365ef146100ce575b600080fd5b61009c60048036038101906100979190610a42565b610160565b6040516100a99190610d8b565b60405180910390f35b6100cc60048036038101906100c791906109f3565b61039e565b005b6100d66104d1565b6040516100e39190610dd6565b60405180910390f35b610106600480360381019061010191906109ca565b6104f7565b005b6101106106bb565b60405161011d9190610d70565b60405180910390f35b61012e6106e1565b60405161013b9190610d8b565b60405180910390f35b61015e600480360381019061015991906109ca565b610705565b005b6000808b8b8b8b8b8b8b8b8b8b6040516020016101869a99989796959493929190610e31565b6040516020818303038152906040529050600160009054906101000a900473ffffffffffffffffffffffffffffffffffffffff1673ffffffffffffffffffffffffffffffffffffffff166361b69abd60008054906101000a900473ffffffffffffffffffffffffffffffffffffffff16836040518363ffffffff1660e01b8152600401610214929190610da6565b602060405180830381600087803b15801561022e57600080fd5b505af1158015610242573d6000803e3d6000fd5b505050506040513d601f19601f820116820180604052508101906102669190610b56565b915081600360003373ffffffffffffffffffffffffffffffffffffffff1673ffffffffffffffffffffffffffffffffffffffff16815260200190815260200160002060006101000a81548173ffffffffffffffffffffffffffffffffffffffff021916908373ffffffffffffffffffffffffffffffffffffffff1602179055508173ffffffffffffffffffffffffffffffffffffffff163373ffffffffffffffffffffffffffffffffffffffff167ffaca5c644c0ff31b7bf7b1189f2ed2dbc1d6226dc231e6af5f4a6f277088a7bf60008054906101000a900473ffffffffffffffffffffffffffffffffffffffff16600160009054906101000a900473ffffffffffffffffffffffffffffffffffffffff16604051610387929190610d47565b60405180910390a3509a9950505050505050505050565b600260149054906101000a900460ff16156103b857600080fd5b816000806101000a81548173ffffffffffffffffffffffffffffffffffffffff021916908373ffffffffffffffffffffffffffffffffffffffff16021790555080600160006101000a81548173ffffffffffffffffffffffffffffffffffffffff021916908373ffffffffffffffffffffffffffffffffffffffff16021790555082600260006101000a81548173ffffffffffffffffffffffffffffffffffffffff021916908373ffffffffffffffffffffffffffffffffffffffff1602179055506001600260146101000a81548160ff0219169083151502179055507ff3a7f17e80eaecf1dc0b6f31b3542225cfeacbff0aaf06bc52727bbac1afa38b336040516104c49190610d2c565b60405180910390a1505050565b600260009054906101000a900473ffffffffffffffffffffffffffffffffffffffff1681565b600260009054906101000a900473ffffffffffffffffffffffffffffffffffffffff1673ffffffffffffffffffffffffffffffffffffffff1663fc4e3e0a336040518263ffffffff1660e01b81526004016105529190610d2c565b60206040518083038186803b15801561056a57600080fd5b505afa15801561057e573d6000803e3d6000fd5b505050506040513d601f19601f820116820180604052508101906105a29190610b2d565b6105e1576040517f08c379a00000000000000000000000000000000000000000000000000000000081526004016105d890610df1565b60405180910390fd5b60008060009054906101000a900473ffffffffffffffffffffffffffffffffffffffff169050816000806101000a81548173ffffffffffffffffffffffffffffffffffffffff021916908373ffffffffffffffffffffffffffffffffffffffff1602179055503373ffffffffffffffffffffffffffffffffffffffff167fb15d4762c790f8d8e3db790e685fa4aeb87d3e704ce8a25dd64c1ce6d9f9b6e68260008054906101000a900473ffffffffffffffffffffffffffffffffffffffff166040516106af929190610d47565b60405180910390a25050565b600160009054906101000a900473ffffffffffffffffffffffffffffffffffffffff1681565b60008054906101000a900473ffffffffffffffffffffffffffffffffffffffff1681565b600260009054906101000a900473ffffffffffffffffffffffffffffffffffffffff1673ffffffffffffffffffffffffffffffffffffffff1663fc4e3e0a336040518263ffffffff1660e01b81526004016107609190610d2c565b60206040518083038186803b15801561077857600080fd5b505afa15801561078c573d6000803e3d6000fd5b505050506040513d601f19601f820116820180604052508101906107b09190610b2d565b6107ef576040517f08c379a00000000000000000000000000000000000000000000000000000000081526004016107e690610e11565b60405180910390fd5b6000600160009054906101000a900473ffffffffffffffffffffffffffffffffffffffff16905081600160006101000a81548173ffffffffffffffffffffffffffffffffffffffff021916908373ffffffffffffffffffffffffffffffffffffffff1602179055503373ffffffffffffffffffffffffffffffffffffffff167f433a1443462da55041a586a5a566005aeda3132ec57b6afb76e7f51ae63fe6fb82600160009054906101000a900473ffffffffffffffffffffffffffffffffffffffff166040516108c1929190610d47565b60405180910390a25050565b6000813590506108dc8161117f565b92915050565b6000813590506108f181611196565b92915050565b60008083601f84011261090957600080fd5b8235905067ffffffffffffffff81111561092257600080fd5b60208301915083602082028301111561093a57600080fd5b9250929050565b600081519050610950816111ad565b92915050565b60008083601f84011261096857600080fd5b8235905067ffffffffffffffff81111561098157600080fd5b60208301915083600182028301111561099957600080fd5b9250929050565b6000815190506109af816111c4565b92915050565b6000813590506109c4816111db565b92915050565b6000602082840312156109dc57600080fd5b60006109ea848285016108cd565b91505092915050565b600080600060608486031215610a0857600080fd5b6000610a16868287016108cd565b9350506020610a27868287016108cd565b9250506040610a38868287016108cd565b9150509250925092565b6000806000806000806000806000806101008b8d031215610a6257600080fd5b60008b013567ffffffffffffffff811115610a7c57600080fd5b610a888d828e016108f7565b9a509a50506020610a9b8d828e016109b5565b9850506040610aac8d828e016108cd565b97505060608b013567ffffffffffffffff811115610ac957600080fd5b610ad58d828e01610956565b96509650506080610ae88d828e016108cd565b94505060a0610af98d828e016108cd565b93505060c0610b0a8d828e016109b5565b92505060e0610b1b8d828e016108e2565b9150509295989b9194979a5092959850565b600060208284031215610b3f57600080fd5b6000610b4d84828501610941565b91505092915050565b600060208284031215610b6857600080fd5b6000610b76848285016109a0565b91505092915050565b6000610b8b8383610ba6565b60208301905092915050565b610ba081610f53565b82525050565b610baf81610f41565b82525050565b610bbe81610f41565b82525050565b6000610bd08385610ef7565b9350610bdb82610ed5565b8060005b85811015610c1457610bf18284610f2a565b610bfb8882610b7f565b9750610c0683610eea565b925050600181019050610bdf565b5085925050509392505050565b6000610c2d8385610f08565b9350610c3a838584611019565b610c438361105b565b840190509392505050565b6000610c5982610edf565b610c638185610f08565b9350610c73818560208601611028565b610c7c8161105b565b840191505092915050565b610c9081610fad565b82525050565b610c9f81610fd1565b82525050565b610cae81610ff5565b82525050565b6000610cc1603283610f19565b9150610ccc8261106c565b604082019050919050565b6000610ce4603483610f19565b9150610cef826110bb565b604082019050919050565b6000610d07604683610f19565b9150610d128261110a565b606082019050919050565b610d2681610fa3565b82525050565b6000602082019050610d416000830184610bb5565b92915050565b6000604082019050610d5c6000830185610bb5565b610d696020830184610bb5565b9392505050565b6000602082019050610d856000830184610c87565b92915050565b6000602082019050610da06000830184610c96565b92915050565b6000604082019050610dbb6000830185610c96565b8181036020830152610dcd8184610c4e565b90509392505050565b6000602082019050610deb6000830184610ca5565b92915050565b60006020820190508181036000830152610e0a81610cb4565b9050919050565b60006020820190508181036000830152610e2a81610cd7565b9050919050565b6000610120820190508181036000830152610e4b81610cfa565b90508181036020830152610e60818c8e610bc4565b9050610e6f604083018b610d1d565b610e7c606083018a610bb5565b8181036080830152610e8f81888a610c21565b9050610e9e60a0830187610bb5565b610eab60c0830186610bb5565b610eb860e0830185610d1d565b610ec6610100830184610b97565b9b9a5050505050505050505050565b6000819050919050565b600081519050919050565b6000602082019050919050565b600082825260208201905092915050565b600082825260208201905092915050565b600082825260208201905092915050565b6000610f3960208401846108cd565b905092915050565b6000610f4c82610f83565b9050919050565b6000610f5e82610f83565b9050919050565b60008115159050919050565b6000610f7c82610f41565b9050919050565b600073ffffffffffffffffffffffffffffffffffffffff82169050919050565b6000819050919050565b6000610fb882610fbf565b9050919050565b6000610fca82610f83565b9050919050565b6000610fdc82610fe3565b9050919050565b6000610fee82610f83565b9050919050565b600061100082611007565b9050919050565b600061101282610f83565b9050919050565b82818337600083830152505050565b60005b8381101561104657808201518184015260208101905061102b565b83811115611055576000848401525b50505050565b6000601f19601f8301169050919050565b7f476e6f7369735661756c742e73657453616665476e6f7369733a2053656e646560008201527f72206d757374206265206f70657261746f720000000000000000000000000000602082015250565b7f476e6f7369735661756c742e73657450726f7879466163746f72793a2053656e60008201527f646572206d757374206265206f70657261746f72000000000000000000000000602082015250565b7f736574757028616464726573735b5d2c75696e743235362c616464726573732c60008201527f62797465732c616464726573732c616464726573732c75696e743235362c616460208201527f6472657373290000000000000000000000000000000000000000000000000000604082015250565b61118881610f41565b811461119357600080fd5b50565b61119f81610f53565b81146111aa57600080fd5b50565b6111b681610f65565b81146111c157600080fd5b50565b6111cd81610f71565b81146111d857600080fd5b50565b6111e481610fa3565b81146111ef57600080fd5b5056fea26469706673582212207e40e76d17959b185482822dbc8d39cf99672b2f2f8a0123760c1528915022fa64736f6c63430008040033",
  "linkReferences": {},
  "deployedLinkReferences": {}
}