{
  "_format": "hh-sol-artifact-1",
  "contractName": "VaporMasterChef",
  "sourceName": "contracts/Farms/VaporMasterChef.sol",
  "abi": [
    {
      "anonymous": false,
      "inputs": [
        {
          "indexed": true,
          "internalType": "address",
          "name": "beneficiary",
          "type": "address"
        },
        {
          "indexed": true,
          "internalType": "address",
          "name": "caller",
          "type": "address"
        }
      ],
      "name": "AdminRoleGranted",
      "type": "event"
    },
    {
      "anonymous": false,
      "inputs": [
        {
          "indexed": true,
          "internalType": "address",
          "name": "beneficiary",
          "type": "address"
        },
        {
          "indexed": true,
          "internalType": "address",
          "name": "caller",
          "type": "address"
        }
      ],
      "name": "AdminRoleRemoved",
      "type": "event"
    },
    {
      "anonymous": false,
      "inputs": [
        {
          "indexed": true,
          "internalType": "address",
          "name": "user",
          "type": "address"
        },
        {
          "indexed": true,
          "internalType": "uint256",
          "name": "pid",
          "type": "uint256"
        },
        {
          "indexed": false,
          "internalType": "uint256",
          "name": "amount",
          "type": "uint256"
        }
      ],
      "name": "Deposit",
      "type": "event"
    },
    {
      "anonymous": false,
      "inputs": [
        {
          "indexed": true,
          "internalType": "address",
          "name": "user",
          "type": "address"
        },
        {
          "indexed": true,
          "internalType": "uint256",
          "name": "pid",
          "type": "uint256"
        },
        {
          "indexed": false,
          "internalType": "uint256",
          "name": "amount",
          "type": "uint256"
        }
      ],
      "name": "EmergencyWithdraw",
      "type": "event"
    },
    {
      "anonymous": false,
      "inputs": [
        {
          "indexed": true,
          "internalType": "address",
          "name": "beneficiary",
          "type": "address"
        },
        {
          "indexed": true,
          "internalType": "address",
          "name": "caller",
          "type": "address"
        }
      ],
      "name": "MinterRoleGranted",
      "type": "event"
    },
    {
      "anonymous": false,
      "inputs": [
        {
          "indexed": true,
          "internalType": "address",
          "name": "beneficiary",
          "type": "address"
        },
        {
          "indexed": true,
          "internalType": "address",
          "name": "caller",
          "type": "address"
        }
      ],
      "name": "MinterRoleRemoved",
      "type": "event"
    },
    {
      "anonymous": false,
      "inputs": [
        {
          "indexed": true,
          "internalType": "address",
          "name": "beneficiary",
          "type": "address"
        },
        {
          "indexed": true,
          "internalType": "address",
          "name": "caller",
          "type": "address"
        }
      ],
      "name": "OperatorRoleGranted",
      "type": "event"
    },
    {
      "anonymous": false,
      "inputs": [
        {
          "indexed": true,
          "internalType": "address",
          "name": "beneficiary",
          "type": "address"
        },
        {
          "indexed": true,
          "internalType": "address",
          "name": "caller",
          "type": "address"
        }
      ],
      "name": "OperatorRoleRemoved",
      "type": "event"
    },
    {
      "anonymous": false,
      "inputs": [
        {
          "indexed": true,
          "internalType": "bytes32",
          "name": "role",
          "type": "bytes32"
        },
        {
          "indexed": true,
          "internalType": "bytes32",
          "name": "previousAdminRole",
          "type": "bytes32"
        },
        {
          "indexed": true,
          "internalType": "bytes32",
          "name": "newAdminRole",
          "type": "bytes32"
        }
      ],
      "name": "RoleAdminChanged",
      "type": "event"
    },
    {
      "anonymous": false,
      "inputs": [
        {
          "indexed": true,
          "internalType": "bytes32",
          "name": "role",
          "type": "bytes32"
        },
        {
          "indexed": true,
          "internalType": "address",
          "name": "account",
          "type": "address"
        },
        {
          "indexed": true,
          "internalType": "address",
          "name": "sender",
          "type": "address"
        }
      ],
      "name": "RoleGranted",
      "type": "event"
    },
    {
      "anonymous": false,
      "inputs": [
        {
          "indexed": true,
          "internalType": "bytes32",
          "name": "role",
          "type": "bytes32"
        },
        {
          "indexed": true,
          "internalType": "address",
          "name": "account",
          "type": "address"
        },
        {
          "indexed": true,
          "internalType": "address",
          "name": "sender",
          "type": "address"
        }
      ],
      "name": "RoleRevoked",
      "type": "event"
    },
    {
      "anonymous": false,
      "inputs": [
        {
          "indexed": true,
          "internalType": "address",
          "name": "beneficiary",
          "type": "address"
        },
        {
          "indexed": true,
          "internalType": "address",
          "name": "caller",
          "type": "address"
        }
      ],
      "name": "SmartContractRoleGranted",
      "type": "event"
    },
    {
      "anonymous": false,
      "inputs": [
        {
          "indexed": true,
          "internalType": "address",
          "name": "beneficiary",
          "type": "address"
        },
        {
          "indexed": true,
          "internalType": "address",
          "name": "caller",
          "type": "address"
        }
      ],
      "name": "SmartContractRoleRemoved",
      "type": "event"
    },
    {
      "anonymous": false,
      "inputs": [
        {
          "indexed": true,
          "internalType": "address",
          "name": "user",
          "type": "address"
        },
        {
          "indexed": true,
          "internalType": "uint256",
          "name": "pid",
          "type": "uint256"
        },
        {
          "indexed": false,
          "internalType": "uint256",
          "name": "amount",
          "type": "uint256"
        }
      ],
      "name": "Withdraw",
      "type": "event"
    },
    {
      "inputs": [],
      "name": "DEFAULT_ADMIN_ROLE",
      "outputs": [
        {
          "internalType": "bytes32",
          "name": "",
          "type": "bytes32"
        }
      ],
      "stateMutability": "view",
      "type": "function"
    },
    {
      "inputs": [],
      "name": "MINTER_ROLE",
      "outputs": [
        {
          "internalType": "bytes32",
          "name": "",
          "type": "bytes32"
        }
      ],
      "stateMutability": "view",
      "type": "function"
    },
    {
      "inputs": [],
      "name": "OPERATOR_ROLE",
      "outputs": [
        {
          "internalType": "bytes32",
          "name": "",
          "type": "bytes32"
        }
      ],
      "stateMutability": "view",
      "type": "function"
    },
    {
      "inputs": [],
      "name": "SMART_CONTRACT_ROLE",
      "outputs": [
        {
          "internalType": "bytes32",
          "name": "",
          "type": "bytes32"
        }
      ],
      "stateMutability": "view",
      "type": "function"
    },
    {
      "inputs": [
        {
          "internalType": "address",
          "name": "_address",
          "type": "address"
        }
      ],
      "name": "addAdminRole",
      "outputs": [],
      "stateMutability": "nonpayable",
      "type": "function"
    },
    {
      "inputs": [
        {
          "internalType": "address",
          "name": "_address",
          "type": "address"
        }
      ],
      "name": "addMinterRole",
      "outputs": [],
      "stateMutability": "nonpayable",
      "type": "function"
    },
    {
      "inputs": [
        {
          "internalType": "address",
          "name": "_address",
          "type": "address"
        }
      ],
      "name": "addOperatorRole",
      "outputs": [],
      "stateMutability": "nonpayable",
      "type": "function"
    },
    {
      "inputs": [
        {
          "internalType": "address",
          "name": "_address",
          "type": "address"
        }
      ],
      "name": "addSmartContractRole",
      "outputs": [],
      "stateMutability": "nonpayable",
      "type": "function"
    },
    {
      "inputs": [
        {
          "internalType": "uint256",
          "name": "_allocPoint",
          "type": "uint256"
        },
        {
          "internalType": "contract IERC20",
          "name": "_lpToken",
          "type": "address"
        },
        {
          "internalType": "bool",
          "name": "_withUpdate",
          "type": "bool"
        }
      ],
      "name": "addToken",
      "outputs": [],
      "stateMutability": "nonpayable",
      "type": "function"
    },
    {
      "inputs": [],
      "name": "blocksRemaining",
      "outputs": [
        {
          "internalType": "uint256",
          "name": "",
          "type": "uint256"
        }
      ],
      "stateMutability": "view",
      "type": "function"
    },
    {
      "inputs": [],
      "name": "bonusEndBlock",
      "outputs": [
        {
          "internalType": "uint256",
          "name": "",
          "type": "uint256"
        }
      ],
      "stateMutability": "view",
      "type": "function"
    },
    {
      "inputs": [],
      "name": "bonusMultiplier",
      "outputs": [
        {
          "internalType": "uint256",
          "name": "",
          "type": "uint256"
        }
      ],
      "stateMutability": "view",
      "type": "function"
    },
    {
      "inputs": [],
      "name": "claimTips",
      "outputs": [],
      "stateMutability": "nonpayable",
      "type": "function"
    },
    {
      "inputs": [
        {
          "internalType": "uint256",
          "name": "_pid",
          "type": "uint256"
        },
        {
          "internalType": "uint256",
          "name": "_amount",
          "type": "uint256"
        }
      ],
      "name": "deposit",
      "outputs": [],
      "stateMutability": "nonpayable",
      "type": "function"
    },
    {
      "inputs": [
        {
          "internalType": "address",
          "name": "_devaddr",
          "type": "address"
        }
      ],
      "name": "dev",
      "outputs": [],
      "stateMutability": "nonpayable",
      "type": "function"
    },
    {
      "inputs": [],
      "name": "devPercentage",
      "outputs": [
        {
          "internalType": "uint256",
          "name": "",
          "type": "uint256"
        }
      ],
      "stateMutability": "view",
      "type": "function"
    },
    {
      "inputs": [],
      "name": "devaddr",
      "outputs": [
        {
          "internalType": "address",
          "name": "",
          "type": "address"
        }
      ],
      "stateMutability": "view",
      "type": "function"
    },
    {
      "inputs": [
        {
          "internalType": "uint256",
          "name": "_pid",
          "type": "uint256"
        }
      ],
      "name": "emergencyWithdraw",
      "outputs": [],
      "stateMutability": "nonpayable",
      "type": "function"
    },
    {
      "inputs": [],
      "name": "farmTemplate",
      "outputs": [
        {
          "internalType": "uint256",
          "name": "",
          "type": "uint256"
        }
      ],
      "stateMutability": "view",
      "type": "function"
    },
    {
      "inputs": [
        {
          "internalType": "address",
          "name": "_rewards",
          "type": "address"
        },
        {
          "internalType": "uint256",
          "name": "_rewardsPerBlock",
          "type": "uint256"
        },
        {
          "internalType": "uint256",
          "name": "_startBlock",
          "type": "uint256"
        },
        {
          "internalType": "address",
          "name": "_divaddr",
          "type": "address"
        },
        {
          "internalType": "address",
          "name": "_accessControls",
          "type": "address"
        }
      ],
      "name": "getInitData",
      "outputs": [
        {
          "internalType": "bytes",
          "name": "_data",
          "type": "bytes"
        }
      ],
      "stateMutability": "pure",
      "type": "function"
    },
    {
      "inputs": [
        {
          "internalType": "uint256",
          "name": "_from",
          "type": "uint256"
        },
        {
          "internalType": "uint256",
          "name": "_to",
          "type": "uint256"
        }
      ],
      "name": "getMultiplier",
      "outputs": [
        {
          "internalType": "uint256",
          "name": "",
          "type": "uint256"
        }
      ],
      "stateMutability": "view",
      "type": "function"
    },
    {
      "inputs": [
        {
          "internalType": "bytes32",
          "name": "role",
          "type": "bytes32"
        }
      ],
      "name": "getRoleAdmin",
      "outputs": [
        {
          "internalType": "bytes32",
          "name": "",
          "type": "bytes32"
        }
      ],
      "stateMutability": "view",
      "type": "function"
    },
    {
      "inputs": [
        {
          "internalType": "bytes32",
          "name": "role",
          "type": "bytes32"
        },
        {
          "internalType": "uint256",
          "name": "index",
          "type": "uint256"
        }
      ],
      "name": "getRoleMember",
      "outputs": [
        {
          "internalType": "address",
          "name": "",
          "type": "address"
        }
      ],
      "stateMutability": "view",
      "type": "function"
    },
    {
      "inputs": [
        {
          "internalType": "bytes32",
          "name": "role",
          "type": "bytes32"
        }
      ],
      "name": "getRoleMemberCount",
      "outputs": [
        {
          "internalType": "uint256",
          "name": "",
          "type": "uint256"
        }
      ],
      "stateMutability": "view",
      "type": "function"
    },
    {
      "inputs": [
        {
          "internalType": "bytes32",
          "name": "role",
          "type": "bytes32"
        },
        {
          "internalType": "address",
          "name": "account",
          "type": "address"
        }
      ],
      "name": "grantRole",
      "outputs": [],
      "stateMutability": "nonpayable",
      "type": "function"
    },
    {
      "inputs": [
        {
          "internalType": "address",
          "name": "_address",
          "type": "address"
        }
      ],
      "name": "hasAdminRole",
      "outputs": [
        {
          "internalType": "bool",
          "name": "",
          "type": "bool"
        }
      ],
      "stateMutability": "view",
      "type": "function"
    },
    {
      "inputs": [
        {
          "internalType": "address",
          "name": "_address",
          "type": "address"
        }
      ],
      "name": "hasMinterRole",
      "outputs": [
        {
          "internalType": "bool",
          "name": "",
          "type": "bool"
        }
      ],
      "stateMutability": "view",
      "type": "function"
    },
    {
      "inputs": [
        {
          "internalType": "address",
          "name": "_address",
          "type": "address"
        }
      ],
      "name": "hasOperatorRole",
      "outputs": [
        {
          "internalType": "bool",
          "name": "",
          "type": "bool"
        }
      ],
      "stateMutability": "view",
      "type": "function"
    },
    {
      "inputs": [
        {
          "internalType": "bytes32",
          "name": "role",
          "type": "bytes32"
        },
        {
          "internalType": "address",
          "name": "account",
          "type": "address"
        }
      ],
      "name": "hasRole",
      "outputs": [
        {
          "internalType": "bool",
          "name": "",
          "type": "bool"
        }
      ],
      "stateMutability": "view",
      "type": "function"
    },
    {
      "inputs": [
        {
          "internalType": "address",
          "name": "_address",
          "type": "address"
        }
      ],
      "name": "hasSmartContractRole",
      "outputs": [
        {
          "internalType": "bool",
          "name": "",
          "type": "bool"
        }
      ],
      "stateMutability": "view",
      "type": "function"
    },
    {
      "inputs": [
        {
          "internalType": "address",
          "name": "_admin",
          "type": "address"
        }
      ],
      "name": "initAccessControls",
      "outputs": [],
      "stateMutability": "nonpayable",
      "type": "function"
    },
    {
      "inputs": [
        {
          "internalType": "address",
          "name": "_rewards",
          "type": "address"
        },
        {
          "internalType": "uint256",
          "name": "_rewardsPerBlock",
          "type": "uint256"
        },
        {
          "internalType": "uint256",
          "name": "_startBlock",
          "type": "uint256"
        },
        {
          "internalType": "address",
          "name": "_devaddr",
          "type": "address"
        },
        {
          "internalType": "address",
          "name": "_admin",
          "type": "address"
        }
      ],
      "name": "initFarm",
      "outputs": [],
      "stateMutability": "nonpayable",
      "type": "function"
    },
    {
      "inputs": [
        {
          "internalType": "bytes",
          "name": "_data",
          "type": "bytes"
        }
      ],
      "name": "initFarm",
      "outputs": [],
      "stateMutability": "nonpayable",
      "type": "function"
    },
    {
      "inputs": [],
      "name": "massUpdatePools",
      "outputs": [],
      "stateMutability": "nonpayable",
      "type": "function"
    },
    {
      "inputs": [
        {
          "internalType": "uint256",
          "name": "_pid",
          "type": "uint256"
        },
        {
          "internalType": "address",
          "name": "_user",
          "type": "address"
        }
      ],
      "name": "pendingRewards",
      "outputs": [
        {
          "internalType": "uint256",
          "name": "",
          "type": "uint256"
        }
      ],
      "stateMutability": "view",
      "type": "function"
    },
    {
      "inputs": [
        {
          "internalType": "uint256",
          "name": "",
          "type": "uint256"
        }
      ],
      "name": "poolInfo",
      "outputs": [
        {
          "internalType": "contract IERC20",
          "name": "lpToken",
          "type": "address"
        },
        {
          "internalType": "uint256",
          "name": "allocPoint",
          "type": "uint256"
        },
        {
          "internalType": "uint256",
          "name": "lastRewardBlock",
          "type": "uint256"
        },
        {
          "internalType": "uint256",
          "name": "accRewardsPerShare",
          "type": "uint256"
        }
      ],
      "stateMutability": "view",
      "type": "function"
    },
    {
      "inputs": [],
      "name": "poolLength",
      "outputs": [
        {
          "internalType": "uint256",
          "name": "",
          "type": "uint256"
        }
      ],
      "stateMutability": "view",
      "type": "function"
    },
    {
      "inputs": [
        {
          "internalType": "address",
          "name": "_address",
          "type": "address"
        }
      ],
      "name": "removeAdminRole",
      "outputs": [],
      "stateMutability": "nonpayable",
      "type": "function"
    },
    {
      "inputs": [
        {
          "internalType": "address",
          "name": "_address",
          "type": "address"
        }
      ],
      "name": "removeMinterRole",
      "outputs": [],
      "stateMutability": "nonpayable",
      "type": "function"
    },
    {
      "inputs": [
        {
          "internalType": "address",
          "name": "_address",
          "type": "address"
        }
      ],
      "name": "removeOperatorRole",
      "outputs": [],
      "stateMutability": "nonpayable",
      "type": "function"
    },
    {
      "inputs": [
        {
          "internalType": "address",
          "name": "_address",
          "type": "address"
        }
      ],
      "name": "removeSmartContractRole",
      "outputs": [],
      "stateMutability": "nonpayable",
      "type": "function"
    },
    {
      "inputs": [
        {
          "internalType": "bytes32",
          "name": "role",
          "type": "bytes32"
        },
        {
          "internalType": "address",
          "name": "account",
          "type": "address"
        }
      ],
      "name": "renounceRole",
      "outputs": [],
      "stateMutability": "nonpayable",
      "type": "function"
    },
    {
      "inputs": [
        {
          "internalType": "bytes32",
          "name": "role",
          "type": "bytes32"
        },
        {
          "internalType": "address",
          "name": "account",
          "type": "address"
        }
      ],
      "name": "revokeRole",
      "outputs": [],
      "stateMutability": "nonpayable",
      "type": "function"
    },
    {
      "inputs": [],
      "name": "rewards",
      "outputs": [
        {
          "internalType": "contract IERC20",
          "name": "",
          "type": "address"
        }
      ],
      "stateMutability": "view",
      "type": "function"
    },
    {
      "inputs": [],
      "name": "rewardsPerBlock",
      "outputs": [
        {
          "internalType": "uint256",
          "name": "",
          "type": "uint256"
        }
      ],
      "stateMutability": "view",
      "type": "function"
    },
    {
      "inputs": [
        {
          "internalType": "uint256",
          "name": "_pid",
          "type": "uint256"
        },
        {
          "internalType": "uint256",
          "name": "_allocPoint",
          "type": "uint256"
        },
        {
          "internalType": "bool",
          "name": "_withUpdate",
          "type": "bool"
        }
      ],
      "name": "set",
      "outputs": [],
      "stateMutability": "nonpayable",
      "type": "function"
    },
    {
      "inputs": [
        {
          "internalType": "uint256",
          "name": "_bonusEndBlock",
          "type": "uint256"
        },
        {
          "internalType": "uint256",
          "name": "_bonusMultiplier",
          "type": "uint256"
        }
      ],
      "name": "setBonus",
      "outputs": [],
      "stateMutability": "nonpayable",
      "type": "function"
    },
    {
      "inputs": [
        {
          "internalType": "uint256",
          "name": "_devPercentage",
          "type": "uint256"
        }
      ],
      "name": "setDevPercentage",
      "outputs": [],
      "stateMutability": "nonpayable",
      "type": "function"
    },
    {
      "inputs": [],
      "name": "startBlock",
      "outputs": [
        {
          "internalType": "uint256",
          "name": "",
          "type": "uint256"
        }
      ],
      "stateMutability": "view",
      "type": "function"
    },
    {
      "inputs": [],
      "name": "tips",
      "outputs": [
        {
          "internalType": "uint256",
          "name": "",
          "type": "uint256"
        }
      ],
      "stateMutability": "view",
      "type": "function"
    },
    {
      "inputs": [],
      "name": "tokenDebt",
      "outputs": [
        {
          "internalType": "uint256",
          "name": "",
          "type": "uint256"
        }
      ],
      "stateMutability": "view",
      "type": "function"
    },
    {
      "inputs": [],
      "name": "tokensRemaining",
      "outputs": [
        {
          "internalType": "uint256",
          "name": "",
          "type": "uint256"
        }
      ],
      "stateMutability": "view",
      "type": "function"
    },
    {
      "inputs": [],
      "name": "totalAllocPoint",
      "outputs": [
        {
          "internalType": "uint256",
          "name": "",
          "type": "uint256"
        }
      ],
      "stateMutability": "view",
      "type": "function"
    },
    {
      "inputs": [],
      "name": "totalRewardDebt",
      "outputs": [
        {
          "internalType": "uint256",
          "name": "",
          "type": "uint256"
        }
      ],
      "stateMutability": "view",
      "type": "function"
    },
    {
      "inputs": [
        {
          "internalType": "uint256",
          "name": "_pid",
          "type": "uint256"
        }
      ],
      "name": "updatePool",
      "outputs": [],
      "stateMutability": "nonpayable",
      "type": "function"
    },
    {
      "inputs": [
        {
          "internalType": "uint256",
          "name": "",
          "type": "uint256"
        },
        {
          "internalType": "address",
          "name": "",
          "type": "address"
        }
      ],
      "name": "userInfo",
      "outputs": [
        {
          "internalType": "uint256",
          "name": "amount",
          "type": "uint256"
        },
        {
          "internalType": "uint256",
          "name": "rewardDebt",
          "type": "uint256"
        }
      ],
      "stateMutability": "view",
      "type": "function"
    },
    {
      "inputs": [
        {
          "internalType": "uint256",
          "name": "_pid",
          "type": "uint256"
        },
        {
          "internalType": "uint256",
          "name": "_amount",
          "type": "uint256"
        }
      ],
      "name": "withdraw",
      "outputs": [],
      "stateMutability": "nonpayable",
      "type": "function"
    }
  ],
  "bytecode": "0x608060405234801561001057600080fd5b506128e4806100206000396000f3fe608060405234801561001057600080fd5b50600436106103835760003560e01c8063857d2608116101de578063c395fcb31161010f578063d5391393116100ad578063e2bbb1581161007c578063e2bbb158146107fa578063e6594abd1461080d578063f5b541a614610820578063fc4e3e0a1461084757600080fd5b8063d53913931461079a578063d547741f146107c1578063d69de7e7146107d4578063dccfe310146107e757600080fd5b8063ca15c873116100e9578063ca15c87314610759578063d08635801461076c578063d18df53c14610774578063d49e77cd1461078757600080fd5b8063c395fcb314610735578063c3a4382414610748578063c8b081251461075157600080fd5b80639478941c1161017c578063a8b973a111610156578063a8b973a11461069c578063adbf3776146106a5578063b7928b1d146106b8578063bd7aef24146106cb57600080fd5b80639478941c146106695780639ec5a8941461067c578063a217fddf1461069457600080fd5b80638dbb1e3a116101b85780638dbb1e3a146105d15780639010d07c146105e457806391d148541461060f57806393f1a40b1461062257600080fd5b8063857d2608146105845780638a845fc0146105ab5780638d88a90e146105be57600080fd5b806336568abe116102b85780635befdbca1161025657806364482f791161023057806364482f79146105425780636595171c14610555578063824fa8211461056857806383bb38771461057b57600080fd5b80635befdbca1461051e5780635eeb671014610531578063630b5ba11461053a57600080fd5b806348cd4cb11161029257806348cd4cb1146104dc57806351eb05a6146104e55780635312ea8e146104f857806354f1e1261461050b57600080fd5b806336568abe146104a35780633f16431a146104b6578063441a3e70146104c957600080fd5b806317caf6f111610325578063248a9ca3116102ff578063248a9ca3146104525780632c77f656146104755780632f2ff15d1461047d5780632f4a7e511461049057600080fd5b806317caf6f1146104375780631a4e1e78146104405780631aed65531461044957600080fd5b8063099db01711610361578063099db017146103bc578063113b0ab2146103df5780631526fe27146103f2578063158cb2741461042f57600080fd5b8063037c99b01461038857806306af3dfd1461039d578063081e3eda146103a5575b600080fd5b61039b610396366004612651565b61085a565b005b61039b6108d1565b600a545b6040519081526020015b60405180910390f35b6103cf6103ca366004612574565b61098b565b60405190151581526020016103b3565b6103cf6103ed366004612574565b6109bd565b61040561040036600461260a565b6109e9565b604080516001600160a01b03909516855260208501939093529183015260608201526080016103b3565b6103a9610a2d565b6103a9600c5481565b6103a960045481565b6103a960055481565b6103a961046036600461260a565b60009081526020819052604090206002015490565b6103a9600181565b61039b61048b366004612622565b610a4b565b61039b61049e36600461260a565b610ae7565b61039b6104b1366004612622565b610b32565b61039b6104c4366004612574565b610bba565b61039b6104d7366004612651565b610c1d565b6103a9600d5481565b61039b6104f336600461260a565b610da6565b61039b61050636600461260a565b610f2e565b61039b610519366004612574565b610fdf565b61039b61052c366004612590565b611042565b6103a960065481565b61039b6110e1565b61039b610550366004612738565b611108565b61039b610563366004612574565b611223565b61039b610576366004612672565b611267565b6103a960085481565b6103a97f9d49f397ae9ef1a834b569acb967799a367061e305932181a44f5773da873bfd81565b61039b6105b9366004612574565b611299565b61039b6105cc366004612574565b6112fc565b6103a96105df366004612651565b611371565b6105f76105f2366004612651565b61140d565b6040516001600160a01b0390911681526020016103b3565b6103cf61061d366004612622565b61142c565b610654610630366004612622565b600b6020908152600092835260408084209091529082529020805460019091015482565b604080519283526020830191909152016103b3565b61039b610677366004612574565b611444565b6001546105f79061010090046001600160a01b031681565b6103a9600081565b6103a960075481565b61039b6106b3366004612574565b6114a7565b61039b6106c6366004612574565b61150a565b6107286106d9366004612590565b604080516001600160a01b0380881660208301529181018690526060818101869052828516608083015291831660a082015260c001604051602081830303815290604052905095945050505050565b6040516103b391906127ad565b6103cf610743366004612574565b61156d565b6103a960035481565b6103a9611579565b6103a961076736600461260a565b6115fa565b6103a9611611565b6103a9610782366004612622565b611693565b6002546105f7906001600160a01b031681565b6103a97f9f2df0fed2c77648de5860a4cc508cd0818c85b8b8a1ab4ceeef8d981c8956a681565b61039b6107cf366004612622565b61180d565b61039b6107e23660046126f7565b61189b565b61039b6107f5366004612574565b611a32565b61039b610808366004612651565b611a76565b61039b61081b366004612574565b611ba3565b6103a97f97667070c54ef182b0f5858b034beac1b6f3089aa2d3188bb1e8929f4fa9b92981565b6103cf610855366004612574565b611c10565b6108633361156d565b6108c65760405162461bcd60e51b815260206004820152602960248201527f4d6173746572436865662e736574426f6e75733a2053656e646572206d7573746044820152681031329030b236b4b760b91b60648201526084015b60405180910390fd5b600591909155600755565b6002546001600160a01b031633146109175760405162461bcd60e51b81526020600482015260096024820152686465763a207775743f60b81b60448201526064016108bd565b6000600454116109695760405162461bcd60e51b815260206004820152600a60248201527f6465763a2062726f6b650000000000000000000000000000000000000000000060448201526064016108bd565b600480546000909155600254610988906001600160a01b031682611c3c565b50565b60006109b77f9f2df0fed2c77648de5860a4cc508cd0818c85b8b8a1ab4ceeef8d981c8956a68361142c565b92915050565b60006109b77f9d49f397ae9ef1a834b569acb967799a367061e305932181a44f5773da873bfd8361142c565b600a81815481106109f957600080fd5b600091825260209091206004909102018054600182015460028301546003909301546001600160a01b039092169350919084565b6000610a46600454600854611d0490919063ffffffff16565b905090565b600082815260208190526040902060020154610a67903361142c565b610ad95760405162461bcd60e51b815260206004820152602f60248201527f416363657373436f6e74726f6c3a2073656e646572206d75737420626520616e60448201527f2061646d696e20746f206772616e74000000000000000000000000000000000060648201526084016108bd565b610ae38282611d63565b5050565b6002546001600160a01b03163314610b2d5760405162461bcd60e51b81526020600482015260096024820152686465763a207775743f60b81b60448201526064016108bd565b600355565b6001600160a01b0381163314610bb05760405162461bcd60e51b815260206004820152602f60248201527f416363657373436f6e74726f6c3a2063616e206f6e6c792072656e6f756e636560448201527f20726f6c657320666f722073656c66000000000000000000000000000000000060648201526084016108bd565b610ae38282611dbc565b610be47f9d49f397ae9ef1a834b569acb967799a367061e305932181a44f5773da873bfd82610a4b565b60405133906001600160a01b038316907f1d5f9ec24c6f91be922ea13ceaad919ad6554a41b5c26087f96289a9baf98ad290600090a350565b6000600a8381548110610c4057634e487b7160e01b600052603260045260246000fd5b60009182526020808320868452600b825260408085203386529092529220805460049092029092019250831115610cb95760405162461bcd60e51b815260206004820152601260248201527f77697468647261773a206e6f7420676f6f64000000000000000000000000000060448201526064016108bd565b610cc284610da6565b6000610cfc8260010154610cf664e8d4a51000610cf087600301548760000154611e1590919063ffffffff16565b90611eb0565b90611f0b565b90508015610d1e57600854610d119082611f0b565b600855610d1e3382611c3c565b8315610d48578154610d309085611f0b565b82558254610d48906001600160a01b03163386611f67565b60038301548254610d639164e8d4a5100091610cf091611e15565b6001830155604051848152859033907ff279e6a1f5e320cca91135676d9cb6e44ca8a08c0b88342bcdb1144f6511b5689060200160405180910390a35050505050565b6000600a8281548110610dc957634e487b7160e01b600052603260045260246000fd5b9060005260206000209060040201905080600201544311610de8575050565b80546040516370a0823160e01b81523060048201526000916001600160a01b0316906370a082319060240160206040518083038186803b158015610e2b57600080fd5b505afa158015610e3f573d6000803e3d6000fd5b505050506040513d601f19601f82011682018060405250810190610e6391906126df565b905080610e7557504360029091015550565b6000610e85836002015443611371565b90506000610eb2600c54610cf08660010154610eac60065487611e1590919063ffffffff16565b90611e15565b60035490915015610ee857610ee4610edb6103e8610cf060035485611e1590919063ffffffff16565b60045490611d04565b6004555b600854610ef59082611d04565b600855610f19610f0e84610cf08464e8d4a51000611e15565b600386015490611d04565b60038501555050436002909201919091555050565b6000600a8281548110610f5157634e487b7160e01b600052603260045260246000fd5b60009182526020808320858452600b825260408085203380875293528420805485825560018201959095556004909302018054909450919291610fa1916001600160a01b03919091169083611f67565b604051818152849033907fbb757047c2b5f3974fe26b7c10f732e7bce710b0952a71082702781e62ae0595906020015b60405180910390a350505050565b6110097f9f2df0fed2c77648de5860a4cc508cd0818c85b8b8a1ab4ceeef8d981c8956a68261180d565b60405133906001600160a01b038316907f56692a161ffec953ddf9def93b958ea8d1ec95e21b80870c66be91a4374dc4e390600090a350565b60095460ff161561105257600080fd5b600180547fffffffffffffffffffffff0000000000000000000000000000000000000000ff166101006001600160a01b0388811691909102919091179091556000600c556006859055600d8490556002805473ffffffffffffffffffffffffffffffffffffffff19169184169190911790556110cd81611ba3565b50506009805460ff19166001179055505050565b600a5460005b81811015610ae3576110f881610da6565b6111018161285a565b90506110e7565b61111133611c10565b6111825760405162461bcd60e51b8152602060048201526024808201527f4d6173746572436865662e7365743a2053656e646572206d757374206265206160448201527f646d696e0000000000000000000000000000000000000000000000000000000060648201526084016108bd565b8015611190576111906110e1565b6111e1826111db600a86815481106111b857634e487b7160e01b600052603260045260246000fd5b906000526020600020906004020160010154600c54611f0b90919063ffffffff16565b90611d04565b600c8190555081600a848154811061120957634e487b7160e01b600052603260045260246000fd5b906000526020600020906004020160010181905550505050565b61122e600082610a4b565b60405133906001600160a01b038316907f2570ac42fd8b322dc453ada624dc2ed0e9bdd67f16f201a25bbd30468f2aa18790600090a350565b60008080808061127986880188612590565b945094509450945094506112908585858585611042565b50505050505050565b6112c37f9d49f397ae9ef1a834b569acb967799a367061e305932181a44f5773da873bfd8261180d565b60405133906001600160a01b038316907fe5f1aa9e528307345194b88b24a32401c13926e0823060f1049d9b26c0bb62b290600090a350565b6002546001600160a01b031633146113425760405162461bcd60e51b81526020600482015260096024820152686465763a207775743f60b81b60448201526064016108bd565b6002805473ffffffffffffffffffffffffffffffffffffffff19166001600160a01b0392909216919091179055565b60008061137c611611565b9050600081611390576000925050506109b7565b60055484116113b1576007546113aa90610eac8688611f0b565b90506113fa565b60055485106113c4576113aa8486611f0b565b6113f76113dc60055486611f0b90919063ffffffff16565b6111db600754610eac89600554611f0b90919063ffffffff16565b90505b818111156114055750805b949350505050565b60008281526020819052604081206114259083611fd6565b9392505050565b60008281526020819052604081206114259083611fe2565b61146e7f97667070c54ef182b0f5858b034beac1b6f3089aa2d3188bb1e8929f4fa9b9298261180d565b60405133906001600160a01b038316907f70b25138b6fadeb9992d18b9653564271823e34b3e3257515d12a6d4b15fcddf90600090a350565b6114d17f9f2df0fed2c77648de5860a4cc508cd0818c85b8b8a1ab4ceeef8d981c8956a682610a4b565b60405133906001600160a01b038316907f0be6ab9784c7401fafb73f7bc47bc67cc4ef8c47a60ad3cb66d1de0353a0784c90600090a350565b6115347f97667070c54ef182b0f5858b034beac1b6f3089aa2d3188bb1e8929f4fa9b92982610a4b565b60405133906001600160a01b038316907f2d45ee102874989882745a26688d0b4fffee125a18df26536b12582c7fde4e1790600090a350565b60006109b7818361142c565b6001546040516370a0823160e01b815230600482015260009161010090046001600160a01b0316906370a082319060240160206040518083038186803b1580156115c257600080fd5b505afa1580156115d6573d6000803e3d6000fd5b505050506040513d601f19601f82011682018060405250810190610a4691906126df565b60008181526020819052604081206109b790612004565b600061161b610a2d565b611623611579565b1161162e5750600090565b600061164361163b610a2d565b610cf6611579565b6006549091501561168b57600354156116785760035461167590611669906103e8611d04565b610cf0836103e8611e15565b90505b60065461168590826127d8565b91505090565b600091505090565b600080600a84815481106116b757634e487b7160e01b600052603260045260246000fd5b60009182526020808320878452600b825260408085206001600160a01b038981168752935280852060049485029092016003810154815492516370a0823160e01b8152309681019690965290965091949193919216906370a082319060240160206040518083038186803b15801561172e57600080fd5b505afa158015611742573d6000803e3d6000fd5b505050506040513d601f19601f8201168201806040525081019061176691906126df565b905083600201544311801561177a57508015155b156117da57600061178f856002015443611371565b905060006117b6600c54610cf08860010154610eac60065487611e1590919063ffffffff16565b90506117d56117ce84610cf08464e8d4a51000611e15565b8590611d04565b935050505b6118028360010154610cf664e8d4a51000610cf0868860000154611e1590919063ffffffff16565b979650505050505050565b600082815260208190526040902060020154611829903361142c565b610bb05760405162461bcd60e51b815260206004820152603060248201527f416363657373436f6e74726f6c3a2073656e646572206d75737420626520616e60448201527f2061646d696e20746f207265766f6b650000000000000000000000000000000060648201526084016108bd565b6118a43361156d565b6119025760405162461bcd60e51b815260206004820152602960248201527f4d6173746572436865662e616464546f6b656e3a2053656e646572206d7573746044820152681031329030b236b4b760b91b60648201526084016108bd565b8015611910576119106110e1565b6000600d54431161192357600d54611925565b435b600c549091506119359085611d04565b600c55604080516080810182526001600160a01b03948516815260208101958652908101918252600060608201818152600a8054600181018255925291517fc65a7bb8d6351c1cf70c95a316cc6a92839c986682d98bc35f958f4883f9d2a86004909202918201805473ffffffffffffffffffffffffffffffffffffffff1916919096161790945593517fc65a7bb8d6351c1cf70c95a316cc6a92839c986682d98bc35f958f4883f9d2a9840155517fc65a7bb8d6351c1cf70c95a316cc6a92839c986682d98bc35f958f4883f9d2aa8301555090517fc65a7bb8d6351c1cf70c95a316cc6a92839c986682d98bc35f958f4883f9d2ab90910155565b611a3d60008261180d565b60405133906001600160a01b038316907f21ba1239795d4e22874e3dc55f0a9d7b65bfb23069d32965d7c23be9524ccf9590600090a350565b6000600a8381548110611a9957634e487b7160e01b600052603260045260246000fd5b60009182526020808320868452600b82526040808520338652909252922060049091029091019150611aca84610da6565b805415611b23576000611aff8260010154610cf664e8d4a51000610cf087600301548760000154611e1590919063ffffffff16565b90508015611b2157600854611b149082611f0b565b600855611b213382611c3c565b505b8215611b4f578154611b40906001600160a01b031633308661200e565b8054611b4c9084611d04565b81555b60038201548154611b6a9164e8d4a5100091610cf091611e15565b6001820155604051838152849033907f90890809c654f11d6e72a28fa60149770a0d11ec6c92319d6ceb2bb0a4ea1a1590602001610fd1565b60015460ff1615611bf65760405162461bcd60e51b815260206004820152601360248201527f416c726561647920696e697469616c697365640000000000000000000000000060448201526064016108bd565b611c01600082610ad9565b506001805460ff191681179055565b60006109b77f97667070c54ef182b0f5858b034beac1b6f3089aa2d3188bb1e8929f4fa9b9298361142c565b6001546040516370a0823160e01b815230600482015260009161010090046001600160a01b0316906370a082319060240160206040518083038186803b158015611c8557600080fd5b505afa158015611c99573d6000803e3d6000fd5b505050506040513d601f19601f82011682018060405250810190611cbd91906126df565b905080821115611ce857600154611ce39061010090046001600160a01b03168483612049565b505050565b600154611ce39061010090046001600160a01b03168484612049565b600080611d1183856127c0565b9050838110156114255760405162461bcd60e51b815260206004820152601b60248201527f536166654d6174683a206164646974696f6e206f766572666c6f77000000000060448201526064016108bd565b6000828152602081905260409020611d7b908261214f565b15610ae35760405133906001600160a01b0383169084907f2f8788117e7eff1d82e926ec794901d17c78024a50270940304540a733656f0d90600090a45050565b6000828152602081905260409020611dd49082612164565b15610ae35760405133906001600160a01b0383169084907ff6391f5c32d9c69d2a47ea670b442974b53935d1edc7fd64eb21e047a839171b90600090a45050565b600082611e24575060006109b7565b6000611e3083856127f8565b905082611e3d85836127d8565b146114255760405162461bcd60e51b815260206004820152602160248201527f536166654d6174683a206d756c7469706c69636174696f6e206f766572666c6f60448201527f770000000000000000000000000000000000000000000000000000000000000060648201526084016108bd565b6000808211611f015760405162461bcd60e51b815260206004820152601a60248201527f536166654d6174683a206469766973696f6e206279207a65726f00000000000060448201526064016108bd565b61142582846127d8565b600082821115611f5d5760405162461bcd60e51b815260206004820152601e60248201527f536166654d6174683a207375627472616374696f6e206f766572666c6f77000060448201526064016108bd565b6114258284612817565b6040516001600160a01b038316602482015260448101829052611ce390849063a9059cbb906064015b6040516020818303038152906040529060e01b6020820180517bffffffffffffffffffffffffffffffffffffffffffffffffffffffff8381831617835250505050612179565b6000611425838361225e565b6001600160a01b03811660009081526001830160205260408120541515611425565b60006109b7825490565b6040516001600160a01b03808516602483015283166044820152606481018290526120439085906323b872dd90608401611f90565b50505050565b604080516001600160a01b038481166024830152604480830185905283518084039091018152606490920183526020820180517bffffffffffffffffffffffffffffffffffffffffffffffffffffffff167fa9059cbb0000000000000000000000000000000000000000000000000000000017905291516000928392908716916120d39190612791565b6000604051808303816000865af19150503d8060008114612110576040519150601f19603f3d011682016040523d82523d6000602084013e612115565b606091505b509150915081801561213f57508051158061213f57508080602001905181019061213f91906125ee565b61214857600080fd5b5050505050565b6000611425836001600160a01b03841661230d565b6000611425836001600160a01b03841661235c565b60006121ce826040518060400160405280602081526020017f5361666545524332303a206c6f772d6c6576656c2063616c6c206661696c6564815250856001600160a01b03166124799092919063ffffffff16565b805190915015611ce357808060200190518101906121ec91906125ee565b611ce35760405162461bcd60e51b815260206004820152602a60248201527f5361666545524332303a204552433230206f7065726174696f6e20646964206e60448201527f6f7420737563636565640000000000000000000000000000000000000000000060648201526084016108bd565b815460009082106122d75760405162461bcd60e51b815260206004820152602260248201527f456e756d657261626c655365743a20696e646578206f7574206f6620626f756e60448201527f647300000000000000000000000000000000000000000000000000000000000060648201526084016108bd565b8260000182815481106122fa57634e487b7160e01b600052603260045260246000fd5b9060005260206000200154905092915050565b6000818152600183016020526040812054612354575081546001818101845560008481526020808220909301849055845484825282860190935260409020919091556109b7565b5060006109b7565b6000818152600183016020526040812054801561246f576000612380600183612817565b855490915060009061239490600190612817565b905060008660000182815481106123bb57634e487b7160e01b600052603260045260246000fd5b90600052602060002001549050808760000184815481106123ec57634e487b7160e01b600052603260045260246000fd5b6000918252602090912001556124038360016127c0565b6000828152600189016020526040902055865487908061243357634e487b7160e01b600052603160045260246000fd5b600190038181906000526020600020016000905590558660010160008781526020019081526020016000206000905560019450505050506109b7565b60009150506109b7565b6060611405848460008585843b6124d25760405162461bcd60e51b815260206004820152601d60248201527f416464726573733a2063616c6c20746f206e6f6e2d636f6e747261637400000060448201526064016108bd565b600080866001600160a01b031685876040516124ee9190612791565b60006040518083038185875af1925050503d806000811461252b576040519150601f19603f3d011682016040523d82523d6000602084013e612530565b606091505b50915091506118028282866060831561254a575081611425565b82511561255a5782518084602001fd5b8160405162461bcd60e51b81526004016108bd91906127ad565b600060208284031215612585578081fd5b81356114258161288b565b600080600080600060a086880312156125a7578081fd5b85356125b28161288b565b9450602086013593506040860135925060608601356125d08161288b565b915060808601356125e08161288b565b809150509295509295909350565b6000602082840312156125ff578081fd5b8151611425816128a0565b60006020828403121561261b578081fd5b5035919050565b60008060408385031215612634578182fd5b8235915060208301356126468161288b565b809150509250929050565b60008060408385031215612663578182fd5b50508035926020909101359150565b60008060208385031215612684578182fd5b823567ffffffffffffffff8082111561269b578384fd5b818501915085601f8301126126ae578384fd5b8135818111156126bc578485fd5b8660208285010111156126cd578485fd5b60209290920196919550909350505050565b6000602082840312156126f0578081fd5b5051919050565b60008060006060848603121561270b578283fd5b83359250602084013561271d8161288b565b9150604084013561272d816128a0565b809150509250925092565b60008060006060848603121561274c578081fd5b8335925060208401359150604084013561272d816128a0565b6000815180845261277d81602086016020860161282e565b601f01601f19169290920160200192915050565b600082516127a381846020870161282e565b9190910192915050565b6020815260006114256020830184612765565b600082198211156127d3576127d3612875565b500190565b6000826127f357634e487b7160e01b81526012600452602481fd5b500490565b600081600019048311821515161561281257612812612875565b500290565b60008282101561282957612829612875565b500390565b60005b83811015612849578181015183820152602001612831565b838111156120435750506000910152565b600060001982141561286e5761286e612875565b5060010190565b634e487b7160e01b600052601160045260246000fd5b6001600160a01b038116811461098857600080fd5b801515811461098857600080fdfea2646970667358221220b86b1c8a83fc95be079c88b961c496e54e575d0033ec8419a9247000728e8fac64736f6c63430008040033",
  "linkReferences": {},
  "deployedLinkReferences": {}
}