{
  "_format": "hh-sol-artifact-1",
  "contractName": "MISOTokenFactory",
  "sourceName": "contracts/MISOTokenFactory.sol",
  "abi": [
    {
      "inputs": [],
      "stateMutability": "nonpayable",
      "type": "constructor"
    },
    {
      "anonymous": false,
      "inputs": [
        {
          "indexed": false,
          "internalType": "address",
          "name": "sender",
          "type": "address"
        }
      ],
      "name": "MisoInitTokenFactory",
      "type": "event"
    },
    {
      "anonymous": false,
      "inputs": [
        {
          "indexed": true,
          "internalType": "address",
          "name": "owner",
          "type": "address"
        },
        {
          "indexed": true,
          "internalType": "address",
          "name": "addr",
          "type": "address"
        },
        {
          "indexed": false,
          "internalType": "address",
          "name": "tokenTemplate",
          "type": "address"
        }
      ],
      "name": "TokenCreated",
      "type": "event"
    },
    {
      "anonymous": false,
      "inputs": [
        {
          "indexed": true,
          "internalType": "address",
          "name": "addr",
          "type": "address"
        },
        {
          "indexed": false,
          "internalType": "uint256",
          "name": "templateId",
          "type": "uint256"
        },
        {
          "indexed": false,
          "internalType": "bytes",
          "name": "data",
          "type": "bytes"
        }
      ],
      "name": "TokenInitialized",
      "type": "event"
    },
    {
      "anonymous": false,
      "inputs": [
        {
          "indexed": false,
          "internalType": "address",
          "name": "newToken",
          "type": "address"
        },
        {
          "indexed": false,
          "internalType": "uint256",
          "name": "templateId",
          "type": "uint256"
        }
      ],
      "name": "TokenTemplateAdded",
      "type": "event"
    },
    {
      "anonymous": false,
      "inputs": [
        {
          "indexed": false,
          "internalType": "address",
          "name": "token",
          "type": "address"
        },
        {
          "indexed": false,
          "internalType": "uint256",
          "name": "templateId",
          "type": "uint256"
        }
      ],
      "name": "TokenTemplateRemoved",
      "type": "event"
    },
    {
      "inputs": [],
      "name": "TOKEN_MINTER_ROLE",
      "outputs": [
        {
          "internalType": "bytes32",
          "name": "",
          "type": "bytes32"
        }
      ],
      "stateMutability": "view",
      "type": "function"
    },
    {
      "inputs": [],
      "name": "accessControls",
      "outputs": [
        {
          "internalType": "contract MISOAccessControls",
          "name": "",
          "type": "address"
        }
      ],
      "stateMutability": "view",
      "type": "function"
    },
    {
      "inputs": [
        {
          "internalType": "address",
          "name": "_template",
          "type": "address"
        }
      ],
      "name": "addTokenTemplate",
      "outputs": [],
      "stateMutability": "nonpayable",
      "type": "function"
    },
    {
      "inputs": [
        {
          "internalType": "address",
          "name": "_owner",
          "type": "address"
        },
        {
          "internalType": "address",
          "name": "_token",
          "type": "address"
        }
      ],
      "name": "balanceOf",
      "outputs": [
        {
          "internalType": "uint256",
          "name": "",
          "type": "uint256"
        }
      ],
      "stateMutability": "view",
      "type": "function"
    },
    {
      "inputs": [
        {
          "internalType": "uint256",
          "name": "_templateId",
          "type": "uint256"
        },
        {
          "internalType": "address payable",
          "name": "_integratorFeeAccount",
          "type": "address"
        },
        {
          "internalType": "bytes",
          "name": "_data",
          "type": "bytes"
        }
      ],
      "name": "createToken",
      "outputs": [
        {
          "internalType": "address",
          "name": "token",
          "type": "address"
        }
      ],
      "stateMutability": "payable",
      "type": "function"
    },
    {
      "inputs": [
        {
          "internalType": "uint256",
          "name": "",
          "type": "uint256"
        }
      ],
      "name": "currentTemplateId",
      "outputs": [
        {
          "internalType": "uint256",
          "name": "",
          "type": "uint256"
        }
      ],
      "stateMutability": "view",
      "type": "function"
    },
    {
      "inputs": [
        {
          "internalType": "uint256",
          "name": "_templateId",
          "type": "uint256"
        },
        {
          "internalType": "address payable",
          "name": "_integratorFeeAccount",
          "type": "address"
        }
      ],
      "name": "deployToken",
      "outputs": [
        {
          "internalType": "address",
          "name": "token",
          "type": "address"
        }
      ],
      "stateMutability": "payable",
      "type": "function"
    },
    {
      "inputs": [
        {
          "internalType": "address",
          "name": "_tokenTemplate",
          "type": "address"
        }
      ],
      "name": "getTemplateId",
      "outputs": [
        {
          "internalType": "uint256",
          "name": "",
          "type": "uint256"
        }
      ],
      "stateMutability": "view",
      "type": "function"
    },
    {
      "inputs": [
        {
          "internalType": "uint256",
          "name": "_templateId",
          "type": "uint256"
        }
      ],
      "name": "getTokenTemplate",
      "outputs": [
        {
          "internalType": "address",
          "name": "",
          "type": "address"
        }
      ],
      "stateMutability": "view",
      "type": "function"
    },
    {
      "inputs": [],
      "name": "getTokens",
      "outputs": [
        {
          "internalType": "address[]",
          "name": "",
          "type": "address[]"
        }
      ],
      "stateMutability": "view",
      "type": "function"
    },
    {
      "inputs": [
        {
          "internalType": "address",
          "name": "_address",
          "type": "address"
        }
      ],
      "name": "hasTokenMinterRole",
      "outputs": [
        {
          "internalType": "bool",
          "name": "",
          "type": "bool"
        }
      ],
      "stateMutability": "view",
      "type": "function"
    },
    {
      "inputs": [
        {
          "internalType": "address",
          "name": "_accessControls",
          "type": "address"
        }
      ],
      "name": "initMISOTokenFactory",
      "outputs": [],
      "stateMutability": "nonpayable",
      "type": "function"
    },
    {
      "inputs": [],
      "name": "integratorFeePct",
      "outputs": [
        {
          "internalType": "uint256",
          "name": "",
          "type": "uint256"
        }
      ],
      "stateMutability": "view",
      "type": "function"
    },
    {
      "inputs": [],
      "name": "locked",
      "outputs": [
        {
          "internalType": "bool",
          "name": "",
          "type": "bool"
        }
      ],
      "stateMutability": "view",
      "type": "function"
    },
    {
      "inputs": [],
      "name": "minimumFee",
      "outputs": [
        {
          "internalType": "uint256",
          "name": "",
          "type": "uint256"
        }
      ],
      "stateMutability": "view",
      "type": "function"
    },
    {
      "inputs": [],
      "name": "misoDiv",
      "outputs": [
        {
          "internalType": "address payable",
          "name": "",
          "type": "address"
        }
      ],
      "stateMutability": "view",
      "type": "function"
    },
    {
      "inputs": [],
      "name": "numberOfTokens",
      "outputs": [
        {
          "internalType": "uint256",
          "name": "",
          "type": "uint256"
        }
      ],
      "stateMutability": "view",
      "type": "function"
    },
    {
      "inputs": [
        {
          "internalType": "uint256",
          "name": "_templateId",
          "type": "uint256"
        }
      ],
      "name": "removeTokenTemplate",
      "outputs": [],
      "stateMutability": "nonpayable",
      "type": "function"
    },
    {
      "inputs": [
        {
          "internalType": "uint256",
          "name": "_templateType",
          "type": "uint256"
        },
        {
          "internalType": "uint256",
          "name": "_templateId",
          "type": "uint256"
        }
      ],
      "name": "setCurrentTemplateId",
      "outputs": [],
      "stateMutability": "nonpayable",
      "type": "function"
    },
    {
      "inputs": [
        {
          "internalType": "address payable",
          "name": "_divaddr",
          "type": "address"
        }
      ],
      "name": "setDividends",
      "outputs": [],
      "stateMutability": "nonpayable",
      "type": "function"
    },
    {
      "inputs": [
        {
          "internalType": "uint256",
          "name": "_amount",
          "type": "uint256"
        }
      ],
      "name": "setIntegratorFeePct",
      "outputs": [],
      "stateMutability": "nonpayable",
      "type": "function"
    },
    {
      "inputs": [
        {
          "internalType": "bool",
          "name": "_locked",
          "type": "bool"
        }
      ],
      "name": "setLocked",
      "outputs": [],
      "stateMutability": "nonpayable",
      "type": "function"
    },
    {
      "inputs": [
        {
          "internalType": "uint256",
          "name": "_amount",
          "type": "uint256"
        }
      ],
      "name": "setMinimumFee",
      "outputs": [],
      "stateMutability": "nonpayable",
      "type": "function"
    },
    {
      "inputs": [
        {
          "internalType": "address",
          "name": "",
          "type": "address"
        }
      ],
      "name": "tokenInfo",
      "outputs": [
        {
          "internalType": "bool",
          "name": "exists",
          "type": "bool"
        },
        {
          "internalType": "uint256",
          "name": "templateId",
          "type": "uint256"
        },
        {
          "internalType": "uint256",
          "name": "index",
          "type": "uint256"
        }
      ],
      "stateMutability": "view",
      "type": "function"
    },
    {
      "inputs": [],
      "name": "tokenTemplateId",
      "outputs": [
        {
          "internalType": "uint256",
          "name": "",
          "type": "uint256"
        }
      ],
      "stateMutability": "view",
      "type": "function"
    },
    {
      "inputs": [
        {
          "internalType": "uint256",
          "name": "",
          "type": "uint256"
        }
      ],
      "name": "tokens",
      "outputs": [
        {
          "internalType": "address",
          "name": "",
          "type": "address"
        }
      ],
      "stateMutability": "view",
      "type": "function"
    }
  ],
  "bytecode": "0x608060405234801561001057600080fd5b50612db9806100206000396000f3fe6080604052600436106101815760003560e01c80637b20bccf116100d1578063b3c931511161008a578063d335ebda11610064578063d335ebda1461057a578063f5dab711146105b7578063f7888aec146105f6578063f9f16ef21461063357610181565b8063b3c93151146104fb578063c9907b0814610524578063cf3090121461054f57610181565b80637b20bccf146103fc578063870837d7146104255780639e5940cc146104555780639e9188ea1461047e578063aa6ca808146104a7578063ad8ff669146104d257610181565b8063361dbb4a1161013e5780634520ca75116101185780634520ca751461033e5780634f64b2be14610369578063512b336d146103a6578063748365ef146103d157610181565b8063361dbb4a146102ad5780633f1f44b0146102ea57806343efca821461031357610181565b8063042ab9b3146101865780630bf18f85146101c3578063182a7506146101f35780631a7626e71461021c578063211e28b6146102475780632ed4f57814610270575b600080fd5b34801561019257600080fd5b506101ad60048036038101906101a89190612270565b61065e565b6040516101ba91906125ef565b60405180910390f35b6101dd60048036038101906101d891906122c2565b61069b565b6040516101ea91906125ef565b60405180910390f35b3480156101ff57600080fd5b5061021a60048036038101906102159190612270565b610ca3565b005b34801561022857600080fd5b50610231610d95565b60405161023e9190612825565b60405180910390f35b34801561025357600080fd5b5061026e6004803603810190610269919061221e565b610d9b565b005b34801561027c57600080fd5b5061029760048036038101906102929190612270565b610ea0565b6040516102a49190612825565b60405180910390f35b3480156102b957600080fd5b506102d460048036038101906102cf9190612190565b610eb8565b6040516102e19190612670565b60405180910390f35b3480156102f657600080fd5b50610311600480360381019061030c9190612270565b610f8d565b005b34801561031f57600080fd5b506103286110c4565b6040516103359190612825565b60405180910390f35b34801561034a57600080fd5b506103536110ca565b6040516103609190612825565b60405180910390f35b34801561037557600080fd5b50610390600480360381019061038b9190612270565b6110d0565b60405161039d91906125ef565b60405180910390f35b3480156103b257600080fd5b506103bb61110f565b6040516103c891906126c2565b60405180910390f35b3480156103dd57600080fd5b506103e6611133565b6040516103f3919061272a565b60405180910390f35b34801561040857600080fd5b50610423600480360381019061041e9190612190565b611157565b005b61043f600480360381019061043a91906122fe565b61150b565b60405161044c91906125ef565b60405180910390f35b34801561046157600080fd5b5061047c6004803603810190610477919061236a565b611683565b005b34801561048a57600080fd5b506104a560048036038101906104a091906121b9565b611837565b005b3480156104b357600080fd5b506104bc61199d565b6040516104c9919061264e565b60405180910390f35b3480156104de57600080fd5b506104f960048036038101906104f49190612190565b611a2b565b005b34801561050757600080fd5b50610522600480360381019061051d9190612270565b611af5565b005b34801561053057600080fd5b50610539611e05565b604051610546919061260a565b60405180910390f35b34801561055b57600080fd5b50610564611e2b565b6040516105719190612670565b60405180910390f35b34801561058657600080fd5b506105a1600480360381019061059c9190612190565b611e3e565b6040516105ae9190612825565b60405180910390f35b3480156105c357600080fd5b506105de60048036038101906105d99190612190565b611e87565b6040516105ed9392919061268b565b60405180910390f35b34801561060257600080fd5b5061061d600480360381019061061891906121e2565b611ebe565b60405161062a9190612825565b60405180910390f35b34801561063f57600080fd5b50610648611f51565b6040516106559190612825565b60405180910390f35b60006004600083815260200190815260200160002060009054906101000a900473ffffffffffffffffffffffffffffffffffffffff169050919050565b6000600960009054906101000a900460ff161561085b5760008054906101000a900473ffffffffffffffffffffffffffffffffffffffff1673ffffffffffffffffffffffffffffffffffffffff1663c395fcb3336040518263ffffffff1660e01b815260040161070b91906125ef565b60206040518083038186803b15801561072357600080fd5b505afa158015610737573d6000803e3d6000fd5b505050506040513d601f19601f8201168201806040525081019061075b9190612247565b8061080b575060008054906101000a900473ffffffffffffffffffffffffffffffffffffffff1673ffffffffffffffffffffffffffffffffffffffff1663099db017336040518263ffffffff1660e01b81526004016107ba91906125ef565b60206040518083038186803b1580156107d257600080fd5b505afa1580156107e6573d6000803e3d6000fd5b505050506040513d601f19601f8201168201806040525081019061080a9190612247565b5b8061081b575061081a33610eb8565b5b61085a576040517f08c379a000000000000000000000000000000000000000000000000000000000815260040161085190612805565b60405180910390fd5b5b6007543410156108a0576040517f08c379a000000000000000000000000000000000000000000000000000000000815260040161089790612785565b60405180910390fd5b600073ffffffffffffffffffffffffffffffffffffffff166004600085815260200190815260200160002060009054906101000a900473ffffffffffffffffffffffffffffffffffffffff1673ffffffffffffffffffffffffffffffffffffffff161415610943576040517f08c379a000000000000000000000000000000000000000000000000000000000815260040161093a906127e5565b60405180910390fd5b600080349050600073ffffffffffffffffffffffffffffffffffffffff168473ffffffffffffffffffffffffffffffffffffffff16141580156109d45750600960019054906101000a900473ffffffffffffffffffffffffffffffffffffffff1673ffffffffffffffffffffffffffffffffffffffff168473ffffffffffffffffffffffffffffffffffffffff1614155b15610a05576103e8600854826109ea9190612914565b6109f491906128e3565b91508181610a02919061296e565b90505b610a416004600087815260200190815260200160002060009054906101000a900473ffffffffffffffffffffffffffffffffffffffff16611f5e565b92506040518060600160405280600115158152602001868152602001600280549050815250600160008573ffffffffffffffffffffffffffffffffffffffff1673ffffffffffffffffffffffffffffffffffffffff16815260200190815260200160002060008201518160000160006101000a81548160ff02191690831515021790555060208201518160010155604082015181600201559050506002839080600181540180825580915050600190039060005260206000200160009091909190916101000a81548173ffffffffffffffffffffffffffffffffffffffff021916908373ffffffffffffffffffffffffffffffffffffffff1602179055508273ffffffffffffffffffffffffffffffffffffffff163373ffffffffffffffffffffffffffffffffffffffff167fb5a149b73151b44553ff737ca050c61de65038e2ae67ec044215d3261cc6fa006004600089815260200190815260200160002060009054906101000a900473ffffffffffffffffffffffffffffffffffffffff16604051610bcf91906125ef565b60405180910390a36000811115610c4a57600960019054906101000a900473ffffffffffffffffffffffffffffffffffffffff1673ffffffffffffffffffffffffffffffffffffffff166108fc829081150290604051600060405180830381858888f19350505050158015610c48573d6000803e3d6000fd5b505b6000821115610c9b578373ffffffffffffffffffffffffffffffffffffffff166108fc839081150290604051600060405180830381858888f19350505050158015610c99573d6000803e3d6000fd5b505b505092915050565b60008054906101000a900473ffffffffffffffffffffffffffffffffffffffff1673ffffffffffffffffffffffffffffffffffffffff1663c395fcb3336040518263ffffffff1660e01b8152600401610cfc91906125ef565b60206040518083038186803b158015610d1457600080fd5b505afa158015610d28573d6000803e3d6000fd5b505050506040513d601f19601f82011682018060405250810190610d4c9190612247565b610d8b576040517f08c379a0000000000000000000000000000000000000000000000000000000008152600401610d8290612745565b60405180910390fd5b8060078190555050565b60075481565b60008054906101000a900473ffffffffffffffffffffffffffffffffffffffff1673ffffffffffffffffffffffffffffffffffffffff1663c395fcb3336040518263ffffffff1660e01b8152600401610df491906125ef565b60206040518083038186803b158015610e0c57600080fd5b505afa158015610e20573d6000803e3d6000fd5b505050506040513d601f19601f82011682018060405250810190610e449190612247565b610e83576040517f08c379a0000000000000000000000000000000000000000000000000000000008152600401610e7a90612765565b60405180910390fd5b80600960006101000a81548160ff02191690831515021790555050565b60066020528060005260406000206000915090505481565b60008060009054906101000a900473ffffffffffffffffffffffffffffffffffffffff1673ffffffffffffffffffffffffffffffffffffffff166391d148547fb3bb6029312d1001076133d40b75b7eca92ba54e4963b3ce24e1486a3d5a038b846040518363ffffffff1660e01b8152600401610f369291906126dd565b60206040518083038186803b158015610f4e57600080fd5b505afa158015610f62573d6000803e3d6000fd5b505050506040513d601f19601f82011682018060405250810190610f869190612247565b9050919050565b60008054906101000a900473ffffffffffffffffffffffffffffffffffffffff1673ffffffffffffffffffffffffffffffffffffffff1663c395fcb3336040518263ffffffff1660e01b8152600401610fe691906125ef565b60206040518083038186803b158015610ffe57600080fd5b505afa158015611012573d6000803e3d6000fd5b505050506040513d601f19601f820116820180604052508101906110369190612247565b611075576040517f08c379a000000000000000000000000000000000000000000000000000000000815260040161106c90612745565b60405180910390fd5b6103e88111156110ba576040517f08c379a00000000000000000000000000000000000000000000000000000000081526004016110b1906127c5565b60405180910390fd5b8060088190555050565b60035481565b60085481565b600281815481106110e057600080fd5b906000526020600020016000915054906101000a900473ffffffffffffffffffffffffffffffffffffffff1681565b7fb3bb6029312d1001076133d40b75b7eca92ba54e4963b3ce24e1486a3d5a038b81565b60008054906101000a900473ffffffffffffffffffffffffffffffffffffffff1681565b60008054906101000a900473ffffffffffffffffffffffffffffffffffffffff1673ffffffffffffffffffffffffffffffffffffffff1663c395fcb3336040518263ffffffff1660e01b81526004016111b091906125ef565b60206040518083038186803b1580156111c857600080fd5b505afa1580156111dc573d6000803e3d6000fd5b505050506040513d601f19601f820116820180604052508101906112009190612247565b806112b0575060008054906101000a900473ffffffffffffffffffffffffffffffffffffffff1673ffffffffffffffffffffffffffffffffffffffff1663fc4e3e0a336040518263ffffffff1660e01b815260040161125f91906125ef565b60206040518083038186803b15801561127757600080fd5b505afa15801561128b573d6000803e3d6000fd5b505050506040513d601f19601f820116820180604052508101906112af9190612247565b5b6112ef576040517f08c379a00000000000000000000000000000000000000000000000000000000081526004016112e690612745565b60405180910390fd5b60008173ffffffffffffffffffffffffffffffffffffffff16630814d3dd6040518163ffffffff1660e01b815260040160206040518083038186803b15801561133757600080fd5b505afa15801561134b573d6000803e3d6000fd5b505050506040513d601f19601f8201168201806040525081019061136f9190612299565b9050600081116113b4576040517f08c379a00000000000000000000000000000000000000000000000000000000081526004016113ab906127a5565b60405180910390fd5b6000600560008473ffffffffffffffffffffffffffffffffffffffff1673ffffffffffffffffffffffffffffffffffffffff168152602001908152602001600020541461140057600080fd5b6003600081548092919061141390612a6c565b91905055508160046000600354815260200190815260200160002060006101000a81548173ffffffffffffffffffffffffffffffffffffffff021916908373ffffffffffffffffffffffffffffffffffffffff160217905550600354600560008473ffffffffffffffffffffffffffffffffffffffff1673ffffffffffffffffffffffffffffffffffffffff1681526020019081526020016000208190555060035460066000838152602001908152602001600020819055507f95595b6ea45697235ed18194d52346c97420d7edf2aa7fc902cb37e25f81962e826003546040516114ff929190612625565b60405180910390a15050565b60008073ffffffffffffffffffffffffffffffffffffffff167fb16d4375f452e77e87811cc8f3549effd92a08a60c760f79ba9e2de067c95e3086858560405161155793929190612840565b60405180910390a2611569858561069b565b90508073ffffffffffffffffffffffffffffffffffffffff166360b1cc8084846040518363ffffffff1660e01b81526004016115a6929190612706565b600060405180830381600087803b1580156115c057600080fd5b505af11580156115d4573d6000803e3d6000fd5b5050505060008173ffffffffffffffffffffffffffffffffffffffff166370a08231306040518263ffffffff1660e01b815260040161161391906125ef565b60206040518083038186803b15801561162b57600080fd5b505afa15801561163f573d6000803e3d6000fd5b505050506040513d601f19601f820116820180604052508101906116639190612299565b9050600081111561167a57611679823383611fc8565b5b50949350505050565b60008054906101000a900473ffffffffffffffffffffffffffffffffffffffff1673ffffffffffffffffffffffffffffffffffffffff1663c395fcb3336040518263ffffffff1660e01b81526004016116dc91906125ef565b60206040518083038186803b1580156116f457600080fd5b505afa158015611708573d6000803e3d6000fd5b505050506040513d601f19601f8201168201806040525081019061172c9190612247565b806117dc575060008054906101000a900473ffffffffffffffffffffffffffffffffffffffff1673ffffffffffffffffffffffffffffffffffffffff1663fc4e3e0a336040518263ffffffff1660e01b815260040161178b91906125ef565b60206040518083038186803b1580156117a357600080fd5b505afa1580156117b7573d6000803e3d6000fd5b505050506040513d601f19601f820116820180604052508101906117db9190612247565b5b61181b576040517f08c379a000000000000000000000000000000000000000000000000000000000815260040161181290612765565b60405180910390fd5b8060066000848152602001908152602001600020819055505050565b60008054906101000a900473ffffffffffffffffffffffffffffffffffffffff1673ffffffffffffffffffffffffffffffffffffffff1663c395fcb3336040518263ffffffff1660e01b815260040161189091906125ef565b60206040518083038186803b1580156118a857600080fd5b505afa1580156118bc573d6000803e3d6000fd5b505050506040513d601f19601f820116820180604052508101906118e09190612247565b61191f576040517f08c379a000000000000000000000000000000000000000000000000000000000815260040161191690612745565b60405180910390fd5b600073ffffffffffffffffffffffffffffffffffffffff168173ffffffffffffffffffffffffffffffffffffffff16141561195957600080fd5b80600960016101000a81548173ffffffffffffffffffffffffffffffffffffffff021916908373ffffffffffffffffffffffffffffffffffffffff16021790555050565b60606002805480602002602001604051908101604052809291908181526020018280548015611a2157602002820191906000526020600020905b8160009054906101000a900473ffffffffffffffffffffffffffffffffffffffff1673ffffffffffffffffffffffffffffffffffffffff16815260200190600101908083116119d7575b5050505050905090565b600060149054906101000a900460ff1615611a4557600080fd5b6001600060146101000a81548160ff0219169083151502179055506001600960006101000a81548160ff021916908315150217905550806000806101000a81548173ffffffffffffffffffffffffffffffffffffffff021916908373ffffffffffffffffffffffffffffffffffffffff1602179055507f7baa9936e30f7ec15b3fe4357a0256402fa7ea6780f82e39784f1f27382bd15e33604051611aea91906125ef565b60405180910390a150565b60008054906101000a900473ffffffffffffffffffffffffffffffffffffffff1673ffffffffffffffffffffffffffffffffffffffff1663c395fcb3336040518263ffffffff1660e01b8152600401611b4e91906125ef565b60206040518083038186803b158015611b6657600080fd5b505afa158015611b7a573d6000803e3d6000fd5b505050506040513d601f19601f82011682018060405250810190611b9e9190612247565b80611c4e575060008054906101000a900473ffffffffffffffffffffffffffffffffffffffff1673ffffffffffffffffffffffffffffffffffffffff1663fc4e3e0a336040518263ffffffff1660e01b8152600401611bfd91906125ef565b60206040518083038186803b158015611c1557600080fd5b505afa158015611c29573d6000803e3d6000fd5b505050506040513d601f19601f82011682018060405250810190611c4d9190612247565b5b611c8d576040517f08c379a0000000000000000000000000000000000000000000000000000000008152600401611c8490612745565b60405180910390fd5b600073ffffffffffffffffffffffffffffffffffffffff166004600083815260200190815260200160002060009054906101000a900473ffffffffffffffffffffffffffffffffffffffff1673ffffffffffffffffffffffffffffffffffffffff161415611cfa57600080fd5b60006004600083815260200190815260200160002060009054906101000a900473ffffffffffffffffffffffffffffffffffffffff16905060006004600084815260200190815260200160002060006101000a81548173ffffffffffffffffffffffffffffffffffffffff021916908373ffffffffffffffffffffffffffffffffffffffff160217905550600560008273ffffffffffffffffffffffffffffffffffffffff1673ffffffffffffffffffffffffffffffffffffffff168152602001908152602001600020600090557f11eaf16c318162956db9f4f1fc5f7696fabbbf409382c1ddcebfe74b20a92a838183604051611df9929190612625565b60405180910390a15050565b600960019054906101000a900473ffffffffffffffffffffffffffffffffffffffff1681565b600960009054906101000a900460ff1681565b6000600560008373ffffffffffffffffffffffffffffffffffffffff1673ffffffffffffffffffffffffffffffffffffffff168152602001908152602001600020549050919050565b60016020528060005260406000206000915090508060000160009054906101000a900460ff16908060010154908060020154905083565b60008173ffffffffffffffffffffffffffffffffffffffff166370a08231846040518263ffffffff1660e01b8152600401611ef991906125ef565b60206040518083038186803b158015611f1157600080fd5b505afa158015611f25573d6000803e3d6000fd5b505050506040513d601f19601f82011682018060405250810190611f499190612299565b905092915050565b6000600280549050905090565b6000808260601b90506040517f3d602d80600a3d3981f3363d3d373d3d3d363d7300000000000000000000000081528160148201527f5af43d82803e903d91602b57fd5bf3000000000000000000000000000000000060288201526037816000f092505050919050565b6000808473ffffffffffffffffffffffffffffffffffffffff1663a9059cbb8585604051602401611ffa929190612625565b6040516020818303038152906040529060e01b6020820180517bffffffffffffffffffffffffffffffffffffffffffffffffffffffff838183161783525050505060405161204891906125d8565b6000604051808303816000865af19150503d8060008114612085576040519150601f19603f3d011682016040523d82523d6000602084013e61208a565b606091505b50915091508180156120b857506000815114806120b75750808060200190518101906120b69190612247565b5b5b6120c157600080fd5b5050505050565b6000813590506120d781612d27565b92915050565b6000813590506120ec81612d3e565b92915050565b60008135905061210181612d55565b92915050565b60008151905061211681612d55565b92915050565b60008083601f84011261212e57600080fd5b8235905067ffffffffffffffff81111561214757600080fd5b60208301915083600182028301111561215f57600080fd5b9250929050565b60008135905061217581612d6c565b92915050565b60008151905061218a81612d6c565b92915050565b6000602082840312156121a257600080fd5b60006121b0848285016120c8565b91505092915050565b6000602082840312156121cb57600080fd5b60006121d9848285016120dd565b91505092915050565b600080604083850312156121f557600080fd5b6000612203858286016120c8565b9250506020612214858286016120c8565b9150509250929050565b60006020828403121561223057600080fd5b600061223e848285016120f2565b91505092915050565b60006020828403121561225957600080fd5b600061226784828501612107565b91505092915050565b60006020828403121561228257600080fd5b600061229084828501612166565b91505092915050565b6000602082840312156122ab57600080fd5b60006122b98482850161217b565b91505092915050565b600080604083850312156122d557600080fd5b60006122e385828601612166565b92505060206122f4858286016120dd565b9150509250929050565b6000806000806060858703121561231457600080fd5b600061232287828801612166565b9450506020612333878288016120dd565b935050604085013567ffffffffffffffff81111561235057600080fd5b61235c8782880161211c565b925092505092959194509250565b6000806040838503121561237d57600080fd5b600061238b85828601612166565b925050602061239c85828601612166565b9150509250929050565b60006123b283836123cd565b60208301905092915050565b6123c7816129b4565b82525050565b6123d6816129a2565b82525050565b6123e5816129a2565b82525050565b60006123f682612882565b61240081856128a5565b935061240b83612872565b8060005b8381101561243c57815161242388826123a6565b975061242e83612898565b92505060018101905061240f565b5085935050505092915050565b612452816129c6565b82525050565b612461816129d2565b82525050565b600061247383856128b6565b9350612480838584612a2a565b61248983612b13565b840190509392505050565b600061249f8261288d565b6124a981856128c7565b93506124b9818560208601612a39565b80840191505092915050565b6124ce81612a06565b82525050565b60006124e16029836128d2565b91506124ec82612b24565b604082019050919050565b60006125046026836128d2565b915061250f82612b73565b604082019050919050565b6000612527602f836128d2565b915061253282612bc2565b604082019050919050565b600061254a6026836128d2565b915061255582612c11565b604082019050919050565b600061256d6029836128d2565b915061257882612c60565b604082019050919050565b60006125906009836128d2565b915061259b82612caf565b602082019050919050565b60006125b36031836128d2565b91506125be82612cd8565b604082019050919050565b6125d2816129fc565b82525050565b60006125e48284612494565b915081905092915050565b600060208201905061260460008301846123dc565b92915050565b600060208201905061261f60008301846123be565b92915050565b600060408201905061263a60008301856123dc565b61264760208301846125c9565b9392505050565b6000602082019050818103600083015261266881846123eb565b905092915050565b60006020820190506126856000830184612449565b92915050565b60006060820190506126a06000830186612449565b6126ad60208301856125c9565b6126ba60408301846125c9565b949350505050565b60006020820190506126d76000830184612458565b92915050565b60006040820190506126f26000830185612458565b6126ff60208301846123dc565b9392505050565b60006020820190508181036000830152612721818486612467565b90509392505050565b600060208201905061273f60008301846124c5565b92915050565b6000602082019050818103600083015261275e816124d4565b9050919050565b6000602082019050818103600083015261277e816124f7565b9050919050565b6000602082019050818103600083015261279e8161251a565b9050919050565b600060208201905081810360008301526127be8161253d565b9050919050565b600060208201905081810360008301526127de81612560565b9050919050565b600060208201905081810360008301526127fe81612583565b9050919050565b6000602082019050818103600083015261281e816125a6565b9050919050565b600060208201905061283a60008301846125c9565b92915050565b600060408201905061285560008301866125c9565b8181036020830152612868818486612467565b9050949350505050565b6000819050602082019050919050565b600081519050919050565b600081519050919050565b6000602082019050919050565b600082825260208201905092915050565b600082825260208201905092915050565b600081905092915050565b600082825260208201905092915050565b60006128ee826129fc565b91506128f9836129fc565b92508261290957612908612ae4565b5b828204905092915050565b600061291f826129fc565b915061292a836129fc565b9250817fffffffffffffffffffffffffffffffffffffffffffffffffffffffffffffffff048311821515161561296357612962612ab5565b5b828202905092915050565b6000612979826129fc565b9150612984836129fc565b92508282101561299757612996612ab5565b5b828203905092915050565b60006129ad826129dc565b9050919050565b60006129bf826129dc565b9050919050565b60008115159050919050565b6000819050919050565b600073ffffffffffffffffffffffffffffffffffffffff82169050919050565b6000819050919050565b6000612a1182612a18565b9050919050565b6000612a23826129dc565b9050919050565b82818337600083830152505050565b60005b83811015612a57578082015181840152602081019050612a3c565b83811115612a66576000848401525b50505050565b6000612a77826129fc565b91507fffffffffffffffffffffffffffffffffffffffffffffffffffffffffffffffff821415612aaa57612aa9612ab5565b5b600182019050919050565b7f4e487b7100000000000000000000000000000000000000000000000000000000600052601160045260246000fd5b7f4e487b7100000000000000000000000000000000000000000000000000000000600052601260045260246000fd5b6000601f19601f8301169050919050565b7f4d49534f546f6b656e466163746f72793a2053656e646572206d75737420626560008201527f206f70657261746f720000000000000000000000000000000000000000000000602082015250565b7f4d49534f546f6b656e466163746f72793a2053656e646572206d75737420626560008201527f2061646d696e0000000000000000000000000000000000000000000000000000602082015250565b7f4d49534f546f6b656e466163746f72793a204661696c656420746f207472616e60008201527f73666572206d696e696d756d4665650000000000000000000000000000000000602082015250565b7f4d49534f4c61756e636865723a20496e636f72726563742074656d706c61746560008201527f20636f6465200000000000000000000000000000000000000000000000000000602082015250565b7f4d49534f546f6b656e466163746f72793a2052616e67652069732066726f6d2060008201527f3020746f20313030300000000000000000000000000000000000000000000000602082015250565b7f6164647265737320300000000000000000000000000000000000000000000000600082015250565b7f4d49534f546f6b656e466163746f72793a2053656e646572206d75737420626560008201527f206d696e746572206966206c6f636b6564000000000000000000000000000000602082015250565b612d30816129a2565b8114612d3b57600080fd5b50565b612d47816129b4565b8114612d5257600080fd5b50565b612d5e816129c6565b8114612d6957600080fd5b50565b612d75816129fc565b8114612d8057600080fd5b5056fea26469706673582212208ecc3c22b8021449e507b592c8c8cb8e5d89d77ac70bafd0deb0683a5a73759464736f6c63430008040033",
  "linkReferences": {},
  "deployedLinkReferences": {}
}