{
  "_format": "hh-sol-artifact-1",
  "contractName": "MISOMasterChef",
  "sourceName": "contracts/Farms/MISOMasterChef.sol",
  "abi": [
    {
      "anonymous": false,
      "inputs": [
        {
          "indexed": true,
          "internalType": "address",
          "name": "beneficiary",
          "type": "address"
        },
        {
          "indexed": true,
          "internalType": "address",
          "name": "caller",
          "type": "address"
        }
      ],
      "name": "AdminRoleGranted",
      "type": "event"
    },
    {
      "anonymous": false,
      "inputs": [
        {
          "indexed": true,
          "internalType": "address",
          "name": "beneficiary",
          "type": "address"
        },
        {
          "indexed": true,
          "internalType": "address",
          "name": "caller",
          "type": "address"
        }
      ],
      "name": "AdminRoleRemoved",
      "type": "event"
    },
    {
      "anonymous": false,
      "inputs": [
        {
          "indexed": true,
          "internalType": "address",
          "name": "user",
          "type": "address"
        },
        {
          "indexed": true,
          "internalType": "uint256",
          "name": "pid",
          "type": "uint256"
        },
        {
          "indexed": false,
          "internalType": "uint256",
          "name": "amount",
          "type": "uint256"
        }
      ],
      "name": "Deposit",
      "type": "event"
    },
    {
      "anonymous": false,
      "inputs": [
        {
          "indexed": true,
          "internalType": "address",
          "name": "user",
          "type": "address"
        },
        {
          "indexed": true,
          "internalType": "uint256",
          "name": "pid",
          "type": "uint256"
        },
        {
          "indexed": false,
          "internalType": "uint256",
          "name": "amount",
          "type": "uint256"
        }
      ],
      "name": "EmergencyWithdraw",
      "type": "event"
    },
    {
      "anonymous": false,
      "inputs": [
        {
          "indexed": true,
          "internalType": "address",
          "name": "beneficiary",
          "type": "address"
        },
        {
          "indexed": true,
          "internalType": "address",
          "name": "caller",
          "type": "address"
        }
      ],
      "name": "MinterRoleGranted",
      "type": "event"
    },
    {
      "anonymous": false,
      "inputs": [
        {
          "indexed": true,
          "internalType": "address",
          "name": "beneficiary",
          "type": "address"
        },
        {
          "indexed": true,
          "internalType": "address",
          "name": "caller",
          "type": "address"
        }
      ],
      "name": "MinterRoleRemoved",
      "type": "event"
    },
    {
      "anonymous": false,
      "inputs": [
        {
          "indexed": true,
          "internalType": "address",
          "name": "beneficiary",
          "type": "address"
        },
        {
          "indexed": true,
          "internalType": "address",
          "name": "caller",
          "type": "address"
        }
      ],
      "name": "OperatorRoleGranted",
      "type": "event"
    },
    {
      "anonymous": false,
      "inputs": [
        {
          "indexed": true,
          "internalType": "address",
          "name": "beneficiary",
          "type": "address"
        },
        {
          "indexed": true,
          "internalType": "address",
          "name": "caller",
          "type": "address"
        }
      ],
      "name": "OperatorRoleRemoved",
      "type": "event"
    },
    {
      "anonymous": false,
      "inputs": [
        {
          "indexed": true,
          "internalType": "bytes32",
          "name": "role",
          "type": "bytes32"
        },
        {
          "indexed": true,
          "internalType": "bytes32",
          "name": "previousAdminRole",
          "type": "bytes32"
        },
        {
          "indexed": true,
          "internalType": "bytes32",
          "name": "newAdminRole",
          "type": "bytes32"
        }
      ],
      "name": "RoleAdminChanged",
      "type": "event"
    },
    {
      "anonymous": false,
      "inputs": [
        {
          "indexed": true,
          "internalType": "bytes32",
          "name": "role",
          "type": "bytes32"
        },
        {
          "indexed": true,
          "internalType": "address",
          "name": "account",
          "type": "address"
        },
        {
          "indexed": true,
          "internalType": "address",
          "name": "sender",
          "type": "address"
        }
      ],
      "name": "RoleGranted",
      "type": "event"
    },
    {
      "anonymous": false,
      "inputs": [
        {
          "indexed": true,
          "internalType": "bytes32",
          "name": "role",
          "type": "bytes32"
        },
        {
          "indexed": true,
          "internalType": "address",
          "name": "account",
          "type": "address"
        },
        {
          "indexed": true,
          "internalType": "address",
          "name": "sender",
          "type": "address"
        }
      ],
      "name": "RoleRevoked",
      "type": "event"
    },
    {
      "anonymous": false,
      "inputs": [
        {
          "indexed": true,
          "internalType": "address",
          "name": "beneficiary",
          "type": "address"
        },
        {
          "indexed": true,
          "internalType": "address",
          "name": "caller",
          "type": "address"
        }
      ],
      "name": "SmartContractRoleGranted",
      "type": "event"
    },
    {
      "anonymous": false,
      "inputs": [
        {
          "indexed": true,
          "internalType": "address",
          "name": "beneficiary",
          "type": "address"
        },
        {
          "indexed": true,
          "internalType": "address",
          "name": "caller",
          "type": "address"
        }
      ],
      "name": "SmartContractRoleRemoved",
      "type": "event"
    },
    {
      "anonymous": false,
      "inputs": [
        {
          "indexed": true,
          "internalType": "address",
          "name": "user",
          "type": "address"
        },
        {
          "indexed": true,
          "internalType": "uint256",
          "name": "pid",
          "type": "uint256"
        },
        {
          "indexed": false,
          "internalType": "uint256",
          "name": "amount",
          "type": "uint256"
        }
      ],
      "name": "Withdraw",
      "type": "event"
    },
    {
      "inputs": [],
      "name": "DEFAULT_ADMIN_ROLE",
      "outputs": [
        {
          "internalType": "bytes32",
          "name": "",
          "type": "bytes32"
        }
      ],
      "stateMutability": "view",
      "type": "function"
    },
    {
      "inputs": [],
      "name": "MINTER_ROLE",
      "outputs": [
        {
          "internalType": "bytes32",
          "name": "",
          "type": "bytes32"
        }
      ],
      "stateMutability": "view",
      "type": "function"
    },
    {
      "inputs": [],
      "name": "OPERATOR_ROLE",
      "outputs": [
        {
          "internalType": "bytes32",
          "name": "",
          "type": "bytes32"
        }
      ],
      "stateMutability": "view",
      "type": "function"
    },
    {
      "inputs": [],
      "name": "SMART_CONTRACT_ROLE",
      "outputs": [
        {
          "internalType": "bytes32",
          "name": "",
          "type": "bytes32"
        }
      ],
      "stateMutability": "view",
      "type": "function"
    },
    {
      "inputs": [
        {
          "internalType": "address",
          "name": "_address",
          "type": "address"
        }
      ],
      "name": "addAdminRole",
      "outputs": [],
      "stateMutability": "nonpayable",
      "type": "function"
    },
    {
      "inputs": [
        {
          "internalType": "address",
          "name": "_address",
          "type": "address"
        }
      ],
      "name": "addMinterRole",
      "outputs": [],
      "stateMutability": "nonpayable",
      "type": "function"
    },
    {
      "inputs": [
        {
          "internalType": "address",
          "name": "_address",
          "type": "address"
        }
      ],
      "name": "addOperatorRole",
      "outputs": [],
      "stateMutability": "nonpayable",
      "type": "function"
    },
    {
      "inputs": [
        {
          "internalType": "address",
          "name": "_address",
          "type": "address"
        }
      ],
      "name": "addSmartContractRole",
      "outputs": [],
      "stateMutability": "nonpayable",
      "type": "function"
    },
    {
      "inputs": [
        {
          "internalType": "uint256",
          "name": "_allocPoint",
          "type": "uint256"
        },
        {
          "internalType": "contract IERC20",
          "name": "_lpToken",
          "type": "address"
        },
        {
          "internalType": "bool",
          "name": "_withUpdate",
          "type": "bool"
        }
      ],
      "name": "addToken",
      "outputs": [],
      "stateMutability": "nonpayable",
      "type": "function"
    },
    {
      "inputs": [],
      "name": "blocksRemaining",
      "outputs": [
        {
          "internalType": "uint256",
          "name": "",
          "type": "uint256"
        }
      ],
      "stateMutability": "view",
      "type": "function"
    },
    {
      "inputs": [],
      "name": "bonusEndBlock",
      "outputs": [
        {
          "internalType": "uint256",
          "name": "",
          "type": "uint256"
        }
      ],
      "stateMutability": "view",
      "type": "function"
    },
    {
      "inputs": [],
      "name": "bonusMultiplier",
      "outputs": [
        {
          "internalType": "uint256",
          "name": "",
          "type": "uint256"
        }
      ],
      "stateMutability": "view",
      "type": "function"
    },
    {
      "inputs": [],
      "name": "claimTips",
      "outputs": [],
      "stateMutability": "nonpayable",
      "type": "function"
    },
    {
      "inputs": [
        {
          "internalType": "uint256",
          "name": "_pid",
          "type": "uint256"
        },
        {
          "internalType": "uint256",
          "name": "_amount",
          "type": "uint256"
        }
      ],
      "name": "deposit",
      "outputs": [],
      "stateMutability": "nonpayable",
      "type": "function"
    },
    {
      "inputs": [
        {
          "internalType": "address",
          "name": "_devaddr",
          "type": "address"
        }
      ],
      "name": "dev",
      "outputs": [],
      "stateMutability": "nonpayable",
      "type": "function"
    },
    {
      "inputs": [],
      "name": "devPercentage",
      "outputs": [
        {
          "internalType": "uint256",
          "name": "",
          "type": "uint256"
        }
      ],
      "stateMutability": "view",
      "type": "function"
    },
    {
      "inputs": [],
      "name": "devaddr",
      "outputs": [
        {
          "internalType": "address",
          "name": "",
          "type": "address"
        }
      ],
      "stateMutability": "view",
      "type": "function"
    },
    {
      "inputs": [
        {
          "internalType": "uint256",
          "name": "_pid",
          "type": "uint256"
        }
      ],
      "name": "emergencyWithdraw",
      "outputs": [],
      "stateMutability": "nonpayable",
      "type": "function"
    },
    {
      "inputs": [],
      "name": "farmTemplate",
      "outputs": [
        {
          "internalType": "uint256",
          "name": "",
          "type": "uint256"
        }
      ],
      "stateMutability": "view",
      "type": "function"
    },
    {
      "inputs": [
        {
          "internalType": "address",
          "name": "_rewards",
          "type": "address"
        },
        {
          "internalType": "uint256",
          "name": "_rewardsPerBlock",
          "type": "uint256"
        },
        {
          "internalType": "uint256",
          "name": "_startBlock",
          "type": "uint256"
        },
        {
          "internalType": "address",
          "name": "_divaddr",
          "type": "address"
        },
        {
          "internalType": "address",
          "name": "_accessControls",
          "type": "address"
        }
      ],
      "name": "getInitData",
      "outputs": [
        {
          "internalType": "bytes",
          "name": "_data",
          "type": "bytes"
        }
      ],
      "stateMutability": "pure",
      "type": "function"
    },
    {
      "inputs": [
        {
          "internalType": "uint256",
          "name": "_from",
          "type": "uint256"
        },
        {
          "internalType": "uint256",
          "name": "_to",
          "type": "uint256"
        }
      ],
      "name": "getMultiplier",
      "outputs": [
        {
          "internalType": "uint256",
          "name": "",
          "type": "uint256"
        }
      ],
      "stateMutability": "view",
      "type": "function"
    },
    {
      "inputs": [
        {
          "internalType": "bytes32",
          "name": "role",
          "type": "bytes32"
        }
      ],
      "name": "getRoleAdmin",
      "outputs": [
        {
          "internalType": "bytes32",
          "name": "",
          "type": "bytes32"
        }
      ],
      "stateMutability": "view",
      "type": "function"
    },
    {
      "inputs": [
        {
          "internalType": "bytes32",
          "name": "role",
          "type": "bytes32"
        },
        {
          "internalType": "uint256",
          "name": "index",
          "type": "uint256"
        }
      ],
      "name": "getRoleMember",
      "outputs": [
        {
          "internalType": "address",
          "name": "",
          "type": "address"
        }
      ],
      "stateMutability": "view",
      "type": "function"
    },
    {
      "inputs": [
        {
          "internalType": "bytes32",
          "name": "role",
          "type": "bytes32"
        }
      ],
      "name": "getRoleMemberCount",
      "outputs": [
        {
          "internalType": "uint256",
          "name": "",
          "type": "uint256"
        }
      ],
      "stateMutability": "view",
      "type": "function"
    },
    {
      "inputs": [
        {
          "internalType": "bytes32",
          "name": "role",
          "type": "bytes32"
        },
        {
          "internalType": "address",
          "name": "account",
          "type": "address"
        }
      ],
      "name": "grantRole",
      "outputs": [],
      "stateMutability": "nonpayable",
      "type": "function"
    },
    {
      "inputs": [
        {
          "internalType": "address",
          "name": "_address",
          "type": "address"
        }
      ],
      "name": "hasAdminRole",
      "outputs": [
        {
          "internalType": "bool",
          "name": "",
          "type": "bool"
        }
      ],
      "stateMutability": "view",
      "type": "function"
    },
    {
      "inputs": [
        {
          "internalType": "address",
          "name": "_address",
          "type": "address"
        }
      ],
      "name": "hasMinterRole",
      "outputs": [
        {
          "internalType": "bool",
          "name": "",
          "type": "bool"
        }
      ],
      "stateMutability": "view",
      "type": "function"
    },
    {
      "inputs": [
        {
          "internalType": "address",
          "name": "_address",
          "type": "address"
        }
      ],
      "name": "hasOperatorRole",
      "outputs": [
        {
          "internalType": "bool",
          "name": "",
          "type": "bool"
        }
      ],
      "stateMutability": "view",
      "type": "function"
    },
    {
      "inputs": [
        {
          "internalType": "bytes32",
          "name": "role",
          "type": "bytes32"
        },
        {
          "internalType": "address",
          "name": "account",
          "type": "address"
        }
      ],
      "name": "hasRole",
      "outputs": [
        {
          "internalType": "bool",
          "name": "",
          "type": "bool"
        }
      ],
      "stateMutability": "view",
      "type": "function"
    },
    {
      "inputs": [
        {
          "internalType": "address",
          "name": "_address",
          "type": "address"
        }
      ],
      "name": "hasSmartContractRole",
      "outputs": [
        {
          "internalType": "bool",
          "name": "",
          "type": "bool"
        }
      ],
      "stateMutability": "view",
      "type": "function"
    },
    {
      "inputs": [
        {
          "internalType": "address",
          "name": "_admin",
          "type": "address"
        }
      ],
      "name": "initAccessControls",
      "outputs": [],
      "stateMutability": "nonpayable",
      "type": "function"
    },
    {
      "inputs": [
        {
          "internalType": "address",
          "name": "_rewards",
          "type": "address"
        },
        {
          "internalType": "uint256",
          "name": "_rewardsPerBlock",
          "type": "uint256"
        },
        {
          "internalType": "uint256",
          "name": "_startBlock",
          "type": "uint256"
        },
        {
          "internalType": "address",
          "name": "_devaddr",
          "type": "address"
        },
        {
          "internalType": "address",
          "name": "_admin",
          "type": "address"
        }
      ],
      "name": "initFarm",
      "outputs": [],
      "stateMutability": "nonpayable",
      "type": "function"
    },
    {
      "inputs": [
        {
          "internalType": "bytes",
          "name": "_data",
          "type": "bytes"
        }
      ],
      "name": "initFarm",
      "outputs": [],
      "stateMutability": "nonpayable",
      "type": "function"
    },
    {
      "inputs": [],
      "name": "massUpdatePools",
      "outputs": [],
      "stateMutability": "nonpayable",
      "type": "function"
    },
    {
      "inputs": [
        {
          "internalType": "uint256",
          "name": "_pid",
          "type": "uint256"
        },
        {
          "internalType": "address",
          "name": "_user",
          "type": "address"
        }
      ],
      "name": "pendingRewards",
      "outputs": [
        {
          "internalType": "uint256",
          "name": "",
          "type": "uint256"
        }
      ],
      "stateMutability": "view",
      "type": "function"
    },
    {
      "inputs": [
        {
          "internalType": "uint256",
          "name": "",
          "type": "uint256"
        }
      ],
      "name": "poolInfo",
      "outputs": [
        {
          "internalType": "contract IERC20",
          "name": "lpToken",
          "type": "address"
        },
        {
          "internalType": "uint256",
          "name": "allocPoint",
          "type": "uint256"
        },
        {
          "internalType": "uint256",
          "name": "lastRewardBlock",
          "type": "uint256"
        },
        {
          "internalType": "uint256",
          "name": "accRewardsPerShare",
          "type": "uint256"
        }
      ],
      "stateMutability": "view",
      "type": "function"
    },
    {
      "inputs": [],
      "name": "poolLength",
      "outputs": [
        {
          "internalType": "uint256",
          "name": "",
          "type": "uint256"
        }
      ],
      "stateMutability": "view",
      "type": "function"
    },
    {
      "inputs": [
        {
          "internalType": "address",
          "name": "_address",
          "type": "address"
        }
      ],
      "name": "removeAdminRole",
      "outputs": [],
      "stateMutability": "nonpayable",
      "type": "function"
    },
    {
      "inputs": [
        {
          "internalType": "address",
          "name": "_address",
          "type": "address"
        }
      ],
      "name": "removeMinterRole",
      "outputs": [],
      "stateMutability": "nonpayable",
      "type": "function"
    },
    {
      "inputs": [
        {
          "internalType": "address",
          "name": "_address",
          "type": "address"
        }
      ],
      "name": "removeOperatorRole",
      "outputs": [],
      "stateMutability": "nonpayable",
      "type": "function"
    },
    {
      "inputs": [
        {
          "internalType": "address",
          "name": "_address",
          "type": "address"
        }
      ],
      "name": "removeSmartContractRole",
      "outputs": [],
      "stateMutability": "nonpayable",
      "type": "function"
    },
    {
      "inputs": [
        {
          "internalType": "bytes32",
          "name": "role",
          "type": "bytes32"
        },
        {
          "internalType": "address",
          "name": "account",
          "type": "address"
        }
      ],
      "name": "renounceRole",
      "outputs": [],
      "stateMutability": "nonpayable",
      "type": "function"
    },
    {
      "inputs": [
        {
          "internalType": "bytes32",
          "name": "role",
          "type": "bytes32"
        },
        {
          "internalType": "address",
          "name": "account",
          "type": "address"
        }
      ],
      "name": "revokeRole",
      "outputs": [],
      "stateMutability": "nonpayable",
      "type": "function"
    },
    {
      "inputs": [],
      "name": "rewards",
      "outputs": [
        {
          "internalType": "contract IERC20",
          "name": "",
          "type": "address"
        }
      ],
      "stateMutability": "view",
      "type": "function"
    },
    {
      "inputs": [],
      "name": "rewardsPerBlock",
      "outputs": [
        {
          "internalType": "uint256",
          "name": "",
          "type": "uint256"
        }
      ],
      "stateMutability": "view",
      "type": "function"
    },
    {
      "inputs": [
        {
          "internalType": "uint256",
          "name": "_pid",
          "type": "uint256"
        },
        {
          "internalType": "uint256",
          "name": "_allocPoint",
          "type": "uint256"
        },
        {
          "internalType": "bool",
          "name": "_withUpdate",
          "type": "bool"
        }
      ],
      "name": "set",
      "outputs": [],
      "stateMutability": "nonpayable",
      "type": "function"
    },
    {
      "inputs": [
        {
          "internalType": "uint256",
          "name": "_bonusEndBlock",
          "type": "uint256"
        },
        {
          "internalType": "uint256",
          "name": "_bonusMultiplier",
          "type": "uint256"
        }
      ],
      "name": "setBonus",
      "outputs": [],
      "stateMutability": "nonpayable",
      "type": "function"
    },
    {
      "inputs": [
        {
          "internalType": "uint256",
          "name": "_devPercentage",
          "type": "uint256"
        }
      ],
      "name": "setDevPercentage",
      "outputs": [],
      "stateMutability": "nonpayable",
      "type": "function"
    },
    {
      "inputs": [],
      "name": "startBlock",
      "outputs": [
        {
          "internalType": "uint256",
          "name": "",
          "type": "uint256"
        }
      ],
      "stateMutability": "view",
      "type": "function"
    },
    {
      "inputs": [],
      "name": "tips",
      "outputs": [
        {
          "internalType": "uint256",
          "name": "",
          "type": "uint256"
        }
      ],
      "stateMutability": "view",
      "type": "function"
    },
    {
      "inputs": [],
      "name": "tokenDebt",
      "outputs": [
        {
          "internalType": "uint256",
          "name": "",
          "type": "uint256"
        }
      ],
      "stateMutability": "view",
      "type": "function"
    },
    {
      "inputs": [],
      "name": "tokensRemaining",
      "outputs": [
        {
          "internalType": "uint256",
          "name": "",
          "type": "uint256"
        }
      ],
      "stateMutability": "view",
      "type": "function"
    },
    {
      "inputs": [],
      "name": "totalAllocPoint",
      "outputs": [
        {
          "internalType": "uint256",
          "name": "",
          "type": "uint256"
        }
      ],
      "stateMutability": "view",
      "type": "function"
    },
    {
      "inputs": [],
      "name": "totalRewardDebt",
      "outputs": [
        {
          "internalType": "uint256",
          "name": "",
          "type": "uint256"
        }
      ],
      "stateMutability": "view",
      "type": "function"
    },
    {
      "inputs": [
        {
          "internalType": "uint256",
          "name": "_pid",
          "type": "uint256"
        }
      ],
      "name": "updatePool",
      "outputs": [],
      "stateMutability": "nonpayable",
      "type": "function"
    },
    {
      "inputs": [
        {
          "internalType": "uint256",
          "name": "",
          "type": "uint256"
        },
        {
          "internalType": "address",
          "name": "",
          "type": "address"
        }
      ],
      "name": "userInfo",
      "outputs": [
        {
          "internalType": "uint256",
          "name": "amount",
          "type": "uint256"
        },
        {
          "internalType": "uint256",
          "name": "rewardDebt",
          "type": "uint256"
        }
      ],
      "stateMutability": "view",
      "type": "function"
    },
    {
      "inputs": [
        {
          "internalType": "uint256",
          "name": "_pid",
          "type": "uint256"
        },
        {
          "internalType": "uint256",
          "name": "_amount",
          "type": "uint256"
        }
      ],
      "name": "withdraw",
      "outputs": [],
      "stateMutability": "nonpayable",
      "type": "function"
    }
  ],
  "bytecode": "0x608060405234801561001057600080fd5b5061477b806100206000396000f3fe608060405234801561001057600080fd5b50600436106103835760003560e01c8063857d2608116101de578063c395fcb31161010f578063d5391393116100ad578063e2bbb1581161007c578063e2bbb15814610a48578063e6594abd14610a64578063f5b541a614610a80578063fc4e3e0a14610a9e57610383565b8063d5391393146109d6578063d547741f146109f4578063d69de7e714610a10578063dccfe31014610a2c57610383565b8063ca15c873116100e9578063ca15c8731461093a578063d08635801461096a578063d18df53c14610988578063d49e77cd146109b857610383565b8063c395fcb3146108ce578063c3a43824146108fe578063c8b081251461091c57610383565b80639478941c1161017c578063a8b973a111610156578063a8b973a114610848578063adbf377614610866578063b7928b1d14610882578063bd7aef241461089e57610383565b80639478941c146107f05780639ec5a8941461080c578063a217fddf1461082a57610383565b80638dbb1e3a116101b85780638dbb1e3a1461072f5780639010d07c1461075f57806391d148541461078f57806393f1a40b146107bf57610383565b8063857d2608146106d95780638a845fc0146106f75780638d88a90e1461071357610383565b806336568abe116102b85780635befdbca1161025657806364482f791161023057806364482f79146106675780636595171c14610683578063824fa8211461069f57806383bb3877146106bb57610383565b80635befdbca146106235780635eeb67101461063f578063630b5ba11461065d57610383565b806348cd4cb11161029257806348cd4cb1146105b157806351eb05a6146105cf5780635312ea8e146105eb57806354f1e1261461060757610383565b806336568abe1461055d5780633f16431a14610579578063441a3e701461059557610383565b806317caf6f111610325578063248a9ca3116102ff578063248a9ca3146104d75780632c77f656146105075780632f2ff15d146105255780632f4a7e511461054157610383565b806317caf6f11461047d5780631a4e1e781461049b5780631aed6553146104b957610383565b8063099db01711610361578063099db017146103cc578063113b0ab2146103fc5780631526fe271461042c578063158cb2741461045f57610383565b8063037c99b01461038857806306af3dfd146103a4578063081e3eda146103ae575b600080fd5b6103a2600480360381019061039d919061374e565b610ace565b005b6103ac610b28565b005b6103b6610c3b565b6040516103c39190613f3c565b60405180910390f35b6103e660048036038101906103e1919061344b565b610c48565b6040516103f39190613c22565b60405180910390f35b6104166004803603810190610411919061344b565b610c7b565b6040516104239190613c22565b60405180910390f35b61044660048036038101906104419190613671565b610cae565b6040516104569493929190613c95565b60405180910390f35b610467610d0e565b6040516104749190613f3c565b60405180910390f35b610485610d2c565b6040516104929190613f3c565b60405180910390f35b6104a3610d32565b6040516104b09190613f3c565b60405180910390f35b6104c1610d38565b6040516104ce9190613f3c565b60405180910390f35b6104f160048036038101906104ec919061358b565b610d3e565b6040516104fe9190613c3d565b60405180910390f35b61050f610d5d565b60405161051c9190613f3c565b60405180910390f35b61053f600480360381019061053a91906135b4565b610d62565b005b61055b60048036038101906105569190613671565b610dd5565b005b610577600480360381019061057291906135b4565b610e6f565b005b610593600480360381019061058e919061344b565b610ef2565b005b6105af60048036038101906105aa919061374e565b610f80565b005b6105b96111f3565b6040516105c69190613f3c565b60405180910390f35b6105e960048036038101906105e49190613671565b6111f9565b005b61060560048036038101906106009190613671565b611438565b005b610621600480360381019061061c919061344b565b611599565b005b61063d600480360381019061063891906134eb565b611627565b005b610647611703565b6040516106549190613f3c565b60405180910390f35b610665611709565b005b610681600480360381019061067c919061378a565b61173c565b005b61069d6004803603810190610698919061344b565b611860565b005b6106b960048036038101906106b4919061362c565b6118d1565b005b6106c3611908565b6040516106d09190613f3c565b60405180910390f35b6106e161190e565b6040516106ee9190613c3d565b60405180910390f35b610711600480360381019061070c919061344b565b611932565b005b61072d6004803603810190610728919061344b565b6119c0565b005b6107496004803603810190610744919061374e565b611a94565b6040516107569190613f3c565b60405180910390f35b610779600480360381019061077491906135f0565b611b7b565b6040516107869190613b54565b60405180910390f35b6107a960048036038101906107a491906135b4565b611bac565b6040516107b69190613c22565b60405180910390f35b6107d960048036038101906107d491906136c3565b611bdd565b6040516107e7929190613f57565b60405180910390f35b61080a6004803603810190610805919061344b565b611c0e565b005b610814611c9c565b6040516108219190613c7a565b60405180910390f35b610832611cc0565b60405161083f9190613c3d565b60405180910390f35b610850611cc7565b60405161085d9190613f3c565b60405180910390f35b610880600480360381019061087b919061344b565b611ccd565b005b61089c6004803603810190610897919061344b565b611d5b565b005b6108b860048036038101906108b391906134eb565b611de9565b6040516108c59190613c58565b60405180910390f35b6108e860048036038101906108e3919061344b565b611e1e565b6040516108f59190613c22565b60405180910390f35b610906611e34565b6040516109139190613f3c565b60405180910390f35b610924611e3a565b6040516109319190613f3c565b60405180910390f35b610954600480360381019061094f919061358b565b611eea565b6040516109619190613f3c565b60405180910390f35b610972611f10565b60405161097f9190613f3c565b60405180910390f35b6109a2600480360381019061099d91906136c3565b611fca565b6040516109af9190613f3c565b60405180910390f35b6109c0612224565b6040516109cd9190613b54565b60405180910390f35b6109de61224a565b6040516109eb9190613c3d565b60405180910390f35b610a0e6004803603810190610a0991906135b4565b61226e565b005b610a2a6004803603810190610a2591906136ff565b6122e1565b005b610a466004803603810190610a41919061344b565b61243a565b005b610a626004803603810190610a5d919061374e565b6124ab565b005b610a7e6004803603810190610a79919061344b565b6126e7565b005b610a88612761565b604051610a959190613c3d565b60405180910390f35b610ab86004803603810190610ab3919061344b565b612785565b604051610ac59190613c22565b60405180910390f35b610ad733611e1e565b610b16576040517f08c379a0000000000000000000000000000000000000000000000000000000008152600401610b0d90613e7c565b60405180910390fd5b81600581905550806007819055505050565b600260009054906101000a900473ffffffffffffffffffffffffffffffffffffffff1673ffffffffffffffffffffffffffffffffffffffff163373ffffffffffffffffffffffffffffffffffffffff1614610bb8576040517f08c379a0000000000000000000000000000000000000000000000000000000008152600401610baf90613e1c565b60405180910390fd5b600060045411610bfd576040517f08c379a0000000000000000000000000000000000000000000000000000000008152600401610bf490613efc565b60405180910390fd5b600060045490506000600481905550610c38600260009054906101000a900473ffffffffffffffffffffffffffffffffffffffff16826127b8565b50565b6000600a80549050905090565b6000610c747f9f2df0fed2c77648de5860a4cc508cd0818c85b8b8a1ab4ceeef8d981c8956a683611bac565b9050919050565b6000610ca77f9d49f397ae9ef1a834b569acb967799a367061e305932181a44f5773da873bfd83611bac565b9050919050565b600a8181548110610cbe57600080fd5b90600052602060002090600402016000915090508060000160009054906101000a900473ffffffffffffffffffffffffffffffffffffffff16908060010154908060020154908060030154905084565b6000610d276004546008546128ce90919063ffffffff16565b905090565b600c5481565b60045481565b60055481565b6000806000838152602001908152602001600020600201549050919050565b600181565b610d8860008084815260200190815260200160002060020154610d8361292c565b611bac565b610dc7576040517f08c379a0000000000000000000000000000000000000000000000000000000008152600401610dbe90613d3c565b60405180910390fd5b610dd18282612934565b5050565b600260009054906101000a900473ffffffffffffffffffffffffffffffffffffffff1673ffffffffffffffffffffffffffffffffffffffff163373ffffffffffffffffffffffffffffffffffffffff1614610e65576040517f08c379a0000000000000000000000000000000000000000000000000000000008152600401610e5c90613e1c565b60405180910390fd5b8060038190555050565b610e7761292c565b73ffffffffffffffffffffffffffffffffffffffff168173ffffffffffffffffffffffffffffffffffffffff1614610ee4576040517f08c379a0000000000000000000000000000000000000000000000000000000008152600401610edb90613f1c565b60405180910390fd5b610eee82826129c7565b5050565b610f1c7f9d49f397ae9ef1a834b569acb967799a367061e305932181a44f5773da873bfd82610d62565b610f2461292c565b73ffffffffffffffffffffffffffffffffffffffff168173ffffffffffffffffffffffffffffffffffffffff167f1d5f9ec24c6f91be922ea13ceaad919ad6554a41b5c26087f96289a9baf98ad260405160405180910390a350565b6000600a8381548110610fbc577f4e487b7100000000000000000000000000000000000000000000000000000000600052603260045260246000fd5b906000526020600020906004020190506000600b600085815260200190815260200160002060003373ffffffffffffffffffffffffffffffffffffffff1673ffffffffffffffffffffffffffffffffffffffff16815260200190815260200160002090508281600001541015611067576040517f08c379a000000000000000000000000000000000000000000000000000000000815260040161105e90613ebc565b60405180910390fd5b611070846111f9565b60006110ba82600101546110ac64e8d4a5100061109e87600301548760000154612a5a90919063ffffffff16565b612ad590919063ffffffff16565b612b2d90919063ffffffff16565b905060008111156110eb576110da81600854612b2d90919063ffffffff16565b6008819055506110ea33826127b8565b5b60008411156111635761110b848360000154612b2d90919063ffffffff16565b826000018190555061116233858560000160009054906101000a900473ffffffffffffffffffffffffffffffffffffffff1673ffffffffffffffffffffffffffffffffffffffff16612b869092919063ffffffff16565b5b61119564e8d4a5100061118785600301548560000154612a5a90919063ffffffff16565b612ad590919063ffffffff16565b8260010181905550843373ffffffffffffffffffffffffffffffffffffffff167ff279e6a1f5e320cca91135676d9cb6e44ca8a08c0b88342bcdb1144f6511b568866040516111e49190613f3c565b60405180910390a35050505050565b600d5481565b6000600a8281548110611235577f4e487b7100000000000000000000000000000000000000000000000000000000600052603260045260246000fd5b90600052602060002090600402019050806002015443116112565750611435565b60008160000160009054906101000a900473ffffffffffffffffffffffffffffffffffffffff1673ffffffffffffffffffffffffffffffffffffffff166370a08231306040518263ffffffff1660e01b81526004016112b59190613b54565b60206040518083038186803b1580156112cd57600080fd5b505afa1580156112e1573d6000803e3d6000fd5b505050506040513d601f19601f82011682018060405250810190611305919061369a565b90506000811415611320574382600201819055505050611435565b6000611330836002015443611a94565b90506000611373600c54611365866001015461135760065487612a5a90919063ffffffff16565b612a5a90919063ffffffff16565b612ad590919063ffffffff16565b9050600060035411156113c4576113bd6113ac6103e861139e60035485612a5a90919063ffffffff16565b612ad590919063ffffffff16565b6004546128ce90919063ffffffff16565b6004819055505b6113d9816008546128ce90919063ffffffff16565b60088190555061141f61140c846113fe64e8d4a5100085612a5a90919063ffffffff16565b612ad590919063ffffffff16565b85600301546128ce90919063ffffffff16565b8460030181905550438460020181905550505050505b50565b6000600a8281548110611474577f4e487b7100000000000000000000000000000000000000000000000000000000600052603260045260246000fd5b906000526020600020906004020190506000600b600084815260200190815260200160002060003373ffffffffffffffffffffffffffffffffffffffff1673ffffffffffffffffffffffffffffffffffffffff1681526020019081526020016000209050600081600001549050600082600001819055506000826001018190555061154433828560000160009054906101000a900473ffffffffffffffffffffffffffffffffffffffff1673ffffffffffffffffffffffffffffffffffffffff16612b869092919063ffffffff16565b833373ffffffffffffffffffffffffffffffffffffffff167fbb757047c2b5f3974fe26b7c10f732e7bce710b0952a71082702781e62ae05958360405161158b9190613f3c565b60405180910390a350505050565b6115c37f9f2df0fed2c77648de5860a4cc508cd0818c85b8b8a1ab4ceeef8d981c8956a68261226e565b6115cb61292c565b73ffffffffffffffffffffffffffffffffffffffff168173ffffffffffffffffffffffffffffffffffffffff167f56692a161ffec953ddf9def93b958ea8d1ec95e21b80870c66be91a4374dc4e360405160405180910390a350565b600960009054906101000a900460ff161561164157600080fd5b846001806101000a81548173ffffffffffffffffffffffffffffffffffffffff021916908373ffffffffffffffffffffffffffffffffffffffff1602179055506000600c819055508360068190555082600d8190555081600260006101000a81548173ffffffffffffffffffffffffffffffffffffffff021916908373ffffffffffffffffffffffffffffffffffffffff1602179055506116e1816126e7565b6001600960006101000a81548160ff0219169083151502179055505050505050565b60065481565b6000600a80549050905060005b8181101561173857611727816111f9565b80611731906141a5565b9050611716565b5050565b61174533612785565b611784576040517f08c379a000000000000000000000000000000000000000000000000000000000815260040161177b90613e5c565b60405180910390fd5b801561179357611792611709565b5b611805826117f7600a86815481106117d4577f4e487b7100000000000000000000000000000000000000000000000000000000600052603260045260246000fd5b906000526020600020906004020160010154600c54612b2d90919063ffffffff16565b6128ce90919063ffffffff16565b600c8190555081600a8481548110611846577f4e487b7100000000000000000000000000000000000000000000000000000000600052603260045260246000fd5b906000526020600020906004020160010181905550505050565b61186d6000801b82610d62565b61187561292c565b73ffffffffffffffffffffffffffffffffffffffff168173ffffffffffffffffffffffffffffffffffffffff167f2570ac42fd8b322dc453ada624dc2ed0e9bdd67f16f201a25bbd30468f2aa18760405160405180910390a350565b600080600080600086868101906118e89190613474565b945094509450945094506118ff8585858585611627565b50505050505050565b60085481565b7f9d49f397ae9ef1a834b569acb967799a367061e305932181a44f5773da873bfd81565b61195c7f9d49f397ae9ef1a834b569acb967799a367061e305932181a44f5773da873bfd8261226e565b61196461292c565b73ffffffffffffffffffffffffffffffffffffffff168173ffffffffffffffffffffffffffffffffffffffff167fe5f1aa9e528307345194b88b24a32401c13926e0823060f1049d9b26c0bb62b260405160405180910390a350565b600260009054906101000a900473ffffffffffffffffffffffffffffffffffffffff1673ffffffffffffffffffffffffffffffffffffffff163373ffffffffffffffffffffffffffffffffffffffff1614611a50576040517f08c379a0000000000000000000000000000000000000000000000000000000008152600401611a4790613e1c565b60405180910390fd5b80600260006101000a81548173ffffffffffffffffffffffffffffffffffffffff021916908373ffffffffffffffffffffffffffffffffffffffff16021790555050565b600080611a9f611f10565b9050600080821415611ab657600092505050611b75565b6005548411611aed57611ae6600754611ad88787612b2d90919063ffffffff16565b612a5a90919063ffffffff16565b9050611b63565b6005548510611b1057611b098585612b2d90919063ffffffff16565b9050611b62565b611b5f611b2860055486612b2d90919063ffffffff16565b611b51600754611b4389600554612b2d90919063ffffffff16565b612a5a90919063ffffffff16565b6128ce90919063ffffffff16565b90505b5b81811115611b6f578190505b80925050505b92915050565b6000611ba482600080868152602001908152602001600020600001612bed90919063ffffffff16565b905092915050565b6000611bd582600080868152602001908152602001600020600001612c0790919063ffffffff16565b905092915050565b600b602052816000526040600020602052806000526040600020600091509150508060000154908060010154905082565b611c387f97667070c54ef182b0f5858b034beac1b6f3089aa2d3188bb1e8929f4fa9b9298261226e565b611c4061292c565b73ffffffffffffffffffffffffffffffffffffffff168173ffffffffffffffffffffffffffffffffffffffff167f70b25138b6fadeb9992d18b9653564271823e34b3e3257515d12a6d4b15fcddf60405160405180910390a350565b60018054906101000a900473ffffffffffffffffffffffffffffffffffffffff1681565b6000801b81565b60075481565b611cf77f9f2df0fed2c77648de5860a4cc508cd0818c85b8b8a1ab4ceeef8d981c8956a682610d62565b611cff61292c565b73ffffffffffffffffffffffffffffffffffffffff168173ffffffffffffffffffffffffffffffffffffffff167f0be6ab9784c7401fafb73f7bc47bc67cc4ef8c47a60ad3cb66d1de0353a0784c60405160405180910390a350565b611d857f97667070c54ef182b0f5858b034beac1b6f3089aa2d3188bb1e8929f4fa9b92982610d62565b611d8d61292c565b73ffffffffffffffffffffffffffffffffffffffff168173ffffffffffffffffffffffffffffffffffffffff167f2d45ee102874989882745a26688d0b4fffee125a18df26536b12582c7fde4e1760405160405180910390a350565b60608585858585604051602001611e04959493929190613bcf565b604051602081830303815290604052905095945050505050565b6000611e2d6000801b83611bac565b9050919050565b60035481565b600060018054906101000a900473ffffffffffffffffffffffffffffffffffffffff1673ffffffffffffffffffffffffffffffffffffffff166370a08231306040518263ffffffff1660e01b8152600401611e959190613b54565b60206040518083038186803b158015611ead57600080fd5b505afa158015611ec1573d6000803e3d6000fd5b505050506040513d601f19601f82011682018060405250810190611ee5919061369a565b905090565b6000611f09600080848152602001908152602001600020600001612c37565b9050919050565b6000611f1a610d0e565b611f22611e3a565b11611f305760009050611fc7565b6000611f53611f3d610d0e565b611f45611e3a565b612b2d90919063ffffffff16565b905060006006541115611fc15760006003541115611fab57611fa8611f856103e86003546128ce90919063ffffffff16565b611f9a6103e884612a5a90919063ffffffff16565b612ad590919063ffffffff16565b90505b60065481611fb99190614019565b915050611fc7565b60009150505b90565b600080600a8481548110612007577f4e487b7100000000000000000000000000000000000000000000000000000000600052603260045260246000fd5b906000526020600020906004020190506000600b600086815260200190815260200160002060008573ffffffffffffffffffffffffffffffffffffffff1673ffffffffffffffffffffffffffffffffffffffff168152602001908152602001600020905060008260030154905060008360000160009054906101000a900473ffffffffffffffffffffffffffffffffffffffff1673ffffffffffffffffffffffffffffffffffffffff166370a08231306040518263ffffffff1660e01b81526004016120d39190613b54565b60206040518083038186803b1580156120eb57600080fd5b505afa1580156120ff573d6000803e3d6000fd5b505050506040513d601f19601f82011682018060405250810190612123919061369a565b9050836002015443118015612139575060008114155b156121d457600061214e856002015443611a94565b90506000612191600c54612183886001015461217560065487612a5a90919063ffffffff16565b612a5a90919063ffffffff16565b612ad590919063ffffffff16565b90506121cf6121c0846121b264e8d4a5100085612a5a90919063ffffffff16565b612ad590919063ffffffff16565b856128ce90919063ffffffff16565b935050505b612218836001015461220a64e8d4a510006121fc868860000154612a5a90919063ffffffff16565b612ad590919063ffffffff16565b612b2d90919063ffffffff16565b94505050505092915050565b600260009054906101000a900473ffffffffffffffffffffffffffffffffffffffff1681565b7f9f2df0fed2c77648de5860a4cc508cd0818c85b8b8a1ab4ceeef8d981c8956a681565b6122946000808481526020019081526020016000206002015461228f61292c565b611bac565b6122d3576040517f08c379a00000000000000000000000000000000000000000000000000000000081526004016122ca90613dfc565b60405180910390fd5b6122dd82826129c7565b5050565b6122ea33611e1e565b612329576040517f08c379a000000000000000000000000000000000000000000000000000000000815260040161232090613d7c565b60405180910390fd5b801561233857612337611709565b5b6000600d54431161234b57600d5461234d565b435b905061236484600c546128ce90919063ffffffff16565b600c81905550600a60405180608001604052808573ffffffffffffffffffffffffffffffffffffffff1681526020018681526020018381526020016000815250908060018154018082558091505060019003906000526020600020906004020160009091909190915060008201518160000160006101000a81548173ffffffffffffffffffffffffffffffffffffffff021916908373ffffffffffffffffffffffffffffffffffffffff160217905550602082015181600101556040820151816002015560608201518160030155505050505050565b6124476000801b8261226e565b61244f61292c565b73ffffffffffffffffffffffffffffffffffffffff168173ffffffffffffffffffffffffffffffffffffffff167f21ba1239795d4e22874e3dc55f0a9d7b65bfb23069d32965d7c23be9524ccf9560405160405180910390a350565b6000600a83815481106124e7577f4e487b7100000000000000000000000000000000000000000000000000000000600052603260045260246000fd5b906000526020600020906004020190506000600b600085815260200190815260200160002060003373ffffffffffffffffffffffffffffffffffffffff1673ffffffffffffffffffffffffffffffffffffffff1681526020019081526020016000209050612554846111f9565b6000816000015411156125de5760006125ab826001015461259d64e8d4a5100061258f87600301548760000154612a5a90919063ffffffff16565b612ad590919063ffffffff16565b612b2d90919063ffffffff16565b905060008111156125dc576125cb81600854612b2d90919063ffffffff16565b6008819055506125db33826127b8565b5b505b6000831115612658576126383330858560000160009054906101000a900473ffffffffffffffffffffffffffffffffffffffff1673ffffffffffffffffffffffffffffffffffffffff16612c4c909392919063ffffffff16565b61264f8382600001546128ce90919063ffffffff16565b81600001819055505b61268a64e8d4a5100061267c84600301548460000154612a5a90919063ffffffff16565b612ad590919063ffffffff16565b8160010181905550833373ffffffffffffffffffffffffffffffffffffffff167f90890809c654f11d6e72a28fa60149770a0d11ec6c92319d6ceb2bb0a4ea1a15856040516126d99190613f3c565b60405180910390a350505050565b600160009054906101000a900460ff1615612737576040517f08c379a000000000000000000000000000000000000000000000000000000000815260040161272e90613cfc565b60405180910390fd5b6127446000801b82612cb6565b60018060006101000a81548160ff02191690831515021790555050565b7f97667070c54ef182b0f5858b034beac1b6f3089aa2d3188bb1e8929f4fa9b92981565b60006127b17f97667070c54ef182b0f5858b034beac1b6f3089aa2d3188bb1e8929f4fa9b92983611bac565b9050919050565b600060018054906101000a900473ffffffffffffffffffffffffffffffffffffffff1673ffffffffffffffffffffffffffffffffffffffff166370a08231306040518263ffffffff1660e01b81526004016128139190613b54565b60206040518083038186803b15801561282b57600080fd5b505afa15801561283f573d6000803e3d6000fd5b505050506040513d601f19601f82011682018060405250810190612863919061369a565b90508082111561289d5761289860018054906101000a900473ffffffffffffffffffffffffffffffffffffffff168483612cc4565b6128c9565b6128c860018054906101000a900473ffffffffffffffffffffffffffffffffffffffff168484612cc4565b5b505050565b60008082846128dd9190613fc3565b905083811015612922576040517f08c379a000000000000000000000000000000000000000000000000000000000815260040161291990613d5c565b60405180910390fd5b8091505092915050565b600033905090565b61295b81600080858152602001908152602001600020600001612dc490919063ffffffff16565b156129c35761296861292c565b73ffffffffffffffffffffffffffffffffffffffff168173ffffffffffffffffffffffffffffffffffffffff16837f2f8788117e7eff1d82e926ec794901d17c78024a50270940304540a733656f0d60405160405180910390a45b5050565b6129ee81600080858152602001908152602001600020600001612df490919063ffffffff16565b15612a56576129fb61292c565b73ffffffffffffffffffffffffffffffffffffffff168173ffffffffffffffffffffffffffffffffffffffff16837ff6391f5c32d9c69d2a47ea670b442974b53935d1edc7fd64eb21e047a839171b60405160405180910390a45b5050565b600080831415612a6d5760009050612acf565b60008284612a7b919061404a565b9050828482612a8a9190614019565b14612aca576040517f08c379a0000000000000000000000000000000000000000000000000000000008152600401612ac190613e3c565b60405180910390fd5b809150505b92915050565b6000808211612b19576040517f08c379a0000000000000000000000000000000000000000000000000000000008152600401612b1090613ddc565b60405180910390fd5b8183612b259190614019565b905092915050565b600082821115612b72576040517f08c379a0000000000000000000000000000000000000000000000000000000008152600401612b6990613d9c565b60405180910390fd5b8183612b7e91906140a4565b905092915050565b612be88363a9059cbb8484604051602401612ba2929190613ba6565b6040516020818303038152906040529060e01b6020820180517bffffffffffffffffffffffffffffffffffffffffffffffffffffffff8381831617835250505050612e24565b505050565b6000612bfc8360000183612eeb565b60001c905092915050565b6000612c2f836000018373ffffffffffffffffffffffffffffffffffffffff1660001b612f85565b905092915050565b6000612c4582600001612fa8565b9050919050565b612cb0846323b872dd858585604051602401612c6a93929190613b6f565b6040516020818303038152906040529060e01b6020820180517bffffffffffffffffffffffffffffffffffffffffffffffffffffffff8381831617835250505050612e24565b50505050565b612cc08282612934565b5050565b6000808473ffffffffffffffffffffffffffffffffffffffff1663a9059cbb8585604051602401612cf6929190613ba6565b6040516020818303038152906040529060e01b6020820180517bffffffffffffffffffffffffffffffffffffffffffffffffffffffff8381831617835250505050604051612d449190613b3d565b6000604051808303816000865af19150503d8060008114612d81576040519150601f19603f3d011682016040523d82523d6000602084013e612d86565b606091505b5091509150818015612db45750600081511480612db3575080806020019051810190612db29190613562565b5b5b612dbd57600080fd5b5050505050565b6000612dec836000018373ffffffffffffffffffffffffffffffffffffffff1660001b612fb9565b905092915050565b6000612e1c836000018373ffffffffffffffffffffffffffffffffffffffff1660001b613029565b905092915050565b6000612e86826040518060400160405280602081526020017f5361666545524332303a206c6f772d6c6576656c2063616c6c206661696c65648152508573ffffffffffffffffffffffffffffffffffffffff166131b39092919063ffffffff16565b9050600081511115612ee65780806020019051810190612ea69190613562565b612ee5576040517f08c379a0000000000000000000000000000000000000000000000000000000008152600401612edc90613edc565b60405180910390fd5b5b505050565b600081836000018054905011612f36576040517f08c379a0000000000000000000000000000000000000000000000000000000008152600401612f2d90613d1c565b60405180910390fd5b826000018281548110612f72577f4e487b7100000000000000000000000000000000000000000000000000000000600052603260045260246000fd5b9060005260206000200154905092915050565b600080836001016000848152602001908152602001600020541415905092915050565b600081600001805490509050919050565b6000612fc58383612f85565b61301e578260000182908060018154018082558091505060019003906000526020600020016000909190919091505582600001805490508360010160008481526020019081526020016000208190555060019050613023565b600090505b92915050565b600080836001016000848152602001908152602001600020549050600081146131a757600060018261305b91906140a4565b905060006001866000018054905061307391906140a4565b905060008660000182815481106130b3577f4e487b7100000000000000000000000000000000000000000000000000000000600052603260045260246000fd5b90600052602060002001549050808760000184815481106130fd577f4e487b7100000000000000000000000000000000000000000000000000000000600052603260045260246000fd5b90600052602060002001819055506001836131189190613fc3565b876001016000838152602001908152602001600020819055508660000180548061316b577f4e487b7100000000000000000000000000000000000000000000000000000000600052603160045260246000fd5b600190038181906000526020600020016000905590558660010160008781526020019081526020016000206000905560019450505050506131ad565b60009150505b92915050565b60606131c284846000856131cb565b90509392505050565b606082471015613210576040517f08c379a000000000000000000000000000000000000000000000000000000000815260040161320790613dbc565b60405180910390fd5b613219856132df565b613258576040517f08c379a000000000000000000000000000000000000000000000000000000000815260040161324f90613e9c565b60405180910390fd5b6000808673ffffffffffffffffffffffffffffffffffffffff1685876040516132819190613b3d565b60006040518083038185875af1925050503d80600081146132be576040519150601f19603f3d011682016040523d82523d6000602084013e6132c3565b606091505b50915091506132d38282866132f2565b92505050949350505050565b600080823b905060008111915050919050565b6060831561330257829050613352565b6000835111156133155782518084602001fd5b816040517f08c379a00000000000000000000000000000000000000000000000000000000081526004016133499190613cda565b60405180910390fd5b9392505050565b600081359050613368816146bb565b92915050565b60008135905061337d816146d2565b92915050565b600081359050613392816146e9565b92915050565b6000815190506133a7816146e9565b92915050565b6000813590506133bc81614700565b92915050565b60008083601f8401126133d457600080fd5b8235905067ffffffffffffffff8111156133ed57600080fd5b60208301915083600182028301111561340557600080fd5b9250929050565b60008135905061341b81614717565b92915050565b6000813590506134308161472e565b92915050565b6000815190506134458161472e565b92915050565b60006020828403121561345d57600080fd5b600061346b84828501613359565b91505092915050565b600080600080600060a0868803121561348c57600080fd5b600061349a8882890161336e565b95505060206134ab88828901613421565b94505060406134bc88828901613421565b93505060606134cd8882890161336e565b92505060806134de8882890161336e565b9150509295509295909350565b600080600080600060a0868803121561350357600080fd5b600061351188828901613359565b955050602061352288828901613421565b945050604061353388828901613421565b935050606061354488828901613359565b925050608061355588828901613359565b9150509295509295909350565b60006020828403121561357457600080fd5b600061358284828501613398565b91505092915050565b60006020828403121561359d57600080fd5b60006135ab848285016133ad565b91505092915050565b600080604083850312156135c757600080fd5b60006135d5858286016133ad565b92505060206135e685828601613359565b9150509250929050565b6000806040838503121561360357600080fd5b6000613611858286016133ad565b925050602061362285828601613421565b9150509250929050565b6000806020838503121561363f57600080fd5b600083013567ffffffffffffffff81111561365957600080fd5b613665858286016133c2565b92509250509250929050565b60006020828403121561368357600080fd5b600061369184828501613421565b91505092915050565b6000602082840312156136ac57600080fd5b60006136ba84828501613436565b91505092915050565b600080604083850312156136d657600080fd5b60006136e485828601613421565b92505060206136f585828601613359565b9150509250929050565b60008060006060848603121561371457600080fd5b600061372286828701613421565b93505060206137338682870161340c565b925050604061374486828701613383565b9150509250925092565b6000806040838503121561376157600080fd5b600061376f85828601613421565b925050602061378085828601613421565b9150509250929050565b60008060006060848603121561379f57600080fd5b60006137ad86828701613421565b93505060206137be86828701613421565b92505060406137cf86828701613383565b9150509250925092565b6137e2816140d8565b82525050565b6137f1816140fc565b82525050565b61380081614108565b82525050565b600061381182613f80565b61381b8185613f96565b935061382b818560208601614172565b6138348161424c565b840191505092915050565b600061384a82613f80565b6138548185613fa7565b9350613864818560208601614172565b80840191505092915050565b6138798161414e565b82525050565b600061388a82613f8b565b6138948185613fb2565b93506138a4818560208601614172565b6138ad8161424c565b840191505092915050565b60006138c5601383613fb2565b91506138d08261425d565b602082019050919050565b60006138e8602283613fb2565b91506138f382614286565b604082019050919050565b600061390b602f83613fb2565b9150613916826142d5565b604082019050919050565b600061392e601b83613fb2565b915061393982614324565b602082019050919050565b6000613951602983613fb2565b915061395c8261434d565b604082019050919050565b6000613974601e83613fb2565b915061397f8261439c565b602082019050919050565b6000613997602683613fb2565b91506139a2826143c5565b604082019050919050565b60006139ba601a83613fb2565b91506139c582614414565b602082019050919050565b60006139dd603083613fb2565b91506139e88261443d565b604082019050919050565b6000613a00600983613fb2565b9150613a0b8261448c565b602082019050919050565b6000613a23602183613fb2565b9150613a2e826144b5565b604082019050919050565b6000613a46602483613fb2565b9150613a5182614504565b604082019050919050565b6000613a69602983613fb2565b9150613a7482614553565b604082019050919050565b6000613a8c601d83613fb2565b9150613a97826145a2565b602082019050919050565b6000613aaf601283613fb2565b9150613aba826145cb565b602082019050919050565b6000613ad2602a83613fb2565b9150613add826145f4565b604082019050919050565b6000613af5600a83613fb2565b9150613b0082614643565b602082019050919050565b6000613b18602f83613fb2565b9150613b238261466c565b604082019050919050565b613b3781614144565b82525050565b6000613b49828461383f565b915081905092915050565b6000602082019050613b6960008301846137d9565b92915050565b6000606082019050613b8460008301866137d9565b613b9160208301856137d9565b613b9e6040830184613b2e565b949350505050565b6000604082019050613bbb60008301856137d9565b613bc86020830184613b2e565b9392505050565b600060a082019050613be460008301886137d9565b613bf16020830187613b2e565b613bfe6040830186613b2e565b613c0b60608301856137d9565b613c1860808301846137d9565b9695505050505050565b6000602082019050613c3760008301846137e8565b92915050565b6000602082019050613c5260008301846137f7565b92915050565b60006020820190508181036000830152613c728184613806565b905092915050565b6000602082019050613c8f6000830184613870565b92915050565b6000608082019050613caa6000830187613870565b613cb76020830186613b2e565b613cc46040830185613b2e565b613cd16060830184613b2e565b95945050505050565b60006020820190508181036000830152613cf4818461387f565b905092915050565b60006020820190508181036000830152613d15816138b8565b9050919050565b60006020820190508181036000830152613d35816138db565b9050919050565b60006020820190508181036000830152613d55816138fe565b9050919050565b60006020820190508181036000830152613d7581613921565b9050919050565b60006020820190508181036000830152613d9581613944565b9050919050565b60006020820190508181036000830152613db581613967565b9050919050565b60006020820190508181036000830152613dd58161398a565b9050919050565b60006020820190508181036000830152613df5816139ad565b9050919050565b60006020820190508181036000830152613e15816139d0565b9050919050565b60006020820190508181036000830152613e35816139f3565b9050919050565b60006020820190508181036000830152613e5581613a16565b9050919050565b60006020820190508181036000830152613e7581613a39565b9050919050565b60006020820190508181036000830152613e9581613a5c565b9050919050565b60006020820190508181036000830152613eb581613a7f565b9050919050565b60006020820190508181036000830152613ed581613aa2565b9050919050565b60006020820190508181036000830152613ef581613ac5565b9050919050565b60006020820190508181036000830152613f1581613ae8565b9050919050565b60006020820190508181036000830152613f3581613b0b565b9050919050565b6000602082019050613f516000830184613b2e565b92915050565b6000604082019050613f6c6000830185613b2e565b613f796020830184613b2e565b9392505050565b600081519050919050565b600081519050919050565b600082825260208201905092915050565b600081905092915050565b600082825260208201905092915050565b6000613fce82614144565b9150613fd983614144565b9250827fffffffffffffffffffffffffffffffffffffffffffffffffffffffffffffffff0382111561400e5761400d6141ee565b5b828201905092915050565b600061402482614144565b915061402f83614144565b92508261403f5761403e61421d565b5b828204905092915050565b600061405582614144565b915061406083614144565b9250817fffffffffffffffffffffffffffffffffffffffffffffffffffffffffffffffff0483118215151615614099576140986141ee565b5b828202905092915050565b60006140af82614144565b91506140ba83614144565b9250828210156140cd576140cc6141ee565b5b828203905092915050565b60006140e382614124565b9050919050565b60006140f582614124565b9050919050565b60008115159050919050565b6000819050919050565b600061411d826140d8565b9050919050565b600073ffffffffffffffffffffffffffffffffffffffff82169050919050565b6000819050919050565b600061415982614160565b9050919050565b600061416b82614124565b9050919050565b60005b83811015614190578082015181840152602081019050614175565b8381111561419f576000848401525b50505050565b60006141b082614144565b91507fffffffffffffffffffffffffffffffffffffffffffffffffffffffffffffffff8214156141e3576141e26141ee565b5b600182019050919050565b7f4e487b7100000000000000000000000000000000000000000000000000000000600052601160045260246000fd5b7f4e487b7100000000000000000000000000000000000000000000000000000000600052601260045260246000fd5b6000601f19601f8301169050919050565b7f416c726561647920696e697469616c6973656400000000000000000000000000600082015250565b7f456e756d657261626c655365743a20696e646578206f7574206f6620626f756e60008201527f6473000000000000000000000000000000000000000000000000000000000000602082015250565b7f416363657373436f6e74726f6c3a2073656e646572206d75737420626520616e60008201527f2061646d696e20746f206772616e740000000000000000000000000000000000602082015250565b7f536166654d6174683a206164646974696f6e206f766572666c6f770000000000600082015250565b7f4d6173746572436865662e616464546f6b656e3a2053656e646572206d75737460008201527f2062652061646d696e0000000000000000000000000000000000000000000000602082015250565b7f536166654d6174683a207375627472616374696f6e206f766572666c6f770000600082015250565b7f416464726573733a20696e73756666696369656e742062616c616e636520666f60008201527f722063616c6c0000000000000000000000000000000000000000000000000000602082015250565b7f536166654d6174683a206469766973696f6e206279207a65726f000000000000600082015250565b7f416363657373436f6e74726f6c3a2073656e646572206d75737420626520616e60008201527f2061646d696e20746f207265766f6b6500000000000000000000000000000000602082015250565b7f6465763a207775743f0000000000000000000000000000000000000000000000600082015250565b7f536166654d6174683a206d756c7469706c69636174696f6e206f766572666c6f60008201527f7700000000000000000000000000000000000000000000000000000000000000602082015250565b7f4d6173746572436865662e7365743a2053656e646572206d757374206265206160008201527f646d696e00000000000000000000000000000000000000000000000000000000602082015250565b7f4d6173746572436865662e736574426f6e75733a2053656e646572206d75737460008201527f2062652061646d696e0000000000000000000000000000000000000000000000602082015250565b7f416464726573733a2063616c6c20746f206e6f6e2d636f6e7472616374000000600082015250565b7f77697468647261773a206e6f7420676f6f640000000000000000000000000000600082015250565b7f5361666545524332303a204552433230206f7065726174696f6e20646964206e60008201527f6f74207375636365656400000000000000000000000000000000000000000000602082015250565b7f6465763a2062726f6b6500000000000000000000000000000000000000000000600082015250565b7f416363657373436f6e74726f6c3a2063616e206f6e6c792072656e6f756e636560008201527f20726f6c657320666f722073656c660000000000000000000000000000000000602082015250565b6146c4816140d8565b81146146cf57600080fd5b50565b6146db816140ea565b81146146e657600080fd5b50565b6146f2816140fc565b81146146fd57600080fd5b50565b61470981614108565b811461471457600080fd5b50565b61472081614112565b811461472b57600080fd5b50565b61473781614144565b811461474257600080fd5b5056fea2646970667358221220bac92b6c61b16420e3ccc8beedd8fa1c40c21aff4840c56f899ddb66db5cab1864736f6c63430008040033",
  "linkReferences": {},
  "deployedLinkReferences": {}
}