{
  "_format": "hh-sol-artifact-1",
  "contractName": "MISOMarket",
  "sourceName": "contracts/MISOMarket.sol",
  "abi": [
    {
      "inputs": [],
      "stateMutability": "nonpayable",
      "type": "constructor"
    },
    {
      "anonymous": false,
      "inputs": [
        {
          "indexed": false,
          "internalType": "address",
          "name": "newAuction",
          "type": "address"
        },
        {
          "indexed": false,
          "internalType": "uint256",
          "name": "templateId",
          "type": "uint256"
        }
      ],
      "name": "AuctionTemplateAdded",
      "type": "event"
    },
    {
      "anonymous": false,
      "inputs": [
        {
          "indexed": false,
          "internalType": "address",
          "name": "auction",
          "type": "address"
        },
        {
          "indexed": false,
          "internalType": "uint256",
          "name": "templateId",
          "type": "uint256"
        }
      ],
      "name": "AuctionTemplateRemoved",
      "type": "event"
    },
    {
      "anonymous": false,
      "inputs": [
        {
          "indexed": true,
          "internalType": "address",
          "name": "owner",
          "type": "address"
        },
        {
          "indexed": true,
          "internalType": "address",
          "name": "addr",
          "type": "address"
        },
        {
          "indexed": false,
          "internalType": "address",
          "name": "marketTemplate",
          "type": "address"
        }
      ],
      "name": "MarketCreated",
      "type": "event"
    },
    {
      "anonymous": false,
      "inputs": [
        {
          "indexed": false,
          "internalType": "address",
          "name": "sender",
          "type": "address"
        }
      ],
      "name": "MisoInitMarket",
      "type": "event"
    },
    {
      "inputs": [],
      "name": "MARKET_MINTER_ROLE",
      "outputs": [
        {
          "internalType": "bytes32",
          "name": "",
          "type": "bytes32"
        }
      ],
      "stateMutability": "view",
      "type": "function"
    },
    {
      "inputs": [],
      "name": "accessControls",
      "outputs": [
        {
          "internalType": "contract MISOAccessControls",
          "name": "",
          "type": "address"
        }
      ],
      "stateMutability": "view",
      "type": "function"
    },
    {
      "inputs": [
        {
          "internalType": "address",
          "name": "_template",
          "type": "address"
        }
      ],
      "name": "addAuctionTemplate",
      "outputs": [],
      "stateMutability": "nonpayable",
      "type": "function"
    },
    {
      "inputs": [
        {
          "internalType": "address",
          "name": "",
          "type": "address"
        }
      ],
      "name": "auctionInfo",
      "outputs": [
        {
          "internalType": "bool",
          "name": "exists",
          "type": "bool"
        },
        {
          "internalType": "uint64",
          "name": "templateId",
          "type": "uint64"
        },
        {
          "internalType": "uint128",
          "name": "index",
          "type": "uint128"
        }
      ],
      "stateMutability": "view",
      "type": "function"
    },
    {
      "inputs": [],
      "name": "auctionTemplateId",
      "outputs": [
        {
          "internalType": "uint256",
          "name": "",
          "type": "uint256"
        }
      ],
      "stateMutability": "view",
      "type": "function"
    },
    {
      "inputs": [
        {
          "internalType": "uint256",
          "name": "",
          "type": "uint256"
        }
      ],
      "name": "auctions",
      "outputs": [
        {
          "internalType": "address",
          "name": "",
          "type": "address"
        }
      ],
      "stateMutability": "view",
      "type": "function"
    },
    {
      "inputs": [],
      "name": "bentoBox",
      "outputs": [
        {
          "internalType": "contract IBentoBoxFactory",
          "name": "",
          "type": "address"
        }
      ],
      "stateMutability": "view",
      "type": "function"
    },
    {
      "inputs": [
        {
          "internalType": "uint256",
          "name": "_templateId",
          "type": "uint256"
        },
        {
          "internalType": "address",
          "name": "_token",
          "type": "address"
        },
        {
          "internalType": "uint256",
          "name": "_tokenSupply",
          "type": "uint256"
        },
        {
          "internalType": "address payable",
          "name": "_integratorFeeAccount",
          "type": "address"
        },
        {
          "internalType": "bytes",
          "name": "_data",
          "type": "bytes"
        }
      ],
      "name": "createMarket",
      "outputs": [
        {
          "internalType": "address",
          "name": "newMarket",
          "type": "address"
        }
      ],
      "stateMutability": "payable",
      "type": "function"
    },
    {
      "inputs": [
        {
          "internalType": "uint256",
          "name": "",
          "type": "uint256"
        }
      ],
      "name": "currentTemplateId",
      "outputs": [
        {
          "internalType": "uint256",
          "name": "",
          "type": "uint256"
        }
      ],
      "stateMutability": "view",
      "type": "function"
    },
    {
      "inputs": [
        {
          "internalType": "uint256",
          "name": "_templateId",
          "type": "uint256"
        },
        {
          "internalType": "address payable",
          "name": "_integratorFeeAccount",
          "type": "address"
        }
      ],
      "name": "deployMarket",
      "outputs": [
        {
          "internalType": "address",
          "name": "newMarket",
          "type": "address"
        }
      ],
      "stateMutability": "payable",
      "type": "function"
    },
    {
      "inputs": [
        {
          "internalType": "uint256",
          "name": "_templateId",
          "type": "uint256"
        }
      ],
      "name": "getAuctionTemplate",
      "outputs": [
        {
          "internalType": "address",
          "name": "",
          "type": "address"
        }
      ],
      "stateMutability": "view",
      "type": "function"
    },
    {
      "inputs": [
        {
          "internalType": "address",
          "name": "_auction",
          "type": "address"
        }
      ],
      "name": "getMarketTemplateId",
      "outputs": [
        {
          "internalType": "uint64",
          "name": "",
          "type": "uint64"
        }
      ],
      "stateMutability": "view",
      "type": "function"
    },
    {
      "inputs": [],
      "name": "getMarkets",
      "outputs": [
        {
          "internalType": "address[]",
          "name": "",
          "type": "address[]"
        }
      ],
      "stateMutability": "view",
      "type": "function"
    },
    {
      "inputs": [
        {
          "internalType": "address",
          "name": "_auctionTemplate",
          "type": "address"
        }
      ],
      "name": "getTemplateId",
      "outputs": [
        {
          "internalType": "uint256",
          "name": "",
          "type": "uint256"
        }
      ],
      "stateMutability": "view",
      "type": "function"
    },
    {
      "inputs": [
        {
          "internalType": "address",
          "name": "_address",
          "type": "address"
        }
      ],
      "name": "hasMarketMinterRole",
      "outputs": [
        {
          "internalType": "bool",
          "name": "",
          "type": "bool"
        }
      ],
      "stateMutability": "view",
      "type": "function"
    },
    {
      "inputs": [
        {
          "internalType": "address",
          "name": "_accessControls",
          "type": "address"
        },
        {
          "internalType": "address",
          "name": "_bentoBox",
          "type": "address"
        },
        {
          "internalType": "address[]",
          "name": "_templates",
          "type": "address[]"
        }
      ],
      "name": "initMISOMarket",
      "outputs": [],
      "stateMutability": "nonpayable",
      "type": "function"
    },
    {
      "inputs": [],
      "name": "locked",
      "outputs": [
        {
          "internalType": "bool",
          "name": "",
          "type": "bool"
        }
      ],
      "stateMutability": "view",
      "type": "function"
    },
    {
      "inputs": [],
      "name": "marketFees",
      "outputs": [
        {
          "internalType": "uint128",
          "name": "minimumFee",
          "type": "uint128"
        },
        {
          "internalType": "uint32",
          "name": "integratorFeePct",
          "type": "uint32"
        }
      ],
      "stateMutability": "view",
      "type": "function"
    },
    {
      "inputs": [],
      "name": "minimumFee",
      "outputs": [
        {
          "internalType": "uint128",
          "name": "",
          "type": "uint128"
        }
      ],
      "stateMutability": "view",
      "type": "function"
    },
    {
      "inputs": [],
      "name": "misoDiv",
      "outputs": [
        {
          "internalType": "address payable",
          "name": "",
          "type": "address"
        }
      ],
      "stateMutability": "view",
      "type": "function"
    },
    {
      "inputs": [],
      "name": "numberOfAuctions",
      "outputs": [
        {
          "internalType": "uint256",
          "name": "",
          "type": "uint256"
        }
      ],
      "stateMutability": "view",
      "type": "function"
    },
    {
      "inputs": [
        {
          "internalType": "uint256",
          "name": "_templateId",
          "type": "uint256"
        }
      ],
      "name": "removeAuctionTemplate",
      "outputs": [],
      "stateMutability": "nonpayable",
      "type": "function"
    },
    {
      "inputs": [
        {
          "internalType": "uint256",
          "name": "_templateType",
          "type": "uint256"
        },
        {
          "internalType": "uint256",
          "name": "_templateId",
          "type": "uint256"
        }
      ],
      "name": "setCurrentTemplateId",
      "outputs": [],
      "stateMutability": "nonpayable",
      "type": "function"
    },
    {
      "inputs": [
        {
          "internalType": "address payable",
          "name": "_divaddr",
          "type": "address"
        }
      ],
      "name": "setDividends",
      "outputs": [],
      "stateMutability": "nonpayable",
      "type": "function"
    },
    {
      "inputs": [
        {
          "internalType": "uint256",
          "name": "_amount",
          "type": "uint256"
        }
      ],
      "name": "setIntegratorFeePct",
      "outputs": [],
      "stateMutability": "nonpayable",
      "type": "function"
    },
    {
      "inputs": [
        {
          "internalType": "bool",
          "name": "_locked",
          "type": "bool"
        }
      ],
      "name": "setLocked",
      "outputs": [],
      "stateMutability": "nonpayable",
      "type": "function"
    },
    {
      "inputs": [
        {
          "internalType": "uint256",
          "name": "_amount",
          "type": "uint256"
        }
      ],
      "name": "setMinimumFee",
      "outputs": [],
      "stateMutability": "nonpayable",
      "type": "function"
    }
  ],
  "bytecode": "0x608060405234801561001057600080fd5b50613ba3806100206000396000f3fe60806040526004361061019c5760003560e01c80636b2ace87116100ec578063aa1bd2f61161008a578063c9907b0811610064578063c9907b08146105e7578063cf30901214610612578063d335ebda1461063d578063ec2c90161461067a5761019c565b8063aa1bd2f614610551578063b034349314610581578063b9551d14146105be5761019c565b80639e5940cc116100c65780639e5940cc146104aa5780639e9188ea146104d35780639edbd90a146104fc578063a5fd7565146105285761019c565b80636b2ace87146104295780636c2eefe114610454578063748365ef1461047f5761019c565b80632ed4f578116101595780634b939ed7116101335780634b939ed7146103595780634f5f2a451461039657806350d9d472146103c1578063571a26a0146103ec5761019c565b80632ed4f578146102b6578063390467b6146102f35780633f1f44b0146103305761019c565b80630448e51a146101a1578063182a7506146101e05780631a7626e714610209578063211e28b614610234578063274a22581461025d57806328e58e4f14610286575b600080fd5b3480156101ad57600080fd5b506101c860048036038101906101c39190612844565b6106a5565b6040516101d793929190612fc6565b60405180910390f35b3480156101ec57600080fd5b5061020760048036038101906102029190612978565b61070c565b005b34801561021557600080fd5b5061021e61083b565b60405161022b919061329b565b60405180910390f35b34801561024057600080fd5b5061025b60048036038101906102569190612926565b610864565b005b34801561026957600080fd5b50610284600480360381019061027f91906128bf565b610969565b005b6102a0600480360381019061029b91906129ca565b610bc7565b6040516102ad9190612eb7565b60405180910390f35b3480156102c257600080fd5b506102dd60048036038101906102d89190612978565b61133a565b6040516102ea91906132df565b60405180910390f35b3480156102ff57600080fd5b5061031a60048036038101906103159190612844565b611352565b6040516103279190612fab565b60405180910390f35b34801561033c57600080fd5b5061035760048036038101906103529190612978565b611427565b005b34801561036557600080fd5b50610380600480360381019061037b9190612978565b611583565b60405161038d9190612eb7565b60405180910390f35b3480156103a257600080fd5b506103ab6115c0565b6040516103b89190612ffd565b60405180910390f35b3480156103cd57600080fd5b506103d66115e4565b6040516103e391906132df565b60405180910390f35b3480156103f857600080fd5b50610413600480360381019061040e9190612978565b6115f1565b6040516104209190612eb7565b60405180910390f35b34801561043557600080fd5b5061043e611630565b60405161044b9190613065565b60405180910390f35b34801561046057600080fd5b50610469611656565b60405161047691906132df565b60405180910390f35b34801561048b57600080fd5b5061049461165c565b6040516104a19190613080565b60405180910390f35b3480156104b657600080fd5b506104d160048036038101906104cc9190612a98565b611680565b005b3480156104df57600080fd5b506104fa60048036038101906104f59190612896565b611784565b005b34801561050857600080fd5b506105116118ea565b60405161051f9291906132b6565b60405180910390f35b34801561053457600080fd5b5061054f600480360381019061054a9190612844565b611928565b005b61056b60048036038101906105669190612a06565b611acc565b6040516105789190612eb7565b60405180910390f35b34801561058d57600080fd5b506105a860048036038101906105a39190612844565b611cdf565b6040516105b591906132fa565b60405180910390f35b3480156105ca57600080fd5b506105e560048036038101906105e09190612978565b611d3f565b005b3480156105f357600080fd5b506105fc611fe2565b6040516106099190612ed2565b60405180910390f35b34801561061e57600080fd5b50610627612008565b6040516106349190612fab565b60405180910390f35b34801561064957600080fd5b50610664600480360381019061065f9190612844565b61201b565b60405161067191906132df565b60405180910390f35b34801561068657600080fd5b5061068f612064565b60405161069c9190612f89565b60405180910390f35b60076020528060005260406000206000915090508060000160009054906101000a900460ff16908060000160019054906101000a900467ffffffffffffffff16908060000160099054906101000a90046fffffffffffffffffffffffffffffffff16905083565b60008054906101000a900473ffffffffffffffffffffffffffffffffffffffff1673ffffffffffffffffffffffffffffffffffffffff1663c395fcb3336040518263ffffffff1660e01b81526004016107659190612eb7565b60206040518083038186803b15801561077d57600080fd5b505afa158015610791573d6000803e3d6000fd5b505050506040513d601f19601f820116820180604052508101906107b5919061294f565b6107f4576040517f08c379a00000000000000000000000000000000000000000000000000000000081526004016107eb906130bb565b60405180910390fd5b6107fd816120f2565b600860000160006101000a8154816fffffffffffffffffffffffffffffffff02191690836fffffffffffffffffffffffffffffffff16021790555050565b6000600860000160009054906101000a90046fffffffffffffffffffffffffffffffff16905090565b60008054906101000a900473ffffffffffffffffffffffffffffffffffffffff1673ffffffffffffffffffffffffffffffffffffffff1663c395fcb3336040518263ffffffff1660e01b81526004016108bd9190612eb7565b60206040518083038186803b1580156108d557600080fd5b505afa1580156108e9573d6000803e3d6000fd5b505050506040513d601f19601f8201168201806040525081019061090d919061294f565b61094c576040517f08c379a00000000000000000000000000000000000000000000000000000000081526004016109439061327b565b60405180910390fd5b80600960006101000a81548160ff02191690831515021790555050565b600060149054906101000a900460ff161561098357600080fd5b600073ffffffffffffffffffffffffffffffffffffffff168373ffffffffffffffffffffffffffffffffffffffff1614156109f3576040517f08c379a00000000000000000000000000000000000000000000000000000000081526004016109ea9061311b565b60405180910390fd5b600073ffffffffffffffffffffffffffffffffffffffff168273ffffffffffffffffffffffffffffffffffffffff161415610a63576040517f08c379a0000000000000000000000000000000000000000000000000000000008152600401610a5a906130db565b60405180910390fd5b826000806101000a81548173ffffffffffffffffffffffffffffffffffffffff021916908373ffffffffffffffffffffffffffffffffffffffff16021790555081600360006101000a81548173ffffffffffffffffffffffffffffffffffffffff021916908373ffffffffffffffffffffffffffffffffffffffff160217905550600060028190555060005b8151811015610b5457610b41828281518110610b34577f4e487b7100000000000000000000000000000000000000000000000000000000600052603260045260246000fd5b6020026020010151612151565b8080610b4c906135f5565b915050610aef565b506001600960006101000a81548160ff0219169083151502179055506001600060146101000a81548160ff0219169083151502179055507f9728848f268715c9f5810670481aba9b347f34c21407e902d679356b7617b6b233604051610bba9190612eb7565b60405180910390a1505050565b6000600960009054906101000a900460ff1615610d875760008054906101000a900473ffffffffffffffffffffffffffffffffffffffff1673ffffffffffffffffffffffffffffffffffffffff1663c395fcb3336040518263ffffffff1660e01b8152600401610c379190612eb7565b60206040518083038186803b158015610c4f57600080fd5b505afa158015610c63573d6000803e3d6000fd5b505050506040513d601f19601f82011682018060405250810190610c87919061294f565b80610d37575060008054906101000a900473ffffffffffffffffffffffffffffffffffffffff1673ffffffffffffffffffffffffffffffffffffffff1663099db017336040518263ffffffff1660e01b8152600401610ce69190612eb7565b60206040518083038186803b158015610cfe57600080fd5b505afa158015610d12573d6000803e3d6000fd5b505050506040513d601f19601f82011682018060405250810190610d36919061294f565b5b80610d475750610d4633611352565b5b610d86576040517f08c379a0000000000000000000000000000000000000000000000000000000008152600401610d7d9061325b565b60405180910390fd5b5b600060086040518060400160405290816000820160009054906101000a90046fffffffffffffffffffffffffffffffff166fffffffffffffffffffffffffffffffff166fffffffffffffffffffffffffffffffff1681526020016000820160109054906101000a900463ffffffff1663ffffffff1663ffffffff1681525050905060006004600086815260200190815260200160002060009054906101000a900473ffffffffffffffffffffffffffffffffffffffff16905081600001516fffffffffffffffffffffffffffffffff16341015610e99576040517f08c379a0000000000000000000000000000000000000000000000000000000008152600401610e909061323b565b60405180910390fd5b600073ffffffffffffffffffffffffffffffffffffffff168173ffffffffffffffffffffffffffffffffffffffff161415610f09576040517f08c379a0000000000000000000000000000000000000000000000000000000008152600401610f009061317b565b60405180910390fd5b600080349050600073ffffffffffffffffffffffffffffffffffffffff168673ffffffffffffffffffffffffffffffffffffffff1614158015610f9a5750600960019054906101000a900473ffffffffffffffffffffffffffffffffffffffff1673ffffffffffffffffffffffffffffffffffffffff168673ffffffffffffffffffffffffffffffffffffffff1614155b15610fd3576103e8846020015163ffffffff1682610fb89190613408565b610fc291906133d7565b91508181610fd09190613462565b90505b600360009054906101000a900473ffffffffffffffffffffffffffffffffffffffff1673ffffffffffffffffffffffffffffffffffffffff16631f54245b8460006040518363ffffffff1660e01b8152600401611031929190612f24565b602060405180830381600087803b15801561104b57600080fd5b505af115801561105f573d6000803e3d6000fd5b505050506040513d601f19601f82011682018060405250810190611083919061286d565b945060405180606001604052806001151581526020016110a289612425565b67ffffffffffffffff1681526020016110bf6001805490506120f2565b6fffffffffffffffffffffffffffffffff16815250600760008773ffffffffffffffffffffffffffffffffffffffff1673ffffffffffffffffffffffffffffffffffffffff16815260200190815260200160002060008201518160000160006101000a81548160ff02191690831515021790555060208201518160000160016101000a81548167ffffffffffffffff021916908367ffffffffffffffff16021790555060408201518160000160096101000a8154816fffffffffffffffffffffffffffffffff02191690836fffffffffffffffffffffffffffffffff1602179055509050506001859080600181540180825580915050600190039060005260206000200160009091909190916101000a81548173ffffffffffffffffffffffffffffffffffffffff021916908373ffffffffffffffffffffffffffffffffffffffff1602179055508473ffffffffffffffffffffffffffffffffffffffff163373ffffffffffffffffffffffffffffffffffffffff167fe63e6130091e2155004c4b5ac35e8fb9be704d6637ff3068a8f710ba36c9f41a856040516112649190612eb7565b60405180910390a360008111156112df57600960019054906101000a900473ffffffffffffffffffffffffffffffffffffffff1673ffffffffffffffffffffffffffffffffffffffff166108fc829081150290604051600060405180830381858888f193505050501580156112dd573d6000803e3d6000fd5b505b6000821115611330578573ffffffffffffffffffffffffffffffffffffffff166108fc839081150290604051600060405180830381858888f1935050505015801561132e573d6000803e3d6000fd5b505b5050505092915050565b60066020528060005260406000206000915090505481565b60008060009054906101000a900473ffffffffffffffffffffffffffffffffffffffff1673ffffffffffffffffffffffffffffffffffffffff166391d148547f185f85149db0f205130703941d0f9ccd8133e50df5d5080231c7704337aa2c38846040518363ffffffff1660e01b81526004016113d0929190613018565b60206040518083038186803b1580156113e857600080fd5b505afa1580156113fc573d6000803e3d6000fd5b505050506040513d601f19601f82011682018060405250810190611420919061294f565b9050919050565b60008054906101000a900473ffffffffffffffffffffffffffffffffffffffff1673ffffffffffffffffffffffffffffffffffffffff1663c395fcb3336040518263ffffffff1660e01b81526004016114809190612eb7565b60206040518083038186803b15801561149857600080fd5b505afa1580156114ac573d6000803e3d6000fd5b505050506040513d601f19601f820116820180604052508101906114d0919061294f565b61150f576040517f08c379a0000000000000000000000000000000000000000000000000000000008152600401611506906130bb565b60405180910390fd5b6103e8811115611554576040517f08c379a000000000000000000000000000000000000000000000000000000000815260040161154b9061315b565b60405180910390fd5b61155d8161247c565b600860000160106101000a81548163ffffffff021916908363ffffffff16021790555050565b60006004600083815260200190815260200160002060009054906101000a900473ffffffffffffffffffffffffffffffffffffffff169050919050565b7f185f85149db0f205130703941d0f9ccd8133e50df5d5080231c7704337aa2c3881565b6000600180549050905090565b6001818154811061160157600080fd5b906000526020600020016000915054906101000a900473ffffffffffffffffffffffffffffffffffffffff1681565b600360009054906101000a900473ffffffffffffffffffffffffffffffffffffffff1681565b60025481565b60008054906101000a900473ffffffffffffffffffffffffffffffffffffffff1681565b60008054906101000a900473ffffffffffffffffffffffffffffffffffffffff1673ffffffffffffffffffffffffffffffffffffffff1663c395fcb3336040518263ffffffff1660e01b81526004016116d99190612eb7565b60206040518083038186803b1580156116f157600080fd5b505afa158015611705573d6000803e3d6000fd5b505050506040513d601f19601f82011682018060405250810190611729919061294f565b611768576040517f08c379a000000000000000000000000000000000000000000000000000000000815260040161175f9061327b565b60405180910390fd5b8060066000848152602001908152602001600020819055505050565b60008054906101000a900473ffffffffffffffffffffffffffffffffffffffff1673ffffffffffffffffffffffffffffffffffffffff1663c395fcb3336040518263ffffffff1660e01b81526004016117dd9190612eb7565b60206040518083038186803b1580156117f557600080fd5b505afa158015611809573d6000803e3d6000fd5b505050506040513d601f19601f8201168201806040525081019061182d919061294f565b61186c576040517f08c379a00000000000000000000000000000000000000000000000000000000081526004016118639061309b565b60405180910390fd5b600073ffffffffffffffffffffffffffffffffffffffff168173ffffffffffffffffffffffffffffffffffffffff1614156118a657600080fd5b80600960016101000a81548173ffffffffffffffffffffffffffffffffffffffff021916908373ffffffffffffffffffffffffffffffffffffffff16021790555050565b60088060000160009054906101000a90046fffffffffffffffffffffffffffffffff16908060000160109054906101000a900463ffffffff16905082565b60008054906101000a900473ffffffffffffffffffffffffffffffffffffffff1673ffffffffffffffffffffffffffffffffffffffff1663c395fcb3336040518263ffffffff1660e01b81526004016119819190612eb7565b60206040518083038186803b15801561199957600080fd5b505afa1580156119ad573d6000803e3d6000fd5b505050506040513d601f19601f820116820180604052508101906119d1919061294f565b80611a81575060008054906101000a900473ffffffffffffffffffffffffffffffffffffffff1673ffffffffffffffffffffffffffffffffffffffff1663fc4e3e0a336040518263ffffffff1660e01b8152600401611a309190612eb7565b60206040518083038186803b158015611a4857600080fd5b505afa158015611a5c573d6000803e3d6000fd5b505050506040513d601f19601f82011682018060405250810190611a80919061294f565b5b611ac0576040517f08c379a0000000000000000000000000000000000000000000000000000000008152600401611ab7906130bb565b60405180910390fd5b611ac981612151565b50565b6000611ad88785610bc7565b90506000851115611bbb57611aee8633876124cf565b8573ffffffffffffffffffffffffffffffffffffffff1663095ea7b382876040518363ffffffff1660e01b8152600401611b29929190612f60565b602060405180830381600087803b158015611b4357600080fd5b505af1158015611b57573d6000803e3d6000fd5b505050506040513d601f19601f82011682018060405250810190611b7b919061294f565b611bba576040517f08c379a0000000000000000000000000000000000000000000000000000000008152600401611bb1906131db565b60405180910390fd5b5b8073ffffffffffffffffffffffffffffffffffffffff166381353c8e84846040518363ffffffff1660e01b8152600401611bf6929190613041565b600060405180830381600087803b158015611c1057600080fd5b505af1158015611c24573d6000803e3d6000fd5b505050506000851115611cd55760008673ffffffffffffffffffffffffffffffffffffffff166370a08231306040518263ffffffff1660e01b8152600401611c6c9190612eb7565b60206040518083038186803b158015611c8457600080fd5b505afa158015611c98573d6000803e3d6000fd5b505050506040513d601f19601f82011682018060405250810190611cbc91906129a1565b90506000811115611cd357611cd28733836125d1565b5b505b9695505050505050565b6000600760008373ffffffffffffffffffffffffffffffffffffffff1673ffffffffffffffffffffffffffffffffffffffff16815260200190815260200160002060000160019054906101000a900467ffffffffffffffff169050919050565b60008054906101000a900473ffffffffffffffffffffffffffffffffffffffff1673ffffffffffffffffffffffffffffffffffffffff1663c395fcb3336040518263ffffffff1660e01b8152600401611d989190612eb7565b60206040518083038186803b158015611db057600080fd5b505afa158015611dc4573d6000803e3d6000fd5b505050506040513d601f19601f82011682018060405250810190611de8919061294f565b80611e98575060008054906101000a900473ffffffffffffffffffffffffffffffffffffffff1673ffffffffffffffffffffffffffffffffffffffff1663fc4e3e0a336040518263ffffffff1660e01b8152600401611e479190612eb7565b60206040518083038186803b158015611e5f57600080fd5b505afa158015611e73573d6000803e3d6000fd5b505050506040513d601f19601f82011682018060405250810190611e97919061294f565b5b611ed7576040517f08c379a0000000000000000000000000000000000000000000000000000000008152600401611ece906130bb565b60405180910390fd5b60006004600083815260200190815260200160002060009054906101000a900473ffffffffffffffffffffffffffffffffffffffff16905060006004600084815260200190815260200160002060006101000a81548173ffffffffffffffffffffffffffffffffffffffff021916908373ffffffffffffffffffffffffffffffffffffffff160217905550600560008273ffffffffffffffffffffffffffffffffffffffff1673ffffffffffffffffffffffffffffffffffffffff168152602001908152602001600020600090557f9e451d330e5bb7320c38b55046b66305a869486110a27e84e383b9b2a329875b8183604051611fd6929190612f60565b60405180910390a15050565b600960019054906101000a900473ffffffffffffffffffffffffffffffffffffffff1681565b600960009054906101000a900460ff1681565b6000600560008373ffffffffffffffffffffffffffffffffffffffff1673ffffffffffffffffffffffffffffffffffffffff168152602001908152602001600020549050919050565b606060018054806020026020016040519081016040528092919081815260200182805480156120e857602002820191906000526020600020905b8160009054906101000a900473ffffffffffffffffffffffffffffffffffffffff1673ffffffffffffffffffffffffffffffffffffffff168152602001906001019080831161209e575b5050505050905090565b60006fffffffffffffffffffffffffffffffff8016821115612149576040517f08c379a00000000000000000000000000000000000000000000000000000000081526004016121409061313b565b60405180910390fd5b819050919050565b6000600560008373ffffffffffffffffffffffffffffffffffffffff1673ffffffffffffffffffffffffffffffffffffffff16815260200190815260200160002054146121d3576040517f08c379a00000000000000000000000000000000000000000000000000000000081526004016121ca906131bb565b60405180910390fd5b6000600560008373ffffffffffffffffffffffffffffffffffffffff1673ffffffffffffffffffffffffffffffffffffffff1681526020019081526020016000205414612255576040517f08c379a000000000000000000000000000000000000000000000000000000000815260040161224c906131fb565b60405180910390fd5b60008173ffffffffffffffffffffffffffffffffffffffff16631b3e460e6040518163ffffffff1660e01b815260040160206040518083038186803b15801561229d57600080fd5b505afa1580156122b1573d6000803e3d6000fd5b505050506040513d601f19601f820116820180604052508101906122d591906129a1565b90506000811161231a576040517f08c379a0000000000000000000000000000000000000000000000000000000008152600401612311906130fb565b60405180910390fd5b6002600081548092919061232d906135f5565b91905055508160046000600254815260200190815260200160002060006101000a81548173ffffffffffffffffffffffffffffffffffffffff021916908373ffffffffffffffffffffffffffffffffffffffff160217905550600254600560008473ffffffffffffffffffffffffffffffffffffffff1673ffffffffffffffffffffffffffffffffffffffff1681526020019081526020016000208190555060025460066000838152602001908152602001600020819055507f893e8595c407d2a22d29ff3ba939d15ec3966113ce988bd39c68e4b00350400782600254604051612419929190612f60565b60405180910390a15050565b600067ffffffffffffffff8016821115612474576040517f08c379a000000000000000000000000000000000000000000000000000000000815260040161246b9061319b565b60405180910390fd5b819050919050565b600063ffffffff80168211156124c7576040517f08c379a00000000000000000000000000000000000000000000000000000000081526004016124be9061321b565b60405180910390fd5b819050919050565b6000808473ffffffffffffffffffffffffffffffffffffffff166323b872dd85308660405160240161250393929190612eed565b6040516020818303038152906040529060e01b6020820180517bffffffffffffffffffffffffffffffffffffffffffffffffffffffff83818316178352505050506040516125519190612ea0565b6000604051808303816000865af19150503d806000811461258e576040519150601f19603f3d011682016040523d82523d6000602084013e612593565b606091505b50915091508180156125c157506000815114806125c05750808060200190518101906125bf919061294f565b5b5b6125ca57600080fd5b5050505050565b6000808473ffffffffffffffffffffffffffffffffffffffff1663a9059cbb8585604051602401612603929190612f60565b6040516020818303038152906040529060e01b6020820180517bffffffffffffffffffffffffffffffffffffffffffffffffffffffff83818316178352505050506040516126519190612ea0565b6000604051808303816000865af19150503d806000811461268e576040519150601f19603f3d011682016040523d82523d6000602084013e612693565b606091505b50915091508180156126c157506000815114806126c05750808060200190518101906126bf919061294f565b5b5b6126ca57600080fd5b5050505050565b60006126e46126df8461333a565b613315565b9050808382526020820190508285602086028201111561270357600080fd5b60005b858110156127335781612719888261273d565b845260208401935060208301925050600181019050612706565b5050509392505050565b60008135905061274c81613b11565b92915050565b60008151905061276181613b11565b92915050565b60008135905061277681613b28565b92915050565b600082601f83011261278d57600080fd5b813561279d8482602086016126d1565b91505092915050565b6000813590506127b581613b3f565b92915050565b6000815190506127ca81613b3f565b92915050565b60008083601f8401126127e257600080fd5b8235905067ffffffffffffffff8111156127fb57600080fd5b60208301915083600182028301111561281357600080fd5b9250929050565b60008135905061282981613b56565b92915050565b60008151905061283e81613b56565b92915050565b60006020828403121561285657600080fd5b60006128648482850161273d565b91505092915050565b60006020828403121561287f57600080fd5b600061288d84828501612752565b91505092915050565b6000602082840312156128a857600080fd5b60006128b684828501612767565b91505092915050565b6000806000606084860312156128d457600080fd5b60006128e28682870161273d565b93505060206128f38682870161273d565b925050604084013567ffffffffffffffff81111561291057600080fd5b61291c8682870161277c565b9150509250925092565b60006020828403121561293857600080fd5b6000612946848285016127a6565b91505092915050565b60006020828403121561296157600080fd5b600061296f848285016127bb565b91505092915050565b60006020828403121561298a57600080fd5b60006129988482850161281a565b91505092915050565b6000602082840312156129b357600080fd5b60006129c18482850161282f565b91505092915050565b600080604083850312156129dd57600080fd5b60006129eb8582860161281a565b92505060206129fc85828601612767565b9150509250929050565b60008060008060008060a08789031215612a1f57600080fd5b6000612a2d89828a0161281a565b9650506020612a3e89828a0161273d565b9550506040612a4f89828a0161281a565b9450506060612a6089828a01612767565b935050608087013567ffffffffffffffff811115612a7d57600080fd5b612a8989828a016127d0565b92509250509295509295509295565b60008060408385031215612aab57600080fd5b6000612ab98582860161281a565b9250506020612aca8582860161281a565b9150509250929050565b6000612ae08383612afb565b60208301905092915050565b612af5816134a8565b82525050565b612b0481613496565b82525050565b612b1381613496565b82525050565b6000612b2482613376565b612b2e8185613399565b9350612b3983613366565b8060005b83811015612b6a578151612b518882612ad4565b9750612b5c8361338c565b925050600181019050612b3d565b5085935050505092915050565b612b80816134ba565b82525050565b612b8f816134c6565b82525050565b6000612ba183856133aa565b9350612bae838584613582565b612bb7836136cb565b840190509392505050565b6000612bcd82613381565b612bd781856133bb565b9350612be7818560208601613591565b80840191505092915050565b612bfc8161353a565b82525050565b612c0b8161355e565b82525050565b6000612c1e602a836133c6565b9150612c29826136dc565b604082019050919050565b6000612c416023836133c6565b9150612c4c8261372b565b604082019050919050565b6000612c64602e836133c6565b9150612c6f8261377a565b604082019050919050565b6000612c876024836133c6565b9150612c92826137c9565b604082019050919050565b6000612caa6034836133c6565b9150612cb582613818565b604082019050919050565b6000612ccd601c836133c6565b9150612cd882613867565b602082019050919050565b6000612cf06025836133c6565b9150612cfb82613890565b604082019050919050565b6000612d13602a836133c6565b9150612d1e826138df565b604082019050919050565b6000612d36601b836133c6565b9150612d418261392e565b602082019050919050565b6000612d596000836133aa565b9150612d6482613957565b600082019050919050565b6000612d7c6023836133c6565b9150612d878261395a565b604082019050919050565b6000612d9f6001836133c6565b9150612daa826139a9565b602082019050919050565b6000612dc26022836133c6565b9150612dcd826139d2565b604082019050919050565b6000612de5601b836133c6565b9150612df082613a21565b602082019050919050565b6000612e086029836133c6565b9150612e1382613a4a565b604082019050919050565b6000612e2b602b836133c6565b9150612e3682613a99565b604082019050919050565b6000612e4e6020836133c6565b9150612e5982613ae8565b602082019050919050565b612e6d816134d0565b82525050565b612e7c8161350c565b82525050565b612e8b81613516565b82525050565b612e9a81613526565b82525050565b6000612eac8284612bc2565b915081905092915050565b6000602082019050612ecc6000830184612b0a565b92915050565b6000602082019050612ee76000830184612aec565b92915050565b6000606082019050612f026000830186612b0a565b612f0f6020830185612b0a565b612f1c6040830184612e73565b949350505050565b6000606082019050612f396000830185612b0a565b8181036020830152612f4a81612d4c565b9050612f596040830184612b77565b9392505050565b6000604082019050612f756000830185612b0a565b612f826020830184612e73565b9392505050565b60006020820190508181036000830152612fa38184612b19565b905092915050565b6000602082019050612fc06000830184612b77565b92915050565b6000606082019050612fdb6000830186612b77565b612fe86020830185612e91565b612ff56040830184612e64565b949350505050565b60006020820190506130126000830184612b86565b92915050565b600060408201905061302d6000830185612b86565b61303a6020830184612b0a565b9392505050565b6000602082019050818103600083015261305c818486612b95565b90509392505050565b600060208201905061307a6000830184612bf3565b92915050565b60006020820190506130956000830184612c02565b92915050565b600060208201905081810360008301526130b481612c11565b9050919050565b600060208201905081810360008301526130d481612c34565b9050919050565b600060208201905081810360008301526130f481612c57565b9050919050565b6000602082019050818103600083015261311481612c7a565b9050919050565b6000602082019050818103600083015261313481612c9d565b9050919050565b6000602082019050818103600083015261315481612cc0565b9050919050565b6000602082019050818103600083015261317481612ce3565b9050919050565b6000602082019050818103600083015261319481612d06565b9050919050565b600060208201905081810360008301526131b481612d29565b9050919050565b600060208201905081810360008301526131d481612d6f565b9050919050565b600060208201905081810360008301526131f481612d92565b9050919050565b6000602082019050818103600083015261321481612db5565b9050919050565b6000602082019050818103600083015261323481612dd8565b9050919050565b6000602082019050818103600083015261325481612dfb565b9050919050565b6000602082019050818103600083015261327481612e1e565b9050919050565b6000602082019050818103600083015261329481612e41565b9050919050565b60006020820190506132b06000830184612e64565b92915050565b60006040820190506132cb6000830185612e64565b6132d86020830184612e82565b9392505050565b60006020820190506132f46000830184612e73565b92915050565b600060208201905061330f6000830184612e91565b92915050565b600061331f613330565b905061332b82826135c4565b919050565b6000604051905090565b600067ffffffffffffffff8211156133555761335461369c565b5b602082029050602081019050919050565b6000819050602082019050919050565b600081519050919050565b600081519050919050565b6000602082019050919050565b600082825260208201905092915050565b600082825260208201905092915050565b600081905092915050565b600082825260208201905092915050565b60006133e28261350c565b91506133ed8361350c565b9250826133fd576133fc61366d565b5b828204905092915050565b60006134138261350c565b915061341e8361350c565b9250817fffffffffffffffffffffffffffffffffffffffffffffffffffffffffffffffff04831182151516156134575761345661363e565b5b828202905092915050565b600061346d8261350c565b91506134788361350c565b92508282101561348b5761348a61363e565b5b828203905092915050565b60006134a1826134ec565b9050919050565b60006134b3826134ec565b9050919050565b60008115159050919050565b6000819050919050565b60006fffffffffffffffffffffffffffffffff82169050919050565b600073ffffffffffffffffffffffffffffffffffffffff82169050919050565b6000819050919050565b600063ffffffff82169050919050565b600067ffffffffffffffff82169050919050565b60006135458261354c565b9050919050565b6000613557826134ec565b9050919050565b600061356982613570565b9050919050565b600061357b826134ec565b9050919050565b82818337600083830152505050565b60005b838110156135af578082015181840152602081019050613594565b838111156135be576000848401525b50505050565b6135cd826136cb565b810181811067ffffffffffffffff821117156135ec576135eb61369c565b5b80604052505050565b60006136008261350c565b91507fffffffffffffffffffffffffffffffffffffffffffffffffffffffffffffffff8214156136335761363261363e565b5b600182019050919050565b7f4e487b7100000000000000000000000000000000000000000000000000000000600052601160045260246000fd5b7f4e487b7100000000000000000000000000000000000000000000000000000000600052601260045260246000fd5b7f4e487b7100000000000000000000000000000000000000000000000000000000600052604160045260246000fd5b6000601f19601f8301169050919050565b7f4d49534f4d61726b65742e7365744465763a2053656e646572206d757374206260008201527f65206f70657261746f7200000000000000000000000000000000000000000000602082015250565b7f4d49534f4d61726b65743a2053656e646572206d757374206265206f7065726160008201527f746f720000000000000000000000000000000000000000000000000000000000602082015250565b7f696e69744d49534f4d61726b65743a2062656e746f426f782063616e6e6f742060008201527f62652073657420746f207a65726f000000000000000000000000000000000000602082015250565b7f4d49534f4d61726b65743a20496e636f72726563742074656d706c617465206360008201527f6f64652000000000000000000000000000000000000000000000000000000000602082015250565b7f696e69744d49534f4d61726b65743a20616363657373436f6e74726f6c73206360008201527f616e6e6f742062652073657420746f207a65726f000000000000000000000000602082015250565b7f426f72696e674d6174683a2075696e74313238204f766572666c6f7700000000600082015250565b7f4d49534f4d61726b65743a2050657263656e74616765206973206f7574206f6660008201527f2031303030000000000000000000000000000000000000000000000000000000602082015250565b7f4d49534f4d61726b65743a2041756374696f6e2074656d706c61746520646f6560008201527f736e277420657869737400000000000000000000000000000000000000000000602082015250565b7f426f72696e674d6174683a2075696e743634204f766572666c6f770000000000600082015250565b50565b7f4d49534f4d61726b65743a2054656d706c61746520616c72656164792065786960008201527f7374730000000000000000000000000000000000000000000000000000000000602082015250565b7f3100000000000000000000000000000000000000000000000000000000000000600082015250565b7f4d49534f4d61726b65743a2054656d706c61746520616c72656164792061646460008201527f6564000000000000000000000000000000000000000000000000000000000000602082015250565b7f426f72696e674d6174683a2075696e743332204f766572666c6f770000000000600082015250565b7f4d49534f4d61726b65743a204661696c656420746f207472616e73666572206d60008201527f696e696d756d4665650000000000000000000000000000000000000000000000602082015250565b7f4d49534f4d61726b65743a2053656e646572206d757374206265206d696e746560008201527f72206966206c6f636b6564000000000000000000000000000000000000000000602082015250565b7f4d49534f4d61726b65743a2053656e646572206d7573742062652061646d696e600082015250565b613b1a81613496565b8114613b2557600080fd5b50565b613b31816134a8565b8114613b3c57600080fd5b50565b613b48816134ba565b8114613b5357600080fd5b50565b613b5f8161350c565b8114613b6a57600080fd5b5056fea2646970667358221220cffa99ed9984e40a672b40529326a657badfe9469fae000651460bb923fae06b64736f6c63430008040033",
  "linkReferences": {},
  "deployedLinkReferences": {}
}