{
  "_format": "hh-sol-artifact-1",
  "contractName": "TokenVault",
  "sourceName": "contracts/Vault/TokenVault.sol",
  "abi": [
    {
      "anonymous": false,
      "inputs": [
        {
          "indexed": false,
          "internalType": "address",
          "name": "tokenAddress",
          "type": "address"
        },
        {
          "indexed": false,
          "internalType": "address",
          "name": "user",
          "type": "address"
        },
        {
          "indexed": false,
          "internalType": "uint256",
          "name": "amount",
          "type": "uint256"
        }
      ],
      "name": "onLock",
      "type": "event"
    },
    {
      "anonymous": false,
      "inputs": [
        {
          "indexed": false,
          "internalType": "address",
          "name": "tokenAddress",
          "type": "address"
        },
        {
          "indexed": false,
          "internalType": "uint256",
          "name": "amount",
          "type": "uint256"
        }
      ],
      "name": "onUnlock",
      "type": "event"
    },
    {
      "inputs": [
        {
          "internalType": "uint256",
          "name": "",
          "type": "uint256"
        }
      ],
      "name": "allDepositIds",
      "outputs": [
        {
          "internalType": "uint256",
          "name": "",
          "type": "uint256"
        }
      ],
      "stateMutability": "view",
      "type": "function"
    },
    {
      "inputs": [],
      "name": "depositId",
      "outputs": [
        {
          "internalType": "uint256",
          "name": "",
          "type": "uint256"
        }
      ],
      "stateMutability": "view",
      "type": "function"
    },
    {
      "inputs": [
        {
          "internalType": "uint256",
          "name": "_index",
          "type": "uint256"
        },
        {
          "internalType": "address",
          "name": "_tokenAddress",
          "type": "address"
        },
        {
          "internalType": "address",
          "name": "_user",
          "type": "address"
        }
      ],
      "name": "getItemAtUserIndex",
      "outputs": [
        {
          "internalType": "uint256",
          "name": "",
          "type": "uint256"
        },
        {
          "internalType": "uint256",
          "name": "",
          "type": "uint256"
        },
        {
          "internalType": "address",
          "name": "",
          "type": "address"
        },
        {
          "internalType": "uint256",
          "name": "",
          "type": "uint256"
        }
      ],
      "stateMutability": "view",
      "type": "function"
    },
    {
      "inputs": [
        {
          "internalType": "uint256",
          "name": "_id",
          "type": "uint256"
        }
      ],
      "name": "getLockedItemAtId",
      "outputs": [
        {
          "internalType": "uint256",
          "name": "",
          "type": "uint256"
        },
        {
          "internalType": "uint256",
          "name": "",
          "type": "uint256"
        },
        {
          "internalType": "address",
          "name": "",
          "type": "address"
        },
        {
          "internalType": "uint256",
          "name": "",
          "type": "uint256"
        }
      ],
      "stateMutability": "view",
      "type": "function"
    },
    {
      "inputs": [
        {
          "internalType": "address",
          "name": "_user",
          "type": "address"
        },
        {
          "internalType": "uint256",
          "name": "_index",
          "type": "uint256"
        }
      ],
      "name": "getUserLockedItemAtIndex",
      "outputs": [
        {
          "internalType": "address",
          "name": "",
          "type": "address"
        }
      ],
      "stateMutability": "view",
      "type": "function"
    },
    {
      "inputs": [
        {
          "internalType": "address",
          "name": "_tokenAddress",
          "type": "address"
        },
        {
          "internalType": "uint256",
          "name": "_amount",
          "type": "uint256"
        },
        {
          "internalType": "uint256",
          "name": "_unlockTime",
          "type": "uint256"
        },
        {
          "internalType": "address payable",
          "name": "_withdrawer",
          "type": "address"
        }
      ],
      "name": "lockTokens",
      "outputs": [
        {
          "internalType": "uint256",
          "name": "_id",
          "type": "uint256"
        }
      ],
      "stateMutability": "nonpayable",
      "type": "function"
    },
    {
      "inputs": [
        {
          "internalType": "uint256",
          "name": "",
          "type": "uint256"
        }
      ],
      "name": "lockedItem",
      "outputs": [
        {
          "internalType": "uint256",
          "name": "amount",
          "type": "uint256"
        },
        {
          "internalType": "uint256",
          "name": "unlockTime",
          "type": "uint256"
        },
        {
          "internalType": "address",
          "name": "owner",
          "type": "address"
        },
        {
          "internalType": "uint256",
          "name": "userIndex",
          "type": "uint256"
        }
      ],
      "stateMutability": "view",
      "type": "function"
    },
    {
      "inputs": [
        {
          "internalType": "address",
          "name": "_tokenAddress",
          "type": "address"
        },
        {
          "internalType": "uint256",
          "name": "_index",
          "type": "uint256"
        },
        {
          "internalType": "uint256",
          "name": "_id",
          "type": "uint256"
        },
        {
          "internalType": "uint256",
          "name": "_amount",
          "type": "uint256"
        }
      ],
      "name": "withdrawTokens",
      "outputs": [],
      "stateMutability": "nonpayable",
      "type": "function"
    }
  ],
  "bytecode": "0x608060405234801561001057600080fd5b506116f5806100206000396000f3fe608060405234801561001057600080fd5b50600436106100885760003560e01c8063402dc2661161005b578063402dc2661461013f57806392f00d261461016f5780639852099c146101a2578063c9028aff146101c057610088565b80630613aea81461008d5780630aa393f3146100c0578063211c7fcd146100f057806322e35e011461010c575b600080fd5b6100a760048036038101906100a29190611076565b6101f0565b6040516100b7949392919061137c565b60405180910390f35b6100da60048036038101906100d59190610f87565b610240565b6040516100e79190611361565b60405180910390f35b61010a60048036038101906101059190610fea565b61052d565b005b61012660048036038101906101219190611076565b610913565b604051610136949392919061137c565b60405180910390f35b61015960048036038101906101549190610f4b565b610974565b6040516101669190611226565b60405180910390f35b6101896004803603810190610184919061109f565b6109d6565b604051610199949392919061137c565b60405180910390f35b6101aa610afb565b6040516101b79190611361565b60405180910390f35b6101da60048036038101906101d59190611076565b610b01565b6040516101e79190611361565b60405180910390f35b60036020528060005260406000206000915090508060000154908060010154908060020160009054906101000a900473ffffffffffffffffffffffffffffffffffffffff16908060030154905084565b6000808411610284576040517f08c379a000000000000000000000000000000000000000000000000000000000815260040161027b90611341565b60405180910390fd5b6402540be40083106102cb576040517f08c379a00000000000000000000000000000000000000000000000000000000081526004016102c2906112c1565b60405180910390fd5b6102d6853386610b25565b6001600081546102e5906114a9565b9190508190559050836003600083815260200190815260200160002060000181905550826003600083815260200190815260200160002060010181905550816003600083815260200190815260200160002060020160006101000a81548173ffffffffffffffffffffffffffffffffffffffff021916908373ffffffffffffffffffffffffffffffffffffffff160217905550600281908060018154018082558091505060019003906000526020600020016000909190919091505560008060008473ffffffffffffffffffffffffffffffffffffffff1673ffffffffffffffffffffffffffffffffffffffff16815260200190815260200160002090506103f98682600101610c2790919063ffffffff16565b508060000160008773ffffffffffffffffffffffffffffffffffffffff1673ffffffffffffffffffffffffffffffffffffffff168152602001908152602001600020829080600181540180825580915050600190039060005260206000200160009091909190915055600060018260000160008973ffffffffffffffffffffffffffffffffffffffff1673ffffffffffffffffffffffffffffffffffffffff168152602001908152602001600020805490506104b591906113e8565b90508060036000858152602001908152602001600020600301819055507fe0896ee63a02ae59823954043dfd52f907878dd98d69cb0f77a9b5c4f48efdaf8733600360008781526020019081526020016000206000015460405161051b93929190611241565b60405180910390a15050949350505050565b60008111610570576040517f08c379a000000000000000000000000000000000000000000000000000000000815260040161056790611341565b60405180910390fd5b60008060003373ffffffffffffffffffffffffffffffffffffffff1673ffffffffffffffffffffffffffffffffffffffff16815260200190815260200160002060000160008673ffffffffffffffffffffffffffffffffffffffff1673ffffffffffffffffffffffffffffffffffffffff1681526020019081526020016000208481548110610628577f4e487b7100000000000000000000000000000000000000000000000000000000600052603260045260246000fd5b90600052602060002001549050600060036000838152602001908152602001600020905083821480156106aa57503373ffffffffffffffffffffffffffffffffffffffff168160020160009054906101000a900473ffffffffffffffffffffffffffffffffffffffff1673ffffffffffffffffffffffffffffffffffffffff16145b6106e9576040517f08c379a00000000000000000000000000000000000000000000000000000000081526004016106e0906112e1565b60405180910390fd5b4281600101541061072f576040517f08c379a000000000000000000000000000000000000000000000000000000000815260040161072690611301565b60405180910390fd5b610746838260000154610c5790919063ffffffff16565b81600001819055506000816000015414156108c75760008060003373ffffffffffffffffffffffffffffffffffffffff1673ffffffffffffffffffffffffffffffffffffffff16815260200190815260200160002060000160008873ffffffffffffffffffffffffffffffffffffffff1673ffffffffffffffffffffffffffffffffffffffff168152602001908152602001600020905080600182805490506107ef91906113e8565b81548110610826577f4e487b7100000000000000000000000000000000000000000000000000000000600052603260045260246000fd5b906000526020600020015481878154811061086a577f4e487b7100000000000000000000000000000000000000000000000000000000600052603260045260246000fd5b9060005260206000200181905550808054806108af577f4e487b7100000000000000000000000000000000000000000000000000000000600052603160045260246000fd5b60019003818190600052602060002001600090559055505b6108d2863385610cb0565b7f75140be428252b59ceb5a81ae184b42fe610b766a7d42b7c7c5e16698b1d08418684604051610903929190611278565b60405180910390a1505050505050565b6000806000806000600360008781526020019081526020016000209050806000015481600101548260020160009054906101000a900473ffffffffffffffffffffffffffffffffffffffff1683600301549450945094509450509193509193565b6000806000808573ffffffffffffffffffffffffffffffffffffffff1673ffffffffffffffffffffffffffffffffffffffff16815260200190815260200160002090506109cd8382600101610db090919063ffffffff16565b91505092915050565b60008060008060008060008773ffffffffffffffffffffffffffffffffffffffff1673ffffffffffffffffffffffffffffffffffffffff16815260200190815260200160002060000160008873ffffffffffffffffffffffffffffffffffffffff1673ffffffffffffffffffffffffffffffffffffffff1681526020019081526020016000208881548110610a94577f4e487b7100000000000000000000000000000000000000000000000000000000600052603260045260246000fd5b906000526020600020015490506000600360008381526020019081526020016000209050806000015481600101548260020160009054906101000a900473ffffffffffffffffffffffffffffffffffffffff16849550955095509550505093509350935093565b60015481565b60028181548110610b1157600080fd5b906000526020600020016000915090505481565b6000808473ffffffffffffffffffffffffffffffffffffffff166323b872dd853086604051602401610b5993929190611241565b6040516020818303038152906040529060e01b6020820180517bffffffffffffffffffffffffffffffffffffffffffffffffffffffff8381831617835250505050604051610ba7919061120f565b6000604051808303816000865af19150503d8060008114610be4576040519150601f19603f3d011682016040523d82523d6000602084013e610be9565b606091505b5091509150818015610c175750600081511480610c16575080806020019051810190610c15919061104d565b5b5b610c2057600080fd5b5050505050565b6000610c4f836000018373ffffffffffffffffffffffffffffffffffffffff1660001b610dca565b905092915050565b600082821115610c9c576040517f08c379a0000000000000000000000000000000000000000000000000000000008152600401610c9390611321565b60405180910390fd5b8183610ca891906113e8565b905092915050565b6000808473ffffffffffffffffffffffffffffffffffffffff1663a9059cbb8585604051602401610ce2929190611278565b6040516020818303038152906040529060e01b6020820180517bffffffffffffffffffffffffffffffffffffffffffffffffffffffff8381831617835250505050604051610d30919061120f565b6000604051808303816000865af19150503d8060008114610d6d576040519150601f19603f3d011682016040523d82523d6000602084013e610d72565b606091505b5091509150818015610da05750600081511480610d9f575080806020019051810190610d9e919061104d565b5b5b610da957600080fd5b5050505050565b6000610dbf8360000183610e3a565b60001c905092915050565b6000610dd68383610ed4565b610e2f578260000182908060018154018082558091505060019003906000526020600020016000909190919091505582600001805490508360010160008481526020019081526020016000208190555060019050610e34565b600090505b92915050565b600081836000018054905011610e85576040517f08c379a0000000000000000000000000000000000000000000000000000000008152600401610e7c906112a1565b60405180910390fd5b826000018281548110610ec1577f4e487b7100000000000000000000000000000000000000000000000000000000600052603260045260246000fd5b9060005260206000200154905092915050565b600080836001016000848152602001908152602001600020541415905092915050565b600081359050610f0681611663565b92915050565b600081359050610f1b8161167a565b92915050565b600081519050610f3081611691565b92915050565b600081359050610f45816116a8565b92915050565b60008060408385031215610f5e57600080fd5b6000610f6c85828601610ef7565b9250506020610f7d85828601610f36565b9150509250929050565b60008060008060808587031215610f9d57600080fd5b6000610fab87828801610ef7565b9450506020610fbc87828801610f36565b9350506040610fcd87828801610f36565b9250506060610fde87828801610f0c565b91505092959194509250565b6000806000806080858703121561100057600080fd5b600061100e87828801610ef7565b945050602061101f87828801610f36565b935050604061103087828801610f36565b925050606061104187828801610f36565b91505092959194509250565b60006020828403121561105f57600080fd5b600061106d84828501610f21565b91505092915050565b60006020828403121561108857600080fd5b600061109684828501610f36565b91505092915050565b6000806000606084860312156110b457600080fd5b60006110c286828701610f36565b93505060206110d386828701610ef7565b92505060406110e486828701610ef7565b9150509250925092565b6110f78161141c565b82525050565b6000611108826113c1565b61111281856113cc565b9350611122818560208601611476565b80840191505092915050565b600061113b6022836113d7565b915061114682611521565b604082019050919050565b600061115e6033836113d7565b915061116982611570565b604082019050919050565b6000611181600d836113d7565b915061118c826115bf565b602082019050919050565b60006111a46010836113d7565b91506111af826115e8565b602082019050919050565b60006111c7601e836113d7565b91506111d282611611565b602082019050919050565b60006111ea6014836113d7565b91506111f58261163a565b602082019050919050565b6112098161146c565b82525050565b600061121b82846110fd565b915081905092915050565b600060208201905061123b60008301846110ee565b92915050565b600060608201905061125660008301866110ee565b61126360208301856110ee565b6112706040830184611200565b949350505050565b600060408201905061128d60008301856110ee565b61129a6020830184611200565b9392505050565b600060208201905081810360008301526112ba8161112e565b9050919050565b600060208201905081810360008301526112da81611151565b9050919050565b600060208201905081810360008301526112fa81611174565b9050919050565b6000602082019050818103600083015261131a81611197565b9050919050565b6000602082019050818103600083015261133a816111ba565b9050919050565b6000602082019050818103600083015261135a816111dd565b9050919050565b60006020820190506113766000830184611200565b92915050565b60006080820190506113916000830187611200565b61139e6020830186611200565b6113ab60408301856110ee565b6113b86060830184611200565b95945050505050565b600081519050919050565b600081905092915050565b600082825260208201905092915050565b60006113f38261146c565b91506113fe8361146c565b925082821015611411576114106114f2565b5b828203905092915050565b60006114278261144c565b9050919050565b60006114398261144c565b9050919050565b60008115159050919050565b600073ffffffffffffffffffffffffffffffffffffffff82169050919050565b6000819050919050565b60005b83811015611494578082015181840152602081019050611479565b838111156114a3576000848401525b50505050565b60006114b48261146c565b91507fffffffffffffffffffffffffffffffffffffffffffffffffffffffffffffffff8214156114e7576114e66114f2565b5b600182019050919050565b7f4e487b7100000000000000000000000000000000000000000000000000000000600052601160045260246000fd5b7f456e756d657261626c655365743a20696e646578206f7574206f6620626f756e60008201527f6473000000000000000000000000000000000000000000000000000000000000602082015250565b7f456e74657220616e20756e69782074696d657374616d7020696e207365636f6e60008201527f64732c206e6f74206d696c697365636f6e647300000000000000000000000000602082015250565b7f4c4f434b204d49534d4154434800000000000000000000000000000000000000600082015250565b7f4e6f7420756e6c6f636b65642079657400000000000000000000000000000000600082015250565b7f536166654d6174683a207375627472616374696f6e206f766572666c6f770000600082015250565b7f746f6b656e20616d6f756e74206973205a65726f000000000000000000000000600082015250565b61166c8161141c565b811461167757600080fd5b50565b6116838161142e565b811461168e57600080fd5b50565b61169a81611440565b81146116a557600080fd5b50565b6116b18161146c565b81146116bc57600080fd5b5056fea264697066735822122082790df6abefe81f6c455f0530ef9c65fd3475e8162bd18894b99da8d49aa19464736f6c63430008040033",
  "linkReferences": {},
  "deployedLinkReferences": {}
}