{
  "_format": "hh-sol-artifact-1",
  "contractName": "TokenVault",
  "sourceName": "contracts/Vault/TokenVault.sol",
  "abi": [
    {
      "anonymous": false,
      "inputs": [
        {
          "indexed": false,
          "internalType": "address",
          "name": "tokenAddress",
          "type": "address"
        },
        {
          "indexed": false,
          "internalType": "address",
          "name": "user",
          "type": "address"
        },
        {
          "indexed": false,
          "internalType": "uint256",
          "name": "amount",
          "type": "uint256"
        }
      ],
      "name": "onLock",
      "type": "event"
    },
    {
      "anonymous": false,
      "inputs": [
        {
          "indexed": false,
          "internalType": "address",
          "name": "tokenAddress",
          "type": "address"
        },
        {
          "indexed": false,
          "internalType": "uint256",
          "name": "amount",
          "type": "uint256"
        }
      ],
      "name": "onUnlock",
      "type": "event"
    },
    {
      "inputs": [
        {
          "internalType": "uint256",
          "name": "",
          "type": "uint256"
        }
      ],
      "name": "allDepositIds",
      "outputs": [
        {
          "internalType": "uint256",
          "name": "",
          "type": "uint256"
        }
      ],
      "stateMutability": "view",
      "type": "function"
    },
    {
      "inputs": [],
      "name": "depositId",
      "outputs": [
        {
          "internalType": "uint256",
          "name": "",
          "type": "uint256"
        }
      ],
      "stateMutability": "view",
      "type": "function"
    },
    {
      "inputs": [
        {
          "internalType": "uint256",
          "name": "_index",
          "type": "uint256"
        },
        {
          "internalType": "address",
          "name": "_tokenAddress",
          "type": "address"
        },
        {
          "internalType": "address",
          "name": "_user",
          "type": "address"
        }
      ],
      "name": "getItemAtUserIndex",
      "outputs": [
        {
          "internalType": "uint256",
          "name": "",
          "type": "uint256"
        },
        {
          "internalType": "uint256",
          "name": "",
          "type": "uint256"
        },
        {
          "internalType": "address",
          "name": "",
          "type": "address"
        },
        {
          "internalType": "uint256",
          "name": "",
          "type": "uint256"
        }
      ],
      "stateMutability": "view",
      "type": "function"
    },
    {
      "inputs": [
        {
          "internalType": "uint256",
          "name": "_id",
          "type": "uint256"
        }
      ],
      "name": "getLockedItemAtId",
      "outputs": [
        {
          "internalType": "uint256",
          "name": "",
          "type": "uint256"
        },
        {
          "internalType": "uint256",
          "name": "",
          "type": "uint256"
        },
        {
          "internalType": "address",
          "name": "",
          "type": "address"
        },
        {
          "internalType": "uint256",
          "name": "",
          "type": "uint256"
        }
      ],
      "stateMutability": "view",
      "type": "function"
    },
    {
      "inputs": [
        {
          "internalType": "address",
          "name": "_user",
          "type": "address"
        },
        {
          "internalType": "uint256",
          "name": "_index",
          "type": "uint256"
        }
      ],
      "name": "getUserLockedItemAtIndex",
      "outputs": [
        {
          "internalType": "address",
          "name": "",
          "type": "address"
        }
      ],
      "stateMutability": "view",
      "type": "function"
    },
    {
      "inputs": [
        {
          "internalType": "address",
          "name": "_tokenAddress",
          "type": "address"
        },
        {
          "internalType": "uint256",
          "name": "_amount",
          "type": "uint256"
        },
        {
          "internalType": "uint256",
          "name": "_unlockTime",
          "type": "uint256"
        },
        {
          "internalType": "address payable",
          "name": "_withdrawer",
          "type": "address"
        }
      ],
      "name": "lockTokens",
      "outputs": [
        {
          "internalType": "uint256",
          "name": "_id",
          "type": "uint256"
        }
      ],
      "stateMutability": "nonpayable",
      "type": "function"
    },
    {
      "inputs": [
        {
          "internalType": "uint256",
          "name": "",
          "type": "uint256"
        }
      ],
      "name": "lockedItem",
      "outputs": [
        {
          "internalType": "uint256",
          "name": "amount",
          "type": "uint256"
        },
        {
          "internalType": "uint256",
          "name": "unlockTime",
          "type": "uint256"
        },
        {
          "internalType": "address",
          "name": "owner",
          "type": "address"
        },
        {
          "internalType": "uint256",
          "name": "userIndex",
          "type": "uint256"
        }
      ],
      "stateMutability": "view",
      "type": "function"
    },
    {
      "inputs": [
        {
          "internalType": "address",
          "name": "_tokenAddress",
          "type": "address"
        },
        {
          "internalType": "uint256",
          "name": "_index",
          "type": "uint256"
        },
        {
          "internalType": "uint256",
          "name": "_id",
          "type": "uint256"
        },
        {
          "internalType": "uint256",
          "name": "_amount",
          "type": "uint256"
        }
      ],
      "name": "withdrawTokens",
      "outputs": [],
      "stateMutability": "nonpayable",
      "type": "function"
    }
  ],
  "bytecode": "0x608060405234801561001057600080fd5b50610c1f806100206000396000f3fe608060405234801561001057600080fd5b50600436106100885760003560e01c8063402dc2661161005b578063402dc2661461017b57806392f00d26146101a65780639852099c146101b9578063c9028aff146101c257600080fd5b80630613aea81461008d5780630aa393f314610105578063211c7fcd1461012657806322e35e011461013b575b600080fd5b6100cd61009b366004610af7565b600360208190526000918252604090912080546001820154600283015492909301549092916001600160a01b03169084565b6040516100fc949392919093845260208401929092526001600160a01b03166040830152606082015260800190565b60405180910390f35b610118610113366004610a54565b6101d5565b6040519081526020016100fc565b610139610134366004610a9d565b61040b565b005b6100cd610149366004610af7565b6000908152600360208190526040909120805460018201546002830154929093015490936001600160a01b0390921691565b61018e610189366004610a29565b61069a565b6040516001600160a01b0390911681526020016100fc565b6100cd6101b4366004610b0f565b6106c9565b61011860015481565b6101186101d0366004610af7565b61075a565b600080841161022b5760405162461bcd60e51b815260206004820152601460248201527f746f6b656e20616d6f756e74206973205a65726f00000000000000000000000060448201526064015b60405180910390fd5b6402540be40083106102a55760405162461bcd60e51b815260206004820152603360248201527f456e74657220616e20756e69782074696d657374616d7020696e207365636f6e60448201527f64732c206e6f74206d696c697365636f6e6473000000000000000000000000006064820152608401610222565b6102b085338661077b565b6001600081546102bf90610ba0565b918290555060008181526003602090815260408083208881556001808201899055600291820180547fffffffffffffffffffffffff0000000000000000000000000000000000000000166001600160a01b038a1690811790915582548083019093557f405787fa12a823e0f2b7631cc41b3ba8828b3321ca811111fa75cd3aa3bb5ace9092018690559084529183905290912091925061036190820187610877565b506001600160a01b0386166000818152602083815260408220805460018181018355828552928420018690559282529154909161039d91610b89565b600084815260036020818152604092839020918201849055905482516001600160a01b038c16815233928101929092528183015290519192507fe0896ee63a02ae59823954043dfd52f907878dd98d69cb0f77a9b5c4f48efdaf919081900360600190a15050949350505050565b6000811161045b5760405162461bcd60e51b815260206004820152601460248201527f746f6b656e20616d6f756e74206973205a65726f0000000000000000000000006044820152606401610222565b336000908152602081815260408083206001600160a01b0388168452909152812080548590811061049c57634e487b7160e01b600052603260045260246000fd5b60009182526020808320909101548083526003909152604090912090915083821480156104d5575060028101546001600160a01b031633145b6105215760405162461bcd60e51b815260206004820152600d60248201527f4c4f434b204d49534d41544348000000000000000000000000000000000000006044820152606401610222565b428160010154106105745760405162461bcd60e51b815260206004820152601060248201527f4e6f7420756e6c6f636b656420796574000000000000000000000000000000006044820152606401610222565b80546105809084610893565b80825561064557336000908152602081815260408083206001600160a01b038a1684529091529020805481906105b890600190610b89565b815481106105d657634e487b7160e01b600052603260045260246000fd5b906000526020600020015481878154811061060157634e487b7160e01b600052603260045260246000fd5b90600052602060002001819055508080548061062d57634e487b7160e01b600052603160045260246000fd5b60019003818190600052602060002001600090559055505b6106508633856108ef565b604080516001600160a01b0388168152602081018590527f75140be428252b59ceb5a81ae184b42fe610b766a7d42b7c7c5e16698b1d0841910160405180910390a1505050505050565b6001600160a01b03821660009081526020819052604081206106bf600182018461091f565b9150505b92915050565b6001600160a01b038082166000908152602081815260408083209386168352929052908120805482918291829182918990811061071657634e487b7160e01b600052603260045260246000fd5b6000918252602080832091909101548083526003909152604090912080546001820154600290920154909b919a506001600160a01b03169850909650945050505050565b6002818154811061076a57600080fd5b600091825260209091200154905081565b6040516001600160a01b0383811660248301523060448301526064820183905260009182918616906323b872dd906084015b6040516020818303038152906040529060e01b6020820180517bffffffffffffffffffffffffffffffffffffffffffffffffffffffff83818316178352505050506040516107fb9190610b50565b6000604051808303816000865af19150503d8060008114610838576040519150601f19603f3d011682016040523d82523d6000602084013e61083d565b606091505b50915091508180156108675750805115806108675750808060200190518101906108679190610ad7565b61087057600080fd5b5050505050565b600061088c836001600160a01b03841661092b565b9392505050565b6000828211156108e55760405162461bcd60e51b815260206004820152601e60248201527f536166654d6174683a207375627472616374696f6e206f766572666c6f7700006044820152606401610222565b61088c8284610b89565b6040516001600160a01b03838116602483015260448201839052600091829186169063a9059cbb906064016107ad565b600061088c838361097a565b6000818152600183016020526040812054610972575081546001818101845560008481526020808220909301849055845484825282860190935260409020919091556106c3565b5060006106c3565b815460009082106109f35760405162461bcd60e51b815260206004820152602260248201527f456e756d657261626c655365743a20696e646578206f7574206f6620626f756e60448201527f64730000000000000000000000000000000000000000000000000000000000006064820152608401610222565b826000018281548110610a1657634e487b7160e01b600052603260045260246000fd5b9060005260206000200154905092915050565b60008060408385031215610a3b578182fd5b8235610a4681610bd1565b946020939093013593505050565b60008060008060808587031215610a69578182fd5b8435610a7481610bd1565b935060208501359250604085013591506060850135610a9281610bd1565b939692955090935050565b60008060008060808587031215610ab2578384fd5b8435610abd81610bd1565b966020860135965060408601359560600135945092505050565b600060208284031215610ae8578081fd5b8151801515811461088c578182fd5b600060208284031215610b08578081fd5b5035919050565b600080600060608486031215610b23578283fd5b833592506020840135610b3581610bd1565b91506040840135610b4581610bd1565b809150509250925092565b60008251815b81811015610b705760208186018101518583015201610b56565b81811115610b7e5782828501525b509190910192915050565b600082821015610b9b57610b9b610bbb565b500390565b6000600019821415610bb457610bb4610bbb565b5060010190565b634e487b7160e01b600052601160045260246000fd5b6001600160a01b0381168114610be657600080fd5b5056fea2646970667358221220b4385616a2412bc3816f99050c3e69f5b8509988df682f4be517700e7a2a427964736f6c63430008040033",
  "linkReferences": {},
  "deployedLinkReferences": {}
}