{
  "_format": "hh-sol-artifact-1",
  "contractName": "MintableToken",
  "sourceName": "contracts/Tokens/MintableToken.sol",
  "abi": [
    {
      "anonymous": false,
      "inputs": [
        {
          "indexed": true,
          "internalType": "address",
          "name": "owner",
          "type": "address"
        },
        {
          "indexed": true,
          "internalType": "address",
          "name": "spender",
          "type": "address"
        },
        {
          "indexed": false,
          "internalType": "uint256",
          "name": "value",
          "type": "uint256"
        }
      ],
      "name": "Approval",
      "type": "event"
    },
    {
      "anonymous": false,
      "inputs": [
        {
          "indexed": false,
          "internalType": "address",
          "name": "account",
          "type": "address"
        }
      ],
      "name": "Paused",
      "type": "event"
    },
    {
      "anonymous": false,
      "inputs": [
        {
          "indexed": true,
          "internalType": "bytes32",
          "name": "role",
          "type": "bytes32"
        },
        {
          "indexed": true,
          "internalType": "bytes32",
          "name": "previousAdminRole",
          "type": "bytes32"
        },
        {
          "indexed": true,
          "internalType": "bytes32",
          "name": "newAdminRole",
          "type": "bytes32"
        }
      ],
      "name": "RoleAdminChanged",
      "type": "event"
    },
    {
      "anonymous": false,
      "inputs": [
        {
          "indexed": true,
          "internalType": "bytes32",
          "name": "role",
          "type": "bytes32"
        },
        {
          "indexed": true,
          "internalType": "address",
          "name": "account",
          "type": "address"
        },
        {
          "indexed": true,
          "internalType": "address",
          "name": "sender",
          "type": "address"
        }
      ],
      "name": "RoleGranted",
      "type": "event"
    },
    {
      "anonymous": false,
      "inputs": [
        {
          "indexed": true,
          "internalType": "bytes32",
          "name": "role",
          "type": "bytes32"
        },
        {
          "indexed": true,
          "internalType": "address",
          "name": "account",
          "type": "address"
        },
        {
          "indexed": true,
          "internalType": "address",
          "name": "sender",
          "type": "address"
        }
      ],
      "name": "RoleRevoked",
      "type": "event"
    },
    {
      "anonymous": false,
      "inputs": [
        {
          "indexed": true,
          "internalType": "address",
          "name": "from",
          "type": "address"
        },
        {
          "indexed": true,
          "internalType": "address",
          "name": "to",
          "type": "address"
        },
        {
          "indexed": false,
          "internalType": "uint256",
          "name": "value",
          "type": "uint256"
        }
      ],
      "name": "Transfer",
      "type": "event"
    },
    {
      "anonymous": false,
      "inputs": [
        {
          "indexed": false,
          "internalType": "address",
          "name": "account",
          "type": "address"
        }
      ],
      "name": "Unpaused",
      "type": "event"
    },
    {
      "inputs": [],
      "name": "DEFAULT_ADMIN_ROLE",
      "outputs": [
        {
          "internalType": "bytes32",
          "name": "",
          "type": "bytes32"
        }
      ],
      "stateMutability": "view",
      "type": "function"
    },
    {
      "inputs": [],
      "name": "DOMAIN_SEPARATOR",
      "outputs": [
        {
          "internalType": "bytes32",
          "name": "",
          "type": "bytes32"
        }
      ],
      "stateMutability": "view",
      "type": "function"
    },
    {
      "inputs": [],
      "name": "MINTER_ROLE",
      "outputs": [
        {
          "internalType": "bytes32",
          "name": "",
          "type": "bytes32"
        }
      ],
      "stateMutability": "view",
      "type": "function"
    },
    {
      "inputs": [],
      "name": "PAUSER_ROLE",
      "outputs": [
        {
          "internalType": "bytes32",
          "name": "",
          "type": "bytes32"
        }
      ],
      "stateMutability": "view",
      "type": "function"
    },
    {
      "inputs": [
        {
          "internalType": "address",
          "name": "owner",
          "type": "address"
        },
        {
          "internalType": "address",
          "name": "spender",
          "type": "address"
        }
      ],
      "name": "allowance",
      "outputs": [
        {
          "internalType": "uint256",
          "name": "",
          "type": "uint256"
        }
      ],
      "stateMutability": "view",
      "type": "function"
    },
    {
      "inputs": [
        {
          "internalType": "address",
          "name": "spender",
          "type": "address"
        },
        {
          "internalType": "uint256",
          "name": "amount",
          "type": "uint256"
        }
      ],
      "name": "approve",
      "outputs": [
        {
          "internalType": "bool",
          "name": "",
          "type": "bool"
        }
      ],
      "stateMutability": "nonpayable",
      "type": "function"
    },
    {
      "inputs": [
        {
          "internalType": "address",
          "name": "account",
          "type": "address"
        }
      ],
      "name": "balanceOf",
      "outputs": [
        {
          "internalType": "uint256",
          "name": "",
          "type": "uint256"
        }
      ],
      "stateMutability": "view",
      "type": "function"
    },
    {
      "inputs": [
        {
          "internalType": "uint256",
          "name": "amount",
          "type": "uint256"
        }
      ],
      "name": "burn",
      "outputs": [],
      "stateMutability": "nonpayable",
      "type": "function"
    },
    {
      "inputs": [
        {
          "internalType": "address",
          "name": "account",
          "type": "address"
        },
        {
          "internalType": "uint256",
          "name": "amount",
          "type": "uint256"
        }
      ],
      "name": "burnFrom",
      "outputs": [],
      "stateMutability": "nonpayable",
      "type": "function"
    },
    {
      "inputs": [],
      "name": "decimals",
      "outputs": [
        {
          "internalType": "uint8",
          "name": "",
          "type": "uint8"
        }
      ],
      "stateMutability": "view",
      "type": "function"
    },
    {
      "inputs": [
        {
          "internalType": "address",
          "name": "spender",
          "type": "address"
        },
        {
          "internalType": "uint256",
          "name": "subtractedValue",
          "type": "uint256"
        }
      ],
      "name": "decreaseAllowance",
      "outputs": [
        {
          "internalType": "bool",
          "name": "",
          "type": "bool"
        }
      ],
      "stateMutability": "nonpayable",
      "type": "function"
    },
    {
      "inputs": [
        {
          "internalType": "string",
          "name": "_name",
          "type": "string"
        },
        {
          "internalType": "string",
          "name": "_symbol",
          "type": "string"
        },
        {
          "internalType": "address",
          "name": "_owner",
          "type": "address"
        },
        {
          "internalType": "uint256",
          "name": "_initialSupply",
          "type": "uint256"
        }
      ],
      "name": "getInitData",
      "outputs": [
        {
          "internalType": "bytes",
          "name": "_data",
          "type": "bytes"
        }
      ],
      "stateMutability": "pure",
      "type": "function"
    },
    {
      "inputs": [
        {
          "internalType": "bytes32",
          "name": "role",
          "type": "bytes32"
        }
      ],
      "name": "getRoleAdmin",
      "outputs": [
        {
          "internalType": "bytes32",
          "name": "",
          "type": "bytes32"
        }
      ],
      "stateMutability": "view",
      "type": "function"
    },
    {
      "inputs": [
        {
          "internalType": "bytes32",
          "name": "role",
          "type": "bytes32"
        },
        {
          "internalType": "uint256",
          "name": "index",
          "type": "uint256"
        }
      ],
      "name": "getRoleMember",
      "outputs": [
        {
          "internalType": "address",
          "name": "",
          "type": "address"
        }
      ],
      "stateMutability": "view",
      "type": "function"
    },
    {
      "inputs": [
        {
          "internalType": "bytes32",
          "name": "role",
          "type": "bytes32"
        }
      ],
      "name": "getRoleMemberCount",
      "outputs": [
        {
          "internalType": "uint256",
          "name": "",
          "type": "uint256"
        }
      ],
      "stateMutability": "view",
      "type": "function"
    },
    {
      "inputs": [
        {
          "internalType": "bytes32",
          "name": "role",
          "type": "bytes32"
        },
        {
          "internalType": "address",
          "name": "account",
          "type": "address"
        }
      ],
      "name": "grantRole",
      "outputs": [],
      "stateMutability": "nonpayable",
      "type": "function"
    },
    {
      "inputs": [
        {
          "internalType": "bytes32",
          "name": "role",
          "type": "bytes32"
        },
        {
          "internalType": "address",
          "name": "account",
          "type": "address"
        }
      ],
      "name": "hasRole",
      "outputs": [
        {
          "internalType": "bool",
          "name": "",
          "type": "bool"
        }
      ],
      "stateMutability": "view",
      "type": "function"
    },
    {
      "inputs": [
        {
          "internalType": "address",
          "name": "spender",
          "type": "address"
        },
        {
          "internalType": "uint256",
          "name": "addedValue",
          "type": "uint256"
        }
      ],
      "name": "increaseAllowance",
      "outputs": [
        {
          "internalType": "bool",
          "name": "",
          "type": "bool"
        }
      ],
      "stateMutability": "nonpayable",
      "type": "function"
    },
    {
      "inputs": [
        {
          "internalType": "bytes",
          "name": "_data",
          "type": "bytes"
        }
      ],
      "name": "init",
      "outputs": [],
      "stateMutability": "payable",
      "type": "function"
    },
    {
      "inputs": [
        {
          "internalType": "bytes",
          "name": "_data",
          "type": "bytes"
        }
      ],
      "name": "initToken",
      "outputs": [],
      "stateMutability": "nonpayable",
      "type": "function"
    },
    {
      "inputs": [
        {
          "internalType": "string",
          "name": "_name",
          "type": "string"
        },
        {
          "internalType": "string",
          "name": "_symbol",
          "type": "string"
        },
        {
          "internalType": "address",
          "name": "_owner",
          "type": "address"
        },
        {
          "internalType": "uint256",
          "name": "_initialSupply",
          "type": "uint256"
        }
      ],
      "name": "initToken",
      "outputs": [],
      "stateMutability": "nonpayable",
      "type": "function"
    },
    {
      "inputs": [
        {
          "internalType": "address",
          "name": "to",
          "type": "address"
        },
        {
          "internalType": "uint256",
          "name": "amount",
          "type": "uint256"
        }
      ],
      "name": "mint",
      "outputs": [],
      "stateMutability": "nonpayable",
      "type": "function"
    },
    {
      "inputs": [],
      "name": "name",
      "outputs": [
        {
          "internalType": "string",
          "name": "",
          "type": "string"
        }
      ],
      "stateMutability": "view",
      "type": "function"
    },
    {
      "inputs": [
        {
          "internalType": "address",
          "name": "",
          "type": "address"
        }
      ],
      "name": "nonces",
      "outputs": [
        {
          "internalType": "uint256",
          "name": "",
          "type": "uint256"
        }
      ],
      "stateMutability": "view",
      "type": "function"
    },
    {
      "inputs": [],
      "name": "pause",
      "outputs": [],
      "stateMutability": "nonpayable",
      "type": "function"
    },
    {
      "inputs": [],
      "name": "paused",
      "outputs": [
        {
          "internalType": "bool",
          "name": "",
          "type": "bool"
        }
      ],
      "stateMutability": "view",
      "type": "function"
    },
    {
      "inputs": [
        {
          "internalType": "address",
          "name": "owner_",
          "type": "address"
        },
        {
          "internalType": "address",
          "name": "spender",
          "type": "address"
        },
        {
          "internalType": "uint256",
          "name": "value",
          "type": "uint256"
        },
        {
          "internalType": "uint256",
          "name": "deadline",
          "type": "uint256"
        },
        {
          "internalType": "uint8",
          "name": "v",
          "type": "uint8"
        },
        {
          "internalType": "bytes32",
          "name": "r",
          "type": "bytes32"
        },
        {
          "internalType": "bytes32",
          "name": "s",
          "type": "bytes32"
        }
      ],
      "name": "permit",
      "outputs": [],
      "stateMutability": "nonpayable",
      "type": "function"
    },
    {
      "inputs": [
        {
          "internalType": "bytes32",
          "name": "role",
          "type": "bytes32"
        },
        {
          "internalType": "address",
          "name": "account",
          "type": "address"
        }
      ],
      "name": "renounceRole",
      "outputs": [],
      "stateMutability": "nonpayable",
      "type": "function"
    },
    {
      "inputs": [
        {
          "internalType": "bytes32",
          "name": "role",
          "type": "bytes32"
        },
        {
          "internalType": "address",
          "name": "account",
          "type": "address"
        }
      ],
      "name": "revokeRole",
      "outputs": [],
      "stateMutability": "nonpayable",
      "type": "function"
    },
    {
      "inputs": [],
      "name": "symbol",
      "outputs": [
        {
          "internalType": "string",
          "name": "",
          "type": "string"
        }
      ],
      "stateMutability": "view",
      "type": "function"
    },
    {
      "inputs": [],
      "name": "tokenTemplate",
      "outputs": [
        {
          "internalType": "uint256",
          "name": "",
          "type": "uint256"
        }
      ],
      "stateMutability": "view",
      "type": "function"
    },
    {
      "inputs": [],
      "name": "totalSupply",
      "outputs": [
        {
          "internalType": "uint256",
          "name": "",
          "type": "uint256"
        }
      ],
      "stateMutability": "view",
      "type": "function"
    },
    {
      "inputs": [
        {
          "internalType": "address",
          "name": "recipient",
          "type": "address"
        },
        {
          "internalType": "uint256",
          "name": "amount",
          "type": "uint256"
        }
      ],
      "name": "transfer",
      "outputs": [
        {
          "internalType": "bool",
          "name": "",
          "type": "bool"
        }
      ],
      "stateMutability": "nonpayable",
      "type": "function"
    },
    {
      "inputs": [
        {
          "internalType": "address",
          "name": "sender",
          "type": "address"
        },
        {
          "internalType": "address",
          "name": "recipient",
          "type": "address"
        },
        {
          "internalType": "uint256",
          "name": "amount",
          "type": "uint256"
        }
      ],
      "name": "transferFrom",
      "outputs": [
        {
          "internalType": "bool",
          "name": "",
          "type": "bool"
        }
      ],
      "stateMutability": "nonpayable",
      "type": "function"
    },
    {
      "inputs": [],
      "name": "unpause",
      "outputs": [],
      "stateMutability": "nonpayable",
      "type": "function"
    }
  ],
  "bytecode": "0x608060405234801561001057600080fd5b506000600860026101000a81548160ff021916908315150217905550613f518061003b6000396000f3fe6080604052600436106102045760003560e01c806370a0823111610118578063a457c2d7116100a0578063d53913931161006f578063d539139314610792578063d547741f146107bd578063dd62ed3e146107e6578063e63ab1e914610823578063f21f007c1461084e57610204565b8063a457c2d7146106b2578063a9059cbb146106ef578063ca15c8731461072c578063d505accf1461076957610204565b80638dc7df72116100e75780638dc7df72146105b95780639010d07c146105e257806391d148541461061f57806395d89b411461065c578063a217fddf1461068757610204565b806370a08231146104ff57806379cc67901461053c5780637ecebe00146105655780638456cb59146105a257610204565b80633644e5151161019b57806340c10f191161016a57806340c10f191461043d57806342966c68146104665780634ddf47d41461048f5780635c975abb146104ab57806360b1cc80146104d657610204565b80633644e5151461039557806336568abe146103c057806339509351146103e95780633f4ba83a1461042657610204565b806323b872dd116101d757806323b872dd146102c7578063248a9ca3146103045780632f2ff15d14610341578063313ce5671461036a57610204565b806306fdde03146102095780630814d3dd14610234578063095ea7b31461025f57806318160ddd1461029c575b600080fd5b34801561021557600080fd5b5061021e61088b565b60405161022b9190613201565b60405180910390f35b34801561024057600080fd5b5061024961091d565b60405161025691906134e3565b60405180910390f35b34801561026b57600080fd5b50610286600480360381019061028191906128b7565b610922565b6040516102939190613075565b60405180910390f35b3480156102a857600080fd5b506102b1610940565b6040516102be91906134e3565b60405180910390f35b3480156102d357600080fd5b506102ee60048036038101906102e991906127ca565b61094a565b6040516102fb9190613075565b60405180910390f35b34801561031057600080fd5b5061032b600480360381019061032691906128f3565b610a23565b6040516103389190613090565b60405180910390f35b34801561034d57600080fd5b506103686004803603810190610363919061291c565b610a42565b005b34801561037657600080fd5b5061037f610ab5565b60405161038c91906134fe565b60405180910390f35b3480156103a157600080fd5b506103aa610acc565b6040516103b79190613090565b60405180910390f35b3480156103cc57600080fd5b506103e760048036038101906103e2919061291c565b610ad2565b005b3480156103f557600080fd5b50610410600480360381019061040b91906128b7565b610b55565b60405161041d9190613075565b60405180910390f35b34801561043257600080fd5b5061043b610c08565b005b34801561044957600080fd5b50610464600480360381019061045f91906128b7565b610c82565b005b34801561047257600080fd5b5061048d60048036038101906104889190612b9a565b610d00565b005b6104a960048036038101906104a49190612994565b610d14565b005b3480156104b757600080fd5b506104c0610d18565b6040516104cd9190613075565b60405180910390f35b3480156104e257600080fd5b506104fd60048036038101906104f89190612994565b610d2f565b005b34801561050b57600080fd5b5061052660048036038101906105219190612765565b610d60565b60405161053391906134e3565b60405180910390f35b34801561054857600080fd5b50610563600480360381019061055e91906128b7565b610da9565b005b34801561057157600080fd5b5061058c60048036038101906105879190612765565b610dea565b60405161059991906134e3565b60405180910390f35b3480156105ae57600080fd5b506105b7610e02565b005b3480156105c557600080fd5b506105e060048036038101906105db9190612b07565b610e7c565b005b3480156105ee57600080fd5b5061060960048036038101906106049190612958565b610ef7565b604051610616919061303f565b60405180910390f35b34801561062b57600080fd5b506106466004803603810190610641919061291c565b610f28565b6040516106539190613075565b60405180910390f35b34801561066857600080fd5b50610671610f59565b60405161067e9190613201565b60405180910390f35b34801561069357600080fd5b5061069c610feb565b6040516106a99190613090565b60405180910390f35b3480156106be57600080fd5b506106d960048036038101906106d491906128b7565b610ff2565b6040516106e69190613075565b60405180910390f35b3480156106fb57600080fd5b50610716600480360381019061071191906128b7565b6110bf565b6040516107239190613075565b60405180910390f35b34801561073857600080fd5b50610753600480360381019061074e91906128f3565b6110dd565b60405161076091906134e3565b60405180910390f35b34801561077557600080fd5b50610790600480360381019061078b9190612819565b611103565b005b34801561079e57600080fd5b506107a761139f565b6040516107b49190613090565b60405180910390f35b3480156107c957600080fd5b506107e460048036038101906107df919061291c565b6113c3565b005b3480156107f257600080fd5b5061080d6004803603810190610808919061278e565b611436565b60405161081a91906134e3565b60405180910390f35b34801561082f57600080fd5b506108386114bd565b6040516108459190613090565b60405180910390f35b34801561085a57600080fd5b50610875600480360381019061087091906129d9565b6114e1565b6040516108829190613188565b60405180910390f35b60606006805461089a90613725565b80601f01602080910402602001604051908101604052809291908181526020018280546108c690613725565b80156109135780601f106108e857610100808354040283529160200191610913565b820191906000526020600020905b8154815290600101906020018083116108f657829003601f168201915b5050505050905090565b600281565b600061093661092f611519565b8484611521565b6001905092915050565b6000600554905090565b60006109578484846116ec565b610a1884610963611519565b610a1385604051806060016040528060288152602001613ecf60289139600460008b73ffffffffffffffffffffffffffffffffffffffff1673ffffffffffffffffffffffffffffffffffffffff16815260200190815260200160002060006109c9611519565b73ffffffffffffffffffffffffffffffffffffffff1673ffffffffffffffffffffffffffffffffffffffff168152602001908152602001600020546119859092919063ffffffff16565b611521565b600190509392505050565b6000806000838152602001908152602001600020600201549050919050565b610a6860008084815260200190815260200160002060020154610a63611519565b610f28565b610aa7576040517f08c379a0000000000000000000000000000000000000000000000000000000008152600401610a9e90613263565b60405180910390fd5b610ab182826119e3565b5050565b6000600860009054906101000a900460ff16905090565b60015481565b610ada611519565b73ffffffffffffffffffffffffffffffffffffffff168173ffffffffffffffffffffffffffffffffffffffff1614610b47576040517f08c379a0000000000000000000000000000000000000000000000000000000008152600401610b3e90613463565b60405180910390fd5b610b518282611a76565b5050565b6000610bfe610b62611519565b84610bf98560046000610b73611519565b73ffffffffffffffffffffffffffffffffffffffff1673ffffffffffffffffffffffffffffffffffffffff16815260200190815260200160002060008973ffffffffffffffffffffffffffffffffffffffff1673ffffffffffffffffffffffffffffffffffffffff16815260200190815260200160002054611b0990919063ffffffff16565b611521565b6001905092915050565b610c397f65d7a28e3265b37a6474929f336521b332c1681b933f6cb9f3376673440d862a610c34611519565b610f28565b610c78576040517f08c379a0000000000000000000000000000000000000000000000000000000008152600401610c6f906132a3565b60405180910390fd5b610c80611b67565b565b610cb37f9f2df0fed2c77648de5860a4cc508cd0818c85b8b8a1ab4ceeef8d981c8956a6610cae611519565b610f28565b610cf2576040517f08c379a0000000000000000000000000000000000000000000000000000000008152600401610ce9906133a3565b60405180910390fd5b610cfc8282611c09565b5050565b610d11610d0b611519565b82611d9f565b50565b5050565b6000600860029054906101000a900460ff16905090565b6000806000808585810190610d449190612a74565b9350935093509350610d5884848484610e7c565b505050505050565b6000600260008373ffffffffffffffffffffffffffffffffffffffff1673ffffffffffffffffffffffffffffffffffffffff168152602001908152602001600020549050919050565b600081610dbd84610db8611519565b611436565b610dc79190613608565b9050610ddb83610dd5611519565b83611521565b610de58383611d9f565b505050565b60036020528060005260406000206000915090505481565b610e337f65d7a28e3265b37a6474929f336521b332c1681b933f6cb9f3376673440d862a610e2e611519565b610f28565b610e72576040517f08c379a0000000000000000000000000000000000000000000000000000000008152600401610e6990613403565b60405180910390fd5b610e7a611f4f565b565b610e868484611ff2565b610e936000801b83612102565b610ebd7f9f2df0fed2c77648de5860a4cc508cd0818c85b8b8a1ab4ceeef8d981c8956a683612102565b610ee77f65d7a28e3265b37a6474929f336521b332c1681b933f6cb9f3376673440d862a83612102565b610ef13382611c09565b50505050565b6000610f208260008086815260200190815260200160002060000161211090919063ffffffff16565b905092915050565b6000610f518260008086815260200190815260200160002060000161212a90919063ffffffff16565b905092915050565b606060078054610f6890613725565b80601f0160208091040260200160405190810160405280929190818152602001828054610f9490613725565b8015610fe15780601f10610fb657610100808354040283529160200191610fe1565b820191906000526020600020905b815481529060010190602001808311610fc457829003601f168201915b5050505050905090565b6000801b81565b60006110b5610fff611519565b846110b085604051806060016040528060258152602001613ef76025913960046000611029611519565b73ffffffffffffffffffffffffffffffffffffffff1673ffffffffffffffffffffffffffffffffffffffff16815260200190815260200160002060008a73ffffffffffffffffffffffffffffffffffffffff1673ffffffffffffffffffffffffffffffffffffffff168152602001908152602001600020546119859092919063ffffffff16565b611521565b6001905092915050565b60006110d36110cc611519565b84846116ec565b6001905092915050565b60006110fc60008084815260200190815260200160002060000161215a565b9050919050565b600073ffffffffffffffffffffffffffffffffffffffff168773ffffffffffffffffffffffffffffffffffffffff161415611173576040517f08c379a000000000000000000000000000000000000000000000000000000000815260040161116a90613443565b60405180910390fd5b8342106111b5576040517f08c379a00000000000000000000000000000000000000000000000000000000081526004016111ac90613383565b60405180910390fd5b60006040518060400160405280600281526020017f19010000000000000000000000000000000000000000000000000000000000008152506001547f6e71edae12b1b97f4d1f60370fef10105fa2faae0126114a169c64845d6126c960001b8a8a8a600360008f73ffffffffffffffffffffffffffffffffffffffff1673ffffffffffffffffffffffffffffffffffffffff168152602001908152602001600020600081548092919061126790613788565b919050558b604051602001611281969594939291906130ab565b604051602081830303815290604052805190602001206040516020016112a993929190613006565b6040516020818303038152906040528051906020012090506000600182868686604051600081526020016040526040516112e69493929190613143565b6020604051602081039080840390855afa158015611308573d6000803e3d6000fd5b5050506020604051035190508873ffffffffffffffffffffffffffffffffffffffff168173ffffffffffffffffffffffffffffffffffffffff1614611382576040517f08c379a0000000000000000000000000000000000000000000000000000000008152600401611379906134c3565b60405180910390fd5b61139461138d611519565b8989611521565b505050505050505050565b7f9f2df0fed2c77648de5860a4cc508cd0818c85b8b8a1ab4ceeef8d981c8956a681565b6113e9600080848152602001908152602001600020600201546113e4611519565b610f28565b611428576040517f08c379a000000000000000000000000000000000000000000000000000000000815260040161141f90613343565b60405180910390fd5b6114328282611a76565b5050565b6000600460008473ffffffffffffffffffffffffffffffffffffffff1673ffffffffffffffffffffffffffffffffffffffff16815260200190815260200160002060008373ffffffffffffffffffffffffffffffffffffffff1673ffffffffffffffffffffffffffffffffffffffff16815260200190815260200160002054905092915050565b7f65d7a28e3265b37a6474929f336521b332c1681b933f6cb9f3376673440d862a81565b60608686868686866040516020016114fe969594939291906131aa565b60405160208183030381529060405290509695505050505050565b600033905090565b600073ffffffffffffffffffffffffffffffffffffffff168373ffffffffffffffffffffffffffffffffffffffff161415611591576040517f08c379a000000000000000000000000000000000000000000000000000000000815260040161158890613423565b60405180910390fd5b600073ffffffffffffffffffffffffffffffffffffffff168273ffffffffffffffffffffffffffffffffffffffff161415611601576040517f08c379a00000000000000000000000000000000000000000000000000000000081526004016115f8906132c3565b60405180910390fd5b80600460008573ffffffffffffffffffffffffffffffffffffffff1673ffffffffffffffffffffffffffffffffffffffff16815260200190815260200160002060008473ffffffffffffffffffffffffffffffffffffffff1673ffffffffffffffffffffffffffffffffffffffff168152602001908152602001600020819055508173ffffffffffffffffffffffffffffffffffffffff168373ffffffffffffffffffffffffffffffffffffffff167f8c5be1e5ebec7d5bd14f71427d1e84f3dd0314c0f7b2291e5b200ac8c7c3b925836040516116df91906134e3565b60405180910390a3505050565b600073ffffffffffffffffffffffffffffffffffffffff168373ffffffffffffffffffffffffffffffffffffffff16141561175c576040517f08c379a0000000000000000000000000000000000000000000000000000000008152600401611753906133e3565b60405180910390fd5b600073ffffffffffffffffffffffffffffffffffffffff168273ffffffffffffffffffffffffffffffffffffffff1614156117cc576040517f08c379a00000000000000000000000000000000000000000000000000000000081526004016117c390613243565b60405180910390fd5b6117d783838361216f565b61184381604051806060016040528060268152602001613ea960269139600260008773ffffffffffffffffffffffffffffffffffffffff1673ffffffffffffffffffffffffffffffffffffffff168152602001908152602001600020546119859092919063ffffffff16565b600260008573ffffffffffffffffffffffffffffffffffffffff1673ffffffffffffffffffffffffffffffffffffffff168152602001908152602001600020819055506118d881600260008573ffffffffffffffffffffffffffffffffffffffff1673ffffffffffffffffffffffffffffffffffffffff16815260200190815260200160002054611b0990919063ffffffff16565b600260008473ffffffffffffffffffffffffffffffffffffffff1673ffffffffffffffffffffffffffffffffffffffff168152602001908152602001600020819055508173ffffffffffffffffffffffffffffffffffffffff168373ffffffffffffffffffffffffffffffffffffffff167fddf252ad1be2c89b69c2b068fc378daa952ba7f163c4a11628f55a4df523b3ef8360405161197891906134e3565b60405180910390a3505050565b60008383111582906119cd576040517f08c379a00000000000000000000000000000000000000000000000000000000081526004016119c49190613201565b60405180910390fd5b5082846119da9190613608565b90509392505050565b611a0a8160008085815260200190815260200160002060000161217f90919063ffffffff16565b15611a7257611a17611519565b73ffffffffffffffffffffffffffffffffffffffff168173ffffffffffffffffffffffffffffffffffffffff16837f2f8788117e7eff1d82e926ec794901d17c78024a50270940304540a733656f0d60405160405180910390a45b5050565b611a9d816000808581526020019081526020016000206000016121af90919063ffffffff16565b15611b0557611aaa611519565b73ffffffffffffffffffffffffffffffffffffffff168173ffffffffffffffffffffffffffffffffffffffff16837ff6391f5c32d9c69d2a47ea670b442974b53935d1edc7fd64eb21e047a839171b60405160405180910390a45b5050565b6000808284611b1891906135b2565b905083811015611b5d576040517f08c379a0000000000000000000000000000000000000000000000000000000008152600401611b54906132e3565b60405180910390fd5b8091505092915050565b611b6f610d18565b611bae576040517f08c379a0000000000000000000000000000000000000000000000000000000008152600401611ba590613283565b60405180910390fd5b6000600860026101000a81548160ff0219169083151502179055507f5db9ee0a495bf2e6ff9c91a7834c1ba4fdd244a5e8aa4e537bd38aeae4b073aa611bf2611519565b604051611bff919061305a565b60405180910390a1565b600073ffffffffffffffffffffffffffffffffffffffff168273ffffffffffffffffffffffffffffffffffffffff161415611c79576040517f08c379a0000000000000000000000000000000000000000000000000000000008152600401611c7090613483565b60405180910390fd5b611c856000838361216f565b611c9a81600554611b0990919063ffffffff16565b600581905550611cf281600260008573ffffffffffffffffffffffffffffffffffffffff1673ffffffffffffffffffffffffffffffffffffffff16815260200190815260200160002054611b0990919063ffffffff16565b600260008473ffffffffffffffffffffffffffffffffffffffff1673ffffffffffffffffffffffffffffffffffffffff168152602001908152602001600020819055508173ffffffffffffffffffffffffffffffffffffffff16600073ffffffffffffffffffffffffffffffffffffffff167fddf252ad1be2c89b69c2b068fc378daa952ba7f163c4a11628f55a4df523b3ef83604051611d9391906134e3565b60405180910390a35050565b600073ffffffffffffffffffffffffffffffffffffffff168273ffffffffffffffffffffffffffffffffffffffff161415611e0f576040517f08c379a0000000000000000000000000000000000000000000000000000000008152600401611e06906133c3565b60405180910390fd5b611e1b8260008361216f565b611e8781604051806060016040528060228152602001613e8760229139600260008673ffffffffffffffffffffffffffffffffffffffff1673ffffffffffffffffffffffffffffffffffffffff168152602001908152602001600020546119859092919063ffffffff16565b600260008473ffffffffffffffffffffffffffffffffffffffff1673ffffffffffffffffffffffffffffffffffffffff16815260200190815260200160002081905550611edf816005546121df90919063ffffffff16565b600581905550600073ffffffffffffffffffffffffffffffffffffffff168273ffffffffffffffffffffffffffffffffffffffff167fddf252ad1be2c89b69c2b068fc378daa952ba7f163c4a11628f55a4df523b3ef83604051611f4391906134e3565b60405180910390a35050565b611f57610d18565b15611f97576040517f08c379a0000000000000000000000000000000000000000000000000000000008152600401611f8e90613363565b60405180910390fd5b6001600860026101000a81548160ff0219169083151502179055507f62e78cea01bee320cd4e420270b5ea74000d11b0c9f74754ebdbfc544b05a258611fdb611519565b604051611fe8919061305a565b60405180910390a1565b600860019054906101000a900460ff1615612042576040517f08c379a000000000000000000000000000000000000000000000000000000000815260040161203990613323565b60405180910390fd5b816006908051906020019061205892919061255d565b50806007908051906020019061206f92919061255d565b506012600860006101000a81548160ff021916908360ff16021790555060004690507f47e79534a245952e8b16893a336b85a3d9ea9fa8c573f3d803afb92a7946921881306040516020016120c69392919061310c565b604051602081830303815290604052805190602001206001819055506001600860016101000a81548160ff021916908315150217905550505050565b61210c82826119e3565b5050565b600061211f8360000183612238565b60001c905092915050565b6000612152836000018373ffffffffffffffffffffffffffffffffffffffff1660001b6122d2565b905092915050565b6000612168826000016122f5565b9050919050565b61217a838383612306565b505050565b60006121a7836000018373ffffffffffffffffffffffffffffffffffffffff1660001b61235e565b905092915050565b60006121d7836000018373ffffffffffffffffffffffffffffffffffffffff1660001b6123ce565b905092915050565b600082821115612224576040517f08c379a000000000000000000000000000000000000000000000000000000000815260040161221b90613303565b60405180910390fd5b81836122309190613608565b905092915050565b600081836000018054905011612283576040517f08c379a000000000000000000000000000000000000000000000000000000000815260040161227a90613223565b60405180910390fd5b8260000182815481106122bf577f4e487b7100000000000000000000000000000000000000000000000000000000600052603260045260246000fd5b9060005260206000200154905092915050565b600080836001016000848152602001908152602001600020541415905092915050565b600081600001805490509050919050565b612311838383612558565b612319610d18565b15612359576040517f08c379a0000000000000000000000000000000000000000000000000000000008152600401612350906134a3565b60405180910390fd5b505050565b600061236a83836122d2565b6123c35782600001829080600181540180825580915050600190039060005260206000200160009091909190915055826000018054905083600101600084815260200190815260200160002081905550600190506123c8565b600090505b92915050565b6000808360010160008481526020019081526020016000205490506000811461254c5760006001826124009190613608565b90506000600186600001805490506124189190613608565b90506000866000018281548110612458577f4e487b7100000000000000000000000000000000000000000000000000000000600052603260045260246000fd5b90600052602060002001549050808760000184815481106124a2577f4e487b7100000000000000000000000000000000000000000000000000000000600052603260045260246000fd5b90600052602060002001819055506001836124bd91906135b2565b8760010160008381526020019081526020016000208190555086600001805480612510577f4e487b7100000000000000000000000000000000000000000000000000000000600052603160045260246000fd5b60019003818190600052602060002001600090559055866001016000878152602001908152602001600020600090556001945050505050612552565b60009150505b92915050565b505050565b82805461256990613725565b90600052602060002090601f01602090048101928261258b57600085556125d2565b82601f106125a457805160ff19168380011785556125d2565b828001600101855582156125d2579182015b828111156125d15782518255916020019190600101906125b6565b5b5090506125df91906125e3565b5090565b5b808211156125fc5760008160009055506001016125e4565b5090565b600061261361260e8461353e565b613519565b90508281526020810184848401111561262b57600080fd5b6126368482856136e3565b509392505050565b60008135905061264d81613e13565b92915050565b60008135905061266281613e2a565b92915050565b60008135905061267781613e41565b92915050565b60008083601f84011261268f57600080fd5b8235905067ffffffffffffffff8111156126a857600080fd5b6020830191508360018202830111156126c057600080fd5b9250929050565b60008083601f8401126126d957600080fd5b8235905067ffffffffffffffff8111156126f257600080fd5b60208301915083600182028301111561270a57600080fd5b9250929050565b600082601f83011261272257600080fd5b8135612732848260208601612600565b91505092915050565b60008135905061274a81613e58565b92915050565b60008135905061275f81613e6f565b92915050565b60006020828403121561277757600080fd5b60006127858482850161263e565b91505092915050565b600080604083850312156127a157600080fd5b60006127af8582860161263e565b92505060206127c08582860161263e565b9150509250929050565b6000806000606084860312156127df57600080fd5b60006127ed8682870161263e565b93505060206127fe8682870161263e565b925050604061280f8682870161273b565b9150509250925092565b600080600080600080600060e0888a03121561283457600080fd5b60006128428a828b0161263e565b97505060206128538a828b0161263e565b96505060406128648a828b0161273b565b95505060606128758a828b0161273b565b94505060806128868a828b01612750565b93505060a06128978a828b01612668565b92505060c06128a88a828b01612668565b91505092959891949750929550565b600080604083850312156128ca57600080fd5b60006128d88582860161263e565b92505060206128e98582860161273b565b9150509250929050565b60006020828403121561290557600080fd5b600061291384828501612668565b91505092915050565b6000806040838503121561292f57600080fd5b600061293d85828601612668565b925050602061294e8582860161263e565b9150509250929050565b6000806040838503121561296b57600080fd5b600061297985828601612668565b925050602061298a8582860161273b565b9150509250929050565b600080602083850312156129a757600080fd5b600083013567ffffffffffffffff8111156129c157600080fd5b6129cd8582860161267d565b92509250509250929050565b600080600080600080608087890312156129f257600080fd5b600087013567ffffffffffffffff811115612a0c57600080fd5b612a1889828a016126c7565b9650965050602087013567ffffffffffffffff811115612a3757600080fd5b612a4389828a016126c7565b94509450506040612a5689828a0161263e565b9250506060612a6789828a0161273b565b9150509295509295509295565b60008060008060808587031215612a8a57600080fd5b600085013567ffffffffffffffff811115612aa457600080fd5b612ab087828801612711565b945050602085013567ffffffffffffffff811115612acd57600080fd5b612ad987828801612711565b9350506040612aea87828801612653565b9250506060612afb8782880161273b565b91505092959194509250565b60008060008060808587031215612b1d57600080fd5b600085013567ffffffffffffffff811115612b3757600080fd5b612b4387828801612711565b945050602085013567ffffffffffffffff811115612b6057600080fd5b612b6c87828801612711565b9350506040612b7d8782880161263e565b9250506060612b8e8782880161273b565b91505092959194509250565b600060208284031215612bac57600080fd5b6000612bba8482850161273b565b91505092915050565b612bcc816136ad565b82525050565b612bdb8161363c565b82525050565b612bea81613660565b82525050565b612bf98161366c565b82525050565b612c10612c0b8261366c565b6137d1565b82525050565b6000612c218261356f565b612c2b8185613585565b9350612c3b8185602086016136f2565b612c4481613868565b840191505092915050565b6000612c5b8385613596565b9350612c688385846136e3565b612c7183613868565b840190509392505050565b6000612c878261357a565b612c918185613596565b9350612ca18185602086016136f2565b612caa81613868565b840191505092915050565b6000612cc08261357a565b612cca81856135a7565b9350612cda8185602086016136f2565b80840191505092915050565b6000612cf3602283613596565b9150612cfe82613879565b604082019050919050565b6000612d16602383613596565b9150612d21826138c8565b604082019050919050565b6000612d39602f83613596565b9150612d4482613917565b604082019050919050565b6000612d5c601483613596565b9150612d6782613966565b602082019050919050565b6000612d7f602f83613596565b9150612d8a8261398f565b604082019050919050565b6000612da2602283613596565b9150612dad826139de565b604082019050919050565b6000612dc5601b83613596565b9150612dd082613a2d565b602082019050919050565b6000612de8601e83613596565b9150612df382613a56565b602082019050919050565b6000612e0b602a83613596565b9150612e1682613a7f565b604082019050919050565b6000612e2e603083613596565b9150612e3982613ace565b604082019050919050565b6000612e51601083613596565b9150612e5c82613b1d565b602082019050919050565b6000612e74600e83613596565b9150612e7f82613b46565b602082019050919050565b6000612e97602c83613596565b9150612ea282613b6f565b604082019050919050565b6000612eba602183613596565b9150612ec582613bbe565b604082019050919050565b6000612edd602583613596565b9150612ee882613c0d565b604082019050919050565b6000612f00602d83613596565b9150612f0b82613c5c565b604082019050919050565b6000612f23602483613596565b9150612f2e82613cab565b604082019050919050565b6000612f46601883613596565b9150612f5182613cfa565b602082019050919050565b6000612f69602f83613596565b9150612f7482613d23565b604082019050919050565b6000612f8c601f83613596565b9150612f9782613d72565b602082019050919050565b6000612faf602a83613596565b9150612fba82613d9b565b604082019050919050565b6000612fd2601883613596565b9150612fdd82613dea565b602082019050919050565b612ff181613696565b82525050565b613000816136a0565b82525050565b60006130128286612cb5565b915061301e8285612bff565b60208201915061302e8284612bff565b602082019150819050949350505050565b60006020820190506130546000830184612bd2565b92915050565b600060208201905061306f6000830184612bc3565b92915050565b600060208201905061308a6000830184612be1565b92915050565b60006020820190506130a56000830184612bf0565b92915050565b600060c0820190506130c06000830189612bf0565b6130cd6020830188612bd2565b6130da6040830187612bd2565b6130e76060830186612fe8565b6130f46080830185612fe8565b61310160a0830184612fe8565b979650505050505050565b60006060820190506131216000830186612bf0565b61312e6020830185612fe8565b61313b6040830184612bd2565b949350505050565b60006080820190506131586000830187612bf0565b6131656020830186612ff7565b6131726040830185612bf0565b61317f6060830184612bf0565b95945050505050565b600060208201905081810360008301526131a28184612c16565b905092915050565b600060808201905081810360008301526131c581888a612c4f565b905081810360208301526131da818688612c4f565b90506131e96040830185612bd2565b6131f66060830184612fe8565b979650505050505050565b6000602082019050818103600083015261321b8184612c7c565b905092915050565b6000602082019050818103600083015261323c81612ce6565b9050919050565b6000602082019050818103600083015261325c81612d09565b9050919050565b6000602082019050818103600083015261327c81612d2c565b9050919050565b6000602082019050818103600083015261329c81612d4f565b9050919050565b600060208201905081810360008301526132bc81612d72565b9050919050565b600060208201905081810360008301526132dc81612d95565b9050919050565b600060208201905081810360008301526132fc81612db8565b9050919050565b6000602082019050818103600083015261331c81612ddb565b9050919050565b6000602082019050818103600083015261333c81612dfe565b9050919050565b6000602082019050818103600083015261335c81612e21565b9050919050565b6000602082019050818103600083015261337c81612e44565b9050919050565b6000602082019050818103600083015261339c81612e67565b9050919050565b600060208201905081810360008301526133bc81612e8a565b9050919050565b600060208201905081810360008301526133dc81612ead565b9050919050565b600060208201905081810360008301526133fc81612ed0565b9050919050565b6000602082019050818103600083015261341c81612ef3565b9050919050565b6000602082019050818103600083015261343c81612f16565b9050919050565b6000602082019050818103600083015261345c81612f39565b9050919050565b6000602082019050818103600083015261347c81612f5c565b9050919050565b6000602082019050818103600083015261349c81612f7f565b9050919050565b600060208201905081810360008301526134bc81612fa2565b9050919050565b600060208201905081810360008301526134dc81612fc5565b9050919050565b60006020820190506134f86000830184612fe8565b92915050565b60006020820190506135136000830184612ff7565b92915050565b6000613523613534565b905061352f8282613757565b919050565b6000604051905090565b600067ffffffffffffffff82111561355957613558613839565b5b61356282613868565b9050602081019050919050565b600081519050919050565b600081519050919050565b600082825260208201905092915050565b600082825260208201905092915050565b600081905092915050565b60006135bd82613696565b91506135c883613696565b9250827fffffffffffffffffffffffffffffffffffffffffffffffffffffffffffffffff038211156135fd576135fc6137db565b5b828201905092915050565b600061361382613696565b915061361e83613696565b925082821015613631576136306137db565b5b828203905092915050565b600061364782613676565b9050919050565b600061365982613676565b9050919050565b60008115159050919050565b6000819050919050565b600073ffffffffffffffffffffffffffffffffffffffff82169050919050565b6000819050919050565b600060ff82169050919050565b60006136b8826136bf565b9050919050565b60006136ca826136d1565b9050919050565b60006136dc82613676565b9050919050565b82818337600083830152505050565b60005b838110156137105780820151818401526020810190506136f5565b8381111561371f576000848401525b50505050565b6000600282049050600182168061373d57607f821691505b602082108114156137515761375061380a565b5b50919050565b61376082613868565b810181811067ffffffffffffffff8211171561377f5761377e613839565b5b80604052505050565b600061379382613696565b91507fffffffffffffffffffffffffffffffffffffffffffffffffffffffffffffffff8214156137c6576137c56137db565b5b600182019050919050565b6000819050919050565b7f4e487b7100000000000000000000000000000000000000000000000000000000600052601160045260246000fd5b7f4e487b7100000000000000000000000000000000000000000000000000000000600052602260045260246000fd5b7f4e487b7100000000000000000000000000000000000000000000000000000000600052604160045260246000fd5b6000601f19601f8301169050919050565b7f456e756d657261626c655365743a20696e646578206f7574206f6620626f756e60008201527f6473000000000000000000000000000000000000000000000000000000000000602082015250565b7f45524332303a207472616e7366657220746f20746865207a65726f206164647260008201527f6573730000000000000000000000000000000000000000000000000000000000602082015250565b7f416363657373436f6e74726f6c3a2073656e646572206d75737420626520616e60008201527f2061646d696e20746f206772616e740000000000000000000000000000000000602082015250565b7f5061757361626c653a206e6f7420706175736564000000000000000000000000600082015250565b7f4d696e7461626c65546f6b656e3a206d7573742068617665207061757365722060008201527f726f6c6520746f20756e70617573650000000000000000000000000000000000602082015250565b7f45524332303a20617070726f766520746f20746865207a65726f20616464726560008201527f7373000000000000000000000000000000000000000000000000000000000000602082015250565b7f536166654d6174683a206164646974696f6e206f766572666c6f770000000000600082015250565b7f536166654d6174683a207375627472616374696f6e206f766572666c6f770000600082015250565b7f45524332303a20746f6b656e2068617320616c7265616479206265656e20696e60008201527f697469616c697a65642100000000000000000000000000000000000000000000602082015250565b7f416363657373436f6e74726f6c3a2073656e646572206d75737420626520616e60008201527f2061646d696e20746f207265766f6b6500000000000000000000000000000000602082015250565b7f5061757361626c653a2070617573656400000000000000000000000000000000600082015250565b7f45524332303a2045787069726564000000000000000000000000000000000000600082015250565b7f4d696e7461626c65546f6b656e3a206d7573742068617665206d696e7465722060008201527f726f6c6520746f206d696e740000000000000000000000000000000000000000602082015250565b7f45524332303a206275726e2066726f6d20746865207a65726f2061646472657360008201527f7300000000000000000000000000000000000000000000000000000000000000602082015250565b7f45524332303a207472616e736665722066726f6d20746865207a65726f20616460008201527f6472657373000000000000000000000000000000000000000000000000000000602082015250565b7f4d696e7461626c65546f6b656e3a206d7573742068617665207061757365722060008201527f726f6c6520746f20706175736500000000000000000000000000000000000000602082015250565b7f45524332303a20617070726f76652066726f6d20746865207a65726f2061646460008201527f7265737300000000000000000000000000000000000000000000000000000000602082015250565b7f45524332303a204f776e65722063616e6e6f7420626520300000000000000000600082015250565b7f416363657373436f6e74726f6c3a2063616e206f6e6c792072656e6f756e636560008201527f20726f6c657320666f722073656c660000000000000000000000000000000000602082015250565b7f45524332303a206d696e7420746f20746865207a65726f206164647265737300600082015250565b7f45524332305061757361626c653a20746f6b656e207472616e7366657220776860008201527f696c652070617573656400000000000000000000000000000000000000000000602082015250565b7f45524332303a20496e76616c6964205369676e61747572650000000000000000600082015250565b613e1c8161363c565b8114613e2757600080fd5b50565b613e338161364e565b8114613e3e57600080fd5b50565b613e4a8161366c565b8114613e5557600080fd5b50565b613e6181613696565b8114613e6c57600080fd5b50565b613e78816136a0565b8114613e8357600080fd5b5056fe45524332303a206275726e20616d6f756e7420657863656564732062616c616e636545524332303a207472616e7366657220616d6f756e7420657863656564732062616c616e636545524332303a207472616e7366657220616d6f756e74206578636565647320616c6c6f77616e636545524332303a2064656372656173656420616c6c6f77616e63652062656c6f77207a65726fa264697066735822122020dc3dd075832e165e0094817c217abff3f0fbff1894363a36f4c074fa1e798864736f6c63430008040033",
  "linkReferences": {},
  "deployedLinkReferences": {}
}