{
  "_format": "hh-sol-artifact-1",
  "contractName": "MintableToken",
  "sourceName": "contracts/Tokens/MintableToken.sol",
  "abi": [
    {
      "anonymous": false,
      "inputs": [
        {
          "indexed": true,
          "internalType": "address",
          "name": "owner",
          "type": "address"
        },
        {
          "indexed": true,
          "internalType": "address",
          "name": "spender",
          "type": "address"
        },
        {
          "indexed": false,
          "internalType": "uint256",
          "name": "value",
          "type": "uint256"
        }
      ],
      "name": "Approval",
      "type": "event"
    },
    {
      "anonymous": false,
      "inputs": [
        {
          "indexed": false,
          "internalType": "address",
          "name": "account",
          "type": "address"
        }
      ],
      "name": "Paused",
      "type": "event"
    },
    {
      "anonymous": false,
      "inputs": [
        {
          "indexed": true,
          "internalType": "bytes32",
          "name": "role",
          "type": "bytes32"
        },
        {
          "indexed": true,
          "internalType": "bytes32",
          "name": "previousAdminRole",
          "type": "bytes32"
        },
        {
          "indexed": true,
          "internalType": "bytes32",
          "name": "newAdminRole",
          "type": "bytes32"
        }
      ],
      "name": "RoleAdminChanged",
      "type": "event"
    },
    {
      "anonymous": false,
      "inputs": [
        {
          "indexed": true,
          "internalType": "bytes32",
          "name": "role",
          "type": "bytes32"
        },
        {
          "indexed": true,
          "internalType": "address",
          "name": "account",
          "type": "address"
        },
        {
          "indexed": true,
          "internalType": "address",
          "name": "sender",
          "type": "address"
        }
      ],
      "name": "RoleGranted",
      "type": "event"
    },
    {
      "anonymous": false,
      "inputs": [
        {
          "indexed": true,
          "internalType": "bytes32",
          "name": "role",
          "type": "bytes32"
        },
        {
          "indexed": true,
          "internalType": "address",
          "name": "account",
          "type": "address"
        },
        {
          "indexed": true,
          "internalType": "address",
          "name": "sender",
          "type": "address"
        }
      ],
      "name": "RoleRevoked",
      "type": "event"
    },
    {
      "anonymous": false,
      "inputs": [
        {
          "indexed": true,
          "internalType": "address",
          "name": "from",
          "type": "address"
        },
        {
          "indexed": true,
          "internalType": "address",
          "name": "to",
          "type": "address"
        },
        {
          "indexed": false,
          "internalType": "uint256",
          "name": "value",
          "type": "uint256"
        }
      ],
      "name": "Transfer",
      "type": "event"
    },
    {
      "anonymous": false,
      "inputs": [
        {
          "indexed": false,
          "internalType": "address",
          "name": "account",
          "type": "address"
        }
      ],
      "name": "Unpaused",
      "type": "event"
    },
    {
      "inputs": [],
      "name": "DEFAULT_ADMIN_ROLE",
      "outputs": [
        {
          "internalType": "bytes32",
          "name": "",
          "type": "bytes32"
        }
      ],
      "stateMutability": "view",
      "type": "function"
    },
    {
      "inputs": [],
      "name": "DOMAIN_SEPARATOR",
      "outputs": [
        {
          "internalType": "bytes32",
          "name": "",
          "type": "bytes32"
        }
      ],
      "stateMutability": "view",
      "type": "function"
    },
    {
      "inputs": [],
      "name": "MINTER_ROLE",
      "outputs": [
        {
          "internalType": "bytes32",
          "name": "",
          "type": "bytes32"
        }
      ],
      "stateMutability": "view",
      "type": "function"
    },
    {
      "inputs": [],
      "name": "PAUSER_ROLE",
      "outputs": [
        {
          "internalType": "bytes32",
          "name": "",
          "type": "bytes32"
        }
      ],
      "stateMutability": "view",
      "type": "function"
    },
    {
      "inputs": [
        {
          "internalType": "address",
          "name": "owner",
          "type": "address"
        },
        {
          "internalType": "address",
          "name": "spender",
          "type": "address"
        }
      ],
      "name": "allowance",
      "outputs": [
        {
          "internalType": "uint256",
          "name": "",
          "type": "uint256"
        }
      ],
      "stateMutability": "view",
      "type": "function"
    },
    {
      "inputs": [
        {
          "internalType": "address",
          "name": "spender",
          "type": "address"
        },
        {
          "internalType": "uint256",
          "name": "amount",
          "type": "uint256"
        }
      ],
      "name": "approve",
      "outputs": [
        {
          "internalType": "bool",
          "name": "",
          "type": "bool"
        }
      ],
      "stateMutability": "nonpayable",
      "type": "function"
    },
    {
      "inputs": [
        {
          "internalType": "address",
          "name": "account",
          "type": "address"
        }
      ],
      "name": "balanceOf",
      "outputs": [
        {
          "internalType": "uint256",
          "name": "",
          "type": "uint256"
        }
      ],
      "stateMutability": "view",
      "type": "function"
    },
    {
      "inputs": [
        {
          "internalType": "uint256",
          "name": "amount",
          "type": "uint256"
        }
      ],
      "name": "burn",
      "outputs": [],
      "stateMutability": "nonpayable",
      "type": "function"
    },
    {
      "inputs": [
        {
          "internalType": "address",
          "name": "account",
          "type": "address"
        },
        {
          "internalType": "uint256",
          "name": "amount",
          "type": "uint256"
        }
      ],
      "name": "burnFrom",
      "outputs": [],
      "stateMutability": "nonpayable",
      "type": "function"
    },
    {
      "inputs": [],
      "name": "decimals",
      "outputs": [
        {
          "internalType": "uint8",
          "name": "",
          "type": "uint8"
        }
      ],
      "stateMutability": "view",
      "type": "function"
    },
    {
      "inputs": [
        {
          "internalType": "address",
          "name": "spender",
          "type": "address"
        },
        {
          "internalType": "uint256",
          "name": "subtractedValue",
          "type": "uint256"
        }
      ],
      "name": "decreaseAllowance",
      "outputs": [
        {
          "internalType": "bool",
          "name": "",
          "type": "bool"
        }
      ],
      "stateMutability": "nonpayable",
      "type": "function"
    },
    {
      "inputs": [
        {
          "internalType": "string",
          "name": "_name",
          "type": "string"
        },
        {
          "internalType": "string",
          "name": "_symbol",
          "type": "string"
        },
        {
          "internalType": "address",
          "name": "_owner",
          "type": "address"
        },
        {
          "internalType": "uint256",
          "name": "_initialSupply",
          "type": "uint256"
        }
      ],
      "name": "getInitData",
      "outputs": [
        {
          "internalType": "bytes",
          "name": "_data",
          "type": "bytes"
        }
      ],
      "stateMutability": "pure",
      "type": "function"
    },
    {
      "inputs": [
        {
          "internalType": "bytes32",
          "name": "role",
          "type": "bytes32"
        }
      ],
      "name": "getRoleAdmin",
      "outputs": [
        {
          "internalType": "bytes32",
          "name": "",
          "type": "bytes32"
        }
      ],
      "stateMutability": "view",
      "type": "function"
    },
    {
      "inputs": [
        {
          "internalType": "bytes32",
          "name": "role",
          "type": "bytes32"
        },
        {
          "internalType": "uint256",
          "name": "index",
          "type": "uint256"
        }
      ],
      "name": "getRoleMember",
      "outputs": [
        {
          "internalType": "address",
          "name": "",
          "type": "address"
        }
      ],
      "stateMutability": "view",
      "type": "function"
    },
    {
      "inputs": [
        {
          "internalType": "bytes32",
          "name": "role",
          "type": "bytes32"
        }
      ],
      "name": "getRoleMemberCount",
      "outputs": [
        {
          "internalType": "uint256",
          "name": "",
          "type": "uint256"
        }
      ],
      "stateMutability": "view",
      "type": "function"
    },
    {
      "inputs": [
        {
          "internalType": "bytes32",
          "name": "role",
          "type": "bytes32"
        },
        {
          "internalType": "address",
          "name": "account",
          "type": "address"
        }
      ],
      "name": "grantRole",
      "outputs": [],
      "stateMutability": "nonpayable",
      "type": "function"
    },
    {
      "inputs": [
        {
          "internalType": "bytes32",
          "name": "role",
          "type": "bytes32"
        },
        {
          "internalType": "address",
          "name": "account",
          "type": "address"
        }
      ],
      "name": "hasRole",
      "outputs": [
        {
          "internalType": "bool",
          "name": "",
          "type": "bool"
        }
      ],
      "stateMutability": "view",
      "type": "function"
    },
    {
      "inputs": [
        {
          "internalType": "address",
          "name": "spender",
          "type": "address"
        },
        {
          "internalType": "uint256",
          "name": "addedValue",
          "type": "uint256"
        }
      ],
      "name": "increaseAllowance",
      "outputs": [
        {
          "internalType": "bool",
          "name": "",
          "type": "bool"
        }
      ],
      "stateMutability": "nonpayable",
      "type": "function"
    },
    {
      "inputs": [
        {
          "internalType": "bytes",
          "name": "_data",
          "type": "bytes"
        }
      ],
      "name": "init",
      "outputs": [],
      "stateMutability": "payable",
      "type": "function"
    },
    {
      "inputs": [
        {
          "internalType": "bytes",
          "name": "_data",
          "type": "bytes"
        }
      ],
      "name": "initToken",
      "outputs": [],
      "stateMutability": "nonpayable",
      "type": "function"
    },
    {
      "inputs": [
        {
          "internalType": "string",
          "name": "_name",
          "type": "string"
        },
        {
          "internalType": "string",
          "name": "_symbol",
          "type": "string"
        },
        {
          "internalType": "address",
          "name": "_owner",
          "type": "address"
        },
        {
          "internalType": "uint256",
          "name": "_initialSupply",
          "type": "uint256"
        }
      ],
      "name": "initToken",
      "outputs": [],
      "stateMutability": "nonpayable",
      "type": "function"
    },
    {
      "inputs": [
        {
          "internalType": "address",
          "name": "to",
          "type": "address"
        },
        {
          "internalType": "uint256",
          "name": "amount",
          "type": "uint256"
        }
      ],
      "name": "mint",
      "outputs": [],
      "stateMutability": "nonpayable",
      "type": "function"
    },
    {
      "inputs": [],
      "name": "name",
      "outputs": [
        {
          "internalType": "string",
          "name": "",
          "type": "string"
        }
      ],
      "stateMutability": "view",
      "type": "function"
    },
    {
      "inputs": [
        {
          "internalType": "address",
          "name": "",
          "type": "address"
        }
      ],
      "name": "nonces",
      "outputs": [
        {
          "internalType": "uint256",
          "name": "",
          "type": "uint256"
        }
      ],
      "stateMutability": "view",
      "type": "function"
    },
    {
      "inputs": [],
      "name": "pause",
      "outputs": [],
      "stateMutability": "nonpayable",
      "type": "function"
    },
    {
      "inputs": [],
      "name": "paused",
      "outputs": [
        {
          "internalType": "bool",
          "name": "",
          "type": "bool"
        }
      ],
      "stateMutability": "view",
      "type": "function"
    },
    {
      "inputs": [
        {
          "internalType": "address",
          "name": "owner_",
          "type": "address"
        },
        {
          "internalType": "address",
          "name": "spender",
          "type": "address"
        },
        {
          "internalType": "uint256",
          "name": "value",
          "type": "uint256"
        },
        {
          "internalType": "uint256",
          "name": "deadline",
          "type": "uint256"
        },
        {
          "internalType": "uint8",
          "name": "v",
          "type": "uint8"
        },
        {
          "internalType": "bytes32",
          "name": "r",
          "type": "bytes32"
        },
        {
          "internalType": "bytes32",
          "name": "s",
          "type": "bytes32"
        }
      ],
      "name": "permit",
      "outputs": [],
      "stateMutability": "nonpayable",
      "type": "function"
    },
    {
      "inputs": [
        {
          "internalType": "bytes32",
          "name": "role",
          "type": "bytes32"
        },
        {
          "internalType": "address",
          "name": "account",
          "type": "address"
        }
      ],
      "name": "renounceRole",
      "outputs": [],
      "stateMutability": "nonpayable",
      "type": "function"
    },
    {
      "inputs": [
        {
          "internalType": "bytes32",
          "name": "role",
          "type": "bytes32"
        },
        {
          "internalType": "address",
          "name": "account",
          "type": "address"
        }
      ],
      "name": "revokeRole",
      "outputs": [],
      "stateMutability": "nonpayable",
      "type": "function"
    },
    {
      "inputs": [],
      "name": "symbol",
      "outputs": [
        {
          "internalType": "string",
          "name": "",
          "type": "string"
        }
      ],
      "stateMutability": "view",
      "type": "function"
    },
    {
      "inputs": [],
      "name": "tokenTemplate",
      "outputs": [
        {
          "internalType": "uint256",
          "name": "",
          "type": "uint256"
        }
      ],
      "stateMutability": "view",
      "type": "function"
    },
    {
      "inputs": [],
      "name": "totalSupply",
      "outputs": [
        {
          "internalType": "uint256",
          "name": "",
          "type": "uint256"
        }
      ],
      "stateMutability": "view",
      "type": "function"
    },
    {
      "inputs": [
        {
          "internalType": "address",
          "name": "recipient",
          "type": "address"
        },
        {
          "internalType": "uint256",
          "name": "amount",
          "type": "uint256"
        }
      ],
      "name": "transfer",
      "outputs": [
        {
          "internalType": "bool",
          "name": "",
          "type": "bool"
        }
      ],
      "stateMutability": "nonpayable",
      "type": "function"
    },
    {
      "inputs": [
        {
          "internalType": "address",
          "name": "sender",
          "type": "address"
        },
        {
          "internalType": "address",
          "name": "recipient",
          "type": "address"
        },
        {
          "internalType": "uint256",
          "name": "amount",
          "type": "uint256"
        }
      ],
      "name": "transferFrom",
      "outputs": [
        {
          "internalType": "bool",
          "name": "",
          "type": "bool"
        }
      ],
      "stateMutability": "nonpayable",
      "type": "function"
    },
    {
      "inputs": [],
      "name": "unpause",
      "outputs": [],
      "stateMutability": "nonpayable",
      "type": "function"
    }
  ],
  "bytecode": "0x608060405234801561001057600080fd5b506008805462ff00001916905561239a8061002c6000396000f3fe6080604052600436106102345760003560e01c806370a0823111610138578063a457c2d7116100b0578063d53913931161007f578063dd62ed3e11610064578063dd62ed3e14610669578063e63ab1e9146106af578063f21f007c146106e357600080fd5b8063d539139314610615578063d547741f1461064957600080fd5b8063a457c2d714610595578063a9059cbb146105b5578063ca15c873146105d5578063d505accf146105f557600080fd5b80638dc7df721161010757806391d14854116100ec57806391d148541461054b57806395d89b411461056b578063a217fddf1461058057600080fd5b80638dc7df72146104f35780639010d07c1461051357600080fd5b806370a082311461045b57806379cc6790146104915780637ecebe00146104b15780638456cb59146104de57600080fd5b80633644e515116101cb57806340c10f191161019a5780634ddf47d41161017f5780634ddf47d41461040b5780635c975abb1461041d57806360b1cc801461043b57600080fd5b806340c10f19146103cb57806342966c68146103eb57600080fd5b80633644e5151461036057806336568abe1461037657806339509351146103965780633f4ba83a146103b657600080fd5b806323b872dd1161020757806323b872dd146102cc578063248a9ca3146102ec5780632f2ff15d1461031c578063313ce5671461033e57600080fd5b806306fdde03146102395780630814d3dd14610264578063095ea7b31461028757806318160ddd146102b7575b600080fd5b34801561024557600080fd5b5061024e610703565b60405161025b9190612184565b60405180910390f35b34801561027057600080fd5b50610279600281565b60405190815260200161025b565b34801561029357600080fd5b506102a76102a2366004611eef565b610795565b604051901515815260200161025b565b3480156102c357600080fd5b50600554610279565b3480156102d857600080fd5b506102a76102e7366004611e3a565b6107ac565b3480156102f857600080fd5b50610279610307366004611f1a565b60009081526020819052604090206002015490565b34801561032857600080fd5b5061033c610337366004611f32565b610815565b005b34801561034a57600080fd5b5060085460405160ff909116815260200161025b565b34801561036c57600080fd5b5061027960015481565b34801561038257600080fd5b5061033c610391366004611f32565b6108b2565b3480156103a257600080fd5b506102a76103b1366004611eef565b61093a565b3480156103c257600080fd5b5061033c610970565b3480156103d757600080fd5b5061033c6103e6366004611eef565b610a16565b3480156103f757600080fd5b5061033c610406366004611f1a565b610abc565b61033c610419366004611f77565b5050565b34801561042957600080fd5b5060085462010000900460ff166102a7565b34801561044757600080fd5b5061033c610456366004611f77565b610ac9565b34801561046757600080fd5b50610279610476366004611de6565b6001600160a01b031660009081526002602052604090205490565b34801561049d57600080fd5b5061033c6104ac366004611eef565b610af6565b3480156104bd57600080fd5b506102796104cc366004611de6565b60036020526000908152604090205481565b3480156104ea57600080fd5b5061033c610b29565b3480156104ff57600080fd5b5061033c61050e3660046120bb565b610bcd565b34801561051f57600080fd5b5061053361052e366004611f56565b610c46565b6040516001600160a01b03909116815260200161025b565b34801561055757600080fd5b506102a7610566366004611f32565b610c65565b34801561057757600080fd5b5061024e610c7d565b34801561058c57600080fd5b50610279600081565b3480156105a157600080fd5b506102a76105b0366004611eef565b610c8c565b3480156105c157600080fd5b506102a76105d0366004611eef565b610cdb565b3480156105e157600080fd5b506102796105f0366004611f1a565b610ce8565b34801561060157600080fd5b5061033c610610366004611e7a565b610cff565b34801561062157600080fd5b506102797f9f2df0fed2c77648de5860a4cc508cd0818c85b8b8a1ab4ceeef8d981c8956a681565b34801561065557600080fd5b5061033c610664366004611f32565b610f8e565b34801561067557600080fd5b50610279610684366004611e02565b6001600160a01b03918216600090815260046020908152604080832093909416825291909152205490565b3480156106bb57600080fd5b506102797f65d7a28e3265b37a6474929f336521b332c1681b933f6cb9f3376673440d862a81565b3480156106ef57600080fd5b5061024e6106fe366004611fb7565b61101c565b60606006805461071290612238565b80601f016020809104026020016040519081016040528092919081815260200182805461073e90612238565b801561078b5780601f106107605761010080835404028352916020019161078b565b820191906000526020600020905b81548152906001019060200180831161076e57829003601f168201915b5050505050905090565b60006107a2338484611054565b5060015b92915050565b60006107b98484846111ad565b61080b843361080685604051806060016040528060288152602001612318602891396001600160a01b038a1660009081526004602090815260408083203384529091529020549190611370565b611054565b5060019392505050565b6000828152602081905260409020600201546108319033610c65565b6108a85760405162461bcd60e51b815260206004820152602f60248201527f416363657373436f6e74726f6c3a2073656e646572206d75737420626520616e60448201527f2061646d696e20746f206772616e74000000000000000000000000000000000060648201526084015b60405180910390fd5b61041982826113a7565b6001600160a01b03811633146109305760405162461bcd60e51b815260206004820152602f60248201527f416363657373436f6e74726f6c3a2063616e206f6e6c792072656e6f756e636560448201527f20726f6c657320666f722073656c660000000000000000000000000000000000606482015260840161089f565b6104198282611400565b3360008181526004602090815260408083206001600160a01b038716845290915281205490916107a29185906108069086611459565b61099a7f65d7a28e3265b37a6474929f336521b332c1681b933f6cb9f3376673440d862a33610c65565b610a0c5760405162461bcd60e51b815260206004820152602f60248201527f4d696e7461626c65546f6b656e3a206d7573742068617665207061757365722060448201527f726f6c6520746f20756e70617573650000000000000000000000000000000000606482015260840161089f565b610a146114b8565b565b610a407f9f2df0fed2c77648de5860a4cc508cd0818c85b8b8a1ab4ceeef8d981c8956a633610c65565b610ab25760405162461bcd60e51b815260206004820152602c60248201527f4d696e7461626c65546f6b656e3a206d7573742068617665206d696e7465722060448201527f726f6c6520746f206d696e740000000000000000000000000000000000000000606482015260840161089f565b610419828261155c565b610ac6338261164e565b50565b6000808080610ada85870187612040565b9350935093509350610aee84848484610bcd565b505050505050565b600081610b038433610684565b610b0d91906121f5565b9050610b1a833383611054565b610b24838361164e565b505050565b610b537f65d7a28e3265b37a6474929f336521b332c1681b933f6cb9f3376673440d862a33610c65565b610bc55760405162461bcd60e51b815260206004820152602d60248201527f4d696e7461626c65546f6b656e3a206d7573742068617665207061757365722060448201527f726f6c6520746f20706175736500000000000000000000000000000000000000606482015260840161089f565b610a1461177a565b610bd7848461180c565b610be26000836108a8565b610c0c7f9f2df0fed2c77648de5860a4cc508cd0818c85b8b8a1ab4ceeef8d981c8956a6836108a8565b610c367f65d7a28e3265b37a6474929f336521b332c1681b933f6cb9f3376673440d862a836108a8565b610c40338261155c565b50505050565b6000828152602081905260408120610c5e908361191c565b9392505050565b6000828152602081905260408120610c5e9083611928565b60606007805461071290612238565b60006107a2338461080685604051806060016040528060258152602001612340602591393360009081526004602090815260408083206001600160a01b038d1684529091529020549190611370565b60006107a23384846111ad565b60008181526020819052604081206107a69061194a565b6001600160a01b038716610d555760405162461bcd60e51b815260206004820152601860248201527f45524332303a204f776e65722063616e6e6f7420626520300000000000000000604482015260640161089f565b834210610da45760405162461bcd60e51b815260206004820152600e60248201527f45524332303a2045787069726564000000000000000000000000000000000000604482015260640161089f565b60006040518060400160405280600281526020017f19010000000000000000000000000000000000000000000000000000000000008152506001547f6e71edae12b1b97f4d1f60370fef10105fa2faae0126114a169c64845d6126c960001b8a8a8a600360008f6001600160a01b03166001600160a01b031681526020019081526020016000206000815480929190610e3c90612273565b909155506040805160208101969096526001600160a01b0394851690860152929091166060840152608083015260a082015260c0810188905260e00160405160208183030381529060405280519060200120604051602001610ea09392919061215d565b60408051601f198184030181528282528051602091820120600080855291840180845281905260ff88169284019290925260608301869052608083018590529092509060019060a0016020604051602081039080840390855afa158015610f0b573d6000803e3d6000fd5b505050602060405103519050886001600160a01b0316816001600160a01b031614610f785760405162461bcd60e51b815260206004820152601860248201527f45524332303a20496e76616c6964205369676e61747572650000000000000000604482015260640161089f565b610f83338989611054565b505050505050505050565b600082815260208190526040902060020154610faa9033610c65565b6109305760405162461bcd60e51b815260206004820152603060248201527f416363657373436f6e74726f6c3a2073656e646572206d75737420626520616e60448201527f2061646d696e20746f207265766f6b6500000000000000000000000000000000606482015260840161089f565b606086868686868660405160200161103996959493929190612197565b60405160208183030381529060405290509695505050505050565b6001600160a01b0383166110cf5760405162461bcd60e51b8152602060048201526024808201527f45524332303a20617070726f76652066726f6d20746865207a65726f2061646460448201527f7265737300000000000000000000000000000000000000000000000000000000606482015260840161089f565b6001600160a01b03821661114b5760405162461bcd60e51b815260206004820152602260248201527f45524332303a20617070726f766520746f20746865207a65726f20616464726560448201527f7373000000000000000000000000000000000000000000000000000000000000606482015260840161089f565b6001600160a01b0383811660008181526004602090815260408083209487168084529482529182902085905590518481527f8c5be1e5ebec7d5bd14f71427d1e84f3dd0314c0f7b2291e5b200ac8c7c3b92591015b60405180910390a3505050565b6001600160a01b0383166112295760405162461bcd60e51b815260206004820152602560248201527f45524332303a207472616e736665722066726f6d20746865207a65726f20616460448201527f6472657373000000000000000000000000000000000000000000000000000000606482015260840161089f565b6001600160a01b0382166112a55760405162461bcd60e51b815260206004820152602360248201527f45524332303a207472616e7366657220746f20746865207a65726f206164647260448201527f6573730000000000000000000000000000000000000000000000000000000000606482015260840161089f565b6112b0838383611954565b6112ed816040518060600160405280602681526020016122f2602691396001600160a01b0386166000908152600260205260409020549190611370565b6001600160a01b03808516600090815260026020526040808220939093559084168152205461131c9082611459565b6001600160a01b0380841660008181526002602052604090819020939093559151908516907fddf252ad1be2c89b69c2b068fc378daa952ba7f163c4a11628f55a4df523b3ef906111a09085815260200190565b600081848411156113945760405162461bcd60e51b815260040161089f9190612184565b5061139f83856121f5565b949350505050565b60008281526020819052604090206113bf908261195f565b156104195760405133906001600160a01b0383169084907f2f8788117e7eff1d82e926ec794901d17c78024a50270940304540a733656f0d90600090a45050565b60008281526020819052604090206114189082611974565b156104195760405133906001600160a01b0383169084907ff6391f5c32d9c69d2a47ea670b442974b53935d1edc7fd64eb21e047a839171b90600090a45050565b60008061146683856121dd565b905083811015610c5e5760405162461bcd60e51b815260206004820152601b60248201527f536166654d6174683a206164646974696f6e206f766572666c6f770000000000604482015260640161089f565b60085462010000900460ff166115105760405162461bcd60e51b815260206004820152601460248201527f5061757361626c653a206e6f7420706175736564000000000000000000000000604482015260640161089f565b6008805462ff0000191690557f5db9ee0a495bf2e6ff9c91a7834c1ba4fdd244a5e8aa4e537bd38aeae4b073aa335b6040516001600160a01b03909116815260200160405180910390a1565b6001600160a01b0382166115b25760405162461bcd60e51b815260206004820152601f60248201527f45524332303a206d696e7420746f20746865207a65726f206164647265737300604482015260640161089f565b6115be60008383611954565b6005546115cb9082611459565b6005556001600160a01b0382166000908152600260205260409020546115f19082611459565b6001600160a01b0383166000818152600260205260408082209390935591519091907fddf252ad1be2c89b69c2b068fc378daa952ba7f163c4a11628f55a4df523b3ef906116429085815260200190565b60405180910390a35050565b6001600160a01b0382166116ca5760405162461bcd60e51b815260206004820152602160248201527f45524332303a206275726e2066726f6d20746865207a65726f2061646472657360448201527f7300000000000000000000000000000000000000000000000000000000000000606482015260840161089f565b6116d682600083611954565b611713816040518060600160405280602281526020016122d0602291396001600160a01b0385166000908152600260205260409020549190611370565b6001600160a01b0383166000908152600260205260409020556005546117399082611989565b6005556040518181526000906001600160a01b038416907fddf252ad1be2c89b69c2b068fc378daa952ba7f163c4a11628f55a4df523b3ef90602001611642565b60085462010000900460ff16156117d35760405162461bcd60e51b815260206004820152601060248201527f5061757361626c653a2070617573656400000000000000000000000000000000604482015260640161089f565b6008805462ff00001916620100001790557f62e78cea01bee320cd4e420270b5ea74000d11b0c9f74754ebdbfc544b05a25861153f3390565b600854610100900460ff161561188a5760405162461bcd60e51b815260206004820152602a60248201527f45524332303a20746f6b656e2068617320616c7265616479206265656e20696e60448201527f697469616c697a65642100000000000000000000000000000000000000000000606482015260840161089f565b815161189d906006906020850190611c7f565b5080516118b1906007906020840190611c7f565b505060088054604080517f47e79534a245952e8b16893a336b85a3d9ea9fa8c573f3d803afb92a79469218602080830191909152468284015230606080840191909152835180840390910181526080909201909252805191012060015561ffff191661011217905550565b6000610c5e83836119e5565b6001600160a01b03811660009081526001830160205260408120541515610c5e565b60006107a6825490565b610b24838383611a94565b6000610c5e836001600160a01b038416611b13565b6000610c5e836001600160a01b038416611b62565b6000828211156119db5760405162461bcd60e51b815260206004820152601e60248201527f536166654d6174683a207375627472616374696f6e206f766572666c6f770000604482015260640161089f565b610c5e82846121f5565b81546000908210611a5e5760405162461bcd60e51b815260206004820152602260248201527f456e756d657261626c655365743a20696e646578206f7574206f6620626f756e60448201527f6473000000000000000000000000000000000000000000000000000000000000606482015260840161089f565b826000018281548110611a8157634e487b7160e01b600052603260045260246000fd5b9060005260206000200154905092915050565b60085462010000900460ff1615610b245760405162461bcd60e51b815260206004820152602a60248201527f45524332305061757361626c653a20746f6b656e207472616e7366657220776860448201527f696c652070617573656400000000000000000000000000000000000000000000606482015260840161089f565b6000818152600183016020526040812054611b5a575081546001818101845560008481526020808220909301849055845484825282860190935260409020919091556107a6565b5060006107a6565b60008181526001830160205260408120548015611c75576000611b866001836121f5565b8554909150600090611b9a906001906121f5565b90506000866000018281548110611bc157634e487b7160e01b600052603260045260246000fd5b9060005260206000200154905080876000018481548110611bf257634e487b7160e01b600052603260045260246000fd5b600091825260209091200155611c098360016121dd565b60008281526001890160205260409020558654879080611c3957634e487b7160e01b600052603160045260246000fd5b600190038181906000526020600020016000905590558660010160008781526020019081526020016000206000905560019450505050506107a6565b60009150506107a6565b828054611c8b90612238565b90600052602060002090601f016020900481019282611cad5760008555611cf3565b82601f10611cc657805160ff1916838001178555611cf3565b82800160010185558215611cf3579182015b82811115611cf3578251825591602001919060010190611cd8565b50611cff929150611d03565b5090565b5b80821115611cff5760008155600101611d04565b60008083601f840112611d29578182fd5b50813567ffffffffffffffff811115611d40578182fd5b602083019150836020828501011115611d5857600080fd5b9250929050565b600082601f830112611d6f578081fd5b813567ffffffffffffffff80821115611d8a57611d8a6122a4565b604051601f8301601f19908116603f01168101908282118183101715611db257611db26122a4565b81604052838152866020858801011115611dca578485fd5b8360208701602083013792830160200193909352509392505050565b600060208284031215611df7578081fd5b8135610c5e816122ba565b60008060408385031215611e14578081fd5b8235611e1f816122ba565b91506020830135611e2f816122ba565b809150509250929050565b600080600060608486031215611e4e578081fd5b8335611e59816122ba565b92506020840135611e69816122ba565b929592945050506040919091013590565b600080600080600080600060e0888a031215611e94578283fd5b8735611e9f816122ba565b96506020880135611eaf816122ba565b95506040880135945060608801359350608088013560ff81168114611ed2578384fd5b9699959850939692959460a0840135945060c09093013592915050565b60008060408385031215611f01578182fd5b8235611f0c816122ba565b946020939093013593505050565b600060208284031215611f2b578081fd5b5035919050565b60008060408385031215611f44578182fd5b823591506020830135611e2f816122ba565b60008060408385031215611f68578182fd5b50508035926020909101359150565b60008060208385031215611f89578182fd5b823567ffffffffffffffff811115611f9f578283fd5b611fab85828601611d18565b90969095509350505050565b60008060008060008060808789031215611fcf578182fd5b863567ffffffffffffffff80821115611fe6578384fd5b611ff28a838b01611d18565b9098509650602089013591508082111561200a578384fd5b5061201789828a01611d18565b909550935050604087013561202b816122ba565b80925050606087013590509295509295509295565b60008060008060808587031215612055578384fd5b843567ffffffffffffffff8082111561206c578586fd5b61207888838901611d5f565b9550602087013591508082111561208d578485fd5b5061209a87828801611d5f565b93505060408501356120ab816122ba565b9396929550929360600135925050565b600080600080608085870312156120d0578182fd5b843567ffffffffffffffff808211156120e7578384fd5b6120f388838901611d5f565b9550602087013591508082111561208d578384fd5b6000815180845261212081602086016020860161220c565b601f01601f19169290920160200192915050565b81835281816020850137506000828201602090810191909152601f909101601f19169091010190565b6000845161216f81846020890161220c565b91909101928352506020820152604001919050565b602081526000610c5e6020830184612108565b6080815260006121ab60808301888a612134565b82810360208401526121be818789612134565b6001600160a01b03959095166040840152505060600152949350505050565b600082198211156121f0576121f061228e565b500190565b6000828210156122075761220761228e565b500390565b60005b8381101561222757818101518382015260200161220f565b83811115610c405750506000910152565b600181811c9082168061224c57607f821691505b6020821081141561226d57634e487b7160e01b600052602260045260246000fd5b50919050565b60006000198214156122875761228761228e565b5060010190565b634e487b7160e01b600052601160045260246000fd5b634e487b7160e01b600052604160045260246000fd5b6001600160a01b0381168114610ac657600080fdfe45524332303a206275726e20616d6f756e7420657863656564732062616c616e636545524332303a207472616e7366657220616d6f756e7420657863656564732062616c616e636545524332303a207472616e7366657220616d6f756e74206578636565647320616c6c6f77616e636545524332303a2064656372656173656420616c6c6f77616e63652062656c6f77207a65726fa264697066735822122045b850376aaf8173b3ed5fcbdcd3045a395f56c4c73ea04c8a2f669f3d91e64364736f6c63430008040033",
  "linkReferences": {},
  "deployedLinkReferences": {}
}