{
  "_format": "hh-sol-artifact-1",
  "contractName": "ListFactory",
  "sourceName": "contracts/Access/ListFactory.sol",
  "abi": [
    {
      "anonymous": false,
      "inputs": [
        {
          "indexed": false,
          "internalType": "address",
          "name": "newAddress",
          "type": "address"
        }
      ],
      "name": "FactoryDeprecated",
      "type": "event"
    },
    {
      "anonymous": false,
      "inputs": [
        {
          "indexed": false,
          "internalType": "uint256",
          "name": "oldFee",
          "type": "uint256"
        },
        {
          "indexed": false,
          "internalType": "uint256",
          "name": "newFee",
          "type": "uint256"
        }
      ],
      "name": "MinimumFeeUpdated",
      "type": "event"
    },
    {
      "anonymous": false,
      "inputs": [
        {
          "indexed": true,
          "internalType": "address",
          "name": "operator",
          "type": "address"
        },
        {
          "indexed": true,
          "internalType": "address",
          "name": "addr",
          "type": "address"
        },
        {
          "indexed": false,
          "internalType": "address",
          "name": "pointList",
          "type": "address"
        },
        {
          "indexed": false,
          "internalType": "address",
          "name": "owner",
          "type": "address"
        }
      ],
      "name": "PointListDeployed",
      "type": "event"
    },
    {
      "anonymous": false,
      "inputs": [],
      "name": "VaporInitListFactory",
      "type": "event"
    },
    {
      "inputs": [],
      "name": "VaporDiv",
      "outputs": [
        {
          "internalType": "address payable",
          "name": "",
          "type": "address"
        }
      ],
      "stateMutability": "view",
      "type": "function"
    },
    {
      "inputs": [],
      "name": "accessControls",
      "outputs": [
        {
          "internalType": "contract VaporAccessControls",
          "name": "",
          "type": "address"
        }
      ],
      "stateMutability": "view",
      "type": "function"
    },
    {
      "inputs": [
        {
          "internalType": "address",
          "name": "_listOwner",
          "type": "address"
        },
        {
          "internalType": "address[]",
          "name": "_accounts",
          "type": "address[]"
        },
        {
          "internalType": "uint256[]",
          "name": "_amounts",
          "type": "uint256[]"
        }
      ],
      "name": "deployPointList",
      "outputs": [
        {
          "internalType": "address",
          "name": "pointList",
          "type": "address"
        }
      ],
      "stateMutability": "payable",
      "type": "function"
    },
    {
      "inputs": [
        {
          "internalType": "address",
          "name": "_newAddress",
          "type": "address"
        }
      ],
      "name": "deprecateFactory",
      "outputs": [],
      "stateMutability": "nonpayable",
      "type": "function"
    },
    {
      "inputs": [
        {
          "internalType": "address",
          "name": "_accessControls",
          "type": "address"
        },
        {
          "internalType": "address",
          "name": "_pointListTemplate",
          "type": "address"
        },
        {
          "internalType": "uint256",
          "name": "_minimumFee",
          "type": "uint256"
        }
      ],
      "name": "initListFactory",
      "outputs": [],
      "stateMutability": "nonpayable",
      "type": "function"
    },
    {
      "inputs": [
        {
          "internalType": "address",
          "name": "",
          "type": "address"
        }
      ],
      "name": "isChild",
      "outputs": [
        {
          "internalType": "bool",
          "name": "",
          "type": "bool"
        }
      ],
      "stateMutability": "view",
      "type": "function"
    },
    {
      "inputs": [
        {
          "internalType": "uint256",
          "name": "",
          "type": "uint256"
        }
      ],
      "name": "lists",
      "outputs": [
        {
          "internalType": "address",
          "name": "",
          "type": "address"
        }
      ],
      "stateMutability": "view",
      "type": "function"
    },
    {
      "inputs": [],
      "name": "minimumFee",
      "outputs": [
        {
          "internalType": "uint256",
          "name": "",
          "type": "uint256"
        }
      ],
      "stateMutability": "view",
      "type": "function"
    },
    {
      "inputs": [],
      "name": "newAddress",
      "outputs": [
        {
          "internalType": "address",
          "name": "",
          "type": "address"
        }
      ],
      "stateMutability": "view",
      "type": "function"
    },
    {
      "inputs": [],
      "name": "numberOfChildren",
      "outputs": [
        {
          "internalType": "uint256",
          "name": "",
          "type": "uint256"
        }
      ],
      "stateMutability": "view",
      "type": "function"
    },
    {
      "inputs": [],
      "name": "pointListTemplate",
      "outputs": [
        {
          "internalType": "address",
          "name": "",
          "type": "address"
        }
      ],
      "stateMutability": "view",
      "type": "function"
    },
    {
      "inputs": [
        {
          "internalType": "address payable",
          "name": "_divaddr",
          "type": "address"
        }
      ],
      "name": "setDividends",
      "outputs": [],
      "stateMutability": "nonpayable",
      "type": "function"
    },
    {
      "inputs": [
        {
          "internalType": "uint256",
          "name": "_minimumFee",
          "type": "uint256"
        }
      ],
      "name": "setMinimumFee",
      "outputs": [],
      "stateMutability": "nonpayable",
      "type": "function"
    },
    {
      "inputs": [
        {
          "internalType": "address",
          "name": "_tokenAddress",
          "type": "address"
        },
        {
          "internalType": "uint256",
          "name": "_tokens",
          "type": "uint256"
        }
      ],
      "name": "transferAnyERC20Token",
      "outputs": [
        {
          "internalType": "bool",
          "name": "success",
          "type": "bool"
        }
      ],
      "stateMutability": "nonpayable",
      "type": "function"
    },
    {
      "stateMutability": "payable",
      "type": "receive"
    }
  ],
  "bytecode": "0x608060405234801561001057600080fd5b5061107f806100206000396000f3fe6080604052600436106100e15760003560e01c80639e9188ea1161007f578063de0946af11610059578063de0946af1461024b578063e1f6b0341461026b578063e9bb4b6b1461028b578063fc91a897146102ab57600080fd5b80639e9188ea146101db578063ccdb3f45146101fb578063dc39d06d1461021b57600080fd5b8063534349f5116100bb578063534349f514610166578063726aba7f1461017b578063748365ef1461019b57806396102cf4146101bb57600080fd5b8063182a7506146100f05780631a7626e714610112578063424599a31461013b57600080fd5b366100eb57600080fd5b600080fd5b3480156100fc57600080fd5b5061011061010b366004610ee6565b6102db565b005b34801561011e57600080fd5b5061012860035481565b6040519081526020015b60405180910390f35b61014e610149366004610dc4565b6103f2565b6040516001600160a01b039091168152602001610132565b34801561017257600080fd5b50600554610128565b34801561018757600080fd5b5060015461014e906001600160a01b031681565b3480156101a757600080fd5b5060005461014e906001600160a01b031681565b3480156101c757600080fd5b5061014e6101d6366004610ee6565b610738565b3480156101e757600080fd5b506101106101f6366004610d68565b610762565b34801561020757600080fd5b5060025461014e906001600160a01b031681565b34801561022757600080fd5b5061023b610236366004610e9b565b61087e565b6040519015158152602001610132565b34801561025757600080fd5b50610110610266366004610d68565b61098c565b34801561027757600080fd5b5060065461014e906001600160a01b031681565b34801561029757600080fd5b506101106102a6366004610d84565b610ade565b3480156102b757600080fd5b5061023b6102c6366004610d68565b60046020526000908152604090205460ff1681565b60005460405163c395fcb360e01b81523360048201526001600160a01b039091169063c395fcb39060240160206040518083038186803b15801561031e57600080fd5b505afa158015610332573d6000803e3d6000fd5b505050506040513d601f19601f820116820180604052508101906103569190610ec6565b6103b15760405162461bcd60e51b815260206004820152602160248201527f4c697374466163746f72793a2053656e646572206d7573742062652061646d696044820152603760f91b60648201526084015b60405180910390fd5b60035460408051918252602082018390527fcc2f49c6214278ae5862935eff953448e8e69118d10abfafaf63ea6aa35255cb910160405180910390a1600355565b600060035434101561040357600080fd5b600154610418906001600160a01b0316610b8a565b8351909150156105df5760405163283ba19b60e01b81523060048201526001600160a01b0382169063283ba19b90602401600060405180830381600087803b15801561046357600080fd5b505af1158015610477573d6000803e3d6000fd5b50506040517f9a80c4a10000000000000000000000000000000000000000000000000000000081526001600160a01b0384169250639a80c4a191506104c29086908690600401610f37565b600060405180830381600087803b1580156104dc57600080fd5b505af11580156104f0573d6000803e3d6000fd5b50506040517f6595171c0000000000000000000000000000000000000000000000000000000081526001600160a01b03878116600483015284169250636595171c9150602401600060405180830381600087803b15801561055057600080fd5b505af1158015610564573d6000803e3d6000fd5b50506040517fdccfe3100000000000000000000000000000000000000000000000000000000081523060048201526001600160a01b038416925063dccfe3109150602401600060405180830381600087803b1580156105c257600080fd5b505af11580156105d6573d6000803e3d6000fd5b5050505061063b565b60405163283ba19b60e01b81526001600160a01b03858116600483015282169063283ba19b90602401600060405180830381600087803b15801561062257600080fd5b505af1158015610636573d6000803e3d6000fd5b505050505b6001600160a01b038181166000818152600460209081526040808320805460ff1916600190811790915560058054808301825594527f036b6384b5eca791c62761152d0c79bb0604c104a5fb6f4eb0703f3154bb3db0909301805473ffffffffffffffffffffffffffffffffffffffff19168517905591548251908516815293881690840152909133917f8a13771d198709940307fb40397206144caf6dfef0f59c2951c91c72e9844454910160405180910390a33415610731576006546040516001600160a01b03909116903480156108fc02916000818181858888f1935050505015801561072f573d6000803e3d6000fd5b505b9392505050565b6005818154811061074857600080fd5b6000918252602090912001546001600160a01b0316905081565b60005460405163c395fcb360e01b81523360048201526001600160a01b039091169063c395fcb39060240160206040518083038186803b1580156107a557600080fd5b505afa1580156107b9573d6000803e3d6000fd5b505050506040513d601f19601f820116820180604052508101906107dd9190610ec6565b61084f5760405162461bcd60e51b815260206004820152602760248201527f5661706f72546f6b656e466163746f72793a2053656e646572206d757374206260448201527f652041646d696e0000000000000000000000000000000000000000000000000060648201526084016103a8565b6006805473ffffffffffffffffffffffffffffffffffffffff19166001600160a01b0392909216919091179055565b6000805460405163c395fcb360e01b81523360048201526001600160a01b039091169063c395fcb39060240160206040518083038186803b1580156108c257600080fd5b505afa1580156108d6573d6000803e3d6000fd5b505050506040513d601f19601f820116820180604052508101906108fa9190610ec6565b61096b5760405162461bcd60e51b8152602060048201526024808201527f4c697374466163746f72793a2053656e646572206d757374206265206f70657260448201527f61746f720000000000000000000000000000000000000000000000000000000060648201526084016103a8565b6006546109839084906001600160a01b031684610bf3565b50600192915050565b60005460405163c395fcb360e01b81523360048201526001600160a01b039091169063c395fcb39060240160206040518083038186803b1580156109cf57600080fd5b505afa1580156109e3573d6000803e3d6000fd5b505050506040513d601f19601f82011682018060405250810190610a079190610ec6565b610a5d5760405162461bcd60e51b815260206004820152602160248201527f4c697374466163746f72793a2053656e646572206d7573742062652061646d696044820152603760f91b60648201526084016103a8565b6002546001600160a01b031615610a7357600080fd5b6040516001600160a01b03821681527f0ac885cfcac9d1450e80f787dbf9546001fb50414106435b10b1d27b448b86689060200160405180910390a16002805473ffffffffffffffffffffffffffffffffffffffff19166001600160a01b0392909216919091179055565b600054600160a01b900460ff1615610af557600080fd5b60008054600180546001600160a01b0386811673ffffffffffffffffffffffffffffffffffffffff19929092169190911790915560038490557fffffffffffffffffffffff00000000000000000000000000000000000000000090911690851617600160a01b1781556040517f2066903b5c01b8047e5c9bc2425c93264af331ee2fbed7aaa3aab9a71d56c5fe9190a1505050565b6000808260601b90506040517f3d602d80600a3d3981f3363d3d373d3d3d363d7300000000000000000000000081528160148201527f5af43d82803e903d91602b57fd5bf3000000000000000000000000000000000060288201526037816000f0949350505050565b604080516001600160a01b038481166024830152604480830185905283518084039091018152606490920183526020820180517bffffffffffffffffffffffffffffffffffffffffffffffffffffffff167fa9059cbb000000000000000000000000000000000000000000000000000000001790529151600092839290871691610c7d9190610efe565b6000604051808303816000865af19150503d8060008114610cba576040519150601f19603f3d011682016040523d82523d6000602084013e610cbf565b606091505b5091509150818015610ce9575080511580610ce9575080806020019051810190610ce99190610ec6565b610cf257600080fd5b5050505050565b600082601f830112610d09578081fd5b81356020610d1e610d1983610fde565b610fad565b80838252828201915082860187848660051b8901011115610d3d578586fd5b855b85811015610d5b57813584529284019290840190600101610d3f565b5090979650505050505050565b600060208284031215610d79578081fd5b813561073181611031565b600080600060608486031215610d98578182fd5b8335610da381611031565b92506020840135610db381611031565b929592945050506040919091013590565b600080600060608486031215610dd8578283fd5b8335610de381611031565b925060208481013567ffffffffffffffff80821115610e00578485fd5b818701915087601f830112610e13578485fd5b8135610e21610d1982610fde565b8082825285820191508585018b878560051b8801011115610e40578889fd5b8895505b83861015610e6b578035610e5781611031565b835260019590950194918601918601610e44565b50965050506040870135925080831115610e83578384fd5b5050610e9186828701610cf9565b9150509250925092565b60008060408385031215610ead578182fd5b8235610eb881611031565b946020939093013593505050565b600060208284031215610ed7578081fd5b81518015158114610731578182fd5b600060208284031215610ef7578081fd5b5035919050565b60008251815b81811015610f1e5760208186018101518583015201610f04565b81811115610f2c5782828501525b509190910192915050565b604080825283519082018190526000906020906060840190828701845b82811015610f795781516001600160a01b031684529284019290840190600101610f54565b50505083810382850152845180825285830191830190845b81811015610d5b57835183529284019291840191600101610f91565b604051601f8201601f1916810167ffffffffffffffff81118282101715610fd657610fd6611002565b604052919050565b600067ffffffffffffffff821115610ff857610ff8611002565b5060051b60200190565b7f4e487b7100000000000000000000000000000000000000000000000000000000600052604160045260246000fd5b6001600160a01b038116811461104657600080fd5b5056fea26469706673582212206a382787e6e23df8d532a718f6eabc0f6f1618fabb11783baf2aead8027d363964736f6c63430008040033",
  "linkReferences": {},
  "deployedLinkReferences": {}
}