{
  "_format": "hh-sol-artifact-1",
  "contractName": "ListFactory",
  "sourceName": "contracts/Access/ListFactory.sol",
  "abi": [
    {
      "anonymous": false,
      "inputs": [
        {
          "indexed": false,
          "internalType": "address",
          "name": "newAddress",
          "type": "address"
        }
      ],
      "name": "FactoryDeprecated",
      "type": "event"
    },
    {
      "anonymous": false,
      "inputs": [
        {
          "indexed": false,
          "internalType": "uint256",
          "name": "oldFee",
          "type": "uint256"
        },
        {
          "indexed": false,
          "internalType": "uint256",
          "name": "newFee",
          "type": "uint256"
        }
      ],
      "name": "MinimumFeeUpdated",
      "type": "event"
    },
    {
      "anonymous": false,
      "inputs": [],
      "name": "MisoInitListFactory",
      "type": "event"
    },
    {
      "anonymous": false,
      "inputs": [
        {
          "indexed": true,
          "internalType": "address",
          "name": "operator",
          "type": "address"
        },
        {
          "indexed": true,
          "internalType": "address",
          "name": "addr",
          "type": "address"
        },
        {
          "indexed": false,
          "internalType": "address",
          "name": "pointList",
          "type": "address"
        },
        {
          "indexed": false,
          "internalType": "address",
          "name": "owner",
          "type": "address"
        }
      ],
      "name": "PointListDeployed",
      "type": "event"
    },
    {
      "inputs": [],
      "name": "accessControls",
      "outputs": [
        {
          "internalType": "contract MISOAccessControls",
          "name": "",
          "type": "address"
        }
      ],
      "stateMutability": "view",
      "type": "function"
    },
    {
      "inputs": [
        {
          "internalType": "address",
          "name": "_listOwner",
          "type": "address"
        },
        {
          "internalType": "address[]",
          "name": "_accounts",
          "type": "address[]"
        },
        {
          "internalType": "uint256[]",
          "name": "_amounts",
          "type": "uint256[]"
        }
      ],
      "name": "deployPointList",
      "outputs": [
        {
          "internalType": "address",
          "name": "pointList",
          "type": "address"
        }
      ],
      "stateMutability": "payable",
      "type": "function"
    },
    {
      "inputs": [
        {
          "internalType": "address",
          "name": "_newAddress",
          "type": "address"
        }
      ],
      "name": "deprecateFactory",
      "outputs": [],
      "stateMutability": "nonpayable",
      "type": "function"
    },
    {
      "inputs": [
        {
          "internalType": "address",
          "name": "_accessControls",
          "type": "address"
        },
        {
          "internalType": "address",
          "name": "_pointListTemplate",
          "type": "address"
        },
        {
          "internalType": "uint256",
          "name": "_minimumFee",
          "type": "uint256"
        }
      ],
      "name": "initListFactory",
      "outputs": [],
      "stateMutability": "nonpayable",
      "type": "function"
    },
    {
      "inputs": [
        {
          "internalType": "address",
          "name": "",
          "type": "address"
        }
      ],
      "name": "isChild",
      "outputs": [
        {
          "internalType": "bool",
          "name": "",
          "type": "bool"
        }
      ],
      "stateMutability": "view",
      "type": "function"
    },
    {
      "inputs": [
        {
          "internalType": "uint256",
          "name": "",
          "type": "uint256"
        }
      ],
      "name": "lists",
      "outputs": [
        {
          "internalType": "address",
          "name": "",
          "type": "address"
        }
      ],
      "stateMutability": "view",
      "type": "function"
    },
    {
      "inputs": [],
      "name": "minimumFee",
      "outputs": [
        {
          "internalType": "uint256",
          "name": "",
          "type": "uint256"
        }
      ],
      "stateMutability": "view",
      "type": "function"
    },
    {
      "inputs": [],
      "name": "misoDiv",
      "outputs": [
        {
          "internalType": "address payable",
          "name": "",
          "type": "address"
        }
      ],
      "stateMutability": "view",
      "type": "function"
    },
    {
      "inputs": [],
      "name": "newAddress",
      "outputs": [
        {
          "internalType": "address",
          "name": "",
          "type": "address"
        }
      ],
      "stateMutability": "view",
      "type": "function"
    },
    {
      "inputs": [],
      "name": "numberOfChildren",
      "outputs": [
        {
          "internalType": "uint256",
          "name": "",
          "type": "uint256"
        }
      ],
      "stateMutability": "view",
      "type": "function"
    },
    {
      "inputs": [],
      "name": "pointListTemplate",
      "outputs": [
        {
          "internalType": "address",
          "name": "",
          "type": "address"
        }
      ],
      "stateMutability": "view",
      "type": "function"
    },
    {
      "inputs": [
        {
          "internalType": "address payable",
          "name": "_divaddr",
          "type": "address"
        }
      ],
      "name": "setDividends",
      "outputs": [],
      "stateMutability": "nonpayable",
      "type": "function"
    },
    {
      "inputs": [
        {
          "internalType": "uint256",
          "name": "_minimumFee",
          "type": "uint256"
        }
      ],
      "name": "setMinimumFee",
      "outputs": [],
      "stateMutability": "nonpayable",
      "type": "function"
    },
    {
      "inputs": [
        {
          "internalType": "address",
          "name": "_tokenAddress",
          "type": "address"
        },
        {
          "internalType": "uint256",
          "name": "_tokens",
          "type": "uint256"
        }
      ],
      "name": "transferAnyERC20Token",
      "outputs": [
        {
          "internalType": "bool",
          "name": "success",
          "type": "bool"
        }
      ],
      "stateMutability": "nonpayable",
      "type": "function"
    },
    {
      "stateMutability": "payable",
      "type": "receive"
    }
  ],
  "bytecode": "0x608060405234801561001057600080fd5b50611abf806100206000396000f3fe6080604052600436106100e15760003560e01c80639e9188ea1161007f578063dc39d06d11610059578063dc39d06d146102b1578063de0946af146102ee578063e9bb4b6b14610317578063fc91a89714610340576100eb565b80639e9188ea14610232578063c9907b081461025b578063ccdb3f4514610286576100eb565b8063534349f5116100bb578063534349f514610174578063726aba7f1461019f578063748365ef146101ca57806396102cf4146101f5576100eb565b8063182a7506146100f05780631a7626e714610119578063424599a314610144576100eb565b366100eb57600080fd5b600080fd5b3480156100fc57600080fd5b5061011760048036038101906101129190611340565b61037d565b005b34801561012557600080fd5b5061012e6104aa565b60405161013b91906116c4565b60405180910390f35b61015e6004803603810190610159919061125c565b6104b0565b60405161016b919061156f565b60405180910390f35b34801561018057600080fd5b506101896108d5565b60405161019691906116c4565b60405180910390f35b3480156101ab57600080fd5b506101b46108e2565b6040516101c1919061156f565b60405180910390f35b3480156101d657600080fd5b506101df610908565b6040516101ec9190611649565b60405180910390f35b34801561020157600080fd5b5061021c60048036038101906102179190611340565b61092c565b604051610229919061156f565b60405180910390f35b34801561023e57600080fd5b50610259600480360381019061025491906111e4565b61096b565b005b34801561026757600080fd5b50610270610a97565b60405161027d919061158a565b60405180910390f35b34801561029257600080fd5b5061029b610abd565b6040516102a8919061156f565b60405180910390f35b3480156102bd57600080fd5b506102d860048036038101906102d391906112db565b610ae3565b6040516102e5919061162e565b60405180910390f35b3480156102fa57600080fd5b50610315600480360381019061031091906111bb565b610c05565b005b34801561032357600080fd5b5061033e6004803603810190610339919061120d565b610dc3565b005b34801561034c57600080fd5b50610367600480360381019061036291906111bb565b610eb1565b604051610374919061162e565b60405180910390f35b60008054906101000a900473ffffffffffffffffffffffffffffffffffffffff1673ffffffffffffffffffffffffffffffffffffffff1663c395fcb3336040518263ffffffff1660e01b81526004016103d6919061156f565b60206040518083038186803b1580156103ee57600080fd5b505afa158015610402573d6000803e3d6000fd5b505050506040513d601f19601f820116820180604052508101906104269190611317565b610465576040517f08c379a000000000000000000000000000000000000000000000000000000000815260040161045c90611664565b60405180910390fd5b7fcc2f49c6214278ae5862935eff953448e8e69118d10abfafaf63ea6aa35255cb600354826040516104989291906116df565b60405180910390a18060038190555050565b60035481565b60006003543410156104c157600080fd5b6104ec600160009054906101000a900473ffffffffffffffffffffffffffffffffffffffff16610ed1565b90506000835111156106ab578073ffffffffffffffffffffffffffffffffffffffff1663283ba19b306040518263ffffffff1660e01b8152600401610531919061156f565b600060405180830381600087803b15801561054b57600080fd5b505af115801561055f573d6000803e3d6000fd5b505050508073ffffffffffffffffffffffffffffffffffffffff16639a80c4a184846040518363ffffffff1660e01b815260040161059e9291906115f7565b600060405180830381600087803b1580156105b857600080fd5b505af11580156105cc573d6000803e3d6000fd5b505050508073ffffffffffffffffffffffffffffffffffffffff16636595171c856040518263ffffffff1660e01b8152600401610609919061156f565b600060405180830381600087803b15801561062357600080fd5b505af1158015610637573d6000803e3d6000fd5b505050508073ffffffffffffffffffffffffffffffffffffffff1663dccfe310306040518263ffffffff1660e01b8152600401610674919061156f565b600060405180830381600087803b15801561068e57600080fd5b505af11580156106a2573d6000803e3d6000fd5b50505050610717565b8073ffffffffffffffffffffffffffffffffffffffff1663283ba19b856040518263ffffffff1660e01b81526004016106e4919061156f565b600060405180830381600087803b1580156106fe57600080fd5b505af1158015610712573d6000803e3d6000fd5b505050505b6001600460008373ffffffffffffffffffffffffffffffffffffffff1673ffffffffffffffffffffffffffffffffffffffff16815260200190815260200160002060006101000a81548160ff0219169083151502179055506005819080600181540180825580915050600190039060005260206000200160009091909190916101000a81548173ffffffffffffffffffffffffffffffffffffffff021916908373ffffffffffffffffffffffffffffffffffffffff1602179055508073ffffffffffffffffffffffffffffffffffffffff163373ffffffffffffffffffffffffffffffffffffffff167f8a13771d198709940307fb40397206144caf6dfef0f59c2951c91c72e9844454600160009054906101000a900473ffffffffffffffffffffffffffffffffffffffff16876040516108539291906115a5565b60405180910390a360003411156108ce57600660009054906101000a900473ffffffffffffffffffffffffffffffffffffffff1673ffffffffffffffffffffffffffffffffffffffff166108fc349081150290604051600060405180830381858888f193505050501580156108cc573d6000803e3d6000fd5b505b9392505050565b6000600580549050905090565b600160009054906101000a900473ffffffffffffffffffffffffffffffffffffffff1681565b60008054906101000a900473ffffffffffffffffffffffffffffffffffffffff1681565b6005818154811061093c57600080fd5b906000526020600020016000915054906101000a900473ffffffffffffffffffffffffffffffffffffffff1681565b60008054906101000a900473ffffffffffffffffffffffffffffffffffffffff1673ffffffffffffffffffffffffffffffffffffffff1663c395fcb3336040518263ffffffff1660e01b81526004016109c4919061156f565b60206040518083038186803b1580156109dc57600080fd5b505afa1580156109f0573d6000803e3d6000fd5b505050506040513d601f19601f82011682018060405250810190610a149190611317565b610a53576040517f08c379a0000000000000000000000000000000000000000000000000000000008152600401610a4a906116a4565b60405180910390fd5b80600660006101000a81548173ffffffffffffffffffffffffffffffffffffffff021916908373ffffffffffffffffffffffffffffffffffffffff16021790555050565b600660009054906101000a900473ffffffffffffffffffffffffffffffffffffffff1681565b600260009054906101000a900473ffffffffffffffffffffffffffffffffffffffff1681565b60008060009054906101000a900473ffffffffffffffffffffffffffffffffffffffff1673ffffffffffffffffffffffffffffffffffffffff1663c395fcb3336040518263ffffffff1660e01b8152600401610b3f919061156f565b60206040518083038186803b158015610b5757600080fd5b505afa158015610b6b573d6000803e3d6000fd5b505050506040513d601f19601f82011682018060405250810190610b8f9190611317565b610bce576040517f08c379a0000000000000000000000000000000000000000000000000000000008152600401610bc590611684565b60405180910390fd5b610bfb83600660009054906101000a900473ffffffffffffffffffffffffffffffffffffffff1684610f3b565b6001905092915050565b60008054906101000a900473ffffffffffffffffffffffffffffffffffffffff1673ffffffffffffffffffffffffffffffffffffffff1663c395fcb3336040518263ffffffff1660e01b8152600401610c5e919061156f565b60206040518083038186803b158015610c7657600080fd5b505afa158015610c8a573d6000803e3d6000fd5b505050506040513d601f19601f82011682018060405250810190610cae9190611317565b610ced576040517f08c379a0000000000000000000000000000000000000000000000000000000008152600401610ce490611664565b60405180910390fd5b600073ffffffffffffffffffffffffffffffffffffffff16600260009054906101000a900473ffffffffffffffffffffffffffffffffffffffff1673ffffffffffffffffffffffffffffffffffffffff1614610d4857600080fd5b7f0ac885cfcac9d1450e80f787dbf9546001fb50414106435b10b1d27b448b866881604051610d77919061156f565b60405180910390a180600260006101000a81548173ffffffffffffffffffffffffffffffffffffffff021916908373ffffffffffffffffffffffffffffffffffffffff16021790555050565b600060149054906101000a900460ff1615610ddd57600080fd5b826000806101000a81548173ffffffffffffffffffffffffffffffffffffffff021916908373ffffffffffffffffffffffffffffffffffffffff16021790555081600160006101000a81548173ffffffffffffffffffffffffffffffffffffffff021916908373ffffffffffffffffffffffffffffffffffffffff160217905550806003819055506001600060146101000a81548160ff0219169083151502179055507fe4bd612963220b47d4b6661bc82c559aaaf0350b0aad4dde4d90ce8b7ea1546260405160405180910390a1505050565b60046020528060005260406000206000915054906101000a900460ff1681565b6000808260601b90506040517f3d602d80600a3d3981f3363d3d373d3d3d363d7300000000000000000000000081528160148201527f5af43d82803e903d91602b57fd5bf3000000000000000000000000000000000060288201526037816000f092505050919050565b6000808473ffffffffffffffffffffffffffffffffffffffff1663a9059cbb8585604051602401610f6d9291906115ce565b6040516020818303038152906040529060e01b6020820180517bffffffffffffffffffffffffffffffffffffffffffffffffffffffff8381831617835250505050604051610fbb9190611558565b6000604051808303816000865af19150503d8060008114610ff8576040519150601f19603f3d011682016040523d82523d6000602084013e610ffd565b606091505b509150915081801561102b575060008151148061102a5750808060200190518101906110299190611317565b5b5b61103457600080fd5b5050505050565b600061104e6110498461172d565b611708565b9050808382526020820190508285602086028201111561106d57600080fd5b60005b8581101561109d57816110838882611113565b845260208401935060208301925050600181019050611070565b5050509392505050565b60006110ba6110b584611759565b611708565b905080838252602082019050828560208602820111156110d957600080fd5b60005b8581101561110957816110ef88826111a6565b8452602084019350602083019250506001810190506110dc565b5050509392505050565b60008135905061112281611a2d565b92915050565b60008135905061113781611a44565b92915050565b600082601f83011261114e57600080fd5b813561115e84826020860161103b565b91505092915050565b600082601f83011261117857600080fd5b81356111888482602086016110a7565b91505092915050565b6000815190506111a081611a5b565b92915050565b6000813590506111b581611a72565b92915050565b6000602082840312156111cd57600080fd5b60006111db84828501611113565b91505092915050565b6000602082840312156111f657600080fd5b600061120484828501611128565b91505092915050565b60008060006060848603121561122257600080fd5b600061123086828701611113565b935050602061124186828701611113565b9250506040611252868287016111a6565b9150509250925092565b60008060006060848603121561127157600080fd5b600061127f86828701611113565b935050602084013567ffffffffffffffff81111561129c57600080fd5b6112a88682870161113d565b925050604084013567ffffffffffffffff8111156112c557600080fd5b6112d186828701611167565b9150509250925092565b600080604083850312156112ee57600080fd5b60006112fc85828601611113565b925050602061130d858286016111a6565b9150509250929050565b60006020828403121561132957600080fd5b600061133784828501611191565b91505092915050565b60006020828403121561135257600080fd5b6000611360848285016111a6565b91505092915050565b600061137583836113a8565b60208301905092915050565b600061138d838361153a565b60208301905092915050565b6113a281611830565b82525050565b6113b18161181e565b82525050565b6113c08161181e565b82525050565b60006113d1826117a5565b6113db81856117e0565b93506113e683611785565b8060005b838110156114175781516113fe8882611369565b9750611409836117c6565b9250506001810190506113ea565b5085935050505092915050565b600061142f826117b0565b61143981856117f1565b935061144483611795565b8060005b8381101561147557815161145c8882611381565b9750611467836117d3565b925050600181019050611448565b5085935050505092915050565b61148b81611842565b82525050565b600061149c826117bb565b6114a68185611802565b93506114b681856020860161189c565b80840191505092915050565b6114cb81611878565b82525050565b60006114de60218361180d565b91506114e982611940565b604082019050919050565b600061150160248361180d565b915061150c8261198f565b604082019050919050565b600061152460268361180d565b915061152f826119de565b604082019050919050565b6115438161186e565b82525050565b6115528161186e565b82525050565b60006115648284611491565b915081905092915050565b600060208201905061158460008301846113b7565b92915050565b600060208201905061159f6000830184611399565b92915050565b60006040820190506115ba60008301856113b7565b6115c760208301846113b7565b9392505050565b60006040820190506115e360008301856113b7565b6115f06020830184611549565b9392505050565b6000604082019050818103600083015261161181856113c6565b905081810360208301526116258184611424565b90509392505050565b60006020820190506116436000830184611482565b92915050565b600060208201905061165e60008301846114c2565b92915050565b6000602082019050818103600083015261167d816114d1565b9050919050565b6000602082019050818103600083015261169d816114f4565b9050919050565b600060208201905081810360008301526116bd81611517565b9050919050565b60006020820190506116d96000830184611549565b92915050565b60006040820190506116f46000830185611549565b6117016020830184611549565b9392505050565b6000611712611723565b905061171e82826118cf565b919050565b6000604051905090565b600067ffffffffffffffff82111561174857611747611900565b5b602082029050602081019050919050565b600067ffffffffffffffff82111561177457611773611900565b5b602082029050602081019050919050565b6000819050602082019050919050565b6000819050602082019050919050565b600081519050919050565b600081519050919050565b600081519050919050565b6000602082019050919050565b6000602082019050919050565b600082825260208201905092915050565b600082825260208201905092915050565b600081905092915050565b600082825260208201905092915050565b60006118298261184e565b9050919050565b600061183b8261184e565b9050919050565b60008115159050919050565b600073ffffffffffffffffffffffffffffffffffffffff82169050919050565b6000819050919050565b60006118838261188a565b9050919050565b60006118958261184e565b9050919050565b60005b838110156118ba57808201518184015260208101905061189f565b838111156118c9576000848401525b50505050565b6118d88261192f565b810181811067ffffffffffffffff821117156118f7576118f6611900565b5b80604052505050565b7f4e487b7100000000000000000000000000000000000000000000000000000000600052604160045260246000fd5b6000601f19601f8301169050919050565b7f4c697374466163746f72793a2053656e646572206d7573742062652061646d6960008201527f6e00000000000000000000000000000000000000000000000000000000000000602082015250565b7f4c697374466163746f72793a2053656e646572206d757374206265206f70657260008201527f61746f7200000000000000000000000000000000000000000000000000000000602082015250565b7f4d49534f546f6b656e466163746f72793a2053656e646572206d75737420626560008201527f2041646d696e0000000000000000000000000000000000000000000000000000602082015250565b611a368161181e565b8114611a4157600080fd5b50565b611a4d81611830565b8114611a5857600080fd5b50565b611a6481611842565b8114611a6f57600080fd5b50565b611a7b8161186e565b8114611a8657600080fd5b5056fea26469706673582212206c49b4d9849150d69a13b37c14982fbae96358a45afaeae82c297e7fe9926ba764736f6c63430008040033",
  "linkReferences": {},
  "deployedLinkReferences": {}
}