{
  "_format": "hh-sol-artifact-1",
  "contractName": "MISOFarmFactory",
  "sourceName": "contracts/MISOFarmFactory.sol",
  "abi": [
    {
      "anonymous": false,
      "inputs": [
        {
          "indexed": true,
          "internalType": "address",
          "name": "owner",
          "type": "address"
        },
        {
          "indexed": true,
          "internalType": "address",
          "name": "addr",
          "type": "address"
        },
        {
          "indexed": false,
          "internalType": "address",
          "name": "farmTemplate",
          "type": "address"
        }
      ],
      "name": "FarmCreated",
      "type": "event"
    },
    {
      "anonymous": false,
      "inputs": [
        {
          "indexed": false,
          "internalType": "address",
          "name": "newFarm",
          "type": "address"
        },
        {
          "indexed": false,
          "internalType": "uint256",
          "name": "templateId",
          "type": "uint256"
        }
      ],
      "name": "FarmTemplateAdded",
      "type": "event"
    },
    {
      "anonymous": false,
      "inputs": [
        {
          "indexed": false,
          "internalType": "address",
          "name": "farm",
          "type": "address"
        },
        {
          "indexed": false,
          "internalType": "uint256",
          "name": "templateId",
          "type": "uint256"
        }
      ],
      "name": "FarmTemplateRemoved",
      "type": "event"
    },
    {
      "anonymous": false,
      "inputs": [
        {
          "indexed": false,
          "internalType": "address",
          "name": "sender",
          "type": "address"
        }
      ],
      "name": "MisoInitFarmFactory",
      "type": "event"
    },
    {
      "inputs": [],
      "name": "FARM_MINTER_ROLE",
      "outputs": [
        {
          "internalType": "bytes32",
          "name": "",
          "type": "bytes32"
        }
      ],
      "stateMutability": "view",
      "type": "function"
    },
    {
      "inputs": [],
      "name": "accessControls",
      "outputs": [
        {
          "internalType": "contract MISOAccessControls",
          "name": "",
          "type": "address"
        }
      ],
      "stateMutability": "view",
      "type": "function"
    },
    {
      "inputs": [
        {
          "internalType": "address",
          "name": "_template",
          "type": "address"
        }
      ],
      "name": "addFarmTemplate",
      "outputs": [],
      "stateMutability": "nonpayable",
      "type": "function"
    },
    {
      "inputs": [
        {
          "internalType": "uint256",
          "name": "_templateId",
          "type": "uint256"
        },
        {
          "internalType": "address payable",
          "name": "_integratorFeeAccount",
          "type": "address"
        },
        {
          "internalType": "bytes",
          "name": "_data",
          "type": "bytes"
        }
      ],
      "name": "createFarm",
      "outputs": [
        {
          "internalType": "address",
          "name": "farm",
          "type": "address"
        }
      ],
      "stateMutability": "payable",
      "type": "function"
    },
    {
      "inputs": [
        {
          "internalType": "uint256",
          "name": "",
          "type": "uint256"
        }
      ],
      "name": "currentTemplateId",
      "outputs": [
        {
          "internalType": "uint256",
          "name": "",
          "type": "uint256"
        }
      ],
      "stateMutability": "view",
      "type": "function"
    },
    {
      "inputs": [
        {
          "internalType": "uint256",
          "name": "_templateId",
          "type": "uint256"
        },
        {
          "internalType": "address payable",
          "name": "_integratorFeeAccount",
          "type": "address"
        }
      ],
      "name": "deployFarm",
      "outputs": [
        {
          "internalType": "address",
          "name": "farm",
          "type": "address"
        }
      ],
      "stateMutability": "payable",
      "type": "function"
    },
    {
      "inputs": [
        {
          "internalType": "address",
          "name": "",
          "type": "address"
        }
      ],
      "name": "farmInfo",
      "outputs": [
        {
          "internalType": "bool",
          "name": "exists",
          "type": "bool"
        },
        {
          "internalType": "uint256",
          "name": "templateId",
          "type": "uint256"
        },
        {
          "internalType": "uint256",
          "name": "index",
          "type": "uint256"
        }
      ],
      "stateMutability": "view",
      "type": "function"
    },
    {
      "inputs": [],
      "name": "farmTemplateId",
      "outputs": [
        {
          "internalType": "uint256",
          "name": "",
          "type": "uint256"
        }
      ],
      "stateMutability": "view",
      "type": "function"
    },
    {
      "inputs": [
        {
          "internalType": "uint256",
          "name": "",
          "type": "uint256"
        }
      ],
      "name": "farms",
      "outputs": [
        {
          "internalType": "address",
          "name": "",
          "type": "address"
        }
      ],
      "stateMutability": "view",
      "type": "function"
    },
    {
      "inputs": [
        {
          "internalType": "uint256",
          "name": "_farmTemplate",
          "type": "uint256"
        }
      ],
      "name": "getFarmTemplate",
      "outputs": [
        {
          "internalType": "address",
          "name": "",
          "type": "address"
        }
      ],
      "stateMutability": "view",
      "type": "function"
    },
    {
      "inputs": [],
      "name": "getFarms",
      "outputs": [
        {
          "internalType": "address[]",
          "name": "",
          "type": "address[]"
        }
      ],
      "stateMutability": "view",
      "type": "function"
    },
    {
      "inputs": [
        {
          "internalType": "address",
          "name": "_farmTemplate",
          "type": "address"
        }
      ],
      "name": "getTemplateId",
      "outputs": [
        {
          "internalType": "uint256",
          "name": "",
          "type": "uint256"
        }
      ],
      "stateMutability": "view",
      "type": "function"
    },
    {
      "inputs": [
        {
          "internalType": "address",
          "name": "_address",
          "type": "address"
        }
      ],
      "name": "hasFarmMinterRole",
      "outputs": [
        {
          "internalType": "bool",
          "name": "",
          "type": "bool"
        }
      ],
      "stateMutability": "view",
      "type": "function"
    },
    {
      "inputs": [
        {
          "internalType": "address",
          "name": "_accessControls",
          "type": "address"
        },
        {
          "internalType": "address payable",
          "name": "_misoDiv",
          "type": "address"
        },
        {
          "internalType": "uint256",
          "name": "_minimumFee",
          "type": "uint256"
        },
        {
          "internalType": "uint256",
          "name": "_integratorFeePct",
          "type": "uint256"
        }
      ],
      "name": "initMISOFarmFactory",
      "outputs": [],
      "stateMutability": "nonpayable",
      "type": "function"
    },
    {
      "inputs": [],
      "name": "integratorFeePct",
      "outputs": [
        {
          "internalType": "uint256",
          "name": "",
          "type": "uint256"
        }
      ],
      "stateMutability": "view",
      "type": "function"
    },
    {
      "inputs": [],
      "name": "locked",
      "outputs": [
        {
          "internalType": "bool",
          "name": "",
          "type": "bool"
        }
      ],
      "stateMutability": "view",
      "type": "function"
    },
    {
      "inputs": [],
      "name": "minimumFee",
      "outputs": [
        {
          "internalType": "uint256",
          "name": "",
          "type": "uint256"
        }
      ],
      "stateMutability": "view",
      "type": "function"
    },
    {
      "inputs": [],
      "name": "misoDiv",
      "outputs": [
        {
          "internalType": "address payable",
          "name": "",
          "type": "address"
        }
      ],
      "stateMutability": "view",
      "type": "function"
    },
    {
      "inputs": [],
      "name": "numberOfFarms",
      "outputs": [
        {
          "internalType": "uint256",
          "name": "",
          "type": "uint256"
        }
      ],
      "stateMutability": "view",
      "type": "function"
    },
    {
      "inputs": [
        {
          "internalType": "uint256",
          "name": "_templateId",
          "type": "uint256"
        }
      ],
      "name": "removeFarmTemplate",
      "outputs": [],
      "stateMutability": "nonpayable",
      "type": "function"
    },
    {
      "inputs": [
        {
          "internalType": "uint256",
          "name": "_templateType",
          "type": "uint256"
        },
        {
          "internalType": "uint256",
          "name": "_templateId",
          "type": "uint256"
        }
      ],
      "name": "setCurrentTemplateId",
      "outputs": [],
      "stateMutability": "nonpayable",
      "type": "function"
    },
    {
      "inputs": [
        {
          "internalType": "address payable",
          "name": "_divaddr",
          "type": "address"
        }
      ],
      "name": "setDividends",
      "outputs": [],
      "stateMutability": "nonpayable",
      "type": "function"
    },
    {
      "inputs": [
        {
          "internalType": "uint256",
          "name": "_amount",
          "type": "uint256"
        }
      ],
      "name": "setIntegratorFeePct",
      "outputs": [],
      "stateMutability": "nonpayable",
      "type": "function"
    },
    {
      "inputs": [
        {
          "internalType": "bool",
          "name": "_locked",
          "type": "bool"
        }
      ],
      "name": "setLocked",
      "outputs": [],
      "stateMutability": "nonpayable",
      "type": "function"
    },
    {
      "inputs": [
        {
          "internalType": "uint256",
          "name": "_amount",
          "type": "uint256"
        }
      ],
      "name": "setMinimumFee",
      "outputs": [],
      "stateMutability": "nonpayable",
      "type": "function"
    }
  ],
  "bytecode": "0x608060405234801561001057600080fd5b50612aee806100206000396000f3fe6080604052600436106101665760003560e01c80637da470ea116100d1578063cf3090121161008a578063e6d176b511610064578063e6d176b51461053e578063eabcd0a41461056e578063ed88fd0d14610599578063f54a9bca146105d657610166565b8063cf309012146104ad578063d0c73d26146104d8578063d335ebda1461050157610166565b80637da470ea1461039d5780638f5185e8146103da5780639dc4ac8a146104055780639e5940cc146104305780639e9188ea14610459578063c9907b081461048257610166565b80633f1f44b0116101235780633f1f44b01461028f5780634520ca75146102b857806351cc21ac146102e357806362f117971461030c5780636cbfd71f14610335578063748365ef1461037257610166565b8063182a75061461016b5780631a7626e7146101945780631f2570c5146101bf578063211e28b6146101ea5780632915cbec146102135780632ed4f57814610252575b600080fd5b34801561017757600080fd5b50610192600480360381019061018d9190612042565b610606565b005b3480156101a057600080fd5b506101a96106f8565b6040516101b691906125af565b60405180910390f35b3480156101cb57600080fd5b506101d46106fe565b6040516101e191906125af565b60405180910390f35b3480156101f657600080fd5b50610211600480360381019061020c9190611ff0565b610704565b005b34801561021f57600080fd5b5061023a60048036038101906102359190611f3b565b610809565b60405161024993929190612415565b60405180910390f35b34801561025e57600080fd5b5061027960048036038101906102749190612042565b610840565b60405161028691906125af565b60405180910390f35b34801561029b57600080fd5b506102b660048036038101906102b19190612042565b610858565b005b3480156102c457600080fd5b506102cd61098f565b6040516102da91906125af565b60405180910390f35b3480156102ef57600080fd5b5061030a60048036038101906103059190612042565b610995565b005b34801561031857600080fd5b50610333600480360381019061032e9190611f8d565b610ca5565b005b34801561034157600080fd5b5061035c60048036038101906103579190612042565b610dfb565b6040516103699190612379565b60405180910390f35b34801561037e57600080fd5b50610387610e38565b60405161039491906124b4565b60405180910390f35b3480156103a957600080fd5b506103c460048036038101906103bf9190612042565b610e5c565b6040516103d19190612379565b60405180910390f35b3480156103e657600080fd5b506103ef610e9b565b6040516103fc91906125af565b60405180910390f35b34801561041157600080fd5b5061041a610ea8565b60405161042791906123d8565b60405180910390f35b34801561043c57600080fd5b506104576004803603810190610452919061213c565b610f36565b005b34801561046557600080fd5b50610480600480360381019061047b9190611f64565b6110ea565b005b34801561048e57600080fd5b50610497611250565b6040516104a49190612394565b60405180910390f35b3480156104b957600080fd5b506104c2611276565b6040516104cf91906123fa565b60405180910390f35b3480156104e457600080fd5b506104ff60048036038101906104fa9190611f3b565b611289565b005b34801561050d57600080fd5b5061052860048036038101906105239190611f3b565b611673565b60405161053591906125af565b60405180910390f35b610558600480360381019061055391906120d0565b6116bc565b6040516105659190612379565b60405180910390f35b34801561057a57600080fd5b5061058361173f565b604051610590919061244c565b60405180910390f35b3480156105a557600080fd5b506105c060048036038101906105bb9190611f3b565b611763565b6040516105cd91906123fa565b60405180910390f35b6105f060048036038101906105eb9190612094565b611838565b6040516105fd9190612379565b60405180910390f35b60008054906101000a900473ffffffffffffffffffffffffffffffffffffffff1673ffffffffffffffffffffffffffffffffffffffff1663c395fcb3336040518263ffffffff1660e01b815260040161065f9190612379565b60206040518083038186803b15801561067757600080fd5b505afa15801561068b573d6000803e3d6000fd5b505050506040513d601f19601f820116820180604052508101906106af9190612019565b6106ee576040517f08c379a00000000000000000000000000000000000000000000000000000000081526004016106e59061258f565b60405180910390fd5b8060078190555050565b60075481565b60035481565b60008054906101000a900473ffffffffffffffffffffffffffffffffffffffff1673ffffffffffffffffffffffffffffffffffffffff1663c395fcb3336040518263ffffffff1660e01b815260040161075d9190612379565b60206040518083038186803b15801561077557600080fd5b505afa158015610789573d6000803e3d6000fd5b505050506040513d601f19601f820116820180604052508101906107ad9190612019565b6107ec576040517f08c379a00000000000000000000000000000000000000000000000000000000081526004016107e39061256f565b60405180910390fd5b80600060156101000a81548160ff02191690831515021790555050565b60016020528060005260406000206000915090508060000160009054906101000a900460ff16908060010154908060020154905083565b60066020528060005260406000206000915090505481565b60008054906101000a900473ffffffffffffffffffffffffffffffffffffffff1673ffffffffffffffffffffffffffffffffffffffff1663c395fcb3336040518263ffffffff1660e01b81526004016108b19190612379565b60206040518083038186803b1580156108c957600080fd5b505afa1580156108dd573d6000803e3d6000fd5b505050506040513d601f19601f820116820180604052508101906109019190612019565b610940576040517f08c379a00000000000000000000000000000000000000000000000000000000081526004016109379061258f565b60405180910390fd5b6103e8811115610985576040517f08c379a000000000000000000000000000000000000000000000000000000000815260040161097c9061254f565b60405180910390fd5b8060088190555050565b60085481565b60008054906101000a900473ffffffffffffffffffffffffffffffffffffffff1673ffffffffffffffffffffffffffffffffffffffff1663c395fcb3336040518263ffffffff1660e01b81526004016109ee9190612379565b60206040518083038186803b158015610a0657600080fd5b505afa158015610a1a573d6000803e3d6000fd5b505050506040513d601f19601f82011682018060405250810190610a3e9190612019565b80610aee575060008054906101000a900473ffffffffffffffffffffffffffffffffffffffff1673ffffffffffffffffffffffffffffffffffffffff1663fc4e3e0a336040518263ffffffff1660e01b8152600401610a9d9190612379565b60206040518083038186803b158015610ab557600080fd5b505afa158015610ac9573d6000803e3d6000fd5b505050506040513d601f19601f82011682018060405250810190610aed9190612019565b5b610b2d576040517f08c379a0000000000000000000000000000000000000000000000000000000008152600401610b249061258f565b60405180910390fd5b600073ffffffffffffffffffffffffffffffffffffffff166004600083815260200190815260200160002060009054906101000a900473ffffffffffffffffffffffffffffffffffffffff1673ffffffffffffffffffffffffffffffffffffffff161415610b9a57600080fd5b60006004600083815260200190815260200160002060009054906101000a900473ffffffffffffffffffffffffffffffffffffffff16905060006004600084815260200190815260200160002060006101000a81548173ffffffffffffffffffffffffffffffffffffffff021916908373ffffffffffffffffffffffffffffffffffffffff160217905550600560008273ffffffffffffffffffffffffffffffffffffffff1673ffffffffffffffffffffffffffffffffffffffff168152602001908152602001600020600090557f628bd92bbb6002112d3590cfe31c722f97503016b138490288be605a074d91e48183604051610c999291906123af565b60405180910390a15050565b600060149054906101000a900460ff1615610cbf57600080fd5b600073ffffffffffffffffffffffffffffffffffffffff168373ffffffffffffffffffffffffffffffffffffffff161415610cf957600080fd5b6001600060156101000a81548160ff0219169083151502179055506001600060146101000a81548160ff02191690831515021790555082600960006101000a81548173ffffffffffffffffffffffffffffffffffffffff021916908373ffffffffffffffffffffffffffffffffffffffff1602179055508160078190555080600881905550836000806101000a81548173ffffffffffffffffffffffffffffffffffffffff021916908373ffffffffffffffffffffffffffffffffffffffff1602179055507f3f4578db4b3ac464602aae2d3348528a51ef25128a09f4860119a11dc301ec4533604051610ded9190612379565b60405180910390a150505050565b60006004600083815260200190815260200160002060009054906101000a900473ffffffffffffffffffffffffffffffffffffffff169050919050565b60008054906101000a900473ffffffffffffffffffffffffffffffffffffffff1681565b60028181548110610e6c57600080fd5b906000526020600020016000915054906101000a900473ffffffffffffffffffffffffffffffffffffffff1681565b6000600280549050905090565b60606002805480602002602001604051908101604052809291908181526020018280548015610f2c57602002820191906000526020600020905b8160009054906101000a900473ffffffffffffffffffffffffffffffffffffffff1673ffffffffffffffffffffffffffffffffffffffff1681526020019060010190808311610ee2575b5050505050905090565b60008054906101000a900473ffffffffffffffffffffffffffffffffffffffff1673ffffffffffffffffffffffffffffffffffffffff1663c395fcb3336040518263ffffffff1660e01b8152600401610f8f9190612379565b60206040518083038186803b158015610fa757600080fd5b505afa158015610fbb573d6000803e3d6000fd5b505050506040513d601f19601f82011682018060405250810190610fdf9190612019565b8061108f575060008054906101000a900473ffffffffffffffffffffffffffffffffffffffff1673ffffffffffffffffffffffffffffffffffffffff1663fc4e3e0a336040518263ffffffff1660e01b815260040161103e9190612379565b60206040518083038186803b15801561105657600080fd5b505afa15801561106a573d6000803e3d6000fd5b505050506040513d601f19601f8201168201806040525081019061108e9190612019565b5b6110ce576040517f08c379a00000000000000000000000000000000000000000000000000000000081526004016110c59061256f565b60405180910390fd5b8060066000848152602001908152602001600020819055505050565b60008054906101000a900473ffffffffffffffffffffffffffffffffffffffff1673ffffffffffffffffffffffffffffffffffffffff1663c395fcb3336040518263ffffffff1660e01b81526004016111439190612379565b60206040518083038186803b15801561115b57600080fd5b505afa15801561116f573d6000803e3d6000fd5b505050506040513d601f19601f820116820180604052508101906111939190612019565b6111d2576040517f08c379a00000000000000000000000000000000000000000000000000000000081526004016111c99061258f565b60405180910390fd5b600073ffffffffffffffffffffffffffffffffffffffff168173ffffffffffffffffffffffffffffffffffffffff16141561120c57600080fd5b80600960006101000a81548173ffffffffffffffffffffffffffffffffffffffff021916908373ffffffffffffffffffffffffffffffffffffffff16021790555050565b600960009054906101000a900473ffffffffffffffffffffffffffffffffffffffff1681565b600060159054906101000a900460ff1681565b60008054906101000a900473ffffffffffffffffffffffffffffffffffffffff1673ffffffffffffffffffffffffffffffffffffffff1663c395fcb3336040518263ffffffff1660e01b81526004016112e29190612379565b60206040518083038186803b1580156112fa57600080fd5b505afa15801561130e573d6000803e3d6000fd5b505050506040513d601f19601f820116820180604052508101906113329190612019565b806113e2575060008054906101000a900473ffffffffffffffffffffffffffffffffffffffff1673ffffffffffffffffffffffffffffffffffffffff1663fc4e3e0a336040518263ffffffff1660e01b81526004016113919190612379565b60206040518083038186803b1580156113a957600080fd5b505afa1580156113bd573d6000803e3d6000fd5b505050506040513d601f19601f820116820180604052508101906113e19190612019565b5b611421576040517f08c379a00000000000000000000000000000000000000000000000000000000081526004016114189061258f565b60405180910390fd5b6000600560008373ffffffffffffffffffffffffffffffffffffffff1673ffffffffffffffffffffffffffffffffffffffff16815260200190815260200160002054146114a3576040517f08c379a000000000000000000000000000000000000000000000000000000000815260040161149a9061252f565b60405180910390fd5b60008173ffffffffffffffffffffffffffffffffffffffff16632c77f6566040518163ffffffff1660e01b815260040160206040518083038186803b1580156114eb57600080fd5b505afa1580156114ff573d6000803e3d6000fd5b505050506040513d601f19601f82011682018060405250810190611523919061206b565b905060008111611568576040517f08c379a000000000000000000000000000000000000000000000000000000000815260040161155f906124cf565b60405180910390fd5b6003600081548092919061157b9061277b565b91905055508160046000600354815260200190815260200160002060006101000a81548173ffffffffffffffffffffffffffffffffffffffff021916908373ffffffffffffffffffffffffffffffffffffffff160217905550600354600560008473ffffffffffffffffffffffffffffffffffffffff1673ffffffffffffffffffffffffffffffffffffffff1681526020019081526020016000208190555060035460066000838152602001908152602001600020819055507fb397ea829c3dad5af04b9f5976e06a3a011d99ca1caa5b41515196c894a0be5b826003546040516116679291906123af565b60405180910390a15050565b6000600560008373ffffffffffffffffffffffffffffffffffffffff1673ffffffffffffffffffffffffffffffffffffffff168152602001908152602001600020549050919050565b60006116c88585611838565b90508073ffffffffffffffffffffffffffffffffffffffff1663824fa82184846040518363ffffffff1660e01b8152600401611705929190612490565b600060405180830381600087803b15801561171f57600080fd5b505af1158015611733573d6000803e3d6000fd5b50505050949350505050565b7f53570b66c9642abfc1b1b74ee3dff9b6aeb7638291a5983f7881f58149d86cd781565b60008060009054906101000a900473ffffffffffffffffffffffffffffffffffffffff1673ffffffffffffffffffffffffffffffffffffffff166391d148547f53570b66c9642abfc1b1b74ee3dff9b6aeb7638291a5983f7881f58149d86cd7846040518363ffffffff1660e01b81526004016117e1929190612467565b60206040518083038186803b1580156117f957600080fd5b505afa15801561180d573d6000803e3d6000fd5b505050506040513d601f19601f820116820180604052508101906118319190612019565b9050919050565b60008060159054906101000a900460ff16156119f75760008054906101000a900473ffffffffffffffffffffffffffffffffffffffff1673ffffffffffffffffffffffffffffffffffffffff1663c395fcb3336040518263ffffffff1660e01b81526004016118a79190612379565b60206040518083038186803b1580156118bf57600080fd5b505afa1580156118d3573d6000803e3d6000fd5b505050506040513d601f19601f820116820180604052508101906118f79190612019565b806119a7575060008054906101000a900473ffffffffffffffffffffffffffffffffffffffff1673ffffffffffffffffffffffffffffffffffffffff1663099db017336040518263ffffffff1660e01b81526004016119569190612379565b60206040518083038186803b15801561196e57600080fd5b505afa158015611982573d6000803e3d6000fd5b505050506040513d601f19601f820116820180604052508101906119a69190612019565b5b806119b757506119b633611763565b5b6119f6576040517f08c379a00000000000000000000000000000000000000000000000000000000081526004016119ed9061250f565b60405180910390fd5b5b600754341015611a3c576040517f08c379a0000000000000000000000000000000000000000000000000000000008152600401611a33906124ef565b60405180910390fd5b600073ffffffffffffffffffffffffffffffffffffffff166004600085815260200190815260200160002060009054906101000a900473ffffffffffffffffffffffffffffffffffffffff1673ffffffffffffffffffffffffffffffffffffffff161415611aa957600080fd5b600080349050600073ffffffffffffffffffffffffffffffffffffffff168473ffffffffffffffffffffffffffffffffffffffff1614158015611b3a5750600960009054906101000a900473ffffffffffffffffffffffffffffffffffffffff1673ffffffffffffffffffffffffffffffffffffffff168473ffffffffffffffffffffffffffffffffffffffff1614155b15611b6b576103e860085482611b509190612656565b611b5a9190612625565b91508181611b6891906126b0565b90505b611ba76004600087815260200190815260200160002060009054906101000a900473ffffffffffffffffffffffffffffffffffffffff16611e09565b92506040518060600160405280600115158152602001868152602001600280549050815250600160008573ffffffffffffffffffffffffffffffffffffffff1673ffffffffffffffffffffffffffffffffffffffff16815260200190815260200160002060008201518160000160006101000a81548160ff02191690831515021790555060208201518160010155604082015181600201559050506002839080600181540180825580915050600190039060005260206000200160009091909190916101000a81548173ffffffffffffffffffffffffffffffffffffffff021916908373ffffffffffffffffffffffffffffffffffffffff1602179055508273ffffffffffffffffffffffffffffffffffffffff163373ffffffffffffffffffffffffffffffffffffffff167f6e766a2e8ac6e7ecbc0956ba73fdf9e546312daf00a15a6817b8ca66159bd7ab6004600089815260200190815260200160002060009054906101000a900473ffffffffffffffffffffffffffffffffffffffff16604051611d359190612379565b60405180910390a36000811115611db057600960009054906101000a900473ffffffffffffffffffffffffffffffffffffffff1673ffffffffffffffffffffffffffffffffffffffff166108fc829081150290604051600060405180830381858888f19350505050158015611dae573d6000803e3d6000fd5b505b6000821115611e01578373ffffffffffffffffffffffffffffffffffffffff166108fc839081150290604051600060405180830381858888f19350505050158015611dff573d6000803e3d6000fd5b505b505092915050565b6000808260601b90506040517f3d602d80600a3d3981f3363d3d373d3d3d363d7300000000000000000000000081528160148201527f5af43d82803e903d91602b57fd5bf3000000000000000000000000000000000060288201526037816000f092505050919050565b600081359050611e8281612a5c565b92915050565b600081359050611e9781612a73565b92915050565b600081359050611eac81612a8a565b92915050565b600081519050611ec181612a8a565b92915050565b60008083601f840112611ed957600080fd5b8235905067ffffffffffffffff811115611ef257600080fd5b602083019150836001820283011115611f0a57600080fd5b9250929050565b600081359050611f2081612aa1565b92915050565b600081519050611f3581612aa1565b92915050565b600060208284031215611f4d57600080fd5b6000611f5b84828501611e73565b91505092915050565b600060208284031215611f7657600080fd5b6000611f8484828501611e88565b91505092915050565b60008060008060808587031215611fa357600080fd5b6000611fb187828801611e73565b9450506020611fc287828801611e88565b9350506040611fd387828801611f11565b9250506060611fe487828801611f11565b91505092959194509250565b60006020828403121561200257600080fd5b600061201084828501611e9d565b91505092915050565b60006020828403121561202b57600080fd5b600061203984828501611eb2565b91505092915050565b60006020828403121561205457600080fd5b600061206284828501611f11565b91505092915050565b60006020828403121561207d57600080fd5b600061208b84828501611f26565b91505092915050565b600080604083850312156120a757600080fd5b60006120b585828601611f11565b92505060206120c685828601611e88565b9150509250929050565b600080600080606085870312156120e657600080fd5b60006120f487828801611f11565b945050602061210587828801611e88565b935050604085013567ffffffffffffffff81111561212257600080fd5b61212e87828801611ec7565b925092505092959194509250565b6000806040838503121561214f57600080fd5b600061215d85828601611f11565b925050602061216e85828601611f11565b9150509250929050565b6000612184838361219f565b60208301905092915050565b612199816126f6565b82525050565b6121a8816126e4565b82525050565b6121b7816126e4565b82525050565b60006121c8826125da565b6121d281856125f2565b93506121dd836125ca565b8060005b8381101561220e5781516121f58882612178565b9750612200836125e5565b9250506001810190506121e1565b5085935050505092915050565b61222481612708565b82525050565b61223381612714565b82525050565b60006122458385612603565b935061225283858461276c565b61225b83612822565b840190509392505050565b61226f81612748565b82525050565b6000612282602983612614565b915061228d82612833565b604082019050919050565b60006122a5602e83612614565b91506122b082612882565b604082019050919050565b60006122c8603083612614565b91506122d3826128d1565b604082019050919050565b60006122eb602783612614565b91506122f682612920565b604082019050919050565b600061230e602883612614565b91506123198261296f565b604082019050919050565b6000612331602583612614565b915061233c826129be565b604082019050919050565b6000612354602883612614565b915061235f82612a0d565b604082019050919050565b6123738161273e565b82525050565b600060208201905061238e60008301846121ae565b92915050565b60006020820190506123a96000830184612190565b92915050565b60006040820190506123c460008301856121ae565b6123d1602083018461236a565b9392505050565b600060208201905081810360008301526123f281846121bd565b905092915050565b600060208201905061240f600083018461221b565b92915050565b600060608201905061242a600083018661221b565b612437602083018561236a565b612444604083018461236a565b949350505050565b6000602082019050612461600083018461222a565b92915050565b600060408201905061247c600083018561222a565b61248960208301846121ae565b9392505050565b600060208201905081810360008301526124ab818486612239565b90509392505050565b60006020820190506124c96000830184612266565b92915050565b600060208201905081810360008301526124e881612275565b9050919050565b6000602082019050818103600083015261250881612298565b9050919050565b60006020820190508181036000830152612528816122bb565b9050919050565b60006020820190508181036000830152612548816122de565b9050919050565b6000602082019050818103600083015261256881612301565b9050919050565b6000602082019050818103600083015261258881612324565b9050919050565b600060208201905081810360008301526125a881612347565b9050919050565b60006020820190506125c4600083018461236a565b92915050565b6000819050602082019050919050565b600081519050919050565b6000602082019050919050565b600082825260208201905092915050565b600082825260208201905092915050565b600082825260208201905092915050565b60006126308261273e565b915061263b8361273e565b92508261264b5761264a6127f3565b5b828204905092915050565b60006126618261273e565b915061266c8361273e565b9250817fffffffffffffffffffffffffffffffffffffffffffffffffffffffffffffffff04831182151516156126a5576126a46127c4565b5b828202905092915050565b60006126bb8261273e565b91506126c68361273e565b9250828210156126d9576126d86127c4565b5b828203905092915050565b60006126ef8261271e565b9050919050565b60006127018261271e565b9050919050565b60008115159050919050565b6000819050919050565b600073ffffffffffffffffffffffffffffffffffffffff82169050919050565b6000819050919050565b60006127538261275a565b9050919050565b60006127658261271e565b9050919050565b82818337600083830152505050565b60006127868261273e565b91507fffffffffffffffffffffffffffffffffffffffffffffffffffffffffffffffff8214156127b9576127b86127c4565b5b600182019050919050565b7f4e487b7100000000000000000000000000000000000000000000000000000000600052601160045260246000fd5b7f4e487b7100000000000000000000000000000000000000000000000000000000600052601260045260246000fd5b6000601f19601f8301169050919050565b7f4d49534f4661726d466163746f72793a20496e636f72726563742074656d706c60008201527f61746520636f6465200000000000000000000000000000000000000000000000602082015250565b7f4d49534f4661726d466163746f72793a204661696c656420746f207472616e7360008201527f666572206d696e696d756d466565000000000000000000000000000000000000602082015250565b7f4d49534f4661726d466163746f72793a2053656e646572206d7573742062652060008201527f6d696e746572206966206c6f636b656400000000000000000000000000000000602082015250565b7f4d49534f4661726d466163746f72793a2054656d706c61746520616c7265616460008201527f7920616464656400000000000000000000000000000000000000000000000000602082015250565b7f4d49534f4661726d466163746f72793a2052616e67652069732066726f6d203060008201527f20746f2031303030000000000000000000000000000000000000000000000000602082015250565b7f4d49534f4661726d466163746f72793a2053656e646572206d7573742062652060008201527f61646d696e000000000000000000000000000000000000000000000000000000602082015250565b7f4d49534f4661726d466163746f72793a2053656e646572206d7573742062652060008201527f6f70657261746f72000000000000000000000000000000000000000000000000602082015250565b612a65816126e4565b8114612a7057600080fd5b50565b612a7c816126f6565b8114612a8757600080fd5b50565b612a9381612708565b8114612a9e57600080fd5b50565b612aaa8161273e565b8114612ab557600080fd5b5056fea2646970667358221220318ed447c67c08282a3e0ce9e22497ab8b5b84d6e80f3be128e836c49824c65964736f6c63430008040033",
  "linkReferences": {},
  "deployedLinkReferences": {}
}