{
  "_format": "hh-sol-artifact-1",
  "contractName": "Timelock",
  "sourceName": "contracts/Utils/Timelock.sol",
  "abi": [
    {
      "inputs": [
        {
          "internalType": "address",
          "name": "admin_",
          "type": "address"
        },
        {
          "internalType": "uint256",
          "name": "delay_",
          "type": "uint256"
        }
      ],
      "stateMutability": "nonpayable",
      "type": "constructor"
    },
    {
      "anonymous": false,
      "inputs": [
        {
          "indexed": true,
          "internalType": "bytes32",
          "name": "txHash",
          "type": "bytes32"
        },
        {
          "indexed": true,
          "internalType": "address",
          "name": "target",
          "type": "address"
        },
        {
          "indexed": false,
          "internalType": "uint256",
          "name": "value",
          "type": "uint256"
        },
        {
          "indexed": false,
          "internalType": "string",
          "name": "signature",
          "type": "string"
        },
        {
          "indexed": false,
          "internalType": "bytes",
          "name": "data",
          "type": "bytes"
        },
        {
          "indexed": false,
          "internalType": "uint256",
          "name": "eta",
          "type": "uint256"
        }
      ],
      "name": "CancelTransaction",
      "type": "event"
    },
    {
      "anonymous": false,
      "inputs": [
        {
          "indexed": true,
          "internalType": "bytes32",
          "name": "txHash",
          "type": "bytes32"
        },
        {
          "indexed": true,
          "internalType": "address",
          "name": "target",
          "type": "address"
        },
        {
          "indexed": false,
          "internalType": "uint256",
          "name": "value",
          "type": "uint256"
        },
        {
          "indexed": false,
          "internalType": "string",
          "name": "signature",
          "type": "string"
        },
        {
          "indexed": false,
          "internalType": "bytes",
          "name": "data",
          "type": "bytes"
        },
        {
          "indexed": false,
          "internalType": "uint256",
          "name": "eta",
          "type": "uint256"
        }
      ],
      "name": "ExecuteTransaction",
      "type": "event"
    },
    {
      "anonymous": false,
      "inputs": [
        {
          "indexed": true,
          "internalType": "address",
          "name": "newAdmin",
          "type": "address"
        }
      ],
      "name": "NewAdmin",
      "type": "event"
    },
    {
      "anonymous": false,
      "inputs": [
        {
          "indexed": true,
          "internalType": "uint256",
          "name": "newDelay",
          "type": "uint256"
        }
      ],
      "name": "NewDelay",
      "type": "event"
    },
    {
      "anonymous": false,
      "inputs": [
        {
          "indexed": true,
          "internalType": "address",
          "name": "newPendingAdmin",
          "type": "address"
        }
      ],
      "name": "NewPendingAdmin",
      "type": "event"
    },
    {
      "anonymous": false,
      "inputs": [
        {
          "indexed": true,
          "internalType": "bytes32",
          "name": "txHash",
          "type": "bytes32"
        },
        {
          "indexed": true,
          "internalType": "address",
          "name": "target",
          "type": "address"
        },
        {
          "indexed": false,
          "internalType": "uint256",
          "name": "value",
          "type": "uint256"
        },
        {
          "indexed": false,
          "internalType": "string",
          "name": "signature",
          "type": "string"
        },
        {
          "indexed": false,
          "internalType": "bytes",
          "name": "data",
          "type": "bytes"
        },
        {
          "indexed": false,
          "internalType": "uint256",
          "name": "eta",
          "type": "uint256"
        }
      ],
      "name": "QueueTransaction",
      "type": "event"
    },
    {
      "inputs": [],
      "name": "GRACE_PERIOD",
      "outputs": [
        {
          "internalType": "uint256",
          "name": "",
          "type": "uint256"
        }
      ],
      "stateMutability": "view",
      "type": "function"
    },
    {
      "inputs": [],
      "name": "MAXIMUM_DELAY",
      "outputs": [
        {
          "internalType": "uint256",
          "name": "",
          "type": "uint256"
        }
      ],
      "stateMutability": "view",
      "type": "function"
    },
    {
      "inputs": [],
      "name": "MINIMUM_DELAY",
      "outputs": [
        {
          "internalType": "uint256",
          "name": "",
          "type": "uint256"
        }
      ],
      "stateMutability": "view",
      "type": "function"
    },
    {
      "inputs": [],
      "name": "acceptAdmin",
      "outputs": [],
      "stateMutability": "nonpayable",
      "type": "function"
    },
    {
      "inputs": [],
      "name": "admin",
      "outputs": [
        {
          "internalType": "address",
          "name": "",
          "type": "address"
        }
      ],
      "stateMutability": "view",
      "type": "function"
    },
    {
      "inputs": [],
      "name": "admin_initialized",
      "outputs": [
        {
          "internalType": "bool",
          "name": "",
          "type": "bool"
        }
      ],
      "stateMutability": "view",
      "type": "function"
    },
    {
      "inputs": [
        {
          "internalType": "address",
          "name": "target",
          "type": "address"
        },
        {
          "internalType": "uint256",
          "name": "value",
          "type": "uint256"
        },
        {
          "internalType": "string",
          "name": "signature",
          "type": "string"
        },
        {
          "internalType": "bytes",
          "name": "data",
          "type": "bytes"
        },
        {
          "internalType": "uint256",
          "name": "eta",
          "type": "uint256"
        }
      ],
      "name": "cancelTransaction",
      "outputs": [],
      "stateMutability": "nonpayable",
      "type": "function"
    },
    {
      "inputs": [],
      "name": "delay",
      "outputs": [
        {
          "internalType": "uint256",
          "name": "",
          "type": "uint256"
        }
      ],
      "stateMutability": "view",
      "type": "function"
    },
    {
      "inputs": [
        {
          "internalType": "address",
          "name": "target",
          "type": "address"
        },
        {
          "internalType": "uint256",
          "name": "value",
          "type": "uint256"
        },
        {
          "internalType": "string",
          "name": "signature",
          "type": "string"
        },
        {
          "internalType": "bytes",
          "name": "data",
          "type": "bytes"
        },
        {
          "internalType": "uint256",
          "name": "eta",
          "type": "uint256"
        }
      ],
      "name": "executeTransaction",
      "outputs": [
        {
          "internalType": "bytes",
          "name": "",
          "type": "bytes"
        }
      ],
      "stateMutability": "payable",
      "type": "function"
    },
    {
      "inputs": [],
      "name": "pendingAdmin",
      "outputs": [
        {
          "internalType": "address",
          "name": "",
          "type": "address"
        }
      ],
      "stateMutability": "view",
      "type": "function"
    },
    {
      "inputs": [
        {
          "internalType": "address",
          "name": "target",
          "type": "address"
        },
        {
          "internalType": "uint256",
          "name": "value",
          "type": "uint256"
        },
        {
          "internalType": "string",
          "name": "signature",
          "type": "string"
        },
        {
          "internalType": "bytes",
          "name": "data",
          "type": "bytes"
        },
        {
          "internalType": "uint256",
          "name": "eta",
          "type": "uint256"
        }
      ],
      "name": "queueTransaction",
      "outputs": [
        {
          "internalType": "bytes32",
          "name": "",
          "type": "bytes32"
        }
      ],
      "stateMutability": "nonpayable",
      "type": "function"
    },
    {
      "inputs": [
        {
          "internalType": "bytes32",
          "name": "",
          "type": "bytes32"
        }
      ],
      "name": "queuedTransactions",
      "outputs": [
        {
          "internalType": "bool",
          "name": "",
          "type": "bool"
        }
      ],
      "stateMutability": "view",
      "type": "function"
    },
    {
      "inputs": [
        {
          "internalType": "uint256",
          "name": "delay_",
          "type": "uint256"
        }
      ],
      "name": "setDelay",
      "outputs": [],
      "stateMutability": "nonpayable",
      "type": "function"
    },
    {
      "inputs": [
        {
          "internalType": "address",
          "name": "pendingAdmin_",
          "type": "address"
        }
      ],
      "name": "setPendingAdmin",
      "outputs": [],
      "stateMutability": "nonpayable",
      "type": "function"
    },
    {
      "stateMutability": "payable",
      "type": "receive"
    }
  ],
  "bytecode": "0x60806040523480156200001157600080fd5b506040516200230838038062002308833981810160405281019062000037919062000161565b6202a30081101562000080576040517f08c379a0000000000000000000000000000000000000000000000000000000008152600401620000779062000212565b60405180910390fd5b62278d00811115620000c9576040517f08c379a0000000000000000000000000000000000000000000000000000000008152600401620000c090620001f0565b60405180910390fd5b816000806101000a81548173ffffffffffffffffffffffffffffffffffffffff021916908373ffffffffffffffffffffffffffffffffffffffff160217905550806002819055506000600360006101000a81548160ff021916908315150217905550505062000355565b600081519050620001448162000321565b92915050565b6000815190506200015b816200033b565b92915050565b600080604083850312156200017557600080fd5b6000620001858582860162000133565b925050602062000198858286016200014a565b9150509250929050565b6000620001b1603b8362000234565b9150620001be8262000283565b604082019050919050565b6000620001d860378362000234565b9150620001e582620002d2565b604082019050919050565b600060208201905081810360008301526200020b81620001a2565b9050919050565b600060208201905081810360008301526200022d81620001c9565b9050919050565b600082825260208201905092915050565b6000620002528262000259565b9050919050565b600073ffffffffffffffffffffffffffffffffffffffff82169050919050565b6000819050919050565b7f54696d656c6f636b3a3a636f6e7374727563746f723a2044656c6179206d757360008201527f74206e6f7420657863656564206d6178696d756d2064656c61792e0000000000602082015250565b7f54696d656c6f636b3a3a636f6e7374727563746f723a2044656c6179206d757360008201527f7420657863656564206d696e696d756d2064656c61792e000000000000000000602082015250565b6200032c8162000245565b81146200033857600080fd5b50565b620003468162000279565b81146200035257600080fd5b50565b611fa380620003656000396000f3fe6080604052600436106100e15760003560e01c80636fc1f57e1161007f578063c1a287e211610059578063c1a287e21461029a578063e177246e146102c5578063f2b06537146102ee578063f851a4401461032b576100e8565b80636fc1f57e146102195780637d645fab14610244578063b1b43ae51461026f576100e8565b80633a66f901116100bb5780633a66f9011461015f5780634dd18bf51461019c578063591fcdfe146101c55780636a42b8f8146101ee576100e8565b80630825f38f146100ed5780630e18b6811461011d5780632678224714610134576100e8565b366100e857005b600080fd5b61010760048036038101906101029190611056565b610356565b6040516101149190611564565b60405180910390f35b34801561012957600080fd5b506101326106a1565b005b34801561014057600080fd5b50610149610818565b60405161015691906114b2565b60405180910390f35b34801561016b57600080fd5b5061018660048036038101906101819190611056565b61083e565b6040516101939190611549565b60405180910390f35b3480156101a857600080fd5b506101c360048036038101906101be919061102d565b6109ee565b005b3480156101d157600080fd5b506101ec60048036038101906101e79190611056565b610bc9565b005b3480156101fa57600080fd5b50610203610d13565b6040516102109190611766565b60405180910390f35b34801561022557600080fd5b5061022e610d19565b60405161023b919061152e565b60405180910390f35b34801561025057600080fd5b50610259610d2c565b6040516102669190611766565b60405180910390f35b34801561027b57600080fd5b50610284610d33565b6040516102919190611766565b60405180910390f35b3480156102a657600080fd5b506102af610d3a565b6040516102bc9190611766565b60405180910390f35b3480156102d157600080fd5b506102ec60048036038101906102e79190611126565b610d41565b005b3480156102fa57600080fd5b50610315600480360381019061031091906110fd565b610e74565b604051610322919061152e565b60405180910390f35b34801561033757600080fd5b50610340610e94565b60405161034d91906114b2565b60405180910390f35b606060008054906101000a900473ffffffffffffffffffffffffffffffffffffffff1673ffffffffffffffffffffffffffffffffffffffff163373ffffffffffffffffffffffffffffffffffffffff16146103e6576040517f08c379a00000000000000000000000000000000000000000000000000000000081526004016103dd90611586565b60405180910390fd5b600086868686866040516020016104019594939291906114cd565b6040516020818303038152906040528051906020012090506004600082815260200190815260200160002060009054906101000a900460ff16610479576040517f08c379a000000000000000000000000000000000000000000000000000000000815260040161047090611686565b60405180910390fd5b82610482610eb8565b10156104c3576040517f08c379a00000000000000000000000000000000000000000000000000000000081526004016104ba90611606565b60405180910390fd5b6104d96212750084610ec090919063ffffffff16565b6104e1610eb8565b1115610522576040517f08c379a0000000000000000000000000000000000000000000000000000000008152600401610519906115c6565b60405180910390fd5b60006004600083815260200190815260200160002060006101000a81548160ff02191690831515021790555060606000865114156105625784905061058e565b85805190602001208560405160200161057c929190611475565b60405160208183030381529060405290505b6000808973ffffffffffffffffffffffffffffffffffffffff16896040516105b59061149d565b60006040518083038185875af1925050503d80600081146105f2576040519150601f19603f3d011682016040523d82523d6000602084013e6105f7565b606091505b50915091508161063c576040517f08c379a000000000000000000000000000000000000000000000000000000000815260040161063390611706565b60405180910390fd5b8973ffffffffffffffffffffffffffffffffffffffff16847fa560e3198060a2f10670c1ec5b403077ea6ae93ca8de1c32b451dc1a943cd6e78b8b8b8b6040516106899493929190611781565b60405180910390a38094505050505095945050505050565b600160009054906101000a900473ffffffffffffffffffffffffffffffffffffffff1673ffffffffffffffffffffffffffffffffffffffff163373ffffffffffffffffffffffffffffffffffffffff1614610731576040517f08c379a0000000000000000000000000000000000000000000000000000000008152600401610728906116a6565b60405180910390fd5b336000806101000a81548173ffffffffffffffffffffffffffffffffffffffff021916908373ffffffffffffffffffffffffffffffffffffffff1602179055506000600160006101000a81548173ffffffffffffffffffffffffffffffffffffffff021916908373ffffffffffffffffffffffffffffffffffffffff16021790555060008054906101000a900473ffffffffffffffffffffffffffffffffffffffff1673ffffffffffffffffffffffffffffffffffffffff167f71614071b88dee5e0b2ae578a9dd7b2ebbe9ae832ba419dc0242cd065a290b6c60405160405180910390a2565b600160009054906101000a900473ffffffffffffffffffffffffffffffffffffffff1681565b60008060009054906101000a900473ffffffffffffffffffffffffffffffffffffffff1673ffffffffffffffffffffffffffffffffffffffff163373ffffffffffffffffffffffffffffffffffffffff16146108cf576040517f08c379a00000000000000000000000000000000000000000000000000000000081526004016108c6906116e6565b60405180910390fd5b6108eb6002546108dd610eb8565b610ec090919063ffffffff16565b82101561092d576040517f08c379a000000000000000000000000000000000000000000000000000000000815260040161092490611726565b60405180910390fd5b600086868686866040516020016109489594939291906114cd565b60405160208183030381529060405280519060200120905060016004600083815260200190815260200160002060006101000a81548160ff0219169083151502179055508673ffffffffffffffffffffffffffffffffffffffff16817f76e2796dc3a81d57b0e8504b647febcbeeb5f4af818e164f11eef8131a6a763f888888886040516109d99493929190611781565b60405180910390a38091505095945050505050565b600360009054906101000a900460ff1615610a76573073ffffffffffffffffffffffffffffffffffffffff163373ffffffffffffffffffffffffffffffffffffffff1614610a71576040517f08c379a0000000000000000000000000000000000000000000000000000000008152600401610a68906116c6565b60405180910390fd5b610b20565b60008054906101000a900473ffffffffffffffffffffffffffffffffffffffff1673ffffffffffffffffffffffffffffffffffffffff163373ffffffffffffffffffffffffffffffffffffffff1614610b04576040517f08c379a0000000000000000000000000000000000000000000000000000000008152600401610afb90611646565b60405180910390fd5b6001600360006101000a81548160ff0219169083151502179055505b80600160006101000a81548173ffffffffffffffffffffffffffffffffffffffff021916908373ffffffffffffffffffffffffffffffffffffffff160217905550600160009054906101000a900473ffffffffffffffffffffffffffffffffffffffff1673ffffffffffffffffffffffffffffffffffffffff167f69d78e38a01985fbb1462961809b4b2d65531bc93b2b94037f3334b82ca4a75660405160405180910390a250565b60008054906101000a900473ffffffffffffffffffffffffffffffffffffffff1673ffffffffffffffffffffffffffffffffffffffff163373ffffffffffffffffffffffffffffffffffffffff1614610c57576040517f08c379a0000000000000000000000000000000000000000000000000000000008152600401610c4e906115a6565b60405180910390fd5b60008585858585604051602001610c729594939291906114cd565b60405160208183030381529060405280519060200120905060006004600083815260200190815260200160002060006101000a81548160ff0219169083151502179055508573ffffffffffffffffffffffffffffffffffffffff16817f2fffc091a501fd91bfbff27141450d3acb40fb8e6d8382b243ec7a812a3aaf8787878787604051610d039493929190611781565b60405180910390a3505050505050565b60025481565b600360009054906101000a900460ff1681565b62278d0081565b6202a30081565b6212750081565b3073ffffffffffffffffffffffffffffffffffffffff163373ffffffffffffffffffffffffffffffffffffffff1614610daf576040517f08c379a0000000000000000000000000000000000000000000000000000000008152600401610da690611746565b60405180910390fd5b6202a300811015610df5576040517f08c379a0000000000000000000000000000000000000000000000000000000008152600401610dec90611626565b60405180910390fd5b62278d00811115610e3b576040517f08c379a0000000000000000000000000000000000000000000000000000000008152600401610e3290611666565b60405180910390fd5b806002819055506002547f948b1f6a42ee138b7e34058ba85a37f716d55ff25ff05a763f15bed6a04c8d2c60405160405180910390a250565b60046020528060005260406000206000915054906101000a900460ff1681565b60008054906101000a900473ffffffffffffffffffffffffffffffffffffffff1681565b600042905090565b6000808284610ecf919061189e565b905083811015610f14576040517f08c379a0000000000000000000000000000000000000000000000000000000008152600401610f0b906115e6565b60405180910390fd5b8091505092915050565b6000610f31610f2c846117f9565b6117d4565b905082815260208101848484011115610f4957600080fd5b610f54848285611972565b509392505050565b6000610f6f610f6a8461182a565b6117d4565b905082815260208101848484011115610f8757600080fd5b610f92848285611972565b509392505050565b600081359050610fa981611f28565b92915050565b600081359050610fbe81611f3f565b92915050565b600082601f830112610fd557600080fd5b8135610fe5848260208601610f1e565b91505092915050565b600082601f830112610fff57600080fd5b813561100f848260208601610f5c565b91505092915050565b60008135905061102781611f56565b92915050565b60006020828403121561103f57600080fd5b600061104d84828501610f9a565b91505092915050565b600080600080600060a0868803121561106e57600080fd5b600061107c88828901610f9a565b955050602061108d88828901611018565b945050604086013567ffffffffffffffff8111156110aa57600080fd5b6110b688828901610fee565b935050606086013567ffffffffffffffff8111156110d357600080fd5b6110df88828901610fc4565b92505060806110f088828901611018565b9150509295509295909350565b60006020828403121561110f57600080fd5b600061111d84828501610faf565b91505092915050565b60006020828403121561113857600080fd5b600061114684828501611018565b91505092915050565b611158816118f4565b82525050565b61116781611906565b82525050565b61117681611912565b82525050565b61118d6111888261191c565b6119e5565b82525050565b600061119e8261185b565b6111a88185611871565b93506111b8818560208601611981565b6111c181611a4d565b840191505092915050565b60006111d78261185b565b6111e18185611882565b93506111f1818560208601611981565b80840191505092915050565b600061120882611866565b611212818561188d565b9350611222818560208601611981565b61122b81611a4d565b840191505092915050565b600061124360388361188d565b915061124e82611a5e565b604082019050919050565b600061126660378361188d565b915061127182611aad565b604082019050919050565b600061128960338361188d565b915061129482611afc565b604082019050919050565b60006112ac601b8361188d565b91506112b782611b4b565b602082019050919050565b60006112cf60458361188d565b91506112da82611b74565b606082019050919050565b60006112f260348361188d565b91506112fd82611be9565b604082019050919050565b6000611315603b8361188d565b915061132082611c38565b604082019050919050565b600061133860388361188d565b915061134382611c87565b604082019050919050565b600061135b603d8361188d565b915061136682611cd6565b604082019050919050565b600061137e60388361188d565b915061138982611d25565b604082019050919050565b60006113a160388361188d565b91506113ac82611d74565b604082019050919050565b60006113c460368361188d565b91506113cf82611dc3565b604082019050919050565b60006113e7600083611882565b91506113f282611e12565b600082019050919050565b600061140a603d8361188d565b915061141582611e15565b604082019050919050565b600061142d60498361188d565b915061143882611e64565b606082019050919050565b600061145060318361188d565b915061145b82611ed9565b604082019050919050565b61146f81611968565b82525050565b6000611481828561117c565b60048201915061149182846111cc565b91508190509392505050565b60006114a8826113da565b9150819050919050565b60006020820190506114c7600083018461114f565b92915050565b600060a0820190506114e2600083018861114f565b6114ef6020830187611466565b818103604083015261150181866111fd565b905081810360608301526115158185611193565b90506115246080830184611466565b9695505050505050565b6000602082019050611543600083018461115e565b92915050565b600060208201905061155e600083018461116d565b92915050565b6000602082019050818103600083015261157e8184611193565b905092915050565b6000602082019050818103600083015261159f81611236565b9050919050565b600060208201905081810360008301526115bf81611259565b9050919050565b600060208201905081810360008301526115df8161127c565b9050919050565b600060208201905081810360008301526115ff8161129f565b9050919050565b6000602082019050818103600083015261161f816112c2565b9050919050565b6000602082019050818103600083015261163f816112e5565b9050919050565b6000602082019050818103600083015261165f81611308565b9050919050565b6000602082019050818103600083015261167f8161132b565b9050919050565b6000602082019050818103600083015261169f8161134e565b9050919050565b600060208201905081810360008301526116bf81611371565b9050919050565b600060208201905081810360008301526116df81611394565b9050919050565b600060208201905081810360008301526116ff816113b7565b9050919050565b6000602082019050818103600083015261171f816113fd565b9050919050565b6000602082019050818103600083015261173f81611420565b9050919050565b6000602082019050818103600083015261175f81611443565b9050919050565b600060208201905061177b6000830184611466565b92915050565b60006080820190506117966000830187611466565b81810360208301526117a881866111fd565b905081810360408301526117bc8185611193565b90506117cb6060830184611466565b95945050505050565b60006117de6117ef565b90506117ea82826119b4565b919050565b6000604051905090565b600067ffffffffffffffff82111561181457611813611a1e565b5b61181d82611a4d565b9050602081019050919050565b600067ffffffffffffffff82111561184557611844611a1e565b5b61184e82611a4d565b9050602081019050919050565b600081519050919050565b600081519050919050565b600082825260208201905092915050565b600081905092915050565b600082825260208201905092915050565b60006118a982611968565b91506118b483611968565b9250827fffffffffffffffffffffffffffffffffffffffffffffffffffffffffffffffff038211156118e9576118e86119ef565b5b828201905092915050565b60006118ff82611948565b9050919050565b60008115159050919050565b6000819050919050565b60007fffffffff0000000000000000000000000000000000000000000000000000000082169050919050565b600073ffffffffffffffffffffffffffffffffffffffff82169050919050565b6000819050919050565b82818337600083830152505050565b60005b8381101561199f578082015181840152602081019050611984565b838111156119ae576000848401525b50505050565b6119bd82611a4d565b810181811067ffffffffffffffff821117156119dc576119db611a1e565b5b80604052505050565b6000819050919050565b7f4e487b7100000000000000000000000000000000000000000000000000000000600052601160045260246000fd5b7f4e487b7100000000000000000000000000000000000000000000000000000000600052604160045260246000fd5b6000601f19601f8301169050919050565b7f54696d656c6f636b3a3a657865637574655472616e73616374696f6e3a20436160008201527f6c6c206d75737420636f6d652066726f6d2061646d696e2e0000000000000000602082015250565b7f54696d656c6f636b3a3a63616e63656c5472616e73616374696f6e3a2043616c60008201527f6c206d75737420636f6d652066726f6d2061646d696e2e000000000000000000602082015250565b7f54696d656c6f636b3a3a657865637574655472616e73616374696f6e3a20547260008201527f616e73616374696f6e206973207374616c652e00000000000000000000000000602082015250565b7f536166654d6174683a206164646974696f6e206f766572666c6f770000000000600082015250565b7f54696d656c6f636b3a3a657865637574655472616e73616374696f6e3a20547260008201527f616e73616374696f6e206861736e2774207375727061737365642074696d652060208201527f6c6f636b2e000000000000000000000000000000000000000000000000000000604082015250565b7f54696d656c6f636b3a3a73657444656c61793a2044656c6179206d757374206560008201527f7863656564206d696e696d756d2064656c61792e000000000000000000000000602082015250565b7f54696d656c6f636b3a3a73657450656e64696e6741646d696e3a20466972737460008201527f2063616c6c206d75737420636f6d652066726f6d2061646d696e2e0000000000602082015250565b7f54696d656c6f636b3a3a73657444656c61793a2044656c6179206d757374206e60008201527f6f7420657863656564206d6178696d756d2064656c61792e0000000000000000602082015250565b7f54696d656c6f636b3a3a657865637574655472616e73616374696f6e3a20547260008201527f616e73616374696f6e206861736e2774206265656e207175657565642e000000602082015250565b7f54696d656c6f636b3a3a61636365707441646d696e3a2043616c6c206d75737460008201527f20636f6d652066726f6d2070656e64696e6741646d696e2e0000000000000000602082015250565b7f54696d656c6f636b3a3a73657450656e64696e6741646d696e3a2043616c6c2060008201527f6d75737420636f6d652066726f6d2054696d656c6f636b2e0000000000000000602082015250565b7f54696d656c6f636b3a3a71756575655472616e73616374696f6e3a2043616c6c60008201527f206d75737420636f6d652066726f6d2061646d696e2e00000000000000000000602082015250565b50565b7f54696d656c6f636b3a3a657865637574655472616e73616374696f6e3a20547260008201527f616e73616374696f6e20657865637574696f6e2072657665727465642e000000602082015250565b7f54696d656c6f636b3a3a71756575655472616e73616374696f6e3a204573746960008201527f6d6174656420657865637574696f6e20626c6f636b206d75737420736174697360208201527f66792064656c61792e0000000000000000000000000000000000000000000000604082015250565b7f54696d656c6f636b3a3a73657444656c61793a2043616c6c206d75737420636f60008201527f6d652066726f6d2054696d656c6f636b2e000000000000000000000000000000602082015250565b611f31816118f4565b8114611f3c57600080fd5b50565b611f4881611912565b8114611f5357600080fd5b50565b611f5f81611968565b8114611f6a57600080fd5b5056fea2646970667358221220724d79dab509ec4933fcff21ff6e048113ee96500107f0712676038f72eaa1d864736f6c63430008040033",
  "linkReferences": {},
  "deployedLinkReferences": {}
}