{
  "_format": "hh-sol-artifact-1",
  "contractName": "Timelock",
  "sourceName": "contracts/Utils/Timelock.sol",
  "abi": [
    {
      "inputs": [
        {
          "internalType": "address",
          "name": "admin_",
          "type": "address"
        },
        {
          "internalType": "uint256",
          "name": "delay_",
          "type": "uint256"
        }
      ],
      "stateMutability": "nonpayable",
      "type": "constructor"
    },
    {
      "anonymous": false,
      "inputs": [
        {
          "indexed": true,
          "internalType": "bytes32",
          "name": "txHash",
          "type": "bytes32"
        },
        {
          "indexed": true,
          "internalType": "address",
          "name": "target",
          "type": "address"
        },
        {
          "indexed": false,
          "internalType": "uint256",
          "name": "value",
          "type": "uint256"
        },
        {
          "indexed": false,
          "internalType": "string",
          "name": "signature",
          "type": "string"
        },
        {
          "indexed": false,
          "internalType": "bytes",
          "name": "data",
          "type": "bytes"
        },
        {
          "indexed": false,
          "internalType": "uint256",
          "name": "eta",
          "type": "uint256"
        }
      ],
      "name": "CancelTransaction",
      "type": "event"
    },
    {
      "anonymous": false,
      "inputs": [
        {
          "indexed": true,
          "internalType": "bytes32",
          "name": "txHash",
          "type": "bytes32"
        },
        {
          "indexed": true,
          "internalType": "address",
          "name": "target",
          "type": "address"
        },
        {
          "indexed": false,
          "internalType": "uint256",
          "name": "value",
          "type": "uint256"
        },
        {
          "indexed": false,
          "internalType": "string",
          "name": "signature",
          "type": "string"
        },
        {
          "indexed": false,
          "internalType": "bytes",
          "name": "data",
          "type": "bytes"
        },
        {
          "indexed": false,
          "internalType": "uint256",
          "name": "eta",
          "type": "uint256"
        }
      ],
      "name": "ExecuteTransaction",
      "type": "event"
    },
    {
      "anonymous": false,
      "inputs": [
        {
          "indexed": true,
          "internalType": "address",
          "name": "newAdmin",
          "type": "address"
        }
      ],
      "name": "NewAdmin",
      "type": "event"
    },
    {
      "anonymous": false,
      "inputs": [
        {
          "indexed": true,
          "internalType": "uint256",
          "name": "newDelay",
          "type": "uint256"
        }
      ],
      "name": "NewDelay",
      "type": "event"
    },
    {
      "anonymous": false,
      "inputs": [
        {
          "indexed": true,
          "internalType": "address",
          "name": "newPendingAdmin",
          "type": "address"
        }
      ],
      "name": "NewPendingAdmin",
      "type": "event"
    },
    {
      "anonymous": false,
      "inputs": [
        {
          "indexed": true,
          "internalType": "bytes32",
          "name": "txHash",
          "type": "bytes32"
        },
        {
          "indexed": true,
          "internalType": "address",
          "name": "target",
          "type": "address"
        },
        {
          "indexed": false,
          "internalType": "uint256",
          "name": "value",
          "type": "uint256"
        },
        {
          "indexed": false,
          "internalType": "string",
          "name": "signature",
          "type": "string"
        },
        {
          "indexed": false,
          "internalType": "bytes",
          "name": "data",
          "type": "bytes"
        },
        {
          "indexed": false,
          "internalType": "uint256",
          "name": "eta",
          "type": "uint256"
        }
      ],
      "name": "QueueTransaction",
      "type": "event"
    },
    {
      "inputs": [],
      "name": "GRACE_PERIOD",
      "outputs": [
        {
          "internalType": "uint256",
          "name": "",
          "type": "uint256"
        }
      ],
      "stateMutability": "view",
      "type": "function"
    },
    {
      "inputs": [],
      "name": "MAXIMUM_DELAY",
      "outputs": [
        {
          "internalType": "uint256",
          "name": "",
          "type": "uint256"
        }
      ],
      "stateMutability": "view",
      "type": "function"
    },
    {
      "inputs": [],
      "name": "MINIMUM_DELAY",
      "outputs": [
        {
          "internalType": "uint256",
          "name": "",
          "type": "uint256"
        }
      ],
      "stateMutability": "view",
      "type": "function"
    },
    {
      "inputs": [],
      "name": "acceptAdmin",
      "outputs": [],
      "stateMutability": "nonpayable",
      "type": "function"
    },
    {
      "inputs": [],
      "name": "admin",
      "outputs": [
        {
          "internalType": "address",
          "name": "",
          "type": "address"
        }
      ],
      "stateMutability": "view",
      "type": "function"
    },
    {
      "inputs": [],
      "name": "admin_initialized",
      "outputs": [
        {
          "internalType": "bool",
          "name": "",
          "type": "bool"
        }
      ],
      "stateMutability": "view",
      "type": "function"
    },
    {
      "inputs": [
        {
          "internalType": "address",
          "name": "target",
          "type": "address"
        },
        {
          "internalType": "uint256",
          "name": "value",
          "type": "uint256"
        },
        {
          "internalType": "string",
          "name": "signature",
          "type": "string"
        },
        {
          "internalType": "bytes",
          "name": "data",
          "type": "bytes"
        },
        {
          "internalType": "uint256",
          "name": "eta",
          "type": "uint256"
        }
      ],
      "name": "cancelTransaction",
      "outputs": [],
      "stateMutability": "nonpayable",
      "type": "function"
    },
    {
      "inputs": [],
      "name": "delay",
      "outputs": [
        {
          "internalType": "uint256",
          "name": "",
          "type": "uint256"
        }
      ],
      "stateMutability": "view",
      "type": "function"
    },
    {
      "inputs": [
        {
          "internalType": "address",
          "name": "target",
          "type": "address"
        },
        {
          "internalType": "uint256",
          "name": "value",
          "type": "uint256"
        },
        {
          "internalType": "string",
          "name": "signature",
          "type": "string"
        },
        {
          "internalType": "bytes",
          "name": "data",
          "type": "bytes"
        },
        {
          "internalType": "uint256",
          "name": "eta",
          "type": "uint256"
        }
      ],
      "name": "executeTransaction",
      "outputs": [
        {
          "internalType": "bytes",
          "name": "",
          "type": "bytes"
        }
      ],
      "stateMutability": "payable",
      "type": "function"
    },
    {
      "inputs": [],
      "name": "pendingAdmin",
      "outputs": [
        {
          "internalType": "address",
          "name": "",
          "type": "address"
        }
      ],
      "stateMutability": "view",
      "type": "function"
    },
    {
      "inputs": [
        {
          "internalType": "address",
          "name": "target",
          "type": "address"
        },
        {
          "internalType": "uint256",
          "name": "value",
          "type": "uint256"
        },
        {
          "internalType": "string",
          "name": "signature",
          "type": "string"
        },
        {
          "internalType": "bytes",
          "name": "data",
          "type": "bytes"
        },
        {
          "internalType": "uint256",
          "name": "eta",
          "type": "uint256"
        }
      ],
      "name": "queueTransaction",
      "outputs": [
        {
          "internalType": "bytes32",
          "name": "",
          "type": "bytes32"
        }
      ],
      "stateMutability": "nonpayable",
      "type": "function"
    },
    {
      "inputs": [
        {
          "internalType": "bytes32",
          "name": "",
          "type": "bytes32"
        }
      ],
      "name": "queuedTransactions",
      "outputs": [
        {
          "internalType": "bool",
          "name": "",
          "type": "bool"
        }
      ],
      "stateMutability": "view",
      "type": "function"
    },
    {
      "inputs": [
        {
          "internalType": "uint256",
          "name": "delay_",
          "type": "uint256"
        }
      ],
      "name": "setDelay",
      "outputs": [],
      "stateMutability": "nonpayable",
      "type": "function"
    },
    {
      "inputs": [
        {
          "internalType": "address",
          "name": "pendingAdmin_",
          "type": "address"
        }
      ],
      "name": "setPendingAdmin",
      "outputs": [],
      "stateMutability": "nonpayable",
      "type": "function"
    },
    {
      "stateMutability": "payable",
      "type": "receive"
    }
  ],
  "bytecode": "0x608060405234801561001057600080fd5b5060405161127d38038061127d83398101604081905261002f91610135565b6202a30081101561009b5760405162461bcd60e51b8152602060048201526037602482015260008051602061125d83398151915260448201527f7420657863656564206d696e696d756d2064656c61792e00000000000000000060648201526084015b60405180910390fd5b62278d008111156101025760405162461bcd60e51b815260206004820152603b602482015260008051602061125d83398151915260448201527f74206e6f7420657863656564206d6178696d756d2064656c61792e00000000006064820152608401610092565b600080546001600160a01b0319166001600160a01b0393909316929092179091556002556003805460ff1916905561016d565b60008060408385031215610147578182fd5b82516001600160a01b038116811461015d578283fd5b6020939093015192949293505050565b6110e18061017c6000396000f3fe6080604052600436106100e15760003560e01c80636fc1f57e1161007f578063c1a287e211610059578063c1a287e214610241578063e177246e14610258578063f2b0653714610278578063f851a440146102a857600080fd5b80636fc1f57e146101e95780637d645fab14610213578063b1b43ae51461022a57600080fd5b80633a66f901116100bb5780633a66f901146101655780634dd18bf514610193578063591fcdfe146101b35780636a42b8f8146101d357600080fd5b80630825f38f146100ed5780630e18b68114610116578063267822471461012d57600080fd5b366100e857005b600080fd5b6101006100fb366004610e6c565b6102c8565b60405161010d9190610ff1565b60405180910390f35b34801561012257600080fd5b5061012b610698565b005b34801561013957600080fd5b5060015461014d906001600160a01b031681565b6040516001600160a01b03909116815260200161010d565b34801561017157600080fd5b50610185610180366004610e6c565b61076e565b60405190815260200161010d565b34801561019f57600080fd5b5061012b6101ae366004610e52565b61093c565b3480156101bf57600080fd5b5061012b6101ce366004610e6c565b610aa6565b3480156101df57600080fd5b5061018560025481565b3480156101f557600080fd5b506003546102039060ff1681565b604051901515815260200161010d565b34801561021f57600080fd5b5061018562278d0081565b34801561023657600080fd5b506101856202a30081565b34801561024d57600080fd5b506101856212750081565b34801561026457600080fd5b5061012b610273366004610f18565b610bc0565b34801561028457600080fd5b50610203610293366004610f18565b60046020526000908152604090205460ff1681565b3480156102b457600080fd5b5060005461014d906001600160a01b031681565b6000546060906001600160a01b031633146103505760405162461bcd60e51b815260206004820152603860248201527f54696d656c6f636b3a3a657865637574655472616e73616374696f6e3a20436160448201527f6c6c206d75737420636f6d652066726f6d2061646d696e2e000000000000000060648201526084015b60405180910390fd5b6000868686868660405160200161036b959493929190610fa4565b60408051601f1981840301815291815281516020928301206000818152600490935291205490915060ff166104085760405162461bcd60e51b815260206004820152603d60248201527f54696d656c6f636b3a3a657865637574655472616e73616374696f6e3a20547260448201527f616e73616374696f6e206861736e2774206265656e207175657565642e0000006064820152608401610347565b824210156104a45760405162461bcd60e51b815260206004820152604560248201527f54696d656c6f636b3a3a657865637574655472616e73616374696f6e3a20547260448201527f616e73616374696f6e206861736e2774207375727061737365642074696d652060648201527f6c6f636b2e000000000000000000000000000000000000000000000000000000608482015260a401610347565b6104b18362127500610d5a565b4211156105265760405162461bcd60e51b815260206004820152603360248201527f54696d656c6f636b3a3a657865637574655472616e73616374696f6e3a20547260448201527f616e73616374696f6e206973207374616c652e000000000000000000000000006064820152608401610347565b6000818152600460205260409020805460ff19169055845160609061054c575083610578565b858051906020012085604051602001610566929190610f5c565b60405160208183030381529060405290505b600080896001600160a01b03168960405160006040518083038185875af1925050503d80600081146105c6576040519150601f19603f3d011682016040523d82523d6000602084013e6105cb565b606091505b5091509150816106435760405162461bcd60e51b815260206004820152603d60248201527f54696d656c6f636b3a3a657865637574655472616e73616374696f6e3a20547260448201527f616e73616374696f6e20657865637574696f6e2072657665727465642e0000006064820152608401610347565b896001600160a01b0316847fa560e3198060a2f10670c1ec5b403077ea6ae93ca8de1c32b451dc1a943cd6e78b8b8b8b6040516106839493929190611004565b60405180910390a39998505050505050505050565b6001546001600160a01b031633146107185760405162461bcd60e51b815260206004820152603860248201527f54696d656c6f636b3a3a61636365707441646d696e3a2043616c6c206d75737460448201527f20636f6d652066726f6d2070656e64696e6741646d696e2e00000000000000006064820152608401610347565b600080543373ffffffffffffffffffffffffffffffffffffffff19918216811783556001805490921690915560405190917f71614071b88dee5e0b2ae578a9dd7b2ebbe9ae832ba419dc0242cd065a290b6c91a2565b600080546001600160a01b031633146107ef5760405162461bcd60e51b815260206004820152603660248201527f54696d656c6f636b3a3a71756575655472616e73616374696f6e3a2043616c6c60448201527f206d75737420636f6d652066726f6d2061646d696e2e000000000000000000006064820152608401610347565b6108026002546107fc4290565b90610d5a565b82101561089d5760405162461bcd60e51b815260206004820152604960248201527f54696d656c6f636b3a3a71756575655472616e73616374696f6e3a204573746960448201527f6d6174656420657865637574696f6e20626c6f636b206d75737420736174697360648201527f66792064656c61792e0000000000000000000000000000000000000000000000608482015260a401610347565b600086868686866040516020016108b8959493929190610fa4565b60408051601f19818403018152828252805160209182012060008181526004909252919020805460ff1916600117905591506001600160a01b0388169082907f76e2796dc3a81d57b0e8504b647febcbeeb5f4af818e164f11eef8131a6a763f9061092a908a908a908a908a90611004565b60405180910390a39695505050505050565b60035460ff16156109c1573330146109bc5760405162461bcd60e51b815260206004820152603860248201527f54696d656c6f636b3a3a73657450656e64696e6741646d696e3a2043616c6c2060448201527f6d75737420636f6d652066726f6d2054696d656c6f636b2e00000000000000006064820152608401610347565b610a4f565b6000546001600160a01b03163314610a415760405162461bcd60e51b815260206004820152603b60248201527f54696d656c6f636b3a3a73657450656e64696e6741646d696e3a20466972737460448201527f2063616c6c206d75737420636f6d652066726f6d2061646d696e2e00000000006064820152608401610347565b6003805460ff191660011790555b6001805473ffffffffffffffffffffffffffffffffffffffff19166001600160a01b0383169081179091556040517f69d78e38a01985fbb1462961809b4b2d65531bc93b2b94037f3334b82ca4a75690600090a250565b6000546001600160a01b03163314610b265760405162461bcd60e51b815260206004820152603760248201527f54696d656c6f636b3a3a63616e63656c5472616e73616374696f6e3a2043616c60448201527f6c206d75737420636f6d652066726f6d2061646d696e2e0000000000000000006064820152608401610347565b60008585858585604051602001610b41959493929190610fa4565b60408051601f19818403018152828252805160209182012060008181526004909252919020805460ff1916905591506001600160a01b0387169082907f2fffc091a501fd91bfbff27141450d3acb40fb8e6d8382b243ec7a812a3aaf8790610bb0908990899089908990611004565b60405180910390a3505050505050565b333014610c355760405162461bcd60e51b815260206004820152603160248201527f54696d656c6f636b3a3a73657444656c61793a2043616c6c206d75737420636f60448201527f6d652066726f6d2054696d656c6f636b2e0000000000000000000000000000006064820152608401610347565b6202a300811015610cae5760405162461bcd60e51b815260206004820152603460248201527f54696d656c6f636b3a3a73657444656c61793a2044656c6179206d757374206560448201527f7863656564206d696e696d756d2064656c61792e0000000000000000000000006064820152608401610347565b62278d00811115610d275760405162461bcd60e51b815260206004820152603860248201527f54696d656c6f636b3a3a73657444656c61793a2044656c6179206d757374206e60448201527f6f7420657863656564206d6178696d756d2064656c61792e00000000000000006064820152608401610347565b600281905560405181907f948b1f6a42ee138b7e34058ba85a37f716d55ff25ff05a763f15bed6a04c8d2c90600090a250565b600080610d678385611041565b905083811015610db95760405162461bcd60e51b815260206004820152601b60248201527f536166654d6174683a206164646974696f6e206f766572666c6f7700000000006044820152606401610347565b9392505050565b600067ffffffffffffffff80841115610ddb57610ddb611095565b604051601f8501601f19908116603f01168101908282118183101715610e0357610e03611095565b81604052809350858152868686011115610e1c57600080fd5b858560208301376000602087830101525050509392505050565b80356001600160a01b0381168114610e4d57600080fd5b919050565b600060208284031215610e63578081fd5b610db982610e36565b600080600080600060a08688031215610e83578081fd5b610e8c86610e36565b945060208601359350604086013567ffffffffffffffff80821115610eaf578283fd5b818801915088601f830112610ec2578283fd5b610ed189833560208501610dc0565b94506060880135915080821115610ee6578283fd5b508601601f81018813610ef7578182fd5b610f0688823560208401610dc0565b95989497509295608001359392505050565b600060208284031215610f29578081fd5b5035919050565b60008151808452610f48816020860160208601611065565b601f01601f19169290920160200192915050565b7fffffffff000000000000000000000000000000000000000000000000000000008316815260008251610f96816004850160208701611065565b919091016004019392505050565b6001600160a01b038616815284602082015260a060408201526000610fcc60a0830186610f30565b8281036060840152610fde8186610f30565b9150508260808301529695505050505050565b602081526000610db96020830184610f30565b84815260806020820152600061101d6080830186610f30565b828103604084015261102f8186610f30565b91505082606083015295945050505050565b6000821982111561106057634e487b7160e01b81526011600452602481fd5b500190565b60005b83811015611080578181015183820152602001611068565b8381111561108f576000848401525b50505050565b634e487b7160e01b600052604160045260246000fdfea2646970667358221220bcf6e19feebaa64666d420d89d1bf0de86d6a9c02cd137e45f1487ca4ef9911d64736f6c6343000804003354696d656c6f636b3a3a636f6e7374727563746f723a2044656c6179206d7573",
  "linkReferences": {},
  "deployedLinkReferences": {}
}