{
  "_format": "hh-sol-artifact-1",
  "contractName": "MISOAdminAccess",
  "sourceName": "contracts/Access/MISOAdminAccess.sol",
  "abi": [
    {
      "inputs": [],
      "stateMutability": "nonpayable",
      "type": "constructor"
    },
    {
      "anonymous": false,
      "inputs": [
        {
          "indexed": true,
          "internalType": "address",
          "name": "beneficiary",
          "type": "address"
        },
        {
          "indexed": true,
          "internalType": "address",
          "name": "caller",
          "type": "address"
        }
      ],
      "name": "AdminRoleGranted",
      "type": "event"
    },
    {
      "anonymous": false,
      "inputs": [
        {
          "indexed": true,
          "internalType": "address",
          "name": "beneficiary",
          "type": "address"
        },
        {
          "indexed": true,
          "internalType": "address",
          "name": "caller",
          "type": "address"
        }
      ],
      "name": "AdminRoleRemoved",
      "type": "event"
    },
    {
      "anonymous": false,
      "inputs": [
        {
          "indexed": true,
          "internalType": "bytes32",
          "name": "role",
          "type": "bytes32"
        },
        {
          "indexed": true,
          "internalType": "bytes32",
          "name": "previousAdminRole",
          "type": "bytes32"
        },
        {
          "indexed": true,
          "internalType": "bytes32",
          "name": "newAdminRole",
          "type": "bytes32"
        }
      ],
      "name": "RoleAdminChanged",
      "type": "event"
    },
    {
      "anonymous": false,
      "inputs": [
        {
          "indexed": true,
          "internalType": "bytes32",
          "name": "role",
          "type": "bytes32"
        },
        {
          "indexed": true,
          "internalType": "address",
          "name": "account",
          "type": "address"
        },
        {
          "indexed": true,
          "internalType": "address",
          "name": "sender",
          "type": "address"
        }
      ],
      "name": "RoleGranted",
      "type": "event"
    },
    {
      "anonymous": false,
      "inputs": [
        {
          "indexed": true,
          "internalType": "bytes32",
          "name": "role",
          "type": "bytes32"
        },
        {
          "indexed": true,
          "internalType": "address",
          "name": "account",
          "type": "address"
        },
        {
          "indexed": true,
          "internalType": "address",
          "name": "sender",
          "type": "address"
        }
      ],
      "name": "RoleRevoked",
      "type": "event"
    },
    {
      "inputs": [],
      "name": "DEFAULT_ADMIN_ROLE",
      "outputs": [
        {
          "internalType": "bytes32",
          "name": "",
          "type": "bytes32"
        }
      ],
      "stateMutability": "view",
      "type": "function"
    },
    {
      "inputs": [
        {
          "internalType": "address",
          "name": "_address",
          "type": "address"
        }
      ],
      "name": "addAdminRole",
      "outputs": [],
      "stateMutability": "nonpayable",
      "type": "function"
    },
    {
      "inputs": [
        {
          "internalType": "bytes32",
          "name": "role",
          "type": "bytes32"
        }
      ],
      "name": "getRoleAdmin",
      "outputs": [
        {
          "internalType": "bytes32",
          "name": "",
          "type": "bytes32"
        }
      ],
      "stateMutability": "view",
      "type": "function"
    },
    {
      "inputs": [
        {
          "internalType": "bytes32",
          "name": "role",
          "type": "bytes32"
        },
        {
          "internalType": "uint256",
          "name": "index",
          "type": "uint256"
        }
      ],
      "name": "getRoleMember",
      "outputs": [
        {
          "internalType": "address",
          "name": "",
          "type": "address"
        }
      ],
      "stateMutability": "view",
      "type": "function"
    },
    {
      "inputs": [
        {
          "internalType": "bytes32",
          "name": "role",
          "type": "bytes32"
        }
      ],
      "name": "getRoleMemberCount",
      "outputs": [
        {
          "internalType": "uint256",
          "name": "",
          "type": "uint256"
        }
      ],
      "stateMutability": "view",
      "type": "function"
    },
    {
      "inputs": [
        {
          "internalType": "bytes32",
          "name": "role",
          "type": "bytes32"
        },
        {
          "internalType": "address",
          "name": "account",
          "type": "address"
        }
      ],
      "name": "grantRole",
      "outputs": [],
      "stateMutability": "nonpayable",
      "type": "function"
    },
    {
      "inputs": [
        {
          "internalType": "address",
          "name": "_address",
          "type": "address"
        }
      ],
      "name": "hasAdminRole",
      "outputs": [
        {
          "internalType": "bool",
          "name": "",
          "type": "bool"
        }
      ],
      "stateMutability": "view",
      "type": "function"
    },
    {
      "inputs": [
        {
          "internalType": "bytes32",
          "name": "role",
          "type": "bytes32"
        },
        {
          "internalType": "address",
          "name": "account",
          "type": "address"
        }
      ],
      "name": "hasRole",
      "outputs": [
        {
          "internalType": "bool",
          "name": "",
          "type": "bool"
        }
      ],
      "stateMutability": "view",
      "type": "function"
    },
    {
      "inputs": [
        {
          "internalType": "address",
          "name": "_admin",
          "type": "address"
        }
      ],
      "name": "initAccessControls",
      "outputs": [],
      "stateMutability": "nonpayable",
      "type": "function"
    },
    {
      "inputs": [
        {
          "internalType": "address",
          "name": "_address",
          "type": "address"
        }
      ],
      "name": "removeAdminRole",
      "outputs": [],
      "stateMutability": "nonpayable",
      "type": "function"
    },
    {
      "inputs": [
        {
          "internalType": "bytes32",
          "name": "role",
          "type": "bytes32"
        },
        {
          "internalType": "address",
          "name": "account",
          "type": "address"
        }
      ],
      "name": "renounceRole",
      "outputs": [],
      "stateMutability": "nonpayable",
      "type": "function"
    },
    {
      "inputs": [
        {
          "internalType": "bytes32",
          "name": "role",
          "type": "bytes32"
        },
        {
          "internalType": "address",
          "name": "account",
          "type": "address"
        }
      ],
      "name": "revokeRole",
      "outputs": [],
      "stateMutability": "nonpayable",
      "type": "function"
    }
  ],
  "bytecode": "0x608060405234801561001057600080fd5b506110b7806100206000396000f3fe608060405234801561001057600080fd5b50600436106100b45760003560e01c8063a217fddf11610071578063a217fddf1461019d578063c395fcb3146101bb578063ca15c873146101eb578063d547741f1461021b578063dccfe31014610237578063e6594abd14610253576100b4565b8063248a9ca3146100b95780632f2ff15d146100e957806336568abe146101055780636595171c146101215780639010d07c1461013d57806391d148541461016d575b600080fd5b6100d360048036038101906100ce9190610b23565b61026f565b6040516100e09190610ce5565b60405180910390f35b61010360048036038101906100fe9190610b4c565b61028e565b005b61011f600480360381019061011a9190610b4c565b610301565b005b61013b60048036038101906101369190610afa565b610384565b005b61015760048036038101906101529190610b88565b6103f5565b6040516101649190610caf565b60405180910390f35b61018760048036038101906101829190610b4c565b610426565b6040516101949190610cca565b60405180910390f35b6101a5610457565b6040516101b29190610ce5565b60405180910390f35b6101d560048036038101906101d09190610afa565b61045e565b6040516101e29190610cca565b60405180910390f35b61020560048036038101906102009190610b23565b610474565b6040516102129190610da0565b60405180910390f35b61023560048036038101906102309190610b4c565b61049a565b005b610251600480360381019061024c9190610afa565b61050d565b005b61026d60048036038101906102689190610afa565b61057e565b005b6000806000838152602001908152602001600020600201549050919050565b6102b4600080848152602001908152602001600020600201546102af6105f8565b610426565b6102f3576040517f08c379a00000000000000000000000000000000000000000000000000000000081526004016102ea90610d40565b60405180910390fd5b6102fd8282610600565b5050565b6103096105f8565b73ffffffffffffffffffffffffffffffffffffffff168173ffffffffffffffffffffffffffffffffffffffff1614610376576040517f08c379a000000000000000000000000000000000000000000000000000000000815260040161036d90610d80565b60405180910390fd5b6103808282610693565b5050565b6103916000801b8261028e565b6103996105f8565b73ffffffffffffffffffffffffffffffffffffffff168173ffffffffffffffffffffffffffffffffffffffff167f2570ac42fd8b322dc453ada624dc2ed0e9bdd67f16f201a25bbd30468f2aa18760405160405180910390a350565b600061041e8260008086815260200190815260200160002060000161072690919063ffffffff16565b905092915050565b600061044f8260008086815260200190815260200160002060000161074090919063ffffffff16565b905092915050565b6000801b81565b600061046d6000801b83610426565b9050919050565b6000610493600080848152602001908152602001600020600001610770565b9050919050565b6104c0600080848152602001908152602001600020600201546104bb6105f8565b610426565b6104ff576040517f08c379a00000000000000000000000000000000000000000000000000000000081526004016104f690610d60565b60405180910390fd5b6105098282610693565b5050565b61051a6000801b8261049a565b6105226105f8565b73ffffffffffffffffffffffffffffffffffffffff168173ffffffffffffffffffffffffffffffffffffffff167f21ba1239795d4e22874e3dc55f0a9d7b65bfb23069d32965d7c23be9524ccf9560405160405180910390a350565b600160009054906101000a900460ff16156105ce576040517f08c379a00000000000000000000000000000000000000000000000000000000081526004016105c590610d00565b60405180910390fd5b6105db6000801b82610785565b60018060006101000a81548160ff02191690831515021790555050565b600033905090565b6106278160008085815260200190815260200160002060000161079390919063ffffffff16565b1561068f576106346105f8565b73ffffffffffffffffffffffffffffffffffffffff168173ffffffffffffffffffffffffffffffffffffffff16837f2f8788117e7eff1d82e926ec794901d17c78024a50270940304540a733656f0d60405160405180910390a45b5050565b6106ba816000808581526020019081526020016000206000016107c390919063ffffffff16565b15610722576106c76105f8565b73ffffffffffffffffffffffffffffffffffffffff168173ffffffffffffffffffffffffffffffffffffffff16837ff6391f5c32d9c69d2a47ea670b442974b53935d1edc7fd64eb21e047a839171b60405160405180910390a45b5050565b600061073583600001836107f3565b60001c905092915050565b6000610768836000018373ffffffffffffffffffffffffffffffffffffffff1660001b61088d565b905092915050565b600061077e826000016108b0565b9050919050565b61078f8282610600565b5050565b60006107bb836000018373ffffffffffffffffffffffffffffffffffffffff1660001b6108c1565b905092915050565b60006107eb836000018373ffffffffffffffffffffffffffffffffffffffff1660001b610931565b905092915050565b60008183600001805490501161083e576040517f08c379a000000000000000000000000000000000000000000000000000000000815260040161083590610d20565b60405180910390fd5b82600001828154811061087a577f4e487b7100000000000000000000000000000000000000000000000000000000600052603260045260246000fd5b9060005260206000200154905092915050565b600080836001016000848152602001908152602001600020541415905092915050565b600081600001805490509050919050565b60006108cd838361088d565b61092657826000018290806001815401808255809150506001900390600052602060002001600090919091909150558260000180549050836001016000848152602001908152602001600020819055506001905061092b565b600090505b92915050565b60008083600101600084815260200190815260200160002054905060008114610aaf5760006001826109639190610e22565b905060006001866000018054905061097b9190610e22565b905060008660000182815481106109bb577f4e487b7100000000000000000000000000000000000000000000000000000000600052603260045260246000fd5b9060005260206000200154905080876000018481548110610a05577f4e487b7100000000000000000000000000000000000000000000000000000000600052603260045260246000fd5b9060005260206000200181905550600183610a209190610dcc565b8760010160008381526020019081526020016000208190555086600001805480610a73577f4e487b7100000000000000000000000000000000000000000000000000000000600052603160045260246000fd5b60019003818190600052602060002001600090559055866001016000878152602001908152602001600020600090556001945050505050610ab5565b60009150505b92915050565b600081359050610aca8161103c565b92915050565b600081359050610adf81611053565b92915050565b600081359050610af48161106a565b92915050565b600060208284031215610b0c57600080fd5b6000610b1a84828501610abb565b91505092915050565b600060208284031215610b3557600080fd5b6000610b4384828501610ad0565b91505092915050565b60008060408385031215610b5f57600080fd5b6000610b6d85828601610ad0565b9250506020610b7e85828601610abb565b9150509250929050565b60008060408385031215610b9b57600080fd5b6000610ba985828601610ad0565b9250506020610bba85828601610ae5565b9150509250929050565b610bcd81610e56565b82525050565b610bdc81610e68565b82525050565b610beb81610e74565b82525050565b6000610bfe601383610dbb565b9150610c0982610ed7565b602082019050919050565b6000610c21602283610dbb565b9150610c2c82610f00565b604082019050919050565b6000610c44602f83610dbb565b9150610c4f82610f4f565b604082019050919050565b6000610c67603083610dbb565b9150610c7282610f9e565b604082019050919050565b6000610c8a602f83610dbb565b9150610c9582610fed565b604082019050919050565b610ca981610e9e565b82525050565b6000602082019050610cc46000830184610bc4565b92915050565b6000602082019050610cdf6000830184610bd3565b92915050565b6000602082019050610cfa6000830184610be2565b92915050565b60006020820190508181036000830152610d1981610bf1565b9050919050565b60006020820190508181036000830152610d3981610c14565b9050919050565b60006020820190508181036000830152610d5981610c37565b9050919050565b60006020820190508181036000830152610d7981610c5a565b9050919050565b60006020820190508181036000830152610d9981610c7d565b9050919050565b6000602082019050610db56000830184610ca0565b92915050565b600082825260208201905092915050565b6000610dd782610e9e565b9150610de283610e9e565b9250827fffffffffffffffffffffffffffffffffffffffffffffffffffffffffffffffff03821115610e1757610e16610ea8565b5b828201905092915050565b6000610e2d82610e9e565b9150610e3883610e9e565b925082821015610e4b57610e4a610ea8565b5b828203905092915050565b6000610e6182610e7e565b9050919050565b60008115159050919050565b6000819050919050565b600073ffffffffffffffffffffffffffffffffffffffff82169050919050565b6000819050919050565b7f4e487b7100000000000000000000000000000000000000000000000000000000600052601160045260246000fd5b7f416c726561647920696e697469616c6973656400000000000000000000000000600082015250565b7f456e756d657261626c655365743a20696e646578206f7574206f6620626f756e60008201527f6473000000000000000000000000000000000000000000000000000000000000602082015250565b7f416363657373436f6e74726f6c3a2073656e646572206d75737420626520616e60008201527f2061646d696e20746f206772616e740000000000000000000000000000000000602082015250565b7f416363657373436f6e74726f6c3a2073656e646572206d75737420626520616e60008201527f2061646d696e20746f207265766f6b6500000000000000000000000000000000602082015250565b7f416363657373436f6e74726f6c3a2063616e206f6e6c792072656e6f756e636560008201527f20726f6c657320666f722073656c660000000000000000000000000000000000602082015250565b61104581610e56565b811461105057600080fd5b50565b61105c81610e74565b811461106757600080fd5b50565b61107381610e9e565b811461107e57600080fd5b5056fea264697066735822122097d451ba8c9869638c8abdaf201f23c3b0e04a07c3caf7f0e4aadbc9b20bd1b064736f6c63430008040033",
  "linkReferences": {},
  "deployedLinkReferences": {}
}