{
  "_format": "hh-sol-artifact-1",
  "contractName": "BaseHelper",
  "sourceName": "contracts/Helper/VaporHelper.sol",
  "abi": [
    {
      "inputs": [],
      "name": "accessControls",
      "outputs": [
        {
          "internalType": "contract VaporAccessControls",
          "name": "",
          "type": "address"
        }
      ],
      "stateMutability": "view",
      "type": "function"
    },
    {
      "inputs": [],
      "name": "farmFactory",
      "outputs": [
        {
          "internalType": "contract IVaporFarmFactory",
          "name": "",
          "type": "address"
        }
      ],
      "stateMutability": "view",
      "type": "function"
    },
    {
      "inputs": [],
      "name": "launcher",
      "outputs": [
        {
          "internalType": "address",
          "name": "",
          "type": "address"
        }
      ],
      "stateMutability": "view",
      "type": "function"
    },
    {
      "inputs": [],
      "name": "market",
      "outputs": [
        {
          "internalType": "contract IVaporMarketFactory",
          "name": "",
          "type": "address"
        }
      ],
      "stateMutability": "view",
      "type": "function"
    },
    {
      "inputs": [
        {
          "internalType": "address",
          "name": "_tokenFactory",
          "type": "address"
        },
        {
          "internalType": "address",
          "name": "_market",
          "type": "address"
        },
        {
          "internalType": "address",
          "name": "_launcher",
          "type": "address"
        },
        {
          "internalType": "address",
          "name": "_farmFactory",
          "type": "address"
        }
      ],
      "name": "setContracts",
      "outputs": [],
      "stateMutability": "nonpayable",
      "type": "function"
    },
    {
      "inputs": [],
      "name": "tokenFactory",
      "outputs": [
        {
          "internalType": "contract IVaporTokenFactory",
          "name": "",
          "type": "address"
        }
      ],
      "stateMutability": "view",
      "type": "function"
    }
  ],
  "bytecode": "0x608060405234801561001057600080fd5b506103de806100206000396000f3fe608060405234801561001057600080fd5b50600436106100725760003560e01c806380f556051161005057806380f55605146100cc578063bf989b6e146100df578063e77772fe146100f457600080fd5b806316eebd1e146100775780636d25e175146100a6578063748365ef146100b9575b600080fd5b60035461008a906001600160a01b031681565b6040516001600160a01b03909116815260200160405180910390f35b60025461008a906001600160a01b031681565b60045461008a906001600160a01b031681565b60005461008a906001600160a01b031681565b6100f26100ed36600461032e565b610107565b005b60015461008a906001600160a01b031681565b600480546040517fc395fcb300000000000000000000000000000000000000000000000000000000815233928101929092526001600160a01b03169063c395fcb39060240160206040518083038186803b15801561016457600080fd5b505afa158015610178573d6000803e3d6000fd5b505050506040513d601f19601f8201168201806040525081019061019c9190610381565b61022c576040517f08c379a000000000000000000000000000000000000000000000000000000000815260206004820152602160248201527f5661706f7248656c7065723a2053656e646572206d7573742062652041646d6960448201527f6e00000000000000000000000000000000000000000000000000000000000000606482015260840160405180910390fd5b6001600160a01b03831615610264576000805473ffffffffffffffffffffffffffffffffffffffff19166001600160a01b0385161790555b6001600160a01b0384161561029c576001805473ffffffffffffffffffffffffffffffffffffffff19166001600160a01b0386161790555b6001600160a01b038216156102d4576003805473ffffffffffffffffffffffffffffffffffffffff19166001600160a01b0384161790555b6001600160a01b0381161561030c576002805473ffffffffffffffffffffffffffffffffffffffff19166001600160a01b0383161790555b50505050565b80356001600160a01b038116811461032957600080fd5b919050565b60008060008060808587031215610343578384fd5b61034c85610312565b935061035a60208601610312565b925061036860408601610312565b915061037660608601610312565b905092959194509250565b600060208284031215610392578081fd5b815180151581146103a1578182fd5b939250505056fea26469706673582212205706af945a82bc071ae14e76ac983bd19bbc184104f928c2d7b533b87e17a34a64736f6c63430008040033",
  "linkReferences": {},
  "deployedLinkReferences": {}
}