{
  "_format": "hh-sol-artifact-1",
  "contractName": "DocumentHepler",
  "sourceName": "contracts/Helper/VaporHelper.sol",
  "abi": [
    {
      "inputs": [
        {
          "internalType": "address",
          "name": "_document",
          "type": "address"
        }
      ],
      "name": "getDocuments",
      "outputs": [
        {
          "components": [
            {
              "internalType": "string",
              "name": "name",
              "type": "string"
            },
            {
              "internalType": "string",
              "name": "data",
              "type": "string"
            },
            {
              "internalType": "uint256",
              "name": "lastModified",
              "type": "uint256"
            }
          ],
          "internalType": "struct DocumentHepler.Document[]",
          "name": "",
          "type": "tuple[]"
        }
      ],
      "stateMutability": "view",
      "type": "function"
    }
  ],
  "bytecode": "0x608060405234801561001057600080fd5b5061062f806100206000396000f3fe608060405234801561001057600080fd5b506004361061002b5760003560e01c806327f50a2d14610030575b600080fd5b61004361003e3660046103ea565b610059565b60405161005091906104e9565b60405180910390f35b6060600082905060008173ffffffffffffffffffffffffffffffffffffffff16633d1c22736040518163ffffffff1660e01b815260040160206040518083038186803b1580156100a857600080fd5b505afa1580156100bc573d6000803e3d6000fd5b505050506040513d601f19601f820116820180604052508101906100e091906104a5565b905060008167ffffffffffffffff81111561010b57634e487b7160e01b600052604160045260246000fd5b60405190808252806020026020018201604052801561016057816020015b61014d60405180606001604052806060815260200160608152602001600081525090565b8152602001906001900390816101295790505b50905060005b8281101561035b576040517fc6b547e60000000000000000000000000000000000000000000000000000000081526004810182905260009073ffffffffffffffffffffffffffffffffffffffff86169063c6b547e69060240160006040518083038186803b1580156101d757600080fd5b505afa1580156101eb573d6000803e3d6000fd5b505050506040513d6000823e601f3d908101601f191682016040526102139190810190610425565b6040517f7ccb6a6400000000000000000000000000000000000000000000000000000000815290915073ffffffffffffffffffffffffffffffffffffffff861690637ccb6a6490610268908490600401610579565b60006040518083038186803b15801561028057600080fd5b505afa158015610294573d6000803e3d6000fd5b505050506040513d6000823e601f3d908101601f191682016040526102bc9190810190610460565b8484815181106102dc57634e487b7160e01b600052603260045260246000fd5b602002602001015160200185858151811061030757634e487b7160e01b600052603260045260246000fd5b60200260200101516040018281525082905250508083838151811061033c57634e487b7160e01b600052603260045260246000fd5b6020908102919091010151525080610353816105bc565b915050610166565b50949350505050565b600082601f830112610374578081fd5b815167ffffffffffffffff8082111561038f5761038f6105e3565b604051601f8301601f19908116603f011681019082821181831017156103b7576103b76105e3565b816040528381528660208588010111156103cf578485fd5b6103e084602083016020890161058c565b9695505050505050565b6000602082840312156103fb578081fd5b813573ffffffffffffffffffffffffffffffffffffffff8116811461041e578182fd5b9392505050565b600060208284031215610436578081fd5b815167ffffffffffffffff81111561044c578182fd5b61045884828501610364565b949350505050565b60008060408385031215610472578081fd5b825167ffffffffffffffff811115610488578182fd5b61049485828601610364565b925050602083015190509250929050565b6000602082840312156104b6578081fd5b5051919050565b600081518084526104d581602086016020860161058c565b601f01601f19169290920160200192915050565b60006020808301818452808551808352604092508286019150828160051b870101848801865b8381101561056b57603f19898403018552815160608151818652610535828701826104bd565b915050888201518582038a87015261054d82826104bd565b9289015195890195909552509487019492509086019060010161050f565b509098975050505050505050565b60208152600061041e60208301846104bd565b60005b838110156105a757818101518382015260200161058f565b838111156105b6576000848401525b50505050565b60006000198214156105dc57634e487b7160e01b81526011600452602481fd5b5060010190565b634e487b7160e01b600052604160045260246000fdfea2646970667358221220999c436f656ab4d8cfd38cb08e1e6ce842d990d0f80ce43afbc00ce3578577c364736f6c63430008040033",
  "linkReferences": {},
  "deployedLinkReferences": {}
}