{
  "_format": "hh-sol-artifact-1",
  "contractName": "MarketHelper",
  "sourceName": "contracts/Helper/VaporHelper.sol",
  "abi": [
    {
      "inputs": [],
      "name": "accessControls",
      "outputs": [
        {
          "internalType": "contract VaporAccessControls",
          "name": "",
          "type": "address"
        }
      ],
      "stateMutability": "view",
      "type": "function"
    },
    {
      "inputs": [
        {
          "internalType": "address",
          "name": "_token",
          "type": "address"
        },
        {
          "internalType": "address",
          "name": "_owner",
          "type": "address"
        },
        {
          "internalType": "address",
          "name": "_spender",
          "type": "address"
        }
      ],
      "name": "allowance",
      "outputs": [
        {
          "internalType": "uint256",
          "name": "",
          "type": "uint256"
        }
      ],
      "stateMutability": "view",
      "type": "function"
    },
    {
      "inputs": [],
      "name": "farmFactory",
      "outputs": [
        {
          "internalType": "contract IVaporFarmFactory",
          "name": "",
          "type": "address"
        }
      ],
      "stateMutability": "view",
      "type": "function"
    },
    {
      "inputs": [
        {
          "internalType": "address payable",
          "name": "_batchAuction",
          "type": "address"
        }
      ],
      "name": "getBatchAuctionInfo",
      "outputs": [
        {
          "components": [
            {
              "internalType": "address",
              "name": "addr",
              "type": "address"
            },
            {
              "internalType": "address",
              "name": "paymentCurrency",
              "type": "address"
            },
            {
              "internalType": "uint64",
              "name": "startTime",
              "type": "uint64"
            },
            {
              "internalType": "uint64",
              "name": "endTime",
              "type": "uint64"
            },
            {
              "internalType": "uint128",
              "name": "totalTokens",
              "type": "uint128"
            },
            {
              "internalType": "uint256",
              "name": "commitmentsTotal",
              "type": "uint256"
            },
            {
              "internalType": "uint256",
              "name": "minimumCommitmentAmount",
              "type": "uint256"
            },
            {
              "internalType": "bool",
              "name": "finalized",
              "type": "bool"
            },
            {
              "internalType": "bool",
              "name": "usePointList",
              "type": "bool"
            },
            {
              "internalType": "bool",
              "name": "auctionSuccessful",
              "type": "bool"
            },
            {
              "components": [
                {
                  "internalType": "address",
                  "name": "addr",
                  "type": "address"
                },
                {
                  "internalType": "uint256",
                  "name": "decimals",
                  "type": "uint256"
                },
                {
                  "internalType": "string",
                  "name": "name",
                  "type": "string"
                },
                {
                  "internalType": "string",
                  "name": "symbol",
                  "type": "string"
                }
              ],
              "internalType": "struct TokenHelper.TokenInfo",
              "name": "tokenInfo",
              "type": "tuple"
            },
            {
              "components": [
                {
                  "internalType": "address",
                  "name": "addr",
                  "type": "address"
                },
                {
                  "internalType": "uint256",
                  "name": "decimals",
                  "type": "uint256"
                },
                {
                  "internalType": "string",
                  "name": "name",
                  "type": "string"
                },
                {
                  "internalType": "string",
                  "name": "symbol",
                  "type": "string"
                }
              ],
              "internalType": "struct TokenHelper.TokenInfo",
              "name": "paymentCurrencyInfo",
              "type": "tuple"
            },
            {
              "components": [
                {
                  "internalType": "string",
                  "name": "name",
                  "type": "string"
                },
                {
                  "internalType": "string",
                  "name": "data",
                  "type": "string"
                },
                {
                  "internalType": "uint256",
                  "name": "lastModified",
                  "type": "uint256"
                }
              ],
              "internalType": "struct DocumentHepler.Document[]",
              "name": "documents",
              "type": "tuple[]"
            }
          ],
          "internalType": "struct MarketHelper.BatchAuctionInfo",
          "name": "",
          "type": "tuple"
        }
      ],
      "stateMutability": "view",
      "type": "function"
    },
    {
      "inputs": [
        {
          "internalType": "address",
          "name": "_crowdsale",
          "type": "address"
        }
      ],
      "name": "getCrowdsaleInfo",
      "outputs": [
        {
          "components": [
            {
              "internalType": "address",
              "name": "addr",
              "type": "address"
            },
            {
              "internalType": "address",
              "name": "paymentCurrency",
              "type": "address"
            },
            {
              "internalType": "uint128",
              "name": "commitmentsTotal",
              "type": "uint128"
            },
            {
              "internalType": "uint128",
              "name": "totalTokens",
              "type": "uint128"
            },
            {
              "internalType": "uint128",
              "name": "rate",
              "type": "uint128"
            },
            {
              "internalType": "uint128",
              "name": "goal",
              "type": "uint128"
            },
            {
              "internalType": "uint64",
              "name": "startTime",
              "type": "uint64"
            },
            {
              "internalType": "uint64",
              "name": "endTime",
              "type": "uint64"
            },
            {
              "internalType": "bool",
              "name": "finalized",
              "type": "bool"
            },
            {
              "internalType": "bool",
              "name": "usePointList",
              "type": "bool"
            },
            {
              "internalType": "bool",
              "name": "auctionSuccessful",
              "type": "bool"
            },
            {
              "components": [
                {
                  "internalType": "address",
                  "name": "addr",
                  "type": "address"
                },
                {
                  "internalType": "uint256",
                  "name": "decimals",
                  "type": "uint256"
                },
                {
                  "internalType": "string",
                  "name": "name",
                  "type": "string"
                },
                {
                  "internalType": "string",
                  "name": "symbol",
                  "type": "string"
                }
              ],
              "internalType": "struct TokenHelper.TokenInfo",
              "name": "tokenInfo",
              "type": "tuple"
            },
            {
              "components": [
                {
                  "internalType": "address",
                  "name": "addr",
                  "type": "address"
                },
                {
                  "internalType": "uint256",
                  "name": "decimals",
                  "type": "uint256"
                },
                {
                  "internalType": "string",
                  "name": "name",
                  "type": "string"
                },
                {
                  "internalType": "string",
                  "name": "symbol",
                  "type": "string"
                }
              ],
              "internalType": "struct TokenHelper.TokenInfo",
              "name": "paymentCurrencyInfo",
              "type": "tuple"
            },
            {
              "components": [
                {
                  "internalType": "string",
                  "name": "name",
                  "type": "string"
                },
                {
                  "internalType": "string",
                  "name": "data",
                  "type": "string"
                },
                {
                  "internalType": "uint256",
                  "name": "lastModified",
                  "type": "uint256"
                }
              ],
              "internalType": "struct DocumentHepler.Document[]",
              "name": "documents",
              "type": "tuple[]"
            }
          ],
          "internalType": "struct MarketHelper.CrowdsaleInfo",
          "name": "",
          "type": "tuple"
        }
      ],
      "stateMutability": "view",
      "type": "function"
    },
    {
      "inputs": [
        {
          "internalType": "address",
          "name": "_document",
          "type": "address"
        }
      ],
      "name": "getDocuments",
      "outputs": [
        {
          "components": [
            {
              "internalType": "string",
              "name": "name",
              "type": "string"
            },
            {
              "internalType": "string",
              "name": "data",
              "type": "string"
            },
            {
              "internalType": "uint256",
              "name": "lastModified",
              "type": "uint256"
            }
          ],
          "internalType": "struct DocumentHepler.Document[]",
          "name": "",
          "type": "tuple[]"
        }
      ],
      "stateMutability": "view",
      "type": "function"
    },
    {
      "inputs": [
        {
          "internalType": "address payable",
          "name": "_dutchAuction",
          "type": "address"
        }
      ],
      "name": "getDutchAuctionInfo",
      "outputs": [
        {
          "components": [
            {
              "internalType": "address",
              "name": "addr",
              "type": "address"
            },
            {
              "internalType": "address",
              "name": "paymentCurrency",
              "type": "address"
            },
            {
              "internalType": "uint64",
              "name": "startTime",
              "type": "uint64"
            },
            {
              "internalType": "uint64",
              "name": "endTime",
              "type": "uint64"
            },
            {
              "internalType": "uint128",
              "name": "totalTokens",
              "type": "uint128"
            },
            {
              "internalType": "uint128",
              "name": "startPrice",
              "type": "uint128"
            },
            {
              "internalType": "uint128",
              "name": "minimumPrice",
              "type": "uint128"
            },
            {
              "internalType": "uint128",
              "name": "commitmentsTotal",
              "type": "uint128"
            },
            {
              "internalType": "bool",
              "name": "finalized",
              "type": "bool"
            },
            {
              "internalType": "bool",
              "name": "usePointList",
              "type": "bool"
            },
            {
              "internalType": "bool",
              "name": "auctionSuccessful",
              "type": "bool"
            },
            {
              "components": [
                {
                  "internalType": "address",
                  "name": "addr",
                  "type": "address"
                },
                {
                  "internalType": "uint256",
                  "name": "decimals",
                  "type": "uint256"
                },
                {
                  "internalType": "string",
                  "name": "name",
                  "type": "string"
                },
                {
                  "internalType": "string",
                  "name": "symbol",
                  "type": "string"
                }
              ],
              "internalType": "struct TokenHelper.TokenInfo",
              "name": "tokenInfo",
              "type": "tuple"
            },
            {
              "components": [
                {
                  "internalType": "address",
                  "name": "addr",
                  "type": "address"
                },
                {
                  "internalType": "uint256",
                  "name": "decimals",
                  "type": "uint256"
                },
                {
                  "internalType": "string",
                  "name": "name",
                  "type": "string"
                },
                {
                  "internalType": "string",
                  "name": "symbol",
                  "type": "string"
                }
              ],
              "internalType": "struct TokenHelper.TokenInfo",
              "name": "paymentCurrencyInfo",
              "type": "tuple"
            },
            {
              "components": [
                {
                  "internalType": "string",
                  "name": "name",
                  "type": "string"
                },
                {
                  "internalType": "string",
                  "name": "data",
                  "type": "string"
                },
                {
                  "internalType": "uint256",
                  "name": "lastModified",
                  "type": "uint256"
                }
              ],
              "internalType": "struct DocumentHepler.Document[]",
              "name": "documents",
              "type": "tuple[]"
            }
          ],
          "internalType": "struct MarketHelper.DutchAuctionInfo",
          "name": "",
          "type": "tuple"
        }
      ],
      "stateMutability": "view",
      "type": "function"
    },
    {
      "inputs": [
        {
          "internalType": "address payable",
          "name": "_hyperbolicAuction",
          "type": "address"
        }
      ],
      "name": "getHyperbolicAuctionInfo",
      "outputs": [
        {
          "components": [
            {
              "internalType": "address",
              "name": "addr",
              "type": "address"
            },
            {
              "internalType": "address",
              "name": "paymentCurrency",
              "type": "address"
            },
            {
              "internalType": "uint64",
              "name": "startTime",
              "type": "uint64"
            },
            {
              "internalType": "uint64",
              "name": "endTime",
              "type": "uint64"
            },
            {
              "internalType": "uint128",
              "name": "totalTokens",
              "type": "uint128"
            },
            {
              "internalType": "uint128",
              "name": "minimumPrice",
              "type": "uint128"
            },
            {
              "internalType": "uint128",
              "name": "alpha",
              "type": "uint128"
            },
            {
              "internalType": "uint128",
              "name": "commitmentsTotal",
              "type": "uint128"
            },
            {
              "internalType": "bool",
              "name": "finalized",
              "type": "bool"
            },
            {
              "internalType": "bool",
              "name": "usePointList",
              "type": "bool"
            },
            {
              "internalType": "bool",
              "name": "auctionSuccessful",
              "type": "bool"
            },
            {
              "components": [
                {
                  "internalType": "address",
                  "name": "addr",
                  "type": "address"
                },
                {
                  "internalType": "uint256",
                  "name": "decimals",
                  "type": "uint256"
                },
                {
                  "internalType": "string",
                  "name": "name",
                  "type": "string"
                },
                {
                  "internalType": "string",
                  "name": "symbol",
                  "type": "string"
                }
              ],
              "internalType": "struct TokenHelper.TokenInfo",
              "name": "tokenInfo",
              "type": "tuple"
            },
            {
              "components": [
                {
                  "internalType": "address",
                  "name": "addr",
                  "type": "address"
                },
                {
                  "internalType": "uint256",
                  "name": "decimals",
                  "type": "uint256"
                },
                {
                  "internalType": "string",
                  "name": "name",
                  "type": "string"
                },
                {
                  "internalType": "string",
                  "name": "symbol",
                  "type": "string"
                }
              ],
              "internalType": "struct TokenHelper.TokenInfo",
              "name": "paymentCurrencyInfo",
              "type": "tuple"
            },
            {
              "components": [
                {
                  "internalType": "string",
                  "name": "name",
                  "type": "string"
                },
                {
                  "internalType": "string",
                  "name": "data",
                  "type": "string"
                },
                {
                  "internalType": "uint256",
                  "name": "lastModified",
                  "type": "uint256"
                }
              ],
              "internalType": "struct DocumentHepler.Document[]",
              "name": "documents",
              "type": "tuple[]"
            }
          ],
          "internalType": "struct MarketHelper.HyperbolicAuctionInfo",
          "name": "",
          "type": "tuple"
        }
      ],
      "stateMutability": "view",
      "type": "function"
    },
    {
      "inputs": [
        {
          "internalType": "uint256",
          "name": "pageSize",
          "type": "uint256"
        },
        {
          "internalType": "uint256",
          "name": "pageNbr",
          "type": "uint256"
        },
        {
          "internalType": "uint256",
          "name": "offset",
          "type": "uint256"
        }
      ],
      "name": "getMarkets",
      "outputs": [
        {
          "components": [
            {
              "internalType": "address",
              "name": "addr",
              "type": "address"
            },
            {
              "internalType": "uint64",
              "name": "templateId",
              "type": "uint64"
            },
            {
              "internalType": "uint64",
              "name": "startTime",
              "type": "uint64"
            },
            {
              "internalType": "uint64",
              "name": "endTime",
              "type": "uint64"
            },
            {
              "internalType": "bool",
              "name": "finalized",
              "type": "bool"
            },
            {
              "components": [
                {
                  "internalType": "address",
                  "name": "addr",
                  "type": "address"
                },
                {
                  "internalType": "uint256",
                  "name": "decimals",
                  "type": "uint256"
                },
                {
                  "internalType": "string",
                  "name": "name",
                  "type": "string"
                },
                {
                  "internalType": "string",
                  "name": "symbol",
                  "type": "string"
                }
              ],
              "internalType": "struct TokenHelper.TokenInfo",
              "name": "tokenInfo",
              "type": "tuple"
            }
          ],
          "internalType": "struct MarketHelper.MarketBaseInfo[]",
          "name": "",
          "type": "tuple[]"
        }
      ],
      "stateMutability": "view",
      "type": "function"
    },
    {
      "inputs": [
        {
          "internalType": "uint256",
          "name": "pageSize",
          "type": "uint256"
        },
        {
          "internalType": "uint256",
          "name": "pageNbr",
          "type": "uint256"
        }
      ],
      "name": "getMarkets",
      "outputs": [
        {
          "components": [
            {
              "internalType": "address",
              "name": "addr",
              "type": "address"
            },
            {
              "internalType": "uint64",
              "name": "templateId",
              "type": "uint64"
            },
            {
              "internalType": "uint64",
              "name": "startTime",
              "type": "uint64"
            },
            {
              "internalType": "uint64",
              "name": "endTime",
              "type": "uint64"
            },
            {
              "internalType": "bool",
              "name": "finalized",
              "type": "bool"
            },
            {
              "components": [
                {
                  "internalType": "address",
                  "name": "addr",
                  "type": "address"
                },
                {
                  "internalType": "uint256",
                  "name": "decimals",
                  "type": "uint256"
                },
                {
                  "internalType": "string",
                  "name": "name",
                  "type": "string"
                },
                {
                  "internalType": "string",
                  "name": "symbol",
                  "type": "string"
                }
              ],
              "internalType": "struct TokenHelper.TokenInfo",
              "name": "tokenInfo",
              "type": "tuple"
            }
          ],
          "internalType": "struct MarketHelper.MarketBaseInfo[]",
          "name": "",
          "type": "tuple[]"
        }
      ],
      "stateMutability": "view",
      "type": "function"
    },
    {
      "inputs": [],
      "name": "getMarkets",
      "outputs": [
        {
          "components": [
            {
              "internalType": "address",
              "name": "addr",
              "type": "address"
            },
            {
              "internalType": "uint64",
              "name": "templateId",
              "type": "uint64"
            },
            {
              "internalType": "uint64",
              "name": "startTime",
              "type": "uint64"
            },
            {
              "internalType": "uint64",
              "name": "endTime",
              "type": "uint64"
            },
            {
              "internalType": "bool",
              "name": "finalized",
              "type": "bool"
            },
            {
              "components": [
                {
                  "internalType": "address",
                  "name": "addr",
                  "type": "address"
                },
                {
                  "internalType": "uint256",
                  "name": "decimals",
                  "type": "uint256"
                },
                {
                  "internalType": "string",
                  "name": "name",
                  "type": "string"
                },
                {
                  "internalType": "string",
                  "name": "symbol",
                  "type": "string"
                }
              ],
              "internalType": "struct TokenHelper.TokenInfo",
              "name": "tokenInfo",
              "type": "tuple"
            }
          ],
          "internalType": "struct MarketHelper.MarketBaseInfo[]",
          "name": "",
          "type": "tuple[]"
        }
      ],
      "stateMutability": "view",
      "type": "function"
    },
    {
      "inputs": [
        {
          "internalType": "address",
          "name": "_address",
          "type": "address"
        }
      ],
      "name": "getTokenInfo",
      "outputs": [
        {
          "components": [
            {
              "internalType": "address",
              "name": "addr",
              "type": "address"
            },
            {
              "internalType": "uint256",
              "name": "decimals",
              "type": "uint256"
            },
            {
              "internalType": "string",
              "name": "name",
              "type": "string"
            },
            {
              "internalType": "string",
              "name": "symbol",
              "type": "string"
            }
          ],
          "internalType": "struct TokenHelper.TokenInfo",
          "name": "",
          "type": "tuple"
        }
      ],
      "stateMutability": "view",
      "type": "function"
    },
    {
      "inputs": [
        {
          "internalType": "address[]",
          "name": "addresses",
          "type": "address[]"
        }
      ],
      "name": "getTokensInfo",
      "outputs": [
        {
          "components": [
            {
              "internalType": "address",
              "name": "addr",
              "type": "address"
            },
            {
              "internalType": "uint256",
              "name": "decimals",
              "type": "uint256"
            },
            {
              "internalType": "string",
              "name": "name",
              "type": "string"
            },
            {
              "internalType": "string",
              "name": "symbol",
              "type": "string"
            }
          ],
          "internalType": "struct TokenHelper.TokenInfo[]",
          "name": "",
          "type": "tuple[]"
        }
      ],
      "stateMutability": "view",
      "type": "function"
    },
    {
      "inputs": [
        {
          "internalType": "address",
          "name": "_action",
          "type": "address"
        },
        {
          "internalType": "address",
          "name": "_user",
          "type": "address"
        }
      ],
      "name": "getUserMarketInfo",
      "outputs": [
        {
          "components": [
            {
              "internalType": "uint256",
              "name": "commitments",
              "type": "uint256"
            },
            {
              "internalType": "uint256",
              "name": "tokensClaimable",
              "type": "uint256"
            },
            {
              "internalType": "uint256",
              "name": "claimed",
              "type": "uint256"
            },
            {
              "internalType": "bool",
              "name": "isAdmin",
              "type": "bool"
            }
          ],
          "internalType": "struct MarketHelper.UserMarketInfo",
          "name": "userInfo",
          "type": "tuple"
        }
      ],
      "stateMutability": "view",
      "type": "function"
    },
    {
      "inputs": [],
      "name": "launcher",
      "outputs": [
        {
          "internalType": "address",
          "name": "",
          "type": "address"
        }
      ],
      "stateMutability": "view",
      "type": "function"
    },
    {
      "inputs": [],
      "name": "market",
      "outputs": [
        {
          "internalType": "contract IVaporMarketFactory",
          "name": "",
          "type": "address"
        }
      ],
      "stateMutability": "view",
      "type": "function"
    },
    {
      "inputs": [
        {
          "internalType": "address",
          "name": "_tokenFactory",
          "type": "address"
        },
        {
          "internalType": "address",
          "name": "_market",
          "type": "address"
        },
        {
          "internalType": "address",
          "name": "_launcher",
          "type": "address"
        },
        {
          "internalType": "address",
          "name": "_farmFactory",
          "type": "address"
        }
      ],
      "name": "setContracts",
      "outputs": [],
      "stateMutability": "nonpayable",
      "type": "function"
    },
    {
      "inputs": [],
      "name": "tokenFactory",
      "outputs": [
        {
          "internalType": "contract IVaporTokenFactory",
          "name": "",
          "type": "address"
        }
      ],
      "stateMutability": "view",
      "type": "function"
    }
  ],
  "bytecode": "0x608060405234801561001057600080fd5b50612dd0806100206000396000f3fe608060405234801561001057600080fd5b50600436106101365760003560e01c80636306377d116100b257806380f5560511610081578063bf989b6e11610066578063bf989b6e14610304578063e77772fe14610319578063ec2c90161461032c57600080fd5b806380f55605146102d0578063927da105146102e357600080fd5b80636306377d1461013b5780636d25e17514610297578063748365ef146102aa57806380968d48146102bd57600080fd5b806327f50a2d1161010957806338d9893b116100ee57806338d9893b146102375780633c74720c1461025757806346a0fe471461027757600080fd5b806327f50a2d146101cf578063372cfb93146101ef57600080fd5b8063156ec6811461013b57806316eebd1e14610164578063193d13621461018f5780631f69565f146101af575b600080fd5b61014e610149366004612133565b610334565b60405161015b9190612c46565b60405180910390f35b600354610177906001600160a01b031681565b6040516001600160a01b03909116815260200161015b565b6101a261019d366004612133565b610716565b60405161015b91906129e0565b6101c26101bd366004612133565b610a31565b60405161015b9190612c59565b6101e26101dd366004612133565b610c38565b60405161015b9190612830565b6102026101fd36600461216b565b610f1c565b60405161015b919081518152602080830151908201526040808301519082015260609182015115159181019190915260800190565b61024a610245366004612539565b611197565b60405161015b91906128c0565b61026a610265366004612133565b611427565b60405161015b9190612b08565b61028a61028536600461229d565b6116bd565b60405161015b919061296c565b600254610177906001600160a01b031681565b600454610177906001600160a01b031681565b61024a6102cb3660046124ec565b6117d2565b600054610177906001600160a01b031681565b6102f66102f13660046121a3565b6117e0565b60405190815260200161015b565b6103176103123660046121ed565b611886565b005b600154610177906001600160a01b031681565b61024a611a78565b61033c611ecd565b81610345611ecd565b6001600160a01b0382168082526040805162018df760e91b8152905163031bee0091600480820192606092909190829003018186803b15801561038757600080fd5b505afa15801561039b573d6000803e3d6000fd5b505050506040513d601f19601f820116820180604052508101906103bf919061257e565b6001600160801b0316608084015267ffffffffffffffff90811660608401521660408083019190915280516308b42a7160e31b815281516001600160a01b038516926345a153889260048082019391829003018186803b15801561042257600080fd5b505afa158015610436573d6000803e3d6000fd5b505050506040513d601f19601f8201168201806040525081019061045a91906124a2565b6001600160801b0390811660c08401521660a0820152604080516336d0054b60e01b815290516001600160a01b038416916336d0054b916004808301926020929190829003018186803b1580156104b057600080fd5b505afa1580156104c4573d6000803e3d6000fd5b505050506040513d601f19601f820116820180604052508101906104e891906123ce565b15156101408201526040805163e0e081d760e01b815290516001600160a01b0384169163e0e081d7916004808301926060929190829003018186803b15801561053057600080fd5b505afa158015610544573d6000803e3d6000fd5b505050506040513d601f19601f820116820180604052508101906105689190612460565b151561012084015215156101008301526001600160801b031660e0820152604080516304cfed9960e51b81529051610603916001600160a01b038516916399fdb32091600480820192602092909190829003018186803b1580156105cb57600080fd5b505afa1580156105df573d6000803e3d6000fd5b505050506040513d601f19601f820116820180604052508101906101bd919061214f565b8161016001819052506000826001600160a01b0316633d15cc6d6040518163ffffffff1660e01b815260040160206040518083038186803b15801561064757600080fd5b505afa15801561065b573d6000803e3d6000fd5b505050506040513d601f19601f8201168201806040525081019061067f919061214f565b90506106b5604051806080016040528060006001600160a01b031681526020016000815260200160608152602001606081525090565b6001600160a01b03821673eeeeeeeeeeeeeeeeeeeeeeeeeeeeeeeeeeeeeeee14156106e9576106e2611c47565b90506106f5565b6106f282610a31565b90505b610180830181905261070686610c38565b6101a08401525090949350505050565b61071e611f91565b81610727611f91565b6001600160a01b0382168082526040805162018df760e91b8152905163031bee0091600480820192606092909190829003018186803b15801561076957600080fd5b505afa15801561077d573d6000803e3d6000fd5b505050506040513d601f19601f820116820180604052508101906107a1919061257e565b6001600160801b0316608084015267ffffffffffffffff90811660608401521660408083019190915280516336d0054b60e01b815290516001600160a01b038416916336d0054b916004808301926020929190829003018186803b15801561080857600080fd5b505afa15801561081c573d6000803e3d6000fd5b505050506040513d601f19601f8201168201806040525081019061084091906123ce565b15156101208201526040805163e0e081d760e01b815290516001600160a01b0384169163e0e081d7916004808301926080929190829003018186803b15801561088857600080fd5b505afa15801561089c573d6000803e3d6000fd5b505050506040513d601f19601f820116820180604052508101906108c0919061250d565b1515610100850152151560e084015260c083015260a0820152604080516304cfed9960e51b8152905161091e916001600160a01b038516916399fdb32091600480820192602092909190829003018186803b1580156105cb57600080fd5b8161014001819052506000826001600160a01b0316633d15cc6d6040518163ffffffff1660e01b815260040160206040518083038186803b15801561096257600080fd5b505afa158015610976573d6000803e3d6000fd5b505050506040513d601f19601f8201168201806040525081019061099a919061214f565b90506109d0604051806080016040528060006001600160a01b031681526020016000815260200160608152602001606081525090565b6001600160a01b03821673eeeeeeeeeeeeeeeeeeeeeeeeeeeeeeeeeeeeeeee1415610a04576109fd611c47565b9050610a10565b610a0d82610a31565b90505b6101608301819052610a2186610c38565b6101808401525090949350505050565b610a65604051806080016040528060006001600160a01b031681526020016000815260200160608152602001606081525090565b610a99604051806080016040528060006001600160a01b031681526020016000815260200160608152602001606081525090565b6001600160a01b038316808252604080517f06fdde0300000000000000000000000000000000000000000000000000000000815290518592916306fdde03916004808301926000929190829003018186803b158015610af757600080fd5b505afa158015610b0b573d6000803e3d6000fd5b505050506040513d6000823e601f3d908101601f19168201604052610b3391908101906123e8565b8260400181905250806001600160a01b03166395d89b416040518163ffffffff1660e01b815260040160006040518083038186803b158015610b7457600080fd5b505afa158015610b88573d6000803e3d6000fd5b505050506040513d6000823e601f3d908101601f19168201604052610bb091908101906123e8565b8260600181905250806001600160a01b031663313ce5676040518163ffffffff1660e01b815260040160206040518083038186803b158015610bf157600080fd5b505afa158015610c05573d6000803e3d6000fd5b505050506040513d601f19601f82011682018060405250810190610c2991906125b7565b60ff1660208301525092915050565b606060008290506000816001600160a01b0316633d1c22736040518163ffffffff1660e01b815260040160206040518083038186803b158015610c7a57600080fd5b505afa158015610c8e573d6000803e3d6000fd5b505050506040513d601f19601f82011682018060405250810190610cb291906124d4565b905060008167ffffffffffffffff811115610cdd57634e487b7160e01b600052604160045260246000fd5b604051908082528060200260200182016040528015610d3257816020015b610d1f60405180606001604052806060815260200160608152602001600081525090565b815260200190600190039081610cfb5790505b50905060005b82811015610f13576040517fc6b547e6000000000000000000000000000000000000000000000000000000008152600481018290526000906001600160a01b0386169063c6b547e69060240160006040518083038186803b158015610d9c57600080fd5b505afa158015610db0573d6000803e3d6000fd5b505050506040513d6000823e601f3d908101601f19168201604052610dd891908101906123e8565b6040517f7ccb6a640000000000000000000000000000000000000000000000000000000081529091506001600160a01b03861690637ccb6a6490610e209084906004016129cd565b60006040518083038186803b158015610e3857600080fd5b505afa158015610e4c573d6000803e3d6000fd5b505050506040513d6000823e601f3d908101601f19168201604052610e74919081019061241b565b848481518110610e9457634e487b7160e01b600052603260045260246000fd5b6020026020010151602001858581518110610ebf57634e487b7160e01b600052603260045260246000fd5b602002602001015160400182815250829052505080838381518110610ef457634e487b7160e01b600052603260045260246000fd5b6020908102919091010151525080610f0b81612d3b565b915050610d38565b50949350505050565b610f4960405180608001604052806000815260200160008152602001600081526020016000151581525090565b6040517fe8fcf7230000000000000000000000000000000000000000000000000000000081526001600160a01b03838116600483015284919082169063e8fcf7239060240160206040518083038186803b158015610fa657600080fd5b505afa158015610fba573d6000803e3d6000fd5b505050506040513d601f19601f82011682018060405250810190610fde91906124d4565b82526040517f4dc80e150000000000000000000000000000000000000000000000000000000081526001600160a01b038481166004830152821690634dc80e159060240160206040518083038186803b15801561103a57600080fd5b505afa15801561104e573d6000803e3d6000fd5b505050506040513d601f19601f8201168201806040525081019061107291906124d4565b60208301526040517fc884ef830000000000000000000000000000000000000000000000000000000081526001600160a01b03848116600483015282169063c884ef839060240160206040518083038186803b1580156110d157600080fd5b505afa1580156110e5573d6000803e3d6000fd5b505050506040513d601f19601f8201168201806040525081019061110991906124d4565b6040838101919091525163c395fcb360e01b81526001600160a01b03848116600483015282169063c395fcb39060240160206040518083038186803b15801561115157600080fd5b505afa158015611165573d6000803e3d6000fd5b505050506040513d601f19601f8201168201806040525081019061118991906123ce565b151560608301525092915050565b60008054604080517f50d9d4720000000000000000000000000000000000000000000000000000000081529051606093926001600160a01b0316916350d9d472916004808301926020929190829003018186803b1580156111f757600080fd5b505afa15801561120b573d6000803e3d6000fd5b505050506040513d601f19601f8201168201806040525081019061122f91906124d4565b905060008361123e8787612cd9565b6112489190612cc1565b905060006112568783612cc1565b9050606083821115611266578391505b8282101561127957935061142092505050565b6112838383612cf8565b67ffffffffffffffff8111156112a957634e487b7160e01b600052604160045260246000fd5b60405190808252806020026020018201604052801561132e57816020015b61131b6040805160c08101825260008082526020808301829052828401829052606080840183905260808085018490528551908101865283815291820192909252928301819052828101529060a082015290565b8152602001906001900390816112c75790505b50905060005b8261133f8583612cc1565b101561141957600080546001600160a01b031663571a26a06113618785612cc1565b6040518263ffffffff1660e01b815260040161137f91815260200190565b60206040518083038186803b15801561139757600080fd5b505afa1580156113ab573d6000803e3d6000fd5b505050506040513d601f19601f820116820180604052508101906113cf919061214f565b90506113da81611d12565b8383815181106113fa57634e487b7160e01b600052603260045260246000fd5b602002602001018190525050808061141190612d3b565b915050611334565b5093505050505b9392505050565b61142f61200b565b8161143861200b565b6001600160a01b0382168082526040805163e0e081d760e01b8152905163e0e081d791600480820192606092909190829003018186803b15801561147b57600080fd5b505afa15801561148f573d6000803e3d6000fd5b505050506040513d601f19601f820116820180604052508101906114b39190612460565b151561012084015215156101008301526001600160801b0316604080830191909152805162018df760e91b815290516001600160a01b0384169163031bee00916004808301926060929190829003018186803b15801561151257600080fd5b505afa158015611526573d6000803e3d6000fd5b505050506040513d601f19601f8201168201806040525081019061154a919061257e565b6001600160801b0316606084015267ffffffffffffffff90811660e08401521660c0820152604080516308b42a7160e31b815281516001600160a01b038516926345a153889260048082019391829003018186803b1580156115ab57600080fd5b505afa1580156115bf573d6000803e3d6000fd5b505050506040513d601f19601f820116820180604052508101906115e391906124a2565b6001600160801b0390811660a0840152166080820152604080516336d0054b60e01b815290516001600160a01b038416916336d0054b916004808301926020929190829003018186803b15801561163957600080fd5b505afa15801561164d573d6000803e3d6000fd5b505050506040513d601f19601f8201168201806040525081019061167191906123ce565b81610140019015159081151581525050610603826001600160a01b03166399fdb3206040518163ffffffff1660e01b815260040160206040518083038186803b1580156105cb57600080fd5b60606000825167ffffffffffffffff8111156116e957634e487b7160e01b600052604160045260246000fd5b60405190808252806020026020018201604052801561174e57816020015b61173b604051806080016040528060006001600160a01b031681526020016000815260200160608152602001606081525090565b8152602001906001900390816117075790505b50905060005b83518110156117cb5761178d84828151811061178057634e487b7160e01b600052603260045260246000fd5b6020026020010151610a31565b8282815181106117ad57634e487b7160e01b600052603260045260246000fd5b602002602001018190525080806117c390612d3b565b915050611754565b5092915050565b606061142083836000611197565b6040517fdd62ed3e0000000000000000000000000000000000000000000000000000000081526001600160a01b03838116600483015282811660248301526000919085169063dd62ed3e9060440160206040518083038186803b15801561184657600080fd5b505afa15801561185a573d6000803e3d6000fd5b505050506040513d601f19601f8201168201806040525081019061187e91906124d4565b949350505050565b6004805460405163c395fcb360e01b815233928101929092526001600160a01b03169063c395fcb39060240160206040518083038186803b1580156118ca57600080fd5b505afa1580156118de573d6000803e3d6000fd5b505050506040513d601f19601f8201168201806040525081019061190291906123ce565b611992576040517f08c379a000000000000000000000000000000000000000000000000000000000815260206004820152602160248201527f5661706f7248656c7065723a2053656e646572206d7573742062652041646d6960448201527f6e00000000000000000000000000000000000000000000000000000000000000606482015260840160405180910390fd5b6001600160a01b038316156119ca576000805473ffffffffffffffffffffffffffffffffffffffff19166001600160a01b0385161790555b6001600160a01b03841615611a02576001805473ffffffffffffffffffffffffffffffffffffffff19166001600160a01b0386161790555b6001600160a01b03821615611a3a576003805473ffffffffffffffffffffffffffffffffffffffff19166001600160a01b0384161790555b6001600160a01b03811615611a72576002805473ffffffffffffffffffffffffffffffffffffffff19166001600160a01b0383161790555b50505050565b60008054604080517fec2c90160000000000000000000000000000000000000000000000000000000081529051606093926001600160a01b03169163ec2c90169160048083019286929190829003018186803b158015611ad757600080fd5b505afa158015611aeb573d6000803e3d6000fd5b505050506040513d6000823e601f3d908101601f19168201604052611b13919081019061233e565b90506000815167ffffffffffffffff811115611b3f57634e487b7160e01b600052604160045260246000fd5b604051908082528060200260200182016040528015611bc457816020015b611bb16040805160c08101825260008082526020808301829052828401829052606080840183905260808085018490528551908101865283815291820192909252928301819052828101529060a082015290565b815260200190600190039081611b5d5790505b50905060005b82518110156117cb576000611c05848381518110611bf857634e487b7160e01b600052603260045260246000fd5b6020026020010151611d12565b905080838381518110611c2857634e487b7160e01b600052603260045260246000fd5b6020026020010181905250508080611c3f90612d3b565b915050611bca565b611c7b604051806080016040528060006001600160a01b031681526020016000815260200160608152602001606081525090565b73eeeeeeeeeeeeeeeeeeeeeeeeeeeeeeeeeeeeeeee8152604080518082018252600881527f455448455245554d000000000000000000000000000000000000000000000000602080830191909152828401919091528151808301909252600382527f455448000000000000000000000000000000000000000000000000000000000082820152606083019190915260129082015290565b611d666040805160c08101825260008082526020808301829052828401829052606080840183905260808085018490528551908101865283815291820192909252928301819052828101529060a082015290565b600080546040517fb03434930000000000000000000000000000000000000000000000000000000081526001600160a01b0385811660048301529091169063b03434939060240160206040518083038186803b158015611dc557600080fd5b505afa158015611dd9573d6000803e3d6000fd5b505050506040513d601f19601f82011682018060405250810190611dfd9190612564565b9050600080600080866001600160a01b031663314148e26040518163ffffffff1660e01b815260040160806040518083038186803b158015611e3e57600080fd5b505afa158015611e52573d6000803e3d6000fd5b505050506040513d601f19601f82011682018060405250810190611e769190612248565b929650909450925090506000611e8b85610a31565b6001600160a01b0390981687525067ffffffffffffffff948516602087015291841660408601529092166060840152501515608082015260a081019190915290565b604080516101c081018252600080825260208083018290528284018290526060808401839052608080850184905260a0850184905260c0850184905260e08501849052610100850184905261012085018490526101408501849052855190810186528381529182019290925292830181905282810152906101608201905b8152602001611f84604051806080016040528060006001600160a01b031681526020016000815260200160608152602001606081525090565b8152602001606081525090565b604080516101a081018252600080825260208083018290528284018290526060808401839052608080850184905260a0850184905260c0850184905260e085018490526101008501849052610120850184905285519081018652838152918201929092529283018190528281015290610140820190611f4b565b604080516101c081018252600080825260208083018290528284018290526060808401839052608080850184905260a0850184905260c0850184905260e0850184905261010085018490526101208501849052610140850184905285519081018652838152918201929092529283018190528281015290610160820190611f4b565b8051801515811461209d57600080fd5b919050565b600082601f8301126120b2578081fd5b815167ffffffffffffffff8111156120cc576120cc612d6c565b6120df601f8201601f1916602001612c6c565b8181528460208386010111156120f3578283fd5b61187e826020830160208701612d0f565b80516001600160801b038116811461209d57600080fd5b805167ffffffffffffffff8116811461209d57600080fd5b600060208284031215612144578081fd5b813561142081612d82565b600060208284031215612160578081fd5b815161142081612d82565b6000806040838503121561217d578081fd5b823561218881612d82565b9150602083013561219881612d82565b809150509250929050565b6000806000606084860312156121b7578081fd5b83356121c281612d82565b925060208401356121d281612d82565b915060408401356121e281612d82565b809150509250925092565b60008060008060808587031215612202578081fd5b843561220d81612d82565b9350602085013561221d81612d82565b9250604085013561222d81612d82565b9150606085013561223d81612d82565b939692955090935050565b6000806000806080858703121561225d578384fd5b845161226881612d82565b93506122766020860161211b565b92506122846040860161211b565b91506122926060860161208d565b905092959194509250565b600060208083850312156122af578182fd5b823567ffffffffffffffff8111156122c5578283fd5b8301601f810185136122d5578283fd5b80356122e86122e382612c9d565b612c6c565b80828252848201915084840188868560051b8701011115612307578687fd5b8694505b8385101561233257803561231e81612d82565b83526001949094019391850191850161230b565b50979650505050505050565b60006020808385031215612350578182fd5b825167ffffffffffffffff811115612366578283fd5b8301601f81018513612376578283fd5b80516123846122e382612c9d565b80828252848201915084840188868560051b87010111156123a3578687fd5b8694505b838510156123325780516123ba81612d82565b8352600194909401939185019185016123a7565b6000602082840312156123df578081fd5b6114208261208d565b6000602082840312156123f9578081fd5b815167ffffffffffffffff81111561240f578182fd5b61187e848285016120a2565b6000806040838503121561242d578182fd5b825167ffffffffffffffff811115612443578283fd5b61244f858286016120a2565b925050602083015190509250929050565b600080600060608486031215612474578081fd5b61247d84612104565b925061248b6020850161208d565b91506124996040850161208d565b90509250925092565b600080604083850312156124b4578182fd5b6124bd83612104565b91506124cb60208401612104565b90509250929050565b6000602082840312156124e5578081fd5b5051919050565b600080604083850312156124fe578182fd5b50508035926020909101359150565b60008060008060808587031215612522578182fd5b84519350602085015192506122846040860161208d565b60008060006060848603121561254d578081fd5b505081359360208301359350604090920135919050565b600060208284031215612575578081fd5b6114208261211b565b600080600060608486031215612592578081fd5b61259b8461211b565b92506125a96020850161211b565b915061249960408501612104565b6000602082840312156125c8578081fd5b815160ff81168114611420578182fd5b600081518084526020808501808196508360051b81019150828601855b858110156126505782840389528151606081518187526126178288018261265d565b915050868201518682038888015261262f828261265d565b604093840151979093019690965250988501989350908401906001016125f5565b5091979650505050505050565b60008151808452612675816020860160208601612d0f565b601f01601f19169290920160200192915050565b80516001600160a01b0316825260006101c060208301516126b560208601826001600160a01b03169052565b5060408301516126d1604086018267ffffffffffffffff169052565b5060608301516126ed606086018267ffffffffffffffff169052565b50608083015161270860808601826001600160801b03169052565b5060a083015161272360a08601826001600160801b03169052565b5060c083015161273e60c08601826001600160801b03169052565b5060e083015161275960e08601826001600160801b03169052565b506101008381015115159085015261012080840151151590850152610140808401511515908501526101608084015181860183905261279a838701826127dc565b9250505061018080840151858303828701526127b683826127dc565b925050506101a080840151858303828701526127d283826125d8565b9695505050505050565b6001600160a01b03815116825260208101516020830152600060408201516080604085015261280e608085018261265d565b905060608301518482036060860152612827828261265d565b95945050505050565b60006020808301818452808551808352604092508286019150828160051b870101848801865b838110156128b257603f1989840301855281516060815181865261287c8287018261265d565b915050888201518582038a870152612894828261265d565b92890151958901959095525094870194925090860190600101612856565b509098975050505050505050565b60006020808301818452808551808352604092508286019150828160051b870101848801865b838110156128b257888303603f19018552815180516001600160a01b031684528781015167ffffffffffffffff90811689860152878201518116888601526060808301519091169085015260808082015115159085015260a09081015160c091850182905290612958818601836127dc565b9689019694505050908601906001016128e6565b6000602080830181845280855180835260408601915060408160051b8701019250838701855b828110156129c057603f198886030184526129ae8583516127dc565b94509285019290850190600101612992565b5092979650505050505050565b602081526000611420602083018461265d565b602081526129fa6020820183516001600160a01b03169052565b60006020830151612a1660408401826001600160a01b03169052565b50604083015167ffffffffffffffff8116606084015250606083015167ffffffffffffffff811660808401525060808301516001600160801b03811660a08401525060a083015160c083015260c083015160e083015260e0830151610100612a818185018315159052565b8401519050610120612a968482018315159052565b8401519050610140612aab8482018315159052565b808501519150506101a06101608181860152612acb6101c08601846127dc565b9250808601519050601f19610180818786030181880152612aec85846127dc565b9088015187820390920184880152935090506127d283826125d8565b60208152612b226020820183516001600160a01b03169052565b60006020830151612b3e60408401826001600160a01b03169052565b5060408301516001600160801b03811660608401525060608301516001600160801b03811660808401525060808301516001600160801b03811660a08401525060a08301516001600160801b03811660c08401525060c083015167ffffffffffffffff811660e08401525060e0830151610100612bc68185018367ffffffffffffffff169052565b8401519050610120612bdb8482018315159052565b8401519050610140612bf08482018315159052565b8401519050610160612c058482018315159052565b808501519150506101c06101808181860152612c256101e08601846127dc565b9250808601519050601f196101a0818786030181880152612aec85846127dc565b6020815260006114206020830184612689565b60208152600061142060208301846127dc565b604051601f8201601f1916810167ffffffffffffffff81118282101715612c9557612c95612d6c565b604052919050565b600067ffffffffffffffff821115612cb757612cb7612d6c565b5060051b60200190565b60008219821115612cd457612cd4612d56565b500190565b6000816000190483118215151615612cf357612cf3612d56565b500290565b600082821015612d0a57612d0a612d56565b500390565b60005b83811015612d2a578181015183820152602001612d12565b83811115611a725750506000910152565b6000600019821415612d4f57612d4f612d56565b5060010190565b634e487b7160e01b600052601160045260246000fd5b634e487b7160e01b600052604160045260246000fd5b6001600160a01b0381168114612d9757600080fd5b5056fea26469706673582212209d3955c8da112eeb972fb07aa53955e243d98dd7d309313b38e4df82c8a77e7e64736f6c63430008040033",
  "linkReferences": {},
  "deployedLinkReferences": {}
}