{
  "_format": "hh-sol-artifact-1",
  "contractName": "TokenHelper",
  "sourceName": "contracts/Helper/VaporHelper.sol",
  "abi": [
    {
      "inputs": [
        {
          "internalType": "address",
          "name": "_token",
          "type": "address"
        },
        {
          "internalType": "address",
          "name": "_owner",
          "type": "address"
        },
        {
          "internalType": "address",
          "name": "_spender",
          "type": "address"
        }
      ],
      "name": "allowance",
      "outputs": [
        {
          "internalType": "uint256",
          "name": "",
          "type": "uint256"
        }
      ],
      "stateMutability": "view",
      "type": "function"
    },
    {
      "inputs": [
        {
          "internalType": "address",
          "name": "_address",
          "type": "address"
        }
      ],
      "name": "getTokenInfo",
      "outputs": [
        {
          "components": [
            {
              "internalType": "address",
              "name": "addr",
              "type": "address"
            },
            {
              "internalType": "uint256",
              "name": "decimals",
              "type": "uint256"
            },
            {
              "internalType": "string",
              "name": "name",
              "type": "string"
            },
            {
              "internalType": "string",
              "name": "symbol",
              "type": "string"
            }
          ],
          "internalType": "struct TokenHelper.TokenInfo",
          "name": "",
          "type": "tuple"
        }
      ],
      "stateMutability": "view",
      "type": "function"
    },
    {
      "inputs": [
        {
          "internalType": "address[]",
          "name": "addresses",
          "type": "address[]"
        }
      ],
      "name": "getTokensInfo",
      "outputs": [
        {
          "components": [
            {
              "internalType": "address",
              "name": "addr",
              "type": "address"
            },
            {
              "internalType": "uint256",
              "name": "decimals",
              "type": "uint256"
            },
            {
              "internalType": "string",
              "name": "name",
              "type": "string"
            },
            {
              "internalType": "string",
              "name": "symbol",
              "type": "string"
            }
          ],
          "internalType": "struct TokenHelper.TokenInfo[]",
          "name": "",
          "type": "tuple[]"
        }
      ],
      "stateMutability": "view",
      "type": "function"
    }
  ],
  "bytecode": "0x608060405234801561001057600080fd5b50610831806100206000396000f3fe608060405234801561001057600080fd5b50600436106100415760003560e01c80631f69565f1461004657806346a0fe471461006f578063927da1051461008f575b600080fd5b61005961005436600461048e565b6100b0565b604051610066919061074a565b60405180910390f35b61008261007d3660046104f1565b6102b7565b60405161006691906106e9565b6100a261009d3660046104af565b6103cc565b604051908152602001610066565b6100e4604051806080016040528060006001600160a01b031681526020016000815260200160608152602001606081525090565b610118604051806080016040528060006001600160a01b031681526020016000815260200160608152602001606081525090565b6001600160a01b038316808252604080517f06fdde0300000000000000000000000000000000000000000000000000000000815290518592916306fdde03916004808301926000929190829003018186803b15801561017657600080fd5b505afa15801561018a573d6000803e3d6000fd5b505050506040513d6000823e601f3d908101601f191682016040526101b291908101906105a0565b8260400181905250806001600160a01b03166395d89b416040518163ffffffff1660e01b815260040160006040518083038186803b1580156101f357600080fd5b505afa158015610207573d6000803e3d6000fd5b505050506040513d6000823e601f3d908101601f1916820160405261022f91908101906105a0565b8260600181905250806001600160a01b031663313ce5676040518163ffffffff1660e01b815260040160206040518083038186803b15801561027057600080fd5b505afa158015610284573d6000803e3d6000fd5b505050506040513d601f19601f820116820180604052508101906102a89190610648565b60ff1660208301525092915050565b60606000825167ffffffffffffffff8111156102e357634e487b7160e01b600052604160045260246000fd5b60405190808252806020026020018201604052801561034857816020015b610335604051806080016040528060006001600160a01b031681526020016000815260200160608152602001606081525090565b8152602001906001900390816103015790505b50905060005b83518110156103c55761038784828151811061037a57634e487b7160e01b600052603260045260246000fd5b60200260200101516100b0565b8282815181106103a757634e487b7160e01b600052603260045260246000fd5b602002602001018190525080806103bd906107be565b91505061034e565b5092915050565b6040517fdd62ed3e0000000000000000000000000000000000000000000000000000000081526001600160a01b03838116600483015282811660248301526000919085169063dd62ed3e9060440160206040518083038186803b15801561043257600080fd5b505afa158015610446573d6000803e3d6000fd5b505050506040513d601f19601f8201168201806040525081019061046a9190610630565b949350505050565b80356001600160a01b038116811461048957600080fd5b919050565b60006020828403121561049f578081fd5b6104a882610472565b9392505050565b6000806000606084860312156104c3578182fd5b6104cc84610472565b92506104da60208501610472565b91506104e860408501610472565b90509250925092565b60006020808385031215610503578182fd5b823567ffffffffffffffff8082111561051a578384fd5b818501915085601f83011261052d578384fd5b81358181111561053f5761053f6107e5565b8060051b915061055084830161075d565b8181528481019084860184860187018a101561056a578788fd5b8795505b838610156105935761057f81610472565b83526001959095019491860191860161056e565b5098975050505050505050565b6000602082840312156105b1578081fd5b815167ffffffffffffffff808211156105c8578283fd5b818401915084601f8301126105db578283fd5b8151818111156105ed576105ed6107e5565b610600601f8201601f191660200161075d565b9150808252856020828501011115610616578384fd5b61062781602084016020860161078e565b50949350505050565b600060208284031215610641578081fd5b5051919050565b600060208284031215610659578081fd5b815160ff811681146104a8578182fd5b6000815180845261068181602086016020860161078e565b601f01601f19169290920160200192915050565b6001600160a01b0381511682526020810151602083015260006040820151608060408501526106c76080850182610669565b9050606083015184820360608601526106e08282610669565b95945050505050565b6000602080830181845280855180835260408601915060408160051b8701019250838701855b8281101561073d57603f1988860301845261072b858351610695565b9450928501929085019060010161070f565b5092979650505050505050565b6020815260006104a86020830184610695565b604051601f8201601f1916810167ffffffffffffffff81118282101715610786576107866107e5565b604052919050565b60005b838110156107a9578181015183820152602001610791565b838111156107b8576000848401525b50505050565b60006000198214156107de57634e487b7160e01b81526011600452602481fd5b5060010190565b634e487b7160e01b600052604160045260246000fdfea264697066735822122081e96ec639e71ea6dcc380b96f94a7521e82dd476aac5f5ebf29614e03ffb79d64736f6c63430008040033",
  "linkReferences": {},
  "deployedLinkReferences": {}
}