{
  "_format": "hh-sol-artifact-1",
  "contractName": "VaporRecipe01",
  "sourceName": "contracts/Recipes/VaporRecipe01.sol",
  "abi": [
    {
      "inputs": [
        {
          "internalType": "address",
          "name": "_tokenFactory",
          "type": "address"
        },
        {
          "internalType": "address",
          "name": "_weth",
          "type": "address"
        },
        {
          "internalType": "address",
          "name": "_VaporMarket",
          "type": "address"
        },
        {
          "internalType": "address",
          "name": "_VaporLauncher",
          "type": "address"
        },
        {
          "internalType": "address",
          "name": "_uniswapFactory",
          "type": "address"
        },
        {
          "internalType": "address",
          "name": "_farmFactory",
          "type": "address"
        }
      ],
      "stateMutability": "nonpayable",
      "type": "constructor"
    },
    {
      "inputs": [],
      "name": "VaporLauncher",
      "outputs": [
        {
          "internalType": "contract IVaporLauncher",
          "name": "",
          "type": "address"
        }
      ],
      "stateMutability": "view",
      "type": "function"
    },
    {
      "inputs": [],
      "name": "VaporMarket",
      "outputs": [
        {
          "internalType": "contract IVaporMarket",
          "name": "",
          "type": "address"
        }
      ],
      "stateMutability": "view",
      "type": "function"
    },
    {
      "inputs": [],
      "name": "farmFactory",
      "outputs": [
        {
          "internalType": "contract IVaporFarmFactory",
          "name": "",
          "type": "address"
        }
      ],
      "stateMutability": "view",
      "type": "function"
    },
    {
      "inputs": [
        {
          "internalType": "string",
          "name": "_name",
          "type": "string"
        },
        {
          "internalType": "string",
          "name": "_symbol",
          "type": "string"
        },
        {
          "internalType": "address",
          "name": "accessControl",
          "type": "address"
        }
      ],
      "name": "prepareVapor",
      "outputs": [],
      "stateMutability": "payable",
      "type": "function"
    },
    {
      "inputs": [],
      "name": "tokenFactory",
      "outputs": [
        {
          "internalType": "contract IVaporTokenFactory",
          "name": "",
          "type": "address"
        }
      ],
      "stateMutability": "view",
      "type": "function"
    },
    {
      "inputs": [],
      "name": "uniswapFactory",
      "outputs": [
        {
          "internalType": "address",
          "name": "",
          "type": "address"
        }
      ],
      "stateMutability": "view",
      "type": "function"
    },
    {
      "inputs": [],
      "name": "weth",
      "outputs": [
        {
          "internalType": "contract IWETH",
          "name": "",
          "type": "address"
        }
      ],
      "stateMutability": "view",
      "type": "function"
    }
  ],
  "bytecode": "0x608060405234801561001057600080fd5b50604051610c6e380380610c6e83398101604081905261002f916100bd565b600080546001600160a01b03199081166001600160a01b0398891617909155600280548216968816969096179095556001805486169487169490941790935560038054851692861692909217909155600580548416918516919091179055600480549092169216919091179055610130565b80516001600160a01b03811681146100b857600080fd5b919050565b60008060008060008060c087890312156100d5578182fd5b6100de876100a1565b95506100ec602088016100a1565b94506100fa604088016100a1565b9350610108606088016100a1565b9250610116608088016100a1565b915061012460a088016100a1565b90509295509295509295565b610b2f8061013f6000396000f3fe6080604052600436106100705760003560e01c80636d25e1751161004e5780636d25e175146100f15780638bdb2afa146101115780638deb265e14610131578063e77772fe1461014657600080fd5b80630ea7e862146100755780631737a3ec146100b15780633fc8cef3146100d1575b600080fd5b34801561008157600080fd5b50600354610095906001600160a01b031681565b6040516001600160a01b03909116815260200160405180910390f35b3480156100bd57600080fd5b50600154610095906001600160a01b031681565b3480156100dd57600080fd5b50600254610095906001600160a01b031681565b3480156100fd57600080fd5b50600454610095906001600160a01b031681565b34801561011d57600080fd5b50600554610095906001600160a01b031681565b61014461013f366004610992565b610166565b005b34801561015257600080fd5b50600054610095906001600160a01b031681565b600080546040517f0795551d0000000000000000000000000000000000000000000000000000000081526103e89261012c9290916001600160a01b0390911690630795551d906101c7908b908b908b908b9060019033908c90600401610a54565b602060405180830381600087803b1580156101e157600080fd5b505af11580156101f5573d6000803e3d6000fd5b505050506040513d601f19601f82011682018060405250810190610219919061094f565b6001546040517f095ea7b30000000000000000000000000000000000000000000000000000000081526001600160a01b0391821660048201526024810185905291925082169063095ea7b390604401602060405180830381600087803b15801561028257600080fd5b505af1158015610296573d6000803e3d6000fd5b505050506040513d601f19601f820116820180604052508101906102ba9190610972565b506003546040517f2ed4f578000000000000000000000000000000000000000000000000000000008152600160048201526000916001600160a01b031690632ed4f57890602401602060405180830381600087803b15801561031b57600080fd5b505af115801561032f573d6000803e3d6000fd5b505050506040513d601f19601f820116820180604052508101906103539190610a13565b6003546040517f632cef90000000000000000000000000000000000000000000000000000000008152600481018390526001600160a01b03858116602483015260006044830181905233606484015260a0608484015260a483018190529394509091169063632cef909060c401602060405180830381600087803b1580156103da57600080fd5b505af11580156103ee573d6000803e3d6000fd5b505050506040513d601f19601f82011682018060405250810190610412919061094f565b6002546005546040517f785598510000000000000000000000000000000000000000000000000000000081526001600160a01b038a8116600483015287811660248301529283166044820152908216606482810191909152336084830181905260a4830181905260c860c4840181905260e48401839052603c6101048501819052959650909485946103e894859189169063785598519061012401600060405180830381600087803b1580156104c757600080fd5b505af11580156104db573d6000803e3d6000fd5b505060405163a9059cbb60e01b81526001600160a01b038b81166004830152602482018590528d16925063a9059cbb9150604401602060405180830381600087803b15801561052957600080fd5b505af115801561053d573d6000803e3d6000fd5b505050506040513d601f19601f820116820180604052508101906105619190610972565b505050505050505060004260056105789190610aa4565b90506000610587426064610aa4565b6001546040517f9baea4bf0000000000000000000000000000000000000000000000000000000081526001600160a01b038881166004830152602482018a905273eeeeeeeeeeeeeeeeeeeeeeeeeeeeeeeeeeeeeeee604483015260648281018790526084830185905260a4830181905260c860c4840181905288831660e4850152336101048501819052600261012486015295965090949093909260009290911690639baea4bf9061014401602060405180830381600087803b15801561064d57600080fd5b505af1158015610661573d6000803e3d6000fd5b505050506040513d601f19601f82011682018060405250810190610685919061094f565b5050600454339550600a9450600093506001600160a01b0316915063a4f81e4f90503488670de0b6b3a76400006106bc4388610aa4565b6040517fffffffff0000000000000000000000000000000000000000000000000000000060e087901b1681526001600160a01b039384166004820152602481019290925260448201528188166064820152908d166084820152600160a482015260c4016020604051808303818588803b15801561073857600080fd5b505af115801561074c573d6000803e3d6000fd5b50505050506040513d601f19601f82011682018060405250810190610771919061094f565b60405163a9059cbb60e01b81526001600160a01b038083166004830152602482018590529192509087169063a9059cbb90604401602060405180830381600087803b1580156107bf57600080fd5b505af11580156107d3573d6000803e3d6000fd5b505050506040513d601f19601f820116820180604052508101906107f79190610972565b506000600a90506000856001600160a01b031663c9e57aa66040518163ffffffff1660e01b815260040160206040518083038186803b15801561083957600080fd5b505afa15801561084d573d6000803e3d6000fd5b505050506040513d601f19601f82011682018060405250810190610871919061094f565b6040517fd69de7e7000000000000000000000000000000000000000000000000000000008152600481018490526001600160a01b038083166024830152600060448301529192509084169063d69de7e790606401600060405180830381600087803b1580156108df57600080fd5b505af11580156108f3573d6000803e3d6000fd5b50505050505050505050505050505050505050565b60008083601f840112610919578182fd5b50813567ffffffffffffffff811115610930578182fd5b60208301915083602082850101111561094857600080fd5b9250929050565b600060208284031215610960578081fd5b815161096b81610ae1565b9392505050565b600060208284031215610983578081fd5b8151801515811461096b578182fd5b6000806000806000606086880312156109a9578081fd5b853567ffffffffffffffff808211156109c0578283fd5b6109cc89838a01610908565b909750955060208801359150808211156109e4578283fd5b506109f188828901610908565b9094509250506040860135610a0581610ae1565b809150509295509295909350565b600060208284031215610a24578081fd5b5051919050565b81835281816020850137506000828201602090810191909152601f909101601f19169091010190565b60a081526000610a6860a08301898b610a2b565b8281036020840152610a7b81888a610a2b565b604084019690965250506001600160a01b03929092166060830152608090910152949350505050565b60008219821115610adc577f4e487b710000000000000000000000000000000000000000000000000000000081526011600452602481fd5b500190565b6001600160a01b0381168114610af657600080fd5b5056fea2646970667358221220f6bf6b4e6025406fda9900d70b742cd552c98c0bc35af286058cbf58d967655d64736f6c63430008040033",
  "linkReferences": {},
  "deployedLinkReferences": {}
}