{
  "_format": "hh-sol-artifact-1",
  "contractName": "Crowdsale",
  "sourceName": "contracts/Auctions/Crowdsale.sol",
  "abi": [
    {
      "anonymous": false,
      "inputs": [
        {
          "indexed": false,
          "internalType": "address",
          "name": "addr",
          "type": "address"
        },
        {
          "indexed": false,
          "internalType": "uint256",
          "name": "commitment",
          "type": "uint256"
        }
      ],
      "name": "AddedCommitment",
      "type": "event"
    },
    {
      "anonymous": false,
      "inputs": [
        {
          "indexed": true,
          "internalType": "address",
          "name": "beneficiary",
          "type": "address"
        },
        {
          "indexed": true,
          "internalType": "address",
          "name": "caller",
          "type": "address"
        }
      ],
      "name": "AdminRoleGranted",
      "type": "event"
    },
    {
      "anonymous": false,
      "inputs": [
        {
          "indexed": true,
          "internalType": "address",
          "name": "beneficiary",
          "type": "address"
        },
        {
          "indexed": true,
          "internalType": "address",
          "name": "caller",
          "type": "address"
        }
      ],
      "name": "AdminRoleRemoved",
      "type": "event"
    },
    {
      "anonymous": false,
      "inputs": [],
      "name": "AuctionCancelled",
      "type": "event"
    },
    {
      "anonymous": false,
      "inputs": [],
      "name": "AuctionFinalized",
      "type": "event"
    },
    {
      "anonymous": false,
      "inputs": [
        {
          "indexed": false,
          "internalType": "uint256",
          "name": "rate",
          "type": "uint256"
        },
        {
          "indexed": false,
          "internalType": "uint256",
          "name": "goal",
          "type": "uint256"
        }
      ],
      "name": "AuctionPriceUpdated",
      "type": "event"
    },
    {
      "anonymous": false,
      "inputs": [
        {
          "indexed": false,
          "internalType": "uint256",
          "name": "startTime",
          "type": "uint256"
        },
        {
          "indexed": false,
          "internalType": "uint256",
          "name": "endTime",
          "type": "uint256"
        }
      ],
      "name": "AuctionTimeUpdated",
      "type": "event"
    },
    {
      "anonymous": false,
      "inputs": [
        {
          "indexed": false,
          "internalType": "address",
          "name": "wallet",
          "type": "address"
        }
      ],
      "name": "AuctionWalletUpdated",
      "type": "event"
    },
    {
      "anonymous": false,
      "inputs": [
        {
          "indexed": true,
          "internalType": "string",
          "name": "_name",
          "type": "string"
        },
        {
          "indexed": false,
          "internalType": "string",
          "name": "_data",
          "type": "string"
        }
      ],
      "name": "DocumentRemoved",
      "type": "event"
    },
    {
      "anonymous": false,
      "inputs": [
        {
          "indexed": true,
          "internalType": "string",
          "name": "_name",
          "type": "string"
        },
        {
          "indexed": false,
          "internalType": "string",
          "name": "_data",
          "type": "string"
        }
      ],
      "name": "DocumentUpdated",
      "type": "event"
    },
    {
      "anonymous": false,
      "inputs": [
        {
          "indexed": true,
          "internalType": "address",
          "name": "beneficiary",
          "type": "address"
        },
        {
          "indexed": true,
          "internalType": "address",
          "name": "caller",
          "type": "address"
        }
      ],
      "name": "MinterRoleGranted",
      "type": "event"
    },
    {
      "anonymous": false,
      "inputs": [
        {
          "indexed": true,
          "internalType": "address",
          "name": "beneficiary",
          "type": "address"
        },
        {
          "indexed": true,
          "internalType": "address",
          "name": "caller",
          "type": "address"
        }
      ],
      "name": "MinterRoleRemoved",
      "type": "event"
    },
    {
      "anonymous": false,
      "inputs": [
        {
          "indexed": true,
          "internalType": "address",
          "name": "beneficiary",
          "type": "address"
        },
        {
          "indexed": true,
          "internalType": "address",
          "name": "caller",
          "type": "address"
        }
      ],
      "name": "OperatorRoleGranted",
      "type": "event"
    },
    {
      "anonymous": false,
      "inputs": [
        {
          "indexed": true,
          "internalType": "address",
          "name": "beneficiary",
          "type": "address"
        },
        {
          "indexed": true,
          "internalType": "address",
          "name": "caller",
          "type": "address"
        }
      ],
      "name": "OperatorRoleRemoved",
      "type": "event"
    },
    {
      "anonymous": false,
      "inputs": [
        {
          "indexed": true,
          "internalType": "bytes32",
          "name": "role",
          "type": "bytes32"
        },
        {
          "indexed": true,
          "internalType": "bytes32",
          "name": "previousAdminRole",
          "type": "bytes32"
        },
        {
          "indexed": true,
          "internalType": "bytes32",
          "name": "newAdminRole",
          "type": "bytes32"
        }
      ],
      "name": "RoleAdminChanged",
      "type": "event"
    },
    {
      "anonymous": false,
      "inputs": [
        {
          "indexed": true,
          "internalType": "bytes32",
          "name": "role",
          "type": "bytes32"
        },
        {
          "indexed": true,
          "internalType": "address",
          "name": "account",
          "type": "address"
        },
        {
          "indexed": true,
          "internalType": "address",
          "name": "sender",
          "type": "address"
        }
      ],
      "name": "RoleGranted",
      "type": "event"
    },
    {
      "anonymous": false,
      "inputs": [
        {
          "indexed": true,
          "internalType": "bytes32",
          "name": "role",
          "type": "bytes32"
        },
        {
          "indexed": true,
          "internalType": "address",
          "name": "account",
          "type": "address"
        },
        {
          "indexed": true,
          "internalType": "address",
          "name": "sender",
          "type": "address"
        }
      ],
      "name": "RoleRevoked",
      "type": "event"
    },
    {
      "anonymous": false,
      "inputs": [
        {
          "indexed": true,
          "internalType": "address",
          "name": "beneficiary",
          "type": "address"
        },
        {
          "indexed": true,
          "internalType": "address",
          "name": "caller",
          "type": "address"
        }
      ],
      "name": "SmartContractRoleGranted",
      "type": "event"
    },
    {
      "anonymous": false,
      "inputs": [
        {
          "indexed": true,
          "internalType": "address",
          "name": "beneficiary",
          "type": "address"
        },
        {
          "indexed": true,
          "internalType": "address",
          "name": "caller",
          "type": "address"
        }
      ],
      "name": "SmartContractRoleRemoved",
      "type": "event"
    },
    {
      "inputs": [],
      "name": "DEFAULT_ADMIN_ROLE",
      "outputs": [
        {
          "internalType": "bytes32",
          "name": "",
          "type": "bytes32"
        }
      ],
      "stateMutability": "view",
      "type": "function"
    },
    {
      "inputs": [],
      "name": "MINTER_ROLE",
      "outputs": [
        {
          "internalType": "bytes32",
          "name": "",
          "type": "bytes32"
        }
      ],
      "stateMutability": "view",
      "type": "function"
    },
    {
      "inputs": [],
      "name": "OPERATOR_ROLE",
      "outputs": [
        {
          "internalType": "bytes32",
          "name": "",
          "type": "bytes32"
        }
      ],
      "stateMutability": "view",
      "type": "function"
    },
    {
      "inputs": [],
      "name": "SMART_CONTRACT_ROLE",
      "outputs": [
        {
          "internalType": "bytes32",
          "name": "",
          "type": "bytes32"
        }
      ],
      "stateMutability": "view",
      "type": "function"
    },
    {
      "inputs": [
        {
          "internalType": "address",
          "name": "_address",
          "type": "address"
        }
      ],
      "name": "addAdminRole",
      "outputs": [],
      "stateMutability": "nonpayable",
      "type": "function"
    },
    {
      "inputs": [
        {
          "internalType": "address",
          "name": "_address",
          "type": "address"
        }
      ],
      "name": "addMinterRole",
      "outputs": [],
      "stateMutability": "nonpayable",
      "type": "function"
    },
    {
      "inputs": [
        {
          "internalType": "address",
          "name": "_address",
          "type": "address"
        }
      ],
      "name": "addOperatorRole",
      "outputs": [],
      "stateMutability": "nonpayable",
      "type": "function"
    },
    {
      "inputs": [
        {
          "internalType": "address",
          "name": "_address",
          "type": "address"
        }
      ],
      "name": "addSmartContractRole",
      "outputs": [],
      "stateMutability": "nonpayable",
      "type": "function"
    },
    {
      "inputs": [],
      "name": "auctionEnded",
      "outputs": [
        {
          "internalType": "bool",
          "name": "",
          "type": "bool"
        }
      ],
      "stateMutability": "view",
      "type": "function"
    },
    {
      "inputs": [],
      "name": "auctionSuccessful",
      "outputs": [
        {
          "internalType": "bool",
          "name": "",
          "type": "bool"
        }
      ],
      "stateMutability": "view",
      "type": "function"
    },
    {
      "inputs": [],
      "name": "auctionToken",
      "outputs": [
        {
          "internalType": "address",
          "name": "",
          "type": "address"
        }
      ],
      "stateMutability": "view",
      "type": "function"
    },
    {
      "inputs": [
        {
          "internalType": "uint256",
          "name": "_commitment",
          "type": "uint256"
        }
      ],
      "name": "calculateCommitment",
      "outputs": [
        {
          "internalType": "uint256",
          "name": "committed",
          "type": "uint256"
        }
      ],
      "stateMutability": "view",
      "type": "function"
    },
    {
      "inputs": [],
      "name": "cancelAuction",
      "outputs": [],
      "stateMutability": "nonpayable",
      "type": "function"
    },
    {
      "inputs": [
        {
          "internalType": "address",
          "name": "",
          "type": "address"
        }
      ],
      "name": "claimed",
      "outputs": [
        {
          "internalType": "uint256",
          "name": "",
          "type": "uint256"
        }
      ],
      "stateMutability": "view",
      "type": "function"
    },
    {
      "inputs": [
        {
          "internalType": "address payable",
          "name": "_beneficiary",
          "type": "address"
        },
        {
          "internalType": "bool",
          "name": "readAndAgreedToMarketParticipationAgreement",
          "type": "bool"
        }
      ],
      "name": "commitEth",
      "outputs": [],
      "stateMutability": "payable",
      "type": "function"
    },
    {
      "inputs": [
        {
          "internalType": "uint256",
          "name": "_amount",
          "type": "uint256"
        },
        {
          "internalType": "bool",
          "name": "readAndAgreedToMarketParticipationAgreement",
          "type": "bool"
        }
      ],
      "name": "commitTokens",
      "outputs": [],
      "stateMutability": "nonpayable",
      "type": "function"
    },
    {
      "inputs": [
        {
          "internalType": "address",
          "name": "_from",
          "type": "address"
        },
        {
          "internalType": "uint256",
          "name": "_amount",
          "type": "uint256"
        },
        {
          "internalType": "bool",
          "name": "readAndAgreedToMarketParticipationAgreement",
          "type": "bool"
        }
      ],
      "name": "commitTokensFrom",
      "outputs": [],
      "stateMutability": "nonpayable",
      "type": "function"
    },
    {
      "inputs": [
        {
          "internalType": "address",
          "name": "",
          "type": "address"
        }
      ],
      "name": "commitments",
      "outputs": [
        {
          "internalType": "uint256",
          "name": "",
          "type": "uint256"
        }
      ],
      "stateMutability": "view",
      "type": "function"
    },
    {
      "inputs": [
        {
          "internalType": "bool",
          "name": "_status",
          "type": "bool"
        }
      ],
      "name": "enableList",
      "outputs": [],
      "stateMutability": "nonpayable",
      "type": "function"
    },
    {
      "inputs": [],
      "name": "finalize",
      "outputs": [],
      "stateMutability": "nonpayable",
      "type": "function"
    },
    {
      "inputs": [],
      "name": "finalizeTimeExpired",
      "outputs": [
        {
          "internalType": "bool",
          "name": "",
          "type": "bool"
        }
      ],
      "stateMutability": "view",
      "type": "function"
    },
    {
      "inputs": [],
      "name": "finalized",
      "outputs": [
        {
          "internalType": "bool",
          "name": "",
          "type": "bool"
        }
      ],
      "stateMutability": "view",
      "type": "function"
    },
    {
      "inputs": [],
      "name": "getAllDocuments",
      "outputs": [
        {
          "internalType": "string[]",
          "name": "",
          "type": "string[]"
        }
      ],
      "stateMutability": "view",
      "type": "function"
    },
    {
      "inputs": [],
      "name": "getBaseInformation",
      "outputs": [
        {
          "internalType": "address",
          "name": "",
          "type": "address"
        },
        {
          "internalType": "uint64",
          "name": "",
          "type": "uint64"
        },
        {
          "internalType": "uint64",
          "name": "",
          "type": "uint64"
        },
        {
          "internalType": "bool",
          "name": "",
          "type": "bool"
        }
      ],
      "stateMutability": "view",
      "type": "function"
    },
    {
      "inputs": [
        {
          "internalType": "address",
          "name": "_funder",
          "type": "address"
        },
        {
          "internalType": "address",
          "name": "_token",
          "type": "address"
        },
        {
          "internalType": "address",
          "name": "_paymentCurrency",
          "type": "address"
        },
        {
          "internalType": "uint256",
          "name": "_totalTokens",
          "type": "uint256"
        },
        {
          "internalType": "uint256",
          "name": "_startTime",
          "type": "uint256"
        },
        {
          "internalType": "uint256",
          "name": "_endTime",
          "type": "uint256"
        },
        {
          "internalType": "uint256",
          "name": "_rate",
          "type": "uint256"
        },
        {
          "internalType": "uint256",
          "name": "_goal",
          "type": "uint256"
        },
        {
          "internalType": "address",
          "name": "_admin",
          "type": "address"
        },
        {
          "internalType": "address",
          "name": "_pointList",
          "type": "address"
        },
        {
          "internalType": "address payable",
          "name": "_wallet",
          "type": "address"
        }
      ],
      "name": "getCrowdsaleInitData",
      "outputs": [
        {
          "internalType": "bytes",
          "name": "_data",
          "type": "bytes"
        }
      ],
      "stateMutability": "pure",
      "type": "function"
    },
    {
      "inputs": [
        {
          "internalType": "string",
          "name": "_name",
          "type": "string"
        }
      ],
      "name": "getDocument",
      "outputs": [
        {
          "internalType": "string",
          "name": "",
          "type": "string"
        },
        {
          "internalType": "uint256",
          "name": "",
          "type": "uint256"
        }
      ],
      "stateMutability": "view",
      "type": "function"
    },
    {
      "inputs": [],
      "name": "getDocumentCount",
      "outputs": [
        {
          "internalType": "uint256",
          "name": "",
          "type": "uint256"
        }
      ],
      "stateMutability": "view",
      "type": "function"
    },
    {
      "inputs": [
        {
          "internalType": "uint256",
          "name": "_index",
          "type": "uint256"
        }
      ],
      "name": "getDocumentName",
      "outputs": [
        {
          "internalType": "string",
          "name": "",
          "type": "string"
        }
      ],
      "stateMutability": "view",
      "type": "function"
    },
    {
      "inputs": [
        {
          "internalType": "bytes32",
          "name": "role",
          "type": "bytes32"
        }
      ],
      "name": "getRoleAdmin",
      "outputs": [
        {
          "internalType": "bytes32",
          "name": "",
          "type": "bytes32"
        }
      ],
      "stateMutability": "view",
      "type": "function"
    },
    {
      "inputs": [
        {
          "internalType": "bytes32",
          "name": "role",
          "type": "bytes32"
        },
        {
          "internalType": "uint256",
          "name": "index",
          "type": "uint256"
        }
      ],
      "name": "getRoleMember",
      "outputs": [
        {
          "internalType": "address",
          "name": "",
          "type": "address"
        }
      ],
      "stateMutability": "view",
      "type": "function"
    },
    {
      "inputs": [
        {
          "internalType": "bytes32",
          "name": "role",
          "type": "bytes32"
        }
      ],
      "name": "getRoleMemberCount",
      "outputs": [
        {
          "internalType": "uint256",
          "name": "",
          "type": "uint256"
        }
      ],
      "stateMutability": "view",
      "type": "function"
    },
    {
      "inputs": [
        {
          "internalType": "uint256",
          "name": "_amount",
          "type": "uint256"
        }
      ],
      "name": "getTokenAmount",
      "outputs": [
        {
          "internalType": "uint256",
          "name": "",
          "type": "uint256"
        }
      ],
      "stateMutability": "view",
      "type": "function"
    },
    {
      "inputs": [],
      "name": "getTotalTokens",
      "outputs": [
        {
          "internalType": "uint256",
          "name": "",
          "type": "uint256"
        }
      ],
      "stateMutability": "view",
      "type": "function"
    },
    {
      "inputs": [
        {
          "internalType": "bytes32",
          "name": "role",
          "type": "bytes32"
        },
        {
          "internalType": "address",
          "name": "account",
          "type": "address"
        }
      ],
      "name": "grantRole",
      "outputs": [],
      "stateMutability": "nonpayable",
      "type": "function"
    },
    {
      "inputs": [
        {
          "internalType": "address",
          "name": "_address",
          "type": "address"
        }
      ],
      "name": "hasAdminRole",
      "outputs": [
        {
          "internalType": "bool",
          "name": "",
          "type": "bool"
        }
      ],
      "stateMutability": "view",
      "type": "function"
    },
    {
      "inputs": [
        {
          "internalType": "address",
          "name": "_address",
          "type": "address"
        }
      ],
      "name": "hasMinterRole",
      "outputs": [
        {
          "internalType": "bool",
          "name": "",
          "type": "bool"
        }
      ],
      "stateMutability": "view",
      "type": "function"
    },
    {
      "inputs": [
        {
          "internalType": "address",
          "name": "_address",
          "type": "address"
        }
      ],
      "name": "hasOperatorRole",
      "outputs": [
        {
          "internalType": "bool",
          "name": "",
          "type": "bool"
        }
      ],
      "stateMutability": "view",
      "type": "function"
    },
    {
      "inputs": [
        {
          "internalType": "bytes32",
          "name": "role",
          "type": "bytes32"
        },
        {
          "internalType": "address",
          "name": "account",
          "type": "address"
        }
      ],
      "name": "hasRole",
      "outputs": [
        {
          "internalType": "bool",
          "name": "",
          "type": "bool"
        }
      ],
      "stateMutability": "view",
      "type": "function"
    },
    {
      "inputs": [
        {
          "internalType": "address",
          "name": "_address",
          "type": "address"
        }
      ],
      "name": "hasSmartContractRole",
      "outputs": [
        {
          "internalType": "bool",
          "name": "",
          "type": "bool"
        }
      ],
      "stateMutability": "view",
      "type": "function"
    },
    {
      "inputs": [
        {
          "internalType": "bytes",
          "name": "_data",
          "type": "bytes"
        }
      ],
      "name": "init",
      "outputs": [],
      "stateMutability": "payable",
      "type": "function"
    },
    {
      "inputs": [
        {
          "internalType": "address",
          "name": "_admin",
          "type": "address"
        }
      ],
      "name": "initAccessControls",
      "outputs": [],
      "stateMutability": "nonpayable",
      "type": "function"
    },
    {
      "inputs": [
        {
          "internalType": "address",
          "name": "_funder",
          "type": "address"
        },
        {
          "internalType": "address",
          "name": "_token",
          "type": "address"
        },
        {
          "internalType": "address",
          "name": "_paymentCurrency",
          "type": "address"
        },
        {
          "internalType": "uint256",
          "name": "_totalTokens",
          "type": "uint256"
        },
        {
          "internalType": "uint256",
          "name": "_startTime",
          "type": "uint256"
        },
        {
          "internalType": "uint256",
          "name": "_endTime",
          "type": "uint256"
        },
        {
          "internalType": "uint256",
          "name": "_rate",
          "type": "uint256"
        },
        {
          "internalType": "uint256",
          "name": "_goal",
          "type": "uint256"
        },
        {
          "internalType": "address",
          "name": "_admin",
          "type": "address"
        },
        {
          "internalType": "address",
          "name": "_pointList",
          "type": "address"
        },
        {
          "internalType": "address payable",
          "name": "_wallet",
          "type": "address"
        }
      ],
      "name": "initCrowdsale",
      "outputs": [],
      "stateMutability": "nonpayable",
      "type": "function"
    },
    {
      "inputs": [
        {
          "internalType": "bytes",
          "name": "_data",
          "type": "bytes"
        }
      ],
      "name": "initMarket",
      "outputs": [],
      "stateMutability": "nonpayable",
      "type": "function"
    },
    {
      "inputs": [],
      "name": "isOpen",
      "outputs": [
        {
          "internalType": "bool",
          "name": "",
          "type": "bool"
        }
      ],
      "stateMutability": "view",
      "type": "function"
    },
    {
      "inputs": [],
      "name": "marketInfo",
      "outputs": [
        {
          "internalType": "uint64",
          "name": "startTime",
          "type": "uint64"
        },
        {
          "internalType": "uint64",
          "name": "endTime",
          "type": "uint64"
        },
        {
          "internalType": "uint128",
          "name": "totalTokens",
          "type": "uint128"
        }
      ],
      "stateMutability": "view",
      "type": "function"
    },
    {
      "inputs": [],
      "name": "marketParticipationAgreement",
      "outputs": [
        {
          "internalType": "string",
          "name": "",
          "type": "string"
        }
      ],
      "stateMutability": "pure",
      "type": "function"
    },
    {
      "inputs": [],
      "name": "marketPrice",
      "outputs": [
        {
          "internalType": "uint128",
          "name": "rate",
          "type": "uint128"
        },
        {
          "internalType": "uint128",
          "name": "goal",
          "type": "uint128"
        }
      ],
      "stateMutability": "view",
      "type": "function"
    },
    {
      "inputs": [],
      "name": "marketStatus",
      "outputs": [
        {
          "internalType": "uint128",
          "name": "commitmentsTotal",
          "type": "uint128"
        },
        {
          "internalType": "bool",
          "name": "finalized",
          "type": "bool"
        },
        {
          "internalType": "bool",
          "name": "usePointList",
          "type": "bool"
        }
      ],
      "stateMutability": "view",
      "type": "function"
    },
    {
      "inputs": [],
      "name": "marketTemplate",
      "outputs": [
        {
          "internalType": "uint256",
          "name": "",
          "type": "uint256"
        }
      ],
      "stateMutability": "view",
      "type": "function"
    },
    {
      "inputs": [],
      "name": "paymentCurrency",
      "outputs": [
        {
          "internalType": "address",
          "name": "",
          "type": "address"
        }
      ],
      "stateMutability": "view",
      "type": "function"
    },
    {
      "inputs": [],
      "name": "pointList",
      "outputs": [
        {
          "internalType": "address",
          "name": "",
          "type": "address"
        }
      ],
      "stateMutability": "view",
      "type": "function"
    },
    {
      "inputs": [
        {
          "internalType": "address",
          "name": "_address",
          "type": "address"
        }
      ],
      "name": "removeAdminRole",
      "outputs": [],
      "stateMutability": "nonpayable",
      "type": "function"
    },
    {
      "inputs": [
        {
          "internalType": "string",
          "name": "_name",
          "type": "string"
        }
      ],
      "name": "removeDocument",
      "outputs": [],
      "stateMutability": "nonpayable",
      "type": "function"
    },
    {
      "inputs": [
        {
          "internalType": "address",
          "name": "_address",
          "type": "address"
        }
      ],
      "name": "removeMinterRole",
      "outputs": [],
      "stateMutability": "nonpayable",
      "type": "function"
    },
    {
      "inputs": [
        {
          "internalType": "address",
          "name": "_address",
          "type": "address"
        }
      ],
      "name": "removeOperatorRole",
      "outputs": [],
      "stateMutability": "nonpayable",
      "type": "function"
    },
    {
      "inputs": [
        {
          "internalType": "address",
          "name": "_address",
          "type": "address"
        }
      ],
      "name": "removeSmartContractRole",
      "outputs": [],
      "stateMutability": "nonpayable",
      "type": "function"
    },
    {
      "inputs": [
        {
          "internalType": "bytes32",
          "name": "role",
          "type": "bytes32"
        },
        {
          "internalType": "address",
          "name": "account",
          "type": "address"
        }
      ],
      "name": "renounceRole",
      "outputs": [],
      "stateMutability": "nonpayable",
      "type": "function"
    },
    {
      "inputs": [
        {
          "internalType": "bytes32",
          "name": "role",
          "type": "bytes32"
        },
        {
          "internalType": "address",
          "name": "account",
          "type": "address"
        }
      ],
      "name": "revokeRole",
      "outputs": [],
      "stateMutability": "nonpayable",
      "type": "function"
    },
    {
      "inputs": [
        {
          "internalType": "uint256",
          "name": "_rate",
          "type": "uint256"
        },
        {
          "internalType": "uint256",
          "name": "_goal",
          "type": "uint256"
        }
      ],
      "name": "setAuctionPrice",
      "outputs": [],
      "stateMutability": "nonpayable",
      "type": "function"
    },
    {
      "inputs": [
        {
          "internalType": "uint256",
          "name": "_startTime",
          "type": "uint256"
        },
        {
          "internalType": "uint256",
          "name": "_endTime",
          "type": "uint256"
        }
      ],
      "name": "setAuctionTime",
      "outputs": [],
      "stateMutability": "nonpayable",
      "type": "function"
    },
    {
      "inputs": [
        {
          "internalType": "address payable",
          "name": "_wallet",
          "type": "address"
        }
      ],
      "name": "setAuctionWallet",
      "outputs": [],
      "stateMutability": "nonpayable",
      "type": "function"
    },
    {
      "inputs": [
        {
          "internalType": "string",
          "name": "_name",
          "type": "string"
        },
        {
          "internalType": "string",
          "name": "_data",
          "type": "string"
        }
      ],
      "name": "setDocument",
      "outputs": [],
      "stateMutability": "nonpayable",
      "type": "function"
    },
    {
      "inputs": [
        {
          "internalType": "string[]",
          "name": "_name",
          "type": "string[]"
        },
        {
          "internalType": "string[]",
          "name": "_data",
          "type": "string[]"
        }
      ],
      "name": "setDocuments",
      "outputs": [],
      "stateMutability": "nonpayable",
      "type": "function"
    },
    {
      "inputs": [
        {
          "internalType": "address",
          "name": "_list",
          "type": "address"
        }
      ],
      "name": "setList",
      "outputs": [],
      "stateMutability": "nonpayable",
      "type": "function"
    },
    {
      "inputs": [],
      "name": "tokenPrice",
      "outputs": [
        {
          "internalType": "uint256",
          "name": "",
          "type": "uint256"
        }
      ],
      "stateMutability": "view",
      "type": "function"
    },
    {
      "inputs": [
        {
          "internalType": "address",
          "name": "_user",
          "type": "address"
        }
      ],
      "name": "tokensClaimable",
      "outputs": [
        {
          "internalType": "uint256",
          "name": "claimerCommitment",
          "type": "uint256"
        }
      ],
      "stateMutability": "view",
      "type": "function"
    },
    {
      "inputs": [],
      "name": "wallet",
      "outputs": [
        {
          "internalType": "address payable",
          "name": "",
          "type": "address"
        }
      ],
      "stateMutability": "view",
      "type": "function"
    },
    {
      "inputs": [
        {
          "internalType": "address payable",
          "name": "beneficiary",
          "type": "address"
        }
      ],
      "name": "withdrawTokens",
      "outputs": [],
      "stateMutability": "nonpayable",
      "type": "function"
    },
    {
      "inputs": [],
      "name": "withdrawTokens",
      "outputs": [],
      "stateMutability": "nonpayable",
      "type": "function"
    },
    {
      "stateMutability": "payable",
      "type": "receive"
    }
  ],
  "bytecode": "0x608060405234801561001057600080fd5b506001600555614f6a806100256000396000f3fe60806040526004361061044e5760003560e01c80638643337411610243578063c6b547e611610143578063dccfe310116100bb578063e8fcf7231161008a578063f08b82e61161006f578063f08b82e614610e40578063f5b541a614610e65578063fc4e3e0a14610e9957600080fd5b8063e8fcf72314610df3578063f04899d314610e2057600080fd5b8063dccfe31014610d36578063dde51f6d14610d56578063e0e081d714610d76578063e6594abd14610dd357600080fd5b8063ca15c87311610112578063d547741f116100f7578063d547741f14610cd6578063d69d3e6214610cf6578063dc97e08214610d1657600080fd5b8063ca15c87314610c82578063d539139314610ca257600080fd5b8063c6b547e614610bf5578063c884ef8314610c15578063c92bce8714610c42578063c9fab05914610c6257600080fd5b80639a87222c116101d6578063adbf3776116101a5578063b7928b1d1161018a578063b7928b1d14610b95578063c2507ac114610bb5578063c395fcb314610bd557600080fd5b8063adbf377614610b56578063b3f05b9714610b7657600080fd5b80639a87222c14610adf5780639c64d0ae14610aff5780639fa5f50b14610b1f578063a217fddf14610b4157600080fd5b80639010d07c116102125780639010d07c14610a5f57806391d1485414610a7f5780639478941c14610a9f57806399fdb32014610abf57600080fd5b80638643337414610a005780638a845fc014610a155780638d8f2adb14610a355780638fa8b79014610a4a57600080fd5b806345a153881161034e57806354f1e126116102e157806374cf9fc5116102b05780637ff9b596116102955780637ff9b5961461098e57806381353c8e146109ac578063857d2608146109cc57600080fd5b806374cf9fc51461094b5780637ccb6a641461096057600080fd5b806354f1e126146108cb5780636595171c146108eb5780636ae260c11461090b57806373973fcb1461092b57600080fd5b80634bb278f31161031d5780634bb278f3146108645780634dc80e15146108795780634ddf47d414610899578063521eb273146108ab57600080fd5b806345a15388146107c457806347535d7b1461080f57806349df728c146108245780634b3e6abb1461084457600080fd5b806324e4025b116103e157806336568abe116103b05780633d15cc6d116103955780633d15cc6d146107575780633d1c22731461078f5780633f16431a146107a457600080fd5b806336568abe1461070857806336d0054b1461072857600080fd5b806324e4025b1461065257806329762960146106725780632f2ff15d14610685578063314148e2146106a557600080fd5b8063170264551161041d57806317026455146105ca5780631b3e460e146105df578063212f8a8114610602578063248a9ca31461062257600080fd5b8063031bee0014610462578063099db017146104d65780630cc4c03314610506578063113b0ab2146105aa57600080fd5b3661045d5761045b610eb9565b005b600080fd5b34801561046e57600080fd5b506007546104a19067ffffffffffffffff80821691600160401b810490911690600160801b90046001600160801b031683565b6040805167ffffffffffffffff94851681529390921660208401526001600160801b0316908201526060015b60405180910390f35b3480156104e257600080fd5b506104f66104f13660046145d2565b610f52565b60405190151581526020016104cd565b34801561051257600080fd5b5061059d6105213660046146dc565b604080516001600160a01b039c8d1660208201529a8c168b820152988b1660608b015260808a019790975260a089019590955260c088019390935260e087019190915261010086015285166101208501528416610140840152909216610160808301919091528251808303909101815261018090910190915290565b6040516104cd9190614a5e565b3480156105b657600080fd5b506104f66105c53660046145d2565b610f84565b3480156105d657600080fd5b506104f6610fb0565b3480156105eb57600080fd5b506105f4600181565b6040519081526020016104cd565b34801561060e57600080fd5b5061045b61061d3660046146fd565b610fdc565b34801561062e57600080fd5b506105f461063d3660046147df565b60009081526020819052604090206002015490565b34801561065e57600080fd5b5061045b61066d36600461481b565b611115565b61045b6106803660046146a4565b611375565b34801561069157600080fd5b5061045b6106a03660046147f7565b6114e1565b3480156106b157600080fd5b50600954600754600854604080516001600160a01b03909416845267ffffffffffffffff8084166020860152600160401b90930490921691830191909152600160801b900460ff16151560608201526080016104cd565b34801561071457600080fd5b5061045b6107233660046147f7565b611579565b34801561073457600080fd5b506104f66006546008546001600160801b03600160801b90920482169116101590565b34801561076357600080fd5b50600b54610777906001600160a01b031681565b6040516001600160a01b0390911681526020016104cd565b34801561079b57600080fd5b506004546105f4565b3480156107b057600080fd5b5061045b6107bf3660046145d2565b611601565b3480156107d057600080fd5b506006546107ef906001600160801b0380821691600160801b90041682565b604080516001600160801b039384168152929091166020830152016104cd565b34801561081b57600080fd5b506104f6611664565b34801561083057600080fd5b5061045b61083f3660046145d2565b61169b565b34801561085057600080fd5b5061045b61085f3660046147a7565b6118e6565b34801561087057600080fd5b5061045b611924565b34801561088557600080fd5b506105f46108943660046145d2565b611c61565b61045b6108a736600461483c565b5050565b3480156108b757600080fd5b50600a54610777906001600160a01b031681565b3480156108d757600080fd5b5061045b6108e63660046145d2565b611d5a565b3480156108f757600080fd5b5061045b6109063660046145d2565b611dbd565b34801561091757600080fd5b5061045b61092636600461481b565b611e01565b34801561093757600080fd5b506105f46109463660046147df565b6120fc565b34801561095757600080fd5b5061059d61217f565b34801561096c57600080fd5b5061098061097b36600461483c565b6121a2565b6040516104cd929190614aa0565b34801561099a57600080fd5b506006546001600160801b03166105f4565b3480156109b857600080fd5b5061045b6109c736600461483c565b61229b565b3480156109d857600080fd5b506105f47f9d49f397ae9ef1a834b569acb967799a367061e305932181a44f5773da873bfd81565b348015610a0c57600080fd5b506104f66122eb565b348015610a2157600080fd5b5061045b610a303660046145d2565b61233f565b348015610a4157600080fd5b5061045b6123a2565b348015610a5657600080fd5b5061045b6123ad565b348015610a6b57600080fd5b50610777610a7a36600461481b565b612549565b348015610a8b57600080fd5b506104f6610a9a3660046147f7565b612568565b348015610aab57600080fd5b5061045b610aba3660046145d2565b612580565b348015610acb57600080fd5b50600954610777906001600160a01b031681565b348015610aeb57600080fd5b5061045b610afa3660046145d2565b6125e3565b348015610b0b57600080fd5b5061045b610b1a36600461487c565b6126ba565b348015610b2b57600080fd5b50610b346126de565b6040516104cd91906149fd565b348015610b4d57600080fd5b506105f4600081565b348015610b6257600080fd5b5061045b610b713660046145d2565b6127b7565b348015610b8257600080fd5b50600854600160801b900460ff166104f6565b348015610ba157600080fd5b5061045b610bb03660046145d2565b61281a565b348015610bc157600080fd5b506105f4610bd03660046147df565b61287d565b348015610be157600080fd5b506104f6610bf03660046145d2565b612888565b348015610c0157600080fd5b5061059d610c103660046147df565b612894565b348015610c2157600080fd5b506105f4610c303660046145d2565b600e6020526000908152604090205481565b348015610c4e57600080fd5b5061045b610c5d36600461473e565b6129a3565b348015610c6e57600080fd5b5061045b610c7d3660046146dc565b612a47565b348015610c8e57600080fd5b506105f4610c9d3660046147df565b6131b0565b348015610cae57600080fd5b506105f47f9f2df0fed2c77648de5860a4cc508cd0818c85b8b8a1ab4ceeef8d981c8956a681565b348015610ce257600080fd5b5061045b610cf13660046147f7565b6131c7565b348015610d0257600080fd5b5061045b610d113660046145d2565b613255565b348015610d2257600080fd5b5061045b610d313660046148f1565b613273565b348015610d4257600080fd5b5061045b610d513660046145d2565b61327e565b348015610d6257600080fd5b5061045b610d7136600461483c565b6132c2565b348015610d8257600080fd5b50600854610dac906001600160801b0381169060ff600160801b8204811691600160881b90041683565b604080516001600160801b03909416845291151560208401521515908201526060016104cd565b348015610ddf57600080fd5b5061045b610dee3660046145d2565b6132de565b348015610dff57600080fd5b506105f4610e0e3660046145d2565b600d6020526000908152604090205481565b348015610e2c57600080fd5b50600c54610777906001600160a01b031681565b348015610e4c57600080fd5b50600754600160801b90046001600160801b03166105f4565b348015610e7157600080fd5b506105f47f97667070c54ef182b0f5858b034beac1b6f3089aa2d3188bb1e8929f4fa9b92981565b348015610ea557600080fd5b506104f6610eb43660046145d2565b61334b565b60405162461bcd60e51b815260206004820152605260248201527f4e6f2061677265656d656e742070726f76696465642c20706c6561736520726560448201527f766965772074686520736d61727420636f6e7472616374206265666f7265206960648201527f6e746572616374696e6720776974682069740000000000000000000000000000608482015260a4015b60405180910390fd5b6000610f7e7f9f2df0fed2c77648de5860a4cc508cd0818c85b8b8a1ab4ceeef8d981c8956a683612568565b92915050565b6000610f7e7f9d49f397ae9ef1a834b569acb967799a367061e305932181a44f5773da873bfd83612568565b6007546000904290610fd690600160401b900467ffffffffffffffff1662093a80614b88565b10905090565b6002600554141561102f5760405162461bcd60e51b815260206004820152601f60248201527f5265656e7472616e637947756172643a207265656e7472616e742063616c6c006044820152606401610f49565b6002600555600b546001600160a01b031673eeeeeeeeeeeeeeeeeeeeeeeeeeeeeeeeeeeeeeee14156110c95760405162461bcd60e51b815260206004820152602a60248201527f43726f776473616c653a205061796d656e742063757272656e6379206973206e60448201527f6f74206120746f6b656e000000000000000000000000000000000000000000006064820152608401610f49565b806110d6576110d6610eb9565b60006110e1836120fc565b9050801561110a57600b54611100906001600160a01b03163383613377565b61110a8482613473565b505060016005555050565b61111e33612888565b61112757600080fd5b600081116111775760405162461bcd60e51b815260206004820152601460248201527f43726f776473616c653a20676f616c20697320300000000000000000000000006044820152606401610f49565b600082116111c75760405162461bcd60e51b815260206004820152601460248201527f43726f776473616c653a207261746520697320300000000000000000000000006044820152606401610f49565b6008546001600160801b0316156112465760405162461bcd60e51b815260206004820152602e60248201527f43726f776473616c653a2061756374696f6e2063616e6e6f742068617665206160448201527f6c726561647920737461727465640000000000000000000000000000000000006064820152608401610f49565b600754600160801b90046001600160801b0316611262826136f2565b11156112d65760405162461bcd60e51b815260206004820152602a60248201527f43726f776473616c653a206d696e696d756d207461726765742065786365656460448201527f73206861726420636170000000000000000000000000000000000000000000006064820152608401610f49565b6112df826137bd565b600680546fffffffffffffffffffffffffffffffff19166001600160801b0392909216919091179055611311816137bd565b600680546001600160801b03928316600160801b0292169190911790556040517f622a57040c34e45abc5fadeb22e4c3c687cf48a096c86694cd21a7be9e7851ee906113699084908490918252602082015260400190565b60405180910390a15050565b600260055414156113c85760405162461bcd60e51b815260206004820152601f60248201527f5265656e7472616e637947756172643a207265656e7472616e742063616c6c006044820152606401610f49565b6002600555600b546001600160a01b031673eeeeeeeeeeeeeeeeeeeeeeeeeeeeeeeeeeeeeeee146114615760405162461bcd60e51b815260206004820152602660248201527f43726f776473616c653a205061796d656e742063757272656e6379206973206e60448201527f6f742045544800000000000000000000000000000000000000000000000000006064820152608401610f49565b8061146e5761146e610eb9565b6000611479346120fc565b90506000611487348361381a565b90508115611499576114998483613473565b801561110a576040516001600160a01b0385169082156108fc029083906000818181858888f193505050501580156114d5573d6000803e3d6000fd5b50505060016005555050565b6000828152602081905260409020600201546114fd9033612568565b61156f5760405162461bcd60e51b815260206004820152602f60248201527f416363657373436f6e74726f6c3a2073656e646572206d75737420626520616e60448201527f2061646d696e20746f206772616e7400000000000000000000000000000000006064820152608401610f49565b6108a78282613878565b6001600160a01b03811633146115f75760405162461bcd60e51b815260206004820152602f60248201527f416363657373436f6e74726f6c3a2063616e206f6e6c792072656e6f756e636560448201527f20726f6c657320666f722073656c6600000000000000000000000000000000006064820152608401610f49565b6108a782826138d1565b61162b7f9d49f397ae9ef1a834b569acb967799a367061e305932181a44f5773da873bfd826114e1565b60405133906001600160a01b038316907f1d5f9ec24c6f91be922ea13ceaad919ad6554a41b5c26087f96289a9baf98ad290600090a350565b60075460009067ffffffffffffffff1642108015906116965750600754600160401b900467ffffffffffffffff164211155b905090565b600260055414156116ee5760405162461bcd60e51b815260206004820152601f60248201527f5265656e7472616e637947756172643a207265656e7472616e742063616c6c006044820152606401610f49565b60026005556117156006546008546001600160801b03600160801b90920482169116101590565b1561182557600854600160801b900460ff166117735760405162461bcd60e51b815260206004820152601860248201527f43726f776473616c653a206e6f742066696e616c697a656400000000000000006044820152606401610f49565b600061177e82611c61565b9050600081116117d05760405162461bcd60e51b815260206004820152601d60248201527f43726f776473616c653a206e6f20746f6b656e7320746f20636c61696d0000006044820152606401610f49565b6001600160a01b0382166000908152600e60205260409020546117f3908261392a565b6001600160a01b038084166000908152600e602052604090209190915560095461181f91168383613988565b506118de565b600754600160401b900467ffffffffffffffff1642116118ad5760405162461bcd60e51b815260206004820152602760248201527f43726f776473616c653a2061756374696f6e20686173206e6f742066696e697360448201527f68656420796574000000000000000000000000000000000000000000000000006064820152608401610f49565b6001600160a01b038082166000908152600d602052604081208054919055600b5490916118dc91168383613988565b505b506001600555565b6118ef33612888565b6118f857600080fd5b60088054911515600160881b0271ff000000000000000000000000000000000019909216919091179055565b600260055414156119775760405162461bcd60e51b815260206004820152601f60248201527f5265656e7472616e637947756172643a207265656e7472616e742063616c6c006044820152606401610f49565b600260055561198533612888565b8061199a5750600a546001600160a01b031633145b806119a957506119a933610f84565b806119b757506119b7610fb0565b611a295760405162461bcd60e51b815260206004820152602260248201527f43726f776473616c653a2073656e646572206d75737420626520616e2061646d60448201527f696e0000000000000000000000000000000000000000000000000000000000006064820152608401610f49565b60088054600160801b900460ff1615611a845760405162461bcd60e51b815260206004820152601c60248201527f43726f776473616c653a20616c72656164792066696e616c697a6564000000006044820152606401610f49565b6007611aa86006546008546001600160801b03600160801b90920482169116101590565b15611b8e57611ab56122eb565b611b015760405162461bcd60e51b815260206004820152601f60248201527f43726f776473616c653a20486173206e6f742066696e697368656420796574006044820152606401610f49565b600b54600a548354611b29926001600160a01b039081169216906001600160801b0316613988565b8154600090611b40906001600160801b03166136f2565b8254909150600090611b6290600160801b90046001600160801b03168361381a565b90508015611b8757600954600a54611b87916001600160a01b03908116911683613988565b5050611c11565b611b966122eb565b611be25760405162461bcd60e51b815260206004820152601f60248201527f43726f776473616c653a20486173206e6f742066696e697368656420796574006044820152606401610f49565b600954600a548254611c11926001600160a01b03908116921690600160801b90046001600160801b0316613988565b815470ff000000000000000000000000000000001916600160801b1782556040517f32bebcfd2d04dbae321298091d96d2cb1d07279f59718cd83bd98245b8b82b5a90600090a150506001600555565b6009546040517f70a0823100000000000000000000000000000000000000000000000000000000815230600482015260009182916001600160a01b03909116906370a082319060240160206040518083038186803b158015611cc257600080fd5b505afa158015611cd6573d6000803e3d6000fd5b505050506040513d601f19601f82011682018060405250810190611cfa91906148d9565b6001600160a01b0384166000908152600d6020526040902054909150611d1f906136f2565b6001600160a01b0384166000908152600e6020526040902054909250611d4690839061381a565b915080821115611d54578091505b50919050565b611d847f9f2df0fed2c77648de5860a4cc508cd0818c85b8b8a1ab4ceeef8d981c8956a6826131c7565b60405133906001600160a01b038316907f56692a161ffec953ddf9def93b958ea8d1ec95e21b80870c66be91a4374dc4e390600090a350565b611dc86000826114e1565b60405133906001600160a01b038316907f2570ac42fd8b322dc453ada624dc2ed0e9bdd67f16f201a25bbd30468f2aa18790600090a350565b611e0a33612888565b611e1357600080fd5b6402540be4008210611e8d5760405162461bcd60e51b815260206004820152603e60248201527f43726f776473616c653a20656e74657220616e20756e69782074696d6573746160448201527f6d7020696e207365636f6e64732c206e6f74206d696c697365636f6e647300006064820152608401610f49565b6402540be4008110611f075760405162461bcd60e51b815260206004820152603e60248201527f43726f776473616c653a20656e74657220616e20756e69782074696d6573746160448201527f6d7020696e207365636f6e64732c206e6f74206d696c697365636f6e647300006064820152608401610f49565b42821015611f6c5760405162461bcd60e51b815260206004820152602c60248201527f43726f776473616c653a2073746172742074696d65206973206265666f72652060448201526b63757272656e742074696d6560a01b6064820152608401610f49565b818111611fe15760405162461bcd60e51b815260206004820152603260248201527f43726f776473616c653a20656e642074696d65206d757374206265206f6c646560448201527f72207468616e20737461727420707269636500000000000000000000000000006064820152608401610f49565b6008546001600160801b0316156120605760405162461bcd60e51b815260206004820152602e60248201527f43726f776473616c653a2061756374696f6e2063616e6e6f742068617665206160448201527f6c726561647920737461727465640000000000000000000000000000000000006064820152608401610f49565b612069826139c7565b6007805467ffffffffffffffff191667ffffffffffffffff92909216919091179055612094816139c7565b6007805467ffffffffffffffff92909216600160401b026fffffffffffffffff00000000000000001990921691909117905560408051838152602081018390527f5725d1e4352d6944889e54837ffaefde55cdc0b55796b831365d61cd4c87fdb89101611369565b600080612108836136f2565b600854909150600090612123906001600160801b03166136f2565b600754909150600160801b90046001600160801b0316612143828461392a565b11156121775760075461216f9061216a90600160801b90046001600160801b03168361381a565b613a21565b949350505050565b509192915050565b60606040518061018001604052806101518152602001614de46101519139905090565b60606000600284846040516121b892919061497e565b9081526020016040518091039020600101600285856040516121db92919061497e565b90815260405190819003602001902054815467ffffffffffffffff6401000000009092049190911690829061220f90614d5a565b80601f016020809104026020016040519081016040528092919081815260200182805461223b90614d5a565b80156122885780601f1061225d57610100808354040283529160200191612288565b820191906000526020600020905b81548152906001019060200180831161226b57829003601f168201915b50505050509150915091505b9250929050565b6000808080808080808080806122b38c8e018e6145ee565b9a509a509a509a509a509a509a509a509a509a509a506122dc8b8b8b8b8b8b8b8b8b8b8b612a47565b50505050505050505050505050565b600754600090600160401b900467ffffffffffffffff1642118061169657506007546008546001600160801b03600160801b9092048216916123389161233391166001614b88565b6136f2565b1015905090565b6123697f9d49f397ae9ef1a834b569acb967799a367061e305932181a44f5773da873bfd826131c7565b60405133906001600160a01b038316907fe5f1aa9e528307345194b88b24a32401c13926e0823060f1049d9b26c0bb62b290600090a350565b6123ab3361169b565b565b600260055414156124005760405162461bcd60e51b815260206004820152601f60248201527f5265656e7472616e637947756172643a207265656e7472616e742063616c6c006044820152606401610f49565b600260055561240e33612888565b61241757600080fd5b60088054600160801b900460ff16156124725760405162461bcd60e51b815260206004820152601c60248201527f43726f776473616c653a20616c72656164792066696e616c697a6564000000006044820152606401610f49565b80546001600160801b0316156124ca5760405162461bcd60e51b815260206004820152601f60248201527f43726f776473616c653a2046756e647320616c726561647920726169736564006044820152606401610f49565b600954600a546007546124fa926001600160a01b03908116921690600160801b90046001600160801b0316613988565b805470ff000000000000000000000000000000001916600160801b1781556040517fa5fb31e47bd1eca58bf14a3312d5e6aeafdc4ee787c8ed348c15c2b092324d9390600090a1506001600555565b60008281526020819052604081206125619083613ad1565b9392505050565b60008281526020819052604081206125619083613add565b6125aa7f97667070c54ef182b0f5858b034beac1b6f3089aa2d3188bb1e8929f4fa9b929826131c7565b60405133906001600160a01b038316907f70b25138b6fadeb9992d18b9653564271823e34b3e3257515d12a6d4b15fcddf90600090a350565b6125ec33612888565b6125f557600080fd5b6001600160a01b0381166126595760405162461bcd60e51b815260206004820152602560248201527f43726f776473616c653a2077616c6c657420697320746865207a65726f206164604482015264647265737360d81b6064820152608401610f49565b600a805473ffffffffffffffffffffffffffffffffffffffff19166001600160a01b0383169081179091556040519081527f34ae2bad9265f0212d4cf341708b8250949164bb54f9d0e4f442024f83bb2f909060200160405180910390a150565b6126c333612888565b6126cc57600080fd5b6126d884848484613aff565b50505050565b60606004805480602002602001604051908101604052809291908181526020016000905b828210156127ae57838290600052602060002001805461272190614d5a565b80601f016020809104026020016040519081016040528092919081815260200182805461274d90614d5a565b801561279a5780601f1061276f5761010080835404028352916020019161279a565b820191906000526020600020905b81548152906001019060200180831161277d57829003601f168201915b505050505081526020019060010190612702565b50505050905090565b6127e17f9f2df0fed2c77648de5860a4cc508cd0818c85b8b8a1ab4ceeef8d981c8956a6826114e1565b60405133906001600160a01b038316907f0be6ab9784c7401fafb73f7bc47bc67cc4ef8c47a60ad3cb66d1de0353a0784c90600090a350565b6128447f97667070c54ef182b0f5858b034beac1b6f3089aa2d3188bb1e8929f4fa9b929826114e1565b60405133906001600160a01b038316907f2d45ee102874989882745a26688d0b4fffee125a18df26536b12582c7fde4e1790600090a350565b6000610f7e826136f2565b6000610f7e8183612568565b60045460609082106128e85760405162461bcd60e51b815260206004820152601360248201527f496e646578206f7574206f6620626f756e6473000000000000000000000000006044820152606401610f49565b6004828154811061290957634e487b7160e01b600052603260045260246000fd5b90600052602060002001805461291e90614d5a565b80601f016020809104026020016040519081016040528092919081815260200182805461294a90614d5a565b80156129975780601f1061296c57610100808354040283529160200191612997565b820191906000526020600020905b81548152906001019060200180831161297a57829003601f168201915b50505050509050919050565b6129ac33612888565b6129b557600080fd5b8260005b81811015612a3f57612a2d8686838181106129e457634e487b7160e01b600052603260045260246000fd5b90506020028101906129f69190614b43565b868685818110612a1657634e487b7160e01b600052603260045260246000fd5b9050602002810190612a289190614b43565b613aff565b80612a3781614d8f565b9150506129b9565b505050505050565b6402540be4008710612ac15760405162461bcd60e51b815260206004820152603e60248201527f43726f776473616c653a20656e74657220616e20756e69782074696d6573746160448201527f6d7020696e207365636f6e64732c206e6f74206d696c697365636f6e647300006064820152608401610f49565b6402540be4008610612b3b5760405162461bcd60e51b815260206004820152603e60248201527f43726f776473616c653a20656e74657220616e20756e69782074696d6573746160448201527f6d7020696e207365636f6e64732c206e6f74206d696c697365636f6e647300006064820152608401610f49565b42871015612ba05760405162461bcd60e51b815260206004820152602c60248201527f43726f776473616c653a2073746172742074696d65206973206265666f72652060448201526b63757272656e742074696d6560a01b6064820152608401610f49565b868611612c155760405162461bcd60e51b815260206004820152602c60248201527f43726f776473616c653a2073746172742074696d65206973206e6f742062656660448201527f6f726520656e642074696d6500000000000000000000000000000000000000006064820152608401610f49565b60008511612c655760405162461bcd60e51b815260206004820152601460248201527f43726f776473616c653a207261746520697320300000000000000000000000006044820152606401610f49565b6001600160a01b038116612cc95760405162461bcd60e51b815260206004820152602560248201527f43726f776473616c653a2077616c6c657420697320746865207a65726f206164604482015264647265737360d81b6064820152608401610f49565b6001600160a01b038316612d445760405162461bcd60e51b8152602060048201526024808201527f43726f776473616c653a2061646d696e20697320746865207a65726f2061646460448201527f72657373000000000000000000000000000000000000000000000000000000006064820152608401610f49565b60008811612d945760405162461bcd60e51b815260206004820152601c60248201527f43726f776473616c653a20746f74616c20746f6b656e732069732030000000006044820152606401610f49565b60008411612de45760405162461bcd60e51b815260206004820152601460248201527f43726f776473616c653a20676f616c20697320300000000000000000000000006044820152606401610f49565b896001600160a01b031663313ce5676040518163ffffffff1660e01b815260040160206040518083038186803b158015612e1d57600080fd5b505afa158015612e31573d6000803e3d6000fd5b505050506040513d601f19601f82011682018060405250810190612e559190614915565b60ff16601214612ecd5760405162461bcd60e51b815260206004820152602a60248201527f43726f776473616c653a20546f6b656e20646f6573206e6f742068617665203160448201527f3820646563696d616c73000000000000000000000000000000000000000000006064820152608401610f49565b6001600160a01b03891673eeeeeeeeeeeeeeeeeeeeeeeeeeeeeeeeeeeeeeee14612fda576000896001600160a01b031663313ce5676040518163ffffffff1660e01b815260040160206040518083038186803b158015612f2c57600080fd5b505afa158015612f40573d6000803e3d6000fd5b505050506040513d601f19601f82011682018060405250810190612f649190614915565b60ff1611612fda5760405162461bcd60e51b815260206004820152602860248201527f43726f776473616c653a205061796d656e742063757272656e6379206973206e60448201527f6f742045524332300000000000000000000000000000000000000000000000006064820152608401610f49565b612fe3856137bd565b600680546fffffffffffffffffffffffffffffffff19166001600160801b0392909216919091179055613015846137bd565b600680546001600160801b03928316600160801b02921691909117905561303b876139c7565b6007805467ffffffffffffffff191667ffffffffffffffff92909216919091179055613066866139c7565b6007805467ffffffffffffffff92909216600160401b026fffffffffffffffff0000000000000000199092169190911790556130a1886137bd565b600780546001600160801b03928316600160801b029216919091179055600980546001600160a01b03808d1673ffffffffffffffffffffffffffffffffffffffff1992831617909255600b80548c8416908316179055600a805492841692909116919091179055613111836132de565b61311a82613cb5565b87613124856136f2565b11156131985760405162461bcd60e51b815260206004820152603d60248201527f43726f776473616c653a20676f616c2073686f756c6420626520657175616c2060448201527f746f206f72206c6f776572207468616e20746f74616c20746f6b656e730000006064820152608401610f49565b6131a38a8c8a613377565b5050505050505050505050565b6000818152602081905260408120610f7e90613d12565b6000828152602081905260409020600201546131e39033612568565b6115f75760405162461bcd60e51b815260206004820152603060248201527f416363657373436f6e74726f6c3a2073656e646572206d75737420626520616e60448201527f2061646d696e20746f207265766f6b65000000000000000000000000000000006064820152608401610f49565b61325e33612888565b61326757600080fd5b61327081613cb5565b50565b6108a7338383610fdc565b6132896000826131c7565b60405133906001600160a01b038316907f21ba1239795d4e22874e3dc55f0a9d7b65bfb23069d32965d7c23be9524ccf9590600090a350565b6132cb33612888565b6132d457600080fd5b6108a78282613d1c565b60015460ff16156133315760405162461bcd60e51b815260206004820152601360248201527f416c726561647920696e697469616c69736564000000000000000000000000006044820152606401610f49565b61333c60008261156f565b506001805460ff191681179055565b6000610f7e7f97667070c54ef182b0f5858b034beac1b6f3089aa2d3188bb1e8929f4fa9b92983612568565b6040516001600160a01b0383811660248301523060448301526064820183905260009182918616906323b872dd906084015b6040516020818303038152906040529060e01b6020820180517bffffffffffffffffffffffffffffffffffffffffffffffffffffffff83818316178352505050506040516133f79190614962565b6000604051808303816000865af19150503d8060008114613434576040519150601f19603f3d011682016040523d82523d6000602084013e613439565b606091505b509150915081801561346357508051158061346357508080602001905181019061346391906147c3565b61346c57600080fd5b5050505050565b60075467ffffffffffffffff1642108015906134a25750600754600160401b900467ffffffffffffffff164211155b6134ee5760405162461bcd60e51b815260206004820181905260248201527f43726f776473616c653a206f7574736964652061756374696f6e20686f7572736044820152606401610f49565b6001600160a01b03821661356a5760405162461bcd60e51b815260206004820152602a60248201527f43726f776473616c653a2062656e656669636961727920697320746865207a6560448201527f726f2061646472657373000000000000000000000000000000000000000000006064820152608401610f49565b6001600160a01b0382166000908152600d602052604081205461358d908361392a565b600854909150600160881b900460ff161561364857600c546040517f1cd53d550000000000000000000000000000000000000000000000000000000081526001600160a01b0385811660048301526024820184905290911690631cd53d559060440160206040518083038186803b15801561360757600080fd5b505afa15801561361b573d6000803e3d6000fd5b505050506040513d601f19601f8201168201806040525081019061363f91906147c3565b61364857600080fd5b6001600160a01b0383166000908152600d602052604090208190556008546136829061367d906001600160801b03168461392a565b6137bd565b600880546fffffffffffffffffffffffffffffffff19166001600160801b0392909216919091179055604080516001600160a01b0385168152602081018490527f077511a636ba1f10551cc7b89c13ff66a6ac9344e8a917527817a9690b15af7a910160405180910390a1505050565b600654600954604080517f313ce5670000000000000000000000000000000000000000000000000000000081529051600093610f7e936001600160801b03909116926137b7926001600160a01b039092169163313ce56791600480820192602092909190829003018186803b15801561376a57600080fd5b505afa15801561377e573d6000803e3d6000fd5b505050506040513d601f19601f820116820180604052508101906137a29190614915565b6137b09060ff16600a614c2b565b8590613fe6565b90614056565b60006001600160801b038211156138165760405162461bcd60e51b815260206004820152601c60248201527f426f72696e674d6174683a2075696e74313238204f766572666c6f77000000006044820152606401610f49565b5090565b6000826138278382614cf2565b9150811115610f7e5760405162461bcd60e51b815260206004820152601560248201527f426f72696e674d6174683a20556e646572666c6f7700000000000000000000006044820152606401610f49565b600082815260208190526040902061389090826140b1565b156108a75760405133906001600160a01b0383169084907f2f8788117e7eff1d82e926ec794901d17c78024a50270940304540a733656f0d90600090a45050565b60008281526020819052604090206138e990826140c6565b156108a75760405133906001600160a01b0383169084907ff6391f5c32d9c69d2a47ea670b442974b53935d1edc7fd64eb21e047a839171b90600090a45050565b6000816139378185614b88565b9150811015610f7e5760405162461bcd60e51b815260206004820152601860248201527f426f72696e674d6174683a20416464204f766572666c6f7700000000000000006044820152606401610f49565b6001600160a01b03831673eeeeeeeeeeeeeeeeeeeeeeeeeeeeeeeeeeeeeeee14156139bc576139b782826140db565b505050565b6139b78383836141be565b600067ffffffffffffffff8211156138165760405162461bcd60e51b815260206004820152601b60248201527f426f72696e674d6174683a2075696e743634204f766572666c6f7700000000006044820152606401610f49565b6000610f7e600960009054906101000a90046001600160a01b03166001600160a01b031663313ce5676040518163ffffffff1660e01b815260040160206040518083038186803b158015613a7457600080fd5b505afa158015613a88573d6000803e3d6000fd5b505050506040513d601f19601f82011682018060405250810190613aac9190614915565b613aba9060ff16600a614c2b565b6006546137b79085906001600160801b0316613fe6565b600061256183836141ee565b6001600160a01b03811660009081526001830160205260408120541515612561565b82613b4c5760405162461bcd60e51b815260206004820152601860248201527f5a65726f206e616d65206973206e6f7420616c6c6f77656400000000000000006044820152606401610f49565b80613b995760405162461bcd60e51b815260206004820152601a60248201527f53686f756c64206e6f74206265206120656d70747920646174610000000000006044820152606401610f49565b600067ffffffffffffffff1660028585604051613bb792919061497e565b9081526040519081900360200190205467ffffffffffffffff640100000000909104161415613c5e5760048054600181018255600091909152613c1d907f8a35acfbc15ff81a39ae7d344fd709f28e8600b4aa8c65c6b64bfe7fe36bd19b018585614409565b50600454604051600290613c34908790879061497e565b908152604051908190036020019020805463ffffffff9290921663ffffffff199092169190911790555b8383604051613c6e92919061497e565b60405180910390207fbaa206e5ea800eb88bce099f453fee53295b793b9d5d1cfc4ce4b6db06a34f538383604051613ca7929190614a71565b60405180910390a250505050565b6001600160a01b0381161561327057600c80546001600160a01b03831673ffffffffffffffffffffffffffffffffffffffff199091161790556008805471ff00000000000000000000000000000000001916600160881b17905550565b6000610f7e825490565b600067ffffffffffffffff1660028383604051613d3a92919061497e565b9081526040519081900360200190205467ffffffffffffffff640100000000909104161415613dab5760405162461bcd60e51b815260206004820152601560248201527f446f63756d656e742073686f756c6420657869737400000000000000000000006044820152606401610f49565b6000600160028484604051613dc192919061497e565b90815260405190819003602001902054613de1919063ffffffff16614d09565b600454909150613df390600190614cf2565b8163ffffffff1614613ef55760048054613e0f90600190614cf2565b81548110613e2d57634e487b7160e01b600052603260045260246000fd5b9060005260206000200160048263ffffffff1681548110613e5e57634e487b7160e01b600052603260045260246000fd5b90600052602060002001908054613e7490614d5a565b613e7f929190614489565b50613e8b816001614ba0565b600260048363ffffffff1681548110613eb457634e487b7160e01b600052603260045260246000fd5b90600052602060002001604051613ecb919061498e565b908152604051908190036020019020805463ffffffff9290921663ffffffff199092169190911790555b6004805480613f1457634e487b7160e01b600052603160045260246000fd5b600190038181906000526020600020016000613f309190614504565b90558282604051613f4292919061497e565b60405180910390207f4b5338540b4d1c0f6dd0308a25f633b7ff60472f894d711cff9dd64e35c613b260028585604051613f7d92919061497e565b9081526020016040518091039020600101604051613f9b9190614ac2565b60405180910390a260028383604051613fb592919061497e565b90815260405190819003602001902080546bffffffffffffffffffffffff19168155600061346c6001830182614504565b600081158061400a57508282613ffc8183614cd3565b92506140089083614bc8565b145b610f7e5760405162461bcd60e51b815260206004820152601860248201527f426f72696e674d6174683a204d756c204f766572666c6f7700000000000000006044820152606401610f49565b60008082116140a75760405162461bcd60e51b815260206004820152601460248201527f426f72696e674d6174683a20446976207a65726f0000000000000000000000006044820152606401610f49565b6125618284614bc8565b6000612561836001600160a01b03841661429d565b6000612561836001600160a01b0384166142ec565b604080516000808252602082019092526001600160a01b0384169083906040516141059190614962565b60006040518083038185875af1925050503d8060008114614142576040519150601f19603f3d011682016040523d82523d6000602084013e614147565b606091505b50509050806139b75760405162461bcd60e51b815260206004820152602360248201527f5472616e7366657248656c7065723a204554485f5452414e534645525f46414960448201527f4c454400000000000000000000000000000000000000000000000000000000006064820152608401610f49565b6040516001600160a01b03838116602483015260448201839052600091829186169063a9059cbb906064016133a9565b815460009082106142675760405162461bcd60e51b815260206004820152602260248201527f456e756d657261626c655365743a20696e646578206f7574206f6620626f756e60448201527f64730000000000000000000000000000000000000000000000000000000000006064820152608401610f49565b82600001828154811061428a57634e487b7160e01b600052603260045260246000fd5b9060005260206000200154905092915050565b60008181526001830160205260408120546142e457508154600181810184556000848152602080822090930184905584548482528286019093526040902091909155610f7e565b506000610f7e565b600081815260018301602052604081205480156143ff576000614310600183614cf2565b855490915060009061432490600190614cf2565b9050600086600001828154811061434b57634e487b7160e01b600052603260045260246000fd5b906000526020600020015490508087600001848154811061437c57634e487b7160e01b600052603260045260246000fd5b600091825260209091200155614393836001614b88565b600082815260018901602052604090205586548790806143c357634e487b7160e01b600052603160045260246000fd5b60019003818190600052602060002001600090559055866001016000878152602001908152602001600020600090556001945050505050610f7e565b6000915050610f7e565b82805461441590614d5a565b90600052602060002090601f016020900481019282614437576000855561447d565b82601f106144505782800160ff1982351617855561447d565b8280016001018555821561447d579182015b8281111561447d578235825591602001919060010190614462565b5061381692915061453a565b82805461449590614d5a565b90600052602060002090601f0160209004810192826144b7576000855561447d565b82601f106144c8578054855561447d565b8280016001018555821561447d57600052602060002091601f016020900482015b8281111561447d5782548255916001019190600101906144e9565b50805461451090614d5a565b6000825580601f10614520575050565b601f01602090049060005260206000209081019061327091905b5b80821115613816576000815560010161453b565b60008083601f840112614560578182fd5b50813567ffffffffffffffff811115614577578182fd5b6020830191508360208260051b850101111561229457600080fd5b60008083601f8401126145a3578182fd5b50813567ffffffffffffffff8111156145ba578182fd5b60208301915083602082850101111561229457600080fd5b6000602082840312156145e3578081fd5b813561256181614dc0565b60008060008060008060008060008060006101608c8e03121561460f578687fd5b8b3561461a81614dc0565b9a5060208c013561462a81614dc0565b995060408c013561463a81614dc0565b985060608c0135975060808c0135965060a08c0135955060c08c0135945060e08c013593506101008c013561466e81614dc0565b92506101208c013561467f81614dc0565b91506101408c013561469081614dc0565b809150509295989b509295989b9093969950565b600080604083850312156146b6578182fd5b82356146c181614dc0565b915060208301356146d181614dd5565b809150509250929050565b60008060008060008060008060008060006101608c8e03121561460f578081fd5b600080600060608486031215614711578283fd5b833561471c81614dc0565b925060208401359150604084013561473381614dd5565b809150509250925092565b60008060008060408587031215614753578384fd5b843567ffffffffffffffff8082111561476a578586fd5b6147768883890161454f565b9096509450602087013591508082111561478e578384fd5b5061479b8782880161454f565b95989497509550505050565b6000602082840312156147b8578081fd5b813561256181614dd5565b6000602082840312156147d4578081fd5b815161256181614dd5565b6000602082840312156147f0578081fd5b5035919050565b60008060408385031215614809578182fd5b8235915060208301356146d181614dc0565b6000806040838503121561482d578182fd5b50508035926020909101359150565b6000806020838503121561484e578182fd5b823567ffffffffffffffff811115614864578283fd5b61487085828601614592565b90969095509350505050565b60008060008060408587031215614891578182fd5b843567ffffffffffffffff808211156148a8578384fd5b6148b488838901614592565b909650945060208701359150808211156148cc578384fd5b5061479b87828801614592565b6000602082840312156148ea578081fd5b5051919050565b60008060408385031215614903578182fd5b8235915060208301356146d181614dd5565b600060208284031215614926578081fd5b815160ff81168114612561578182fd5b6000815180845261494e816020860160208601614d2e565b601f01601f19169290920160200192915050565b60008251614974818460208701614d2e565b9190910192915050565b8183823760009101908152919050565b600080835461499c81614d5a565b600182811680156149b457600181146149c5576149f1565b60ff198416875282870194506149f1565b8786526020808720875b858110156149e85781548a8201529084019082016149cf565b50505082870194505b50929695505050505050565b6000602080830181845280855180835260408601915060408160051b8701019250838701855b82811015614a5157603f19888603018452614a3f858351614936565b94509285019290850190600101614a23565b5092979650505050505050565b6020815260006125616020830184614936565b60208152816020820152818360408301376000818301604090810191909152601f909201601f19160101919050565b604081526000614ab36040830185614936565b90508260208301529392505050565b60006020808352818454614ad581614d5a565b80848701526040600180841660008114614af65760018114614b0a57614b35565b60ff19851689840152606089019550614b35565b898852868820885b85811015614b2d5781548b8201860152908301908801614b12565b8a0184019650505b509398975050505050505050565b6000808335601e19843603018112614b59578283fd5b83018035915067ffffffffffffffff821115614b73578283fd5b60200191503681900382131561229457600080fd5b60008219821115614b9b57614b9b614daa565b500190565b600063ffffffff808316818516808303821115614bbf57614bbf614daa565b01949350505050565b600082614be357634e487b7160e01b81526012600452602481fd5b500490565b600181815b80851115614c23578160001904821115614c0957614c09614daa565b80851615614c1657918102915b93841c9390800290614bed565b509250929050565b60006125618383600082614c4157506001610f7e565b81614c4e57506000610f7e565b8160018114614c645760028114614c6e57614c8a565b6001915050610f7e565b60ff841115614c7f57614c7f614daa565b50506001821b610f7e565b5060208310610133831016604e8410600b8410161715614cad575081810a610f7e565b614cb78383614be8565b8060001904821115614ccb57614ccb614daa565b029392505050565b6000816000190483118215151615614ced57614ced614daa565b500290565b600082821015614d0457614d04614daa565b500390565b600063ffffffff83811690831681811015614d2657614d26614daa565b039392505050565b60005b83811015614d49578181015183820152602001614d31565b838111156126d85750506000910152565b600181811c90821680614d6e57607f821691505b60208210811415611d5457634e487b7160e01b600052602260045260246000fd5b6000600019821415614da357614da3614daa565b5060010190565b634e487b7160e01b600052601160045260246000fd5b6001600160a01b038116811461327057600080fd5b801515811461327057600080fdfe4920756e6465727374616e642074686174204920616d20696e746572616374696e672077697468206120736d61727420636f6e74726163742e204920756e6465727374616e64207468617420746f6b656e7320636f6d6d6974656420617265207375626a65637420746f2074686520746f6b656e2069737375657220616e64206c6f63616c206c617773207768657265206170706c696361626c652e204920726576696577656420636f6465206f662074686520736d61727420636f6e747261637420616e6420756e6465727374616e642069742066756c6c792e204920616772656520746f206e6f7420686f6c6420646576656c6f70657273206f72206f746865722070656f706c65206173736f6369617465642077697468207468652070726f6a656374206c6961626c6520666f7220616e79206c6f73736573206f72206d6973756e6465727374616e64696e6773a2646970667358221220bde848fd32f16b6bd613c906c97dfefcc682657bd1642adb59568ddf8a9945a264736f6c63430008040033",
  "linkReferences": {},
  "deployedLinkReferences": {}
}