{
  "_format": "hh-sol-artifact-1",
  "contractName": "Crowdsale",
  "sourceName": "contracts/Auctions/Crowdsale.sol",
  "abi": [
    {
      "anonymous": false,
      "inputs": [
        {
          "indexed": false,
          "internalType": "address",
          "name": "addr",
          "type": "address"
        },
        {
          "indexed": false,
          "internalType": "uint256",
          "name": "commitment",
          "type": "uint256"
        }
      ],
      "name": "AddedCommitment",
      "type": "event"
    },
    {
      "anonymous": false,
      "inputs": [
        {
          "indexed": true,
          "internalType": "address",
          "name": "beneficiary",
          "type": "address"
        },
        {
          "indexed": true,
          "internalType": "address",
          "name": "caller",
          "type": "address"
        }
      ],
      "name": "AdminRoleGranted",
      "type": "event"
    },
    {
      "anonymous": false,
      "inputs": [
        {
          "indexed": true,
          "internalType": "address",
          "name": "beneficiary",
          "type": "address"
        },
        {
          "indexed": true,
          "internalType": "address",
          "name": "caller",
          "type": "address"
        }
      ],
      "name": "AdminRoleRemoved",
      "type": "event"
    },
    {
      "anonymous": false,
      "inputs": [],
      "name": "AuctionCancelled",
      "type": "event"
    },
    {
      "anonymous": false,
      "inputs": [],
      "name": "AuctionFinalized",
      "type": "event"
    },
    {
      "anonymous": false,
      "inputs": [
        {
          "indexed": false,
          "internalType": "uint256",
          "name": "rate",
          "type": "uint256"
        },
        {
          "indexed": false,
          "internalType": "uint256",
          "name": "goal",
          "type": "uint256"
        }
      ],
      "name": "AuctionPriceUpdated",
      "type": "event"
    },
    {
      "anonymous": false,
      "inputs": [
        {
          "indexed": false,
          "internalType": "uint256",
          "name": "startTime",
          "type": "uint256"
        },
        {
          "indexed": false,
          "internalType": "uint256",
          "name": "endTime",
          "type": "uint256"
        }
      ],
      "name": "AuctionTimeUpdated",
      "type": "event"
    },
    {
      "anonymous": false,
      "inputs": [
        {
          "indexed": false,
          "internalType": "address",
          "name": "wallet",
          "type": "address"
        }
      ],
      "name": "AuctionWalletUpdated",
      "type": "event"
    },
    {
      "anonymous": false,
      "inputs": [
        {
          "indexed": true,
          "internalType": "string",
          "name": "_name",
          "type": "string"
        },
        {
          "indexed": false,
          "internalType": "string",
          "name": "_data",
          "type": "string"
        }
      ],
      "name": "DocumentRemoved",
      "type": "event"
    },
    {
      "anonymous": false,
      "inputs": [
        {
          "indexed": true,
          "internalType": "string",
          "name": "_name",
          "type": "string"
        },
        {
          "indexed": false,
          "internalType": "string",
          "name": "_data",
          "type": "string"
        }
      ],
      "name": "DocumentUpdated",
      "type": "event"
    },
    {
      "anonymous": false,
      "inputs": [
        {
          "indexed": true,
          "internalType": "address",
          "name": "beneficiary",
          "type": "address"
        },
        {
          "indexed": true,
          "internalType": "address",
          "name": "caller",
          "type": "address"
        }
      ],
      "name": "MinterRoleGranted",
      "type": "event"
    },
    {
      "anonymous": false,
      "inputs": [
        {
          "indexed": true,
          "internalType": "address",
          "name": "beneficiary",
          "type": "address"
        },
        {
          "indexed": true,
          "internalType": "address",
          "name": "caller",
          "type": "address"
        }
      ],
      "name": "MinterRoleRemoved",
      "type": "event"
    },
    {
      "anonymous": false,
      "inputs": [
        {
          "indexed": true,
          "internalType": "address",
          "name": "beneficiary",
          "type": "address"
        },
        {
          "indexed": true,
          "internalType": "address",
          "name": "caller",
          "type": "address"
        }
      ],
      "name": "OperatorRoleGranted",
      "type": "event"
    },
    {
      "anonymous": false,
      "inputs": [
        {
          "indexed": true,
          "internalType": "address",
          "name": "beneficiary",
          "type": "address"
        },
        {
          "indexed": true,
          "internalType": "address",
          "name": "caller",
          "type": "address"
        }
      ],
      "name": "OperatorRoleRemoved",
      "type": "event"
    },
    {
      "anonymous": false,
      "inputs": [
        {
          "indexed": true,
          "internalType": "bytes32",
          "name": "role",
          "type": "bytes32"
        },
        {
          "indexed": true,
          "internalType": "bytes32",
          "name": "previousAdminRole",
          "type": "bytes32"
        },
        {
          "indexed": true,
          "internalType": "bytes32",
          "name": "newAdminRole",
          "type": "bytes32"
        }
      ],
      "name": "RoleAdminChanged",
      "type": "event"
    },
    {
      "anonymous": false,
      "inputs": [
        {
          "indexed": true,
          "internalType": "bytes32",
          "name": "role",
          "type": "bytes32"
        },
        {
          "indexed": true,
          "internalType": "address",
          "name": "account",
          "type": "address"
        },
        {
          "indexed": true,
          "internalType": "address",
          "name": "sender",
          "type": "address"
        }
      ],
      "name": "RoleGranted",
      "type": "event"
    },
    {
      "anonymous": false,
      "inputs": [
        {
          "indexed": true,
          "internalType": "bytes32",
          "name": "role",
          "type": "bytes32"
        },
        {
          "indexed": true,
          "internalType": "address",
          "name": "account",
          "type": "address"
        },
        {
          "indexed": true,
          "internalType": "address",
          "name": "sender",
          "type": "address"
        }
      ],
      "name": "RoleRevoked",
      "type": "event"
    },
    {
      "anonymous": false,
      "inputs": [
        {
          "indexed": true,
          "internalType": "address",
          "name": "beneficiary",
          "type": "address"
        },
        {
          "indexed": true,
          "internalType": "address",
          "name": "caller",
          "type": "address"
        }
      ],
      "name": "SmartContractRoleGranted",
      "type": "event"
    },
    {
      "anonymous": false,
      "inputs": [
        {
          "indexed": true,
          "internalType": "address",
          "name": "beneficiary",
          "type": "address"
        },
        {
          "indexed": true,
          "internalType": "address",
          "name": "caller",
          "type": "address"
        }
      ],
      "name": "SmartContractRoleRemoved",
      "type": "event"
    },
    {
      "inputs": [],
      "name": "DEFAULT_ADMIN_ROLE",
      "outputs": [
        {
          "internalType": "bytes32",
          "name": "",
          "type": "bytes32"
        }
      ],
      "stateMutability": "view",
      "type": "function"
    },
    {
      "inputs": [],
      "name": "MINTER_ROLE",
      "outputs": [
        {
          "internalType": "bytes32",
          "name": "",
          "type": "bytes32"
        }
      ],
      "stateMutability": "view",
      "type": "function"
    },
    {
      "inputs": [],
      "name": "OPERATOR_ROLE",
      "outputs": [
        {
          "internalType": "bytes32",
          "name": "",
          "type": "bytes32"
        }
      ],
      "stateMutability": "view",
      "type": "function"
    },
    {
      "inputs": [],
      "name": "SMART_CONTRACT_ROLE",
      "outputs": [
        {
          "internalType": "bytes32",
          "name": "",
          "type": "bytes32"
        }
      ],
      "stateMutability": "view",
      "type": "function"
    },
    {
      "inputs": [
        {
          "internalType": "address",
          "name": "_address",
          "type": "address"
        }
      ],
      "name": "addAdminRole",
      "outputs": [],
      "stateMutability": "nonpayable",
      "type": "function"
    },
    {
      "inputs": [
        {
          "internalType": "address",
          "name": "_address",
          "type": "address"
        }
      ],
      "name": "addMinterRole",
      "outputs": [],
      "stateMutability": "nonpayable",
      "type": "function"
    },
    {
      "inputs": [
        {
          "internalType": "address",
          "name": "_address",
          "type": "address"
        }
      ],
      "name": "addOperatorRole",
      "outputs": [],
      "stateMutability": "nonpayable",
      "type": "function"
    },
    {
      "inputs": [
        {
          "internalType": "address",
          "name": "_address",
          "type": "address"
        }
      ],
      "name": "addSmartContractRole",
      "outputs": [],
      "stateMutability": "nonpayable",
      "type": "function"
    },
    {
      "inputs": [],
      "name": "auctionEnded",
      "outputs": [
        {
          "internalType": "bool",
          "name": "",
          "type": "bool"
        }
      ],
      "stateMutability": "view",
      "type": "function"
    },
    {
      "inputs": [],
      "name": "auctionSuccessful",
      "outputs": [
        {
          "internalType": "bool",
          "name": "",
          "type": "bool"
        }
      ],
      "stateMutability": "view",
      "type": "function"
    },
    {
      "inputs": [],
      "name": "auctionToken",
      "outputs": [
        {
          "internalType": "address",
          "name": "",
          "type": "address"
        }
      ],
      "stateMutability": "view",
      "type": "function"
    },
    {
      "inputs": [
        {
          "internalType": "uint256",
          "name": "_commitment",
          "type": "uint256"
        }
      ],
      "name": "calculateCommitment",
      "outputs": [
        {
          "internalType": "uint256",
          "name": "committed",
          "type": "uint256"
        }
      ],
      "stateMutability": "view",
      "type": "function"
    },
    {
      "inputs": [],
      "name": "cancelAuction",
      "outputs": [],
      "stateMutability": "nonpayable",
      "type": "function"
    },
    {
      "inputs": [
        {
          "internalType": "address",
          "name": "",
          "type": "address"
        }
      ],
      "name": "claimed",
      "outputs": [
        {
          "internalType": "uint256",
          "name": "",
          "type": "uint256"
        }
      ],
      "stateMutability": "view",
      "type": "function"
    },
    {
      "inputs": [
        {
          "internalType": "address payable",
          "name": "_beneficiary",
          "type": "address"
        },
        {
          "internalType": "bool",
          "name": "readAndAgreedToMarketParticipationAgreement",
          "type": "bool"
        }
      ],
      "name": "commitEth",
      "outputs": [],
      "stateMutability": "payable",
      "type": "function"
    },
    {
      "inputs": [
        {
          "internalType": "uint256",
          "name": "_amount",
          "type": "uint256"
        },
        {
          "internalType": "bool",
          "name": "readAndAgreedToMarketParticipationAgreement",
          "type": "bool"
        }
      ],
      "name": "commitTokens",
      "outputs": [],
      "stateMutability": "nonpayable",
      "type": "function"
    },
    {
      "inputs": [
        {
          "internalType": "address",
          "name": "_from",
          "type": "address"
        },
        {
          "internalType": "uint256",
          "name": "_amount",
          "type": "uint256"
        },
        {
          "internalType": "bool",
          "name": "readAndAgreedToMarketParticipationAgreement",
          "type": "bool"
        }
      ],
      "name": "commitTokensFrom",
      "outputs": [],
      "stateMutability": "nonpayable",
      "type": "function"
    },
    {
      "inputs": [
        {
          "internalType": "address",
          "name": "",
          "type": "address"
        }
      ],
      "name": "commitments",
      "outputs": [
        {
          "internalType": "uint256",
          "name": "",
          "type": "uint256"
        }
      ],
      "stateMutability": "view",
      "type": "function"
    },
    {
      "inputs": [
        {
          "internalType": "bool",
          "name": "_status",
          "type": "bool"
        }
      ],
      "name": "enableList",
      "outputs": [],
      "stateMutability": "nonpayable",
      "type": "function"
    },
    {
      "inputs": [],
      "name": "finalize",
      "outputs": [],
      "stateMutability": "nonpayable",
      "type": "function"
    },
    {
      "inputs": [],
      "name": "finalizeTimeExpired",
      "outputs": [
        {
          "internalType": "bool",
          "name": "",
          "type": "bool"
        }
      ],
      "stateMutability": "view",
      "type": "function"
    },
    {
      "inputs": [],
      "name": "finalized",
      "outputs": [
        {
          "internalType": "bool",
          "name": "",
          "type": "bool"
        }
      ],
      "stateMutability": "view",
      "type": "function"
    },
    {
      "inputs": [],
      "name": "getAllDocuments",
      "outputs": [
        {
          "internalType": "string[]",
          "name": "",
          "type": "string[]"
        }
      ],
      "stateMutability": "view",
      "type": "function"
    },
    {
      "inputs": [],
      "name": "getBaseInformation",
      "outputs": [
        {
          "internalType": "address",
          "name": "",
          "type": "address"
        },
        {
          "internalType": "uint64",
          "name": "",
          "type": "uint64"
        },
        {
          "internalType": "uint64",
          "name": "",
          "type": "uint64"
        },
        {
          "internalType": "bool",
          "name": "",
          "type": "bool"
        }
      ],
      "stateMutability": "view",
      "type": "function"
    },
    {
      "inputs": [
        {
          "internalType": "address",
          "name": "_funder",
          "type": "address"
        },
        {
          "internalType": "address",
          "name": "_token",
          "type": "address"
        },
        {
          "internalType": "address",
          "name": "_paymentCurrency",
          "type": "address"
        },
        {
          "internalType": "uint256",
          "name": "_totalTokens",
          "type": "uint256"
        },
        {
          "internalType": "uint256",
          "name": "_startTime",
          "type": "uint256"
        },
        {
          "internalType": "uint256",
          "name": "_endTime",
          "type": "uint256"
        },
        {
          "internalType": "uint256",
          "name": "_rate",
          "type": "uint256"
        },
        {
          "internalType": "uint256",
          "name": "_goal",
          "type": "uint256"
        },
        {
          "internalType": "address",
          "name": "_admin",
          "type": "address"
        },
        {
          "internalType": "address",
          "name": "_pointList",
          "type": "address"
        },
        {
          "internalType": "address payable",
          "name": "_wallet",
          "type": "address"
        }
      ],
      "name": "getCrowdsaleInitData",
      "outputs": [
        {
          "internalType": "bytes",
          "name": "_data",
          "type": "bytes"
        }
      ],
      "stateMutability": "pure",
      "type": "function"
    },
    {
      "inputs": [
        {
          "internalType": "string",
          "name": "_name",
          "type": "string"
        }
      ],
      "name": "getDocument",
      "outputs": [
        {
          "internalType": "string",
          "name": "",
          "type": "string"
        },
        {
          "internalType": "uint256",
          "name": "",
          "type": "uint256"
        }
      ],
      "stateMutability": "view",
      "type": "function"
    },
    {
      "inputs": [],
      "name": "getDocumentCount",
      "outputs": [
        {
          "internalType": "uint256",
          "name": "",
          "type": "uint256"
        }
      ],
      "stateMutability": "view",
      "type": "function"
    },
    {
      "inputs": [
        {
          "internalType": "uint256",
          "name": "_index",
          "type": "uint256"
        }
      ],
      "name": "getDocumentName",
      "outputs": [
        {
          "internalType": "string",
          "name": "",
          "type": "string"
        }
      ],
      "stateMutability": "view",
      "type": "function"
    },
    {
      "inputs": [
        {
          "internalType": "bytes32",
          "name": "role",
          "type": "bytes32"
        }
      ],
      "name": "getRoleAdmin",
      "outputs": [
        {
          "internalType": "bytes32",
          "name": "",
          "type": "bytes32"
        }
      ],
      "stateMutability": "view",
      "type": "function"
    },
    {
      "inputs": [
        {
          "internalType": "bytes32",
          "name": "role",
          "type": "bytes32"
        },
        {
          "internalType": "uint256",
          "name": "index",
          "type": "uint256"
        }
      ],
      "name": "getRoleMember",
      "outputs": [
        {
          "internalType": "address",
          "name": "",
          "type": "address"
        }
      ],
      "stateMutability": "view",
      "type": "function"
    },
    {
      "inputs": [
        {
          "internalType": "bytes32",
          "name": "role",
          "type": "bytes32"
        }
      ],
      "name": "getRoleMemberCount",
      "outputs": [
        {
          "internalType": "uint256",
          "name": "",
          "type": "uint256"
        }
      ],
      "stateMutability": "view",
      "type": "function"
    },
    {
      "inputs": [
        {
          "internalType": "uint256",
          "name": "_amount",
          "type": "uint256"
        }
      ],
      "name": "getTokenAmount",
      "outputs": [
        {
          "internalType": "uint256",
          "name": "",
          "type": "uint256"
        }
      ],
      "stateMutability": "view",
      "type": "function"
    },
    {
      "inputs": [],
      "name": "getTotalTokens",
      "outputs": [
        {
          "internalType": "uint256",
          "name": "",
          "type": "uint256"
        }
      ],
      "stateMutability": "view",
      "type": "function"
    },
    {
      "inputs": [
        {
          "internalType": "bytes32",
          "name": "role",
          "type": "bytes32"
        },
        {
          "internalType": "address",
          "name": "account",
          "type": "address"
        }
      ],
      "name": "grantRole",
      "outputs": [],
      "stateMutability": "nonpayable",
      "type": "function"
    },
    {
      "inputs": [
        {
          "internalType": "address",
          "name": "_address",
          "type": "address"
        }
      ],
      "name": "hasAdminRole",
      "outputs": [
        {
          "internalType": "bool",
          "name": "",
          "type": "bool"
        }
      ],
      "stateMutability": "view",
      "type": "function"
    },
    {
      "inputs": [
        {
          "internalType": "address",
          "name": "_address",
          "type": "address"
        }
      ],
      "name": "hasMinterRole",
      "outputs": [
        {
          "internalType": "bool",
          "name": "",
          "type": "bool"
        }
      ],
      "stateMutability": "view",
      "type": "function"
    },
    {
      "inputs": [
        {
          "internalType": "address",
          "name": "_address",
          "type": "address"
        }
      ],
      "name": "hasOperatorRole",
      "outputs": [
        {
          "internalType": "bool",
          "name": "",
          "type": "bool"
        }
      ],
      "stateMutability": "view",
      "type": "function"
    },
    {
      "inputs": [
        {
          "internalType": "bytes32",
          "name": "role",
          "type": "bytes32"
        },
        {
          "internalType": "address",
          "name": "account",
          "type": "address"
        }
      ],
      "name": "hasRole",
      "outputs": [
        {
          "internalType": "bool",
          "name": "",
          "type": "bool"
        }
      ],
      "stateMutability": "view",
      "type": "function"
    },
    {
      "inputs": [
        {
          "internalType": "address",
          "name": "_address",
          "type": "address"
        }
      ],
      "name": "hasSmartContractRole",
      "outputs": [
        {
          "internalType": "bool",
          "name": "",
          "type": "bool"
        }
      ],
      "stateMutability": "view",
      "type": "function"
    },
    {
      "inputs": [
        {
          "internalType": "bytes",
          "name": "_data",
          "type": "bytes"
        }
      ],
      "name": "init",
      "outputs": [],
      "stateMutability": "payable",
      "type": "function"
    },
    {
      "inputs": [
        {
          "internalType": "address",
          "name": "_admin",
          "type": "address"
        }
      ],
      "name": "initAccessControls",
      "outputs": [],
      "stateMutability": "nonpayable",
      "type": "function"
    },
    {
      "inputs": [
        {
          "internalType": "address",
          "name": "_funder",
          "type": "address"
        },
        {
          "internalType": "address",
          "name": "_token",
          "type": "address"
        },
        {
          "internalType": "address",
          "name": "_paymentCurrency",
          "type": "address"
        },
        {
          "internalType": "uint256",
          "name": "_totalTokens",
          "type": "uint256"
        },
        {
          "internalType": "uint256",
          "name": "_startTime",
          "type": "uint256"
        },
        {
          "internalType": "uint256",
          "name": "_endTime",
          "type": "uint256"
        },
        {
          "internalType": "uint256",
          "name": "_rate",
          "type": "uint256"
        },
        {
          "internalType": "uint256",
          "name": "_goal",
          "type": "uint256"
        },
        {
          "internalType": "address",
          "name": "_admin",
          "type": "address"
        },
        {
          "internalType": "address",
          "name": "_pointList",
          "type": "address"
        },
        {
          "internalType": "address payable",
          "name": "_wallet",
          "type": "address"
        }
      ],
      "name": "initCrowdsale",
      "outputs": [],
      "stateMutability": "nonpayable",
      "type": "function"
    },
    {
      "inputs": [
        {
          "internalType": "bytes",
          "name": "_data",
          "type": "bytes"
        }
      ],
      "name": "initMarket",
      "outputs": [],
      "stateMutability": "nonpayable",
      "type": "function"
    },
    {
      "inputs": [],
      "name": "isOpen",
      "outputs": [
        {
          "internalType": "bool",
          "name": "",
          "type": "bool"
        }
      ],
      "stateMutability": "view",
      "type": "function"
    },
    {
      "inputs": [],
      "name": "marketInfo",
      "outputs": [
        {
          "internalType": "uint64",
          "name": "startTime",
          "type": "uint64"
        },
        {
          "internalType": "uint64",
          "name": "endTime",
          "type": "uint64"
        },
        {
          "internalType": "uint128",
          "name": "totalTokens",
          "type": "uint128"
        }
      ],
      "stateMutability": "view",
      "type": "function"
    },
    {
      "inputs": [],
      "name": "marketParticipationAgreement",
      "outputs": [
        {
          "internalType": "string",
          "name": "",
          "type": "string"
        }
      ],
      "stateMutability": "pure",
      "type": "function"
    },
    {
      "inputs": [],
      "name": "marketPrice",
      "outputs": [
        {
          "internalType": "uint128",
          "name": "rate",
          "type": "uint128"
        },
        {
          "internalType": "uint128",
          "name": "goal",
          "type": "uint128"
        }
      ],
      "stateMutability": "view",
      "type": "function"
    },
    {
      "inputs": [],
      "name": "marketStatus",
      "outputs": [
        {
          "internalType": "uint128",
          "name": "commitmentsTotal",
          "type": "uint128"
        },
        {
          "internalType": "bool",
          "name": "finalized",
          "type": "bool"
        },
        {
          "internalType": "bool",
          "name": "usePointList",
          "type": "bool"
        }
      ],
      "stateMutability": "view",
      "type": "function"
    },
    {
      "inputs": [],
      "name": "marketTemplate",
      "outputs": [
        {
          "internalType": "uint256",
          "name": "",
          "type": "uint256"
        }
      ],
      "stateMutability": "view",
      "type": "function"
    },
    {
      "inputs": [],
      "name": "paymentCurrency",
      "outputs": [
        {
          "internalType": "address",
          "name": "",
          "type": "address"
        }
      ],
      "stateMutability": "view",
      "type": "function"
    },
    {
      "inputs": [],
      "name": "pointList",
      "outputs": [
        {
          "internalType": "address",
          "name": "",
          "type": "address"
        }
      ],
      "stateMutability": "view",
      "type": "function"
    },
    {
      "inputs": [
        {
          "internalType": "address",
          "name": "_address",
          "type": "address"
        }
      ],
      "name": "removeAdminRole",
      "outputs": [],
      "stateMutability": "nonpayable",
      "type": "function"
    },
    {
      "inputs": [
        {
          "internalType": "string",
          "name": "_name",
          "type": "string"
        }
      ],
      "name": "removeDocument",
      "outputs": [],
      "stateMutability": "nonpayable",
      "type": "function"
    },
    {
      "inputs": [
        {
          "internalType": "address",
          "name": "_address",
          "type": "address"
        }
      ],
      "name": "removeMinterRole",
      "outputs": [],
      "stateMutability": "nonpayable",
      "type": "function"
    },
    {
      "inputs": [
        {
          "internalType": "address",
          "name": "_address",
          "type": "address"
        }
      ],
      "name": "removeOperatorRole",
      "outputs": [],
      "stateMutability": "nonpayable",
      "type": "function"
    },
    {
      "inputs": [
        {
          "internalType": "address",
          "name": "_address",
          "type": "address"
        }
      ],
      "name": "removeSmartContractRole",
      "outputs": [],
      "stateMutability": "nonpayable",
      "type": "function"
    },
    {
      "inputs": [
        {
          "internalType": "bytes32",
          "name": "role",
          "type": "bytes32"
        },
        {
          "internalType": "address",
          "name": "account",
          "type": "address"
        }
      ],
      "name": "renounceRole",
      "outputs": [],
      "stateMutability": "nonpayable",
      "type": "function"
    },
    {
      "inputs": [
        {
          "internalType": "bytes32",
          "name": "role",
          "type": "bytes32"
        },
        {
          "internalType": "address",
          "name": "account",
          "type": "address"
        }
      ],
      "name": "revokeRole",
      "outputs": [],
      "stateMutability": "nonpayable",
      "type": "function"
    },
    {
      "inputs": [
        {
          "internalType": "uint256",
          "name": "_rate",
          "type": "uint256"
        },
        {
          "internalType": "uint256",
          "name": "_goal",
          "type": "uint256"
        }
      ],
      "name": "setAuctionPrice",
      "outputs": [],
      "stateMutability": "nonpayable",
      "type": "function"
    },
    {
      "inputs": [
        {
          "internalType": "uint256",
          "name": "_startTime",
          "type": "uint256"
        },
        {
          "internalType": "uint256",
          "name": "_endTime",
          "type": "uint256"
        }
      ],
      "name": "setAuctionTime",
      "outputs": [],
      "stateMutability": "nonpayable",
      "type": "function"
    },
    {
      "inputs": [
        {
          "internalType": "address payable",
          "name": "_wallet",
          "type": "address"
        }
      ],
      "name": "setAuctionWallet",
      "outputs": [],
      "stateMutability": "nonpayable",
      "type": "function"
    },
    {
      "inputs": [
        {
          "internalType": "string",
          "name": "_name",
          "type": "string"
        },
        {
          "internalType": "string",
          "name": "_data",
          "type": "string"
        }
      ],
      "name": "setDocument",
      "outputs": [],
      "stateMutability": "nonpayable",
      "type": "function"
    },
    {
      "inputs": [
        {
          "internalType": "string[]",
          "name": "_name",
          "type": "string[]"
        },
        {
          "internalType": "string[]",
          "name": "_data",
          "type": "string[]"
        }
      ],
      "name": "setDocuments",
      "outputs": [],
      "stateMutability": "nonpayable",
      "type": "function"
    },
    {
      "inputs": [
        {
          "internalType": "address",
          "name": "_list",
          "type": "address"
        }
      ],
      "name": "setList",
      "outputs": [],
      "stateMutability": "nonpayable",
      "type": "function"
    },
    {
      "inputs": [],
      "name": "tokenPrice",
      "outputs": [
        {
          "internalType": "uint256",
          "name": "",
          "type": "uint256"
        }
      ],
      "stateMutability": "view",
      "type": "function"
    },
    {
      "inputs": [
        {
          "internalType": "address",
          "name": "_user",
          "type": "address"
        }
      ],
      "name": "tokensClaimable",
      "outputs": [
        {
          "internalType": "uint256",
          "name": "claimerCommitment",
          "type": "uint256"
        }
      ],
      "stateMutability": "view",
      "type": "function"
    },
    {
      "inputs": [],
      "name": "wallet",
      "outputs": [
        {
          "internalType": "address payable",
          "name": "",
          "type": "address"
        }
      ],
      "stateMutability": "view",
      "type": "function"
    },
    {
      "inputs": [
        {
          "internalType": "address payable",
          "name": "beneficiary",
          "type": "address"
        }
      ],
      "name": "withdrawTokens",
      "outputs": [],
      "stateMutability": "nonpayable",
      "type": "function"
    },
    {
      "inputs": [],
      "name": "withdrawTokens",
      "outputs": [],
      "stateMutability": "nonpayable",
      "type": "function"
    },
    {
      "stateMutability": "payable",
      "type": "receive"
    }
  ],
  "bytecode": "0x608060405234801561001057600080fd5b5060016005819055506180fb80620000296000396000f3fe6080604052600436106103fe5760003560e01c80638643337411610213578063c6b547e611610123578063dccfe310116100ab578063e8fcf7231161007a578063e8fcf72314610f4b578063f04899d314610f88578063f08b82e614610fb3578063f5b541a614610fde578063fc4e3e0a146110095761040d565b8063dccfe31014610ea3578063dde51f6d14610ecc578063e0e081d714610ef5578063e6594abd14610f225761040d565b8063ca15c873116100f2578063ca15c87314610dc0578063d539139314610dfd578063d547741f14610e28578063d69d3e6214610e51578063dc97e08214610e7a5761040d565b8063c6b547e614610cf4578063c884ef8314610d31578063c92bce8714610d6e578063c9fab05914610d975761040d565b80639a87222c116101a6578063adbf377611610175578063adbf377614610bfd578063b3f05b9714610c26578063b7928b1d14610c51578063c2507ac114610c7a578063c395fcb314610cb75761040d565b80639a87222c14610b555780639c64d0ae14610b7e5780639fa5f50b14610ba7578063a217fddf14610bd25761040d565b80639010d07c116101e25780639010d07c14610a8757806391d1485414610ac45780639478941c14610b0157806399fdb32014610b2a5761040d565b80638643337414610a055780638a845fc014610a305780638d8f2adb14610a595780638fa8b79014610a705761040d565b806345a153881161030e57806354f1e126116102a157806374cf9fc51161027057806374cf9fc51461091d5780637ccb6a64146109485780637ff9b5961461098657806381353c8e146109b1578063857d2608146109da5761040d565b806354f1e126146108655780636595171c1461088e5780636ae260c1146108b757806373973fcb146108e05761040d565b80634bb278f3116102dd5780634bb278f3146107ca5780634dc80e15146107e15780634ddf47d41461081e578063521eb2731461083a5761040d565b806345a153881461072157806347535d7b1461074d57806349df728c146107785780634b3e6abb146107a15761040d565b806324e4025b1161039157806336568abe1161036057806336568abe1461064e57806336d0054b146106775780633d15cc6d146106a25780633d1c2273146106cd5780633f16431a146106f85761040d565b806324e4025b146105b257806329762960146105db5780632f2ff15d146105f7578063314148e2146106205761040d565b806317026455116103cd57806317026455146104f65780631b3e460e14610521578063212f8a811461054c578063248a9ca3146105755761040d565b8063031bee0014610412578063099db0171461043f5780630cc4c0331461047c578063113b0ab2146104b95761040d565b3661040d5761040b611046565b005b600080fd5b34801561041e57600080fd5b50610427611081565b60405161043693929190616e1f565b60405180910390f35b34801561044b57600080fd5b50610466600480360381019061046191906155fb565b6110dd565b604051610473919061672b565b60405180910390f35b34801561048857600080fd5b506104a3600480360381019061049e9190615779565b611110565b6040516104b09190616761565b60405180910390f35b3480156104c557600080fd5b506104e060048036038101906104db91906155fb565b611157565b6040516104ed919061672b565b60405180910390f35b34801561050257600080fd5b5061050b61118a565b604051610518919061672b565b60405180910390f35b34801561052d57600080fd5b506105366111c5565b6040516105439190616ddb565b60405180910390f35b34801561055857600080fd5b50610573600480360381019061056e9190615869565b6111ca565b005b34801561058157600080fd5b5061059c6004803603810190610597919061597f565b61132f565b6040516105a99190616746565b60405180910390f35b3480156105be57600080fd5b506105d960048036038101906105d49190615bad565b61134e565b005b6105f560048036038101906105f0919061573d565b61159f565b005b34801561060357600080fd5b5061061e600480360381019061061991906159a8565b61173e565b005b34801561062c57600080fd5b506106356117b1565b60405161064594939291906166c4565b60405180910390f35b34801561065a57600080fd5b50610675600480360381019061067091906159a8565b61182f565b005b34801561068357600080fd5b5061068c6118b2565b604051610699919061672b565b60405180910390f35b3480156106ae57600080fd5b506106b7611923565b6040516106c49190616568565b60405180910390f35b3480156106d957600080fd5b506106e2611949565b6040516106ef9190616ddb565b60405180910390f35b34801561070457600080fd5b5061071f600480360381019061071a91906155fb565b611956565b005b34801561072d57600080fd5b506107366119e4565b604051610744929190616db2565b60405180910390f35b34801561075957600080fd5b50610762611a2e565b60405161076f919061672b565b60405180910390f35b34801561078457600080fd5b5061079f600480360381019061079a9190615624565b611a8b565b005b3480156107ad57600080fd5b506107c860048036038101906107c3919061592d565b611d78565b005b3480156107d657600080fd5b506107df611daa565b005b3480156107ed57600080fd5b50610808600480360381019061080391906155fb565b6121f0565b6040516108159190616ddb565b60405180910390f35b61083860048036038101906108339190615a20565b612350565b005b34801561084657600080fd5b5061084f612354565b60405161085c919061659e565b60405180910390f35b34801561087157600080fd5b5061088c600480360381019061088791906155fb565b61237a565b005b34801561089a57600080fd5b506108b560048036038101906108b091906155fb565b612408565b005b3480156108c357600080fd5b506108de60048036038101906108d99190615bad565b612479565b005b3480156108ec57600080fd5b5061090760048036038101906109029190615b1f565b6126b9565b6040516109149190616ddb565b60405180910390f35b34801561092957600080fd5b506109326127b6565b60405161093f91906167a7565b60405180910390f35b34801561095457600080fd5b5061096f600480360381019061096a9190615a65565b6127d9565b60405161097d9291906167c9565b60405180910390f35b34801561099257600080fd5b5061099b6128d9565b6040516109a89190616ddb565b60405180910390f35b3480156109bd57600080fd5b506109d860048036038101906109d39190615a20565b612914565b005b3480156109e657600080fd5b506109ef61296c565b6040516109fc9190616746565b60405180910390f35b348015610a1157600080fd5b50610a1a612990565b604051610a27919061672b565b60405180910390f35b348015610a3c57600080fd5b50610a576004803603810190610a5291906155fb565b612a42565b005b348015610a6557600080fd5b50610a6e612ad0565b005b348015610a7c57600080fd5b50610a85612adb565b005b348015610a9357600080fd5b50610aae6004803603810190610aa991906159e4565b612cde565b604051610abb9190616568565b60405180910390f35b348015610ad057600080fd5b50610aeb6004803603810190610ae691906159a8565b612d0f565b604051610af8919061672b565b60405180910390f35b348015610b0d57600080fd5b50610b286004803603810190610b2391906155fb565b612d40565b005b348015610b3657600080fd5b50610b3f612dce565b604051610b4c9190616568565b60405180910390f35b348015610b6157600080fd5b50610b7c6004803603810190610b779190615624565b612df4565b005b348015610b8a57600080fd5b50610ba56004803603810190610ba09190615aaa565b612ef1565b005b348015610bb357600080fd5b50610bbc612f15565b604051610bc99190616709565b60405180910390f35b348015610bde57600080fd5b50610be7612fee565b604051610bf49190616746565b60405180910390f35b348015610c0957600080fd5b50610c246004803603810190610c1f91906155fb565b612ff5565b005b348015610c3257600080fd5b50610c3b613083565b604051610c48919061672b565b60405180910390f35b348015610c5d57600080fd5b50610c786004803603810190610c7391906155fb565b61309d565b005b348015610c8657600080fd5b50610ca16004803603810190610c9c9190615b1f565b61312b565b604051610cae9190616ddb565b60405180910390f35b348015610cc357600080fd5b50610cde6004803603810190610cd991906155fb565b61313d565b604051610ceb919061672b565b60405180910390f35b348015610d0057600080fd5b50610d1b6004803603810190610d169190615b1f565b613153565b604051610d2891906167a7565b60405180910390f35b348015610d3d57600080fd5b50610d586004803603810190610d5391906155fb565b613270565b604051610d659190616ddb565b60405180910390f35b348015610d7a57600080fd5b50610d956004803603810190610d9091906158b8565b613288565b005b348015610da357600080fd5b50610dbe6004803603810190610db99190615779565b613366565b005b348015610dcc57600080fd5b50610de76004803603810190610de2919061597f565b613a5c565b604051610df49190616ddb565b60405180910390f35b348015610e0957600080fd5b50610e12613a82565b604051610e1f9190616746565b60405180910390f35b348015610e3457600080fd5b50610e4f6004803603810190610e4a91906159a8565b613aa6565b005b348015610e5d57600080fd5b50610e786004803603810190610e7391906155fb565b613b19565b005b348015610e8657600080fd5b50610ea16004803603810190610e9c9190615b71565b613b37565b005b348015610eaf57600080fd5b50610eca6004803603810190610ec591906155fb565b613b46565b005b348015610ed857600080fd5b50610ef36004803603810190610eee9190615a65565b613bb7565b005b348015610f0157600080fd5b50610f0a613bd7565b604051610f1993929190616d7b565b60405180910390f35b348015610f2e57600080fd5b50610f496004803603810190610f4491906155fb565b613c25565b005b348015610f5757600080fd5b50610f726004803603810190610f6d91906155fb565b613c9f565b604051610f7f9190616ddb565b60405180910390f35b348015610f9457600080fd5b50610f9d613cb7565b604051610faa9190616568565b60405180910390f35b348015610fbf57600080fd5b50610fc8613cdd565b604051610fd59190616ddb565b60405180910390f35b348015610fea57600080fd5b50610ff3613d18565b6040516110009190616746565b60405180910390f35b34801561101557600080fd5b50611030600480360381019061102b91906155fb565b613d3c565b60405161103d919061672b565b60405180910390f35b6040517f08c379a0000000000000000000000000000000000000000000000000000000008152600401611078906168bb565b60405180910390fd5b60078060000160009054906101000a900467ffffffffffffffff16908060000160089054906101000a900467ffffffffffffffff16908060000160109054906101000a90046fffffffffffffffffffffffffffffffff16905083565b60006111097f9f2df0fed2c77648de5860a4cc508cd0818c85b8b8a1ab4ceeef8d981c8956a683612d0f565b9050919050565b60608b8b8b8b8b8b8b8b8b8b8b6040516020016111379b9a999897969594939291906165b9565b60405160208183030381529060405290509b9a5050505050505050505050565b60006111837f9d49f397ae9ef1a834b569acb967799a367061e305932181a44f5773da873bfd83612d0f565b9050919050565b60004262093a80600760000160089054906101000a900467ffffffffffffffff1667ffffffffffffffff166111bf9190616f5a565b10905090565b600181565b60026005541415611210576040517f08c379a000000000000000000000000000000000000000000000000000000000815260040161120790616c9b565b60405180910390fd5b600260058190555073eeeeeeeeeeeeeeeeeeeeeeeeeeeeeeeeeeeeeeee73ffffffffffffffffffffffffffffffffffffffff16600b60009054906101000a900473ffffffffffffffffffffffffffffffffffffffff1673ffffffffffffffffffffffffffffffffffffffff1614156112bd576040517f08c379a00000000000000000000000000000000000000000000000000000000081526004016112b490616d3b565b60405180910390fd5b6000151581151514156112d3576112d2611046565b5b60006112de836126b9565b9050600081111561132157611316600b60009054906101000a900473ffffffffffffffffffffffffffffffffffffffff163383613d6f565b6113208482613e71565b5b506001600581905550505050565b6000806000838152602001908152602001600020600201549050919050565b6113573361313d565b61136057600080fd5b600081116113a3576040517f08c379a000000000000000000000000000000000000000000000000000000000815260040161139a90616cfb565b60405180910390fd5b600082116113e6576040517f08c379a00000000000000000000000000000000000000000000000000000000081526004016113dd906169fb565b60405180910390fd5b6000600860000160009054906101000a90046fffffffffffffffffffffffffffffffff166fffffffffffffffffffffffffffffffff161461145c576040517f08c379a00000000000000000000000000000000000000000000000000000000081526004016114539061691b565b60405180910390fd5b600760000160109054906101000a90046fffffffffffffffffffffffffffffffff166fffffffffffffffffffffffffffffffff16611499826141a6565b11156114da576040517f08c379a00000000000000000000000000000000000000000000000000000000081526004016114d190616bbb565b60405180910390fd5b6114e3826142b5565b600660000160006101000a8154816fffffffffffffffffffffffffffffffff02191690836fffffffffffffffffffffffffffffffff160217905550611527816142b5565b600660000160106101000a8154816fffffffffffffffffffffffffffffffff02191690836fffffffffffffffffffffffffffffffff1602179055507f622a57040c34e45abc5fadeb22e4c3c687cf48a096c86694cd21a7be9e7851ee8282604051611593929190616df6565b60405180910390a15050565b600260055414156115e5576040517f08c379a00000000000000000000000000000000000000000000000000000000081526004016115dc90616c9b565b60405180910390fd5b600260058190555073eeeeeeeeeeeeeeeeeeeeeeeeeeeeeeeeeeeeeeee73ffffffffffffffffffffffffffffffffffffffff16600b60009054906101000a900473ffffffffffffffffffffffffffffffffffffffff1673ffffffffffffffffffffffffffffffffffffffff1614611691576040517f08c379a000000000000000000000000000000000000000000000000000000000815260040161168890616afb565b60405180910390fd5b6000151581151514156116a7576116a6611046565b5b60006116b2346126b9565b905060006116c9823461431490919063ffffffff16565b905060008211156116df576116de8483613e71565b5b6000811115611730578373ffffffffffffffffffffffffffffffffffffffff166108fc829081150290604051600060405180830381858888f1935050505015801561172e573d6000803e3d6000fd5b505b505060016005819055505050565b6117646000808481526020019081526020016000206002015461175f61436d565b612d0f565b6117a3576040517f08c379a000000000000000000000000000000000000000000000000000000000815260040161179a9061687b565b60405180910390fd5b6117ad8282614375565b5050565b600080600080600960009054906101000a900473ffffffffffffffffffffffffffffffffffffffff16600760000160009054906101000a900467ffffffffffffffff16600760000160089054906101000a900467ffffffffffffffff16600860000160109054906101000a900460ff16935093509350935090919293565b61183761436d565b73ffffffffffffffffffffffffffffffffffffffff168173ffffffffffffffffffffffffffffffffffffffff16146118a4576040517f08c379a000000000000000000000000000000000000000000000000000000000815260040161189b90616d1b565b60405180910390fd5b6118ae8282614408565b5050565b6000600660000160109054906101000a90046fffffffffffffffffffffffffffffffff166fffffffffffffffffffffffffffffffff16600860000160009054906101000a90046fffffffffffffffffffffffffffffffff166fffffffffffffffffffffffffffffffff161015905090565b600b60009054906101000a900473ffffffffffffffffffffffffffffffffffffffff1681565b6000600480549050905090565b6119807f9d49f397ae9ef1a834b569acb967799a367061e305932181a44f5773da873bfd8261173e565b61198861436d565b73ffffffffffffffffffffffffffffffffffffffff168173ffffffffffffffffffffffffffffffffffffffff167f1d5f9ec24c6f91be922ea13ceaad919ad6554a41b5c26087f96289a9baf98ad260405160405180910390a350565b60068060000160009054906101000a90046fffffffffffffffffffffffffffffffff16908060000160109054906101000a90046fffffffffffffffffffffffffffffffff16905082565b6000600760000160009054906101000a900467ffffffffffffffff1667ffffffffffffffff164210158015611a865750600760000160089054906101000a900467ffffffffffffffff1667ffffffffffffffff164211155b905090565b60026005541415611ad1576040517f08c379a0000000000000000000000000000000000000000000000000000000008152600401611ac890616c9b565b60405180910390fd5b6002600581905550611ae16118b2565b15611c5057600860000160109054906101000a900460ff16611b38576040517f08c379a0000000000000000000000000000000000000000000000000000000008152600401611b2f90616b9b565b60405180910390fd5b6000611b43826121f0565b905060008111611b88576040517f08c379a0000000000000000000000000000000000000000000000000000000008152600401611b7f90616c7b565b60405180910390fd5b611bda81600e60008573ffffffffffffffffffffffffffffffffffffffff1673ffffffffffffffffffffffffffffffffffffffff1681526020019081526020016000205461449b90919063ffffffff16565b600e60008473ffffffffffffffffffffffffffffffffffffffff1673ffffffffffffffffffffffffffffffffffffffff16815260200190815260200160002081905550611c4a600960009054906101000a900473ffffffffffffffffffffffffffffffffffffffff1683836144f4565b50611d6d565b600760000160089054906101000a900467ffffffffffffffff1667ffffffffffffffff164211611cb5576040517f08c379a0000000000000000000000000000000000000000000000000000000008152600401611cac90616b7b565b60405180910390fd5b6000600d60008373ffffffffffffffffffffffffffffffffffffffff1673ffffffffffffffffffffffffffffffffffffffff1681526020019081526020016000205490506000600d60008473ffffffffffffffffffffffffffffffffffffffff1673ffffffffffffffffffffffffffffffffffffffff16815260200190815260200160002081905550611d6b600b60009054906101000a900473ffffffffffffffffffffffffffffffffffffffff1683836144f4565b505b600160058190555050565b611d813361313d565b611d8a57600080fd5b80600860000160116101000a81548160ff02191690831515021790555050565b60026005541415611df0576040517f08c379a0000000000000000000000000000000000000000000000000000000008152600401611de790616c9b565b60405180910390fd5b6002600581905550611e013361313d565b80611e5957503373ffffffffffffffffffffffffffffffffffffffff16600a60009054906101000a900473ffffffffffffffffffffffffffffffffffffffff1673ffffffffffffffffffffffffffffffffffffffff16145b80611e695750611e6833611157565b5b80611e785750611e7761118a565b5b611eb7576040517f08c379a0000000000000000000000000000000000000000000000000000000008152600401611eae90616cdb565b60405180910390fd5b6000600890508060000160109054906101000a900460ff1615611f0f576040517f08c379a0000000000000000000000000000000000000000000000000000000008152600401611f069061693b565b60405180910390fd5b600060079050611f1d6118b2565b156120d257611f2a612990565b611f69576040517f08c379a0000000000000000000000000000000000000000000000000000000008152600401611f6090616b1b565b60405180910390fd5b611fea600b60009054906101000a900473ffffffffffffffffffffffffffffffffffffffff16600a60009054906101000a900473ffffffffffffffffffffffffffffffffffffffff168460000160009054906101000a90046fffffffffffffffffffffffffffffffff166fffffffffffffffffffffffffffffffff166144f4565b60006120278360000160009054906101000a90046fffffffffffffffffffffffffffffffff166fffffffffffffffffffffffffffffffff166141a6565b90506000612070828460000160109054906101000a90046fffffffffffffffffffffffffffffffff166fffffffffffffffffffffffffffffffff1661431490919063ffffffff16565b905060008111156120cb576120ca600960009054906101000a900473ffffffffffffffffffffffffffffffffffffffff16600a60009054906101000a900473ffffffffffffffffffffffffffffffffffffffff16836144f4565b5b505061219b565b6120da612990565b612119576040517f08c379a000000000000000000000000000000000000000000000000000000000815260040161211090616b1b565b60405180910390fd5b61219a600960009054906101000a900473ffffffffffffffffffffffffffffffffffffffff16600a60009054906101000a900473ffffffffffffffffffffffffffffffffffffffff168360000160109054906101000a90046fffffffffffffffffffffffffffffffff166fffffffffffffffffffffffffffffffff166144f4565b5b60018260000160106101000a81548160ff0219169083151502179055507f32bebcfd2d04dbae321298091d96d2cb1d07279f59718cd83bd98245b8b82b5a60405160405180910390a150506001600581905550565b600080600960009054906101000a900473ffffffffffffffffffffffffffffffffffffffff1673ffffffffffffffffffffffffffffffffffffffff166370a08231306040518263ffffffff1660e01b815260040161224e9190616568565b60206040518083038186803b15801561226657600080fd5b505afa15801561227a573d6000803e3d6000fd5b505050506040513d601f19601f8201168201806040525081019061229e9190615b48565b90506122e8600d60008573ffffffffffffffffffffffffffffffffffffffff1673ffffffffffffffffffffffffffffffffffffffff168152602001908152602001600020546141a6565b915061233c600e60008573ffffffffffffffffffffffffffffffffffffffff1673ffffffffffffffffffffffffffffffffffffffff168152602001908152602001600020548361431490919063ffffffff16565b91508082111561234a578091505b50919050565b5050565b600a60009054906101000a900473ffffffffffffffffffffffffffffffffffffffff1681565b6123a47f9f2df0fed2c77648de5860a4cc508cd0818c85b8b8a1ab4ceeef8d981c8956a682613aa6565b6123ac61436d565b73ffffffffffffffffffffffffffffffffffffffff168173ffffffffffffffffffffffffffffffffffffffff167f56692a161ffec953ddf9def93b958ea8d1ec95e21b80870c66be91a4374dc4e360405160405180910390a350565b6124156000801b8261173e565b61241d61436d565b73ffffffffffffffffffffffffffffffffffffffff168173ffffffffffffffffffffffffffffffffffffffff167f2570ac42fd8b322dc453ada624dc2ed0e9bdd67f16f201a25bbd30468f2aa18760405160405180910390a350565b6124823361313d565b61248b57600080fd5b6402540be40082106124d2576040517f08c379a00000000000000000000000000000000000000000000000000000000081526004016124c990616c5b565b60405180910390fd5b6402540be4008110612519576040517f08c379a000000000000000000000000000000000000000000000000000000000815260040161251090616c5b565b60405180910390fd5b4282101561255c576040517f08c379a00000000000000000000000000000000000000000000000000000000081526004016125539061689b565b60405180910390fd5b81811161259e576040517f08c379a000000000000000000000000000000000000000000000000000000000815260040161259590616a3b565b60405180910390fd5b6000600860000160009054906101000a90046fffffffffffffffffffffffffffffffff166fffffffffffffffffffffffffffffffff1614612614576040517f08c379a000000000000000000000000000000000000000000000000000000000815260040161260b9061691b565b60405180910390fd5b61261d8261455c565b600760000160006101000a81548167ffffffffffffffff021916908367ffffffffffffffff1602179055506126518161455c565b600760000160086101000a81548167ffffffffffffffff021916908367ffffffffffffffff1602179055507f5725d1e4352d6944889e54837ffaefde55cdc0b55796b831365d61cd4c87fdb882826040516126ad929190616df6565b60405180910390a15050565b6000806126c5836141a6565b90506000612705600860000160009054906101000a90046fffffffffffffffffffffffffffffffff166fffffffffffffffffffffffffffffffff166141a6565b9050600760000160109054906101000a90046fffffffffffffffffffffffffffffffff166fffffffffffffffffffffffffffffffff1661274e838361449b90919063ffffffff16565b11156127ab576127a261279d82600760000160109054906101000a90046fffffffffffffffffffffffffffffffff166fffffffffffffffffffffffffffffffff1661431490919063ffffffff16565b6145b3565b925050506127b1565b83925050505b919050565b60606040518061018001604052806101518152602001617f756101519139905090565b60606000600284846040516127ef929190616538565b908152602001604051809103902060010160028585604051612812929190616538565b908152602001604051809103902060000160049054906101000a900467ffffffffffffffff1667ffffffffffffffff1681805461284e90617377565b80601f016020809104026020016040519081016040528092919081815260200182805461287a90617377565b80156128c75780601f1061289c576101008083540402835291602001916128c7565b820191906000526020600020905b8154815290600101906020018083116128aa57829003601f168201915b50505050509150915091509250929050565b6000600660000160009054906101000a90046fffffffffffffffffffffffffffffffff166fffffffffffffffffffffffffffffffff16905090565b60008060008060008060008060008060008c8c810190612934919061564d565b9a509a509a509a509a509a509a509a509a509a509a5061295d8b8b8b8b8b8b8b8b8b8b8b613366565b50505050505050505050505050565b7f9d49f397ae9ef1a834b569acb967799a367061e305932181a44f5773da873bfd81565b6000600760000160089054906101000a900467ffffffffffffffff1667ffffffffffffffff16421180612a3d5750600760000160109054906101000a90046fffffffffffffffffffffffffffffffff166fffffffffffffffffffffffffffffffff16612a3a6001600860000160009054906101000a90046fffffffffffffffffffffffffffffffff166fffffffffffffffffffffffffffffffff16612a359190616f5a565b6141a6565b10155b905090565b612a6c7f9d49f397ae9ef1a834b569acb967799a367061e305932181a44f5773da873bfd82613aa6565b612a7461436d565b73ffffffffffffffffffffffffffffffffffffffff168173ffffffffffffffffffffffffffffffffffffffff167fe5f1aa9e528307345194b88b24a32401c13926e0823060f1049d9b26c0bb62b260405160405180910390a350565b612ad933611a8b565b565b60026005541415612b21576040517f08c379a0000000000000000000000000000000000000000000000000000000008152600401612b1890616c9b565b60405180910390fd5b6002600581905550612b323361313d565b612b3b57600080fd5b6000600890508060000160109054906101000a900460ff1615612b93576040517f08c379a0000000000000000000000000000000000000000000000000000000008152600401612b8a9061693b565b60405180910390fd5b60008160000160009054906101000a90046fffffffffffffffffffffffffffffffff166fffffffffffffffffffffffffffffffff1614612c08576040517f08c379a0000000000000000000000000000000000000000000000000000000008152600401612bff90616a7b565b60405180910390fd5b612c8a600960009054906101000a900473ffffffffffffffffffffffffffffffffffffffff16600a60009054906101000a900473ffffffffffffffffffffffffffffffffffffffff16600760000160109054906101000a90046fffffffffffffffffffffffffffffffff166fffffffffffffffffffffffffffffffff166144f4565b60018160000160106101000a81548160ff0219169083151502179055507fa5fb31e47bd1eca58bf14a3312d5e6aeafdc4ee787c8ed348c15c2b092324d9360405160405180910390a1506001600581905550565b6000612d07826000808681526020019081526020016000206000016146c290919063ffffffff16565b905092915050565b6000612d38826000808681526020019081526020016000206000016146dc90919063ffffffff16565b905092915050565b612d6a7f97667070c54ef182b0f5858b034beac1b6f3089aa2d3188bb1e8929f4fa9b92982613aa6565b612d7261436d565b73ffffffffffffffffffffffffffffffffffffffff168173ffffffffffffffffffffffffffffffffffffffff167f70b25138b6fadeb9992d18b9653564271823e34b3e3257515d12a6d4b15fcddf60405160405180910390a350565b600960009054906101000a900473ffffffffffffffffffffffffffffffffffffffff1681565b612dfd3361313d565b612e0657600080fd5b600073ffffffffffffffffffffffffffffffffffffffff168173ffffffffffffffffffffffffffffffffffffffff161415612e76576040517f08c379a0000000000000000000000000000000000000000000000000000000008152600401612e6d90616c1b565b60405180910390fd5b80600a60006101000a81548173ffffffffffffffffffffffffffffffffffffffff021916908373ffffffffffffffffffffffffffffffffffffffff1602179055507f34ae2bad9265f0212d4cf341708b8250949164bb54f9d0e4f442024f83bb2f9081604051612ee69190616583565b60405180910390a150565b612efa3361313d565b612f0357600080fd5b612f0f8484848461470c565b50505050565b60606004805480602002602001604051908101604052809291908181526020016000905b82821015612fe5578382906000526020600020018054612f5890617377565b80601f0160208091040260200160405190810160405280929190818152602001828054612f8490617377565b8015612fd15780601f10612fa657610100808354040283529160200191612fd1565b820191906000526020600020905b815481529060010190602001808311612fb457829003601f168201915b505050505081526020019060010190612f39565b50505050905090565b6000801b81565b61301f7f9f2df0fed2c77648de5860a4cc508cd0818c85b8b8a1ab4ceeef8d981c8956a68261173e565b61302761436d565b73ffffffffffffffffffffffffffffffffffffffff168173ffffffffffffffffffffffffffffffffffffffff167f0be6ab9784c7401fafb73f7bc47bc67cc4ef8c47a60ad3cb66d1de0353a0784c60405160405180910390a350565b6000600860000160109054906101000a900460ff16905090565b6130c77f97667070c54ef182b0f5858b034beac1b6f3089aa2d3188bb1e8929f4fa9b9298261173e565b6130cf61436d565b73ffffffffffffffffffffffffffffffffffffffff168173ffffffffffffffffffffffffffffffffffffffff167f2d45ee102874989882745a26688d0b4fffee125a18df26536b12582c7fde4e1760405160405180910390a350565b6000613136826141a6565b9050919050565b600061314c6000801b83612d0f565b9050919050565b6060600480549050821061319c576040517f08c379a000000000000000000000000000000000000000000000000000000000815260040161319390616bdb565b60405180910390fd5b600482815481106131d6577f4e487b7100000000000000000000000000000000000000000000000000000000600052603260045260246000fd5b9060005260206000200180546131eb90617377565b80601f016020809104026020016040519081016040528092919081815260200182805461321790617377565b80156132645780601f1061323957610100808354040283529160200191613264565b820191906000526020600020905b81548152906001019060200180831161324757829003601f168201915b50505050509050919050565b600e6020528060005260406000206000915090505481565b6132913361313d565b61329a57600080fd5b600084849050905060005b8181101561335e5761334b8686838181106132e9577f4e487b7100000000000000000000000000000000000000000000000000000000600052603260045260246000fd5b90506020028101906132fb9190616e56565b868685818110613334577f4e487b7100000000000000000000000000000000000000000000000000000000600052603260045260246000fd5b90506020028101906133469190616e56565b61470c565b8080613356906173a9565b9150506132a5565b505050505050565b6402540be40087106133ad576040517f08c379a00000000000000000000000000000000000000000000000000000000081526004016133a490616c5b565b60405180910390fd5b6402540be40086106133f4576040517f08c379a00000000000000000000000000000000000000000000000000000000081526004016133eb90616c5b565b60405180910390fd5b42871015613437576040517f08c379a000000000000000000000000000000000000000000000000000000000815260040161342e9061689b565b60405180910390fd5b868611613479576040517f08c379a0000000000000000000000000000000000000000000000000000000008152600401613470906168db565b60405180910390fd5b600085116134bc576040517f08c379a00000000000000000000000000000000000000000000000000000000081526004016134b3906169fb565b60405180910390fd5b600073ffffffffffffffffffffffffffffffffffffffff168173ffffffffffffffffffffffffffffffffffffffff16141561352c576040517f08c379a000000000000000000000000000000000000000000000000000000000815260040161352390616c1b565b60405180910390fd5b600073ffffffffffffffffffffffffffffffffffffffff168373ffffffffffffffffffffffffffffffffffffffff16141561359c576040517f08c379a000000000000000000000000000000000000000000000000000000000815260040161359390616a9b565b60405180910390fd5b600088116135df576040517f08c379a00000000000000000000000000000000000000000000000000000000081526004016135d690616bfb565b60405180910390fd5b60008411613622576040517f08c379a000000000000000000000000000000000000000000000000000000000815260040161361990616cfb565b60405180910390fd5b60128a73ffffffffffffffffffffffffffffffffffffffff1663313ce5676040518163ffffffff1660e01b815260040160206040518083038186803b15801561366a57600080fd5b505afa15801561367e573d6000803e3d6000fd5b505050506040513d601f19601f820116820180604052508101906136a29190615be9565b60ff16146136e5576040517f08c379a00000000000000000000000000000000000000000000000000000000081526004016136dc90616a5b565b60405180910390fd5b73eeeeeeeeeeeeeeeeeeeeeeeeeeeeeeeeeeeeeeee73ffffffffffffffffffffffffffffffffffffffff168973ffffffffffffffffffffffffffffffffffffffff16146137f05760008973ffffffffffffffffffffffffffffffffffffffff1663313ce5676040518163ffffffff1660e01b815260040160206040518083038186803b15801561377457600080fd5b505afa158015613788573d6000803e3d6000fd5b505050506040513d601f19601f820116820180604052508101906137ac9190615be9565b60ff16116137ef576040517f08c379a00000000000000000000000000000000000000000000000000000000081526004016137e690616a1b565b60405180910390fd5b5b6137f9856142b5565b600660000160006101000a8154816fffffffffffffffffffffffffffffffff02191690836fffffffffffffffffffffffffffffffff16021790555061383d846142b5565b600660000160106101000a8154816fffffffffffffffffffffffffffffffff02191690836fffffffffffffffffffffffffffffffff1602179055506138818761455c565b600760000160006101000a81548167ffffffffffffffff021916908367ffffffffffffffff1602179055506138b58661455c565b600760000160086101000a81548167ffffffffffffffff021916908367ffffffffffffffff1602179055506138e9886142b5565b600760000160106101000a8154816fffffffffffffffffffffffffffffffff02191690836fffffffffffffffffffffffffffffffff16021790555089600960006101000a81548173ffffffffffffffffffffffffffffffffffffffff021916908373ffffffffffffffffffffffffffffffffffffffff16021790555088600b60006101000a81548173ffffffffffffffffffffffffffffffffffffffff021916908373ffffffffffffffffffffffffffffffffffffffff16021790555080600a60006101000a81548173ffffffffffffffffffffffffffffffffffffffff021916908373ffffffffffffffffffffffffffffffffffffffff1602179055506139f083613c25565b6139f9826148c9565b87613a03856141a6565b1115613a44576040517f08c379a0000000000000000000000000000000000000000000000000000000008152600401613a3b9061699b565b60405180910390fd5b613a4f8a8c8a613d6f565b5050505050505050505050565b6000613a7b600080848152602001908152602001600020600001614960565b9050919050565b7f9f2df0fed2c77648de5860a4cc508cd0818c85b8b8a1ab4ceeef8d981c8956a681565b613acc60008084815260200190815260200160002060020154613ac761436d565b612d0f565b613b0b576040517f08c379a0000000000000000000000000000000000000000000000000000000008152600401613b029061697b565b60405180910390fd5b613b158282614408565b5050565b613b223361313d565b613b2b57600080fd5b613b34816148c9565b50565b613b423383836111ca565b5050565b613b536000801b82613aa6565b613b5b61436d565b73ffffffffffffffffffffffffffffffffffffffff168173ffffffffffffffffffffffffffffffffffffffff167f21ba1239795d4e22874e3dc55f0a9d7b65bfb23069d32965d7c23be9524ccf9560405160405180910390a350565b613bc03361313d565b613bc957600080fd5b613bd38282614975565b5050565b60088060000160009054906101000a90046fffffffffffffffffffffffffffffffff16908060000160109054906101000a900460ff16908060000160119054906101000a900460ff16905083565b600160009054906101000a900460ff1615613c75576040517f08c379a0000000000000000000000000000000000000000000000000000000008152600401613c6c9061683b565b60405180910390fd5b613c826000801b82614ce4565b60018060006101000a81548160ff02191690831515021790555050565b600d6020528060005260406000206000915090505481565b600c60009054906101000a900473ffffffffffffffffffffffffffffffffffffffff1681565b6000600760000160109054906101000a90046fffffffffffffffffffffffffffffffff166fffffffffffffffffffffffffffffffff16905090565b7f97667070c54ef182b0f5858b034beac1b6f3089aa2d3188bb1e8929f4fa9b92981565b6000613d687f97667070c54ef182b0f5858b034beac1b6f3089aa2d3188bb1e8929f4fa9b92983612d0f565b9050919050565b6000808473ffffffffffffffffffffffffffffffffffffffff166323b872dd853086604051602401613da393929190616664565b6040516020818303038152906040529060e01b6020820180517bffffffffffffffffffffffffffffffffffffffffffffffffffffffff8381831617835250505050604051613df19190616521565b6000604051808303816000865af19150503d8060008114613e2e576040519150601f19603f3d011682016040523d82523d6000602084013e613e33565b606091505b5091509150818015613e615750600081511480613e60575080806020019051810190613e5f9190615956565b5b5b613e6a57600080fd5b5050505050565b600760000160009054906101000a900467ffffffffffffffff1667ffffffffffffffff164210158015613ec75750600760000160089054906101000a900467ffffffffffffffff1667ffffffffffffffff164211155b613f06576040517f08c379a0000000000000000000000000000000000000000000000000000000008152600401613efd90616b5b565b60405180910390fd5b600073ffffffffffffffffffffffffffffffffffffffff168273ffffffffffffffffffffffffffffffffffffffff161415613f76576040517f08c379a0000000000000000000000000000000000000000000000000000000008152600401613f6d90616adb565b60405180910390fd5b6000613fca82600d60008673ffffffffffffffffffffffffffffffffffffffff1673ffffffffffffffffffffffffffffffffffffffff1681526020019081526020016000205461449b90919063ffffffff16565b9050600860000160119054906101000a900460ff161561409b57600c60009054906101000a900473ffffffffffffffffffffffffffffffffffffffff1673ffffffffffffffffffffffffffffffffffffffff16631cd53d5584836040518363ffffffff1660e01b815260040161404192919061669b565b60206040518083038186803b15801561405957600080fd5b505afa15801561406d573d6000803e3d6000fd5b505050506040513d601f19601f820116820180604052508101906140919190615956565b61409a57600080fd5b5b80600d60008573ffffffffffffffffffffffffffffffffffffffff1673ffffffffffffffffffffffffffffffffffffffff1681526020019081526020016000208190555061412d61412883600860000160009054906101000a90046fffffffffffffffffffffffffffffffff166fffffffffffffffffffffffffffffffff1661449b90919063ffffffff16565b6142b5565b600860000160006101000a8154816fffffffffffffffffffffffffffffffff02191690836fffffffffffffffffffffffffffffffff1602179055507f077511a636ba1f10551cc7b89c13ff66a6ac9344e8a917527817a9690b15af7a838360405161419992919061669b565b60405180910390a1505050565b60006142ae600660000160009054906101000a90046fffffffffffffffffffffffffffffffff166fffffffffffffffffffffffffffffffff166142a0600960009054906101000a900473ffffffffffffffffffffffffffffffffffffffff1673ffffffffffffffffffffffffffffffffffffffff1663313ce5676040518163ffffffff1660e01b815260040160206040518083038186803b15801561424a57600080fd5b505afa15801561425e573d6000803e3d6000fd5b505050506040513d601f19601f820116820180604052508101906142829190615be9565b60ff16600a614291919061706e565b85614cf290919063ffffffff16565b614d5f90919063ffffffff16565b9050919050565b60006fffffffffffffffffffffffffffffffff801682111561430c576040517f08c379a00000000000000000000000000000000000000000000000000000000081526004016143039061695b565b60405180910390fd5b819050919050565b600082828461432391906171e6565b9150811115614367576040517f08c379a000000000000000000000000000000000000000000000000000000000815260040161435e9061681b565b60405180910390fd5b92915050565b600033905090565b61439c81600080858152602001908152602001600020600001614db790919063ffffffff16565b15614404576143a961436d565b73ffffffffffffffffffffffffffffffffffffffff168173ffffffffffffffffffffffffffffffffffffffff16837f2f8788117e7eff1d82e926ec794901d17c78024a50270940304540a733656f0d60405160405180910390a45b5050565b61442f81600080858152602001908152602001600020600001614de790919063ffffffff16565b156144975761443c61436d565b73ffffffffffffffffffffffffffffffffffffffff168173ffffffffffffffffffffffffffffffffffffffff16837ff6391f5c32d9c69d2a47ea670b442974b53935d1edc7fd64eb21e047a839171b60405160405180910390a45b5050565b60008182846144aa9190616f5a565b91508110156144ee576040517f08c379a00000000000000000000000000000000000000000000000000000000081526004016144e5906169bb565b60405180910390fd5b92915050565b73eeeeeeeeeeeeeeeeeeeeeeeeeeeeeeeeeeeeeeee73ffffffffffffffffffffffffffffffffffffffff168373ffffffffffffffffffffffffffffffffffffffff16141561454b576145468282614e17565b614557565b614556838383614f3d565b5b505050565b600067ffffffffffffffff80168211156145ab576040517f08c379a00000000000000000000000000000000000000000000000000000000081526004016145a290616abb565b60405180910390fd5b819050919050565b60006146bb600960009054906101000a900473ffffffffffffffffffffffffffffffffffffffff1673ffffffffffffffffffffffffffffffffffffffff1663313ce5676040518163ffffffff1660e01b815260040160206040518083038186803b15801561462057600080fd5b505afa158015614634573d6000803e3d6000fd5b505050506040513d601f19601f820116820180604052508101906146589190615be9565b60ff16600a614667919061706e565b6146ad600660000160009054906101000a90046fffffffffffffffffffffffffffffffff166fffffffffffffffffffffffffffffffff1685614cf290919063ffffffff16565b614d5f90919063ffffffff16565b9050919050565b60006146d1836000018361503d565b60001c905092915050565b6000614704836000018373ffffffffffffffffffffffffffffffffffffffff1660001b6150d7565b905092915050565b60008484905011614752576040517f08c379a0000000000000000000000000000000000000000000000000000000008152600401614749906169db565b60405180910390fd5b60008282905011614798576040517f08c379a000000000000000000000000000000000000000000000000000000000815260040161478f90616c3b565b60405180910390fd5b600067ffffffffffffffff16600285856040516147b6929190616538565b908152602001604051809103902060000160049054906101000a900467ffffffffffffffff1667ffffffffffffffff161415614872576004848490918060018154018082558091505060019003906000526020600020016000909192909192909192909192509190614829929190615305565b5060048054905060028585604051614842929190616538565b908152602001604051809103902060000160006101000a81548163ffffffff021916908363ffffffff1602179055505b8383604051614882929190616538565b60405180910390207fbaa206e5ea800eb88bce099f453fee53295b793b9d5d1cfc4ce4b6db06a34f5383836040516148bb929190616783565b60405180910390a250505050565b600073ffffffffffffffffffffffffffffffffffffffff168173ffffffffffffffffffffffffffffffffffffffff161461495d5780600c60006101000a81548173ffffffffffffffffffffffffffffffffffffffff021916908373ffffffffffffffffffffffffffffffffffffffff1602179055506001600860000160116101000a81548160ff0219169083151502179055505b50565b600061496e826000016150fa565b9050919050565b600067ffffffffffffffff1660028383604051614993929190616538565b908152602001604051809103902060000160049054906101000a900467ffffffffffffffff1667ffffffffffffffff161415614a04576040517f08c379a00000000000000000000000000000000000000000000000000000000081526004016149fb906168fb565b60405180910390fd5b6000600160028484604051614a1a929190616538565b908152602001604051809103902060000160009054906101000a900463ffffffff16614a46919061721a565b90506001600480549050614a5a91906171e6565b8163ffffffff1614614bb35760046001600480549050614a7a91906171e6565b81548110614ab1577f4e487b7100000000000000000000000000000000000000000000000000000000600052603260045260246000fd5b9060005260206000200160048263ffffffff1681548110614afb577f4e487b7100000000000000000000000000000000000000000000000000000000600052603260045260246000fd5b90600052602060002001908054614b1190617377565b614b1c92919061538b565b50600181614b2a9190616fb0565b600260048363ffffffff1681548110614b6c577f4e487b7100000000000000000000000000000000000000000000000000000000600052603260045260246000fd5b90600052602060002001604051614b839190616551565b908152602001604051809103902060000160006101000a81548163ffffffff021916908363ffffffff1602179055505b6004805480614beb577f4e487b7100000000000000000000000000000000000000000000000000000000600052603160045260246000fd5b600190038181906000526020600020016000614c079190615418565b90558282604051614c19929190616538565b60405180910390207f4b5338540b4d1c0f6dd0308a25f633b7ff60472f894d711cff9dd64e35c613b260028585604051614c54929190616538565b9081526020016040518091039020600101604051614c7291906167f9565b60405180910390a260028383604051614c8c929190616538565b9081526020016040518091039020600080820160006101000a81549063ffffffff02191690556000820160046101000a81549067ffffffffffffffff0219169055600182016000614cdd9190615418565b5050505050565b614cee8282614375565b5050565b600080821480614d1a575082828385614d0b919061718c565b925082614d189190616fea565b145b614d59576040517f08c379a0000000000000000000000000000000000000000000000000000000008152600401614d5090616cbb565b60405180910390fd5b92915050565b6000808211614da3576040517f08c379a0000000000000000000000000000000000000000000000000000000008152600401614d9a90616d5b565b60405180910390fd5b8183614daf9190616fea565b905092915050565b6000614ddf836000018373ffffffffffffffffffffffffffffffffffffffff1660001b61510b565b905092915050565b6000614e0f836000018373ffffffffffffffffffffffffffffffffffffffff1660001b61517b565b905092915050565b60008273ffffffffffffffffffffffffffffffffffffffff1682600067ffffffffffffffff811115614e72577f4e487b7100000000000000000000000000000000000000000000000000000000600052604160045260246000fd5b6040519080825280601f01601f191660200182016040528015614ea45781602001600182028036833780820191505090505b50604051614eb29190616521565b60006040518083038185875af1925050503d8060008114614eef576040519150601f19603f3d011682016040523d82523d6000602084013e614ef4565b606091505b5050905080614f38576040517f08c379a0000000000000000000000000000000000000000000000000000000008152600401614f2f90616b3b565b60405180910390fd5b505050565b6000808473ffffffffffffffffffffffffffffffffffffffff1663a9059cbb8585604051602401614f6f92919061669b565b6040516020818303038152906040529060e01b6020820180517bffffffffffffffffffffffffffffffffffffffffffffffffffffffff8381831617835250505050604051614fbd9190616521565b6000604051808303816000865af19150503d8060008114614ffa576040519150601f19603f3d011682016040523d82523d6000602084013e614fff565b606091505b509150915081801561502d575060008151148061502c57508080602001905181019061502b9190615956565b5b5b61503657600080fd5b5050505050565b600081836000018054905011615088576040517f08c379a000000000000000000000000000000000000000000000000000000000815260040161507f9061685b565b60405180910390fd5b8260000182815481106150c4577f4e487b7100000000000000000000000000000000000000000000000000000000600052603260045260246000fd5b9060005260206000200154905092915050565b600080836001016000848152602001908152602001600020541415905092915050565b600081600001805490509050919050565b600061511783836150d7565b615170578260000182908060018154018082558091505060019003906000526020600020016000909190919091505582600001805490508360010160008481526020019081526020016000208190555060019050615175565b600090505b92915050565b600080836001016000848152602001908152602001600020549050600081146152f95760006001826151ad91906171e6565b90506000600186600001805490506151c591906171e6565b90506000866000018281548110615205577f4e487b7100000000000000000000000000000000000000000000000000000000600052603260045260246000fd5b906000526020600020015490508087600001848154811061524f577f4e487b7100000000000000000000000000000000000000000000000000000000600052603260045260246000fd5b906000526020600020018190555060018361526a9190616f5a565b87600101600083815260200190815260200160002081905550866000018054806152bd577f4e487b7100000000000000000000000000000000000000000000000000000000600052603160045260246000fd5b600190038181906000526020600020016000905590558660010160008781526020019081526020016000206000905560019450505050506152ff565b60009150505b92915050565b82805461531190617377565b90600052602060002090601f016020900481019282615333576000855561537a565b82601f1061534c57803560ff191683800117855561537a565b8280016001018555821561537a579182015b8281111561537957823582559160200191906001019061535e565b5b5090506153879190615458565b5090565b82805461539790617377565b90600052602060002090601f0160209004810192826153b95760008555615407565b82601f106153ca5780548555615407565b8280016001018555821561540757600052602060002091601f016020900482015b828111156154065782548255916001019190600101906153eb565b5b5090506154149190615458565b5090565b50805461542490617377565b6000825580601f106154365750615455565b601f0160209004906000526020600020908101906154549190615458565b5b50565b5b80821115615471576000816000905550600101615459565b5090565b60008135905061548481617eea565b92915050565b60008135905061549981617f01565b92915050565b60008083601f8401126154b157600080fd5b8235905067ffffffffffffffff8111156154ca57600080fd5b6020830191508360208202830111156154e257600080fd5b9250929050565b6000813590506154f881617f18565b92915050565b60008151905061550d81617f18565b92915050565b60008135905061552281617f2f565b92915050565b60008083601f84011261553a57600080fd5b8235905067ffffffffffffffff81111561555357600080fd5b60208301915083600182028301111561556b57600080fd5b9250929050565b60008083601f84011261558457600080fd5b8235905067ffffffffffffffff81111561559d57600080fd5b6020830191508360018202830111156155b557600080fd5b9250929050565b6000813590506155cb81617f46565b92915050565b6000815190506155e081617f46565b92915050565b6000815190506155f581617f5d565b92915050565b60006020828403121561560d57600080fd5b600061561b84828501615475565b91505092915050565b60006020828403121561563657600080fd5b60006156448482850161548a565b91505092915050565b60008060008060008060008060008060006101608c8e03121561566f57600080fd5b600061567d8e828f0161548a565b9b5050602061568e8e828f0161548a565b9a5050604061569f8e828f0161548a565b99505060606156b08e828f016155bc565b98505060806156c18e828f016155bc565b97505060a06156d28e828f016155bc565b96505060c06156e38e828f016155bc565b95505060e06156f48e828f016155bc565b9450506101006157068e828f0161548a565b9350506101206157188e828f0161548a565b92505061014061572a8e828f0161548a565b9150509295989b509295989b9093969950565b6000806040838503121561575057600080fd5b600061575e8582860161548a565b925050602061576f858286016154e9565b9150509250929050565b60008060008060008060008060008060006101608c8e03121561579b57600080fd5b60006157a98e828f01615475565b9b505060206157ba8e828f01615475565b9a505060406157cb8e828f01615475565b99505060606157dc8e828f016155bc565b98505060806157ed8e828f016155bc565b97505060a06157fe8e828f016155bc565b96505060c061580f8e828f016155bc565b95505060e06158208e828f016155bc565b9450506101006158328e828f01615475565b9350506101206158448e828f01615475565b9250506101406158568e828f0161548a565b9150509295989b509295989b9093969950565b60008060006060848603121561587e57600080fd5b600061588c86828701615475565b935050602061589d868287016155bc565b92505060406158ae868287016154e9565b9150509250925092565b600080600080604085870312156158ce57600080fd5b600085013567ffffffffffffffff8111156158e857600080fd5b6158f48782880161549f565b9450945050602085013567ffffffffffffffff81111561591357600080fd5b61591f8782880161549f565b925092505092959194509250565b60006020828403121561593f57600080fd5b600061594d848285016154e9565b91505092915050565b60006020828403121561596857600080fd5b6000615976848285016154fe565b91505092915050565b60006020828403121561599157600080fd5b600061599f84828501615513565b91505092915050565b600080604083850312156159bb57600080fd5b60006159c985828601615513565b92505060206159da85828601615475565b9150509250929050565b600080604083850312156159f757600080fd5b6000615a0585828601615513565b9250506020615a16858286016155bc565b9150509250929050565b60008060208385031215615a3357600080fd5b600083013567ffffffffffffffff811115615a4d57600080fd5b615a5985828601615528565b92509250509250929050565b60008060208385031215615a7857600080fd5b600083013567ffffffffffffffff811115615a9257600080fd5b615a9e85828601615572565b92509250509250929050565b60008060008060408587031215615ac057600080fd5b600085013567ffffffffffffffff811115615ada57600080fd5b615ae687828801615572565b9450945050602085013567ffffffffffffffff811115615b0557600080fd5b615b1187828801615572565b925092505092959194509250565b600060208284031215615b3157600080fd5b6000615b3f848285016155bc565b91505092915050565b600060208284031215615b5a57600080fd5b6000615b68848285016155d1565b91505092915050565b60008060408385031215615b8457600080fd5b6000615b92858286016155bc565b9250506020615ba3858286016154e9565b9150509250929050565b60008060408385031215615bc057600080fd5b6000615bce858286016155bc565b9250506020615bdf858286016155bc565b9150509250929050565b600060208284031215615bfb57600080fd5b6000615c09848285016155e6565b91505092915050565b6000615c1e8383615da2565b905092915050565b615c2f816172ff565b82525050565b615c3e81617260565b82525050565b615c4d8161724e565b82525050565b6000615c5e82616ed2565b615c688185616f00565b935083602082028501615c7a85616ead565b8060005b85811015615cb65784840389528151615c978582615c12565b9450615ca283616ef3565b925060208a01995050600181019050615c7e565b50829750879550505050505092915050565b615cd181617272565b82525050565b615ce08161727e565b82525050565b6000615cf182616edd565b615cfb8185616f11565b9350615d0b818560208601617344565b615d148161747f565b840191505092915050565b6000615d2a82616edd565b615d348185616f22565b9350615d44818560208601617344565b80840191505092915050565b6000615d5c8385616f3e565b9350615d69838584617335565b615d728361747f565b840190509392505050565b6000615d898385616f4f565b9350615d96838584617335565b82840190509392505050565b6000615dad82616ee8565b615db78185616f2d565b9350615dc7818560208601617344565b615dd08161747f565b840191505092915050565b6000615de682616ee8565b615df08185616f3e565b9350615e00818560208601617344565b615e098161747f565b840191505092915050565b60008154615e2181617377565b615e2b8186616f3e565b94506001821660008114615e465760018114615e5857615e8b565b60ff1983168652602086019350615e8b565b615e6185616ebd565b60005b83811015615e8357815481890152600182019150602081019050615e64565b808801955050505b50505092915050565b60008154615ea181617377565b615eab8186616f4f565b94506001821660008114615ec65760018114615ed757615f0a565b60ff19831686528186019350615f0a565b615ee085616ebd565b60005b83811015615f0257815481890152600182019150602081019050615ee3565b838801955050505b50505092915050565b6000615f20601583616f3e565b9150615f2b8261749d565b602082019050919050565b6000615f43601383616f3e565b9150615f4e826174c6565b602082019050919050565b6000615f66602283616f3e565b9150615f71826174ef565b604082019050919050565b6000615f89602f83616f3e565b9150615f948261753e565b604082019050919050565b6000615fac602c83616f3e565b9150615fb78261758d565b604082019050919050565b6000615fcf605283616f3e565b9150615fda826175dc565b606082019050919050565b6000615ff2602c83616f3e565b9150615ffd82617651565b604082019050919050565b6000616015601583616f3e565b9150616020826176a0565b602082019050919050565b6000616038602e83616f3e565b9150616043826176c9565b604082019050919050565b600061605b601c83616f3e565b915061606682617718565b602082019050919050565b600061607e601c83616f3e565b915061608982617741565b602082019050919050565b60006160a1603083616f3e565b91506160ac8261776a565b604082019050919050565b60006160c4603d83616f3e565b91506160cf826177b9565b604082019050919050565b60006160e7601883616f3e565b91506160f282617808565b602082019050919050565b600061610a601883616f3e565b915061611582617831565b602082019050919050565b600061612d601483616f3e565b91506161388261785a565b602082019050919050565b6000616150602883616f3e565b915061615b82617883565b604082019050919050565b6000616173603283616f3e565b915061617e826178d2565b604082019050919050565b6000616196602a83616f3e565b91506161a182617921565b604082019050919050565b60006161b9601f83616f3e565b91506161c482617970565b602082019050919050565b60006161dc602483616f3e565b91506161e782617999565b604082019050919050565b60006161ff601b83616f3e565b915061620a826179e8565b602082019050919050565b6000616222602a83616f3e565b915061622d82617a11565b604082019050919050565b6000616245602683616f3e565b915061625082617a60565b604082019050919050565b6000616268601f83616f3e565b915061627382617aaf565b602082019050919050565b600061628b602383616f3e565b915061629682617ad8565b604082019050919050565b60006162ae602083616f3e565b91506162b982617b27565b602082019050919050565b60006162d1602783616f3e565b91506162dc82617b50565b604082019050919050565b60006162f4601883616f3e565b91506162ff82617b9f565b602082019050919050565b6000616317602a83616f3e565b915061632282617bc8565b604082019050919050565b600061633a601383616f3e565b915061634582617c17565b602082019050919050565b600061635d601c83616f3e565b915061636882617c40565b602082019050919050565b6000616380602583616f3e565b915061638b82617c69565b604082019050919050565b60006163a3601a83616f3e565b91506163ae82617cb8565b602082019050919050565b60006163c6603e83616f3e565b91506163d182617ce1565b604082019050919050565b60006163e9601d83616f3e565b91506163f482617d30565b602082019050919050565b600061640c601f83616f3e565b915061641782617d59565b602082019050919050565b600061642f601883616f3e565b915061643a82617d82565b602082019050919050565b6000616452602283616f3e565b915061645d82617dab565b604082019050919050565b6000616475601483616f3e565b915061648082617dfa565b602082019050919050565b6000616498602f83616f3e565b91506164a382617e23565b604082019050919050565b60006164bb602a83616f3e565b91506164c682617e72565b604082019050919050565b60006164de601483616f3e565b91506164e982617ec1565b602082019050919050565b6164fd81617288565b82525050565b61650c816172c4565b82525050565b61651b816172de565b82525050565b600061652d8284615d1f565b915081905092915050565b6000616545828486615d7d565b91508190509392505050565b600061655d8284615e94565b915081905092915050565b600060208201905061657d6000830184615c44565b92915050565b60006020820190506165986000830184615c26565b92915050565b60006020820190506165b36000830184615c35565b92915050565b6000610160820190506165cf600083018e615c44565b6165dc602083018d615c44565b6165e9604083018c615c44565b6165f6606083018b616503565b616603608083018a616503565b61661060a0830189616503565b61661d60c0830188616503565b61662a60e0830187616503565b616638610100830186615c44565b616646610120830185615c44565b616654610140830184615c35565b9c9b505050505050505050505050565b60006060820190506166796000830186615c44565b6166866020830185615c44565b6166936040830184616503565b949350505050565b60006040820190506166b06000830185615c44565b6166bd6020830184616503565b9392505050565b60006080820190506166d96000830187615c44565b6166e66020830186616512565b6166f36040830185616512565b6167006060830184615cc8565b95945050505050565b600060208201905081810360008301526167238184615c53565b905092915050565b60006020820190506167406000830184615cc8565b92915050565b600060208201905061675b6000830184615cd7565b92915050565b6000602082019050818103600083015261677b8184615ce6565b905092915050565b6000602082019050818103600083015261679e818486615d50565b90509392505050565b600060208201905081810360008301526167c18184615ddb565b905092915050565b600060408201905081810360008301526167e38185615ddb565b90506167f26020830184616503565b9392505050565b600060208201905081810360008301526168138184615e14565b905092915050565b6000602082019050818103600083015261683481615f13565b9050919050565b6000602082019050818103600083015261685481615f36565b9050919050565b6000602082019050818103600083015261687481615f59565b9050919050565b6000602082019050818103600083015261689481615f7c565b9050919050565b600060208201905081810360008301526168b481615f9f565b9050919050565b600060208201905081810360008301526168d481615fc2565b9050919050565b600060208201905081810360008301526168f481615fe5565b9050919050565b6000602082019050818103600083015261691481616008565b9050919050565b600060208201905081810360008301526169348161602b565b9050919050565b600060208201905081810360008301526169548161604e565b9050919050565b6000602082019050818103600083015261697481616071565b9050919050565b6000602082019050818103600083015261699481616094565b9050919050565b600060208201905081810360008301526169b4816160b7565b9050919050565b600060208201905081810360008301526169d4816160da565b9050919050565b600060208201905081810360008301526169f4816160fd565b9050919050565b60006020820190508181036000830152616a1481616120565b9050919050565b60006020820190508181036000830152616a3481616143565b9050919050565b60006020820190508181036000830152616a5481616166565b9050919050565b60006020820190508181036000830152616a7481616189565b9050919050565b60006020820190508181036000830152616a94816161ac565b9050919050565b60006020820190508181036000830152616ab4816161cf565b9050919050565b60006020820190508181036000830152616ad4816161f2565b9050919050565b60006020820190508181036000830152616af481616215565b9050919050565b60006020820190508181036000830152616b1481616238565b9050919050565b60006020820190508181036000830152616b348161625b565b9050919050565b60006020820190508181036000830152616b548161627e565b9050919050565b60006020820190508181036000830152616b74816162a1565b9050919050565b60006020820190508181036000830152616b94816162c4565b9050919050565b60006020820190508181036000830152616bb4816162e7565b9050919050565b60006020820190508181036000830152616bd48161630a565b9050919050565b60006020820190508181036000830152616bf48161632d565b9050919050565b60006020820190508181036000830152616c1481616350565b9050919050565b60006020820190508181036000830152616c3481616373565b9050919050565b60006020820190508181036000830152616c5481616396565b9050919050565b60006020820190508181036000830152616c74816163b9565b9050919050565b60006020820190508181036000830152616c94816163dc565b9050919050565b60006020820190508181036000830152616cb4816163ff565b9050919050565b60006020820190508181036000830152616cd481616422565b9050919050565b60006020820190508181036000830152616cf481616445565b9050919050565b60006020820190508181036000830152616d1481616468565b9050919050565b60006020820190508181036000830152616d348161648b565b9050919050565b60006020820190508181036000830152616d54816164ae565b9050919050565b60006020820190508181036000830152616d74816164d1565b9050919050565b6000606082019050616d9060008301866164f4565b616d9d6020830185615cc8565b616daa6040830184615cc8565b949350505050565b6000604082019050616dc760008301856164f4565b616dd460208301846164f4565b9392505050565b6000602082019050616df06000830184616503565b92915050565b6000604082019050616e0b6000830185616503565b616e186020830184616503565b9392505050565b6000606082019050616e346000830186616512565b616e416020830185616512565b616e4e60408301846164f4565b949350505050565b60008083356001602003843603038112616e6f57600080fd5b80840192508235915067ffffffffffffffff821115616e8d57600080fd5b602083019250600182023603831315616ea557600080fd5b509250929050565b6000819050602082019050919050565b60008190508160005260206000209050919050565b600081519050919050565b600081519050919050565b600081519050919050565b6000602082019050919050565b600082825260208201905092915050565b600082825260208201905092915050565b600081905092915050565b600082825260208201905092915050565b600082825260208201905092915050565b600081905092915050565b6000616f65826172c4565b9150616f70836172c4565b9250827fffffffffffffffffffffffffffffffffffffffffffffffffffffffffffffffff03821115616fa557616fa46173f2565b5b828201905092915050565b6000616fbb826172ce565b9150616fc6836172ce565b92508263ffffffff03821115616fdf57616fde6173f2565b5b828201905092915050565b6000616ff5826172c4565b9150617000836172c4565b9250826170105761700f617421565b5b828204905092915050565b6000808291508390505b600185111561706557808604811115617041576170406173f2565b5b60018516156170505780820291505b808102905061705e85617490565b9450617025565b94509492505050565b6000617079826172c4565b9150617084836172c4565b92506170b17fffffffffffffffffffffffffffffffffffffffffffffffffffffffffffffffff84846170b9565b905092915050565b6000826170c95760019050617185565b816170d75760009050617185565b81600181146170ed57600281146170f757617126565b6001915050617185565b60ff841115617109576171086173f2565b5b8360020a9150848211156171205761711f6173f2565b5b50617185565b5060208310610133831016604e8410600b841016171561715b5782820a905083811115617156576171556173f2565b5b617185565b617168848484600161701b565b9250905081840481111561717f5761717e6173f2565b5b81810290505b9392505050565b6000617197826172c4565b91506171a2836172c4565b9250817fffffffffffffffffffffffffffffffffffffffffffffffffffffffffffffffff04831182151516156171db576171da6173f2565b5b828202905092915050565b60006171f1826172c4565b91506171fc836172c4565b92508282101561720f5761720e6173f2565b5b828203905092915050565b6000617225826172ce565b9150617230836172ce565b925082821015617243576172426173f2565b5b828203905092915050565b6000617259826172a4565b9050919050565b600061726b826172a4565b9050919050565b60008115159050919050565b6000819050919050565b60006fffffffffffffffffffffffffffffffff82169050919050565b600073ffffffffffffffffffffffffffffffffffffffff82169050919050565b6000819050919050565b600063ffffffff82169050919050565b600067ffffffffffffffff82169050919050565b600060ff82169050919050565b600061730a82617311565b9050919050565b600061731c82617323565b9050919050565b600061732e826172a4565b9050919050565b82818337600083830152505050565b60005b83811015617362578082015181840152602081019050617347565b83811115617371576000848401525b50505050565b6000600282049050600182168061738f57607f821691505b602082108114156173a3576173a2617450565b5b50919050565b60006173b4826172c4565b91507fffffffffffffffffffffffffffffffffffffffffffffffffffffffffffffffff8214156173e7576173e66173f2565b5b600182019050919050565b7f4e487b7100000000000000000000000000000000000000000000000000000000600052601160045260246000fd5b7f4e487b7100000000000000000000000000000000000000000000000000000000600052601260045260246000fd5b7f4e487b7100000000000000000000000000000000000000000000000000000000600052602260045260246000fd5b6000601f19601f8301169050919050565b60008160011c9050919050565b7f426f72696e674d6174683a20556e646572666c6f770000000000000000000000600082015250565b7f416c726561647920696e697469616c6973656400000000000000000000000000600082015250565b7f456e756d657261626c655365743a20696e646578206f7574206f6620626f756e60008201527f6473000000000000000000000000000000000000000000000000000000000000602082015250565b7f416363657373436f6e74726f6c3a2073656e646572206d75737420626520616e60008201527f2061646d696e20746f206772616e740000000000000000000000000000000000602082015250565b7f43726f776473616c653a2073746172742074696d65206973206265666f72652060008201527f63757272656e742074696d650000000000000000000000000000000000000000602082015250565b7f4e6f2061677265656d656e742070726f76696465642c20706c6561736520726560008201527f766965772074686520736d61727420636f6e7472616374206265666f7265206960208201527f6e746572616374696e6720776974682069740000000000000000000000000000604082015250565b7f43726f776473616c653a2073746172742074696d65206973206e6f742062656660008201527f6f726520656e642074696d650000000000000000000000000000000000000000602082015250565b7f446f63756d656e742073686f756c642065786973740000000000000000000000600082015250565b7f43726f776473616c653a2061756374696f6e2063616e6e6f742068617665206160008201527f6c72656164792073746172746564000000000000000000000000000000000000602082015250565b7f43726f776473616c653a20616c72656164792066696e616c697a656400000000600082015250565b7f426f72696e674d6174683a2075696e74313238204f766572666c6f7700000000600082015250565b7f416363657373436f6e74726f6c3a2073656e646572206d75737420626520616e60008201527f2061646d696e20746f207265766f6b6500000000000000000000000000000000602082015250565b7f43726f776473616c653a20676f616c2073686f756c6420626520657175616c2060008201527f746f206f72206c6f776572207468616e20746f74616c20746f6b656e73000000602082015250565b7f426f72696e674d6174683a20416464204f766572666c6f770000000000000000600082015250565b7f5a65726f206e616d65206973206e6f7420616c6c6f7765640000000000000000600082015250565b7f43726f776473616c653a20726174652069732030000000000000000000000000600082015250565b7f43726f776473616c653a205061796d656e742063757272656e6379206973206e60008201527f6f74204552433230000000000000000000000000000000000000000000000000602082015250565b7f43726f776473616c653a20656e642074696d65206d757374206265206f6c646560008201527f72207468616e2073746172742070726963650000000000000000000000000000602082015250565b7f43726f776473616c653a20546f6b656e20646f6573206e6f742068617665203160008201527f3820646563696d616c7300000000000000000000000000000000000000000000602082015250565b7f43726f776473616c653a2046756e647320616c72656164792072616973656400600082015250565b7f43726f776473616c653a2061646d696e20697320746865207a65726f2061646460008201527f7265737300000000000000000000000000000000000000000000000000000000602082015250565b7f426f72696e674d6174683a2075696e743634204f766572666c6f770000000000600082015250565b7f43726f776473616c653a2062656e656669636961727920697320746865207a6560008201527f726f206164647265737300000000000000000000000000000000000000000000602082015250565b7f43726f776473616c653a205061796d656e742063757272656e6379206973206e60008201527f6f74204554480000000000000000000000000000000000000000000000000000602082015250565b7f43726f776473616c653a20486173206e6f742066696e69736865642079657400600082015250565b7f5472616e7366657248656c7065723a204554485f5452414e534645525f46414960008201527f4c45440000000000000000000000000000000000000000000000000000000000602082015250565b7f43726f776473616c653a206f7574736964652061756374696f6e20686f757273600082015250565b7f43726f776473616c653a2061756374696f6e20686173206e6f742066696e697360008201527f6865642079657400000000000000000000000000000000000000000000000000602082015250565b7f43726f776473616c653a206e6f742066696e616c697a65640000000000000000600082015250565b7f43726f776473616c653a206d696e696d756d207461726765742065786365656460008201527f7320686172642063617000000000000000000000000000000000000000000000602082015250565b7f496e646578206f7574206f6620626f756e647300000000000000000000000000600082015250565b7f43726f776473616c653a20746f74616c20746f6b656e73206973203000000000600082015250565b7f43726f776473616c653a2077616c6c657420697320746865207a65726f20616460008201527f6472657373000000000000000000000000000000000000000000000000000000602082015250565b7f53686f756c64206e6f74206265206120656d7074792064617461000000000000600082015250565b7f43726f776473616c653a20656e74657220616e20756e69782074696d6573746160008201527f6d7020696e207365636f6e64732c206e6f74206d696c697365636f6e64730000602082015250565b7f43726f776473616c653a206e6f20746f6b656e7320746f20636c61696d000000600082015250565b7f5265656e7472616e637947756172643a207265656e7472616e742063616c6c00600082015250565b7f426f72696e674d6174683a204d756c204f766572666c6f770000000000000000600082015250565b7f43726f776473616c653a2073656e646572206d75737420626520616e2061646d60008201527f696e000000000000000000000000000000000000000000000000000000000000602082015250565b7f43726f776473616c653a20676f616c2069732030000000000000000000000000600082015250565b7f416363657373436f6e74726f6c3a2063616e206f6e6c792072656e6f756e636560008201527f20726f6c657320666f722073656c660000000000000000000000000000000000602082015250565b7f43726f776473616c653a205061796d656e742063757272656e6379206973206e60008201527f6f74206120746f6b656e00000000000000000000000000000000000000000000602082015250565b7f426f72696e674d6174683a20446976207a65726f000000000000000000000000600082015250565b617ef38161724e565b8114617efe57600080fd5b50565b617f0a81617260565b8114617f1557600080fd5b50565b617f2181617272565b8114617f2c57600080fd5b50565b617f388161727e565b8114617f4357600080fd5b50565b617f4f816172c4565b8114617f5a57600080fd5b50565b617f66816172f2565b8114617f7157600080fd5b5056fe4920756e6465727374616e642074686174204920616d20696e746572616374696e672077697468206120736d61727420636f6e74726163742e204920756e6465727374616e64207468617420746f6b656e7320636f6d6d6974656420617265207375626a65637420746f2074686520746f6b656e2069737375657220616e64206c6f63616c206c617773207768657265206170706c696361626c652e204920726576696577656420636f6465206f662074686520736d61727420636f6e747261637420616e6420756e6465727374616e642069742066756c6c792e204920616772656520746f206e6f7420686f6c6420646576656c6f70657273206f72206f746865722070656f706c65206173736f6369617465642077697468207468652070726f6a656374206c6961626c6520666f7220616e79206c6f73736573206f72206d6973756e6465727374616e64696e6773a2646970667358221220759e7e16e06677120336d983b9922795d6e75626242681b9585ff250411033c164736f6c63430008040033",
  "linkReferences": {},
  "deployedLinkReferences": {}
}