{
  "_format": "hh-sol-artifact-1",
  "contractName": "BoringFactory",
  "sourceName": "contracts/Utils/BoringFactory.sol",
  "abi": [
    {
      "anonymous": false,
      "inputs": [
        {
          "indexed": true,
          "internalType": "address",
          "name": "masterContract",
          "type": "address"
        },
        {
          "indexed": false,
          "internalType": "bytes",
          "name": "data",
          "type": "bytes"
        },
        {
          "indexed": true,
          "internalType": "address",
          "name": "cloneAddress",
          "type": "address"
        }
      ],
      "name": "LogDeploy",
      "type": "event"
    },
    {
      "inputs": [
        {
          "internalType": "address",
          "name": "masterContract",
          "type": "address"
        },
        {
          "internalType": "bytes",
          "name": "data",
          "type": "bytes"
        },
        {
          "internalType": "bool",
          "name": "useCreate2",
          "type": "bool"
        }
      ],
      "name": "deploy",
      "outputs": [
        {
          "internalType": "address",
          "name": "cloneAddress",
          "type": "address"
        }
      ],
      "stateMutability": "payable",
      "type": "function"
    },
    {
      "inputs": [
        {
          "internalType": "address",
          "name": "",
          "type": "address"
        }
      ],
      "name": "masterContractOf",
      "outputs": [
        {
          "internalType": "address",
          "name": "",
          "type": "address"
        }
      ],
      "stateMutability": "view",
      "type": "function"
    }
  ],
  "bytecode": "0x608060405234801561001057600080fd5b50610443806100206000396000f3fe6080604052600436106100295760003560e01c80631f54245b1461002e578063bafe4f141461005d575b600080fd5b61004161003c366004610339565b610093565b6040516001600160a01b03909116815260200160405180910390f35b34801561006957600080fd5b50610041610078366004610318565b6000602081905290815260409020546001600160a01b031681565b60006001600160a01b038516610109576040517f08c379a000000000000000000000000000000000000000000000000000000000815260206004820181905260248201527f426f72696e67466163746f72793a204e6f206d6173746572436f6e7472616374604482015260640160405180910390fd5b606085901b821561019257600085856040516101269291906103ce565b604051809103902090506040517f3d602d80600a3d3981f3363d3d373d3d3d363d7300000000000000000000000081528260148201527f5af43d82803e903d91602b57fd5bf300000000000000000000000000000000006028820152816037826000f5935050506101ee565b6040517f3d602d80600a3d3981f3363d3d373d3d3d363d7300000000000000000000000081528160148201527f5af43d82803e903d91602b57fd5bf3000000000000000000000000000000000060288201526037816000f09250505b6001600160a01b038281166000818152602081905260409081902080547fffffffffffffffffffffffff000000000000000000000000000000000000000016938a169390931790925590517f4ddf47d4000000000000000000000000000000000000000000000000000000008152634ddf47d490349061027490899089906004016103de565b6000604051808303818588803b15801561028d57600080fd5b505af11580156102a1573d6000803e3d6000fd5b5050505050816001600160a01b0316866001600160a01b03167fd62166f3c2149208e51788b1401cc356bf5da1fc6c7886a32e18570f57d88b3b87876040516102eb9291906103de565b60405180910390a350949350505050565b80356001600160a01b038116811461031357600080fd5b919050565b600060208284031215610329578081fd5b610332826102fc565b9392505050565b6000806000806060858703121561034e578283fd5b610357856102fc565b9350602085013567ffffffffffffffff80821115610373578485fd5b818701915087601f830112610386578485fd5b813581811115610394578586fd5b8860208285010111156103a5578586fd5b602083019550809450505050604085013580151581146103c3578182fd5b939692955090935050565b8183823760009101908152919050565b60208152816020820152818360408301376000818301604090810191909152601f909201601f1916010191905056fea26469706673582212200ecbf8108283afbfec9d184a5dd59e46e97d131260fbca51aaaa8ebe879c7be464736f6c63430008040033",
  "linkReferences": {},
  "deployedLinkReferences": {}
}