{
  "_format": "hh-sol-artifact-1",
  "contractName": "BoringFactory",
  "sourceName": "contracts/Utils/BoringFactory.sol",
  "abi": [
    {
      "anonymous": false,
      "inputs": [
        {
          "indexed": true,
          "internalType": "address",
          "name": "masterContract",
          "type": "address"
        },
        {
          "indexed": false,
          "internalType": "bytes",
          "name": "data",
          "type": "bytes"
        },
        {
          "indexed": true,
          "internalType": "address",
          "name": "cloneAddress",
          "type": "address"
        }
      ],
      "name": "LogDeploy",
      "type": "event"
    },
    {
      "inputs": [
        {
          "internalType": "address",
          "name": "masterContract",
          "type": "address"
        },
        {
          "internalType": "bytes",
          "name": "data",
          "type": "bytes"
        },
        {
          "internalType": "bool",
          "name": "useCreate2",
          "type": "bool"
        }
      ],
      "name": "deploy",
      "outputs": [
        {
          "internalType": "address",
          "name": "cloneAddress",
          "type": "address"
        }
      ],
      "stateMutability": "payable",
      "type": "function"
    },
    {
      "inputs": [
        {
          "internalType": "address",
          "name": "",
          "type": "address"
        }
      ],
      "name": "masterContractOf",
      "outputs": [
        {
          "internalType": "address",
          "name": "",
          "type": "address"
        }
      ],
      "stateMutability": "view",
      "type": "function"
    }
  ],
  "bytecode": "0x608060405234801561001057600080fd5b5061069f806100206000396000f3fe6080604052600436106100295760003560e01c80631f54245b1461002e578063bafe4f141461005e575b600080fd5b6100486004803603810190610043919061041f565b61009b565b6040516100559190610528565b60405180910390f35b34801561006a57600080fd5b50610085600480360381019061008091906103f6565b61034f565b6040516100929190610528565b60405180910390f35b60008073ffffffffffffffffffffffffffffffffffffffff168573ffffffffffffffffffffffffffffffffffffffff16141561010c576040517f08c379a000000000000000000000000000000000000000000000000000000000815260040161010390610567565b60405180910390fd5b60008560601b90508215610198576000858560405161012c92919061050f565b604051809103902090506040517f3d602d80600a3d3981f3363d3d373d3d3d363d7300000000000000000000000081528260148201527f5af43d82803e903d91602b57fd5bf300000000000000000000000000000000006028820152816037826000f5935050506101f4565b6040517f3d602d80600a3d3981f3363d3d373d3d3d363d7300000000000000000000000081528160148201527f5af43d82803e903d91602b57fd5bf3000000000000000000000000000000000060288201526037816000f09250505b856000808473ffffffffffffffffffffffffffffffffffffffff1673ffffffffffffffffffffffffffffffffffffffff16815260200190815260200160002060006101000a81548173ffffffffffffffffffffffffffffffffffffffff021916908373ffffffffffffffffffffffffffffffffffffffff1602179055508173ffffffffffffffffffffffffffffffffffffffff16634ddf47d43487876040518463ffffffff1660e01b81526004016102ad929190610543565b6000604051808303818588803b1580156102c657600080fd5b505af11580156102da573d6000803e3d6000fd5b50505050508173ffffffffffffffffffffffffffffffffffffffff168673ffffffffffffffffffffffffffffffffffffffff167fd62166f3c2149208e51788b1401cc356bf5da1fc6c7886a32e18570f57d88b3b878760405161033e929190610543565b60405180910390a350949350505050565b60006020528060005260406000206000915054906101000a900473ffffffffffffffffffffffffffffffffffffffff1681565b6000813590506103918161063b565b92915050565b6000813590506103a681610652565b92915050565b60008083601f8401126103be57600080fd5b8235905067ffffffffffffffff8111156103d757600080fd5b6020830191508360018202830111156103ef57600080fd5b9250929050565b60006020828403121561040857600080fd5b600061041684828501610382565b91505092915050565b6000806000806060858703121561043557600080fd5b600061044387828801610382565b945050602085013567ffffffffffffffff81111561046057600080fd5b61046c878288016103ac565b9350935050604061047f87828801610397565b91505092959194509250565b610494816105b4565b82525050565b60006104a68385610587565b93506104b38385846105f2565b6104bc83610601565b840190509392505050565b60006104d38385610598565b93506104e08385846105f2565b82840190509392505050565b60006104f96020836105a3565b915061050482610612565b602082019050919050565b600061051c8284866104c7565b91508190509392505050565b600060208201905061053d600083018461048b565b92915050565b6000602082019050818103600083015261055e81848661049a565b90509392505050565b60006020820190508181036000830152610580816104ec565b9050919050565b600082825260208201905092915050565b600081905092915050565b600082825260208201905092915050565b60006105bf826105d2565b9050919050565b60008115159050919050565b600073ffffffffffffffffffffffffffffffffffffffff82169050919050565b82818337600083830152505050565b6000601f19601f8301169050919050565b7f426f72696e67466163746f72793a204e6f206d6173746572436f6e7472616374600082015250565b610644816105b4565b811461064f57600080fd5b50565b61065b816105c6565b811461066657600080fd5b5056fea2646970667358221220ac67908d2dd955f2127ff4aa5fd4a99a9435546c2de9f0f1a90b01a442d3a1a664736f6c63430008040033",
  "linkReferences": {},
  "deployedLinkReferences": {}
}