{
  "_format": "hh-sol-artifact-1",
  "contractName": "MISOFermenter",
  "sourceName": "contracts/MISOFermenter.sol",
  "abi": [
    {
      "anonymous": false,
      "inputs": [
        {
          "indexed": true,
          "internalType": "address",
          "name": "owner",
          "type": "address"
        },
        {
          "indexed": true,
          "internalType": "address",
          "name": "addr",
          "type": "address"
        },
        {
          "indexed": false,
          "internalType": "address",
          "name": "escrowTemplate",
          "type": "address"
        }
      ],
      "name": "EscrowCreated",
      "type": "event"
    },
    {
      "anonymous": false,
      "inputs": [
        {
          "indexed": false,
          "internalType": "address",
          "name": "newTemplate",
          "type": "address"
        },
        {
          "indexed": false,
          "internalType": "uint256",
          "name": "templateId",
          "type": "uint256"
        }
      ],
      "name": "EscrowTemplateAdded",
      "type": "event"
    },
    {
      "anonymous": false,
      "inputs": [
        {
          "indexed": false,
          "internalType": "address",
          "name": "template",
          "type": "address"
        },
        {
          "indexed": false,
          "internalType": "uint256",
          "name": "templateId",
          "type": "uint256"
        }
      ],
      "name": "EscrowTemplateRemoved",
      "type": "event"
    },
    {
      "anonymous": false,
      "inputs": [
        {
          "indexed": false,
          "internalType": "address",
          "name": "sender",
          "type": "address"
        }
      ],
      "name": "MisoInitFermenter",
      "type": "event"
    },
    {
      "inputs": [],
      "name": "VAULT_MINTER_ROLE",
      "outputs": [
        {
          "internalType": "bytes32",
          "name": "",
          "type": "bytes32"
        }
      ],
      "stateMutability": "view",
      "type": "function"
    },
    {
      "inputs": [],
      "name": "accessControls",
      "outputs": [
        {
          "internalType": "contract MISOAccessControls",
          "name": "",
          "type": "address"
        }
      ],
      "stateMutability": "view",
      "type": "function"
    },
    {
      "inputs": [
        {
          "internalType": "address",
          "name": "_escrowTemplate",
          "type": "address"
        }
      ],
      "name": "addEscrowTemplate",
      "outputs": [],
      "stateMutability": "nonpayable",
      "type": "function"
    },
    {
      "inputs": [
        {
          "internalType": "uint256",
          "name": "_templateId",
          "type": "uint256"
        }
      ],
      "name": "createEscrow",
      "outputs": [
        {
          "internalType": "address",
          "name": "newEscrow",
          "type": "address"
        }
      ],
      "stateMutability": "nonpayable",
      "type": "function"
    },
    {
      "inputs": [],
      "name": "escrowTemplateId",
      "outputs": [
        {
          "internalType": "uint256",
          "name": "",
          "type": "uint256"
        }
      ],
      "stateMutability": "view",
      "type": "function"
    },
    {
      "inputs": [
        {
          "internalType": "uint256",
          "name": "",
          "type": "uint256"
        }
      ],
      "name": "escrows",
      "outputs": [
        {
          "internalType": "address",
          "name": "",
          "type": "address"
        }
      ],
      "stateMutability": "view",
      "type": "function"
    },
    {
      "inputs": [
        {
          "internalType": "uint256",
          "name": "_templateId",
          "type": "uint256"
        }
      ],
      "name": "getEscrowTemplate",
      "outputs": [
        {
          "internalType": "address",
          "name": "",
          "type": "address"
        }
      ],
      "stateMutability": "view",
      "type": "function"
    },
    {
      "inputs": [
        {
          "internalType": "address",
          "name": "_escrowTemplate",
          "type": "address"
        }
      ],
      "name": "getTemplateId",
      "outputs": [
        {
          "internalType": "uint256",
          "name": "templateId",
          "type": "uint256"
        }
      ],
      "stateMutability": "view",
      "type": "function"
    },
    {
      "inputs": [
        {
          "internalType": "address",
          "name": "_address",
          "type": "address"
        }
      ],
      "name": "hasVaultMinterRole",
      "outputs": [
        {
          "internalType": "bool",
          "name": "",
          "type": "bool"
        }
      ],
      "stateMutability": "view",
      "type": "function"
    },
    {
      "inputs": [
        {
          "internalType": "address",
          "name": "_accessControls",
          "type": "address"
        }
      ],
      "name": "initMISOFermenter",
      "outputs": [],
      "stateMutability": "nonpayable",
      "type": "function"
    },
    {
      "inputs": [
        {
          "internalType": "address",
          "name": "",
          "type": "address"
        }
      ],
      "name": "isChildEscrow",
      "outputs": [
        {
          "internalType": "bool",
          "name": "exists",
          "type": "bool"
        },
        {
          "internalType": "uint256",
          "name": "templateId",
          "type": "uint256"
        },
        {
          "internalType": "uint256",
          "name": "index",
          "type": "uint256"
        }
      ],
      "stateMutability": "view",
      "type": "function"
    },
    {
      "inputs": [],
      "name": "locked",
      "outputs": [
        {
          "internalType": "bool",
          "name": "",
          "type": "bool"
        }
      ],
      "stateMutability": "view",
      "type": "function"
    },
    {
      "inputs": [],
      "name": "numberOfTokens",
      "outputs": [
        {
          "internalType": "uint256",
          "name": "",
          "type": "uint256"
        }
      ],
      "stateMutability": "view",
      "type": "function"
    },
    {
      "inputs": [
        {
          "internalType": "uint256",
          "name": "_templateId",
          "type": "uint256"
        }
      ],
      "name": "removeEscrowTemplate",
      "outputs": [],
      "stateMutability": "nonpayable",
      "type": "function"
    },
    {
      "inputs": [
        {
          "internalType": "bool",
          "name": "_locked",
          "type": "bool"
        }
      ],
      "name": "setLocked",
      "outputs": [],
      "stateMutability": "nonpayable",
      "type": "function"
    }
  ],
  "bytecode": "0x608060405234801561001057600080fd5b50611597806100206000396000f3fe608060405234801561001057600080fd5b50600436106100f55760003560e01c80637a08291111610097578063cf30901211610066578063cf3090121461029a578063d335ebda146102b8578063f9f16ef2146102e8578063ff6a639214610306576100f5565b80637a082911146101ea5780638d4e05901461021c5780638da2c8731461023a578063c46689641461026a576100f5565b80633bfcd9b5116100d35780633bfcd9b514610162578063491929281461017e578063748365ef1461019c5780637513dea6146101ba576100f5565b8063012f52ee146100fa578063211e28b61461012a57806338efd4e414610146575b600080fd5b610114600480360381019061010f91906110af565b610322565b604051610121919061118c565b60405180910390f35b610144600480360381019061013f919061105d565b610361565b005b610160600480360381019061015b9190611034565b610466565b005b61017c600480360381019061017791906110af565b610530565b005b610186610790565b60405161019391906112e1565b60405180910390f35b6101a4610796565b6040516101b19190611266565b60405180910390f35b6101d460048036038101906101cf9190611034565b6107ba565b6040516101e191906111d0565b60405180910390f35b61020460048036038101906101ff9190611034565b61088f565b604051610213939291906111eb565b60405180910390f35b6102246108c6565b6040516102319190611222565b60405180910390f35b610254600480360381019061024f91906110af565b6108ea565b604051610261919061118c565b60405180910390f35b610284600480360381019061027f91906110af565b610cf8565b604051610291919061118c565b60405180910390f35b6102a2610d35565b6040516102af91906111d0565b60405180910390f35b6102d260048036038101906102cd9190611034565b610d48565b6040516102df91906112e1565b60405180910390f35b6102f0610d91565b6040516102fd91906112e1565b60405180910390f35b610320600480360381019061031b9190611034565b610d9e565b005b6001818154811061033257600080fd5b906000526020600020016000915054906101000a900473ffffffffffffffffffffffffffffffffffffffff1681565b60008054906101000a900473ffffffffffffffffffffffffffffffffffffffff1673ffffffffffffffffffffffffffffffffffffffff1663c395fcb3336040518263ffffffff1660e01b81526004016103ba919061118c565b60206040518083038186803b1580156103d257600080fd5b505afa1580156103e6573d6000803e3d6000fd5b505050506040513d601f19601f8201168201806040525081019061040a9190611086565b610449576040517f08c379a0000000000000000000000000000000000000000000000000000000008152600401610440906112c1565b60405180910390fd5b80600060156101000a81548160ff02191690831515021790555050565b600060149054906101000a900460ff161561048057600080fd5b6001600060146101000a81548160ff0219169083151502179055506001600060156101000a81548160ff021916908315150217905550806000806101000a81548173ffffffffffffffffffffffffffffffffffffffff021916908373ffffffffffffffffffffffffffffffffffffffff1602179055507ffa8ab7cc751ede85da4b5e1d508e9357f84a9e554d793aac0e484b8013fa77b033604051610525919061118c565b60405180910390a150565b60008054906101000a900473ffffffffffffffffffffffffffffffffffffffff1673ffffffffffffffffffffffffffffffffffffffff1663fc4e3e0a336040518263ffffffff1660e01b8152600401610589919061118c565b60206040518083038186803b1580156105a157600080fd5b505afa1580156105b5573d6000803e3d6000fd5b505050506040513d601f19601f820116820180604052508101906105d99190611086565b610618576040517f08c379a000000000000000000000000000000000000000000000000000000000815260040161060f90611281565b60405180910390fd5b600073ffffffffffffffffffffffffffffffffffffffff166003600083815260200190815260200160002060009054906101000a900473ffffffffffffffffffffffffffffffffffffffff1673ffffffffffffffffffffffffffffffffffffffff16141561068557600080fd5b60006003600083815260200190815260200160002060009054906101000a900473ffffffffffffffffffffffffffffffffffffffff16905060006003600084815260200190815260200160002060006101000a81548173ffffffffffffffffffffffffffffffffffffffff021916908373ffffffffffffffffffffffffffffffffffffffff160217905550600460008273ffffffffffffffffffffffffffffffffffffffff1673ffffffffffffffffffffffffffffffffffffffff168152602001908152602001600020600090557f3f5a556fd0475f028f62c9ca9bdf824a2c3fd93a5a26fa74b0aa07703b8d11ea81836040516107849291906111a7565b60405180910390a15050565b60025481565b60008054906101000a900473ffffffffffffffffffffffffffffffffffffffff1681565b60008060009054906101000a900473ffffffffffffffffffffffffffffffffffffffff1673ffffffffffffffffffffffffffffffffffffffff166391d148547f98e4415ac43dc65a73fb377c77c834c9fba44fb3f81dc603d1f33e6023519e07846040518363ffffffff1660e01b815260040161083892919061123d565b60206040518083038186803b15801561085057600080fd5b505afa158015610864573d6000803e3d6000fd5b505050506040513d601f19601f820116820180604052508101906108889190611086565b9050919050565b60056020528060005260406000206000915090508060000160009054906101000a900460ff16908060010154908060020154905083565b7f98e4415ac43dc65a73fb377c77c834c9fba44fb3f81dc603d1f33e6023519e0781565b60008060159054906101000a900460ff1615610aa95760008054906101000a900473ffffffffffffffffffffffffffffffffffffffff1673ffffffffffffffffffffffffffffffffffffffff1663c395fcb3336040518263ffffffff1660e01b8152600401610959919061118c565b60206040518083038186803b15801561097157600080fd5b505afa158015610985573d6000803e3d6000fd5b505050506040513d601f19601f820116820180604052508101906109a99190611086565b80610a59575060008054906101000a900473ffffffffffffffffffffffffffffffffffffffff1673ffffffffffffffffffffffffffffffffffffffff1663099db017336040518263ffffffff1660e01b8152600401610a08919061118c565b60206040518083038186803b158015610a2057600080fd5b505afa158015610a34573d6000803e3d6000fd5b505050506040513d601f19601f82011682018060405250810190610a589190611086565b5b80610a695750610a68336107ba565b5b610aa8576040517f08c379a0000000000000000000000000000000000000000000000000000000008152600401610a9f906112a1565b60405180910390fd5b5b600073ffffffffffffffffffffffffffffffffffffffff166003600084815260200190815260200160002060009054906101000a900473ffffffffffffffffffffffffffffffffffffffff1673ffffffffffffffffffffffffffffffffffffffff161415610b1657600080fd5b610b526003600084815260200190815260200160002060009054906101000a900473ffffffffffffffffffffffffffffffffffffffff16610f76565b9050604051806060016040528060011515815260200183815260200160018080549050610b7f919061130d565b815250600560008373ffffffffffffffffffffffffffffffffffffffff1673ffffffffffffffffffffffffffffffffffffffff16815260200190815260200160002060008201518160000160006101000a81548160ff02191690831515021790555060208201518160010155604082015181600201559050506001819080600181540180825580915050600190039060005260206000200160009091909190916101000a81548173ffffffffffffffffffffffffffffffffffffffff021916908373ffffffffffffffffffffffffffffffffffffffff1602179055508073ffffffffffffffffffffffffffffffffffffffff163373ffffffffffffffffffffffffffffffffffffffff167f4743c0c2884de4f19f280dbd2cc93bc24491cdf876ed107046fe8194183c09e96003600086815260200190815260200160002060009054906101000a900473ffffffffffffffffffffffffffffffffffffffff16604051610ceb919061118c565b60405180910390a3919050565b60006003600083815260200190815260200160002060009054906101000a900473ffffffffffffffffffffffffffffffffffffffff169050919050565b600060159054906101000a900460ff1681565b6000600460008373ffffffffffffffffffffffffffffffffffffffff1673ffffffffffffffffffffffffffffffffffffffff168152602001908152602001600020549050919050565b6000600180549050905090565b60008054906101000a900473ffffffffffffffffffffffffffffffffffffffff1673ffffffffffffffffffffffffffffffffffffffff1663fc4e3e0a336040518263ffffffff1660e01b8152600401610df7919061118c565b60206040518083038186803b158015610e0f57600080fd5b505afa158015610e23573d6000803e3d6000fd5b505050506040513d601f19601f82011682018060405250810190610e479190611086565b610e86576040517f08c379a0000000000000000000000000000000000000000000000000000000008152600401610e7d90611281565b60405180910390fd5b60026000815480929190610e99906113b7565b91905055508060036000600254815260200190815260200160002060006101000a81548173ffffffffffffffffffffffffffffffffffffffff021916908373ffffffffffffffffffffffffffffffffffffffff160217905550600254600460008373ffffffffffffffffffffffffffffffffffffffff1673ffffffffffffffffffffffffffffffffffffffff168152602001908152602001600020819055507f439cb22d4d440cdda8508c466333dca53d6f577c7c91274ac9feaec3946a670381600254604051610f6b9291906111a7565b60405180910390a150565b6000808260601b90506040517f3d602d80600a3d3981f3363d3d373d3d3d363d7300000000000000000000000081528160148201527f5af43d82803e903d91602b57fd5bf3000000000000000000000000000000000060288201526037816000f092505050919050565b600081359050610fef8161151c565b92915050565b60008135905061100481611533565b92915050565b60008151905061101981611533565b92915050565b60008135905061102e8161154a565b92915050565b60006020828403121561104657600080fd5b600061105484828501610fe0565b91505092915050565b60006020828403121561106f57600080fd5b600061107d84828501610ff5565b91505092915050565b60006020828403121561109857600080fd5b60006110a68482850161100a565b91505092915050565b6000602082840312156110c157600080fd5b60006110cf8482850161101f565b91505092915050565b6110e181611341565b82525050565b6110f081611353565b82525050565b6110ff8161135f565b82525050565b61110e81611393565b82525050565b60006111216026836112fc565b915061112c8261142f565b604082019050919050565b6000611144602e836112fc565b915061114f8261147e565b604082019050919050565b60006111676023836112fc565b9150611172826114cd565b604082019050919050565b61118681611389565b82525050565b60006020820190506111a160008301846110d8565b92915050565b60006040820190506111bc60008301856110d8565b6111c9602083018461117d565b9392505050565b60006020820190506111e560008301846110e7565b92915050565b600060608201905061120060008301866110e7565b61120d602083018561117d565b61121a604083018461117d565b949350505050565b600060208201905061123760008301846110f6565b92915050565b600060408201905061125260008301856110f6565b61125f60208301846110d8565b9392505050565b600060208201905061127b6000830184611105565b92915050565b6000602082019050818103600083015261129a81611114565b9050919050565b600060208201905081810360008301526112ba81611137565b9050919050565b600060208201905081810360008301526112da8161115a565b9050919050565b60006020820190506112f6600083018461117d565b92915050565b600082825260208201905092915050565b600061131882611389565b915061132383611389565b92508282101561133657611335611400565b5b828203905092915050565b600061134c82611369565b9050919050565b60008115159050919050565b6000819050919050565b600073ffffffffffffffffffffffffffffffffffffffff82169050919050565b6000819050919050565b600061139e826113a5565b9050919050565b60006113b082611369565b9050919050565b60006113c282611389565b91507fffffffffffffffffffffffffffffffffffffffffffffffffffffffffffffffff8214156113f5576113f4611400565b5b600182019050919050565b7f4e487b7100000000000000000000000000000000000000000000000000000000600052601160045260246000fd5b7f4d49534f4665726d656e7465723a2053656e646572206d757374206265206f7060008201527f657261746f720000000000000000000000000000000000000000000000000000602082015250565b7f4d49534f4665726d656e7465723a2053656e646572206d757374206265206d6960008201527f6e746572206966206c6f636b6564000000000000000000000000000000000000602082015250565b7f4d49534f4665726d656e7465723a2053656e646572206d75737420626520616460008201527f6d696e0000000000000000000000000000000000000000000000000000000000602082015250565b61152581611341565b811461153057600080fd5b50565b61153c81611353565b811461154757600080fd5b50565b61155381611389565b811461155e57600080fd5b5056fea264697066735822122068a66bf19f0c140148074685fb3000a7affba057dedf3580bb0cb90316a548a864736f6c63430008040033",
  "linkReferences": {},
  "deployedLinkReferences": {}
}