{
  "_format": "hh-sol-artifact-1",
  "contractName": "BaseHelper",
  "sourceName": "contracts/Helper/MISOHelper.sol",
  "abi": [
    {
      "inputs": [],
      "name": "accessControls",
      "outputs": [
        {
          "internalType": "contract MISOAccessControls",
          "name": "",
          "type": "address"
        }
      ],
      "stateMutability": "view",
      "type": "function"
    },
    {
      "inputs": [],
      "name": "farmFactory",
      "outputs": [
        {
          "internalType": "contract IMisoFarmFactory",
          "name": "",
          "type": "address"
        }
      ],
      "stateMutability": "view",
      "type": "function"
    },
    {
      "inputs": [],
      "name": "launcher",
      "outputs": [
        {
          "internalType": "address",
          "name": "",
          "type": "address"
        }
      ],
      "stateMutability": "view",
      "type": "function"
    },
    {
      "inputs": [],
      "name": "market",
      "outputs": [
        {
          "internalType": "contract IMisoMarketFactory",
          "name": "",
          "type": "address"
        }
      ],
      "stateMutability": "view",
      "type": "function"
    },
    {
      "inputs": [
        {
          "internalType": "address",
          "name": "_tokenFactory",
          "type": "address"
        },
        {
          "internalType": "address",
          "name": "_market",
          "type": "address"
        },
        {
          "internalType": "address",
          "name": "_launcher",
          "type": "address"
        },
        {
          "internalType": "address",
          "name": "_farmFactory",
          "type": "address"
        }
      ],
      "name": "setContracts",
      "outputs": [],
      "stateMutability": "nonpayable",
      "type": "function"
    },
    {
      "inputs": [],
      "name": "tokenFactory",
      "outputs": [
        {
          "internalType": "contract IMisoTokenFactory",
          "name": "",
          "type": "address"
        }
      ],
      "stateMutability": "view",
      "type": "function"
    }
  ],
  "bytecode": "0x608060405234801561001057600080fd5b506107d3806100206000396000f3fe608060405234801561001057600080fd5b50600436106100625760003560e01c806316eebd1e146100675780636d25e17514610085578063748365ef146100a357806380f55605146100c1578063bf989b6e146100df578063e77772fe146100fb575b600080fd5b61006f610119565b60405161007c91906105c0565b60405180910390f35b61008d61013f565b60405161009a91906105db565b60405180910390f35b6100ab610165565b6040516100b8919061062c565b60405180910390f35b6100c961018b565b6040516100d691906105f6565b60405180910390f35b6100f960048036038101906100f491906104c6565b6101af565b005b610103610476565b6040516101109190610611565b60405180910390f35b600360009054906101000a900473ffffffffffffffffffffffffffffffffffffffff1681565b600260009054906101000a900473ffffffffffffffffffffffffffffffffffffffff1681565b600460009054906101000a900473ffffffffffffffffffffffffffffffffffffffff1681565b60008054906101000a900473ffffffffffffffffffffffffffffffffffffffff1681565b600460009054906101000a900473ffffffffffffffffffffffffffffffffffffffff1673ffffffffffffffffffffffffffffffffffffffff1663c395fcb3336040518263ffffffff1660e01b815260040161020a91906105c0565b60206040518083038186803b15801561022257600080fd5b505afa158015610236573d6000803e3d6000fd5b505050506040513d601f19601f8201168201806040525081019061025a9190610529565b610299576040517f08c379a000000000000000000000000000000000000000000000000000000000815260040161029090610647565b60405180910390fd5b600073ffffffffffffffffffffffffffffffffffffffff168373ffffffffffffffffffffffffffffffffffffffff161461030e57826000806101000a81548173ffffffffffffffffffffffffffffffffffffffff021916908373ffffffffffffffffffffffffffffffffffffffff1602179055505b600073ffffffffffffffffffffffffffffffffffffffff168473ffffffffffffffffffffffffffffffffffffffff16146103845783600160006101000a81548173ffffffffffffffffffffffffffffffffffffffff021916908373ffffffffffffffffffffffffffffffffffffffff1602179055505b600073ffffffffffffffffffffffffffffffffffffffff168273ffffffffffffffffffffffffffffffffffffffff16146103fa5781600360006101000a81548173ffffffffffffffffffffffffffffffffffffffff021916908373ffffffffffffffffffffffffffffffffffffffff1602179055505b600073ffffffffffffffffffffffffffffffffffffffff168173ffffffffffffffffffffffffffffffffffffffff16146104705780600260006101000a81548173ffffffffffffffffffffffffffffffffffffffff021916908373ffffffffffffffffffffffffffffffffffffffff1602179055505b50505050565b600160009054906101000a900473ffffffffffffffffffffffffffffffffffffffff1681565b6000813590506104ab8161076f565b92915050565b6000815190506104c081610786565b92915050565b600080600080608085870312156104dc57600080fd5b60006104ea8782880161049c565b94505060206104fb8782880161049c565b935050604061050c8782880161049c565b925050606061051d8782880161049c565b91505092959194509250565b60006020828403121561053b57600080fd5b6000610549848285016104b1565b91505092915050565b61055b81610678565b82525050565b61056a816106b6565b82525050565b610579816106da565b82525050565b610588816106fe565b82525050565b61059781610722565b82525050565b60006105aa602083610667565b91506105b582610746565b602082019050919050565b60006020820190506105d56000830184610552565b92915050565b60006020820190506105f06000830184610561565b92915050565b600060208201905061060b6000830184610570565b92915050565b6000602082019050610626600083018461057f565b92915050565b6000602082019050610641600083018461058e565b92915050565b600060208201905081810360008301526106608161059d565b9050919050565b600082825260208201905092915050565b600061068382610696565b9050919050565b60008115159050919050565b600073ffffffffffffffffffffffffffffffffffffffff82169050919050565b60006106c1826106c8565b9050919050565b60006106d382610696565b9050919050565b60006106e5826106ec565b9050919050565b60006106f782610696565b9050919050565b600061070982610710565b9050919050565b600061071b82610696565b9050919050565b600061072d82610734565b9050919050565b600061073f82610696565b9050919050565b7f4d49534f48656c7065723a2053656e646572206d7573742062652041646d696e600082015250565b61077881610678565b811461078357600080fd5b50565b61078f8161068a565b811461079a57600080fd5b5056fea2646970667358221220e6edcf7d9ef5c7e83f3a77db946d31070852f653ff05e4d7e1afd7b907d3cd0264736f6c63430008040033",
  "linkReferences": {},
  "deployedLinkReferences": {}
}