{
  "_format": "hh-sol-artifact-1",
  "contractName": "DocumentHepler",
  "sourceName": "contracts/Helper/MISOHelper.sol",
  "abi": [
    {
      "inputs": [
        {
          "internalType": "address",
          "name": "_document",
          "type": "address"
        }
      ],
      "name": "getDocuments",
      "outputs": [
        {
          "components": [
            {
              "internalType": "string",
              "name": "name",
              "type": "string"
            },
            {
              "internalType": "string",
              "name": "data",
              "type": "string"
            },
            {
              "internalType": "uint256",
              "name": "lastModified",
              "type": "uint256"
            }
          ],
          "internalType": "struct DocumentHepler.Document[]",
          "name": "",
          "type": "tuple[]"
        }
      ],
      "stateMutability": "view",
      "type": "function"
    }
  ],
  "bytecode": "0x608060405234801561001057600080fd5b5061096d806100206000396000f3fe608060405234801561001057600080fd5b506004361061002b5760003560e01c806327f50a2d14610030575b600080fd5b61004a6004803603810190610045919061043f565b610060565b6040516100579190610696565b60405180910390f35b6060600082905060008173ffffffffffffffffffffffffffffffffffffffff16633d1c22736040518163ffffffff1660e01b815260040160206040518083038186803b1580156100af57600080fd5b505afa1580156100c3573d6000803e3d6000fd5b505050506040513d601f19601f820116820180604052508101906100e791906104fd565b905060008167ffffffffffffffff81111561012b577f4e487b7100000000000000000000000000000000000000000000000000000000600052604160045260246000fd5b60405190808252806020026020018201604052801561016457816020015b61015161038c565b8152602001906001900390816101495790505b50905060005b828110156103805760008473ffffffffffffffffffffffffffffffffffffffff1663c6b547e6836040518263ffffffff1660e01b81526004016101ad91906106da565b60006040518083038186803b1580156101c557600080fd5b505afa1580156101d9573d6000803e3d6000fd5b505050506040513d6000823e3d601f19601f820116820180604052508101906102029190610468565b90508473ffffffffffffffffffffffffffffffffffffffff16637ccb6a64826040518263ffffffff1660e01b815260040161023d91906106b8565b60006040518083038186803b15801561025557600080fd5b505afa158015610269573d6000803e3d6000fd5b505050506040513d6000823e3d601f19601f8201168201806040525081019061029291906104a9565b8484815181106102cb577f4e487b7100000000000000000000000000000000000000000000000000000000600052603260045260246000fd5b602002602001015160200185858151811061030f577f4e487b7100000000000000000000000000000000000000000000000000000000600052603260045260246000fd5b60200260200101516040018281525082905250508083838151811061035d577f4e487b7100000000000000000000000000000000000000000000000000000000600052603260045260246000fd5b60200260200101516000018190525050808061037890610851565b91505061016a565b50809350505050919050565b60405180606001604052806060815260200160608152602001600081525090565b60006103c06103bb8461071a565b6106f5565b9050828152602081018484840111156103d857600080fd5b6103e38482856107ed565b509392505050565b6000813590506103fa81610909565b92915050565b600082601f83011261041157600080fd5b81516104218482602086016103ad565b91505092915050565b60008151905061043981610920565b92915050565b60006020828403121561045157600080fd5b600061045f848285016103eb565b91505092915050565b60006020828403121561047a57600080fd5b600082015167ffffffffffffffff81111561049457600080fd5b6104a084828501610400565b91505092915050565b600080604083850312156104bc57600080fd5b600083015167ffffffffffffffff8111156104d657600080fd5b6104e285828601610400565b92505060206104f38582860161042a565b9150509250929050565b60006020828403121561050f57600080fd5b600061051d8482850161042a565b91505092915050565b60006105328383610621565b905092915050565b60006105458261075b565b61054f818561077e565b9350836020820285016105618561074b565b8060005b8581101561059d578484038952815161057e8582610526565b945061058983610771565b925060208a01995050600181019050610565565b50829750879550505050505092915050565b60006105ba82610766565b6105c4818561078f565b93506105d48185602086016107ed565b6105dd816108f8565b840191505092915050565b60006105f382610766565b6105fd81856107a0565b935061060d8185602086016107ed565b610616816108f8565b840191505092915050565b6000606083016000830151848203600086015261063e82826105af565b9150506020830151848203602086015261065882826105af565b915050604083015161066d6040860182610678565b508091505092915050565b610681816107e3565b82525050565b610690816107e3565b82525050565b600060208201905081810360008301526106b0818461053a565b905092915050565b600060208201905081810360008301526106d281846105e8565b905092915050565b60006020820190506106ef6000830184610687565b92915050565b60006106ff610710565b905061070b8282610820565b919050565b6000604051905090565b600067ffffffffffffffff821115610735576107346108c9565b5b61073e826108f8565b9050602081019050919050565b6000819050602082019050919050565b600081519050919050565b600081519050919050565b6000602082019050919050565b600082825260208201905092915050565b600082825260208201905092915050565b600082825260208201905092915050565b60006107bc826107c3565b9050919050565b600073ffffffffffffffffffffffffffffffffffffffff82169050919050565b6000819050919050565b60005b8381101561080b5780820151818401526020810190506107f0565b8381111561081a576000848401525b50505050565b610829826108f8565b810181811067ffffffffffffffff82111715610848576108476108c9565b5b80604052505050565b600061085c826107e3565b91507fffffffffffffffffffffffffffffffffffffffffffffffffffffffffffffffff82141561088f5761088e61089a565b5b600182019050919050565b7f4e487b7100000000000000000000000000000000000000000000000000000000600052601160045260246000fd5b7f4e487b7100000000000000000000000000000000000000000000000000000000600052604160045260246000fd5b6000601f19601f8301169050919050565b610912816107b1565b811461091d57600080fd5b50565b610929816107e3565b811461093457600080fd5b5056fea26469706673582212200f76fb3bd39f0087bcf8ee54622c4e233f95faf2b308fc61d65181b4b7d3a24464736f6c63430008040033",
  "linkReferences": {},
  "deployedLinkReferences": {}
}