{
  "_format": "hh-sol-artifact-1",
  "contractName": "FarmHelper",
  "sourceName": "contracts/Helper/MISOHelper.sol",
  "abi": [
    {
      "inputs": [],
      "name": "accessControls",
      "outputs": [
        {
          "internalType": "contract MISOAccessControls",
          "name": "",
          "type": "address"
        }
      ],
      "stateMutability": "view",
      "type": "function"
    },
    {
      "inputs": [
        {
          "internalType": "address",
          "name": "_token",
          "type": "address"
        },
        {
          "internalType": "address",
          "name": "_owner",
          "type": "address"
        },
        {
          "internalType": "address",
          "name": "_spender",
          "type": "address"
        }
      ],
      "name": "allowance",
      "outputs": [
        {
          "internalType": "uint256",
          "name": "",
          "type": "uint256"
        }
      ],
      "stateMutability": "view",
      "type": "function"
    },
    {
      "inputs": [],
      "name": "farmFactory",
      "outputs": [
        {
          "internalType": "contract IMisoFarmFactory",
          "name": "",
          "type": "address"
        }
      ],
      "stateMutability": "view",
      "type": "function"
    },
    {
      "inputs": [
        {
          "internalType": "address",
          "name": "_farm",
          "type": "address"
        },
        {
          "internalType": "address",
          "name": "_user",
          "type": "address"
        }
      ],
      "name": "getFarmDetail",
      "outputs": [
        {
          "components": [
            {
              "internalType": "address",
              "name": "addr",
              "type": "address"
            },
            {
              "internalType": "uint256",
              "name": "templateId",
              "type": "uint256"
            },
            {
              "internalType": "uint256",
              "name": "rewardsPerBlock",
              "type": "uint256"
            },
            {
              "internalType": "uint256",
              "name": "bonusMultiplier",
              "type": "uint256"
            },
            {
              "components": [
                {
                  "internalType": "address",
                  "name": "addr",
                  "type": "address"
                },
                {
                  "internalType": "uint256",
                  "name": "decimals",
                  "type": "uint256"
                },
                {
                  "internalType": "string",
                  "name": "name",
                  "type": "string"
                },
                {
                  "internalType": "string",
                  "name": "symbol",
                  "type": "string"
                }
              ],
              "internalType": "struct TokenHelper.TokenInfo",
              "name": "rewardToken",
              "type": "tuple"
            },
            {
              "components": [
                {
                  "internalType": "address",
                  "name": "lpToken",
                  "type": "address"
                },
                {
                  "internalType": "uint256",
                  "name": "allocPoint",
                  "type": "uint256"
                },
                {
                  "internalType": "uint256",
                  "name": "lastRewardBlock",
                  "type": "uint256"
                },
                {
                  "internalType": "uint256",
                  "name": "accRewardsPerShare",
                  "type": "uint256"
                },
                {
                  "internalType": "uint256",
                  "name": "totalStaked",
                  "type": "uint256"
                },
                {
                  "components": [
                    {
                      "internalType": "address",
                      "name": "addr",
                      "type": "address"
                    },
                    {
                      "internalType": "uint256",
                      "name": "decimals",
                      "type": "uint256"
                    },
                    {
                      "internalType": "string",
                      "name": "name",
                      "type": "string"
                    },
                    {
                      "internalType": "string",
                      "name": "symbol",
                      "type": "string"
                    }
                  ],
                  "internalType": "struct TokenHelper.TokenInfo",
                  "name": "stakingToken",
                  "type": "tuple"
                }
              ],
              "internalType": "struct FarmHelper.PoolInfo[]",
              "name": "pools",
              "type": "tuple[]"
            }
          ],
          "internalType": "struct FarmHelper.FarmInfo",
          "name": "farmInfo",
          "type": "tuple"
        },
        {
          "components": [
            {
              "internalType": "address",
              "name": "farm",
              "type": "address"
            },
            {
              "internalType": "uint256",
              "name": "pid",
              "type": "uint256"
            },
            {
              "internalType": "uint256",
              "name": "totalStaked",
              "type": "uint256"
            },
            {
              "internalType": "uint256",
              "name": "lpBalance",
              "type": "uint256"
            },
            {
              "internalType": "uint256",
              "name": "lpAllowance",
              "type": "uint256"
            },
            {
              "internalType": "uint256",
              "name": "rewardDebt",
              "type": "uint256"
            },
            {
              "internalType": "uint256",
              "name": "pendingRewards",
              "type": "uint256"
            }
          ],
          "internalType": "struct FarmHelper.UserPoolInfo[]",
          "name": "userInfos",
          "type": "tuple[]"
        }
      ],
      "stateMutability": "view",
      "type": "function"
    },
    {
      "inputs": [
        {
          "internalType": "uint256",
          "name": "pageSize",
          "type": "uint256"
        },
        {
          "internalType": "uint256",
          "name": "pageNbr",
          "type": "uint256"
        },
        {
          "internalType": "uint256",
          "name": "offset",
          "type": "uint256"
        }
      ],
      "name": "getFarms",
      "outputs": [
        {
          "components": [
            {
              "internalType": "address",
              "name": "addr",
              "type": "address"
            },
            {
              "internalType": "uint256",
              "name": "templateId",
              "type": "uint256"
            },
            {
              "internalType": "uint256",
              "name": "rewardsPerBlock",
              "type": "uint256"
            },
            {
              "internalType": "uint256",
              "name": "bonusMultiplier",
              "type": "uint256"
            },
            {
              "components": [
                {
                  "internalType": "address",
                  "name": "addr",
                  "type": "address"
                },
                {
                  "internalType": "uint256",
                  "name": "decimals",
                  "type": "uint256"
                },
                {
                  "internalType": "string",
                  "name": "name",
                  "type": "string"
                },
                {
                  "internalType": "string",
                  "name": "symbol",
                  "type": "string"
                }
              ],
              "internalType": "struct TokenHelper.TokenInfo",
              "name": "rewardToken",
              "type": "tuple"
            },
            {
              "components": [
                {
                  "internalType": "address",
                  "name": "lpToken",
                  "type": "address"
                },
                {
                  "internalType": "uint256",
                  "name": "allocPoint",
                  "type": "uint256"
                },
                {
                  "internalType": "uint256",
                  "name": "lastRewardBlock",
                  "type": "uint256"
                },
                {
                  "internalType": "uint256",
                  "name": "accRewardsPerShare",
                  "type": "uint256"
                },
                {
                  "internalType": "uint256",
                  "name": "totalStaked",
                  "type": "uint256"
                },
                {
                  "components": [
                    {
                      "internalType": "address",
                      "name": "addr",
                      "type": "address"
                    },
                    {
                      "internalType": "uint256",
                      "name": "decimals",
                      "type": "uint256"
                    },
                    {
                      "internalType": "string",
                      "name": "name",
                      "type": "string"
                    },
                    {
                      "internalType": "string",
                      "name": "symbol",
                      "type": "string"
                    }
                  ],
                  "internalType": "struct TokenHelper.TokenInfo",
                  "name": "stakingToken",
                  "type": "tuple"
                }
              ],
              "internalType": "struct FarmHelper.PoolInfo[]",
              "name": "pools",
              "type": "tuple[]"
            }
          ],
          "internalType": "struct FarmHelper.FarmInfo[]",
          "name": "",
          "type": "tuple[]"
        }
      ],
      "stateMutability": "view",
      "type": "function"
    },
    {
      "inputs": [],
      "name": "getFarms",
      "outputs": [
        {
          "components": [
            {
              "internalType": "address",
              "name": "addr",
              "type": "address"
            },
            {
              "internalType": "uint256",
              "name": "templateId",
              "type": "uint256"
            },
            {
              "internalType": "uint256",
              "name": "rewardsPerBlock",
              "type": "uint256"
            },
            {
              "internalType": "uint256",
              "name": "bonusMultiplier",
              "type": "uint256"
            },
            {
              "components": [
                {
                  "internalType": "address",
                  "name": "addr",
                  "type": "address"
                },
                {
                  "internalType": "uint256",
                  "name": "decimals",
                  "type": "uint256"
                },
                {
                  "internalType": "string",
                  "name": "name",
                  "type": "string"
                },
                {
                  "internalType": "string",
                  "name": "symbol",
                  "type": "string"
                }
              ],
              "internalType": "struct TokenHelper.TokenInfo",
              "name": "rewardToken",
              "type": "tuple"
            },
            {
              "components": [
                {
                  "internalType": "address",
                  "name": "lpToken",
                  "type": "address"
                },
                {
                  "internalType": "uint256",
                  "name": "allocPoint",
                  "type": "uint256"
                },
                {
                  "internalType": "uint256",
                  "name": "lastRewardBlock",
                  "type": "uint256"
                },
                {
                  "internalType": "uint256",
                  "name": "accRewardsPerShare",
                  "type": "uint256"
                },
                {
                  "internalType": "uint256",
                  "name": "totalStaked",
                  "type": "uint256"
                },
                {
                  "components": [
                    {
                      "internalType": "address",
                      "name": "addr",
                      "type": "address"
                    },
                    {
                      "internalType": "uint256",
                      "name": "decimals",
                      "type": "uint256"
                    },
                    {
                      "internalType": "string",
                      "name": "name",
                      "type": "string"
                    },
                    {
                      "internalType": "string",
                      "name": "symbol",
                      "type": "string"
                    }
                  ],
                  "internalType": "struct TokenHelper.TokenInfo",
                  "name": "stakingToken",
                  "type": "tuple"
                }
              ],
              "internalType": "struct FarmHelper.PoolInfo[]",
              "name": "pools",
              "type": "tuple[]"
            }
          ],
          "internalType": "struct FarmHelper.FarmInfo[]",
          "name": "",
          "type": "tuple[]"
        }
      ],
      "stateMutability": "view",
      "type": "function"
    },
    {
      "inputs": [
        {
          "internalType": "uint256",
          "name": "pageSize",
          "type": "uint256"
        },
        {
          "internalType": "uint256",
          "name": "pageNbr",
          "type": "uint256"
        }
      ],
      "name": "getFarms",
      "outputs": [
        {
          "components": [
            {
              "internalType": "address",
              "name": "addr",
              "type": "address"
            },
            {
              "internalType": "uint256",
              "name": "templateId",
              "type": "uint256"
            },
            {
              "internalType": "uint256",
              "name": "rewardsPerBlock",
              "type": "uint256"
            },
            {
              "internalType": "uint256",
              "name": "bonusMultiplier",
              "type": "uint256"
            },
            {
              "components": [
                {
                  "internalType": "address",
                  "name": "addr",
                  "type": "address"
                },
                {
                  "internalType": "uint256",
                  "name": "decimals",
                  "type": "uint256"
                },
                {
                  "internalType": "string",
                  "name": "name",
                  "type": "string"
                },
                {
                  "internalType": "string",
                  "name": "symbol",
                  "type": "string"
                }
              ],
              "internalType": "struct TokenHelper.TokenInfo",
              "name": "rewardToken",
              "type": "tuple"
            },
            {
              "components": [
                {
                  "internalType": "address",
                  "name": "lpToken",
                  "type": "address"
                },
                {
                  "internalType": "uint256",
                  "name": "allocPoint",
                  "type": "uint256"
                },
                {
                  "internalType": "uint256",
                  "name": "lastRewardBlock",
                  "type": "uint256"
                },
                {
                  "internalType": "uint256",
                  "name": "accRewardsPerShare",
                  "type": "uint256"
                },
                {
                  "internalType": "uint256",
                  "name": "totalStaked",
                  "type": "uint256"
                },
                {
                  "components": [
                    {
                      "internalType": "address",
                      "name": "addr",
                      "type": "address"
                    },
                    {
                      "internalType": "uint256",
                      "name": "decimals",
                      "type": "uint256"
                    },
                    {
                      "internalType": "string",
                      "name": "name",
                      "type": "string"
                    },
                    {
                      "internalType": "string",
                      "name": "symbol",
                      "type": "string"
                    }
                  ],
                  "internalType": "struct TokenHelper.TokenInfo",
                  "name": "stakingToken",
                  "type": "tuple"
                }
              ],
              "internalType": "struct FarmHelper.PoolInfo[]",
              "name": "pools",
              "type": "tuple[]"
            }
          ],
          "internalType": "struct FarmHelper.FarmInfo[]",
          "name": "",
          "type": "tuple[]"
        }
      ],
      "stateMutability": "view",
      "type": "function"
    },
    {
      "inputs": [
        {
          "internalType": "address",
          "name": "_farm",
          "type": "address"
        }
      ],
      "name": "getPools",
      "outputs": [
        {
          "components": [
            {
              "internalType": "address",
              "name": "lpToken",
              "type": "address"
            },
            {
              "internalType": "uint256",
              "name": "allocPoint",
              "type": "uint256"
            },
            {
              "internalType": "uint256",
              "name": "lastRewardBlock",
              "type": "uint256"
            },
            {
              "internalType": "uint256",
              "name": "accRewardsPerShare",
              "type": "uint256"
            },
            {
              "internalType": "uint256",
              "name": "totalStaked",
              "type": "uint256"
            },
            {
              "components": [
                {
                  "internalType": "address",
                  "name": "addr",
                  "type": "address"
                },
                {
                  "internalType": "uint256",
                  "name": "decimals",
                  "type": "uint256"
                },
                {
                  "internalType": "string",
                  "name": "name",
                  "type": "string"
                },
                {
                  "internalType": "string",
                  "name": "symbol",
                  "type": "string"
                }
              ],
              "internalType": "struct TokenHelper.TokenInfo",
              "name": "stakingToken",
              "type": "tuple"
            }
          ],
          "internalType": "struct FarmHelper.PoolInfo[]",
          "name": "",
          "type": "tuple[]"
        }
      ],
      "stateMutability": "view",
      "type": "function"
    },
    {
      "inputs": [
        {
          "internalType": "address",
          "name": "_address",
          "type": "address"
        }
      ],
      "name": "getTokenInfo",
      "outputs": [
        {
          "components": [
            {
              "internalType": "address",
              "name": "addr",
              "type": "address"
            },
            {
              "internalType": "uint256",
              "name": "decimals",
              "type": "uint256"
            },
            {
              "internalType": "string",
              "name": "name",
              "type": "string"
            },
            {
              "internalType": "string",
              "name": "symbol",
              "type": "string"
            }
          ],
          "internalType": "struct TokenHelper.TokenInfo",
          "name": "",
          "type": "tuple"
        }
      ],
      "stateMutability": "view",
      "type": "function"
    },
    {
      "inputs": [
        {
          "internalType": "address[]",
          "name": "addresses",
          "type": "address[]"
        }
      ],
      "name": "getTokensInfo",
      "outputs": [
        {
          "components": [
            {
              "internalType": "address",
              "name": "addr",
              "type": "address"
            },
            {
              "internalType": "uint256",
              "name": "decimals",
              "type": "uint256"
            },
            {
              "internalType": "string",
              "name": "name",
              "type": "string"
            },
            {
              "internalType": "string",
              "name": "symbol",
              "type": "string"
            }
          ],
          "internalType": "struct TokenHelper.TokenInfo[]",
          "name": "",
          "type": "tuple[]"
        }
      ],
      "stateMutability": "view",
      "type": "function"
    },
    {
      "inputs": [
        {
          "internalType": "address",
          "name": "_user",
          "type": "address"
        }
      ],
      "name": "getUserPoolsInfos",
      "outputs": [
        {
          "components": [
            {
              "internalType": "address",
              "name": "farm",
              "type": "address"
            },
            {
              "internalType": "uint256[]",
              "name": "pids",
              "type": "uint256[]"
            },
            {
              "internalType": "uint256[]",
              "name": "totalStaked",
              "type": "uint256[]"
            },
            {
              "internalType": "uint256[]",
              "name": "pendingRewards",
              "type": "uint256[]"
            }
          ],
          "internalType": "struct FarmHelper.UserPoolsInfo[]",
          "name": "",
          "type": "tuple[]"
        }
      ],
      "stateMutability": "view",
      "type": "function"
    },
    {
      "inputs": [],
      "name": "launcher",
      "outputs": [
        {
          "internalType": "address",
          "name": "",
          "type": "address"
        }
      ],
      "stateMutability": "view",
      "type": "function"
    },
    {
      "inputs": [],
      "name": "market",
      "outputs": [
        {
          "internalType": "contract IMisoMarketFactory",
          "name": "",
          "type": "address"
        }
      ],
      "stateMutability": "view",
      "type": "function"
    },
    {
      "inputs": [
        {
          "internalType": "address",
          "name": "_tokenFactory",
          "type": "address"
        },
        {
          "internalType": "address",
          "name": "_market",
          "type": "address"
        },
        {
          "internalType": "address",
          "name": "_launcher",
          "type": "address"
        },
        {
          "internalType": "address",
          "name": "_farmFactory",
          "type": "address"
        }
      ],
      "name": "setContracts",
      "outputs": [],
      "stateMutability": "nonpayable",
      "type": "function"
    },
    {
      "inputs": [],
      "name": "tokenFactory",
      "outputs": [
        {
          "internalType": "contract IMisoTokenFactory",
          "name": "",
          "type": "address"
        }
      ],
      "stateMutability": "view",
      "type": "function"
    }
  ],
  "bytecode": "0x608060405234801561001057600080fd5b50613bad806100206000396000f3fe608060405234801561001057600080fd5b50600436106100f55760003560e01c80636d25e175116100975780639dc4ac8a116100665780639dc4ac8a146102c3578063bce16f4b146102e1578063bf989b6e14610311578063e77772fe1461032d576100f5565b80636d25e17514610239578063748365ef1461025757806380f5560514610275578063927da10514610293576100f5565b806322aeea09116100d357806322aeea091461017857806346a0fe47146101a857806356468ddf146101d85780635c39f46714610209576100f5565b80630cbf4ba7146100fa57806316eebd1e1461012a5780631f69565f14610148575b600080fd5b610114600480360381019061010f91906128c6565b61034b565b60405161012191906134ac565b60405180910390f35b610132610a85565b60405161013f9190613402565b60405180910390f35b610162600480360381019061015d91906128c6565b610aab565b60405161016f9190613591565b60405180910390f35b610192600480360381019061018d9190612bb5565b610ca2565b60405161019f9190613446565b60405180910390f35b6101c260048036038101906101bd9190612a69565b610f5d565b6040516101cf919061348a565b60405180910390f35b6101f260048036038101906101ed9190612918565b611094565b60405161020092919061355a565b60405180910390f35b610223600480360381019061021e91906128c6565b611825565b6040516102309190613468565b60405180910390f35b610241611cda565b60405161024e91906134ce565b60405180910390f35b61025f611d00565b60405161026c919061351f565b60405180910390f35b61027d611d26565b60405161028a91906134e9565b60405180910390f35b6102ad60048036038101906102a89190612954565b611d4a565b6040516102ba91906135b3565b60405180910390f35b6102cb611de0565b6040516102d89190613446565b60405180910390f35b6102fb60048036038101906102f69190612b3d565b612028565b6040516103089190613446565b60405180910390f35b61032b600480360381019061032691906129a3565b61203e565b005b610335612305565b6040516103429190613504565b60405180910390f35b60606000600260009054906101000a900473ffffffffffffffffffffffffffffffffffffffff1673ffffffffffffffffffffffffffffffffffffffff16638f5185e86040518163ffffffff1660e01b815260040160206040518083038186803b1580156103b757600080fd5b505afa1580156103cb573d6000803e3d6000fd5b505050506040513d601f19601f820116820180604052508101906103ef9190612b14565b905060008167ffffffffffffffff811115610433577f4e487b7100000000000000000000000000000000000000000000000000000000600052604160045260246000fd5b60405190808252806020026020018201604052801561046c57816020015b6104596125d7565b8152602001906001900390816104515790505b50905060005b82811015610a7a576000600260009054906101000a900473ffffffffffffffffffffffffffffffffffffffff1673ffffffffffffffffffffffffffffffffffffffff16637da470ea836040518263ffffffff1660e01b81526004016104d791906135b3565b60206040518083038186803b1580156104ef57600080fd5b505afa158015610503573d6000803e3d6000fd5b505050506040513d601f19601f8201168201806040525081019061052791906128ef565b9050600081905060008173ffffffffffffffffffffffffffffffffffffffff1663081e3eda6040518163ffffffff1660e01b815260040160206040518083038186803b15801561057657600080fd5b505afa15801561058a573d6000803e3d6000fd5b505050506040513d601f19601f820116820180604052508101906105ae9190612b14565b905060008167ffffffffffffffff8111156105f2577f4e487b7100000000000000000000000000000000000000000000000000000000600052604160045260246000fd5b6040519080825280602002602001820160405280156106205781602001602082028036833780820191505090505b50905060008267ffffffffffffffff811115610665577f4e487b7100000000000000000000000000000000000000000000000000000000600052604160045260246000fd5b6040519080825280602002602001820160405280156106935781602001602082028036833780820191505090505b50905060008367ffffffffffffffff8111156106d8577f4e487b7100000000000000000000000000000000000000000000000000000000600052604160045260246000fd5b6040519080825280602002602001820160405280156107065781602001602082028036833780820191505090505b50905060005b8481101561090d578573ffffffffffffffffffffffffffffffffffffffff166393f1a40b828e6040518363ffffffff1660e01b815260040161074f9291906135ce565b604080518083038186803b15801561076657600080fd5b505afa15801561077a573d6000803e3d6000fd5b505050506040513d601f19601f8201168201806040525081019061079e9190612b79565b508482815181106107d8577f4e487b7100000000000000000000000000000000000000000000000000000000600052603260045260246000fd5b6020026020010181815250508573ffffffffffffffffffffffffffffffffffffffff1663d18df53c828e6040518363ffffffff1660e01b815260040161081f9291906135ce565b60206040518083038186803b15801561083757600080fd5b505afa15801561084b573d6000803e3d6000fd5b505050506040513d601f19601f8201168201806040525081019061086f9190612b14565b8382815181106108a8577f4e487b7100000000000000000000000000000000000000000000000000000000600052603260045260246000fd5b602002602001018181525050808282815181106108ee577f4e487b7100000000000000000000000000000000000000000000000000000000600052603260045260246000fd5b602002602001018181525050808061090590613a3a565b91505061070c565b5082888881518110610948577f4e487b7100000000000000000000000000000000000000000000000000000000600052603260045260246000fd5b60200260200101516040018190525081888881518110610991577f4e487b7100000000000000000000000000000000000000000000000000000000600052603260045260246000fd5b602002602001015160600181905250808888815181106109da577f4e487b7100000000000000000000000000000000000000000000000000000000600052603260045260246000fd5b60200260200101516020018190525085888881518110610a23577f4e487b7100000000000000000000000000000000000000000000000000000000600052603260045260246000fd5b60200260200101516000019073ffffffffffffffffffffffffffffffffffffffff16908173ffffffffffffffffffffffffffffffffffffffff16815250505050505050508080610a7290613a3a565b915050610472565b508092505050919050565b600360009054906101000a900473ffffffffffffffffffffffffffffffffffffffff1681565b610ab3612615565b610abb612615565b600083905083826000019073ffffffffffffffffffffffffffffffffffffffff16908173ffffffffffffffffffffffffffffffffffffffff16815250508073ffffffffffffffffffffffffffffffffffffffff166306fdde036040518163ffffffff1660e01b815260040160006040518083038186803b158015610b3e57600080fd5b505afa158015610b52573d6000803e3d6000fd5b505050506040513d6000823e3d601f19601f82011682018060405250810190610b7b9190612ad3565b82604001819052508073ffffffffffffffffffffffffffffffffffffffff166395d89b416040518163ffffffff1660e01b815260040160006040518083038186803b158015610bc957600080fd5b505afa158015610bdd573d6000803e3d6000fd5b505050506040513d6000823e3d601f19601f82011682018060405250810190610c069190612ad3565b82606001819052508073ffffffffffffffffffffffffffffffffffffffff1663313ce5676040518163ffffffff1660e01b815260040160206040518083038186803b158015610c5457600080fd5b505afa158015610c68573d6000803e3d6000fd5b505050506040513d601f19601f82011682018060405250810190610c8c9190612c04565b60ff168260200181815250508192505050919050565b60606000600260009054906101000a900473ffffffffffffffffffffffffffffffffffffffff1673ffffffffffffffffffffffffffffffffffffffff16638f5185e86040518163ffffffff1660e01b815260040160206040518083038186803b158015610d0e57600080fd5b505afa158015610d22573d6000803e3d6000fd5b505050506040513d601f19601f82011682018060405250810190610d469190612b14565b90506000838686610d579190613863565b610d61919061380d565b905060008682610d71919061380d565b9050606083821115610d81578391505b82821015610d955780945050505050610f56565b8282610da191906138bd565b67ffffffffffffffff811115610de0577f4e487b7100000000000000000000000000000000000000000000000000000000600052604160045260246000fd5b604051908082528060200260200182016040528015610e1957816020015b610e06612653565b815260200190600190039081610dfe5790505b50905060005b828482610e2c919061380d565b1015610f4d576000600260009054906101000a900473ffffffffffffffffffffffffffffffffffffffff1673ffffffffffffffffffffffffffffffffffffffff16637da470ea8684610e7e919061380d565b6040518263ffffffff1660e01b8152600401610e9a91906135b3565b60206040518083038186803b158015610eb257600080fd5b505afa158015610ec6573d6000803e3d6000fd5b505050506040513d601f19601f82011682018060405250810190610eea91906128ef565b9050610ef58161232b565b838381518110610f2e577f4e487b7100000000000000000000000000000000000000000000000000000000600052603260045260246000fd5b6020026020010181905250508080610f4590613a3a565b915050610e1f565b50809450505050505b9392505050565b60606000825167ffffffffffffffff811115610fa2577f4e487b7100000000000000000000000000000000000000000000000000000000600052604160045260246000fd5b604051908082528060200260200182016040528015610fdb57816020015b610fc8612615565b815260200190600190039081610fc05790505b50905060005b835181101561108a57611033848281518110611026577f4e487b7100000000000000000000000000000000000000000000000000000000600052603260045260246000fd5b6020026020010151610aab565b82828151811061106c577f4e487b7100000000000000000000000000000000000000000000000000000000600052603260045260246000fd5b6020026020010181905250808061108290613a3a565b915050610fe1565b5080915050919050565b61109c612653565b6060600084905084836000019073ffffffffffffffffffffffffffffffffffffffff16908173ffffffffffffffffffffffffffffffffffffffff1681525050600260009054906101000a900473ffffffffffffffffffffffffffffffffffffffff1673ffffffffffffffffffffffffffffffffffffffff1663d335ebda866040518263ffffffff1660e01b81526004016111369190613402565b60206040518083038186803b15801561114e57600080fd5b505afa158015611162573d6000803e3d6000fd5b505050506040513d601f19601f820116820180604052508101906111869190612b14565b8360200181815250508073ffffffffffffffffffffffffffffffffffffffff16635eeb67106040518163ffffffff1660e01b815260040160206040518083038186803b1580156111d557600080fd5b505afa1580156111e9573d6000803e3d6000fd5b505050506040513d601f19601f8201168201806040525081019061120d9190612b14565b8360400181815250508073ffffffffffffffffffffffffffffffffffffffff1663a8b973a16040518163ffffffff1660e01b815260040160206040518083038186803b15801561125c57600080fd5b505afa158015611270573d6000803e3d6000fd5b505050506040513d601f19601f820116820180604052508101906112949190612b14565b8360600181815250506113238173ffffffffffffffffffffffffffffffffffffffff16639ec5a8946040518163ffffffff1660e01b815260040160206040518083038186803b1580156112e657600080fd5b505afa1580156112fa573d6000803e3d6000fd5b505050506040513d601f19601f8201168201806040525081019061131e91906128ef565b610aab565b836080018190525061133485611825565b8360a00181905250600073ffffffffffffffffffffffffffffffffffffffff168473ffffffffffffffffffffffffffffffffffffffff161461181d5760008360a001519050805167ffffffffffffffff8111156113ba577f4e487b7100000000000000000000000000000000000000000000000000000000600052604160045260246000fd5b6040519080825280602002602001820160405280156113f357816020015b6113e06126a5565b8152602001906001900390816113d85790505b50925060005b815181101561181a57600084828151811061143d577f4e487b7100000000000000000000000000000000000000000000000000000000600052603260045260246000fd5b602002602001015190506000838381518110611482577f4e487b7100000000000000000000000000000000000000000000000000000000600052603260045260246000fd5b602002602001015160a001516000015190508473ffffffffffffffffffffffffffffffffffffffff166393f1a40b848a6040518363ffffffff1660e01b81526004016114cf9291906135ce565b604080518083038186803b1580156114e657600080fd5b505afa1580156114fa573d6000803e3d6000fd5b505050506040513d601f19601f8201168201806040525081019061151e9190612b79565b836040018460a001828152508281525050508073ffffffffffffffffffffffffffffffffffffffff166370a08231896040518263ffffffff1660e01b81526004016115699190613402565b60206040518083038186803b15801561158157600080fd5b505afa158015611595573d6000803e3d6000fd5b505050506040513d601f19601f820116820180604052508101906115b99190612b14565b8260600181815250508073ffffffffffffffffffffffffffffffffffffffff1663dd62ed3e898b6040518363ffffffff1660e01b81526004016115fd92919061341d565b60206040518083038186803b15801561161557600080fd5b505afa158015611629573d6000803e3d6000fd5b505050506040513d601f19601f8201168201806040525081019061164d9190612b14565b8260800181815250508473ffffffffffffffffffffffffffffffffffffffff1663d18df53c848a6040518363ffffffff1660e01b81526004016116919291906135ce565b60206040518083038186803b1580156116a957600080fd5b505afa1580156116bd573d6000803e3d6000fd5b505050506040513d601f19601f820116820180604052508101906116e19190612b14565b8260c00181815250508473ffffffffffffffffffffffffffffffffffffffff166393f1a40b848a6040518363ffffffff1660e01b81526004016117259291906135ce565b604080518083038186803b15801561173c57600080fd5b505afa158015611750573d6000803e3d6000fd5b505050506040513d601f19601f820116820180604052508101906117749190612b79565b5082604001818152505088826000019073ffffffffffffffffffffffffffffffffffffffff16908173ffffffffffffffffffffffffffffffffffffffff168152505082826020018181525050818684815181106117fa577f4e487b7100000000000000000000000000000000000000000000000000000000600052603260045260246000fd5b60200260200101819052505050808061181290613a3a565b9150506113f9565b50505b509250929050565b6060600082905060008173ffffffffffffffffffffffffffffffffffffffff1663081e3eda6040518163ffffffff1660e01b815260040160206040518083038186803b15801561187457600080fd5b505afa158015611888573d6000803e3d6000fd5b505050506040513d601f19601f820116820180604052508101906118ac9190612b14565b905060008167ffffffffffffffff8111156118f0577f4e487b7100000000000000000000000000000000000000000000000000000000600052604160045260246000fd5b60405190808252806020026020018201604052801561192957816020015b6119166126f8565b81526020019060019003908161190e5790505b50905060005b82811015611cce578373ffffffffffffffffffffffffffffffffffffffff16631526fe27826040518263ffffffff1660e01b815260040161197091906135b3565b60806040518083038186803b15801561198857600080fd5b505afa15801561199c573d6000803e3d6000fd5b505050506040513d601f19601f820116820180604052508101906119c09190612a06565b8585815181106119f9577f4e487b7100000000000000000000000000000000000000000000000000000000600052603260045260246000fd5b6020026020010151600001868681518110611a3d577f4e487b7100000000000000000000000000000000000000000000000000000000600052603260045260246000fd5b6020026020010151602001878781518110611a81577f4e487b7100000000000000000000000000000000000000000000000000000000600052603260045260246000fd5b6020026020010151604001888881518110611ac5577f4e487b7100000000000000000000000000000000000000000000000000000000600052603260045260246000fd5b60200260200101516060018481525084815250848152508473ffffffffffffffffffffffffffffffffffffffff1673ffffffffffffffffffffffffffffffffffffffff1681525050505050818181518110611b49577f4e487b7100000000000000000000000000000000000000000000000000000000600052603260045260246000fd5b60200260200101516000015173ffffffffffffffffffffffffffffffffffffffff166370a08231876040518263ffffffff1660e01b8152600401611b8d9190613402565b60206040518083038186803b158015611ba557600080fd5b505afa158015611bb9573d6000803e3d6000fd5b505050506040513d601f19601f82011682018060405250810190611bdd9190612b14565b828281518110611c16577f4e487b7100000000000000000000000000000000000000000000000000000000600052603260045260246000fd5b60200260200101516080018181525050611c73828281518110611c62577f4e487b7100000000000000000000000000000000000000000000000000000000600052603260045260246000fd5b602002602001015160000151610aab565b828281518110611cac577f4e487b7100000000000000000000000000000000000000000000000000000000600052603260045260246000fd5b602002602001015160a001819052508080611cc690613a3a565b91505061192f565b50809350505050919050565b600260009054906101000a900473ffffffffffffffffffffffffffffffffffffffff1681565b600460009054906101000a900473ffffffffffffffffffffffffffffffffffffffff1681565b60008054906101000a900473ffffffffffffffffffffffffffffffffffffffff1681565b60008373ffffffffffffffffffffffffffffffffffffffff1663dd62ed3e84846040518363ffffffff1660e01b8152600401611d8792919061341d565b60206040518083038186803b158015611d9f57600080fd5b505afa158015611db3573d6000803e3d6000fd5b505050506040513d601f19601f82011682018060405250810190611dd79190612b14565b90509392505050565b60606000600260009054906101000a900473ffffffffffffffffffffffffffffffffffffffff1673ffffffffffffffffffffffffffffffffffffffff16638f5185e86040518163ffffffff1660e01b815260040160206040518083038186803b158015611e4c57600080fd5b505afa158015611e60573d6000803e3d6000fd5b505050506040513d601f19601f82011682018060405250810190611e849190612b14565b905060008167ffffffffffffffff811115611ec8577f4e487b7100000000000000000000000000000000000000000000000000000000600052604160045260246000fd5b604051908082528060200260200182016040528015611f0157816020015b611eee612653565b815260200190600190039081611ee65790505b50905060005b8281101561201f576000600260009054906101000a900473ffffffffffffffffffffffffffffffffffffffff1673ffffffffffffffffffffffffffffffffffffffff16637da470ea836040518263ffffffff1660e01b8152600401611f6c91906135b3565b60206040518083038186803b158015611f8457600080fd5b505afa158015611f98573d6000803e3d6000fd5b505050506040513d601f19601f82011682018060405250810190611fbc91906128ef565b9050611fc78161232b565b838381518110612000577f4e487b7100000000000000000000000000000000000000000000000000000000600052603260045260246000fd5b602002602001018190525050808061201790613a3a565b915050611f07565b50809250505090565b606061203683836000610ca2565b905092915050565b600460009054906101000a900473ffffffffffffffffffffffffffffffffffffffff1673ffffffffffffffffffffffffffffffffffffffff1663c395fcb3336040518263ffffffff1660e01b81526004016120999190613402565b60206040518083038186803b1580156120b157600080fd5b505afa1580156120c5573d6000803e3d6000fd5b505050506040513d601f19601f820116820180604052508101906120e99190612aaa565b612128576040517f08c379a000000000000000000000000000000000000000000000000000000000815260040161211f9061353a565b60405180910390fd5b600073ffffffffffffffffffffffffffffffffffffffff168373ffffffffffffffffffffffffffffffffffffffff161461219d57826000806101000a81548173ffffffffffffffffffffffffffffffffffffffff021916908373ffffffffffffffffffffffffffffffffffffffff1602179055505b600073ffffffffffffffffffffffffffffffffffffffff168473ffffffffffffffffffffffffffffffffffffffff16146122135783600160006101000a81548173ffffffffffffffffffffffffffffffffffffffff021916908373ffffffffffffffffffffffffffffffffffffffff1602179055505b600073ffffffffffffffffffffffffffffffffffffffff168273ffffffffffffffffffffffffffffffffffffffff16146122895781600360006101000a81548173ffffffffffffffffffffffffffffffffffffffff021916908373ffffffffffffffffffffffffffffffffffffffff1602179055505b600073ffffffffffffffffffffffffffffffffffffffff168173ffffffffffffffffffffffffffffffffffffffff16146122ff5780600260006101000a81548173ffffffffffffffffffffffffffffffffffffffff021916908373ffffffffffffffffffffffffffffffffffffffff1602179055505b50505050565b600160009054906101000a900473ffffffffffffffffffffffffffffffffffffffff1681565b612333612653565b600082905082826000019073ffffffffffffffffffffffffffffffffffffffff16908173ffffffffffffffffffffffffffffffffffffffff1681525050600260009054906101000a900473ffffffffffffffffffffffffffffffffffffffff1673ffffffffffffffffffffffffffffffffffffffff1663d335ebda846040518263ffffffff1660e01b81526004016123cb9190613402565b60206040518083038186803b1580156123e357600080fd5b505afa1580156123f7573d6000803e3d6000fd5b505050506040513d601f19601f8201168201806040525081019061241b9190612b14565b8260200181815250508073ffffffffffffffffffffffffffffffffffffffff16635eeb67106040518163ffffffff1660e01b815260040160206040518083038186803b15801561246a57600080fd5b505afa15801561247e573d6000803e3d6000fd5b505050506040513d601f19601f820116820180604052508101906124a29190612b14565b8260400181815250508073ffffffffffffffffffffffffffffffffffffffff1663a8b973a16040518163ffffffff1660e01b815260040160206040518083038186803b1580156124f157600080fd5b505afa158015612505573d6000803e3d6000fd5b505050506040513d601f19601f820116820180604052508101906125299190612b14565b8260600181815250506125b88173ffffffffffffffffffffffffffffffffffffffff16639ec5a8946040518163ffffffff1660e01b815260040160206040518083038186803b15801561257b57600080fd5b505afa15801561258f573d6000803e3d6000fd5b505050506040513d601f19601f820116820180604052508101906125b391906128ef565b610aab565b82608001819052506125c983611825565b8260a0018190525050919050565b6040518060800160405280600073ffffffffffffffffffffffffffffffffffffffff1681526020016060815260200160608152602001606081525090565b6040518060800160405280600073ffffffffffffffffffffffffffffffffffffffff1681526020016000815260200160608152602001606081525090565b6040518060c00160405280600073ffffffffffffffffffffffffffffffffffffffff168152602001600081526020016000815260200160008152602001612698612615565b8152602001606081525090565b6040518060e00160405280600073ffffffffffffffffffffffffffffffffffffffff1681526020016000815260200160008152602001600081526020016000815260200160008152602001600081525090565b6040518060c00160405280600073ffffffffffffffffffffffffffffffffffffffff16815260200160008152602001600081526020016000815260200160008152602001612744612615565b81525090565b600061275d6127588461361c565b6135f7565b9050808382526020820190508285602086028201111561277c57600080fd5b60005b858110156127ac578161279288826127f4565b84526020840193506020830192505060018101905061277f565b5050509392505050565b60006127c96127c484613648565b6135f7565b9050828152602081018484840111156127e157600080fd5b6127ec8482856139d6565b509392505050565b60008135905061280381613b1b565b92915050565b60008151905061281881613b1b565b92915050565b600082601f83011261282f57600080fd5b813561283f84826020860161274a565b91505092915050565b60008151905061285781613b32565b92915050565b600082601f83011261286e57600080fd5b815161287e8482602086016127b6565b91505092915050565b60008135905061289681613b49565b92915050565b6000815190506128ab81613b49565b92915050565b6000815190506128c081613b60565b92915050565b6000602082840312156128d857600080fd5b60006128e6848285016127f4565b91505092915050565b60006020828403121561290157600080fd5b600061290f84828501612809565b91505092915050565b6000806040838503121561292b57600080fd5b6000612939858286016127f4565b925050602061294a858286016127f4565b9150509250929050565b60008060006060848603121561296957600080fd5b6000612977868287016127f4565b9350506020612988868287016127f4565b9250506040612999868287016127f4565b9150509250925092565b600080600080608085870312156129b957600080fd5b60006129c7878288016127f4565b94505060206129d8878288016127f4565b93505060406129e9878288016127f4565b92505060606129fa878288016127f4565b91505092959194509250565b60008060008060808587031215612a1c57600080fd5b6000612a2a87828801612809565b9450506020612a3b8782880161289c565b9350506040612a4c8782880161289c565b9250506060612a5d8782880161289c565b91505092959194509250565b600060208284031215612a7b57600080fd5b600082013567ffffffffffffffff811115612a9557600080fd5b612aa18482850161281e565b91505092915050565b600060208284031215612abc57600080fd5b6000612aca84828501612848565b91505092915050565b600060208284031215612ae557600080fd5b600082015167ffffffffffffffff811115612aff57600080fd5b612b0b8482850161285d565b91505092915050565b600060208284031215612b2657600080fd5b6000612b348482850161289c565b91505092915050565b60008060408385031215612b5057600080fd5b6000612b5e85828601612887565b9250506020612b6f85828601612887565b9150509250929050565b60008060408385031215612b8c57600080fd5b6000612b9a8582860161289c565b9250506020612bab8582860161289c565b9150509250929050565b600080600060608486031215612bca57600080fd5b6000612bd886828701612887565b9350506020612be986828701612887565b9250506040612bfa86828701612887565b9150509250925092565b600060208284031215612c1657600080fd5b6000612c24848285016128b1565b91505092915050565b6000612c398383613068565b905092915050565b6000612c4d8383613188565b905092915050565b6000612c618383613211565b905092915050565b6000612c7583836132e5565b60e08301905092915050565b6000612c8d8383613373565b905092915050565b6000612ca183836133e4565b60208301905092915050565b612cb6816138f1565b82525050565b612cc5816138f1565b82525050565b6000612cd6826136d9565b612ce08185613774565b935083602082028501612cf285613679565b8060005b85811015612d2e5784840389528151612d0f8582612c2d565b9450612d1a83613726565b925060208a01995050600181019050612cf6565b50829750879550505050505092915050565b6000612d4b826136e4565b612d558185613785565b935083602082028501612d6785613689565b8060005b85811015612da35784840389528151612d848582612c41565b9450612d8f83613733565b925060208a01995050600181019050612d6b565b50829750879550505050505092915050565b6000612dc0826136e4565b612dca8185613796565b935083602082028501612ddc85613689565b8060005b85811015612e185784840389528151612df98582612c41565b9450612e0483613733565b925060208a01995050600181019050612de0565b50829750879550505050505092915050565b6000612e35826136ef565b612e3f81856137a7565b935083602082028501612e5185613699565b8060005b85811015612e8d5784840389528151612e6e8582612c55565b9450612e7983613740565b925060208a01995050600181019050612e55565b50829750879550505050505092915050565b6000612eaa826136fa565b612eb481856137b8565b9350612ebf836136a9565b8060005b83811015612ef0578151612ed78882612c69565b9750612ee28361374d565b925050600181019050612ec3565b5085935050505092915050565b6000612f0882613705565b612f1281856137c9565b935083602082028501612f24856136b9565b8060005b85811015612f605784840389528151612f418582612c81565b9450612f4c8361375a565b925060208a01995050600181019050612f28565b50829750879550505050505092915050565b6000612f7d82613710565b612f8781856137da565b9350612f92836136c9565b8060005b83811015612fc3578151612faa8882612c95565b9750612fb583613767565b925050600181019050612f96565b5085935050505092915050565b612fd981613946565b82525050565b612fe88161396a565b82525050565b612ff78161398e565b82525050565b613006816139b2565b82525050565b60006130178261371b565b61302181856137eb565b93506130318185602086016139d6565b61303a81613ae1565b840191505092915050565b60006130526020836137fc565b915061305d82613af2565b602082019050919050565b600060c0830160008301516130806000860182612cad565b50602083015161309360208601826133e4565b5060408301516130a660408601826133e4565b5060608301516130b960608601826133e4565b50608083015184820360808601526130d18282613211565b91505060a083015184820360a08601526130eb8282612d40565b9150508091505092915050565b600060c0830160008301516131106000860182612cad565b50602083015161312360208601826133e4565b50604083015161313660408601826133e4565b50606083015161314960608601826133e4565b50608083015184820360808601526131618282613211565b91505060a083015184820360a086015261317b8282612d40565b9150508091505092915050565b600060c0830160008301516131a06000860182612cad565b5060208301516131b360208601826133e4565b5060408301516131c660408601826133e4565b5060608301516131d960608601826133e4565b5060808301516131ec60808601826133e4565b5060a083015184820360a08601526132048282613211565b9150508091505092915050565b60006080830160008301516132296000860182612cad565b50602083015161323c60208601826133e4565b5060408301518482036040860152613254828261300c565b9150506060830151848203606086015261326e828261300c565b9150508091505092915050565b60006080830160008301516132936000860182612cad565b5060208301516132a660208601826133e4565b50604083015184820360408601526132be828261300c565b915050606083015184820360608601526132d8828261300c565b9150508091505092915050565b60e0820160008201516132fb6000850182612cad565b50602082015161330e60208501826133e4565b50604082015161332160408501826133e4565b50606082015161333460608501826133e4565b50608082015161334760808501826133e4565b5060a082015161335a60a08501826133e4565b5060c082015161336d60c08501826133e4565b50505050565b600060808301600083015161338b6000860182612cad565b50602083015184820360208601526133a38282612f72565b915050604083015184820360408601526133bd8282612f72565b915050606083015184820360608601526133d78282612f72565b9150508091505092915050565b6133ed8161392f565b82525050565b6133fc8161392f565b82525050565b60006020820190506134176000830184612cbc565b92915050565b60006040820190506134326000830185612cbc565b61343f6020830184612cbc565b9392505050565b600060208201905081810360008301526134608184612ccb565b905092915050565b600060208201905081810360008301526134828184612db5565b905092915050565b600060208201905081810360008301526134a48184612e2a565b905092915050565b600060208201905081810360008301526134c68184612efd565b905092915050565b60006020820190506134e36000830184612fd0565b92915050565b60006020820190506134fe6000830184612fdf565b92915050565b60006020820190506135196000830184612fee565b92915050565b60006020820190506135346000830184612ffd565b92915050565b6000602082019050818103600083015261355381613045565b9050919050565b6000604082019050818103600083015261357481856130f8565b905081810360208301526135888184612e9f565b90509392505050565b600060208201905081810360008301526135ab818461327b565b905092915050565b60006020820190506135c860008301846133f3565b92915050565b60006040820190506135e360008301856133f3565b6135f06020830184612cbc565b9392505050565b6000613601613612565b905061360d8282613a09565b919050565b6000604051905090565b600067ffffffffffffffff82111561363757613636613ab2565b5b602082029050602081019050919050565b600067ffffffffffffffff82111561366357613662613ab2565b5b61366c82613ae1565b9050602081019050919050565b6000819050602082019050919050565b6000819050602082019050919050565b6000819050602082019050919050565b6000819050602082019050919050565b6000819050602082019050919050565b6000819050602082019050919050565b600081519050919050565b600081519050919050565b600081519050919050565b600081519050919050565b600081519050919050565b600081519050919050565b600081519050919050565b6000602082019050919050565b6000602082019050919050565b6000602082019050919050565b6000602082019050919050565b6000602082019050919050565b6000602082019050919050565b600082825260208201905092915050565b600082825260208201905092915050565b600082825260208201905092915050565b600082825260208201905092915050565b600082825260208201905092915050565b600082825260208201905092915050565b600082825260208201905092915050565b600082825260208201905092915050565b600082825260208201905092915050565b60006138188261392f565b91506138238361392f565b9250827fffffffffffffffffffffffffffffffffffffffffffffffffffffffffffffffff0382111561385857613857613a83565b5b828201905092915050565b600061386e8261392f565b91506138798361392f565b9250817fffffffffffffffffffffffffffffffffffffffffffffffffffffffffffffffff04831182151516156138b2576138b1613a83565b5b828202905092915050565b60006138c88261392f565b91506138d38361392f565b9250828210156138e6576138e5613a83565b5b828203905092915050565b60006138fc8261390f565b9050919050565b60008115159050919050565b600073ffffffffffffffffffffffffffffffffffffffff82169050919050565b6000819050919050565b600060ff82169050919050565b600061395182613958565b9050919050565b60006139638261390f565b9050919050565b60006139758261397c565b9050919050565b60006139878261390f565b9050919050565b6000613999826139a0565b9050919050565b60006139ab8261390f565b9050919050565b60006139bd826139c4565b9050919050565b60006139cf8261390f565b9050919050565b60005b838110156139f45780820151818401526020810190506139d9565b83811115613a03576000848401525b50505050565b613a1282613ae1565b810181811067ffffffffffffffff82111715613a3157613a30613ab2565b5b80604052505050565b6000613a458261392f565b91507fffffffffffffffffffffffffffffffffffffffffffffffffffffffffffffffff821415613a7857613a77613a83565b5b600182019050919050565b7f4e487b7100000000000000000000000000000000000000000000000000000000600052601160045260246000fd5b7f4e487b7100000000000000000000000000000000000000000000000000000000600052604160045260246000fd5b6000601f19601f8301169050919050565b7f4d49534f48656c7065723a2053656e646572206d7573742062652041646d696e600082015250565b613b24816138f1565b8114613b2f57600080fd5b50565b613b3b81613903565b8114613b4657600080fd5b50565b613b528161392f565b8114613b5d57600080fd5b50565b613b6981613939565b8114613b7457600080fd5b5056fea26469706673582212202e56436f6ded356baadd0d61091f33c80fb9d69edf89b26e865d82d223e102c164736f6c63430008040033",
  "linkReferences": {},
  "deployedLinkReferences": {}
}