{
  "_format": "hh-sol-artifact-1",
  "contractName": "MarketHelper",
  "sourceName": "contracts/Helper/MISOHelper.sol",
  "abi": [
    {
      "inputs": [],
      "name": "accessControls",
      "outputs": [
        {
          "internalType": "contract MISOAccessControls",
          "name": "",
          "type": "address"
        }
      ],
      "stateMutability": "view",
      "type": "function"
    },
    {
      "inputs": [
        {
          "internalType": "address",
          "name": "_token",
          "type": "address"
        },
        {
          "internalType": "address",
          "name": "_owner",
          "type": "address"
        },
        {
          "internalType": "address",
          "name": "_spender",
          "type": "address"
        }
      ],
      "name": "allowance",
      "outputs": [
        {
          "internalType": "uint256",
          "name": "",
          "type": "uint256"
        }
      ],
      "stateMutability": "view",
      "type": "function"
    },
    {
      "inputs": [],
      "name": "farmFactory",
      "outputs": [
        {
          "internalType": "contract IMisoFarmFactory",
          "name": "",
          "type": "address"
        }
      ],
      "stateMutability": "view",
      "type": "function"
    },
    {
      "inputs": [
        {
          "internalType": "address payable",
          "name": "_batchAuction",
          "type": "address"
        }
      ],
      "name": "getBatchAuctionInfo",
      "outputs": [
        {
          "components": [
            {
              "internalType": "address",
              "name": "addr",
              "type": "address"
            },
            {
              "internalType": "address",
              "name": "paymentCurrency",
              "type": "address"
            },
            {
              "internalType": "uint64",
              "name": "startTime",
              "type": "uint64"
            },
            {
              "internalType": "uint64",
              "name": "endTime",
              "type": "uint64"
            },
            {
              "internalType": "uint128",
              "name": "totalTokens",
              "type": "uint128"
            },
            {
              "internalType": "uint256",
              "name": "commitmentsTotal",
              "type": "uint256"
            },
            {
              "internalType": "uint256",
              "name": "minimumCommitmentAmount",
              "type": "uint256"
            },
            {
              "internalType": "bool",
              "name": "finalized",
              "type": "bool"
            },
            {
              "internalType": "bool",
              "name": "usePointList",
              "type": "bool"
            },
            {
              "internalType": "bool",
              "name": "auctionSuccessful",
              "type": "bool"
            },
            {
              "components": [
                {
                  "internalType": "address",
                  "name": "addr",
                  "type": "address"
                },
                {
                  "internalType": "uint256",
                  "name": "decimals",
                  "type": "uint256"
                },
                {
                  "internalType": "string",
                  "name": "name",
                  "type": "string"
                },
                {
                  "internalType": "string",
                  "name": "symbol",
                  "type": "string"
                }
              ],
              "internalType": "struct TokenHelper.TokenInfo",
              "name": "tokenInfo",
              "type": "tuple"
            },
            {
              "components": [
                {
                  "internalType": "address",
                  "name": "addr",
                  "type": "address"
                },
                {
                  "internalType": "uint256",
                  "name": "decimals",
                  "type": "uint256"
                },
                {
                  "internalType": "string",
                  "name": "name",
                  "type": "string"
                },
                {
                  "internalType": "string",
                  "name": "symbol",
                  "type": "string"
                }
              ],
              "internalType": "struct TokenHelper.TokenInfo",
              "name": "paymentCurrencyInfo",
              "type": "tuple"
            },
            {
              "components": [
                {
                  "internalType": "string",
                  "name": "name",
                  "type": "string"
                },
                {
                  "internalType": "string",
                  "name": "data",
                  "type": "string"
                },
                {
                  "internalType": "uint256",
                  "name": "lastModified",
                  "type": "uint256"
                }
              ],
              "internalType": "struct DocumentHepler.Document[]",
              "name": "documents",
              "type": "tuple[]"
            }
          ],
          "internalType": "struct MarketHelper.BatchAuctionInfo",
          "name": "",
          "type": "tuple"
        }
      ],
      "stateMutability": "view",
      "type": "function"
    },
    {
      "inputs": [
        {
          "internalType": "address",
          "name": "_crowdsale",
          "type": "address"
        }
      ],
      "name": "getCrowdsaleInfo",
      "outputs": [
        {
          "components": [
            {
              "internalType": "address",
              "name": "addr",
              "type": "address"
            },
            {
              "internalType": "address",
              "name": "paymentCurrency",
              "type": "address"
            },
            {
              "internalType": "uint128",
              "name": "commitmentsTotal",
              "type": "uint128"
            },
            {
              "internalType": "uint128",
              "name": "totalTokens",
              "type": "uint128"
            },
            {
              "internalType": "uint128",
              "name": "rate",
              "type": "uint128"
            },
            {
              "internalType": "uint128",
              "name": "goal",
              "type": "uint128"
            },
            {
              "internalType": "uint64",
              "name": "startTime",
              "type": "uint64"
            },
            {
              "internalType": "uint64",
              "name": "endTime",
              "type": "uint64"
            },
            {
              "internalType": "bool",
              "name": "finalized",
              "type": "bool"
            },
            {
              "internalType": "bool",
              "name": "usePointList",
              "type": "bool"
            },
            {
              "internalType": "bool",
              "name": "auctionSuccessful",
              "type": "bool"
            },
            {
              "components": [
                {
                  "internalType": "address",
                  "name": "addr",
                  "type": "address"
                },
                {
                  "internalType": "uint256",
                  "name": "decimals",
                  "type": "uint256"
                },
                {
                  "internalType": "string",
                  "name": "name",
                  "type": "string"
                },
                {
                  "internalType": "string",
                  "name": "symbol",
                  "type": "string"
                }
              ],
              "internalType": "struct TokenHelper.TokenInfo",
              "name": "tokenInfo",
              "type": "tuple"
            },
            {
              "components": [
                {
                  "internalType": "address",
                  "name": "addr",
                  "type": "address"
                },
                {
                  "internalType": "uint256",
                  "name": "decimals",
                  "type": "uint256"
                },
                {
                  "internalType": "string",
                  "name": "name",
                  "type": "string"
                },
                {
                  "internalType": "string",
                  "name": "symbol",
                  "type": "string"
                }
              ],
              "internalType": "struct TokenHelper.TokenInfo",
              "name": "paymentCurrencyInfo",
              "type": "tuple"
            },
            {
              "components": [
                {
                  "internalType": "string",
                  "name": "name",
                  "type": "string"
                },
                {
                  "internalType": "string",
                  "name": "data",
                  "type": "string"
                },
                {
                  "internalType": "uint256",
                  "name": "lastModified",
                  "type": "uint256"
                }
              ],
              "internalType": "struct DocumentHepler.Document[]",
              "name": "documents",
              "type": "tuple[]"
            }
          ],
          "internalType": "struct MarketHelper.CrowdsaleInfo",
          "name": "",
          "type": "tuple"
        }
      ],
      "stateMutability": "view",
      "type": "function"
    },
    {
      "inputs": [
        {
          "internalType": "address",
          "name": "_document",
          "type": "address"
        }
      ],
      "name": "getDocuments",
      "outputs": [
        {
          "components": [
            {
              "internalType": "string",
              "name": "name",
              "type": "string"
            },
            {
              "internalType": "string",
              "name": "data",
              "type": "string"
            },
            {
              "internalType": "uint256",
              "name": "lastModified",
              "type": "uint256"
            }
          ],
          "internalType": "struct DocumentHepler.Document[]",
          "name": "",
          "type": "tuple[]"
        }
      ],
      "stateMutability": "view",
      "type": "function"
    },
    {
      "inputs": [
        {
          "internalType": "address payable",
          "name": "_dutchAuction",
          "type": "address"
        }
      ],
      "name": "getDutchAuctionInfo",
      "outputs": [
        {
          "components": [
            {
              "internalType": "address",
              "name": "addr",
              "type": "address"
            },
            {
              "internalType": "address",
              "name": "paymentCurrency",
              "type": "address"
            },
            {
              "internalType": "uint64",
              "name": "startTime",
              "type": "uint64"
            },
            {
              "internalType": "uint64",
              "name": "endTime",
              "type": "uint64"
            },
            {
              "internalType": "uint128",
              "name": "totalTokens",
              "type": "uint128"
            },
            {
              "internalType": "uint128",
              "name": "startPrice",
              "type": "uint128"
            },
            {
              "internalType": "uint128",
              "name": "minimumPrice",
              "type": "uint128"
            },
            {
              "internalType": "uint128",
              "name": "commitmentsTotal",
              "type": "uint128"
            },
            {
              "internalType": "bool",
              "name": "finalized",
              "type": "bool"
            },
            {
              "internalType": "bool",
              "name": "usePointList",
              "type": "bool"
            },
            {
              "internalType": "bool",
              "name": "auctionSuccessful",
              "type": "bool"
            },
            {
              "components": [
                {
                  "internalType": "address",
                  "name": "addr",
                  "type": "address"
                },
                {
                  "internalType": "uint256",
                  "name": "decimals",
                  "type": "uint256"
                },
                {
                  "internalType": "string",
                  "name": "name",
                  "type": "string"
                },
                {
                  "internalType": "string",
                  "name": "symbol",
                  "type": "string"
                }
              ],
              "internalType": "struct TokenHelper.TokenInfo",
              "name": "tokenInfo",
              "type": "tuple"
            },
            {
              "components": [
                {
                  "internalType": "address",
                  "name": "addr",
                  "type": "address"
                },
                {
                  "internalType": "uint256",
                  "name": "decimals",
                  "type": "uint256"
                },
                {
                  "internalType": "string",
                  "name": "name",
                  "type": "string"
                },
                {
                  "internalType": "string",
                  "name": "symbol",
                  "type": "string"
                }
              ],
              "internalType": "struct TokenHelper.TokenInfo",
              "name": "paymentCurrencyInfo",
              "type": "tuple"
            },
            {
              "components": [
                {
                  "internalType": "string",
                  "name": "name",
                  "type": "string"
                },
                {
                  "internalType": "string",
                  "name": "data",
                  "type": "string"
                },
                {
                  "internalType": "uint256",
                  "name": "lastModified",
                  "type": "uint256"
                }
              ],
              "internalType": "struct DocumentHepler.Document[]",
              "name": "documents",
              "type": "tuple[]"
            }
          ],
          "internalType": "struct MarketHelper.DutchAuctionInfo",
          "name": "",
          "type": "tuple"
        }
      ],
      "stateMutability": "view",
      "type": "function"
    },
    {
      "inputs": [
        {
          "internalType": "address payable",
          "name": "_hyperbolicAuction",
          "type": "address"
        }
      ],
      "name": "getHyperbolicAuctionInfo",
      "outputs": [
        {
          "components": [
            {
              "internalType": "address",
              "name": "addr",
              "type": "address"
            },
            {
              "internalType": "address",
              "name": "paymentCurrency",
              "type": "address"
            },
            {
              "internalType": "uint64",
              "name": "startTime",
              "type": "uint64"
            },
            {
              "internalType": "uint64",
              "name": "endTime",
              "type": "uint64"
            },
            {
              "internalType": "uint128",
              "name": "totalTokens",
              "type": "uint128"
            },
            {
              "internalType": "uint128",
              "name": "minimumPrice",
              "type": "uint128"
            },
            {
              "internalType": "uint128",
              "name": "alpha",
              "type": "uint128"
            },
            {
              "internalType": "uint128",
              "name": "commitmentsTotal",
              "type": "uint128"
            },
            {
              "internalType": "bool",
              "name": "finalized",
              "type": "bool"
            },
            {
              "internalType": "bool",
              "name": "usePointList",
              "type": "bool"
            },
            {
              "internalType": "bool",
              "name": "auctionSuccessful",
              "type": "bool"
            },
            {
              "components": [
                {
                  "internalType": "address",
                  "name": "addr",
                  "type": "address"
                },
                {
                  "internalType": "uint256",
                  "name": "decimals",
                  "type": "uint256"
                },
                {
                  "internalType": "string",
                  "name": "name",
                  "type": "string"
                },
                {
                  "internalType": "string",
                  "name": "symbol",
                  "type": "string"
                }
              ],
              "internalType": "struct TokenHelper.TokenInfo",
              "name": "tokenInfo",
              "type": "tuple"
            },
            {
              "components": [
                {
                  "internalType": "address",
                  "name": "addr",
                  "type": "address"
                },
                {
                  "internalType": "uint256",
                  "name": "decimals",
                  "type": "uint256"
                },
                {
                  "internalType": "string",
                  "name": "name",
                  "type": "string"
                },
                {
                  "internalType": "string",
                  "name": "symbol",
                  "type": "string"
                }
              ],
              "internalType": "struct TokenHelper.TokenInfo",
              "name": "paymentCurrencyInfo",
              "type": "tuple"
            },
            {
              "components": [
                {
                  "internalType": "string",
                  "name": "name",
                  "type": "string"
                },
                {
                  "internalType": "string",
                  "name": "data",
                  "type": "string"
                },
                {
                  "internalType": "uint256",
                  "name": "lastModified",
                  "type": "uint256"
                }
              ],
              "internalType": "struct DocumentHepler.Document[]",
              "name": "documents",
              "type": "tuple[]"
            }
          ],
          "internalType": "struct MarketHelper.HyperbolicAuctionInfo",
          "name": "",
          "type": "tuple"
        }
      ],
      "stateMutability": "view",
      "type": "function"
    },
    {
      "inputs": [
        {
          "internalType": "uint256",
          "name": "pageSize",
          "type": "uint256"
        },
        {
          "internalType": "uint256",
          "name": "pageNbr",
          "type": "uint256"
        },
        {
          "internalType": "uint256",
          "name": "offset",
          "type": "uint256"
        }
      ],
      "name": "getMarkets",
      "outputs": [
        {
          "components": [
            {
              "internalType": "address",
              "name": "addr",
              "type": "address"
            },
            {
              "internalType": "uint64",
              "name": "templateId",
              "type": "uint64"
            },
            {
              "internalType": "uint64",
              "name": "startTime",
              "type": "uint64"
            },
            {
              "internalType": "uint64",
              "name": "endTime",
              "type": "uint64"
            },
            {
              "internalType": "bool",
              "name": "finalized",
              "type": "bool"
            },
            {
              "components": [
                {
                  "internalType": "address",
                  "name": "addr",
                  "type": "address"
                },
                {
                  "internalType": "uint256",
                  "name": "decimals",
                  "type": "uint256"
                },
                {
                  "internalType": "string",
                  "name": "name",
                  "type": "string"
                },
                {
                  "internalType": "string",
                  "name": "symbol",
                  "type": "string"
                }
              ],
              "internalType": "struct TokenHelper.TokenInfo",
              "name": "tokenInfo",
              "type": "tuple"
            }
          ],
          "internalType": "struct MarketHelper.MarketBaseInfo[]",
          "name": "",
          "type": "tuple[]"
        }
      ],
      "stateMutability": "view",
      "type": "function"
    },
    {
      "inputs": [
        {
          "internalType": "uint256",
          "name": "pageSize",
          "type": "uint256"
        },
        {
          "internalType": "uint256",
          "name": "pageNbr",
          "type": "uint256"
        }
      ],
      "name": "getMarkets",
      "outputs": [
        {
          "components": [
            {
              "internalType": "address",
              "name": "addr",
              "type": "address"
            },
            {
              "internalType": "uint64",
              "name": "templateId",
              "type": "uint64"
            },
            {
              "internalType": "uint64",
              "name": "startTime",
              "type": "uint64"
            },
            {
              "internalType": "uint64",
              "name": "endTime",
              "type": "uint64"
            },
            {
              "internalType": "bool",
              "name": "finalized",
              "type": "bool"
            },
            {
              "components": [
                {
                  "internalType": "address",
                  "name": "addr",
                  "type": "address"
                },
                {
                  "internalType": "uint256",
                  "name": "decimals",
                  "type": "uint256"
                },
                {
                  "internalType": "string",
                  "name": "name",
                  "type": "string"
                },
                {
                  "internalType": "string",
                  "name": "symbol",
                  "type": "string"
                }
              ],
              "internalType": "struct TokenHelper.TokenInfo",
              "name": "tokenInfo",
              "type": "tuple"
            }
          ],
          "internalType": "struct MarketHelper.MarketBaseInfo[]",
          "name": "",
          "type": "tuple[]"
        }
      ],
      "stateMutability": "view",
      "type": "function"
    },
    {
      "inputs": [],
      "name": "getMarkets",
      "outputs": [
        {
          "components": [
            {
              "internalType": "address",
              "name": "addr",
              "type": "address"
            },
            {
              "internalType": "uint64",
              "name": "templateId",
              "type": "uint64"
            },
            {
              "internalType": "uint64",
              "name": "startTime",
              "type": "uint64"
            },
            {
              "internalType": "uint64",
              "name": "endTime",
              "type": "uint64"
            },
            {
              "internalType": "bool",
              "name": "finalized",
              "type": "bool"
            },
            {
              "components": [
                {
                  "internalType": "address",
                  "name": "addr",
                  "type": "address"
                },
                {
                  "internalType": "uint256",
                  "name": "decimals",
                  "type": "uint256"
                },
                {
                  "internalType": "string",
                  "name": "name",
                  "type": "string"
                },
                {
                  "internalType": "string",
                  "name": "symbol",
                  "type": "string"
                }
              ],
              "internalType": "struct TokenHelper.TokenInfo",
              "name": "tokenInfo",
              "type": "tuple"
            }
          ],
          "internalType": "struct MarketHelper.MarketBaseInfo[]",
          "name": "",
          "type": "tuple[]"
        }
      ],
      "stateMutability": "view",
      "type": "function"
    },
    {
      "inputs": [
        {
          "internalType": "address",
          "name": "_address",
          "type": "address"
        }
      ],
      "name": "getTokenInfo",
      "outputs": [
        {
          "components": [
            {
              "internalType": "address",
              "name": "addr",
              "type": "address"
            },
            {
              "internalType": "uint256",
              "name": "decimals",
              "type": "uint256"
            },
            {
              "internalType": "string",
              "name": "name",
              "type": "string"
            },
            {
              "internalType": "string",
              "name": "symbol",
              "type": "string"
            }
          ],
          "internalType": "struct TokenHelper.TokenInfo",
          "name": "",
          "type": "tuple"
        }
      ],
      "stateMutability": "view",
      "type": "function"
    },
    {
      "inputs": [
        {
          "internalType": "address[]",
          "name": "addresses",
          "type": "address[]"
        }
      ],
      "name": "getTokensInfo",
      "outputs": [
        {
          "components": [
            {
              "internalType": "address",
              "name": "addr",
              "type": "address"
            },
            {
              "internalType": "uint256",
              "name": "decimals",
              "type": "uint256"
            },
            {
              "internalType": "string",
              "name": "name",
              "type": "string"
            },
            {
              "internalType": "string",
              "name": "symbol",
              "type": "string"
            }
          ],
          "internalType": "struct TokenHelper.TokenInfo[]",
          "name": "",
          "type": "tuple[]"
        }
      ],
      "stateMutability": "view",
      "type": "function"
    },
    {
      "inputs": [
        {
          "internalType": "address",
          "name": "_action",
          "type": "address"
        },
        {
          "internalType": "address",
          "name": "_user",
          "type": "address"
        }
      ],
      "name": "getUserMarketInfo",
      "outputs": [
        {
          "components": [
            {
              "internalType": "uint256",
              "name": "commitments",
              "type": "uint256"
            },
            {
              "internalType": "uint256",
              "name": "tokensClaimable",
              "type": "uint256"
            },
            {
              "internalType": "uint256",
              "name": "claimed",
              "type": "uint256"
            },
            {
              "internalType": "bool",
              "name": "isAdmin",
              "type": "bool"
            }
          ],
          "internalType": "struct MarketHelper.UserMarketInfo",
          "name": "userInfo",
          "type": "tuple"
        }
      ],
      "stateMutability": "view",
      "type": "function"
    },
    {
      "inputs": [],
      "name": "launcher",
      "outputs": [
        {
          "internalType": "address",
          "name": "",
          "type": "address"
        }
      ],
      "stateMutability": "view",
      "type": "function"
    },
    {
      "inputs": [],
      "name": "market",
      "outputs": [
        {
          "internalType": "contract IMisoMarketFactory",
          "name": "",
          "type": "address"
        }
      ],
      "stateMutability": "view",
      "type": "function"
    },
    {
      "inputs": [
        {
          "internalType": "address",
          "name": "_tokenFactory",
          "type": "address"
        },
        {
          "internalType": "address",
          "name": "_market",
          "type": "address"
        },
        {
          "internalType": "address",
          "name": "_launcher",
          "type": "address"
        },
        {
          "internalType": "address",
          "name": "_farmFactory",
          "type": "address"
        }
      ],
      "name": "setContracts",
      "outputs": [],
      "stateMutability": "nonpayable",
      "type": "function"
    },
    {
      "inputs": [],
      "name": "tokenFactory",
      "outputs": [
        {
          "internalType": "contract IMisoTokenFactory",
          "name": "",
          "type": "address"
        }
      ],
      "stateMutability": "view",
      "type": "function"
    }
  ],
  "bytecode": "0x608060405234801561001057600080fd5b50614a03806100206000396000f3fe608060405234801561001057600080fd5b50600436106101165760003560e01c80636306377d116100a257806380f556051161007157806380f5560514610355578063927da10514610373578063bf989b6e146103a3578063e77772fe146103bf578063ec2c9016146103dd57610116565b80636306377d146102b95780636d25e175146102e9578063748365ef1461030757806380968d481461032557610116565b806327f50a2d116100e957806327f50a2d146101c9578063372cfb93146101f957806338d9893b146102295780633c74720c1461025957806346a0fe471461028957610116565b8063156ec6811461011b57806316eebd1e1461014b578063193d1362146101695780631f69565f14610199575b600080fd5b6101356004803603810190610130919061330e565b6103fb565b60405161014291906143f7565b60405180910390f35b6101536108fd565b6040516101609190614239565b60405180910390f35b610183600480360381019061017e919061330e565b610923565b6040516101909190614391565b60405180910390f35b6101b360048036038101906101ae91906132bc565b610d32565b6040516101c09190614419565b60405180910390f35b6101e360048036038101906101de91906132bc565b610f29565b6040516101f0919061427d565b60405180910390f35b610213600480360381019061020e9190613337565b611255565b604051610220919061443b565b60405180910390f35b610243600480360381019061023e919061371b565b6114b7565b604051610250919061429f565b60405180910390f35b610273600480360381019061026e91906132bc565b611770565b60405161028091906143b3565b60405180910390f35b6102a3600480360381019061029e9190613488565b611c72565b6040516102b091906142c1565b60405180910390f35b6102d360048036038101906102ce919061330e565b611da9565b6040516102e091906143d5565b60405180910390f35b6102f16122ab565b6040516102fe91906142e3565b60405180910390f35b61030f6122d1565b60405161031c9190614334565b60405180910390f35b61033f600480360381019061033a919061367c565b6122f7565b60405161034c919061429f565b60405180910390f35b61035d61230d565b60405161036a91906142fe565b60405180910390f35b61038d60048036038101906103889190613373565b612331565b60405161039a9190614456565b60405180910390f35b6103bd60048036038101906103b891906133c2565b6123c7565b005b6103c761268e565b6040516103d49190614319565b60405180910390f35b6103e56126b4565b6040516103f2919061429f565b60405180910390f35b610403612b89565b6000829050610410612b89565b81816000019073ffffffffffffffffffffffffffffffffffffffff16908173ffffffffffffffffffffffffffffffffffffffff16815250508173ffffffffffffffffffffffffffffffffffffffff1663031bee006040518163ffffffff1660e01b815260040160606040518083038186803b15801561048e57600080fd5b505afa1580156104a2573d6000803e3d6000fd5b505050506040513d601f19601f820116820180604052508101906104c69190613793565b836040018460600185608001836fffffffffffffffffffffffffffffffff166fffffffffffffffffffffffffffffffff168152508367ffffffffffffffff1667ffffffffffffffff168152508367ffffffffffffffff1667ffffffffffffffff168152505050508173ffffffffffffffffffffffffffffffffffffffff166345a153886040518163ffffffff1660e01b8152600401604080518083038186803b15801561057257600080fd5b505afa158015610586573d6000803e3d6000fd5b505050506040513d601f19601f820116820180604052508101906105aa9190613617565b8260a0018360c001826fffffffffffffffffffffffffffffffff166fffffffffffffffffffffffffffffffff16815250826fffffffffffffffffffffffffffffffff166fffffffffffffffffffffffffffffffff1681525050508173ffffffffffffffffffffffffffffffffffffffff166336d0054b6040518163ffffffff1660e01b815260040160206040518083038186803b15801561064a57600080fd5b505afa15801561065e573d6000803e3d6000fd5b505050506040513d601f19601f82011682018060405250810190610682919061350a565b816101400190151590811515815250508173ffffffffffffffffffffffffffffffffffffffff1663e0e081d76040518163ffffffff1660e01b815260040160606040518083038186803b1580156106d857600080fd5b505afa1580156106ec573d6000803e3d6000fd5b505050506040513d601f19601f8201168201806040525081019061071091906135c8565b8360e0018461010001856101200183151515158152508315151515815250836fffffffffffffffffffffffffffffffff166fffffffffffffffffffffffffffffffff168152505050506107df8273ffffffffffffffffffffffffffffffffffffffff166399fdb3206040518163ffffffff1660e01b815260040160206040518083038186803b1580156107a257600080fd5b505afa1580156107b6573d6000803e3d6000fd5b505050506040513d601f19601f820116820180604052508101906107da91906132e5565b610d32565b81610160018190525060008273ffffffffffffffffffffffffffffffffffffffff16633d15cc6d6040518163ffffffff1660e01b815260040160206040518083038186803b15801561083057600080fd5b505afa158015610844573d6000803e3d6000fd5b505050506040513d601f19601f8201168201806040525081019061086891906132e5565b9050610872612c92565b73eeeeeeeeeeeeeeeeeeeeeeeeeeeeeeeeeeeeeeee73ffffffffffffffffffffffffffffffffffffffff168273ffffffffffffffffffffffffffffffffffffffff1614156108c9576108c2612898565b90506108d5565b6108d282610d32565b90505b808361018001819052506108e886610f29565b836101a0018190525082945050505050919050565b600360009054906101000a900473ffffffffffffffffffffffffffffffffffffffff1681565b61092b612cd0565b6000829050610938612cd0565b81816000019073ffffffffffffffffffffffffffffffffffffffff16908173ffffffffffffffffffffffffffffffffffffffff16815250508173ffffffffffffffffffffffffffffffffffffffff1663031bee006040518163ffffffff1660e01b815260040160606040518083038186803b1580156109b657600080fd5b505afa1580156109ca573d6000803e3d6000fd5b505050506040513d601f19601f820116820180604052508101906109ee9190613793565b836040018460600185608001836fffffffffffffffffffffffffffffffff166fffffffffffffffffffffffffffffffff168152508367ffffffffffffffff1667ffffffffffffffff168152508367ffffffffffffffff1667ffffffffffffffff168152505050508173ffffffffffffffffffffffffffffffffffffffff166336d0054b6040518163ffffffff1660e01b815260040160206040518083038186803b158015610a9b57600080fd5b505afa158015610aaf573d6000803e3d6000fd5b505050506040513d601f19601f82011682018060405250810190610ad3919061350a565b816101200190151590811515815250508173ffffffffffffffffffffffffffffffffffffffff1663e0e081d76040518163ffffffff1660e01b815260040160806040518083038186803b158015610b2957600080fd5b505afa158015610b3d573d6000803e3d6000fd5b505050506040513d601f19601f82011682018060405250810190610b6191906136b8565b8460a0018560c0018660e001876101000184151515158152508415151515815250848152508481525050505050610c148273ffffffffffffffffffffffffffffffffffffffff166399fdb3206040518163ffffffff1660e01b815260040160206040518083038186803b158015610bd757600080fd5b505afa158015610beb573d6000803e3d6000fd5b505050506040513d601f19601f82011682018060405250810190610c0f91906132e5565b610d32565b81610140018190525060008273ffffffffffffffffffffffffffffffffffffffff16633d15cc6d6040518163ffffffff1660e01b815260040160206040518083038186803b158015610c6557600080fd5b505afa158015610c79573d6000803e3d6000fd5b505050506040513d601f19601f82011682018060405250810190610c9d91906132e5565b9050610ca7612c92565b73eeeeeeeeeeeeeeeeeeeeeeeeeeeeeeeeeeeeeeee73ffffffffffffffffffffffffffffffffffffffff168273ffffffffffffffffffffffffffffffffffffffff161415610cfe57610cf7612898565b9050610d0a565b610d0782610d32565b90505b80836101600181905250610d1d86610f29565b83610180018190525082945050505050919050565b610d3a612c92565b610d42612c92565b600083905083826000019073ffffffffffffffffffffffffffffffffffffffff16908173ffffffffffffffffffffffffffffffffffffffff16815250508073ffffffffffffffffffffffffffffffffffffffff166306fdde036040518163ffffffff1660e01b815260040160006040518083038186803b158015610dc557600080fd5b505afa158015610dd9573d6000803e3d6000fd5b505050506040513d6000823e3d601f19601f82011682018060405250810190610e029190613533565b82604001819052508073ffffffffffffffffffffffffffffffffffffffff166395d89b416040518163ffffffff1660e01b815260040160006040518083038186803b158015610e5057600080fd5b505afa158015610e64573d6000803e3d6000fd5b505050506040513d6000823e3d601f19601f82011682018060405250810190610e8d9190613533565b82606001819052508073ffffffffffffffffffffffffffffffffffffffff1663313ce5676040518163ffffffff1660e01b815260040160206040518083038186803b158015610edb57600080fd5b505afa158015610eef573d6000803e3d6000fd5b505050506040513d601f19601f82011682018060405250810190610f1391906137e2565b60ff168260200181815250508192505050919050565b6060600082905060008173ffffffffffffffffffffffffffffffffffffffff16633d1c22736040518163ffffffff1660e01b815260040160206040518083038186803b158015610f7857600080fd5b505afa158015610f8c573d6000803e3d6000fd5b505050506040513d601f19601f82011682018060405250810190610fb09190613653565b905060008167ffffffffffffffff811115610ff4577f4e487b7100000000000000000000000000000000000000000000000000000000600052604160045260246000fd5b60405190808252806020026020018201604052801561102d57816020015b61101a612d9c565b8152602001906001900390816110125790505b50905060005b828110156112495760008473ffffffffffffffffffffffffffffffffffffffff1663c6b547e6836040518263ffffffff1660e01b81526004016110769190614456565b60006040518083038186803b15801561108e57600080fd5b505afa1580156110a2573d6000803e3d6000fd5b505050506040513d6000823e3d601f19601f820116820180604052508101906110cb9190613533565b90508473ffffffffffffffffffffffffffffffffffffffff16637ccb6a64826040518263ffffffff1660e01b8152600401611106919061434f565b60006040518083038186803b15801561111e57600080fd5b505afa158015611132573d6000803e3d6000fd5b505050506040513d6000823e3d601f19601f8201168201806040525081019061115b9190613574565b848481518110611194577f4e487b7100000000000000000000000000000000000000000000000000000000600052603260045260246000fd5b60200260200101516020018585815181106111d8577f4e487b7100000000000000000000000000000000000000000000000000000000600052603260045260246000fd5b602002602001015160400182815250829052505080838381518110611226577f4e487b7100000000000000000000000000000000000000000000000000000000600052603260045260246000fd5b6020026020010151600001819052505080806112419061484b565b915050611033565b50809350505050919050565b61125d612dbd565b60008390508073ffffffffffffffffffffffffffffffffffffffff1663e8fcf723846040518263ffffffff1660e01b815260040161129b9190614239565b60206040518083038186803b1580156112b357600080fd5b505afa1580156112c7573d6000803e3d6000fd5b505050506040513d601f19601f820116820180604052508101906112eb9190613653565b8260000181815250508073ffffffffffffffffffffffffffffffffffffffff16634dc80e15846040518263ffffffff1660e01b815260040161132d9190614239565b60206040518083038186803b15801561134557600080fd5b505afa158015611359573d6000803e3d6000fd5b505050506040513d601f19601f8201168201806040525081019061137d9190613653565b8260200181815250508073ffffffffffffffffffffffffffffffffffffffff1663c884ef83846040518263ffffffff1660e01b81526004016113bf9190614239565b60206040518083038186803b1580156113d757600080fd5b505afa1580156113eb573d6000803e3d6000fd5b505050506040513d601f19601f8201168201806040525081019061140f9190613653565b8260400181815250508073ffffffffffffffffffffffffffffffffffffffff1663c395fcb3846040518263ffffffff1660e01b81526004016114519190614239565b60206040518083038186803b15801561146957600080fd5b505afa15801561147d573d6000803e3d6000fd5b505050506040513d601f19601f820116820180604052508101906114a1919061350a565b8260600190151590811515815250505092915050565b606060008060009054906101000a900473ffffffffffffffffffffffffffffffffffffffff1673ffffffffffffffffffffffffffffffffffffffff166350d9d4726040518163ffffffff1660e01b815260040160206040518083038186803b15801561152257600080fd5b505afa158015611536573d6000803e3d6000fd5b505050506040513d601f19601f8201168201806040525081019061155a9190613653565b9050600083868661156b9190614632565b61157591906145dc565b90506000868261158591906145dc565b9050606083821115611595578391505b828210156115a95780945050505050611769565b82826115b5919061468c565b67ffffffffffffffff8111156115f4577f4e487b7100000000000000000000000000000000000000000000000000000000600052604160045260246000fd5b60405190808252806020026020018201604052801561162d57816020015b61161a612de7565b8152602001906001900390816116125790505b50905060005b82848261164091906145dc565b10156117605760008060009054906101000a900473ffffffffffffffffffffffffffffffffffffffff1673ffffffffffffffffffffffffffffffffffffffff1663571a26a0868461169191906145dc565b6040518263ffffffff1660e01b81526004016116ad9190614456565b60206040518083038186803b1580156116c557600080fd5b505afa1580156116d9573d6000803e3d6000fd5b505050506040513d601f19601f820116820180604052508101906116fd91906132e5565b905061170881612976565b838381518110611741577f4e487b7100000000000000000000000000000000000000000000000000000000600052603260045260246000fd5b60200260200101819052505080806117589061484b565b915050611633565b50809450505050505b9392505050565b611778612e59565b6000829050611785612e59565b81816000019073ffffffffffffffffffffffffffffffffffffffff16908173ffffffffffffffffffffffffffffffffffffffff16815250508173ffffffffffffffffffffffffffffffffffffffff1663e0e081d76040518163ffffffff1660e01b815260040160606040518083038186803b15801561180357600080fd5b505afa158015611817573d6000803e3d6000fd5b505050506040513d601f19601f8201168201806040525081019061183b91906135c8565b836040018461010001856101200183151515158152508315151515815250836fffffffffffffffffffffffffffffffff166fffffffffffffffffffffffffffffffff168152505050508173ffffffffffffffffffffffffffffffffffffffff1663031bee006040518163ffffffff1660e01b815260040160606040518083038186803b1580156118ca57600080fd5b505afa1580156118de573d6000803e3d6000fd5b505050506040513d601f19601f820116820180604052508101906119029190613793565b8360c0018460e00185606001836fffffffffffffffffffffffffffffffff166fffffffffffffffffffffffffffffffff168152508367ffffffffffffffff1667ffffffffffffffff168152508367ffffffffffffffff1667ffffffffffffffff168152505050508173ffffffffffffffffffffffffffffffffffffffff166345a153886040518163ffffffff1660e01b8152600401604080518083038186803b1580156119ae57600080fd5b505afa1580156119c2573d6000803e3d6000fd5b505050506040513d601f19601f820116820180604052508101906119e69190613617565b826080018360a001826fffffffffffffffffffffffffffffffff166fffffffffffffffffffffffffffffffff16815250826fffffffffffffffffffffffffffffffff166fffffffffffffffffffffffffffffffff1681525050508173ffffffffffffffffffffffffffffffffffffffff166336d0054b6040518163ffffffff1660e01b815260040160206040518083038186803b158015611a8657600080fd5b505afa158015611a9a573d6000803e3d6000fd5b505050506040513d601f19601f82011682018060405250810190611abe919061350a565b81610140019015159081151581525050611b548273ffffffffffffffffffffffffffffffffffffffff166399fdb3206040518163ffffffff1660e01b815260040160206040518083038186803b158015611b1757600080fd5b505afa158015611b2b573d6000803e3d6000fd5b505050506040513d601f19601f82011682018060405250810190611b4f91906132e5565b610d32565b81610160018190525060008273ffffffffffffffffffffffffffffffffffffffff16633d15cc6d6040518163ffffffff1660e01b815260040160206040518083038186803b158015611ba557600080fd5b505afa158015611bb9573d6000803e3d6000fd5b505050506040513d601f19601f82011682018060405250810190611bdd91906132e5565b9050611be7612c92565b73eeeeeeeeeeeeeeeeeeeeeeeeeeeeeeeeeeeeeeee73ffffffffffffffffffffffffffffffffffffffff168273ffffffffffffffffffffffffffffffffffffffff161415611c3e57611c37612898565b9050611c4a565b611c4782610d32565b90505b80836101800181905250611c5d86610f29565b836101a0018190525082945050505050919050565b60606000825167ffffffffffffffff811115611cb7577f4e487b7100000000000000000000000000000000000000000000000000000000600052604160045260246000fd5b604051908082528060200260200182016040528015611cf057816020015b611cdd612c92565b815260200190600190039081611cd55790505b50905060005b8351811015611d9f57611d48848281518110611d3b577f4e487b7100000000000000000000000000000000000000000000000000000000600052603260045260246000fd5b6020026020010151610d32565b828281518110611d81577f4e487b7100000000000000000000000000000000000000000000000000000000600052603260045260246000fd5b60200260200101819052508080611d979061484b565b915050611cf6565b5080915050919050565b611db1612f62565b6000829050611dbe612f62565b81816000019073ffffffffffffffffffffffffffffffffffffffff16908173ffffffffffffffffffffffffffffffffffffffff16815250508173ffffffffffffffffffffffffffffffffffffffff1663031bee006040518163ffffffff1660e01b815260040160606040518083038186803b158015611e3c57600080fd5b505afa158015611e50573d6000803e3d6000fd5b505050506040513d601f19601f82011682018060405250810190611e749190613793565b836040018460600185608001836fffffffffffffffffffffffffffffffff166fffffffffffffffffffffffffffffffff168152508367ffffffffffffffff1667ffffffffffffffff168152508367ffffffffffffffff1667ffffffffffffffff168152505050508173ffffffffffffffffffffffffffffffffffffffff166345a153886040518163ffffffff1660e01b8152600401604080518083038186803b158015611f2057600080fd5b505afa158015611f34573d6000803e3d6000fd5b505050506040513d601f19601f82011682018060405250810190611f589190613617565b8260a0018360c001826fffffffffffffffffffffffffffffffff166fffffffffffffffffffffffffffffffff16815250826fffffffffffffffffffffffffffffffff166fffffffffffffffffffffffffffffffff1681525050508173ffffffffffffffffffffffffffffffffffffffff166336d0054b6040518163ffffffff1660e01b815260040160206040518083038186803b158015611ff857600080fd5b505afa15801561200c573d6000803e3d6000fd5b505050506040513d601f19601f82011682018060405250810190612030919061350a565b816101400190151590811515815250508173ffffffffffffffffffffffffffffffffffffffff1663e0e081d76040518163ffffffff1660e01b815260040160606040518083038186803b15801561208657600080fd5b505afa15801561209a573d6000803e3d6000fd5b505050506040513d601f19601f820116820180604052508101906120be91906135c8565b8360e0018461010001856101200183151515158152508315151515815250836fffffffffffffffffffffffffffffffff166fffffffffffffffffffffffffffffffff1681525050505061218d8273ffffffffffffffffffffffffffffffffffffffff166399fdb3206040518163ffffffff1660e01b815260040160206040518083038186803b15801561215057600080fd5b505afa158015612164573d6000803e3d6000fd5b505050506040513d601f19601f8201168201806040525081019061218891906132e5565b610d32565b81610160018190525060008273ffffffffffffffffffffffffffffffffffffffff16633d15cc6d6040518163ffffffff1660e01b815260040160206040518083038186803b1580156121de57600080fd5b505afa1580156121f2573d6000803e3d6000fd5b505050506040513d601f19601f8201168201806040525081019061221691906132e5565b9050612220612c92565b73eeeeeeeeeeeeeeeeeeeeeeeeeeeeeeeeeeeeeeee73ffffffffffffffffffffffffffffffffffffffff168273ffffffffffffffffffffffffffffffffffffffff16141561227757612270612898565b9050612283565b61228082610d32565b90505b8083610180018190525061229686610f29565b836101a0018190525082945050505050919050565b600260009054906101000a900473ffffffffffffffffffffffffffffffffffffffff1681565b600460009054906101000a900473ffffffffffffffffffffffffffffffffffffffff1681565b6060612305838360006114b7565b905092915050565b60008054906101000a900473ffffffffffffffffffffffffffffffffffffffff1681565b60008373ffffffffffffffffffffffffffffffffffffffff1663dd62ed3e84846040518363ffffffff1660e01b815260040161236e929190614254565b60206040518083038186803b15801561238657600080fd5b505afa15801561239a573d6000803e3d6000fd5b505050506040513d601f19601f820116820180604052508101906123be9190613653565b90509392505050565b600460009054906101000a900473ffffffffffffffffffffffffffffffffffffffff1673ffffffffffffffffffffffffffffffffffffffff1663c395fcb3336040518263ffffffff1660e01b81526004016124229190614239565b60206040518083038186803b15801561243a57600080fd5b505afa15801561244e573d6000803e3d6000fd5b505050506040513d601f19601f82011682018060405250810190612472919061350a565b6124b1576040517f08c379a00000000000000000000000000000000000000000000000000000000081526004016124a890614371565b60405180910390fd5b600073ffffffffffffffffffffffffffffffffffffffff168373ffffffffffffffffffffffffffffffffffffffff161461252657826000806101000a81548173ffffffffffffffffffffffffffffffffffffffff021916908373ffffffffffffffffffffffffffffffffffffffff1602179055505b600073ffffffffffffffffffffffffffffffffffffffff168473ffffffffffffffffffffffffffffffffffffffff161461259c5783600160006101000a81548173ffffffffffffffffffffffffffffffffffffffff021916908373ffffffffffffffffffffffffffffffffffffffff1602179055505b600073ffffffffffffffffffffffffffffffffffffffff168273ffffffffffffffffffffffffffffffffffffffff16146126125781600360006101000a81548173ffffffffffffffffffffffffffffffffffffffff021916908373ffffffffffffffffffffffffffffffffffffffff1602179055505b600073ffffffffffffffffffffffffffffffffffffffff168173ffffffffffffffffffffffffffffffffffffffff16146126885780600260006101000a81548173ffffffffffffffffffffffffffffffffffffffff021916908373ffffffffffffffffffffffffffffffffffffffff1602179055505b50505050565b600160009054906101000a900473ffffffffffffffffffffffffffffffffffffffff1681565b606060008060009054906101000a900473ffffffffffffffffffffffffffffffffffffffff1673ffffffffffffffffffffffffffffffffffffffff1663ec2c90166040518163ffffffff1660e01b815260040160006040518083038186803b15801561271f57600080fd5b505afa158015612733573d6000803e3d6000fd5b505050506040513d6000823e3d601f19601f8201168201806040525081019061275c91906134c9565b90506000815167ffffffffffffffff8111156127a1577f4e487b7100000000000000000000000000000000000000000000000000000000600052604160045260246000fd5b6040519080825280602002602001820160405280156127da57816020015b6127c7612de7565b8152602001906001900390816127bf5790505b50905060005b825181101561288f576000612834848381518110612827577f4e487b7100000000000000000000000000000000000000000000000000000000600052603260045260246000fd5b6020026020010151612976565b905080838381518110612870577f4e487b7100000000000000000000000000000000000000000000000000000000600052603260045260246000fd5b60200260200101819052505080806128879061484b565b9150506127e0565b50809250505090565b6128a0612c92565b73eeeeeeeeeeeeeeeeeeeeeeeeeeeeeeeeeeeeeeee816000019073ffffffffffffffffffffffffffffffffffffffff16908173ffffffffffffffffffffffffffffffffffffffff16815250506040518060400160405280600881526020017f455448455245554d00000000000000000000000000000000000000000000000081525081604001819052506040518060400160405280600381526020017f45544800000000000000000000000000000000000000000000000000000000008152508160600181905250601281602001818152505090565b61297e612de7565b60008060009054906101000a900473ffffffffffffffffffffffffffffffffffffffff1673ffffffffffffffffffffffffffffffffffffffff1663b0343493846040518263ffffffff1660e01b81526004016129da9190614239565b60206040518083038186803b1580156129f257600080fd5b505afa158015612a06573d6000803e3d6000fd5b505050506040513d601f19601f82011682018060405250810190612a2a919061376a565b90506000806000808673ffffffffffffffffffffffffffffffffffffffff1663314148e26040518163ffffffff1660e01b815260040160806040518083038186803b158015612a7857600080fd5b505afa158015612a8c573d6000803e3d6000fd5b505050506040513d601f19601f82011682018060405250810190612ab09190613425565b809450819550829650839750505050506000612acb85610d32565b905087876000019073ffffffffffffffffffffffffffffffffffffffff16908173ffffffffffffffffffffffffffffffffffffffff168152505085876020019067ffffffffffffffff16908167ffffffffffffffff168152505083876040019067ffffffffffffffff16908167ffffffffffffffff168152505082876060019067ffffffffffffffff16908167ffffffffffffffff168152505081876080019015159081151581525050808760a00181905250505050505050919050565b604051806101c00160405280600073ffffffffffffffffffffffffffffffffffffffff168152602001600073ffffffffffffffffffffffffffffffffffffffff168152602001600067ffffffffffffffff168152602001600067ffffffffffffffff16815260200160006fffffffffffffffffffffffffffffffff16815260200160006fffffffffffffffffffffffffffffffff16815260200160006fffffffffffffffffffffffffffffffff16815260200160006fffffffffffffffffffffffffffffffff168152602001600015158152602001600015158152602001600015158152602001612c78612c92565b8152602001612c85612c92565b8152602001606081525090565b6040518060800160405280600073ffffffffffffffffffffffffffffffffffffffff1681526020016000815260200160608152602001606081525090565b604051806101a00160405280600073ffffffffffffffffffffffffffffffffffffffff168152602001600073ffffffffffffffffffffffffffffffffffffffff168152602001600067ffffffffffffffff168152602001600067ffffffffffffffff16815260200160006fffffffffffffffffffffffffffffffff1681526020016000815260200160008152602001600015158152602001600015158152602001600015158152602001612d82612c92565b8152602001612d8f612c92565b8152602001606081525090565b60405180606001604052806060815260200160608152602001600081525090565b60405180608001604052806000815260200160008152602001600081526020016000151581525090565b6040518060c00160405280600073ffffffffffffffffffffffffffffffffffffffff168152602001600067ffffffffffffffff168152602001600067ffffffffffffffff168152602001600067ffffffffffffffff168152602001600015158152602001612e53612c92565b81525090565b604051806101c00160405280600073ffffffffffffffffffffffffffffffffffffffff168152602001600073ffffffffffffffffffffffffffffffffffffffff16815260200160006fffffffffffffffffffffffffffffffff16815260200160006fffffffffffffffffffffffffffffffff16815260200160006fffffffffffffffffffffffffffffffff16815260200160006fffffffffffffffffffffffffffffffff168152602001600067ffffffffffffffff168152602001600067ffffffffffffffff168152602001600015158152602001600015158152602001600015158152602001612f48612c92565b8152602001612f55612c92565b8152602001606081525090565b604051806101c00160405280600073ffffffffffffffffffffffffffffffffffffffff168152602001600073ffffffffffffffffffffffffffffffffffffffff168152602001600067ffffffffffffffff168152602001600067ffffffffffffffff16815260200160006fffffffffffffffffffffffffffffffff16815260200160006fffffffffffffffffffffffffffffffff16815260200160006fffffffffffffffffffffffffffffffff16815260200160006fffffffffffffffffffffffffffffffff168152602001600015158152602001600015158152602001600015158152602001613051612c92565b815260200161305e612c92565b8152602001606081525090565b600061307e61307984614496565b614471565b9050808382526020820190508285602086028201111561309d57600080fd5b60005b858110156130cd57816130b38882613181565b8452602084019350602083019250506001810190506130a0565b5050509392505050565b60006130ea6130e584614496565b614471565b9050808382526020820190508285602086028201111561310957600080fd5b60005b85811015613139578161311f8882613196565b84526020840193506020830192505060018101905061310c565b5050509392505050565b6000613156613151846144c2565b614471565b90508281526020810184848401111561316e57600080fd5b6131798482856147e7565b509392505050565b6000813590506131908161492c565b92915050565b6000815190506131a58161492c565b92915050565b6000813590506131ba81614943565b92915050565b600082601f8301126131d157600080fd5b81356131e184826020860161306b565b91505092915050565b600082601f8301126131fb57600080fd5b815161320b8482602086016130d7565b91505092915050565b6000815190506132238161495a565b92915050565b600082601f83011261323a57600080fd5b815161324a848260208601613143565b91505092915050565b60008151905061326281614971565b92915050565b60008135905061327781614988565b92915050565b60008151905061328c81614988565b92915050565b6000815190506132a18161499f565b92915050565b6000815190506132b6816149b6565b92915050565b6000602082840312156132ce57600080fd5b60006132dc84828501613181565b91505092915050565b6000602082840312156132f757600080fd5b600061330584828501613196565b91505092915050565b60006020828403121561332057600080fd5b600061332e848285016131ab565b91505092915050565b6000806040838503121561334a57600080fd5b600061335885828601613181565b925050602061336985828601613181565b9150509250929050565b60008060006060848603121561338857600080fd5b600061339686828701613181565b93505060206133a786828701613181565b92505060406133b886828701613181565b9150509250925092565b600080600080608085870312156133d857600080fd5b60006133e687828801613181565b94505060206133f787828801613181565b935050604061340887828801613181565b925050606061341987828801613181565b91505092959194509250565b6000806000806080858703121561343b57600080fd5b600061344987828801613196565b945050602061345a87828801613292565b935050604061346b87828801613292565b925050606061347c87828801613214565b91505092959194509250565b60006020828403121561349a57600080fd5b600082013567ffffffffffffffff8111156134b457600080fd5b6134c0848285016131c0565b91505092915050565b6000602082840312156134db57600080fd5b600082015167ffffffffffffffff8111156134f557600080fd5b613501848285016131ea565b91505092915050565b60006020828403121561351c57600080fd5b600061352a84828501613214565b91505092915050565b60006020828403121561354557600080fd5b600082015167ffffffffffffffff81111561355f57600080fd5b61356b84828501613229565b91505092915050565b6000806040838503121561358757600080fd5b600083015167ffffffffffffffff8111156135a157600080fd5b6135ad85828601613229565b92505060206135be8582860161327d565b9150509250929050565b6000806000606084860312156135dd57600080fd5b60006135eb86828701613253565b93505060206135fc86828701613214565b925050604061360d86828701613214565b9150509250925092565b6000806040838503121561362a57600080fd5b600061363885828601613253565b925050602061364985828601613253565b9150509250929050565b60006020828403121561366557600080fd5b60006136738482850161327d565b91505092915050565b6000806040838503121561368f57600080fd5b600061369d85828601613268565b92505060206136ae85828601613268565b9150509250929050565b600080600080608085870312156136ce57600080fd5b60006136dc8782880161327d565b94505060206136ed8782880161327d565b93505060406136fe87828801613214565b925050606061370f87828801613214565b91505092959194509250565b60008060006060848603121561373057600080fd5b600061373e86828701613268565b935050602061374f86828701613268565b925050604061376086828701613268565b9150509250925092565b60006020828403121561377c57600080fd5b600061378a84828501613292565b91505092915050565b6000806000606084860312156137a857600080fd5b60006137b686828701613292565b93505060206137c786828701613292565b92505060406137d886828701613253565b9150509250925092565b6000602082840312156137f457600080fd5b6000613802848285016132a7565b91505092915050565b60006138178383613d7c565b905092915050565b600061382b838361404b565b905092915050565b600061383f83836140d4565b905092915050565b613850816146c0565b82525050565b61385f816146c0565b82525050565b600061387082614523565b61387a8185614576565b93508360208202850161388c856144f3565b8060005b858110156138c857848403895281516138a9858261380b565b94506138b48361454f565b925060208a01995050600181019050613890565b50829750879550505050505092915050565b60006138e582614523565b6138ef8185614587565b935083602082028501613901856144f3565b8060005b8581101561393d578484038952815161391e858261380b565b94506139298361454f565b925060208a01995050600181019050613905565b50829750879550505050505092915050565b600061395a8261452e565b6139648185614598565b93508360208202850161397685614503565b8060005b858110156139b25784840389528151613993858261381f565b945061399e8361455c565b925060208a0199505060018101905061397a565b50829750879550505050505092915050565b60006139cf82614539565b6139d981856145a9565b9350836020820285016139eb85614513565b8060005b85811015613a275784840389528151613a088582613833565b9450613a1383614569565b925060208a019950506001810190506139ef565b50829750879550505050505092915050565b613a42816146e4565b82525050565b613a5181614757565b82525050565b613a608161477b565b82525050565b613a6f8161479f565b82525050565b613a7e816147c3565b82525050565b6000613a8f82614544565b613a9981856145ba565b9350613aa98185602086016147e7565b613ab2816148f2565b840191505092915050565b6000613ac882614544565b613ad281856145cb565b9350613ae28185602086016147e7565b613aeb816148f2565b840191505092915050565b6000613b036020836145cb565b9150613b0e82614903565b602082019050919050565b60006101a083016000830151613b326000860182613847565b506020830151613b456020860182613847565b506040830151613b58604086018261422a565b506060830151613b6b606086018261422a565b506080830151613b7e60808601826141fd565b5060a0830151613b9160a086018261420c565b5060c0830151613ba460c086018261420c565b5060e0830151613bb760e0860182613a39565b50610100830151613bcc610100860182613a39565b50610120830151613be1610120860182613a39565b50610140830151848203610140860152613bfb82826140d4565b915050610160830151848203610160860152613c1782826140d4565b915050610180830151848203610180860152613c338282613865565b9150508091505092915050565b60006101c083016000830151613c596000860182613847565b506020830151613c6c6020860182613847565b506040830151613c7f60408601826141fd565b506060830151613c9260608601826141fd565b506080830151613ca560808601826141fd565b5060a0830151613cb860a08601826141fd565b5060c0830151613ccb60c086018261422a565b5060e0830151613cde60e086018261422a565b50610100830151613cf3610100860182613a39565b50610120830151613d08610120860182613a39565b50610140830151613d1d610140860182613a39565b50610160830151848203610160860152613d3782826140d4565b915050610180830151848203610180860152613d5382826140d4565b9150506101a08301518482036101a0860152613d6f8282613865565b9150508091505092915050565b60006060830160008301518482036000860152613d998282613a84565b91505060208301518482036020860152613db38282613a84565b9150506040830151613dc8604086018261420c565b508091505092915050565b60006101c083016000830151613dec6000860182613847565b506020830151613dff6020860182613847565b506040830151613e12604086018261422a565b506060830151613e25606086018261422a565b506080830151613e3860808601826141fd565b5060a0830151613e4b60a08601826141fd565b5060c0830151613e5e60c08601826141fd565b5060e0830151613e7160e08601826141fd565b50610100830151613e86610100860182613a39565b50610120830151613e9b610120860182613a39565b50610140830151613eb0610140860182613a39565b50610160830151848203610160860152613eca82826140d4565b915050610180830151848203610180860152613ee682826140d4565b9150506101a08301518482036101a0860152613f028282613865565b9150508091505092915050565b60006101c083016000830151613f286000860182613847565b506020830151613f3b6020860182613847565b506040830151613f4e604086018261422a565b506060830151613f61606086018261422a565b506080830151613f7460808601826141fd565b5060a0830151613f8760a08601826141fd565b5060c0830151613f9a60c08601826141fd565b5060e0830151613fad60e08601826141fd565b50610100830151613fc2610100860182613a39565b50610120830151613fd7610120860182613a39565b50610140830151613fec610140860182613a39565b5061016083015184820361016086015261400682826140d4565b91505061018083015184820361018086015261402282826140d4565b9150506101a08301518482036101a086015261403e8282613865565b9150508091505092915050565b600060c0830160008301516140636000860182613847565b506020830151614076602086018261422a565b506040830151614089604086018261422a565b50606083015161409c606086018261422a565b5060808301516140af6080860182613a39565b5060a083015184820360a08601526140c782826140d4565b9150508091505092915050565b60006080830160008301516140ec6000860182613847565b5060208301516140ff602086018261420c565b50604083015184820360408601526141178282613a84565b915050606083015184820360608601526141318282613a84565b9150508091505092915050565b60006080830160008301516141566000860182613847565b506020830151614169602086018261420c565b50604083015184820360408601526141818282613a84565b9150506060830151848203606086015261419b8282613a84565b9150508091505092915050565b6080820160008201516141be600085018261420c565b5060208201516141d1602085018261420c565b5060408201516141e4604085018261420c565b5060608201516141f76060850182613a39565b50505050565b614206816146f0565b82525050565b6142158161472c565b82525050565b6142248161472c565b82525050565b61423381614736565b82525050565b600060208201905061424e6000830184613856565b92915050565b60006040820190506142696000830185613856565b6142766020830184613856565b9392505050565b6000602082019050818103600083015261429781846138da565b905092915050565b600060208201905081810360008301526142b9818461394f565b905092915050565b600060208201905081810360008301526142db81846139c4565b905092915050565b60006020820190506142f86000830184613a48565b92915050565b60006020820190506143136000830184613a57565b92915050565b600060208201905061432e6000830184613a66565b92915050565b60006020820190506143496000830184613a75565b92915050565b600060208201905081810360008301526143698184613abd565b905092915050565b6000602082019050818103600083015261438a81613af6565b9050919050565b600060208201905081810360008301526143ab8184613b19565b905092915050565b600060208201905081810360008301526143cd8184613c40565b905092915050565b600060208201905081810360008301526143ef8184613dd3565b905092915050565b600060208201905081810360008301526144118184613f0f565b905092915050565b60006020820190508181036000830152614433818461413e565b905092915050565b600060808201905061445060008301846141a8565b92915050565b600060208201905061446b600083018461421b565b92915050565b600061447b61448c565b9050614487828261481a565b919050565b6000604051905090565b600067ffffffffffffffff8211156144b1576144b06148c3565b5b602082029050602081019050919050565b600067ffffffffffffffff8211156144dd576144dc6148c3565b5b6144e6826148f2565b9050602081019050919050565b6000819050602082019050919050565b6000819050602082019050919050565b6000819050602082019050919050565b600081519050919050565b600081519050919050565b600081519050919050565b600081519050919050565b6000602082019050919050565b6000602082019050919050565b6000602082019050919050565b600082825260208201905092915050565b600082825260208201905092915050565b600082825260208201905092915050565b600082825260208201905092915050565b600082825260208201905092915050565b600082825260208201905092915050565b60006145e78261472c565b91506145f28361472c565b9250827fffffffffffffffffffffffffffffffffffffffffffffffffffffffffffffffff0382111561462757614626614894565b5b828201905092915050565b600061463d8261472c565b91506146488361472c565b9250817fffffffffffffffffffffffffffffffffffffffffffffffffffffffffffffffff048311821515161561468157614680614894565b5b828202905092915050565b60006146978261472c565b91506146a28361472c565b9250828210156146b5576146b4614894565b5b828203905092915050565b60006146cb8261470c565b9050919050565b60006146dd8261470c565b9050919050565b60008115159050919050565b60006fffffffffffffffffffffffffffffffff82169050919050565b600073ffffffffffffffffffffffffffffffffffffffff82169050919050565b6000819050919050565b600067ffffffffffffffff82169050919050565b600060ff82169050919050565b600061476282614769565b9050919050565b60006147748261470c565b9050919050565b60006147868261478d565b9050919050565b60006147988261470c565b9050919050565b60006147aa826147b1565b9050919050565b60006147bc8261470c565b9050919050565b60006147ce826147d5565b9050919050565b60006147e08261470c565b9050919050565b60005b838110156148055780820151818401526020810190506147ea565b83811115614814576000848401525b50505050565b614823826148f2565b810181811067ffffffffffffffff82111715614842576148416148c3565b5b80604052505050565b60006148568261472c565b91507fffffffffffffffffffffffffffffffffffffffffffffffffffffffffffffffff82141561488957614888614894565b5b600182019050919050565b7f4e487b7100000000000000000000000000000000000000000000000000000000600052601160045260246000fd5b7f4e487b7100000000000000000000000000000000000000000000000000000000600052604160045260246000fd5b6000601f19601f8301169050919050565b7f4d49534f48656c7065723a2053656e646572206d7573742062652041646d696e600082015250565b614935816146c0565b811461494057600080fd5b50565b61494c816146d2565b811461495757600080fd5b50565b614963816146e4565b811461496e57600080fd5b50565b61497a816146f0565b811461498557600080fd5b50565b6149918161472c565b811461499c57600080fd5b50565b6149a881614736565b81146149b357600080fd5b50565b6149bf8161474a565b81146149ca57600080fd5b5056fea26469706673582212201a19c5d81ce4dc22d1430616ec84436e42fc015d45fc0c88fc625b09868447b964736f6c63430008040033",
  "linkReferences": {},
  "deployedLinkReferences": {}
}