{
  "_format": "hh-sol-artifact-1",
  "contractName": "MISOHelper",
  "sourceName": "contracts/Helper/MISOHelper.sol",
  "abi": [
    {
      "inputs": [
        {
          "internalType": "address",
          "name": "_accessControls",
          "type": "address"
        },
        {
          "internalType": "address",
          "name": "_tokenFactory",
          "type": "address"
        },
        {
          "internalType": "address",
          "name": "_market",
          "type": "address"
        },
        {
          "internalType": "address",
          "name": "_launcher",
          "type": "address"
        },
        {
          "internalType": "address",
          "name": "_farmFactory",
          "type": "address"
        }
      ],
      "stateMutability": "nonpayable",
      "type": "constructor"
    },
    {
      "inputs": [],
      "name": "accessControls",
      "outputs": [
        {
          "internalType": "contract MISOAccessControls",
          "name": "",
          "type": "address"
        }
      ],
      "stateMutability": "view",
      "type": "function"
    },
    {
      "inputs": [
        {
          "internalType": "address",
          "name": "_token",
          "type": "address"
        },
        {
          "internalType": "address",
          "name": "_owner",
          "type": "address"
        },
        {
          "internalType": "address",
          "name": "_spender",
          "type": "address"
        }
      ],
      "name": "allowance",
      "outputs": [
        {
          "internalType": "uint256",
          "name": "",
          "type": "uint256"
        }
      ],
      "stateMutability": "view",
      "type": "function"
    },
    {
      "inputs": [],
      "name": "farmFactory",
      "outputs": [
        {
          "internalType": "contract IMisoFarmFactory",
          "name": "",
          "type": "address"
        }
      ],
      "stateMutability": "view",
      "type": "function"
    },
    {
      "inputs": [
        {
          "internalType": "address payable",
          "name": "_batchAuction",
          "type": "address"
        }
      ],
      "name": "getBatchAuctionInfo",
      "outputs": [
        {
          "components": [
            {
              "internalType": "address",
              "name": "addr",
              "type": "address"
            },
            {
              "internalType": "address",
              "name": "paymentCurrency",
              "type": "address"
            },
            {
              "internalType": "uint64",
              "name": "startTime",
              "type": "uint64"
            },
            {
              "internalType": "uint64",
              "name": "endTime",
              "type": "uint64"
            },
            {
              "internalType": "uint128",
              "name": "totalTokens",
              "type": "uint128"
            },
            {
              "internalType": "uint256",
              "name": "commitmentsTotal",
              "type": "uint256"
            },
            {
              "internalType": "uint256",
              "name": "minimumCommitmentAmount",
              "type": "uint256"
            },
            {
              "internalType": "bool",
              "name": "finalized",
              "type": "bool"
            },
            {
              "internalType": "bool",
              "name": "usePointList",
              "type": "bool"
            },
            {
              "internalType": "bool",
              "name": "auctionSuccessful",
              "type": "bool"
            },
            {
              "components": [
                {
                  "internalType": "address",
                  "name": "addr",
                  "type": "address"
                },
                {
                  "internalType": "uint256",
                  "name": "decimals",
                  "type": "uint256"
                },
                {
                  "internalType": "string",
                  "name": "name",
                  "type": "string"
                },
                {
                  "internalType": "string",
                  "name": "symbol",
                  "type": "string"
                }
              ],
              "internalType": "struct TokenHelper.TokenInfo",
              "name": "tokenInfo",
              "type": "tuple"
            },
            {
              "components": [
                {
                  "internalType": "address",
                  "name": "addr",
                  "type": "address"
                },
                {
                  "internalType": "uint256",
                  "name": "decimals",
                  "type": "uint256"
                },
                {
                  "internalType": "string",
                  "name": "name",
                  "type": "string"
                },
                {
                  "internalType": "string",
                  "name": "symbol",
                  "type": "string"
                }
              ],
              "internalType": "struct TokenHelper.TokenInfo",
              "name": "paymentCurrencyInfo",
              "type": "tuple"
            },
            {
              "components": [
                {
                  "internalType": "string",
                  "name": "name",
                  "type": "string"
                },
                {
                  "internalType": "string",
                  "name": "data",
                  "type": "string"
                },
                {
                  "internalType": "uint256",
                  "name": "lastModified",
                  "type": "uint256"
                }
              ],
              "internalType": "struct DocumentHepler.Document[]",
              "name": "documents",
              "type": "tuple[]"
            }
          ],
          "internalType": "struct MarketHelper.BatchAuctionInfo",
          "name": "",
          "type": "tuple"
        }
      ],
      "stateMutability": "view",
      "type": "function"
    },
    {
      "inputs": [
        {
          "internalType": "address",
          "name": "_crowdsale",
          "type": "address"
        }
      ],
      "name": "getCrowdsaleInfo",
      "outputs": [
        {
          "components": [
            {
              "internalType": "address",
              "name": "addr",
              "type": "address"
            },
            {
              "internalType": "address",
              "name": "paymentCurrency",
              "type": "address"
            },
            {
              "internalType": "uint128",
              "name": "commitmentsTotal",
              "type": "uint128"
            },
            {
              "internalType": "uint128",
              "name": "totalTokens",
              "type": "uint128"
            },
            {
              "internalType": "uint128",
              "name": "rate",
              "type": "uint128"
            },
            {
              "internalType": "uint128",
              "name": "goal",
              "type": "uint128"
            },
            {
              "internalType": "uint64",
              "name": "startTime",
              "type": "uint64"
            },
            {
              "internalType": "uint64",
              "name": "endTime",
              "type": "uint64"
            },
            {
              "internalType": "bool",
              "name": "finalized",
              "type": "bool"
            },
            {
              "internalType": "bool",
              "name": "usePointList",
              "type": "bool"
            },
            {
              "internalType": "bool",
              "name": "auctionSuccessful",
              "type": "bool"
            },
            {
              "components": [
                {
                  "internalType": "address",
                  "name": "addr",
                  "type": "address"
                },
                {
                  "internalType": "uint256",
                  "name": "decimals",
                  "type": "uint256"
                },
                {
                  "internalType": "string",
                  "name": "name",
                  "type": "string"
                },
                {
                  "internalType": "string",
                  "name": "symbol",
                  "type": "string"
                }
              ],
              "internalType": "struct TokenHelper.TokenInfo",
              "name": "tokenInfo",
              "type": "tuple"
            },
            {
              "components": [
                {
                  "internalType": "address",
                  "name": "addr",
                  "type": "address"
                },
                {
                  "internalType": "uint256",
                  "name": "decimals",
                  "type": "uint256"
                },
                {
                  "internalType": "string",
                  "name": "name",
                  "type": "string"
                },
                {
                  "internalType": "string",
                  "name": "symbol",
                  "type": "string"
                }
              ],
              "internalType": "struct TokenHelper.TokenInfo",
              "name": "paymentCurrencyInfo",
              "type": "tuple"
            },
            {
              "components": [
                {
                  "internalType": "string",
                  "name": "name",
                  "type": "string"
                },
                {
                  "internalType": "string",
                  "name": "data",
                  "type": "string"
                },
                {
                  "internalType": "uint256",
                  "name": "lastModified",
                  "type": "uint256"
                }
              ],
              "internalType": "struct DocumentHepler.Document[]",
              "name": "documents",
              "type": "tuple[]"
            }
          ],
          "internalType": "struct MarketHelper.CrowdsaleInfo",
          "name": "",
          "type": "tuple"
        }
      ],
      "stateMutability": "view",
      "type": "function"
    },
    {
      "inputs": [
        {
          "internalType": "address",
          "name": "_document",
          "type": "address"
        }
      ],
      "name": "getDocuments",
      "outputs": [
        {
          "components": [
            {
              "internalType": "string",
              "name": "name",
              "type": "string"
            },
            {
              "internalType": "string",
              "name": "data",
              "type": "string"
            },
            {
              "internalType": "uint256",
              "name": "lastModified",
              "type": "uint256"
            }
          ],
          "internalType": "struct DocumentHepler.Document[]",
          "name": "",
          "type": "tuple[]"
        }
      ],
      "stateMutability": "view",
      "type": "function"
    },
    {
      "inputs": [
        {
          "internalType": "address payable",
          "name": "_dutchAuction",
          "type": "address"
        }
      ],
      "name": "getDutchAuctionInfo",
      "outputs": [
        {
          "components": [
            {
              "internalType": "address",
              "name": "addr",
              "type": "address"
            },
            {
              "internalType": "address",
              "name": "paymentCurrency",
              "type": "address"
            },
            {
              "internalType": "uint64",
              "name": "startTime",
              "type": "uint64"
            },
            {
              "internalType": "uint64",
              "name": "endTime",
              "type": "uint64"
            },
            {
              "internalType": "uint128",
              "name": "totalTokens",
              "type": "uint128"
            },
            {
              "internalType": "uint128",
              "name": "startPrice",
              "type": "uint128"
            },
            {
              "internalType": "uint128",
              "name": "minimumPrice",
              "type": "uint128"
            },
            {
              "internalType": "uint128",
              "name": "commitmentsTotal",
              "type": "uint128"
            },
            {
              "internalType": "bool",
              "name": "finalized",
              "type": "bool"
            },
            {
              "internalType": "bool",
              "name": "usePointList",
              "type": "bool"
            },
            {
              "internalType": "bool",
              "name": "auctionSuccessful",
              "type": "bool"
            },
            {
              "components": [
                {
                  "internalType": "address",
                  "name": "addr",
                  "type": "address"
                },
                {
                  "internalType": "uint256",
                  "name": "decimals",
                  "type": "uint256"
                },
                {
                  "internalType": "string",
                  "name": "name",
                  "type": "string"
                },
                {
                  "internalType": "string",
                  "name": "symbol",
                  "type": "string"
                }
              ],
              "internalType": "struct TokenHelper.TokenInfo",
              "name": "tokenInfo",
              "type": "tuple"
            },
            {
              "components": [
                {
                  "internalType": "address",
                  "name": "addr",
                  "type": "address"
                },
                {
                  "internalType": "uint256",
                  "name": "decimals",
                  "type": "uint256"
                },
                {
                  "internalType": "string",
                  "name": "name",
                  "type": "string"
                },
                {
                  "internalType": "string",
                  "name": "symbol",
                  "type": "string"
                }
              ],
              "internalType": "struct TokenHelper.TokenInfo",
              "name": "paymentCurrencyInfo",
              "type": "tuple"
            },
            {
              "components": [
                {
                  "internalType": "string",
                  "name": "name",
                  "type": "string"
                },
                {
                  "internalType": "string",
                  "name": "data",
                  "type": "string"
                },
                {
                  "internalType": "uint256",
                  "name": "lastModified",
                  "type": "uint256"
                }
              ],
              "internalType": "struct DocumentHepler.Document[]",
              "name": "documents",
              "type": "tuple[]"
            }
          ],
          "internalType": "struct MarketHelper.DutchAuctionInfo",
          "name": "",
          "type": "tuple"
        }
      ],
      "stateMutability": "view",
      "type": "function"
    },
    {
      "inputs": [
        {
          "internalType": "address",
          "name": "_farm",
          "type": "address"
        },
        {
          "internalType": "address",
          "name": "_user",
          "type": "address"
        }
      ],
      "name": "getFarmDetail",
      "outputs": [
        {
          "components": [
            {
              "internalType": "address",
              "name": "addr",
              "type": "address"
            },
            {
              "internalType": "uint256",
              "name": "templateId",
              "type": "uint256"
            },
            {
              "internalType": "uint256",
              "name": "rewardsPerBlock",
              "type": "uint256"
            },
            {
              "internalType": "uint256",
              "name": "bonusMultiplier",
              "type": "uint256"
            },
            {
              "components": [
                {
                  "internalType": "address",
                  "name": "addr",
                  "type": "address"
                },
                {
                  "internalType": "uint256",
                  "name": "decimals",
                  "type": "uint256"
                },
                {
                  "internalType": "string",
                  "name": "name",
                  "type": "string"
                },
                {
                  "internalType": "string",
                  "name": "symbol",
                  "type": "string"
                }
              ],
              "internalType": "struct TokenHelper.TokenInfo",
              "name": "rewardToken",
              "type": "tuple"
            },
            {
              "components": [
                {
                  "internalType": "address",
                  "name": "lpToken",
                  "type": "address"
                },
                {
                  "internalType": "uint256",
                  "name": "allocPoint",
                  "type": "uint256"
                },
                {
                  "internalType": "uint256",
                  "name": "lastRewardBlock",
                  "type": "uint256"
                },
                {
                  "internalType": "uint256",
                  "name": "accRewardsPerShare",
                  "type": "uint256"
                },
                {
                  "internalType": "uint256",
                  "name": "totalStaked",
                  "type": "uint256"
                },
                {
                  "components": [
                    {
                      "internalType": "address",
                      "name": "addr",
                      "type": "address"
                    },
                    {
                      "internalType": "uint256",
                      "name": "decimals",
                      "type": "uint256"
                    },
                    {
                      "internalType": "string",
                      "name": "name",
                      "type": "string"
                    },
                    {
                      "internalType": "string",
                      "name": "symbol",
                      "type": "string"
                    }
                  ],
                  "internalType": "struct TokenHelper.TokenInfo",
                  "name": "stakingToken",
                  "type": "tuple"
                }
              ],
              "internalType": "struct FarmHelper.PoolInfo[]",
              "name": "pools",
              "type": "tuple[]"
            }
          ],
          "internalType": "struct FarmHelper.FarmInfo",
          "name": "farmInfo",
          "type": "tuple"
        },
        {
          "components": [
            {
              "internalType": "address",
              "name": "farm",
              "type": "address"
            },
            {
              "internalType": "uint256",
              "name": "pid",
              "type": "uint256"
            },
            {
              "internalType": "uint256",
              "name": "totalStaked",
              "type": "uint256"
            },
            {
              "internalType": "uint256",
              "name": "lpBalance",
              "type": "uint256"
            },
            {
              "internalType": "uint256",
              "name": "lpAllowance",
              "type": "uint256"
            },
            {
              "internalType": "uint256",
              "name": "rewardDebt",
              "type": "uint256"
            },
            {
              "internalType": "uint256",
              "name": "pendingRewards",
              "type": "uint256"
            }
          ],
          "internalType": "struct FarmHelper.UserPoolInfo[]",
          "name": "userInfos",
          "type": "tuple[]"
        }
      ],
      "stateMutability": "view",
      "type": "function"
    },
    {
      "inputs": [
        {
          "internalType": "uint256",
          "name": "pageSize",
          "type": "uint256"
        },
        {
          "internalType": "uint256",
          "name": "pageNbr",
          "type": "uint256"
        },
        {
          "internalType": "uint256",
          "name": "offset",
          "type": "uint256"
        }
      ],
      "name": "getFarms",
      "outputs": [
        {
          "components": [
            {
              "internalType": "address",
              "name": "addr",
              "type": "address"
            },
            {
              "internalType": "uint256",
              "name": "templateId",
              "type": "uint256"
            },
            {
              "internalType": "uint256",
              "name": "rewardsPerBlock",
              "type": "uint256"
            },
            {
              "internalType": "uint256",
              "name": "bonusMultiplier",
              "type": "uint256"
            },
            {
              "components": [
                {
                  "internalType": "address",
                  "name": "addr",
                  "type": "address"
                },
                {
                  "internalType": "uint256",
                  "name": "decimals",
                  "type": "uint256"
                },
                {
                  "internalType": "string",
                  "name": "name",
                  "type": "string"
                },
                {
                  "internalType": "string",
                  "name": "symbol",
                  "type": "string"
                }
              ],
              "internalType": "struct TokenHelper.TokenInfo",
              "name": "rewardToken",
              "type": "tuple"
            },
            {
              "components": [
                {
                  "internalType": "address",
                  "name": "lpToken",
                  "type": "address"
                },
                {
                  "internalType": "uint256",
                  "name": "allocPoint",
                  "type": "uint256"
                },
                {
                  "internalType": "uint256",
                  "name": "lastRewardBlock",
                  "type": "uint256"
                },
                {
                  "internalType": "uint256",
                  "name": "accRewardsPerShare",
                  "type": "uint256"
                },
                {
                  "internalType": "uint256",
                  "name": "totalStaked",
                  "type": "uint256"
                },
                {
                  "components": [
                    {
                      "internalType": "address",
                      "name": "addr",
                      "type": "address"
                    },
                    {
                      "internalType": "uint256",
                      "name": "decimals",
                      "type": "uint256"
                    },
                    {
                      "internalType": "string",
                      "name": "name",
                      "type": "string"
                    },
                    {
                      "internalType": "string",
                      "name": "symbol",
                      "type": "string"
                    }
                  ],
                  "internalType": "struct TokenHelper.TokenInfo",
                  "name": "stakingToken",
                  "type": "tuple"
                }
              ],
              "internalType": "struct FarmHelper.PoolInfo[]",
              "name": "pools",
              "type": "tuple[]"
            }
          ],
          "internalType": "struct FarmHelper.FarmInfo[]",
          "name": "",
          "type": "tuple[]"
        }
      ],
      "stateMutability": "view",
      "type": "function"
    },
    {
      "inputs": [],
      "name": "getFarms",
      "outputs": [
        {
          "components": [
            {
              "internalType": "address",
              "name": "addr",
              "type": "address"
            },
            {
              "internalType": "uint256",
              "name": "templateId",
              "type": "uint256"
            },
            {
              "internalType": "uint256",
              "name": "rewardsPerBlock",
              "type": "uint256"
            },
            {
              "internalType": "uint256",
              "name": "bonusMultiplier",
              "type": "uint256"
            },
            {
              "components": [
                {
                  "internalType": "address",
                  "name": "addr",
                  "type": "address"
                },
                {
                  "internalType": "uint256",
                  "name": "decimals",
                  "type": "uint256"
                },
                {
                  "internalType": "string",
                  "name": "name",
                  "type": "string"
                },
                {
                  "internalType": "string",
                  "name": "symbol",
                  "type": "string"
                }
              ],
              "internalType": "struct TokenHelper.TokenInfo",
              "name": "rewardToken",
              "type": "tuple"
            },
            {
              "components": [
                {
                  "internalType": "address",
                  "name": "lpToken",
                  "type": "address"
                },
                {
                  "internalType": "uint256",
                  "name": "allocPoint",
                  "type": "uint256"
                },
                {
                  "internalType": "uint256",
                  "name": "lastRewardBlock",
                  "type": "uint256"
                },
                {
                  "internalType": "uint256",
                  "name": "accRewardsPerShare",
                  "type": "uint256"
                },
                {
                  "internalType": "uint256",
                  "name": "totalStaked",
                  "type": "uint256"
                },
                {
                  "components": [
                    {
                      "internalType": "address",
                      "name": "addr",
                      "type": "address"
                    },
                    {
                      "internalType": "uint256",
                      "name": "decimals",
                      "type": "uint256"
                    },
                    {
                      "internalType": "string",
                      "name": "name",
                      "type": "string"
                    },
                    {
                      "internalType": "string",
                      "name": "symbol",
                      "type": "string"
                    }
                  ],
                  "internalType": "struct TokenHelper.TokenInfo",
                  "name": "stakingToken",
                  "type": "tuple"
                }
              ],
              "internalType": "struct FarmHelper.PoolInfo[]",
              "name": "pools",
              "type": "tuple[]"
            }
          ],
          "internalType": "struct FarmHelper.FarmInfo[]",
          "name": "",
          "type": "tuple[]"
        }
      ],
      "stateMutability": "view",
      "type": "function"
    },
    {
      "inputs": [
        {
          "internalType": "uint256",
          "name": "pageSize",
          "type": "uint256"
        },
        {
          "internalType": "uint256",
          "name": "pageNbr",
          "type": "uint256"
        }
      ],
      "name": "getFarms",
      "outputs": [
        {
          "components": [
            {
              "internalType": "address",
              "name": "addr",
              "type": "address"
            },
            {
              "internalType": "uint256",
              "name": "templateId",
              "type": "uint256"
            },
            {
              "internalType": "uint256",
              "name": "rewardsPerBlock",
              "type": "uint256"
            },
            {
              "internalType": "uint256",
              "name": "bonusMultiplier",
              "type": "uint256"
            },
            {
              "components": [
                {
                  "internalType": "address",
                  "name": "addr",
                  "type": "address"
                },
                {
                  "internalType": "uint256",
                  "name": "decimals",
                  "type": "uint256"
                },
                {
                  "internalType": "string",
                  "name": "name",
                  "type": "string"
                },
                {
                  "internalType": "string",
                  "name": "symbol",
                  "type": "string"
                }
              ],
              "internalType": "struct TokenHelper.TokenInfo",
              "name": "rewardToken",
              "type": "tuple"
            },
            {
              "components": [
                {
                  "internalType": "address",
                  "name": "lpToken",
                  "type": "address"
                },
                {
                  "internalType": "uint256",
                  "name": "allocPoint",
                  "type": "uint256"
                },
                {
                  "internalType": "uint256",
                  "name": "lastRewardBlock",
                  "type": "uint256"
                },
                {
                  "internalType": "uint256",
                  "name": "accRewardsPerShare",
                  "type": "uint256"
                },
                {
                  "internalType": "uint256",
                  "name": "totalStaked",
                  "type": "uint256"
                },
                {
                  "components": [
                    {
                      "internalType": "address",
                      "name": "addr",
                      "type": "address"
                    },
                    {
                      "internalType": "uint256",
                      "name": "decimals",
                      "type": "uint256"
                    },
                    {
                      "internalType": "string",
                      "name": "name",
                      "type": "string"
                    },
                    {
                      "internalType": "string",
                      "name": "symbol",
                      "type": "string"
                    }
                  ],
                  "internalType": "struct TokenHelper.TokenInfo",
                  "name": "stakingToken",
                  "type": "tuple"
                }
              ],
              "internalType": "struct FarmHelper.PoolInfo[]",
              "name": "pools",
              "type": "tuple[]"
            }
          ],
          "internalType": "struct FarmHelper.FarmInfo[]",
          "name": "",
          "type": "tuple[]"
        }
      ],
      "stateMutability": "view",
      "type": "function"
    },
    {
      "inputs": [
        {
          "internalType": "address payable",
          "name": "_hyperbolicAuction",
          "type": "address"
        }
      ],
      "name": "getHyperbolicAuctionInfo",
      "outputs": [
        {
          "components": [
            {
              "internalType": "address",
              "name": "addr",
              "type": "address"
            },
            {
              "internalType": "address",
              "name": "paymentCurrency",
              "type": "address"
            },
            {
              "internalType": "uint64",
              "name": "startTime",
              "type": "uint64"
            },
            {
              "internalType": "uint64",
              "name": "endTime",
              "type": "uint64"
            },
            {
              "internalType": "uint128",
              "name": "totalTokens",
              "type": "uint128"
            },
            {
              "internalType": "uint128",
              "name": "minimumPrice",
              "type": "uint128"
            },
            {
              "internalType": "uint128",
              "name": "alpha",
              "type": "uint128"
            },
            {
              "internalType": "uint128",
              "name": "commitmentsTotal",
              "type": "uint128"
            },
            {
              "internalType": "bool",
              "name": "finalized",
              "type": "bool"
            },
            {
              "internalType": "bool",
              "name": "usePointList",
              "type": "bool"
            },
            {
              "internalType": "bool",
              "name": "auctionSuccessful",
              "type": "bool"
            },
            {
              "components": [
                {
                  "internalType": "address",
                  "name": "addr",
                  "type": "address"
                },
                {
                  "internalType": "uint256",
                  "name": "decimals",
                  "type": "uint256"
                },
                {
                  "internalType": "string",
                  "name": "name",
                  "type": "string"
                },
                {
                  "internalType": "string",
                  "name": "symbol",
                  "type": "string"
                }
              ],
              "internalType": "struct TokenHelper.TokenInfo",
              "name": "tokenInfo",
              "type": "tuple"
            },
            {
              "components": [
                {
                  "internalType": "address",
                  "name": "addr",
                  "type": "address"
                },
                {
                  "internalType": "uint256",
                  "name": "decimals",
                  "type": "uint256"
                },
                {
                  "internalType": "string",
                  "name": "name",
                  "type": "string"
                },
                {
                  "internalType": "string",
                  "name": "symbol",
                  "type": "string"
                }
              ],
              "internalType": "struct TokenHelper.TokenInfo",
              "name": "paymentCurrencyInfo",
              "type": "tuple"
            },
            {
              "components": [
                {
                  "internalType": "string",
                  "name": "name",
                  "type": "string"
                },
                {
                  "internalType": "string",
                  "name": "data",
                  "type": "string"
                },
                {
                  "internalType": "uint256",
                  "name": "lastModified",
                  "type": "uint256"
                }
              ],
              "internalType": "struct DocumentHepler.Document[]",
              "name": "documents",
              "type": "tuple[]"
            }
          ],
          "internalType": "struct MarketHelper.HyperbolicAuctionInfo",
          "name": "",
          "type": "tuple"
        }
      ],
      "stateMutability": "view",
      "type": "function"
    },
    {
      "inputs": [
        {
          "internalType": "uint256",
          "name": "pageSize",
          "type": "uint256"
        },
        {
          "internalType": "uint256",
          "name": "pageNbr",
          "type": "uint256"
        },
        {
          "internalType": "uint256",
          "name": "offset",
          "type": "uint256"
        }
      ],
      "name": "getMarkets",
      "outputs": [
        {
          "components": [
            {
              "internalType": "address",
              "name": "addr",
              "type": "address"
            },
            {
              "internalType": "uint64",
              "name": "templateId",
              "type": "uint64"
            },
            {
              "internalType": "uint64",
              "name": "startTime",
              "type": "uint64"
            },
            {
              "internalType": "uint64",
              "name": "endTime",
              "type": "uint64"
            },
            {
              "internalType": "bool",
              "name": "finalized",
              "type": "bool"
            },
            {
              "components": [
                {
                  "internalType": "address",
                  "name": "addr",
                  "type": "address"
                },
                {
                  "internalType": "uint256",
                  "name": "decimals",
                  "type": "uint256"
                },
                {
                  "internalType": "string",
                  "name": "name",
                  "type": "string"
                },
                {
                  "internalType": "string",
                  "name": "symbol",
                  "type": "string"
                }
              ],
              "internalType": "struct TokenHelper.TokenInfo",
              "name": "tokenInfo",
              "type": "tuple"
            }
          ],
          "internalType": "struct MarketHelper.MarketBaseInfo[]",
          "name": "",
          "type": "tuple[]"
        }
      ],
      "stateMutability": "view",
      "type": "function"
    },
    {
      "inputs": [
        {
          "internalType": "uint256",
          "name": "pageSize",
          "type": "uint256"
        },
        {
          "internalType": "uint256",
          "name": "pageNbr",
          "type": "uint256"
        }
      ],
      "name": "getMarkets",
      "outputs": [
        {
          "components": [
            {
              "internalType": "address",
              "name": "addr",
              "type": "address"
            },
            {
              "internalType": "uint64",
              "name": "templateId",
              "type": "uint64"
            },
            {
              "internalType": "uint64",
              "name": "startTime",
              "type": "uint64"
            },
            {
              "internalType": "uint64",
              "name": "endTime",
              "type": "uint64"
            },
            {
              "internalType": "bool",
              "name": "finalized",
              "type": "bool"
            },
            {
              "components": [
                {
                  "internalType": "address",
                  "name": "addr",
                  "type": "address"
                },
                {
                  "internalType": "uint256",
                  "name": "decimals",
                  "type": "uint256"
                },
                {
                  "internalType": "string",
                  "name": "name",
                  "type": "string"
                },
                {
                  "internalType": "string",
                  "name": "symbol",
                  "type": "string"
                }
              ],
              "internalType": "struct TokenHelper.TokenInfo",
              "name": "tokenInfo",
              "type": "tuple"
            }
          ],
          "internalType": "struct MarketHelper.MarketBaseInfo[]",
          "name": "",
          "type": "tuple[]"
        }
      ],
      "stateMutability": "view",
      "type": "function"
    },
    {
      "inputs": [],
      "name": "getMarkets",
      "outputs": [
        {
          "components": [
            {
              "internalType": "address",
              "name": "addr",
              "type": "address"
            },
            {
              "internalType": "uint64",
              "name": "templateId",
              "type": "uint64"
            },
            {
              "internalType": "uint64",
              "name": "startTime",
              "type": "uint64"
            },
            {
              "internalType": "uint64",
              "name": "endTime",
              "type": "uint64"
            },
            {
              "internalType": "bool",
              "name": "finalized",
              "type": "bool"
            },
            {
              "components": [
                {
                  "internalType": "address",
                  "name": "addr",
                  "type": "address"
                },
                {
                  "internalType": "uint256",
                  "name": "decimals",
                  "type": "uint256"
                },
                {
                  "internalType": "string",
                  "name": "name",
                  "type": "string"
                },
                {
                  "internalType": "string",
                  "name": "symbol",
                  "type": "string"
                }
              ],
              "internalType": "struct TokenHelper.TokenInfo",
              "name": "tokenInfo",
              "type": "tuple"
            }
          ],
          "internalType": "struct MarketHelper.MarketBaseInfo[]",
          "name": "",
          "type": "tuple[]"
        }
      ],
      "stateMutability": "view",
      "type": "function"
    },
    {
      "inputs": [
        {
          "internalType": "address",
          "name": "_farm",
          "type": "address"
        }
      ],
      "name": "getPools",
      "outputs": [
        {
          "components": [
            {
              "internalType": "address",
              "name": "lpToken",
              "type": "address"
            },
            {
              "internalType": "uint256",
              "name": "allocPoint",
              "type": "uint256"
            },
            {
              "internalType": "uint256",
              "name": "lastRewardBlock",
              "type": "uint256"
            },
            {
              "internalType": "uint256",
              "name": "accRewardsPerShare",
              "type": "uint256"
            },
            {
              "internalType": "uint256",
              "name": "totalStaked",
              "type": "uint256"
            },
            {
              "components": [
                {
                  "internalType": "address",
                  "name": "addr",
                  "type": "address"
                },
                {
                  "internalType": "uint256",
                  "name": "decimals",
                  "type": "uint256"
                },
                {
                  "internalType": "string",
                  "name": "name",
                  "type": "string"
                },
                {
                  "internalType": "string",
                  "name": "symbol",
                  "type": "string"
                }
              ],
              "internalType": "struct TokenHelper.TokenInfo",
              "name": "stakingToken",
              "type": "tuple"
            }
          ],
          "internalType": "struct FarmHelper.PoolInfo[]",
          "name": "",
          "type": "tuple[]"
        }
      ],
      "stateMutability": "view",
      "type": "function"
    },
    {
      "inputs": [
        {
          "internalType": "address",
          "name": "_address",
          "type": "address"
        }
      ],
      "name": "getTokenInfo",
      "outputs": [
        {
          "components": [
            {
              "internalType": "address",
              "name": "addr",
              "type": "address"
            },
            {
              "internalType": "uint256",
              "name": "decimals",
              "type": "uint256"
            },
            {
              "internalType": "string",
              "name": "name",
              "type": "string"
            },
            {
              "internalType": "string",
              "name": "symbol",
              "type": "string"
            }
          ],
          "internalType": "struct TokenHelper.TokenInfo",
          "name": "",
          "type": "tuple"
        }
      ],
      "stateMutability": "view",
      "type": "function"
    },
    {
      "inputs": [
        {
          "internalType": "uint256",
          "name": "pageSize",
          "type": "uint256"
        },
        {
          "internalType": "uint256",
          "name": "pageNbr",
          "type": "uint256"
        }
      ],
      "name": "getTokens",
      "outputs": [
        {
          "components": [
            {
              "internalType": "address",
              "name": "addr",
              "type": "address"
            },
            {
              "internalType": "uint256",
              "name": "decimals",
              "type": "uint256"
            },
            {
              "internalType": "string",
              "name": "name",
              "type": "string"
            },
            {
              "internalType": "string",
              "name": "symbol",
              "type": "string"
            }
          ],
          "internalType": "struct TokenHelper.TokenInfo[]",
          "name": "",
          "type": "tuple[]"
        }
      ],
      "stateMutability": "view",
      "type": "function"
    },
    {
      "inputs": [
        {
          "internalType": "uint256",
          "name": "pageSize",
          "type": "uint256"
        },
        {
          "internalType": "uint256",
          "name": "pageNbr",
          "type": "uint256"
        },
        {
          "internalType": "uint256",
          "name": "offset",
          "type": "uint256"
        }
      ],
      "name": "getTokens",
      "outputs": [
        {
          "components": [
            {
              "internalType": "address",
              "name": "addr",
              "type": "address"
            },
            {
              "internalType": "uint256",
              "name": "decimals",
              "type": "uint256"
            },
            {
              "internalType": "string",
              "name": "name",
              "type": "string"
            },
            {
              "internalType": "string",
              "name": "symbol",
              "type": "string"
            }
          ],
          "internalType": "struct TokenHelper.TokenInfo[]",
          "name": "",
          "type": "tuple[]"
        }
      ],
      "stateMutability": "view",
      "type": "function"
    },
    {
      "inputs": [],
      "name": "getTokens",
      "outputs": [
        {
          "components": [
            {
              "internalType": "address",
              "name": "addr",
              "type": "address"
            },
            {
              "internalType": "uint256",
              "name": "decimals",
              "type": "uint256"
            },
            {
              "internalType": "string",
              "name": "name",
              "type": "string"
            },
            {
              "internalType": "string",
              "name": "symbol",
              "type": "string"
            }
          ],
          "internalType": "struct TokenHelper.TokenInfo[]",
          "name": "",
          "type": "tuple[]"
        }
      ],
      "stateMutability": "view",
      "type": "function"
    },
    {
      "inputs": [
        {
          "internalType": "address[]",
          "name": "addresses",
          "type": "address[]"
        }
      ],
      "name": "getTokensInfo",
      "outputs": [
        {
          "components": [
            {
              "internalType": "address",
              "name": "addr",
              "type": "address"
            },
            {
              "internalType": "uint256",
              "name": "decimals",
              "type": "uint256"
            },
            {
              "internalType": "string",
              "name": "name",
              "type": "string"
            },
            {
              "internalType": "string",
              "name": "symbol",
              "type": "string"
            }
          ],
          "internalType": "struct TokenHelper.TokenInfo[]",
          "name": "",
          "type": "tuple[]"
        }
      ],
      "stateMutability": "view",
      "type": "function"
    },
    {
      "inputs": [
        {
          "internalType": "address",
          "name": "_action",
          "type": "address"
        },
        {
          "internalType": "address",
          "name": "_user",
          "type": "address"
        }
      ],
      "name": "getUserMarketInfo",
      "outputs": [
        {
          "components": [
            {
              "internalType": "uint256",
              "name": "commitments",
              "type": "uint256"
            },
            {
              "internalType": "uint256",
              "name": "tokensClaimable",
              "type": "uint256"
            },
            {
              "internalType": "uint256",
              "name": "claimed",
              "type": "uint256"
            },
            {
              "internalType": "bool",
              "name": "isAdmin",
              "type": "bool"
            }
          ],
          "internalType": "struct MarketHelper.UserMarketInfo",
          "name": "userInfo",
          "type": "tuple"
        }
      ],
      "stateMutability": "view",
      "type": "function"
    },
    {
      "inputs": [
        {
          "internalType": "address",
          "name": "_user",
          "type": "address"
        }
      ],
      "name": "getUserPoolsInfos",
      "outputs": [
        {
          "components": [
            {
              "internalType": "address",
              "name": "farm",
              "type": "address"
            },
            {
              "internalType": "uint256[]",
              "name": "pids",
              "type": "uint256[]"
            },
            {
              "internalType": "uint256[]",
              "name": "totalStaked",
              "type": "uint256[]"
            },
            {
              "internalType": "uint256[]",
              "name": "pendingRewards",
              "type": "uint256[]"
            }
          ],
          "internalType": "struct FarmHelper.UserPoolsInfo[]",
          "name": "",
          "type": "tuple[]"
        }
      ],
      "stateMutability": "view",
      "type": "function"
    },
    {
      "inputs": [],
      "name": "launcher",
      "outputs": [
        {
          "internalType": "address",
          "name": "",
          "type": "address"
        }
      ],
      "stateMutability": "view",
      "type": "function"
    },
    {
      "inputs": [],
      "name": "market",
      "outputs": [
        {
          "internalType": "contract IMisoMarketFactory",
          "name": "",
          "type": "address"
        }
      ],
      "stateMutability": "view",
      "type": "function"
    },
    {
      "inputs": [
        {
          "internalType": "address",
          "name": "_tokenFactory",
          "type": "address"
        },
        {
          "internalType": "address",
          "name": "_market",
          "type": "address"
        },
        {
          "internalType": "address",
          "name": "_launcher",
          "type": "address"
        },
        {
          "internalType": "address",
          "name": "_farmFactory",
          "type": "address"
        }
      ],
      "name": "setContracts",
      "outputs": [],
      "stateMutability": "nonpayable",
      "type": "function"
    },
    {
      "inputs": [],
      "name": "tokenFactory",
      "outputs": [
        {
          "internalType": "contract IMisoTokenFactory",
          "name": "",
          "type": "address"
        }
      ],
      "stateMutability": "view",
      "type": "function"
    }
  ],
  "bytecode": "0x60806040523480156200001157600080fd5b5060405162007728380380620077288339818101604052810190620000379190620001d8565b600073ffffffffffffffffffffffffffffffffffffffff168573ffffffffffffffffffffffffffffffffffffffff1614156200007257600080fd5b84600460006101000a81548173ffffffffffffffffffffffffffffffffffffffff021916908373ffffffffffffffffffffffffffffffffffffffff16021790555083600160006101000a81548173ffffffffffffffffffffffffffffffffffffffff021916908373ffffffffffffffffffffffffffffffffffffffff160217905550826000806101000a81548173ffffffffffffffffffffffffffffffffffffffff021916908373ffffffffffffffffffffffffffffffffffffffff16021790555081600360006101000a81548173ffffffffffffffffffffffffffffffffffffffff021916908373ffffffffffffffffffffffffffffffffffffffff16021790555080600260006101000a81548173ffffffffffffffffffffffffffffffffffffffff021916908373ffffffffffffffffffffffffffffffffffffffff1602179055505050505050620002a8565b600081519050620001d2816200028e565b92915050565b600080600080600060a08688031215620001f157600080fd5b60006200020188828901620001c1565b95505060206200021488828901620001c1565b94505060406200022788828901620001c1565b93505060606200023a88828901620001c1565b92505060806200024d88828901620001c1565b9150509295509295909350565b600062000267826200026e565b9050919050565b600073ffffffffffffffffffffffffffffffffffffffff82169050919050565b62000299816200025a565b8114620002a557600080fd5b50565b61747080620002b86000396000f3fe608060405234801561001057600080fd5b50600436106101a95760003560e01c80635c39f467116100f9578063927da10511610097578063bce16f4b11610071578063bce16f4b14610593578063bf989b6e146105c3578063e77772fe146105df578063ec2c9016146105fd576101a9565b8063927da105146105275780639dc4ac8a14610557578063aa6ca80814610575576101a9565b80636d25e175116100d35780636d25e1751461049d578063748365ef146104bb57806380968d48146104d957806380f5560514610509576101a9565b80635c39f4671461040d5780636306377d1461043d57806364d414bf1461046d576101a9565b806327f50a2d116101665780633c74720c116101405780633c74720c1461034c57806346a0fe471461037c578063494cfc6c146103ac57806356468ddf146103dc576101a9565b806327f50a2d146102bc578063372cfb93146102ec57806338d9893b1461031c576101a9565b80630cbf4ba7146101ae578063156ec681146101de57806316eebd1e1461020e578063193d13621461022c5780631f69565f1461025c57806322aeea091461028c575b600080fd5b6101c860048036038101906101c391906154f2565b61061b565b6040516101d59190616ba0565b60405180910390f35b6101f860048036038101906101f39190615544565b610d55565b6040516102059190616d0d565b60405180910390f35b610216611257565b6040516102239190616ab2565b60405180910390f35b61024660048036038101906102419190615544565b61127d565b6040516102539190616c70565b60405180910390f35b610276600480360381019061027191906154f2565b61168c565b6040516102839190616d2f565b60405180910390f35b6102a660048036038101906102a191906159f0565b611883565b6040516102b39190616b18565b60405180910390f35b6102d660048036038101906102d191906154f2565b611b3e565b6040516102e39190616af6565b60405180910390f35b6103066004803603810190610301919061556d565b611e6a565b6040516103139190616d51565b60405180910390f35b610336600480360381019061033191906159f0565b6120cc565b6040516103439190616b3a565b60405180910390f35b610366600480360381019061036191906154f2565b612385565b6040516103739190616c92565b60405180910390f35b61039660048036038101906103919190615721565b612887565b6040516103a39190616b7e565b60405180910390f35b6103c660048036038101906103c19190615915565b6129be565b6040516103d39190616b7e565b60405180910390f35b6103f660048036038101906103f1919061556d565b6129d4565b604051610404929190616cd6565b60405180910390f35b610427600480360381019061042291906154f2565b613165565b6040516104349190616b5c565b60405180910390f35b61045760048036038101906104529190615544565b61361a565b6040516104649190616cb4565b60405180910390f35b610487600480360381019061048291906159f0565b613b1c565b6040516104949190616b7e565b60405180910390f35b6104a5613dd7565b6040516104b29190616bc2565b60405180910390f35b6104c3613dfd565b6040516104d09190616c13565b60405180910390f35b6104f360048036038101906104ee9190615915565b613e23565b6040516105009190616b3a565b60405180910390f35b610511613e39565b60405161051e9190616bdd565b60405180910390f35b610541600480360381019061053c91906155a9565b613e5d565b60405161054e9190616d6c565b60405180910390f35b61055f613ef3565b60405161056c9190616b18565b60405180910390f35b61057d61413b565b60405161058a9190616b7e565b60405180910390f35b6105ad60048036038101906105a89190615915565b614206565b6040516105ba9190616b18565b60405180910390f35b6105dd60048036038101906105d891906155f8565b61421c565b005b6105e76144e3565b6040516105f49190616bf8565b60405180910390f35b610605614509565b6040516106129190616b3a565b60405180910390f35b60606000600260009054906101000a900473ffffffffffffffffffffffffffffffffffffffff1673ffffffffffffffffffffffffffffffffffffffff16638f5185e86040518163ffffffff1660e01b815260040160206040518083038186803b15801561068757600080fd5b505afa15801561069b573d6000803e3d6000fd5b505050506040513d601f19601f820116820180604052508101906106bf91906158ec565b905060008167ffffffffffffffff811115610703577f4e487b7100000000000000000000000000000000000000000000000000000000600052604160045260246000fd5b60405190808252806020026020018201604052801561073c57816020015b610729614c8a565b8152602001906001900390816107215790505b50905060005b82811015610d4a576000600260009054906101000a900473ffffffffffffffffffffffffffffffffffffffff1673ffffffffffffffffffffffffffffffffffffffff16637da470ea836040518263ffffffff1660e01b81526004016107a79190616d6c565b60206040518083038186803b1580156107bf57600080fd5b505afa1580156107d3573d6000803e3d6000fd5b505050506040513d601f19601f820116820180604052508101906107f7919061551b565b9050600081905060008173ffffffffffffffffffffffffffffffffffffffff1663081e3eda6040518163ffffffff1660e01b815260040160206040518083038186803b15801561084657600080fd5b505afa15801561085a573d6000803e3d6000fd5b505050506040513d601f19601f8201168201806040525081019061087e91906158ec565b905060008167ffffffffffffffff8111156108c2577f4e487b7100000000000000000000000000000000000000000000000000000000600052604160045260246000fd5b6040519080825280602002602001820160405280156108f05781602001602082028036833780820191505090505b50905060008267ffffffffffffffff811115610935577f4e487b7100000000000000000000000000000000000000000000000000000000600052604160045260246000fd5b6040519080825280602002602001820160405280156109635781602001602082028036833780820191505090505b50905060008367ffffffffffffffff8111156109a8577f4e487b7100000000000000000000000000000000000000000000000000000000600052604160045260246000fd5b6040519080825280602002602001820160405280156109d65781602001602082028036833780820191505090505b50905060005b84811015610bdd578573ffffffffffffffffffffffffffffffffffffffff166393f1a40b828e6040518363ffffffff1660e01b8152600401610a1f929190616d87565b604080518083038186803b158015610a3657600080fd5b505afa158015610a4a573d6000803e3d6000fd5b505050506040513d601f19601f82011682018060405250810190610a6e9190615951565b50848281518110610aa8577f4e487b7100000000000000000000000000000000000000000000000000000000600052603260045260246000fd5b6020026020010181815250508573ffffffffffffffffffffffffffffffffffffffff1663d18df53c828e6040518363ffffffff1660e01b8152600401610aef929190616d87565b60206040518083038186803b158015610b0757600080fd5b505afa158015610b1b573d6000803e3d6000fd5b505050506040513d601f19601f82011682018060405250810190610b3f91906158ec565b838281518110610b78577f4e487b7100000000000000000000000000000000000000000000000000000000600052603260045260246000fd5b60200260200101818152505080828281518110610bbe577f4e487b7100000000000000000000000000000000000000000000000000000000600052603260045260246000fd5b6020026020010181815250508080610bd5906172b8565b9150506109dc565b5082888881518110610c18577f4e487b7100000000000000000000000000000000000000000000000000000000600052603260045260246000fd5b60200260200101516040018190525081888881518110610c61577f4e487b7100000000000000000000000000000000000000000000000000000000600052603260045260246000fd5b60200260200101516060018190525080888881518110610caa577f4e487b7100000000000000000000000000000000000000000000000000000000600052603260045260246000fd5b60200260200101516020018190525085888881518110610cf3577f4e487b7100000000000000000000000000000000000000000000000000000000600052603260045260246000fd5b60200260200101516000019073ffffffffffffffffffffffffffffffffffffffff16908173ffffffffffffffffffffffffffffffffffffffff16815250505050505050508080610d42906172b8565b915050610742565b508092505050919050565b610d5d614cc8565b6000829050610d6a614cc8565b81816000019073ffffffffffffffffffffffffffffffffffffffff16908173ffffffffffffffffffffffffffffffffffffffff16815250508173ffffffffffffffffffffffffffffffffffffffff1663031bee006040518163ffffffff1660e01b815260040160606040518083038186803b158015610de857600080fd5b505afa158015610dfc573d6000803e3d6000fd5b505050506040513d601f19601f82011682018060405250810190610e209190615a68565b836040018460600185608001836fffffffffffffffffffffffffffffffff166fffffffffffffffffffffffffffffffff168152508367ffffffffffffffff1667ffffffffffffffff168152508367ffffffffffffffff1667ffffffffffffffff168152505050508173ffffffffffffffffffffffffffffffffffffffff166345a153886040518163ffffffff1660e01b8152600401604080518083038186803b158015610ecc57600080fd5b505afa158015610ee0573d6000803e3d6000fd5b505050506040513d601f19601f82011682018060405250810190610f0491906158b0565b8260a0018360c001826fffffffffffffffffffffffffffffffff166fffffffffffffffffffffffffffffffff16815250826fffffffffffffffffffffffffffffffff166fffffffffffffffffffffffffffffffff1681525050508173ffffffffffffffffffffffffffffffffffffffff166336d0054b6040518163ffffffff1660e01b815260040160206040518083038186803b158015610fa457600080fd5b505afa158015610fb8573d6000803e3d6000fd5b505050506040513d601f19601f82011682018060405250810190610fdc91906157a3565b816101400190151590811515815250508173ffffffffffffffffffffffffffffffffffffffff1663e0e081d76040518163ffffffff1660e01b815260040160606040518083038186803b15801561103257600080fd5b505afa158015611046573d6000803e3d6000fd5b505050506040513d601f19601f8201168201806040525081019061106a9190615861565b8360e0018461010001856101200183151515158152508315151515815250836fffffffffffffffffffffffffffffffff166fffffffffffffffffffffffffffffffff168152505050506111398273ffffffffffffffffffffffffffffffffffffffff166399fdb3206040518163ffffffff1660e01b815260040160206040518083038186803b1580156110fc57600080fd5b505afa158015611110573d6000803e3d6000fd5b505050506040513d601f19601f82011682018060405250810190611134919061551b565b61168c565b81610160018190525060008273ffffffffffffffffffffffffffffffffffffffff16633d15cc6d6040518163ffffffff1660e01b815260040160206040518083038186803b15801561118a57600080fd5b505afa15801561119e573d6000803e3d6000fd5b505050506040513d601f19601f820116820180604052508101906111c2919061551b565b90506111cc614dd1565b73eeeeeeeeeeeeeeeeeeeeeeeeeeeeeeeeeeeeeeee73ffffffffffffffffffffffffffffffffffffffff168273ffffffffffffffffffffffffffffffffffffffff1614156112235761121c6146ed565b905061122f565b61122c8261168c565b90505b8083610180018190525061124286611b3e565b836101a0018190525082945050505050919050565b600360009054906101000a900473ffffffffffffffffffffffffffffffffffffffff1681565b611285614e0f565b6000829050611292614e0f565b81816000019073ffffffffffffffffffffffffffffffffffffffff16908173ffffffffffffffffffffffffffffffffffffffff16815250508173ffffffffffffffffffffffffffffffffffffffff1663031bee006040518163ffffffff1660e01b815260040160606040518083038186803b15801561131057600080fd5b505afa158015611324573d6000803e3d6000fd5b505050506040513d601f19601f820116820180604052508101906113489190615a68565b836040018460600185608001836fffffffffffffffffffffffffffffffff166fffffffffffffffffffffffffffffffff168152508367ffffffffffffffff1667ffffffffffffffff168152508367ffffffffffffffff1667ffffffffffffffff168152505050508173ffffffffffffffffffffffffffffffffffffffff166336d0054b6040518163ffffffff1660e01b815260040160206040518083038186803b1580156113f557600080fd5b505afa158015611409573d6000803e3d6000fd5b505050506040513d601f19601f8201168201806040525081019061142d91906157a3565b816101200190151590811515815250508173ffffffffffffffffffffffffffffffffffffffff1663e0e081d76040518163ffffffff1660e01b815260040160806040518083038186803b15801561148357600080fd5b505afa158015611497573d6000803e3d6000fd5b505050506040513d601f19601f820116820180604052508101906114bb919061598d565b8460a0018560c0018660e00187610100018415151515815250841515151581525084815250848152505050505061156e8273ffffffffffffffffffffffffffffffffffffffff166399fdb3206040518163ffffffff1660e01b815260040160206040518083038186803b15801561153157600080fd5b505afa158015611545573d6000803e3d6000fd5b505050506040513d601f19601f82011682018060405250810190611569919061551b565b61168c565b81610140018190525060008273ffffffffffffffffffffffffffffffffffffffff16633d15cc6d6040518163ffffffff1660e01b815260040160206040518083038186803b1580156115bf57600080fd5b505afa1580156115d3573d6000803e3d6000fd5b505050506040513d601f19601f820116820180604052508101906115f7919061551b565b9050611601614dd1565b73eeeeeeeeeeeeeeeeeeeeeeeeeeeeeeeeeeeeeeee73ffffffffffffffffffffffffffffffffffffffff168273ffffffffffffffffffffffffffffffffffffffff161415611658576116516146ed565b9050611664565b6116618261168c565b90505b8083610160018190525061167786611b3e565b83610180018190525082945050505050919050565b611694614dd1565b61169c614dd1565b600083905083826000019073ffffffffffffffffffffffffffffffffffffffff16908173ffffffffffffffffffffffffffffffffffffffff16815250508073ffffffffffffffffffffffffffffffffffffffff166306fdde036040518163ffffffff1660e01b815260040160006040518083038186803b15801561171f57600080fd5b505afa158015611733573d6000803e3d6000fd5b505050506040513d6000823e3d601f19601f8201168201806040525081019061175c91906157cc565b82604001819052508073ffffffffffffffffffffffffffffffffffffffff166395d89b416040518163ffffffff1660e01b815260040160006040518083038186803b1580156117aa57600080fd5b505afa1580156117be573d6000803e3d6000fd5b505050506040513d6000823e3d601f19601f820116820180604052508101906117e791906157cc565b82606001819052508073ffffffffffffffffffffffffffffffffffffffff1663313ce5676040518163ffffffff1660e01b815260040160206040518083038186803b15801561183557600080fd5b505afa158015611849573d6000803e3d6000fd5b505050506040513d601f19601f8201168201806040525081019061186d9190615ab7565b60ff168260200181815250508192505050919050565b60606000600260009054906101000a900473ffffffffffffffffffffffffffffffffffffffff1673ffffffffffffffffffffffffffffffffffffffff16638f5185e86040518163ffffffff1660e01b815260040160206040518083038186803b1580156118ef57600080fd5b505afa158015611903573d6000803e3d6000fd5b505050506040513d601f19601f8201168201806040525081019061192791906158ec565b90506000838686611938919061709f565b6119429190617049565b9050600086826119529190617049565b9050606083821115611962578391505b828210156119765780945050505050611b37565b828261198291906170f9565b67ffffffffffffffff8111156119c1577f4e487b7100000000000000000000000000000000000000000000000000000000600052604160045260246000fd5b6040519080825280602002602001820160405280156119fa57816020015b6119e7614edb565b8152602001906001900390816119df5790505b50905060005b828482611a0d9190617049565b1015611b2e576000600260009054906101000a900473ffffffffffffffffffffffffffffffffffffffff1673ffffffffffffffffffffffffffffffffffffffff16637da470ea8684611a5f9190617049565b6040518263ffffffff1660e01b8152600401611a7b9190616d6c565b60206040518083038186803b158015611a9357600080fd5b505afa158015611aa7573d6000803e3d6000fd5b505050506040513d601f19601f82011682018060405250810190611acb919061551b565b9050611ad6816147cb565b838381518110611b0f577f4e487b7100000000000000000000000000000000000000000000000000000000600052603260045260246000fd5b6020026020010181905250508080611b26906172b8565b915050611a00565b50809450505050505b9392505050565b6060600082905060008173ffffffffffffffffffffffffffffffffffffffff16633d1c22736040518163ffffffff1660e01b815260040160206040518083038186803b158015611b8d57600080fd5b505afa158015611ba1573d6000803e3d6000fd5b505050506040513d601f19601f82011682018060405250810190611bc591906158ec565b905060008167ffffffffffffffff811115611c09577f4e487b7100000000000000000000000000000000000000000000000000000000600052604160045260246000fd5b604051908082528060200260200182016040528015611c4257816020015b611c2f614f2d565b815260200190600190039081611c275790505b50905060005b82811015611e5e5760008473ffffffffffffffffffffffffffffffffffffffff1663c6b547e6836040518263ffffffff1660e01b8152600401611c8b9190616d6c565b60006040518083038186803b158015611ca357600080fd5b505afa158015611cb7573d6000803e3d6000fd5b505050506040513d6000823e3d601f19601f82011682018060405250810190611ce091906157cc565b90508473ffffffffffffffffffffffffffffffffffffffff16637ccb6a64826040518263ffffffff1660e01b8152600401611d1b9190616c2e565b60006040518083038186803b158015611d3357600080fd5b505afa158015611d47573d6000803e3d6000fd5b505050506040513d6000823e3d601f19601f82011682018060405250810190611d70919061580d565b848481518110611da9577f4e487b7100000000000000000000000000000000000000000000000000000000600052603260045260246000fd5b6020026020010151602001858581518110611ded577f4e487b7100000000000000000000000000000000000000000000000000000000600052603260045260246000fd5b602002602001015160400182815250829052505080838381518110611e3b577f4e487b7100000000000000000000000000000000000000000000000000000000600052603260045260246000fd5b602002602001015160000181905250508080611e56906172b8565b915050611c48565b50809350505050919050565b611e72614f4e565b60008390508073ffffffffffffffffffffffffffffffffffffffff1663e8fcf723846040518263ffffffff1660e01b8152600401611eb09190616ab2565b60206040518083038186803b158015611ec857600080fd5b505afa158015611edc573d6000803e3d6000fd5b505050506040513d601f19601f82011682018060405250810190611f0091906158ec565b8260000181815250508073ffffffffffffffffffffffffffffffffffffffff16634dc80e15846040518263ffffffff1660e01b8152600401611f429190616ab2565b60206040518083038186803b158015611f5a57600080fd5b505afa158015611f6e573d6000803e3d6000fd5b505050506040513d601f19601f82011682018060405250810190611f9291906158ec565b8260200181815250508073ffffffffffffffffffffffffffffffffffffffff1663c884ef83846040518263ffffffff1660e01b8152600401611fd49190616ab2565b60206040518083038186803b158015611fec57600080fd5b505afa158015612000573d6000803e3d6000fd5b505050506040513d601f19601f8201168201806040525081019061202491906158ec565b8260400181815250508073ffffffffffffffffffffffffffffffffffffffff1663c395fcb3846040518263ffffffff1660e01b81526004016120669190616ab2565b60206040518083038186803b15801561207e57600080fd5b505afa158015612092573d6000803e3d6000fd5b505050506040513d601f19601f820116820180604052508101906120b691906157a3565b8260600190151590811515815250505092915050565b606060008060009054906101000a900473ffffffffffffffffffffffffffffffffffffffff1673ffffffffffffffffffffffffffffffffffffffff166350d9d4726040518163ffffffff1660e01b815260040160206040518083038186803b15801561213757600080fd5b505afa15801561214b573d6000803e3d6000fd5b505050506040513d601f19601f8201168201806040525081019061216f91906158ec565b90506000838686612180919061709f565b61218a9190617049565b90506000868261219a9190617049565b90506060838211156121aa578391505b828210156121be578094505050505061237e565b82826121ca91906170f9565b67ffffffffffffffff811115612209577f4e487b7100000000000000000000000000000000000000000000000000000000600052604160045260246000fd5b60405190808252806020026020018201604052801561224257816020015b61222f614f78565b8152602001906001900390816122275790505b50905060005b8284826122559190617049565b10156123755760008060009054906101000a900473ffffffffffffffffffffffffffffffffffffffff1673ffffffffffffffffffffffffffffffffffffffff1663571a26a086846122a69190617049565b6040518263ffffffff1660e01b81526004016122c29190616d6c565b60206040518083038186803b1580156122da57600080fd5b505afa1580156122ee573d6000803e3d6000fd5b505050506040513d601f19601f82011682018060405250810190612312919061551b565b905061231d81614a77565b838381518110612356577f4e487b7100000000000000000000000000000000000000000000000000000000600052603260045260246000fd5b602002602001018190525050808061236d906172b8565b915050612248565b50809450505050505b9392505050565b61238d614fea565b600082905061239a614fea565b81816000019073ffffffffffffffffffffffffffffffffffffffff16908173ffffffffffffffffffffffffffffffffffffffff16815250508173ffffffffffffffffffffffffffffffffffffffff1663e0e081d76040518163ffffffff1660e01b815260040160606040518083038186803b15801561241857600080fd5b505afa15801561242c573d6000803e3d6000fd5b505050506040513d601f19601f820116820180604052508101906124509190615861565b836040018461010001856101200183151515158152508315151515815250836fffffffffffffffffffffffffffffffff166fffffffffffffffffffffffffffffffff168152505050508173ffffffffffffffffffffffffffffffffffffffff1663031bee006040518163ffffffff1660e01b815260040160606040518083038186803b1580156124df57600080fd5b505afa1580156124f3573d6000803e3d6000fd5b505050506040513d601f19601f820116820180604052508101906125179190615a68565b8360c0018460e00185606001836fffffffffffffffffffffffffffffffff166fffffffffffffffffffffffffffffffff168152508367ffffffffffffffff1667ffffffffffffffff168152508367ffffffffffffffff1667ffffffffffffffff168152505050508173ffffffffffffffffffffffffffffffffffffffff166345a153886040518163ffffffff1660e01b8152600401604080518083038186803b1580156125c357600080fd5b505afa1580156125d7573d6000803e3d6000fd5b505050506040513d601f19601f820116820180604052508101906125fb91906158b0565b826080018360a001826fffffffffffffffffffffffffffffffff166fffffffffffffffffffffffffffffffff16815250826fffffffffffffffffffffffffffffffff166fffffffffffffffffffffffffffffffff1681525050508173ffffffffffffffffffffffffffffffffffffffff166336d0054b6040518163ffffffff1660e01b815260040160206040518083038186803b15801561269b57600080fd5b505afa1580156126af573d6000803e3d6000fd5b505050506040513d601f19601f820116820180604052508101906126d391906157a3565b816101400190151590811515815250506127698273ffffffffffffffffffffffffffffffffffffffff166399fdb3206040518163ffffffff1660e01b815260040160206040518083038186803b15801561272c57600080fd5b505afa158015612740573d6000803e3d6000fd5b505050506040513d601f19601f82011682018060405250810190612764919061551b565b61168c565b81610160018190525060008273ffffffffffffffffffffffffffffffffffffffff16633d15cc6d6040518163ffffffff1660e01b815260040160206040518083038186803b1580156127ba57600080fd5b505afa1580156127ce573d6000803e3d6000fd5b505050506040513d601f19601f820116820180604052508101906127f2919061551b565b90506127fc614dd1565b73eeeeeeeeeeeeeeeeeeeeeeeeeeeeeeeeeeeeeeee73ffffffffffffffffffffffffffffffffffffffff168273ffffffffffffffffffffffffffffffffffffffff1614156128535761284c6146ed565b905061285f565b61285c8261168c565b90505b8083610180018190525061287286611b3e565b836101a0018190525082945050505050919050565b60606000825167ffffffffffffffff8111156128cc577f4e487b7100000000000000000000000000000000000000000000000000000000600052604160045260246000fd5b60405190808252806020026020018201604052801561290557816020015b6128f2614dd1565b8152602001906001900390816128ea5790505b50905060005b83518110156129b45761295d848281518110612950577f4e487b7100000000000000000000000000000000000000000000000000000000600052603260045260246000fd5b602002602001015161168c565b828281518110612996577f4e487b7100000000000000000000000000000000000000000000000000000000600052603260045260246000fd5b602002602001018190525080806129ac906172b8565b91505061290b565b5080915050919050565b60606129cc83836000613b1c565b905092915050565b6129dc614edb565b6060600084905084836000019073ffffffffffffffffffffffffffffffffffffffff16908173ffffffffffffffffffffffffffffffffffffffff1681525050600260009054906101000a900473ffffffffffffffffffffffffffffffffffffffff1673ffffffffffffffffffffffffffffffffffffffff1663d335ebda866040518263ffffffff1660e01b8152600401612a769190616ab2565b60206040518083038186803b158015612a8e57600080fd5b505afa158015612aa2573d6000803e3d6000fd5b505050506040513d601f19601f82011682018060405250810190612ac691906158ec565b8360200181815250508073ffffffffffffffffffffffffffffffffffffffff16635eeb67106040518163ffffffff1660e01b815260040160206040518083038186803b158015612b1557600080fd5b505afa158015612b29573d6000803e3d6000fd5b505050506040513d601f19601f82011682018060405250810190612b4d91906158ec565b8360400181815250508073ffffffffffffffffffffffffffffffffffffffff1663a8b973a16040518163ffffffff1660e01b815260040160206040518083038186803b158015612b9c57600080fd5b505afa158015612bb0573d6000803e3d6000fd5b505050506040513d601f19601f82011682018060405250810190612bd491906158ec565b836060018181525050612c638173ffffffffffffffffffffffffffffffffffffffff16639ec5a8946040518163ffffffff1660e01b815260040160206040518083038186803b158015612c2657600080fd5b505afa158015612c3a573d6000803e3d6000fd5b505050506040513d601f19601f82011682018060405250810190612c5e919061551b565b61168c565b8360800181905250612c7485613165565b8360a00181905250600073ffffffffffffffffffffffffffffffffffffffff168473ffffffffffffffffffffffffffffffffffffffff161461315d5760008360a001519050805167ffffffffffffffff811115612cfa577f4e487b7100000000000000000000000000000000000000000000000000000000600052604160045260246000fd5b604051908082528060200260200182016040528015612d3357816020015b612d206150f3565b815260200190600190039081612d185790505b50925060005b815181101561315a576000848281518110612d7d577f4e487b7100000000000000000000000000000000000000000000000000000000600052603260045260246000fd5b602002602001015190506000838381518110612dc2577f4e487b7100000000000000000000000000000000000000000000000000000000600052603260045260246000fd5b602002602001015160a001516000015190508473ffffffffffffffffffffffffffffffffffffffff166393f1a40b848a6040518363ffffffff1660e01b8152600401612e0f929190616d87565b604080518083038186803b158015612e2657600080fd5b505afa158015612e3a573d6000803e3d6000fd5b505050506040513d601f19601f82011682018060405250810190612e5e9190615951565b836040018460a001828152508281525050508073ffffffffffffffffffffffffffffffffffffffff166370a08231896040518263ffffffff1660e01b8152600401612ea99190616ab2565b60206040518083038186803b158015612ec157600080fd5b505afa158015612ed5573d6000803e3d6000fd5b505050506040513d601f19601f82011682018060405250810190612ef991906158ec565b8260600181815250508073ffffffffffffffffffffffffffffffffffffffff1663dd62ed3e898b6040518363ffffffff1660e01b8152600401612f3d929190616acd565b60206040518083038186803b158015612f5557600080fd5b505afa158015612f69573d6000803e3d6000fd5b505050506040513d601f19601f82011682018060405250810190612f8d91906158ec565b8260800181815250508473ffffffffffffffffffffffffffffffffffffffff1663d18df53c848a6040518363ffffffff1660e01b8152600401612fd1929190616d87565b60206040518083038186803b158015612fe957600080fd5b505afa158015612ffd573d6000803e3d6000fd5b505050506040513d601f19601f8201168201806040525081019061302191906158ec565b8260c00181815250508473ffffffffffffffffffffffffffffffffffffffff166393f1a40b848a6040518363ffffffff1660e01b8152600401613065929190616d87565b604080518083038186803b15801561307c57600080fd5b505afa158015613090573d6000803e3d6000fd5b505050506040513d601f19601f820116820180604052508101906130b49190615951565b5082604001818152505088826000019073ffffffffffffffffffffffffffffffffffffffff16908173ffffffffffffffffffffffffffffffffffffffff1681525050828260200181815250508186848151811061313a577f4e487b7100000000000000000000000000000000000000000000000000000000600052603260045260246000fd5b602002602001018190525050508080613152906172b8565b915050612d39565b50505b509250929050565b6060600082905060008173ffffffffffffffffffffffffffffffffffffffff1663081e3eda6040518163ffffffff1660e01b815260040160206040518083038186803b1580156131b457600080fd5b505afa1580156131c8573d6000803e3d6000fd5b505050506040513d601f19601f820116820180604052508101906131ec91906158ec565b905060008167ffffffffffffffff811115613230577f4e487b7100000000000000000000000000000000000000000000000000000000600052604160045260246000fd5b60405190808252806020026020018201604052801561326957816020015b613256615146565b81526020019060019003908161324e5790505b50905060005b8281101561360e578373ffffffffffffffffffffffffffffffffffffffff16631526fe27826040518263ffffffff1660e01b81526004016132b09190616d6c565b60806040518083038186803b1580156132c857600080fd5b505afa1580156132dc573d6000803e3d6000fd5b505050506040513d601f19601f82011682018060405250810190613300919061565b565b858581518110613339577f4e487b7100000000000000000000000000000000000000000000000000000000600052603260045260246000fd5b602002602001015160000186868151811061337d577f4e487b7100000000000000000000000000000000000000000000000000000000600052603260045260246000fd5b60200260200101516020018787815181106133c1577f4e487b7100000000000000000000000000000000000000000000000000000000600052603260045260246000fd5b6020026020010151604001888881518110613405577f4e487b7100000000000000000000000000000000000000000000000000000000600052603260045260246000fd5b60200260200101516060018481525084815250848152508473ffffffffffffffffffffffffffffffffffffffff1673ffffffffffffffffffffffffffffffffffffffff1681525050505050818181518110613489577f4e487b7100000000000000000000000000000000000000000000000000000000600052603260045260246000fd5b60200260200101516000015173ffffffffffffffffffffffffffffffffffffffff166370a08231876040518263ffffffff1660e01b81526004016134cd9190616ab2565b60206040518083038186803b1580156134e557600080fd5b505afa1580156134f9573d6000803e3d6000fd5b505050506040513d601f19601f8201168201806040525081019061351d91906158ec565b828281518110613556577f4e487b7100000000000000000000000000000000000000000000000000000000600052603260045260246000fd5b602002602001015160800181815250506135b38282815181106135a2577f4e487b7100000000000000000000000000000000000000000000000000000000600052603260045260246000fd5b60200260200101516000015161168c565b8282815181106135ec577f4e487b7100000000000000000000000000000000000000000000000000000000600052603260045260246000fd5b602002602001015160a001819052508080613606906172b8565b91505061326f565b50809350505050919050565b613622615198565b600082905061362f615198565b81816000019073ffffffffffffffffffffffffffffffffffffffff16908173ffffffffffffffffffffffffffffffffffffffff16815250508173ffffffffffffffffffffffffffffffffffffffff1663031bee006040518163ffffffff1660e01b815260040160606040518083038186803b1580156136ad57600080fd5b505afa1580156136c1573d6000803e3d6000fd5b505050506040513d601f19601f820116820180604052508101906136e59190615a68565b836040018460600185608001836fffffffffffffffffffffffffffffffff166fffffffffffffffffffffffffffffffff168152508367ffffffffffffffff1667ffffffffffffffff168152508367ffffffffffffffff1667ffffffffffffffff168152505050508173ffffffffffffffffffffffffffffffffffffffff166345a153886040518163ffffffff1660e01b8152600401604080518083038186803b15801561379157600080fd5b505afa1580156137a5573d6000803e3d6000fd5b505050506040513d601f19601f820116820180604052508101906137c991906158b0565b8260a0018360c001826fffffffffffffffffffffffffffffffff166fffffffffffffffffffffffffffffffff16815250826fffffffffffffffffffffffffffffffff166fffffffffffffffffffffffffffffffff1681525050508173ffffffffffffffffffffffffffffffffffffffff166336d0054b6040518163ffffffff1660e01b815260040160206040518083038186803b15801561386957600080fd5b505afa15801561387d573d6000803e3d6000fd5b505050506040513d601f19601f820116820180604052508101906138a191906157a3565b816101400190151590811515815250508173ffffffffffffffffffffffffffffffffffffffff1663e0e081d76040518163ffffffff1660e01b815260040160606040518083038186803b1580156138f757600080fd5b505afa15801561390b573d6000803e3d6000fd5b505050506040513d601f19601f8201168201806040525081019061392f9190615861565b8360e0018461010001856101200183151515158152508315151515815250836fffffffffffffffffffffffffffffffff166fffffffffffffffffffffffffffffffff168152505050506139fe8273ffffffffffffffffffffffffffffffffffffffff166399fdb3206040518163ffffffff1660e01b815260040160206040518083038186803b1580156139c157600080fd5b505afa1580156139d5573d6000803e3d6000fd5b505050506040513d601f19601f820116820180604052508101906139f9919061551b565b61168c565b81610160018190525060008273ffffffffffffffffffffffffffffffffffffffff16633d15cc6d6040518163ffffffff1660e01b815260040160206040518083038186803b158015613a4f57600080fd5b505afa158015613a63573d6000803e3d6000fd5b505050506040513d601f19601f82011682018060405250810190613a87919061551b565b9050613a91614dd1565b73eeeeeeeeeeeeeeeeeeeeeeeeeeeeeeeeeeeeeeee73ffffffffffffffffffffffffffffffffffffffff168273ffffffffffffffffffffffffffffffffffffffff161415613ae857613ae16146ed565b9050613af4565b613af18261168c565b90505b80836101800181905250613b0786611b3e565b836101a0018190525082945050505050919050565b60606000600160009054906101000a900473ffffffffffffffffffffffffffffffffffffffff1673ffffffffffffffffffffffffffffffffffffffff1663f9f16ef26040518163ffffffff1660e01b815260040160206040518083038186803b158015613b8857600080fd5b505afa158015613b9c573d6000803e3d6000fd5b505050506040513d601f19601f82011682018060405250810190613bc091906158ec565b90506000838686613bd1919061709f565b613bdb9190617049565b905060008682613beb9190617049565b9050606083821115613bfb578391505b82821015613c0f5780945050505050613dd0565b8282613c1b91906170f9565b67ffffffffffffffff811115613c5a577f4e487b7100000000000000000000000000000000000000000000000000000000600052604160045260246000fd5b604051908082528060200260200182016040528015613c9357816020015b613c80614dd1565b815260200190600190039081613c785790505b50905060005b828482613ca69190617049565b1015613dc7576000600160009054906101000a900473ffffffffffffffffffffffffffffffffffffffff1673ffffffffffffffffffffffffffffffffffffffff16634f64b2be8684613cf89190617049565b6040518263ffffffff1660e01b8152600401613d149190616d6c565b60206040518083038186803b158015613d2c57600080fd5b505afa158015613d40573d6000803e3d6000fd5b505050506040513d601f19601f82011682018060405250810190613d64919061551b565b9050613d6f8161168c565b838381518110613da8577f4e487b7100000000000000000000000000000000000000000000000000000000600052603260045260246000fd5b6020026020010181905250508080613dbf906172b8565b915050613c99565b50809450505050505b9392505050565b600260009054906101000a900473ffffffffffffffffffffffffffffffffffffffff1681565b600460009054906101000a900473ffffffffffffffffffffffffffffffffffffffff1681565b6060613e31838360006120cc565b905092915050565b60008054906101000a900473ffffffffffffffffffffffffffffffffffffffff1681565b60008373ffffffffffffffffffffffffffffffffffffffff1663dd62ed3e84846040518363ffffffff1660e01b8152600401613e9a929190616acd565b60206040518083038186803b158015613eb257600080fd5b505afa158015613ec6573d6000803e3d6000fd5b505050506040513d601f19601f82011682018060405250810190613eea91906158ec565b90509392505050565b60606000600260009054906101000a900473ffffffffffffffffffffffffffffffffffffffff1673ffffffffffffffffffffffffffffffffffffffff16638f5185e86040518163ffffffff1660e01b815260040160206040518083038186803b158015613f5f57600080fd5b505afa158015613f73573d6000803e3d6000fd5b505050506040513d601f19601f82011682018060405250810190613f9791906158ec565b905060008167ffffffffffffffff811115613fdb577f4e487b7100000000000000000000000000000000000000000000000000000000600052604160045260246000fd5b60405190808252806020026020018201604052801561401457816020015b614001614edb565b815260200190600190039081613ff95790505b50905060005b82811015614132576000600260009054906101000a900473ffffffffffffffffffffffffffffffffffffffff1673ffffffffffffffffffffffffffffffffffffffff16637da470ea836040518263ffffffff1660e01b815260040161407f9190616d6c565b60206040518083038186803b15801561409757600080fd5b505afa1580156140ab573d6000803e3d6000fd5b505050506040513d601f19601f820116820180604052508101906140cf919061551b565b90506140da816147cb565b838381518110614113577f4e487b7100000000000000000000000000000000000000000000000000000000600052603260045260246000fd5b602002602001018190525050808061412a906172b8565b91505061401a565b50809250505090565b60606000600160009054906101000a900473ffffffffffffffffffffffffffffffffffffffff1673ffffffffffffffffffffffffffffffffffffffff1663aa6ca8086040518163ffffffff1660e01b815260040160006040518083038186803b1580156141a757600080fd5b505afa1580156141bb573d6000803e3d6000fd5b505050506040513d6000823e3d601f19601f820116820180604052508101906141e49190615762565b905060006141f182612887565b90506141fc82612887565b9050809250505090565b606061421483836000611883565b905092915050565b600460009054906101000a900473ffffffffffffffffffffffffffffffffffffffff1673ffffffffffffffffffffffffffffffffffffffff1663c395fcb3336040518263ffffffff1660e01b81526004016142779190616ab2565b60206040518083038186803b15801561428f57600080fd5b505afa1580156142a3573d6000803e3d6000fd5b505050506040513d601f19601f820116820180604052508101906142c791906157a3565b614306576040517f08c379a00000000000000000000000000000000000000000000000000000000081526004016142fd90616c50565b60405180910390fd5b600073ffffffffffffffffffffffffffffffffffffffff168373ffffffffffffffffffffffffffffffffffffffff161461437b57826000806101000a81548173ffffffffffffffffffffffffffffffffffffffff021916908373ffffffffffffffffffffffffffffffffffffffff1602179055505b600073ffffffffffffffffffffffffffffffffffffffff168473ffffffffffffffffffffffffffffffffffffffff16146143f15783600160006101000a81548173ffffffffffffffffffffffffffffffffffffffff021916908373ffffffffffffffffffffffffffffffffffffffff1602179055505b600073ffffffffffffffffffffffffffffffffffffffff168273ffffffffffffffffffffffffffffffffffffffff16146144675781600360006101000a81548173ffffffffffffffffffffffffffffffffffffffff021916908373ffffffffffffffffffffffffffffffffffffffff1602179055505b600073ffffffffffffffffffffffffffffffffffffffff168173ffffffffffffffffffffffffffffffffffffffff16146144dd5780600260006101000a81548173ffffffffffffffffffffffffffffffffffffffff021916908373ffffffffffffffffffffffffffffffffffffffff1602179055505b50505050565b600160009054906101000a900473ffffffffffffffffffffffffffffffffffffffff1681565b606060008060009054906101000a900473ffffffffffffffffffffffffffffffffffffffff1673ffffffffffffffffffffffffffffffffffffffff1663ec2c90166040518163ffffffff1660e01b815260040160006040518083038186803b15801561457457600080fd5b505afa158015614588573d6000803e3d6000fd5b505050506040513d6000823e3d601f19601f820116820180604052508101906145b19190615762565b90506000815167ffffffffffffffff8111156145f6577f4e487b7100000000000000000000000000000000000000000000000000000000600052604160045260246000fd5b60405190808252806020026020018201604052801561462f57816020015b61461c614f78565b8152602001906001900390816146145790505b50905060005b82518110156146e457600061468984838151811061467c577f4e487b7100000000000000000000000000000000000000000000000000000000600052603260045260246000fd5b6020026020010151614a77565b9050808383815181106146c5577f4e487b7100000000000000000000000000000000000000000000000000000000600052603260045260246000fd5b60200260200101819052505080806146dc906172b8565b915050614635565b50809250505090565b6146f5614dd1565b73eeeeeeeeeeeeeeeeeeeeeeeeeeeeeeeeeeeeeeee816000019073ffffffffffffffffffffffffffffffffffffffff16908173ffffffffffffffffffffffffffffffffffffffff16815250506040518060400160405280600881526020017f455448455245554d00000000000000000000000000000000000000000000000081525081604001819052506040518060400160405280600381526020017f45544800000000000000000000000000000000000000000000000000000000008152508160600181905250601281602001818152505090565b6147d3614edb565b600082905082826000019073ffffffffffffffffffffffffffffffffffffffff16908173ffffffffffffffffffffffffffffffffffffffff1681525050600260009054906101000a900473ffffffffffffffffffffffffffffffffffffffff1673ffffffffffffffffffffffffffffffffffffffff1663d335ebda846040518263ffffffff1660e01b815260040161486b9190616ab2565b60206040518083038186803b15801561488357600080fd5b505afa158015614897573d6000803e3d6000fd5b505050506040513d601f19601f820116820180604052508101906148bb91906158ec565b8260200181815250508073ffffffffffffffffffffffffffffffffffffffff16635eeb67106040518163ffffffff1660e01b815260040160206040518083038186803b15801561490a57600080fd5b505afa15801561491e573d6000803e3d6000fd5b505050506040513d601f19601f8201168201806040525081019061494291906158ec565b8260400181815250508073ffffffffffffffffffffffffffffffffffffffff1663a8b973a16040518163ffffffff1660e01b815260040160206040518083038186803b15801561499157600080fd5b505afa1580156149a5573d6000803e3d6000fd5b505050506040513d601f19601f820116820180604052508101906149c991906158ec565b826060018181525050614a588173ffffffffffffffffffffffffffffffffffffffff16639ec5a8946040518163ffffffff1660e01b815260040160206040518083038186803b158015614a1b57600080fd5b505afa158015614a2f573d6000803e3d6000fd5b505050506040513d601f19601f82011682018060405250810190614a53919061551b565b61168c565b8260800181905250614a6983613165565b8260a0018190525050919050565b614a7f614f78565b60008060009054906101000a900473ffffffffffffffffffffffffffffffffffffffff1673ffffffffffffffffffffffffffffffffffffffff1663b0343493846040518263ffffffff1660e01b8152600401614adb9190616ab2565b60206040518083038186803b158015614af357600080fd5b505afa158015614b07573d6000803e3d6000fd5b505050506040513d601f19601f82011682018060405250810190614b2b9190615a3f565b90506000806000808673ffffffffffffffffffffffffffffffffffffffff1663314148e26040518163ffffffff1660e01b815260040160806040518083038186803b158015614b7957600080fd5b505afa158015614b8d573d6000803e3d6000fd5b505050506040513d601f19601f82011682018060405250810190614bb191906156be565b809450819550829650839750505050506000614bcc8561168c565b905087876000019073ffffffffffffffffffffffffffffffffffffffff16908173ffffffffffffffffffffffffffffffffffffffff168152505085876020019067ffffffffffffffff16908167ffffffffffffffff168152505083876040019067ffffffffffffffff16908167ffffffffffffffff168152505082876060019067ffffffffffffffff16908167ffffffffffffffff168152505081876080019015159081151581525050808760a00181905250505050505050919050565b6040518060800160405280600073ffffffffffffffffffffffffffffffffffffffff1681526020016060815260200160608152602001606081525090565b604051806101c00160405280600073ffffffffffffffffffffffffffffffffffffffff168152602001600073ffffffffffffffffffffffffffffffffffffffff168152602001600067ffffffffffffffff168152602001600067ffffffffffffffff16815260200160006fffffffffffffffffffffffffffffffff16815260200160006fffffffffffffffffffffffffffffffff16815260200160006fffffffffffffffffffffffffffffffff16815260200160006fffffffffffffffffffffffffffffffff168152602001600015158152602001600015158152602001600015158152602001614db7614dd1565b8152602001614dc4614dd1565b8152602001606081525090565b6040518060800160405280600073ffffffffffffffffffffffffffffffffffffffff1681526020016000815260200160608152602001606081525090565b604051806101a00160405280600073ffffffffffffffffffffffffffffffffffffffff168152602001600073ffffffffffffffffffffffffffffffffffffffff168152602001600067ffffffffffffffff168152602001600067ffffffffffffffff16815260200160006fffffffffffffffffffffffffffffffff1681526020016000815260200160008152602001600015158152602001600015158152602001600015158152602001614ec1614dd1565b8152602001614ece614dd1565b8152602001606081525090565b6040518060c00160405280600073ffffffffffffffffffffffffffffffffffffffff168152602001600081526020016000815260200160008152602001614f20614dd1565b8152602001606081525090565b60405180606001604052806060815260200160608152602001600081525090565b60405180608001604052806000815260200160008152602001600081526020016000151581525090565b6040518060c00160405280600073ffffffffffffffffffffffffffffffffffffffff168152602001600067ffffffffffffffff168152602001600067ffffffffffffffff168152602001600067ffffffffffffffff168152602001600015158152602001614fe4614dd1565b81525090565b604051806101c00160405280600073ffffffffffffffffffffffffffffffffffffffff168152602001600073ffffffffffffffffffffffffffffffffffffffff16815260200160006fffffffffffffffffffffffffffffffff16815260200160006fffffffffffffffffffffffffffffffff16815260200160006fffffffffffffffffffffffffffffffff16815260200160006fffffffffffffffffffffffffffffffff168152602001600067ffffffffffffffff168152602001600067ffffffffffffffff1681526020016000151581526020016000151581526020016000151581526020016150d9614dd1565b81526020016150e6614dd1565b8152602001606081525090565b6040518060e00160405280600073ffffffffffffffffffffffffffffffffffffffff1681526020016000815260200160008152602001600081526020016000815260200160008152602001600081525090565b6040518060c00160405280600073ffffffffffffffffffffffffffffffffffffffff16815260200160008152602001600081526020016000815260200160008152602001615192614dd1565b81525090565b604051806101c00160405280600073ffffffffffffffffffffffffffffffffffffffff168152602001600073ffffffffffffffffffffffffffffffffffffffff168152602001600067ffffffffffffffff168152602001600067ffffffffffffffff16815260200160006fffffffffffffffffffffffffffffffff16815260200160006fffffffffffffffffffffffffffffffff16815260200160006fffffffffffffffffffffffffffffffff16815260200160006fffffffffffffffffffffffffffffffff168152602001600015158152602001600015158152602001600015158152602001615287614dd1565b8152602001615294614dd1565b8152602001606081525090565b60006152b46152af84616dd5565b616db0565b905080838252602082019050828560208602820111156152d357600080fd5b60005b8581101561530357816152e988826153b7565b8452602084019350602083019250506001810190506152d6565b5050509392505050565b600061532061531b84616dd5565b616db0565b9050808382526020820190508285602086028201111561533f57600080fd5b60005b8581101561536f578161535588826153cc565b845260208401935060208301925050600181019050615342565b5050509392505050565b600061538c61538784616e01565b616db0565b9050828152602081018484840111156153a457600080fd5b6153af848285617254565b509392505050565b6000813590506153c681617399565b92915050565b6000815190506153db81617399565b92915050565b6000813590506153f0816173b0565b92915050565b600082601f83011261540757600080fd5b81356154178482602086016152a1565b91505092915050565b600082601f83011261543157600080fd5b815161544184826020860161530d565b91505092915050565b600081519050615459816173c7565b92915050565b600082601f83011261547057600080fd5b8151615480848260208601615379565b91505092915050565b600081519050615498816173de565b92915050565b6000813590506154ad816173f5565b92915050565b6000815190506154c2816173f5565b92915050565b6000815190506154d78161740c565b92915050565b6000815190506154ec81617423565b92915050565b60006020828403121561550457600080fd5b6000615512848285016153b7565b91505092915050565b60006020828403121561552d57600080fd5b600061553b848285016153cc565b91505092915050565b60006020828403121561555657600080fd5b6000615564848285016153e1565b91505092915050565b6000806040838503121561558057600080fd5b600061558e858286016153b7565b925050602061559f858286016153b7565b9150509250929050565b6000806000606084860312156155be57600080fd5b60006155cc868287016153b7565b93505060206155dd868287016153b7565b92505060406155ee868287016153b7565b9150509250925092565b6000806000806080858703121561560e57600080fd5b600061561c878288016153b7565b945050602061562d878288016153b7565b935050604061563e878288016153b7565b925050606061564f878288016153b7565b91505092959194509250565b6000806000806080858703121561567157600080fd5b600061567f878288016153cc565b9450506020615690878288016154b3565b93505060406156a1878288016154b3565b92505060606156b2878288016154b3565b91505092959194509250565b600080600080608085870312156156d457600080fd5b60006156e2878288016153cc565b94505060206156f3878288016154c8565b9350506040615704878288016154c8565b92505060606157158782880161544a565b91505092959194509250565b60006020828403121561573357600080fd5b600082013567ffffffffffffffff81111561574d57600080fd5b615759848285016153f6565b91505092915050565b60006020828403121561577457600080fd5b600082015167ffffffffffffffff81111561578e57600080fd5b61579a84828501615420565b91505092915050565b6000602082840312156157b557600080fd5b60006157c38482850161544a565b91505092915050565b6000602082840312156157de57600080fd5b600082015167ffffffffffffffff8111156157f857600080fd5b6158048482850161545f565b91505092915050565b6000806040838503121561582057600080fd5b600083015167ffffffffffffffff81111561583a57600080fd5b6158468582860161545f565b9250506020615857858286016154b3565b9150509250929050565b60008060006060848603121561587657600080fd5b600061588486828701615489565b93505060206158958682870161544a565b92505060406158a68682870161544a565b9150509250925092565b600080604083850312156158c357600080fd5b60006158d185828601615489565b92505060206158e285828601615489565b9150509250929050565b6000602082840312156158fe57600080fd5b600061590c848285016154b3565b91505092915050565b6000806040838503121561592857600080fd5b60006159368582860161549e565b92505060206159478582860161549e565b9150509250929050565b6000806040838503121561596457600080fd5b6000615972858286016154b3565b9250506020615983858286016154b3565b9150509250929050565b600080600080608085870312156159a357600080fd5b60006159b1878288016154b3565b94505060206159c2878288016154b3565b93505060406159d38782880161544a565b92505060606159e48782880161544a565b91505092959194509250565b600080600060608486031215615a0557600080fd5b6000615a138682870161549e565b9350506020615a248682870161549e565b9250506040615a358682870161549e565b9150509250925092565b600060208284031215615a5157600080fd5b6000615a5f848285016154c8565b91505092915050565b600080600060608486031215615a7d57600080fd5b6000615a8b868287016154c8565b9350506020615a9c868287016154c8565b9250506040615aad86828701615489565b9150509250925092565b600060208284031215615ac957600080fd5b6000615ad7848285016154dd565b91505092915050565b6000615aec838361634d565b905092915050565b6000615b0083836164e0565b905092915050565b6000615b14838361673c565b905092915050565b6000615b2883836167c5565b905092915050565b6000615b3c838361684e565b905092915050565b6000615b508383616977565b60e08301905092915050565b6000615b688383616a05565b905092915050565b6000615b7c8383616a85565b60208301905092915050565b615b918161712d565b82525050565b615ba08161712d565b82525050565b6000615bb182616eb2565b615bbb8185616f7d565b935083602082028501615bcd85616e32565b8060005b85811015615c095784840389528151615bea8582615ae0565b9450615bf583616f15565b925060208a01995050600181019050615bd1565b50829750879550505050505092915050565b6000615c2682616eb2565b615c308185616f8e565b935083602082028501615c4285616e32565b8060005b85811015615c7e5784840389528151615c5f8582615ae0565b9450615c6a83616f15565b925060208a01995050600181019050615c46565b50829750879550505050505092915050565b6000615c9b82616ebd565b615ca58185616f9f565b935083602082028501615cb785616e42565b8060005b85811015615cf35784840389528151615cd48582615af4565b9450615cdf83616f22565b925060208a01995050600181019050615cbb565b50829750879550505050505092915050565b6000615d1082616ec8565b615d1a8185616fb0565b935083602082028501615d2c85616e52565b8060005b85811015615d685784840389528151615d498582615b08565b9450615d5483616f2f565b925060208a01995050600181019050615d30565b50829750879550505050505092915050565b6000615d8582616ed3565b615d8f8185616fc1565b935083602082028501615da185616e62565b8060005b85811015615ddd5784840389528151615dbe8582615b1c565b9450615dc983616f3c565b925060208a01995050600181019050615da5565b50829750879550505050505092915050565b6000615dfa82616ed3565b615e048185616fd2565b935083602082028501615e1685616e62565b8060005b85811015615e525784840389528151615e338582615b1c565b9450615e3e83616f3c565b925060208a01995050600181019050615e1a565b50829750879550505050505092915050565b6000615e6f82616ede565b615e798185616fe3565b935083602082028501615e8b85616e72565b8060005b85811015615ec75784840389528151615ea88582615b30565b9450615eb383616f49565b925060208a01995050600181019050615e8f565b50829750879550505050505092915050565b6000615ee482616ee9565b615eee8185616ff4565b9350615ef983616e82565b8060005b83811015615f2a578151615f118882615b44565b9750615f1c83616f56565b925050600181019050615efd565b5085935050505092915050565b6000615f4282616ef4565b615f4c8185617005565b935083602082028501615f5e85616e92565b8060005b85811015615f9a5784840389528151615f7b8582615b5c565b9450615f8683616f63565b925060208a01995050600181019050615f62565b50829750879550505050505092915050565b6000615fb782616eff565b615fc18185617016565b9350615fcc83616ea2565b8060005b83811015615ffd578151615fe48882615b70565b9750615fef83616f70565b925050600181019050615fd0565b5085935050505092915050565b61601381617151565b82525050565b616022816171c4565b82525050565b616031816171e8565b82525050565b6160408161720c565b82525050565b61604f81617230565b82525050565b600061606082616f0a565b61606a8185617027565b935061607a818560208601617254565b6160838161735f565b840191505092915050565b600061609982616f0a565b6160a38185617038565b93506160b3818560208601617254565b6160bc8161735f565b840191505092915050565b60006160d4602083617038565b91506160df82617370565b602082019050919050565b60006101a0830160008301516161036000860182615b88565b5060208301516161166020860182615b88565b5060408301516161296040860182616aa3565b50606083015161613c6060860182616aa3565b50608083015161614f6080860182616a76565b5060a083015161616260a0860182616a85565b5060c083015161617560c0860182616a85565b5060e083015161618860e086018261600a565b5061010083015161619d61010086018261600a565b506101208301516161b261012086018261600a565b506101408301518482036101408601526161cc828261684e565b9150506101608301518482036101608601526161e8828261684e565b9150506101808301518482036101808601526162048282615ba6565b9150508091505092915050565b60006101c08301600083015161622a6000860182615b88565b50602083015161623d6020860182615b88565b5060408301516162506040860182616a76565b5060608301516162636060860182616a76565b5060808301516162766080860182616a76565b5060a083015161628960a0860182616a76565b5060c083015161629c60c0860182616aa3565b5060e08301516162af60e0860182616aa3565b506101008301516162c461010086018261600a565b506101208301516162d961012086018261600a565b506101408301516162ee61014086018261600a565b50610160830151848203610160860152616308828261684e565b915050610180830151848203610180860152616324828261684e565b9150506101a08301518482036101a08601526163408282615ba6565b9150508091505092915050565b6000606083016000830151848203600086015261636a8282616055565b915050602083015184820360208601526163848282616055565b91505060408301516163996040860182616a85565b508091505092915050565b60006101c0830160008301516163bd6000860182615b88565b5060208301516163d06020860182615b88565b5060408301516163e36040860182616aa3565b5060608301516163f66060860182616aa3565b5060808301516164096080860182616a76565b5060a083015161641c60a0860182616a76565b5060c083015161642f60c0860182616a76565b5060e083015161644260e0860182616a76565b5061010083015161645761010086018261600a565b5061012083015161646c61012086018261600a565b5061014083015161648161014086018261600a565b5061016083015184820361016086015261649b828261684e565b9150506101808301518482036101808601526164b7828261684e565b9150506101a08301518482036101a08601526164d38282615ba6565b9150508091505092915050565b600060c0830160008301516164f86000860182615b88565b50602083015161650b6020860182616a85565b50604083015161651e6040860182616a85565b5060608301516165316060860182616a85565b5060808301518482036080860152616549828261684e565b91505060a083015184820360a08601526165638282615d7a565b9150508091505092915050565b600060c0830160008301516165886000860182615b88565b50602083015161659b6020860182616a85565b5060408301516165ae6040860182616a85565b5060608301516165c16060860182616a85565b50608083015184820360808601526165d9828261684e565b91505060a083015184820360a08601526165f38282615d7a565b9150508091505092915050565b60006101c0830160008301516166196000860182615b88565b50602083015161662c6020860182615b88565b50604083015161663f6040860182616aa3565b5060608301516166526060860182616aa3565b5060808301516166656080860182616a76565b5060a083015161667860a0860182616a76565b5060c083015161668b60c0860182616a76565b5060e083015161669e60e0860182616a76565b506101008301516166b361010086018261600a565b506101208301516166c861012086018261600a565b506101408301516166dd61014086018261600a565b506101608301518482036101608601526166f7828261684e565b915050610180830151848203610180860152616713828261684e565b9150506101a08301518482036101a086015261672f8282615ba6565b9150508091505092915050565b600060c0830160008301516167546000860182615b88565b5060208301516167676020860182616aa3565b50604083015161677a6040860182616aa3565b50606083015161678d6060860182616aa3565b5060808301516167a0608086018261600a565b5060a083015184820360a08601526167b8828261684e565b9150508091505092915050565b600060c0830160008301516167dd6000860182615b88565b5060208301516167f06020860182616a85565b5060408301516168036040860182616a85565b5060608301516168166060860182616a85565b5060808301516168296080860182616a85565b5060a083015184820360a0860152616841828261684e565b9150508091505092915050565b60006080830160008301516168666000860182615b88565b5060208301516168796020860182616a85565b50604083015184820360408601526168918282616055565b915050606083015184820360608601526168ab8282616055565b9150508091505092915050565b60006080830160008301516168d06000860182615b88565b5060208301516168e36020860182616a85565b50604083015184820360408601526168fb8282616055565b915050606083015184820360608601526169158282616055565b9150508091505092915050565b6080820160008201516169386000850182616a85565b50602082015161694b6020850182616a85565b50604082015161695e6040850182616a85565b506060820151616971606085018261600a565b50505050565b60e08201600082015161698d6000850182615b88565b5060208201516169a06020850182616a85565b5060408201516169b36040850182616a85565b5060608201516169c66060850182616a85565b5060808201516169d96080850182616a85565b5060a08201516169ec60a0850182616a85565b5060c08201516169ff60c0850182616a85565b50505050565b6000608083016000830151616a1d6000860182615b88565b5060208301518482036020860152616a358282615fac565b91505060408301518482036040860152616a4f8282615fac565b91505060608301518482036060860152616a698282615fac565b9150508091505092915050565b616a7f8161715d565b82525050565b616a8e81617199565b82525050565b616a9d81617199565b82525050565b616aac816171a3565b82525050565b6000602082019050616ac76000830184615b97565b92915050565b6000604082019050616ae26000830185615b97565b616aef6020830184615b97565b9392505050565b60006020820190508181036000830152616b108184615c1b565b905092915050565b60006020820190508181036000830152616b328184615c90565b905092915050565b60006020820190508181036000830152616b548184615d05565b905092915050565b60006020820190508181036000830152616b768184615def565b905092915050565b60006020820190508181036000830152616b988184615e64565b905092915050565b60006020820190508181036000830152616bba8184615f37565b905092915050565b6000602082019050616bd76000830184616019565b92915050565b6000602082019050616bf26000830184616028565b92915050565b6000602082019050616c0d6000830184616037565b92915050565b6000602082019050616c286000830184616046565b92915050565b60006020820190508181036000830152616c48818461608e565b905092915050565b60006020820190508181036000830152616c69816160c7565b9050919050565b60006020820190508181036000830152616c8a81846160ea565b905092915050565b60006020820190508181036000830152616cac8184616211565b905092915050565b60006020820190508181036000830152616cce81846163a4565b905092915050565b60006040820190508181036000830152616cf08185616570565b90508181036020830152616d048184615ed9565b90509392505050565b60006020820190508181036000830152616d278184616600565b905092915050565b60006020820190508181036000830152616d4981846168b8565b905092915050565b6000608082019050616d666000830184616922565b92915050565b6000602082019050616d816000830184616a94565b92915050565b6000604082019050616d9c6000830185616a94565b616da96020830184615b97565b9392505050565b6000616dba616dcb565b9050616dc68282617287565b919050565b6000604051905090565b600067ffffffffffffffff821115616df057616def617330565b5b602082029050602081019050919050565b600067ffffffffffffffff821115616e1c57616e1b617330565b5b616e258261735f565b9050602081019050919050565b6000819050602082019050919050565b6000819050602082019050919050565b6000819050602082019050919050565b6000819050602082019050919050565b6000819050602082019050919050565b6000819050602082019050919050565b6000819050602082019050919050565b6000819050602082019050919050565b600081519050919050565b600081519050919050565b600081519050919050565b600081519050919050565b600081519050919050565b600081519050919050565b600081519050919050565b600081519050919050565b600081519050919050565b6000602082019050919050565b6000602082019050919050565b6000602082019050919050565b6000602082019050919050565b6000602082019050919050565b6000602082019050919050565b6000602082019050919050565b6000602082019050919050565b600082825260208201905092915050565b600082825260208201905092915050565b600082825260208201905092915050565b600082825260208201905092915050565b600082825260208201905092915050565b600082825260208201905092915050565b600082825260208201905092915050565b600082825260208201905092915050565b600082825260208201905092915050565b600082825260208201905092915050565b600082825260208201905092915050565b600082825260208201905092915050565b600061705482617199565b915061705f83617199565b9250827fffffffffffffffffffffffffffffffffffffffffffffffffffffffffffffffff0382111561709457617093617301565b5b828201905092915050565b60006170aa82617199565b91506170b583617199565b9250817fffffffffffffffffffffffffffffffffffffffffffffffffffffffffffffffff04831182151516156170ee576170ed617301565b5b828202905092915050565b600061710482617199565b915061710f83617199565b92508282101561712257617121617301565b5b828203905092915050565b600061713882617179565b9050919050565b600061714a82617179565b9050919050565b60008115159050919050565b60006fffffffffffffffffffffffffffffffff82169050919050565b600073ffffffffffffffffffffffffffffffffffffffff82169050919050565b6000819050919050565b600067ffffffffffffffff82169050919050565b600060ff82169050919050565b60006171cf826171d6565b9050919050565b60006171e182617179565b9050919050565b60006171f3826171fa565b9050919050565b600061720582617179565b9050919050565b60006172178261721e565b9050919050565b600061722982617179565b9050919050565b600061723b82617242565b9050919050565b600061724d82617179565b9050919050565b60005b83811015617272578082015181840152602081019050617257565b83811115617281576000848401525b50505050565b6172908261735f565b810181811067ffffffffffffffff821117156172af576172ae617330565b5b80604052505050565b60006172c382617199565b91507fffffffffffffffffffffffffffffffffffffffffffffffffffffffffffffffff8214156172f6576172f5617301565b5b600182019050919050565b7f4e487b7100000000000000000000000000000000000000000000000000000000600052601160045260246000fd5b7f4e487b7100000000000000000000000000000000000000000000000000000000600052604160045260246000fd5b6000601f19601f8301169050919050565b7f4d49534f48656c7065723a2053656e646572206d7573742062652041646d696e600082015250565b6173a28161712d565b81146173ad57600080fd5b50565b6173b98161713f565b81146173c457600080fd5b50565b6173d081617151565b81146173db57600080fd5b50565b6173e78161715d565b81146173f257600080fd5b50565b6173fe81617199565b811461740957600080fd5b50565b617415816171a3565b811461742057600080fd5b50565b61742c816171b7565b811461743757600080fd5b5056fea2646970667358221220c58e9351bcb9616b8b94cfb319c0f59555aaf816a77adb1329560de4ca99902064736f6c63430008040033",
  "linkReferences": {},
  "deployedLinkReferences": {}
}