{
  "_format": "hh-sol-artifact-1",
  "contractName": "TokenHelper",
  "sourceName": "contracts/Helper/MISOHelper.sol",
  "abi": [
    {
      "inputs": [
        {
          "internalType": "address",
          "name": "_token",
          "type": "address"
        },
        {
          "internalType": "address",
          "name": "_owner",
          "type": "address"
        },
        {
          "internalType": "address",
          "name": "_spender",
          "type": "address"
        }
      ],
      "name": "allowance",
      "outputs": [
        {
          "internalType": "uint256",
          "name": "",
          "type": "uint256"
        }
      ],
      "stateMutability": "view",
      "type": "function"
    },
    {
      "inputs": [
        {
          "internalType": "address",
          "name": "_address",
          "type": "address"
        }
      ],
      "name": "getTokenInfo",
      "outputs": [
        {
          "components": [
            {
              "internalType": "address",
              "name": "addr",
              "type": "address"
            },
            {
              "internalType": "uint256",
              "name": "decimals",
              "type": "uint256"
            },
            {
              "internalType": "string",
              "name": "name",
              "type": "string"
            },
            {
              "internalType": "string",
              "name": "symbol",
              "type": "string"
            }
          ],
          "internalType": "struct TokenHelper.TokenInfo",
          "name": "",
          "type": "tuple"
        }
      ],
      "stateMutability": "view",
      "type": "function"
    },
    {
      "inputs": [
        {
          "internalType": "address[]",
          "name": "addresses",
          "type": "address[]"
        }
      ],
      "name": "getTokensInfo",
      "outputs": [
        {
          "components": [
            {
              "internalType": "address",
              "name": "addr",
              "type": "address"
            },
            {
              "internalType": "uint256",
              "name": "decimals",
              "type": "uint256"
            },
            {
              "internalType": "string",
              "name": "name",
              "type": "string"
            },
            {
              "internalType": "string",
              "name": "symbol",
              "type": "string"
            }
          ],
          "internalType": "struct TokenHelper.TokenInfo[]",
          "name": "",
          "type": "tuple[]"
        }
      ],
      "stateMutability": "view",
      "type": "function"
    }
  ],
  "bytecode": "0x608060405234801561001057600080fd5b50610c72806100206000396000f3fe608060405234801561001057600080fd5b50600436106100415760003560e01c80631f69565f1461004657806346a0fe4714610076578063927da105146100a6575b600080fd5b610060600480360381019061005b9190610615565b6100d6565b60405161006d919061097e565b60405180910390f35b610090600480360381019061008b919061068d565b6102cd565b60405161009d919061095c565b60405180910390f35b6100c060048036038101906100bb919061063e565b610404565b6040516100cd91906109a0565b60405180910390f35b6100de61049a565b6100e661049a565b600083905083826000019073ffffffffffffffffffffffffffffffffffffffff16908173ffffffffffffffffffffffffffffffffffffffff16815250508073ffffffffffffffffffffffffffffffffffffffff166306fdde036040518163ffffffff1660e01b815260040160006040518083038186803b15801561016957600080fd5b505afa15801561017d573d6000803e3d6000fd5b505050506040513d6000823e3d601f19601f820116820180604052508101906101a691906106ce565b82604001819052508073ffffffffffffffffffffffffffffffffffffffff166395d89b416040518163ffffffff1660e01b815260040160006040518083038186803b1580156101f457600080fd5b505afa158015610208573d6000803e3d6000fd5b505050506040513d6000823e3d601f19601f8201168201806040525081019061023191906106ce565b82606001819052508073ffffffffffffffffffffffffffffffffffffffff1663313ce5676040518163ffffffff1660e01b815260040160206040518083038186803b15801561027f57600080fd5b505afa158015610293573d6000803e3d6000fd5b505050506040513d601f19601f820116820180604052508101906102b79190610738565b60ff168260200181815250508192505050919050565b60606000825167ffffffffffffffff811115610312577f4e487b7100000000000000000000000000000000000000000000000000000000600052604160045260246000fd5b60405190808252806020026020018201604052801561034b57816020015b61033861049a565b8152602001906001900390816103305790505b50905060005b83518110156103fa576103a3848281518110610396577f4e487b7100000000000000000000000000000000000000000000000000000000600052603260045260246000fd5b60200260200101516100d6565b8282815181106103dc577f4e487b7100000000000000000000000000000000000000000000000000000000600052603260045260246000fd5b602002602001018190525080806103f290610b3f565b915050610351565b5080915050919050565b60008373ffffffffffffffffffffffffffffffffffffffff1663dd62ed3e84846040518363ffffffff1660e01b8152600401610441929190610933565b60206040518083038186803b15801561045957600080fd5b505afa15801561046d573d6000803e3d6000fd5b505050506040513d601f19601f82011682018060405250810190610491919061070f565b90509392505050565b6040518060800160405280600073ffffffffffffffffffffffffffffffffffffffff1681526020016000815260200160608152602001606081525090565b60006104eb6104e6846109e0565b6109bb565b9050808382526020820190508285602086028201111561050a57600080fd5b60005b8581101561053a57816105208882610582565b84526020840193506020830192505060018101905061050d565b5050509392505050565b600061055761055284610a0c565b6109bb565b90508281526020810184848401111561056f57600080fd5b61057a848285610adb565b509392505050565b60008135905061059181610bf7565b92915050565b600082601f8301126105a857600080fd5b81356105b88482602086016104d8565b91505092915050565b600082601f8301126105d257600080fd5b81516105e2848260208601610544565b91505092915050565b6000815190506105fa81610c0e565b92915050565b60008151905061060f81610c25565b92915050565b60006020828403121561062757600080fd5b600061063584828501610582565b91505092915050565b60008060006060848603121561065357600080fd5b600061066186828701610582565b935050602061067286828701610582565b925050604061068386828701610582565b9150509250925092565b60006020828403121561069f57600080fd5b600082013567ffffffffffffffff8111156106b957600080fd5b6106c584828501610597565b91505092915050565b6000602082840312156106e057600080fd5b600082015167ffffffffffffffff8111156106fa57600080fd5b610706848285016105c1565b91505092915050565b60006020828403121561072157600080fd5b600061072f848285016105eb565b91505092915050565b60006020828403121561074a57600080fd5b600061075884828501610600565b91505092915050565b600061076d8383610841565b905092915050565b61077e81610a92565b82525050565b61078d81610a92565b82525050565b600061079e82610a4d565b6107a88185610a70565b9350836020820285016107ba85610a3d565b8060005b858110156107f657848403895281516107d78582610761565b94506107e283610a63565b925060208a019950506001810190506107be565b50829750879550505050505092915050565b600061081382610a58565b61081d8185610a81565b935061082d818560208601610adb565b61083681610be6565b840191505092915050565b60006080830160008301516108596000860182610775565b50602083015161086c6020860182610915565b50604083015184820360408601526108848282610808565b9150506060830151848203606086015261089e8282610808565b9150508091505092915050565b60006080830160008301516108c36000860182610775565b5060208301516108d66020860182610915565b50604083015184820360408601526108ee8282610808565b915050606083015184820360608601526109088282610808565b9150508091505092915050565b61091e81610ac4565b82525050565b61092d81610ac4565b82525050565b60006040820190506109486000830185610784565b6109556020830184610784565b9392505050565b600060208201905081810360008301526109768184610793565b905092915050565b6000602082019050818103600083015261099881846108ab565b905092915050565b60006020820190506109b56000830184610924565b92915050565b60006109c56109d6565b90506109d18282610b0e565b919050565b6000604051905090565b600067ffffffffffffffff8211156109fb576109fa610bb7565b5b602082029050602081019050919050565b600067ffffffffffffffff821115610a2757610a26610bb7565b5b610a3082610be6565b9050602081019050919050565b6000819050602082019050919050565b600081519050919050565b600081519050919050565b6000602082019050919050565b600082825260208201905092915050565b600082825260208201905092915050565b6000610a9d82610aa4565b9050919050565b600073ffffffffffffffffffffffffffffffffffffffff82169050919050565b6000819050919050565b600060ff82169050919050565b60005b83811015610af9578082015181840152602081019050610ade565b83811115610b08576000848401525b50505050565b610b1782610be6565b810181811067ffffffffffffffff82111715610b3657610b35610bb7565b5b80604052505050565b6000610b4a82610ac4565b91507fffffffffffffffffffffffffffffffffffffffffffffffffffffffffffffffff821415610b7d57610b7c610b88565b5b600182019050919050565b7f4e487b7100000000000000000000000000000000000000000000000000000000600052601160045260246000fd5b7f4e487b7100000000000000000000000000000000000000000000000000000000600052604160045260246000fd5b6000601f19601f8301169050919050565b610c0081610a92565b8114610c0b57600080fd5b50565b610c1781610ac4565b8114610c2257600080fd5b50565b610c2e81610ace565b8114610c3957600080fd5b5056fea2646970667358221220d44597adac7b068f0024cc8f47280e5c62b6c08388e9c32ddbd5151d7fabeb3c64736f6c63430008040033",
  "linkReferences": {},
  "deployedLinkReferences": {}
}