{
  "_format": "hh-sol-artifact-1",
  "contractName": "Owned",
  "sourceName": "contracts/Utils/Owned.sol",
  "abi": [
    {
      "anonymous": false,
      "inputs": [
        {
          "indexed": true,
          "internalType": "address",
          "name": "previousOwner",
          "type": "address"
        },
        {
          "indexed": true,
          "internalType": "address",
          "name": "newOwner",
          "type": "address"
        }
      ],
      "name": "OwnershipTransferred",
      "type": "event"
    },
    {
      "inputs": [],
      "name": "acceptOwnership",
      "outputs": [],
      "stateMutability": "nonpayable",
      "type": "function"
    },
    {
      "inputs": [],
      "name": "isOwner",
      "outputs": [
        {
          "internalType": "bool",
          "name": "",
          "type": "bool"
        }
      ],
      "stateMutability": "view",
      "type": "function"
    },
    {
      "inputs": [],
      "name": "newOwner",
      "outputs": [
        {
          "internalType": "address",
          "name": "",
          "type": "address"
        }
      ],
      "stateMutability": "view",
      "type": "function"
    },
    {
      "inputs": [],
      "name": "owner",
      "outputs": [
        {
          "internalType": "address",
          "name": "",
          "type": "address"
        }
      ],
      "stateMutability": "view",
      "type": "function"
    },
    {
      "inputs": [
        {
          "internalType": "address",
          "name": "_newOwner",
          "type": "address"
        }
      ],
      "name": "transferOwnership",
      "outputs": [],
      "stateMutability": "nonpayable",
      "type": "function"
    }
  ],
  "bytecode": "0x608060405234801561001057600080fd5b50610216806100206000396000f3fe608060405234801561001057600080fd5b50600436106100675760003560e01c80638f32d59b116100505780638f32d59b146100a0578063d4ee1d90146100be578063f2fde38b146100d157600080fd5b806379ba50971461006c5780638da5cb5b14610076575b600080fd5b6100746100e4565b005b6000546001600160a01b03165b6040516001600160a01b0390911681526020015b60405180910390f35b6000546001600160a01b031633146040519015158152602001610097565b600154610083906001600160a01b031681565b6100746100df3660046101b2565b61016c565b6001546001600160a01b031633146100fb57600080fd5b600154600080546040516001600160a01b0393841693909116917f8be0079c531659141344cd1fd0a4f28419497f9722a3daafe3b4186f6b6457e091a3600180546000805473ffffffffffffffffffffffffffffffffffffffff199081166001600160a01b03841617909155169055565b6000546001600160a01b0316331461018357600080fd5b6001805473ffffffffffffffffffffffffffffffffffffffff19166001600160a01b0392909216919091179055565b6000602082840312156101c3578081fd5b81356001600160a01b03811681146101d9578182fd5b939250505056fea2646970667358221220a0a14dca7c7688cbec3996361f87190a024f6567dee1834c9b51d733fc22b9e864736f6c63430008040033",
  "linkReferences": {},
  "deployedLinkReferences": {}
}