{
  "_format": "hh-sol-artifact-1",
  "contractName": "MISORecipe01",
  "sourceName": "contracts/Recipes/MISORecipe01.sol",
  "abi": [
    {
      "inputs": [
        {
          "internalType": "address",
          "name": "_tokenFactory",
          "type": "address"
        },
        {
          "internalType": "address",
          "name": "_weth",
          "type": "address"
        },
        {
          "internalType": "address",
          "name": "_misoMarket",
          "type": "address"
        },
        {
          "internalType": "address",
          "name": "_misoLauncher",
          "type": "address"
        },
        {
          "internalType": "address",
          "name": "_uniswapFactory",
          "type": "address"
        },
        {
          "internalType": "address",
          "name": "_farmFactory",
          "type": "address"
        }
      ],
      "stateMutability": "nonpayable",
      "type": "constructor"
    },
    {
      "inputs": [],
      "name": "farmFactory",
      "outputs": [
        {
          "internalType": "contract IMISOFarmFactory",
          "name": "",
          "type": "address"
        }
      ],
      "stateMutability": "view",
      "type": "function"
    },
    {
      "inputs": [],
      "name": "misoLauncher",
      "outputs": [
        {
          "internalType": "contract IMisoLauncher",
          "name": "",
          "type": "address"
        }
      ],
      "stateMutability": "view",
      "type": "function"
    },
    {
      "inputs": [],
      "name": "misoMarket",
      "outputs": [
        {
          "internalType": "contract IMISOMarket",
          "name": "",
          "type": "address"
        }
      ],
      "stateMutability": "view",
      "type": "function"
    },
    {
      "inputs": [
        {
          "internalType": "string",
          "name": "_name",
          "type": "string"
        },
        {
          "internalType": "string",
          "name": "_symbol",
          "type": "string"
        },
        {
          "internalType": "address",
          "name": "accessControl",
          "type": "address"
        }
      ],
      "name": "prepareMiso",
      "outputs": [],
      "stateMutability": "payable",
      "type": "function"
    },
    {
      "inputs": [],
      "name": "tokenFactory",
      "outputs": [
        {
          "internalType": "contract IMISOTokenFactory",
          "name": "",
          "type": "address"
        }
      ],
      "stateMutability": "view",
      "type": "function"
    },
    {
      "inputs": [],
      "name": "uniswapFactory",
      "outputs": [
        {
          "internalType": "address",
          "name": "",
          "type": "address"
        }
      ],
      "stateMutability": "view",
      "type": "function"
    },
    {
      "inputs": [],
      "name": "weth",
      "outputs": [
        {
          "internalType": "contract IWETH",
          "name": "",
          "type": "address"
        }
      ],
      "stateMutability": "view",
      "type": "function"
    }
  ],
  "bytecode": "0x60806040523480156200001157600080fd5b506040516200165b3803806200165b8339818101604052810190620000379190620001df565b856000806101000a81548173ffffffffffffffffffffffffffffffffffffffff021916908373ffffffffffffffffffffffffffffffffffffffff16021790555084600260006101000a81548173ffffffffffffffffffffffffffffffffffffffff021916908373ffffffffffffffffffffffffffffffffffffffff16021790555083600160006101000a81548173ffffffffffffffffffffffffffffffffffffffff021916908373ffffffffffffffffffffffffffffffffffffffff16021790555082600360006101000a81548173ffffffffffffffffffffffffffffffffffffffff021916908373ffffffffffffffffffffffffffffffffffffffff16021790555081600560006101000a81548173ffffffffffffffffffffffffffffffffffffffff021916908373ffffffffffffffffffffffffffffffffffffffff16021790555080600460006101000a81548173ffffffffffffffffffffffffffffffffffffffff021916908373ffffffffffffffffffffffffffffffffffffffff160217905550505050505050620002c3565b600081519050620001d981620002a9565b92915050565b60008060008060008060c08789031215620001f957600080fd5b60006200020989828a01620001c8565b96505060206200021c89828a01620001c8565b95505060406200022f89828a01620001c8565b94505060606200024289828a01620001c8565b93505060806200025589828a01620001c8565b92505060a06200026889828a01620001c8565b9150509295509295509295565b6000620002828262000289565b9050919050565b600073ffffffffffffffffffffffffffffffffffffffff82169050919050565b620002b48162000275565b8114620002c057600080fd5b50565b61138880620002d36000396000f3fe6080604052600436106100705760003560e01c80636d25e1751161004e5780636d25e175146100f65780638bdb2afa14610121578063cd1646711461014c578063e77772fe1461016857610070565b80630b1481291461007557806327257e09146100a05780633fc8cef3146100cb575b600080fd5b34801561008157600080fd5b5061008a610193565b6040516100979190610f18565b60405180910390f35b3480156100ac57600080fd5b506100b56101b9565b6040516100c29190610f4e565b60405180910390f35b3480156100d757600080fd5b506100e06101df565b6040516100ed9190610f69565b60405180910390f35b34801561010257600080fd5b5061010b610205565b6040516101189190610efd565b60405180910390f35b34801561012d57600080fd5b5061013661022b565b6040516101439190610d2f565b60405180910390f35b61016660048036038101906101619190610b4c565b610251565b005b34801561017457600080fd5b5061017d610a38565b60405161018a9190610f33565b60405180910390f35b600160009054906101000a900473ffffffffffffffffffffffffffffffffffffffff1681565b600360009054906101000a900473ffffffffffffffffffffffffffffffffffffffff1681565b600260009054906101000a900473ffffffffffffffffffffffffffffffffffffffff1681565b600460009054906101000a900473ffffffffffffffffffffffffffffffffffffffff1681565b600560009054906101000a900473ffffffffffffffffffffffffffffffffffffffff1681565b60006103e89050600061012c905060008060009054906101000a900473ffffffffffffffffffffffffffffffffffffffff1673ffffffffffffffffffffffffffffffffffffffff16630795551d898989896001338a6040518863ffffffff1660e01b81526004016102c89796959493929190610f9f565b602060405180830381600087803b1580156102e257600080fd5b505af11580156102f6573d6000803e3d6000fd5b505050506040513d601f19601f8201168201806040525081019061031a9190610afa565b90508073ffffffffffffffffffffffffffffffffffffffff1663095ea7b3600160009054906101000a900473ffffffffffffffffffffffffffffffffffffffff16846040518363ffffffff1660e01b8152600401610379929190610e38565b602060405180830381600087803b15801561039357600080fd5b505af11580156103a7573d6000803e3d6000fd5b505050506040513d601f19601f820116820180604052508101906103cb9190610b23565b506000600360009054906101000a900473ffffffffffffffffffffffffffffffffffffffff1673ffffffffffffffffffffffffffffffffffffffff16632ed4f57860016040518263ffffffff1660e01b815260040161042a9190610f84565b602060405180830381600087803b15801561044457600080fd5b505af1158015610458573d6000803e3d6000fd5b505050506040513d601f19601f8201168201806040525081019061047c9190610bd5565b90506000600360009054906101000a900473ffffffffffffffffffffffffffffffffffffffff1673ffffffffffffffffffffffffffffffffffffffff1663632cef9083856000336040518563ffffffff1660e01b81526004016104e29493929190611004565b602060405180830381600087803b1580156104fc57600080fd5b505af1158015610510573d6000803e3d6000fd5b505050506040513d601f19601f820116820180604052508101906105349190610afa565b90506000339050600033905060006103e89050600060649050600060c890506000603c905060006103e890508773ffffffffffffffffffffffffffffffffffffffff1663785598518e8c600260009054906101000a900473ffffffffffffffffffffffffffffffffffffffff16600560009054906101000a900473ffffffffffffffffffffffffffffffffffffffff168c8c8a8c8b6040518a63ffffffff1660e01b81526004016105ed99989796959493929190610d4a565b600060405180830381600087803b15801561060757600080fd5b505af115801561061b573d6000803e3d6000fd5b505050508973ffffffffffffffffffffffffffffffffffffffff1663a9059cbb89836040518363ffffffff1660e01b815260040161065a929190610e38565b602060405180830381600087803b15801561067457600080fd5b505af1158015610688573d6000803e3d6000fd5b505050506040513d601f19601f820116820180604052508101906106ac9190610b23565b505050505050505060006005426106c391906110b5565b905060006064426106d491906110b5565b9050600060649050600060c8905060003390506000600160009054906101000a900473ffffffffffffffffffffffffffffffffffffffff1673ffffffffffffffffffffffffffffffffffffffff16639baea4bf8a8c73eeeeeeeeeeeeeeeeeeeeeeeeeeeeeeeeeeeeeeee8a8a8a8a8f8b60026040518b63ffffffff1660e01b815260040161076b9a99989796959493929190610e61565b602060405180830381600087803b15801561078557600080fd5b505af1158015610799573d6000803e3d6000fd5b505050506040513d601f19601f820116820180604052508101906107bd9190610afa565b905050505050505060003390506000600a90506000600460009054906101000a900473ffffffffffffffffffffffffffffffffffffffff1673ffffffffffffffffffffffffffffffffffffffff1663a4f81e4f3488670de0b6b3a7640000600a4361082891906110b5565b888f60016040518863ffffffff1660e01b815260040161084d96959493929190610dd7565b6020604051808303818588803b15801561086657600080fd5b505af115801561087a573d6000803e3d6000fd5b50505050506040513d601f19601f8201168201806040525081019061089f9190610afa565b90508573ffffffffffffffffffffffffffffffffffffffff1663a9059cbb82846040518363ffffffff1660e01b81526004016108dc929190610e38565b602060405180830381600087803b1580156108f657600080fd5b505af115801561090a573d6000803e3d6000fd5b505050506040513d601f19601f8201168201806040525081019061092e9190610b23565b506000600a905060008573ffffffffffffffffffffffffffffffffffffffff1663c9e57aa66040518163ffffffff1660e01b815260040160206040518083038186803b15801561097d57600080fd5b505afa158015610991573d6000803e3d6000fd5b505050506040513d601f19601f820116820180604052508101906109b59190610afa565b90508273ffffffffffffffffffffffffffffffffffffffff1663d69de7e7838360006040518463ffffffff1660e01b81526004016109f59392919061105c565b600060405180830381600087803b158015610a0f57600080fd5b505af1158015610a23573d6000803e3d6000fd5b50505050505050505050505050505050505050565b60008054906101000a900473ffffffffffffffffffffffffffffffffffffffff1681565b600081359050610a6b8161130d565b92915050565b600081519050610a808161130d565b92915050565b600081519050610a9581611324565b92915050565b60008083601f840112610aad57600080fd5b8235905067ffffffffffffffff811115610ac657600080fd5b602083019150836001820283011115610ade57600080fd5b9250929050565b600081519050610af48161133b565b92915050565b600060208284031215610b0c57600080fd5b6000610b1a84828501610a71565b91505092915050565b600060208284031215610b3557600080fd5b6000610b4384828501610a86565b91505092915050565b600080600080600060608688031215610b6457600080fd5b600086013567ffffffffffffffff811115610b7e57600080fd5b610b8a88828901610a9b565b9550955050602086013567ffffffffffffffff811115610ba957600080fd5b610bb588828901610a9b565b93509350506040610bc888828901610a5c565b9150509295509295909350565b600060208284031215610be757600080fd5b6000610bf584828501610ae5565b91505092915050565b610c0781611165565b82525050565b610c168161111d565b82525050565b610c258161110b565b82525050565b610c348161112f565b82525050565b610c4381611177565b82525050565b610c528161119b565b82525050565b610c61816111bf565b82525050565b610c70816111e3565b82525050565b610c7f81611207565b82525050565b610c8e8161122b565b82525050565b610c9d8161124f565b82525050565b610cac81611261565b82525050565b610cbb81611273565b82525050565b610cca81611285565b82525050565b6000610cdc83856110a4565b9350610ce98385846112bb565b610cf2836112f9565b840190509392505050565b6000610d0a600083611093565b9150610d158261130a565b600082019050919050565b610d298161115b565b82525050565b6000602082019050610d446000830184610c1c565b92915050565b600061012082019050610d60600083018c610c1c565b610d6d602083018b610c1c565b610d7a604083018a610c1c565b610d876060830189610c1c565b610d946080830188610c1c565b610da160a0830187610bfe565b610dae60c0830186610d20565b610dbb60e0830185610d20565b610dc9610100830184610d20565b9a9950505050505050505050565b600060c082019050610dec6000830189610c1c565b610df96020830188610ca3565b610e066040830187610d20565b610e136060830186610bfe565b610e206080830185610c1c565b610e2d60a0830184610cb2565b979650505050505050565b6000604082019050610e4d6000830185610c1c565b610e5a6020830184610d20565b9392505050565b600061014082019050610e77600083018d610c1c565b610e84602083018c610d20565b610e91604083018b610c1c565b610e9e606083018a610d20565b610eab6080830189610d20565b610eb860a0830188610d20565b610ec560c0830187610d20565b610ed260e0830186610c1c565b610ee0610100830185610c0d565b610eee610120830184610cc1565b9b9a5050505050505050505050565b6000602082019050610f126000830184610c49565b92915050565b6000602082019050610f2d6000830184610c58565b92915050565b6000602082019050610f486000830184610c67565b92915050565b6000602082019050610f636000830184610c76565b92915050565b6000602082019050610f7e6000830184610c85565b92915050565b6000602082019050610f996000830184610cb2565b92915050565b600060a0820190508181036000830152610fba81898b610cd0565b90508181036020830152610fcf818789610cd0565b9050610fde6040830186610cb2565b610feb6060830185610c1c565b610ff86080830184610d20565b98975050505050505050565b600060a0820190506110196000830187610d20565b6110266020830186610c1c565b6110336040830185610c94565b6110406060830184610c0d565b818103608083015261105181610cfd565b905095945050505050565b60006060820190506110716000830186610d20565b61107e6020830185610c3a565b61108b6040830184610c2b565b949350505050565b600082825260208201905092915050565b600082825260208201905092915050565b60006110c08261115b565b91506110cb8361115b565b9250827fffffffffffffffffffffffffffffffffffffffffffffffffffffffffffffffff03821115611100576110ff6112ca565b5b828201905092915050565b60006111168261113b565b9050919050565b60006111288261113b565b9050919050565b60008115159050919050565b600073ffffffffffffffffffffffffffffffffffffffff82169050919050565b6000819050919050565b600061117082611297565b9050919050565b600061118282611189565b9050919050565b60006111948261113b565b9050919050565b60006111a6826111ad565b9050919050565b60006111b88261113b565b9050919050565b60006111ca826111d1565b9050919050565b60006111dc8261113b565b9050919050565b60006111ee826111f5565b9050919050565b60006112008261113b565b9050919050565b600061121282611219565b9050919050565b60006112248261113b565b9050919050565b60006112368261123d565b9050919050565b60006112488261113b565b9050919050565b600061125a8261115b565b9050919050565b600061126c8261115b565b9050919050565b600061127e8261115b565b9050919050565b60006112908261115b565b9050919050565b60006112a2826112a9565b9050919050565b60006112b48261113b565b9050919050565b82818337600083830152505050565b7f4e487b7100000000000000000000000000000000000000000000000000000000600052601160045260246000fd5b6000601f19601f8301169050919050565b50565b6113168161110b565b811461132157600080fd5b50565b61132d8161112f565b811461133857600080fd5b50565b6113448161115b565b811461134f57600080fd5b5056fea2646970667358221220fbe7edab3b6f1f03a88b4e518e17e5a0ccec45d5c1b2fedb1df09744a8f1043564736f6c63430008040033",
  "linkReferences": {},
  "deployedLinkReferences": {}
}