{
  "_format": "hh-sol-artifact-1",
  "contractName": "VaporFarmFactory",
  "sourceName": "contracts/VaporFarmFactory.sol",
  "abi": [
    {
      "anonymous": false,
      "inputs": [
        {
          "indexed": true,
          "internalType": "address",
          "name": "owner",
          "type": "address"
        },
        {
          "indexed": true,
          "internalType": "address",
          "name": "addr",
          "type": "address"
        },
        {
          "indexed": false,
          "internalType": "address",
          "name": "farmTemplate",
          "type": "address"
        }
      ],
      "name": "FarmCreated",
      "type": "event"
    },
    {
      "anonymous": false,
      "inputs": [
        {
          "indexed": false,
          "internalType": "address",
          "name": "newFarm",
          "type": "address"
        },
        {
          "indexed": false,
          "internalType": "uint256",
          "name": "templateId",
          "type": "uint256"
        }
      ],
      "name": "FarmTemplateAdded",
      "type": "event"
    },
    {
      "anonymous": false,
      "inputs": [
        {
          "indexed": false,
          "internalType": "address",
          "name": "farm",
          "type": "address"
        },
        {
          "indexed": false,
          "internalType": "uint256",
          "name": "templateId",
          "type": "uint256"
        }
      ],
      "name": "FarmTemplateRemoved",
      "type": "event"
    },
    {
      "anonymous": false,
      "inputs": [
        {
          "indexed": false,
          "internalType": "address",
          "name": "sender",
          "type": "address"
        }
      ],
      "name": "VaporInitFarmFactory",
      "type": "event"
    },
    {
      "inputs": [],
      "name": "FARM_MINTER_ROLE",
      "outputs": [
        {
          "internalType": "bytes32",
          "name": "",
          "type": "bytes32"
        }
      ],
      "stateMutability": "view",
      "type": "function"
    },
    {
      "inputs": [],
      "name": "VaporDiv",
      "outputs": [
        {
          "internalType": "address payable",
          "name": "",
          "type": "address"
        }
      ],
      "stateMutability": "view",
      "type": "function"
    },
    {
      "inputs": [],
      "name": "accessControls",
      "outputs": [
        {
          "internalType": "contract VaporAccessControls",
          "name": "",
          "type": "address"
        }
      ],
      "stateMutability": "view",
      "type": "function"
    },
    {
      "inputs": [
        {
          "internalType": "address",
          "name": "_template",
          "type": "address"
        }
      ],
      "name": "addFarmTemplate",
      "outputs": [],
      "stateMutability": "nonpayable",
      "type": "function"
    },
    {
      "inputs": [
        {
          "internalType": "uint256",
          "name": "_templateId",
          "type": "uint256"
        },
        {
          "internalType": "address payable",
          "name": "_integratorFeeAccount",
          "type": "address"
        },
        {
          "internalType": "bytes",
          "name": "_data",
          "type": "bytes"
        }
      ],
      "name": "createFarm",
      "outputs": [
        {
          "internalType": "address",
          "name": "farm",
          "type": "address"
        }
      ],
      "stateMutability": "payable",
      "type": "function"
    },
    {
      "inputs": [
        {
          "internalType": "uint256",
          "name": "",
          "type": "uint256"
        }
      ],
      "name": "currentTemplateId",
      "outputs": [
        {
          "internalType": "uint256",
          "name": "",
          "type": "uint256"
        }
      ],
      "stateMutability": "view",
      "type": "function"
    },
    {
      "inputs": [
        {
          "internalType": "uint256",
          "name": "_templateId",
          "type": "uint256"
        },
        {
          "internalType": "address payable",
          "name": "_integratorFeeAccount",
          "type": "address"
        }
      ],
      "name": "deployFarm",
      "outputs": [
        {
          "internalType": "address",
          "name": "farm",
          "type": "address"
        }
      ],
      "stateMutability": "payable",
      "type": "function"
    },
    {
      "inputs": [
        {
          "internalType": "address",
          "name": "",
          "type": "address"
        }
      ],
      "name": "farmInfo",
      "outputs": [
        {
          "internalType": "bool",
          "name": "exists",
          "type": "bool"
        },
        {
          "internalType": "uint256",
          "name": "templateId",
          "type": "uint256"
        },
        {
          "internalType": "uint256",
          "name": "index",
          "type": "uint256"
        }
      ],
      "stateMutability": "view",
      "type": "function"
    },
    {
      "inputs": [],
      "name": "farmTemplateId",
      "outputs": [
        {
          "internalType": "uint256",
          "name": "",
          "type": "uint256"
        }
      ],
      "stateMutability": "view",
      "type": "function"
    },
    {
      "inputs": [
        {
          "internalType": "uint256",
          "name": "",
          "type": "uint256"
        }
      ],
      "name": "farms",
      "outputs": [
        {
          "internalType": "address",
          "name": "",
          "type": "address"
        }
      ],
      "stateMutability": "view",
      "type": "function"
    },
    {
      "inputs": [
        {
          "internalType": "uint256",
          "name": "_farmTemplate",
          "type": "uint256"
        }
      ],
      "name": "getFarmTemplate",
      "outputs": [
        {
          "internalType": "address",
          "name": "",
          "type": "address"
        }
      ],
      "stateMutability": "view",
      "type": "function"
    },
    {
      "inputs": [],
      "name": "getFarms",
      "outputs": [
        {
          "internalType": "address[]",
          "name": "",
          "type": "address[]"
        }
      ],
      "stateMutability": "view",
      "type": "function"
    },
    {
      "inputs": [
        {
          "internalType": "address",
          "name": "_farmTemplate",
          "type": "address"
        }
      ],
      "name": "getTemplateId",
      "outputs": [
        {
          "internalType": "uint256",
          "name": "",
          "type": "uint256"
        }
      ],
      "stateMutability": "view",
      "type": "function"
    },
    {
      "inputs": [
        {
          "internalType": "address",
          "name": "_address",
          "type": "address"
        }
      ],
      "name": "hasFarmMinterRole",
      "outputs": [
        {
          "internalType": "bool",
          "name": "",
          "type": "bool"
        }
      ],
      "stateMutability": "view",
      "type": "function"
    },
    {
      "inputs": [
        {
          "internalType": "address",
          "name": "_accessControls",
          "type": "address"
        },
        {
          "internalType": "address payable",
          "name": "_VaporDiv",
          "type": "address"
        },
        {
          "internalType": "uint256",
          "name": "_minimumFee",
          "type": "uint256"
        },
        {
          "internalType": "uint256",
          "name": "_integratorFeePct",
          "type": "uint256"
        }
      ],
      "name": "initVaporFarmFactory",
      "outputs": [],
      "stateMutability": "nonpayable",
      "type": "function"
    },
    {
      "inputs": [],
      "name": "integratorFeePct",
      "outputs": [
        {
          "internalType": "uint256",
          "name": "",
          "type": "uint256"
        }
      ],
      "stateMutability": "view",
      "type": "function"
    },
    {
      "inputs": [],
      "name": "locked",
      "outputs": [
        {
          "internalType": "bool",
          "name": "",
          "type": "bool"
        }
      ],
      "stateMutability": "view",
      "type": "function"
    },
    {
      "inputs": [],
      "name": "minimumFee",
      "outputs": [
        {
          "internalType": "uint256",
          "name": "",
          "type": "uint256"
        }
      ],
      "stateMutability": "view",
      "type": "function"
    },
    {
      "inputs": [],
      "name": "numberOfFarms",
      "outputs": [
        {
          "internalType": "uint256",
          "name": "",
          "type": "uint256"
        }
      ],
      "stateMutability": "view",
      "type": "function"
    },
    {
      "inputs": [
        {
          "internalType": "uint256",
          "name": "_templateId",
          "type": "uint256"
        }
      ],
      "name": "removeFarmTemplate",
      "outputs": [],
      "stateMutability": "nonpayable",
      "type": "function"
    },
    {
      "inputs": [
        {
          "internalType": "uint256",
          "name": "_templateType",
          "type": "uint256"
        },
        {
          "internalType": "uint256",
          "name": "_templateId",
          "type": "uint256"
        }
      ],
      "name": "setCurrentTemplateId",
      "outputs": [],
      "stateMutability": "nonpayable",
      "type": "function"
    },
    {
      "inputs": [
        {
          "internalType": "address payable",
          "name": "_divaddr",
          "type": "address"
        }
      ],
      "name": "setDividends",
      "outputs": [],
      "stateMutability": "nonpayable",
      "type": "function"
    },
    {
      "inputs": [
        {
          "internalType": "uint256",
          "name": "_amount",
          "type": "uint256"
        }
      ],
      "name": "setIntegratorFeePct",
      "outputs": [],
      "stateMutability": "nonpayable",
      "type": "function"
    },
    {
      "inputs": [
        {
          "internalType": "bool",
          "name": "_locked",
          "type": "bool"
        }
      ],
      "name": "setLocked",
      "outputs": [],
      "stateMutability": "nonpayable",
      "type": "function"
    },
    {
      "inputs": [
        {
          "internalType": "uint256",
          "name": "_amount",
          "type": "uint256"
        }
      ],
      "name": "setMinimumFee",
      "outputs": [],
      "stateMutability": "nonpayable",
      "type": "function"
    }
  ],
  "bytecode": "0x608060405234801561001057600080fd5b50611a9d806100206000396000f3fe6080604052600436106101965760003560e01c80638f5185e8116100e1578063d2eb0fdf1161008a578063e6d176b511610064578063e6d176b5146104c9578063eabcd0a4146104dc578063ed88fd0d14610510578063f54a9bca1461053057600080fd5b8063d2eb0fdf14610453578063d335ebda14610473578063e1f6b034146104a957600080fd5b80639e9188ea116100bb5780639e9188ea146103e2578063cf30901214610402578063d0c73d261461043357600080fd5b80638f5185e81461038b5780639dc4ac8a146103a05780639e5940cc146103c257600080fd5b80633f1f44b0116101435780636cbfd71f1161011d5780636cbfd71f146102fd578063748365ef1461034b5780637da470ea1461036b57600080fd5b80633f1f44b0146102a75780634520ca75146102c757806351cc21ac146102dd57600080fd5b8063211e28b611610174578063211e28b6146101fc5780632915cbec1461021c5780632ed4f5781461027a57600080fd5b8063182a75061461019b5780631a7626e7146101bd5780631f2570c5146101e6575b600080fd5b3480156101a757600080fd5b506101bb6101b636600461183a565b610543565b005b3480156101c957600080fd5b506101d360075481565b6040519081526020015b60405180910390f35b3480156101f257600080fd5b506101d360035481565b34801561020857600080fd5b506101bb610217366004611802565b610626565b34801561022857600080fd5b5061025d61023736600461179a565b600160208190526000918252604090912080549181015460029091015460ff9092169183565b6040805193151584526020840192909252908201526060016101dd565b34801561028657600080fd5b506101d361029536600461183a565b60066020526000908152604090205481565b3480156102b357600080fd5b506101bb6102c236600461183a565b610735565b3480156102d357600080fd5b506101d360085481565b3480156102e957600080fd5b506101bb6102f836600461183a565b61088b565b34801561030957600080fd5b5061033361031836600461183a565b6000908152600460205260409020546001600160a01b031690565b6040516001600160a01b0390911681526020016101dd565b34801561035757600080fd5b50600054610333906001600160a01b031681565b34801561037757600080fd5b5061033361038636600461183a565b610a79565b34801561039757600080fd5b506002546101d3565b3480156103ac57600080fd5b506103b5610aa3565b6040516101dd919061193e565b3480156103ce57600080fd5b506101bb6103dd36600461191d565b610b05565b3480156103ee57600080fd5b506101bb6103fd36600461179a565b610c6e565b34801561040e57600080fd5b5060005461042390600160a81b900460ff1681565b60405190151581526020016101dd565b34801561043f57600080fd5b506101bb61044e36600461179a565b610d7c565b34801561045f57600080fd5b506101bb61046e3660046117bd565b6110e4565b34801561047f57600080fd5b506101d361048e36600461179a565b6001600160a01b031660009081526005602052604090205490565b3480156104b557600080fd5b50600954610333906001600160a01b031681565b6103336104d7366004611899565b6111c8565b3480156104e857600080fd5b506101d37f53570b66c9642abfc1b1b74ee3dff9b6aeb7638291a5983f7881f58149d86cd781565b34801561051c57600080fd5b5061042361052b36600461179a565b611258565b61033361053e36600461186a565b61131b565b60005460405163c395fcb360e01b81523360048201526001600160a01b039091169063c395fcb39060240160206040518083038186803b15801561058657600080fd5b505afa15801561059a573d6000803e3d6000fd5b505050506040513d601f19601f820116820180604052508101906105be919061181e565b6106215760405162461bcd60e51b815260206004820152602960248201527f5661706f724661726d466163746f72793a2053656e646572206d7573742062656044820152681037b832b930ba37b960b91b60648201526084015b60405180910390fd5b600755565b60005460405163c395fcb360e01b81523360048201526001600160a01b039091169063c395fcb39060240160206040518083038186803b15801561066957600080fd5b505afa15801561067d573d6000803e3d6000fd5b505050506040513d601f19601f820116820180604052508101906106a1919061181e565b6106fc5760405162461bcd60e51b815260206004820152602660248201527f5661706f724661726d466163746f72793a2053656e646572206d7573742062656044820152651030b236b4b760d11b6064820152608401610618565b60008054911515600160a81b027fffffffffffffffffffff00ffffffffffffffffffffffffffffffffffffffffff909216919091179055565b60005460405163c395fcb360e01b81523360048201526001600160a01b039091169063c395fcb39060240160206040518083038186803b15801561077857600080fd5b505afa15801561078c573d6000803e3d6000fd5b505050506040513d601f19601f820116820180604052508101906107b0919061181e565b61080e5760405162461bcd60e51b815260206004820152602960248201527f5661706f724661726d466163746f72793a2053656e646572206d7573742062656044820152681037b832b930ba37b960b91b6064820152608401610618565b6103e88111156108865760405162461bcd60e51b815260206004820152602960248201527f5661706f724661726d466163746f72793a2052616e67652069732066726f6d2060448201527f3020746f203130303000000000000000000000000000000000000000000000006064820152608401610618565b600855565b60005460405163c395fcb360e01b81523360048201526001600160a01b039091169063c395fcb39060240160206040518083038186803b1580156108ce57600080fd5b505afa1580156108e2573d6000803e3d6000fd5b505050506040513d601f19601f82011682018060405250810190610906919061181e565b806109875750600054604051637e271f0560e11b81523360048201526001600160a01b039091169063fc4e3e0a9060240160206040518083038186803b15801561094f57600080fd5b505afa158015610963573d6000803e3d6000fd5b505050506040513d601f19601f82011682018060405250810190610987919061181e565b6109e55760405162461bcd60e51b815260206004820152602960248201527f5661706f724661726d466163746f72793a2053656e646572206d7573742062656044820152681037b832b930ba37b960b91b6064820152608401610618565b6000818152600460205260409020546001600160a01b0316610a0657600080fd5b600081815260046020908152604080832080546001600160a01b031981169091556001600160a01b0316808452600583528184209390935580518381529182018490527f628bd92bbb6002112d3590cfe31c722f97503016b138490288be605a074d91e491015b60405180910390a15050565b60028181548110610a8957600080fd5b6000918252602090912001546001600160a01b0316905081565b60606002805480602002602001604051908101604052809291908181526020018280548015610afb57602002820191906000526020600020905b81546001600160a01b03168152600190910190602001808311610add575b5050505050905090565b60005460405163c395fcb360e01b81523360048201526001600160a01b039091169063c395fcb39060240160206040518083038186803b158015610b4857600080fd5b505afa158015610b5c573d6000803e3d6000fd5b505050506040513d601f19601f82011682018060405250810190610b80919061181e565b80610c015750600054604051637e271f0560e11b81523360048201526001600160a01b039091169063fc4e3e0a9060240160206040518083038186803b158015610bc957600080fd5b505afa158015610bdd573d6000803e3d6000fd5b505050506040513d601f19601f82011682018060405250810190610c01919061181e565b610c5c5760405162461bcd60e51b815260206004820152602660248201527f5661706f724661726d466163746f72793a2053656e646572206d7573742062656044820152651030b236b4b760d11b6064820152608401610618565b60009182526006602052604090912055565b60005460405163c395fcb360e01b81523360048201526001600160a01b039091169063c395fcb39060240160206040518083038186803b158015610cb157600080fd5b505afa158015610cc5573d6000803e3d6000fd5b505050506040513d601f19601f82011682018060405250810190610ce9919061181e565b610d475760405162461bcd60e51b815260206004820152602960248201527f5661706f724661726d466163746f72793a2053656e646572206d7573742062656044820152681037b832b930ba37b960b91b6064820152608401610618565b6001600160a01b038116610d5a57600080fd5b600980546001600160a01b0319166001600160a01b0392909216919091179055565b60005460405163c395fcb360e01b81523360048201526001600160a01b039091169063c395fcb39060240160206040518083038186803b158015610dbf57600080fd5b505afa158015610dd3573d6000803e3d6000fd5b505050506040513d601f19601f82011682018060405250810190610df7919061181e565b80610e785750600054604051637e271f0560e11b81523360048201526001600160a01b039091169063fc4e3e0a9060240160206040518083038186803b158015610e4057600080fd5b505afa158015610e54573d6000803e3d6000fd5b505050506040513d601f19601f82011682018060405250810190610e78919061181e565b610ed65760405162461bcd60e51b815260206004820152602960248201527f5661706f724661726d466163746f72793a2053656e646572206d7573742062656044820152681037b832b930ba37b960b91b6064820152608401610618565b6001600160a01b03811660009081526005602052604090205415610f625760405162461bcd60e51b815260206004820152602860248201527f5661706f724661726d466163746f72793a2054656d706c61746520616c72656160448201527f64792061646465640000000000000000000000000000000000000000000000006064820152608401610618565b6000816001600160a01b0316632c77f6566040518163ffffffff1660e01b815260040160206040518083038186803b158015610f9d57600080fd5b505afa158015610fb1573d6000803e3d6000fd5b505050506040513d601f19601f82011682018060405250810190610fd59190611852565b90506000811161104d5760405162461bcd60e51b815260206004820152602a60248201527f5661706f724661726d466163746f72793a20496e636f72726563742074656d7060448201527f6c61746520636f646520000000000000000000000000000000000000000000006064820152608401610618565b6003805490600061105d83611a10565b909155505060038054600090815260046020908152604080832080546001600160a01b0319166001600160a01b03881690811790915593548484526005835281842081905585845260068352928190208390558051938452908301919091527fb397ea829c3dad5af04b9f5976e06a3a011d99ca1caa5b41515196c894a0be5b9101610a6d565b60005474010000000000000000000000000000000000000000900460ff161561110c57600080fd5b6001600160a01b03831661111f57600080fd5b60008054600980546001600160a01b0319166001600160a01b03878116919091179091556007859055600884905575010100000000000000000000000000000000000000007fffffffffffffffffffff00000000000000000000000000000000000000000000909216908716171790556040513381527ff53c8bbb4d9b1fc0dff4cd2f23ac6bce02b766ea037dd64a71289dbccf0bd65c9060200160405180910390a150505050565b60006111d4858561131b565b6040517f824fa8210000000000000000000000000000000000000000000000000000000081529091506001600160a01b0382169063824fa8219061121e908690869060040161198b565b600060405180830381600087803b15801561123857600080fd5b505af115801561124c573d6000803e3d6000fd5b50505050949350505050565b600080546040517f91d148540000000000000000000000000000000000000000000000000000000081527f53570b66c9642abfc1b1b74ee3dff9b6aeb7638291a5983f7881f58149d86cd760048201526001600160a01b038481166024830152909116906391d148549060440160206040518083038186803b1580156112dd57600080fd5b505afa1580156112f1573d6000803e3d6000fd5b505050506040513d601f19601f82011682018060405250810190611315919061181e565b92915050565b60008054600160a81b900460ff16156114c45760005460405163c395fcb360e01b81523360048201526001600160a01b039091169063c395fcb39060240160206040518083038186803b15801561137157600080fd5b505afa158015611385573d6000803e3d6000fd5b505050506040513d601f19601f820116820180604052508101906113a9919061181e565b8061144357506000546040517f099db0170000000000000000000000000000000000000000000000000000000081523360048201526001600160a01b039091169063099db0179060240160206040518083038186803b15801561140b57600080fd5b505afa15801561141f573d6000803e3d6000fd5b505050506040513d601f19601f82011682018060405250810190611443919061181e565b80611452575061145233611258565b6114c45760405162461bcd60e51b815260206004820152603160248201527f5661706f724661726d466163746f72793a2053656e646572206d75737420626560448201527f206d696e746572206966206c6f636b65640000000000000000000000000000006064820152608401610618565b60075434101561153c5760405162461bcd60e51b815260206004820152602f60248201527f5661706f724661726d466163746f72793a204661696c656420746f207472616e60448201527f73666572206d696e696d756d46656500000000000000000000000000000000006064820152608401610618565b6000838152600460205260409020546001600160a01b031661155d57600080fd5b6000346001600160a01b0384161580159061158657506009546001600160a01b03858116911614155b156115b5576103e86008548261159c91906119da565b6115a691906119ba565b91506115b282826119f9565b90505b6000858152600460205260409020546115d6906001600160a01b0316611731565b60408051606081018252600180825260208083018a8152600280548587019081526001600160a01b0388811660008181528787528981209851895460ff191690151517895594518888015591519683019690965581549485019091557f405787fa12a823e0f2b7631cc41b3ba8828b3321ca811111fa75cd3aa3bb5ace90930180546001600160a01b031916841790558a81526004825284902054935193909216835292955033917f6e766a2e8ac6e7ecbc0956ba73fdf9e546312daf00a15a6817b8ca66159bd7ab910160405180910390a380156116eb576009546040516001600160a01b039091169082156108fc029083906000818181858888f193505050501580156116e9573d6000803e3d6000fd5b505b8115611729576040516001600160a01b0385169083156108fc029084906000818181858888f19350505050158015611727573d6000803e3d6000fd5b505b505092915050565b6000808260601b90506040517f3d602d80600a3d3981f3363d3d373d3d3d363d7300000000000000000000000081528160148201527f5af43d82803e903d91602b57fd5bf3000000000000000000000000000000000060288201526037816000f0949350505050565b6000602082840312156117ab578081fd5b81356117b681611a41565b9392505050565b600080600080608085870312156117d2578283fd5b84356117dd81611a41565b935060208501356117ed81611a41565b93969395505050506040820135916060013590565b600060208284031215611813578081fd5b81356117b681611a59565b60006020828403121561182f578081fd5b81516117b681611a59565b60006020828403121561184b578081fd5b5035919050565b600060208284031215611863578081fd5b5051919050565b6000806040838503121561187c578182fd5b82359150602083013561188e81611a41565b809150509250929050565b600080600080606085870312156118ae578384fd5b8435935060208501356118c081611a41565b9250604085013567ffffffffffffffff808211156118dc578384fd5b818701915087601f8301126118ef578384fd5b8135818111156118fd578485fd5b88602082850101111561190e578485fd5b95989497505060200194505050565b6000806040838503121561192f578182fd5b50508035926020909101359150565b6020808252825182820181905260009190848201906040850190845b8181101561197f5783516001600160a01b03168352928401929184019160010161195a565b50909695505050505050565b60208152816020820152818360408301376000818301604090810191909152601f909201601f19160101919050565b6000826119d557634e487b7160e01b81526012600452602481fd5b500490565b60008160001904831182151516156119f4576119f4611a2b565b500290565b600082821015611a0b57611a0b611a2b565b500390565b6000600019821415611a2457611a24611a2b565b5060010190565b634e487b7160e01b600052601160045260246000fd5b6001600160a01b0381168114611a5657600080fd5b50565b8015158114611a5657600080fdfea2646970667358221220b84d036c2be35b5d928f2c732769cc6364526f63b0adb82e8a405fddcd6737b064736f6c63430008040033",
  "linkReferences": {},
  "deployedLinkReferences": {}
}