{
  "_format": "hh-sol-artifact-1",
  "contractName": "VaporTokenFactory",
  "sourceName": "contracts/VaporTokenFactory.sol",
  "abi": [
    {
      "inputs": [],
      "stateMutability": "nonpayable",
      "type": "constructor"
    },
    {
      "anonymous": false,
      "inputs": [
        {
          "indexed": true,
          "internalType": "address",
          "name": "owner",
          "type": "address"
        },
        {
          "indexed": true,
          "internalType": "address",
          "name": "addr",
          "type": "address"
        },
        {
          "indexed": false,
          "internalType": "address",
          "name": "tokenTemplate",
          "type": "address"
        }
      ],
      "name": "TokenCreated",
      "type": "event"
    },
    {
      "anonymous": false,
      "inputs": [
        {
          "indexed": true,
          "internalType": "address",
          "name": "addr",
          "type": "address"
        },
        {
          "indexed": false,
          "internalType": "uint256",
          "name": "templateId",
          "type": "uint256"
        },
        {
          "indexed": false,
          "internalType": "bytes",
          "name": "data",
          "type": "bytes"
        }
      ],
      "name": "TokenInitialized",
      "type": "event"
    },
    {
      "anonymous": false,
      "inputs": [
        {
          "indexed": false,
          "internalType": "address",
          "name": "newToken",
          "type": "address"
        },
        {
          "indexed": false,
          "internalType": "uint256",
          "name": "templateId",
          "type": "uint256"
        }
      ],
      "name": "TokenTemplateAdded",
      "type": "event"
    },
    {
      "anonymous": false,
      "inputs": [
        {
          "indexed": false,
          "internalType": "address",
          "name": "token",
          "type": "address"
        },
        {
          "indexed": false,
          "internalType": "uint256",
          "name": "templateId",
          "type": "uint256"
        }
      ],
      "name": "TokenTemplateRemoved",
      "type": "event"
    },
    {
      "anonymous": false,
      "inputs": [
        {
          "indexed": false,
          "internalType": "address",
          "name": "sender",
          "type": "address"
        }
      ],
      "name": "VaporInitTokenFactory",
      "type": "event"
    },
    {
      "inputs": [],
      "name": "TOKEN_MINTER_ROLE",
      "outputs": [
        {
          "internalType": "bytes32",
          "name": "",
          "type": "bytes32"
        }
      ],
      "stateMutability": "view",
      "type": "function"
    },
    {
      "inputs": [],
      "name": "VaporDiv",
      "outputs": [
        {
          "internalType": "address payable",
          "name": "",
          "type": "address"
        }
      ],
      "stateMutability": "view",
      "type": "function"
    },
    {
      "inputs": [],
      "name": "accessControls",
      "outputs": [
        {
          "internalType": "contract VaporAccessControls",
          "name": "",
          "type": "address"
        }
      ],
      "stateMutability": "view",
      "type": "function"
    },
    {
      "inputs": [
        {
          "internalType": "address",
          "name": "_template",
          "type": "address"
        }
      ],
      "name": "addTokenTemplate",
      "outputs": [],
      "stateMutability": "nonpayable",
      "type": "function"
    },
    {
      "inputs": [
        {
          "internalType": "uint256",
          "name": "_templateId",
          "type": "uint256"
        },
        {
          "internalType": "address payable",
          "name": "_integratorFeeAccount",
          "type": "address"
        },
        {
          "internalType": "bytes",
          "name": "_data",
          "type": "bytes"
        }
      ],
      "name": "createToken",
      "outputs": [
        {
          "internalType": "address",
          "name": "token",
          "type": "address"
        }
      ],
      "stateMutability": "payable",
      "type": "function"
    },
    {
      "inputs": [
        {
          "internalType": "uint256",
          "name": "",
          "type": "uint256"
        }
      ],
      "name": "currentTemplateId",
      "outputs": [
        {
          "internalType": "uint256",
          "name": "",
          "type": "uint256"
        }
      ],
      "stateMutability": "view",
      "type": "function"
    },
    {
      "inputs": [
        {
          "internalType": "uint256",
          "name": "_templateId",
          "type": "uint256"
        },
        {
          "internalType": "address payable",
          "name": "_integratorFeeAccount",
          "type": "address"
        }
      ],
      "name": "deployToken",
      "outputs": [
        {
          "internalType": "address",
          "name": "token",
          "type": "address"
        }
      ],
      "stateMutability": "payable",
      "type": "function"
    },
    {
      "inputs": [
        {
          "internalType": "address",
          "name": "_tokenTemplate",
          "type": "address"
        }
      ],
      "name": "getTemplateId",
      "outputs": [
        {
          "internalType": "uint256",
          "name": "",
          "type": "uint256"
        }
      ],
      "stateMutability": "view",
      "type": "function"
    },
    {
      "inputs": [
        {
          "internalType": "uint256",
          "name": "_templateId",
          "type": "uint256"
        }
      ],
      "name": "getTokenTemplate",
      "outputs": [
        {
          "internalType": "address",
          "name": "",
          "type": "address"
        }
      ],
      "stateMutability": "view",
      "type": "function"
    },
    {
      "inputs": [],
      "name": "getTokens",
      "outputs": [
        {
          "internalType": "address[]",
          "name": "",
          "type": "address[]"
        }
      ],
      "stateMutability": "view",
      "type": "function"
    },
    {
      "inputs": [
        {
          "internalType": "address",
          "name": "_address",
          "type": "address"
        }
      ],
      "name": "hasTokenMinterRole",
      "outputs": [
        {
          "internalType": "bool",
          "name": "",
          "type": "bool"
        }
      ],
      "stateMutability": "view",
      "type": "function"
    },
    {
      "inputs": [
        {
          "internalType": "address",
          "name": "_accessControls",
          "type": "address"
        }
      ],
      "name": "initVaporTokenFactory",
      "outputs": [],
      "stateMutability": "nonpayable",
      "type": "function"
    },
    {
      "inputs": [],
      "name": "integratorFeePct",
      "outputs": [
        {
          "internalType": "uint256",
          "name": "",
          "type": "uint256"
        }
      ],
      "stateMutability": "view",
      "type": "function"
    },
    {
      "inputs": [],
      "name": "locked",
      "outputs": [
        {
          "internalType": "bool",
          "name": "",
          "type": "bool"
        }
      ],
      "stateMutability": "view",
      "type": "function"
    },
    {
      "inputs": [],
      "name": "minimumFee",
      "outputs": [
        {
          "internalType": "uint256",
          "name": "",
          "type": "uint256"
        }
      ],
      "stateMutability": "view",
      "type": "function"
    },
    {
      "inputs": [],
      "name": "numberOfTokens",
      "outputs": [
        {
          "internalType": "uint256",
          "name": "",
          "type": "uint256"
        }
      ],
      "stateMutability": "view",
      "type": "function"
    },
    {
      "inputs": [
        {
          "internalType": "uint256",
          "name": "_templateId",
          "type": "uint256"
        }
      ],
      "name": "removeTokenTemplate",
      "outputs": [],
      "stateMutability": "nonpayable",
      "type": "function"
    },
    {
      "inputs": [
        {
          "internalType": "uint256",
          "name": "_templateType",
          "type": "uint256"
        },
        {
          "internalType": "uint256",
          "name": "_templateId",
          "type": "uint256"
        }
      ],
      "name": "setCurrentTemplateId",
      "outputs": [],
      "stateMutability": "nonpayable",
      "type": "function"
    },
    {
      "inputs": [
        {
          "internalType": "address payable",
          "name": "_divaddr",
          "type": "address"
        }
      ],
      "name": "setDividends",
      "outputs": [],
      "stateMutability": "nonpayable",
      "type": "function"
    },
    {
      "inputs": [
        {
          "internalType": "uint256",
          "name": "_amount",
          "type": "uint256"
        }
      ],
      "name": "setIntegratorFeePct",
      "outputs": [],
      "stateMutability": "nonpayable",
      "type": "function"
    },
    {
      "inputs": [
        {
          "internalType": "bool",
          "name": "_locked",
          "type": "bool"
        }
      ],
      "name": "setLocked",
      "outputs": [],
      "stateMutability": "nonpayable",
      "type": "function"
    },
    {
      "inputs": [
        {
          "internalType": "uint256",
          "name": "_amount",
          "type": "uint256"
        }
      ],
      "name": "setMinimumFee",
      "outputs": [],
      "stateMutability": "nonpayable",
      "type": "function"
    },
    {
      "inputs": [
        {
          "internalType": "address",
          "name": "",
          "type": "address"
        }
      ],
      "name": "tokenInfo",
      "outputs": [
        {
          "internalType": "bool",
          "name": "exists",
          "type": "bool"
        },
        {
          "internalType": "uint256",
          "name": "templateId",
          "type": "uint256"
        },
        {
          "internalType": "uint256",
          "name": "index",
          "type": "uint256"
        }
      ],
      "stateMutability": "view",
      "type": "function"
    },
    {
      "inputs": [],
      "name": "tokenTemplateId",
      "outputs": [
        {
          "internalType": "uint256",
          "name": "",
          "type": "uint256"
        }
      ],
      "stateMutability": "view",
      "type": "function"
    },
    {
      "inputs": [
        {
          "internalType": "uint256",
          "name": "",
          "type": "uint256"
        }
      ],
      "name": "tokens",
      "outputs": [
        {
          "internalType": "address",
          "name": "",
          "type": "address"
        }
      ],
      "stateMutability": "view",
      "type": "function"
    }
  ],
  "bytecode": "0x608060405234801561001057600080fd5b50611db2806100206000396000f3fe6080604052600436106101965760003560e01c806362b80132116100e1578063aa6ca8081161008a578063d335ebda11610064578063d335ebda14610473578063e1f6b034146104a9578063f5dab711146104ce578063f9f16ef21461052c57600080fd5b8063aa6ca80814610417578063b3c9315114610439578063cf3090121461045957600080fd5b8063870837d7116100bb578063870837d7146103c45780639e5940cc146103d75780639e9188ea146103f757600080fd5b806362b8013214610364578063748365ef146103845780637b20bccf146103a457600080fd5b8063361dbb4a116101435780634520ca751161011d5780634520ca75146102fa5780634f64b2be14610310578063512b336d1461033057600080fd5b8063361dbb4a146102945780633f1f44b0146102c457806343efca82146102e457600080fd5b80631a7626e7116101745780631a7626e714610223578063211e28b6146102475780632ed4f5781461026757600080fd5b8063042ab9b31461019b5780630bf18f85146101ee578063182a750614610201575b600080fd5b3480156101a757600080fd5b506101d16101b6366004611a86565b6000908152600460205260409020546001600160a01b031690565b6040516001600160a01b0390911681526020015b60405180910390f35b6101d16101fc366004611ab6565b610541565b34801561020d57600080fd5b5061022161021c366004611a86565b610a05565b005b34801561022f57600080fd5b5061023960075481565b6040519081526020016101e5565b34801561025357600080fd5b50610221610262366004611a4e565b610ae4565b34801561027357600080fd5b50610239610282366004611a86565b60066020526000908152604090205481565b3480156102a057600080fd5b506102b46102af366004611a2b565b610bce565b60405190151581526020016101e5565b3480156102d057600080fd5b506102216102df366004611a86565b610c91565b3480156102f057600080fd5b5061023960035481565b34801561030657600080fd5b5061023960085481565b34801561031c57600080fd5b506101d161032b366004611a86565b610de8565b34801561033c57600080fd5b506102397fb3bb6029312d1001076133d40b75b7eca92ba54e4963b3ce24e1486a3d5a038b81565b34801561037057600080fd5b5061022161037f366004611a2b565b610e12565b34801561039057600080fd5b506000546101d1906001600160a01b031681565b3480156103b057600080fd5b506102216103bf366004611a2b565b610ea7565b6101d16103d2366004611ae5565b6111bc565b3480156103e357600080fd5b506102216103f2366004611b69565b611338565b34801561040357600080fd5b50610221610412366004611a2b565b6114a2565b34801561042357600080fd5b5061042c6115ce565b6040516101e59190611bcf565b34801561044557600080fd5b50610221610454366004611a86565b611630565b34801561046557600080fd5b506009546102b49060ff1681565b34801561047f57600080fd5b5061023961048e366004611a2b565b6001600160a01b031660009081526005602052604090205490565b3480156104b557600080fd5b506009546101d19061010090046001600160a01b031681565b3480156104da57600080fd5b5061050f6104e9366004611a2b565b600160208190526000918252604090912080549181015460029091015460ff9092169183565b6040805193151584526020840192909252908201526060016101e5565b34801561053857600080fd5b50600254610239565b60095460009060ff16156106ea5760005460405163c395fcb360e01b81523360048201526001600160a01b039091169063c395fcb39060240160206040518083038186803b15801561059257600080fd5b505afa1580156105a6573d6000803e3d6000fd5b505050506040513d601f19601f820116820180604052508101906105ca9190611a6a565b8061066457506000546040517f099db0170000000000000000000000000000000000000000000000000000000081523360048201526001600160a01b039091169063099db0179060240160206040518083038186803b15801561062c57600080fd5b505afa158015610640573d6000803e3d6000fd5b505050506040513d601f19601f820116820180604052508101906106649190611a6a565b80610673575061067333610bce565b6106ea5760405162461bcd60e51b815260206004820152603260248201527f5661706f72546f6b656e466163746f72793a2053656e646572206d757374206260448201527f65206d696e746572206966206c6f636b6564000000000000000000000000000060648201526084015b60405180910390fd5b6007543410156107625760405162461bcd60e51b815260206004820152603060248201527f5661706f72546f6b656e466163746f72793a204661696c656420746f2074726160448201527f6e73666572206d696e696d756d4665650000000000000000000000000000000060648201526084016106e1565b6000838152600460205260409020546001600160a01b03166107c65760405162461bcd60e51b815260206004820152600960248201527f616464726573732030000000000000000000000000000000000000000000000060448201526064016106e1565b6000346001600160a01b038416158015906107f457506009546001600160a01b038581166101009092041614155b15610823576103e86008548261080a9190611cbf565b6108149190611c9f565b91506108208282611cde565b90505b600085815260046020526040902054610844906001600160a01b0316611824565b60408051606081018252600180825260208083018a8152600280548587019081526001600160a01b03881660009081528585528790209551865460ff19169015151786559151938501939093555192909101919091558151808301909252600f82527f436c6f6e6520616464726573733a200000000000000000000000000000000000908201529093506108d8908461188d565b60028054600181019091557f405787fa12a823e0f2b7631cc41b3ba8828b3321ca811111fa75cd3aa3bb5ace01805473ffffffffffffffffffffffffffffffffffffffff19166001600160a01b03858116918217909255600087815260046020908152604091829020549151919093168152909133917fb5a149b73151b44553ff737ca050c61de65038e2ae67ec044215d3261cc6fa00910160405180910390a380156109bf576009546040516101009091046001600160a01b0316906108fc8315029083906000818181858888f193505050501580156109bd573d6000803e3d6000fd5b505b81156109fd576040516001600160a01b0385169083156108fc029084906000818181858888f193505050501580156109fb573d6000803e3d6000fd5b505b505092915050565b60005460405163c395fcb360e01b81523360048201526001600160a01b039091169063c395fcb39060240160206040518083038186803b158015610a4857600080fd5b505afa158015610a5c573d6000803e3d6000fd5b505050506040513d601f19601f82011682018060405250810190610a809190611a6a565b610adf5760405162461bcd60e51b815260206004820152602a60248201527f5661706f72546f6b656e466163746f72793a2053656e646572206d7573742062604482015269329037b832b930ba37b960b11b60648201526084016106e1565b600755565b60005460405163c395fcb360e01b81523360048201526001600160a01b039091169063c395fcb39060240160206040518083038186803b158015610b2757600080fd5b505afa158015610b3b573d6000803e3d6000fd5b505050506040513d601f19601f82011682018060405250810190610b5f9190611a6a565b610bbb5760405162461bcd60e51b815260206004820152602760248201527f5661706f72546f6b656e466163746f72793a2053656e646572206d7573742062604482015266329030b236b4b760c91b60648201526084016106e1565b6009805460ff1916911515919091179055565b600080546040517f91d148540000000000000000000000000000000000000000000000000000000081527fb3bb6029312d1001076133d40b75b7eca92ba54e4963b3ce24e1486a3d5a038b60048201526001600160a01b038481166024830152909116906391d148549060440160206040518083038186803b158015610c5357600080fd5b505afa158015610c67573d6000803e3d6000fd5b505050506040513d601f19601f82011682018060405250810190610c8b9190611a6a565b92915050565b60005460405163c395fcb360e01b81523360048201526001600160a01b039091169063c395fcb39060240160206040518083038186803b158015610cd457600080fd5b505afa158015610ce8573d6000803e3d6000fd5b505050506040513d601f19601f82011682018060405250810190610d0c9190611a6a565b610d6b5760405162461bcd60e51b815260206004820152602a60248201527f5661706f72546f6b656e466163746f72793a2053656e646572206d7573742062604482015269329037b832b930ba37b960b11b60648201526084016106e1565b6103e8811115610de35760405162461bcd60e51b815260206004820152602a60248201527f5661706f72546f6b656e466163746f72793a2052616e67652069732066726f6d60448201527f203020746f20313030300000000000000000000000000000000000000000000060648201526084016106e1565b600855565b60028181548110610df857600080fd5b6000918252602090912001546001600160a01b0316905081565b600054600160a01b900460ff1615610e2957600080fd5b600080546009805460ff191660011790556001600160a01b0383167fffffffffffffffffffffff00000000000000000000000000000000000000000090911617600160a01b1790556040513381527f7193e38617bf528684c403eb3283d2e5823b416a745f0c99276bc395df29ce739060200160405180910390a150565b60005460405163c395fcb360e01b81523360048201526001600160a01b039091169063c395fcb39060240160206040518083038186803b158015610eea57600080fd5b505afa158015610efe573d6000803e3d6000fd5b505050506040513d601f19601f82011682018060405250810190610f229190611a6a565b80610fa35750600054604051637e271f0560e11b81523360048201526001600160a01b039091169063fc4e3e0a9060240160206040518083038186803b158015610f6b57600080fd5b505afa158015610f7f573d6000803e3d6000fd5b505050506040513d601f19601f82011682018060405250810190610fa39190611a6a565b6110025760405162461bcd60e51b815260206004820152602a60248201527f5661706f72546f6b656e466163746f72793a2053656e646572206d7573742062604482015269329037b832b930ba37b960b11b60648201526084016106e1565b6000816001600160a01b0316630814d3dd6040518163ffffffff1660e01b815260040160206040518083038186803b15801561103d57600080fd5b505afa158015611051573d6000803e3d6000fd5b505050506040513d601f19601f820116820180604052508101906110759190611a9e565b9050600081116110ed5760405162461bcd60e51b815260206004820152602760248201527f5661706f724c61756e636865723a20496e636f72726563742074656d706c617460448201527f6520636f6465200000000000000000000000000000000000000000000000000060648201526084016106e1565b6001600160a01b0382166000908152600560205260409020541561111057600080fd5b6003805490600061112083611d25565b9091555050600380546000908152600460209081526040808320805473ffffffffffffffffffffffffffffffffffffffff19166001600160a01b03881690811790915593548484526005835281842081905585845260068352928190208390558051938452908301919091527f95595b6ea45697235ed18194d52346c97420d7edf2aa7fc902cb37e25f81962e91015b60405180910390a15050565b6000806001600160a01b03167fb16d4375f452e77e87811cc8f3549effd92a08a60c760f79ba9e2de067c95e308685856040516111fb93929190611c7c565b60405180910390a261120d8585610541565b6040517f60b1cc800000000000000000000000000000000000000000000000000000000081529091506001600160a01b038216906360b1cc80906112579086908690600401611c1c565b600060405180830381600087803b15801561127157600080fd5b505af1158015611285573d6000803e3d6000fd5b50506040517f70a08231000000000000000000000000000000000000000000000000000000008152306004820152600092506001600160a01b03841691506370a082319060240160206040518083038186803b1580156112e457600080fd5b505afa1580156112f8573d6000803e3d6000fd5b505050506040513d601f19601f8201168201806040525081019061131c9190611a9e565b9050801561132f5761132f823383611904565b50949350505050565b60005460405163c395fcb360e01b81523360048201526001600160a01b039091169063c395fcb39060240160206040518083038186803b15801561137b57600080fd5b505afa15801561138f573d6000803e3d6000fd5b505050506040513d601f19601f820116820180604052508101906113b39190611a6a565b806114345750600054604051637e271f0560e11b81523360048201526001600160a01b039091169063fc4e3e0a9060240160206040518083038186803b1580156113fc57600080fd5b505afa158015611410573d6000803e3d6000fd5b505050506040513d601f19601f820116820180604052508101906114349190611a6a565b6114905760405162461bcd60e51b815260206004820152602760248201527f5661706f72546f6b656e466163746f72793a2053656e646572206d7573742062604482015266329030b236b4b760c91b60648201526084016106e1565b60009182526006602052604090912055565b60005460405163c395fcb360e01b81523360048201526001600160a01b039091169063c395fcb39060240160206040518083038186803b1580156114e557600080fd5b505afa1580156114f9573d6000803e3d6000fd5b505050506040513d601f19601f8201168201806040525081019061151d9190611a6a565b61157c5760405162461bcd60e51b815260206004820152602a60248201527f5661706f72546f6b656e466163746f72793a2053656e646572206d7573742062604482015269329037b832b930ba37b960b11b60648201526084016106e1565b6001600160a01b03811661158f57600080fd5b600980546001600160a01b03909216610100027fffffffffffffffffffffff0000000000000000000000000000000000000000ff909216919091179055565b6060600280548060200260200160405190810160405280929190818152602001828054801561162657602002820191906000526020600020905b81546001600160a01b03168152600190910190602001808311611608575b5050505050905090565b60005460405163c395fcb360e01b81523360048201526001600160a01b039091169063c395fcb39060240160206040518083038186803b15801561167357600080fd5b505afa158015611687573d6000803e3d6000fd5b505050506040513d601f19601f820116820180604052508101906116ab9190611a6a565b8061172c5750600054604051637e271f0560e11b81523360048201526001600160a01b039091169063fc4e3e0a9060240160206040518083038186803b1580156116f457600080fd5b505afa158015611708573d6000803e3d6000fd5b505050506040513d601f19601f8201168201806040525081019061172c9190611a6a565b61178b5760405162461bcd60e51b815260206004820152602a60248201527f5661706f72546f6b656e466163746f72793a2053656e646572206d7573742062604482015269329037b832b930ba37b960b11b60648201526084016106e1565b6000818152600460205260409020546001600160a01b03166117ac57600080fd5b6000818152600460209081526040808320805473ffffffffffffffffffffffffffffffffffffffff1981169091556001600160a01b0316808452600583528184209390935580518381529182018490527f11eaf16c318162956db9f4f1fc5f7696fabbbf409382c1ddcebfe74b20a92a8391016111b0565b6000808260601b90506040517f3d602d80600a3d3981f3363d3d373d3d3d363d7300000000000000000000000081528160148201527f5af43d82803e903d91602b57fd5bf3000000000000000000000000000000000060288201526037816000f0949350505050565b61190082826040516024016118a3929190611c38565b60408051601f198184030181529190526020810180517bffffffffffffffffffffffffffffffffffffffffffffffffffffffff167f319af33300000000000000000000000000000000000000000000000000000000179052611a0a565b5050565b604080516001600160a01b038481166024830152604480830185905283518084039091018152606490920183526020820180517bffffffffffffffffffffffffffffffffffffffffffffffffffffffff167fa9059cbb00000000000000000000000000000000000000000000000000000000179052915160009283929087169161198e9190611bb3565b6000604051808303816000865af19150503d80600081146119cb576040519150601f19603f3d011682016040523d82523d6000602084013e6119d0565b606091505b50915091508180156119fa5750805115806119fa5750808060200190518101906119fa9190611a6a565b611a0357600080fd5b5050505050565b80516a636f6e736f6c652e6c6f67602083016000808483855afa5050505050565b600060208284031215611a3c578081fd5b8135611a4781611d56565b9392505050565b600060208284031215611a5f578081fd5b8135611a4781611d6e565b600060208284031215611a7b578081fd5b8151611a4781611d6e565b600060208284031215611a97578081fd5b5035919050565b600060208284031215611aaf578081fd5b5051919050565b60008060408385031215611ac8578081fd5b823591506020830135611ada81611d56565b809150509250929050565b60008060008060608587031215611afa578182fd5b843593506020850135611b0c81611d56565b9250604085013567ffffffffffffffff80821115611b28578384fd5b818701915087601f830112611b3b578384fd5b813581811115611b49578485fd5b886020828501011115611b5a578485fd5b95989497505060200194505050565b60008060408385031215611b7b578182fd5b50508035926020909101359150565b81835281816020850137506000828201602090810191909152601f909101601f19169091010190565b60008251611bc5818460208701611cf5565b9190910192915050565b6020808252825182820181905260009190848201906040850190845b81811015611c105783516001600160a01b031683529284019291840191600101611beb565b50909695505050505050565b602081526000611c30602083018486611b8a565b949350505050565b6040815260008351806040840152611c57816060850160208801611cf5565b6001600160a01b0393909316602083015250601f91909101601f191601606001919050565b838152604060208201526000611c96604083018486611b8a565b95945050505050565b600082611cba57634e487b7160e01b81526012600452602481fd5b500490565b6000816000190483118215151615611cd957611cd9611d40565b500290565b600082821015611cf057611cf0611d40565b500390565b60005b83811015611d10578181015183820152602001611cf8565b83811115611d1f576000848401525b50505050565b6000600019821415611d3957611d39611d40565b5060010190565b634e487b7160e01b600052601160045260246000fd5b6001600160a01b0381168114611d6b57600080fd5b50565b8015158114611d6b57600080fdfea26469706673582212209a5dab460ef76195c5bbe53d983418432542460abe3de049b7a0bba17d618fc064736f6c63430008040033",
  "linkReferences": {},
  "deployedLinkReferences": {}
}