{
  "_format": "hh-sol-artifact-1",
  "contractName": "VaporAdminAccess",
  "sourceName": "contracts/Access/VaporAdminAccess.sol",
  "abi": [
    {
      "inputs": [],
      "stateMutability": "nonpayable",
      "type": "constructor"
    },
    {
      "anonymous": false,
      "inputs": [
        {
          "indexed": true,
          "internalType": "address",
          "name": "beneficiary",
          "type": "address"
        },
        {
          "indexed": true,
          "internalType": "address",
          "name": "caller",
          "type": "address"
        }
      ],
      "name": "AdminRoleGranted",
      "type": "event"
    },
    {
      "anonymous": false,
      "inputs": [
        {
          "indexed": true,
          "internalType": "address",
          "name": "beneficiary",
          "type": "address"
        },
        {
          "indexed": true,
          "internalType": "address",
          "name": "caller",
          "type": "address"
        }
      ],
      "name": "AdminRoleRemoved",
      "type": "event"
    },
    {
      "anonymous": false,
      "inputs": [
        {
          "indexed": true,
          "internalType": "bytes32",
          "name": "role",
          "type": "bytes32"
        },
        {
          "indexed": true,
          "internalType": "bytes32",
          "name": "previousAdminRole",
          "type": "bytes32"
        },
        {
          "indexed": true,
          "internalType": "bytes32",
          "name": "newAdminRole",
          "type": "bytes32"
        }
      ],
      "name": "RoleAdminChanged",
      "type": "event"
    },
    {
      "anonymous": false,
      "inputs": [
        {
          "indexed": true,
          "internalType": "bytes32",
          "name": "role",
          "type": "bytes32"
        },
        {
          "indexed": true,
          "internalType": "address",
          "name": "account",
          "type": "address"
        },
        {
          "indexed": true,
          "internalType": "address",
          "name": "sender",
          "type": "address"
        }
      ],
      "name": "RoleGranted",
      "type": "event"
    },
    {
      "anonymous": false,
      "inputs": [
        {
          "indexed": true,
          "internalType": "bytes32",
          "name": "role",
          "type": "bytes32"
        },
        {
          "indexed": true,
          "internalType": "address",
          "name": "account",
          "type": "address"
        },
        {
          "indexed": true,
          "internalType": "address",
          "name": "sender",
          "type": "address"
        }
      ],
      "name": "RoleRevoked",
      "type": "event"
    },
    {
      "inputs": [],
      "name": "DEFAULT_ADMIN_ROLE",
      "outputs": [
        {
          "internalType": "bytes32",
          "name": "",
          "type": "bytes32"
        }
      ],
      "stateMutability": "view",
      "type": "function"
    },
    {
      "inputs": [
        {
          "internalType": "address",
          "name": "_address",
          "type": "address"
        }
      ],
      "name": "addAdminRole",
      "outputs": [],
      "stateMutability": "nonpayable",
      "type": "function"
    },
    {
      "inputs": [
        {
          "internalType": "bytes32",
          "name": "role",
          "type": "bytes32"
        }
      ],
      "name": "getRoleAdmin",
      "outputs": [
        {
          "internalType": "bytes32",
          "name": "",
          "type": "bytes32"
        }
      ],
      "stateMutability": "view",
      "type": "function"
    },
    {
      "inputs": [
        {
          "internalType": "bytes32",
          "name": "role",
          "type": "bytes32"
        },
        {
          "internalType": "uint256",
          "name": "index",
          "type": "uint256"
        }
      ],
      "name": "getRoleMember",
      "outputs": [
        {
          "internalType": "address",
          "name": "",
          "type": "address"
        }
      ],
      "stateMutability": "view",
      "type": "function"
    },
    {
      "inputs": [
        {
          "internalType": "bytes32",
          "name": "role",
          "type": "bytes32"
        }
      ],
      "name": "getRoleMemberCount",
      "outputs": [
        {
          "internalType": "uint256",
          "name": "",
          "type": "uint256"
        }
      ],
      "stateMutability": "view",
      "type": "function"
    },
    {
      "inputs": [
        {
          "internalType": "bytes32",
          "name": "role",
          "type": "bytes32"
        },
        {
          "internalType": "address",
          "name": "account",
          "type": "address"
        }
      ],
      "name": "grantRole",
      "outputs": [],
      "stateMutability": "nonpayable",
      "type": "function"
    },
    {
      "inputs": [
        {
          "internalType": "address",
          "name": "_address",
          "type": "address"
        }
      ],
      "name": "hasAdminRole",
      "outputs": [
        {
          "internalType": "bool",
          "name": "",
          "type": "bool"
        }
      ],
      "stateMutability": "view",
      "type": "function"
    },
    {
      "inputs": [
        {
          "internalType": "bytes32",
          "name": "role",
          "type": "bytes32"
        },
        {
          "internalType": "address",
          "name": "account",
          "type": "address"
        }
      ],
      "name": "hasRole",
      "outputs": [
        {
          "internalType": "bool",
          "name": "",
          "type": "bool"
        }
      ],
      "stateMutability": "view",
      "type": "function"
    },
    {
      "inputs": [
        {
          "internalType": "address",
          "name": "_admin",
          "type": "address"
        }
      ],
      "name": "initAccessControls",
      "outputs": [],
      "stateMutability": "nonpayable",
      "type": "function"
    },
    {
      "inputs": [
        {
          "internalType": "address",
          "name": "_address",
          "type": "address"
        }
      ],
      "name": "removeAdminRole",
      "outputs": [],
      "stateMutability": "nonpayable",
      "type": "function"
    },
    {
      "inputs": [
        {
          "internalType": "bytes32",
          "name": "role",
          "type": "bytes32"
        },
        {
          "internalType": "address",
          "name": "account",
          "type": "address"
        }
      ],
      "name": "renounceRole",
      "outputs": [],
      "stateMutability": "nonpayable",
      "type": "function"
    },
    {
      "inputs": [
        {
          "internalType": "bytes32",
          "name": "role",
          "type": "bytes32"
        },
        {
          "internalType": "address",
          "name": "account",
          "type": "address"
        }
      ],
      "name": "revokeRole",
      "outputs": [],
      "stateMutability": "nonpayable",
      "type": "function"
    }
  ],
  "bytecode": "0x608060405234801561001057600080fd5b5061094b806100206000396000f3fe608060405234801561001057600080fd5b50600436106100d45760003560e01c8063a217fddf11610081578063d547741f1161005b578063d547741f146101c6578063dccfe310146101d9578063e6594abd146101ec57600080fd5b8063a217fddf14610198578063c395fcb3146101a0578063ca15c873146101b357600080fd5b80636595171c116100b25780636595171c146101375780639010d07c1461014a57806391d148541461017557600080fd5b8063248a9ca3146100d95780632f2ff15d1461010f57806336568abe14610124575b600080fd5b6100fc6100e736600461086c565b60009081526020819052604090206002015490565b6040519081526020015b60405180910390f35b61012261011d366004610884565b6101ff565b005b610122610132366004610884565b6102a0565b610122610145366004610852565b610328565b61015d6101583660046108af565b61036c565b6040516001600160a01b039091168152602001610106565b610188610183366004610884565b61038d565b6040519015158152602001610106565b6100fc600081565b6101886101ae366004610852565b6103a5565b6100fc6101c136600461086c565b6103b1565b6101226101d4366004610884565b6103c8565b6101226101e7366004610852565b610456565b6101226101fa366004610852565b61049a565b60008281526020819052604090206002015461021b903361038d565b6102925760405162461bcd60e51b815260206004820152602f60248201527f416363657373436f6e74726f6c3a2073656e646572206d75737420626520616e60448201527f2061646d696e20746f206772616e74000000000000000000000000000000000060648201526084015b60405180910390fd5b61029c8282610507565b5050565b6001600160a01b038116331461031e5760405162461bcd60e51b815260206004820152602f60248201527f416363657373436f6e74726f6c3a2063616e206f6e6c792072656e6f756e636560448201527f20726f6c657320666f722073656c6600000000000000000000000000000000006064820152608401610289565b61029c8282610560565b6103336000826101ff565b60405133906001600160a01b038316907f2570ac42fd8b322dc453ada624dc2ed0e9bdd67f16f201a25bbd30468f2aa18790600090a350565b600082815260208190526040812061038490836105b9565b90505b92915050565b600082815260208190526040812061038490836105c5565b6000610387818361038d565b6000818152602081905260408120610387906105e7565b6000828152602081905260409020600201546103e4903361038d565b61031e5760405162461bcd60e51b815260206004820152603060248201527f416363657373436f6e74726f6c3a2073656e646572206d75737420626520616e60448201527f2061646d696e20746f207265766f6b65000000000000000000000000000000006064820152608401610289565b6104616000826103c8565b60405133906001600160a01b038316907f21ba1239795d4e22874e3dc55f0a9d7b65bfb23069d32965d7c23be9524ccf9590600090a350565b60015460ff16156104ed5760405162461bcd60e51b815260206004820152601360248201527f416c726561647920696e697469616c69736564000000000000000000000000006044820152606401610289565b6104f8600082610292565b506001805460ff191681179055565b600082815260208190526040902061051f90826105f1565b1561029c5760405133906001600160a01b0383169084907f2f8788117e7eff1d82e926ec794901d17c78024a50270940304540a733656f0d90600090a45050565b60008281526020819052604090206105789082610606565b1561029c5760405133906001600160a01b0383169084907ff6391f5c32d9c69d2a47ea670b442974b53935d1edc7fd64eb21e047a839171b90600090a45050565b6000610384838361061b565b6001600160a01b03811660009081526001830160205260408120541515610384565b6000610387825490565b6000610384836001600160a01b0384166106ca565b6000610384836001600160a01b038416610719565b815460009082106106945760405162461bcd60e51b815260206004820152602260248201527f456e756d657261626c655365743a20696e646578206f7574206f6620626f756e60448201527f64730000000000000000000000000000000000000000000000000000000000006064820152608401610289565b8260000182815481106106b757634e487b7160e01b600052603260045260246000fd5b9060005260206000200154905092915050565b600081815260018301602052604081205461071157508154600181810184556000848152602080822090930184905584548482528286019093526040902091909155610387565b506000610387565b6000818152600183016020526040812054801561082c57600061073d6001836108e8565b8554909150600090610751906001906108e8565b9050600086600001828154811061077857634e487b7160e01b600052603260045260246000fd5b90600052602060002001549050808760000184815481106107a957634e487b7160e01b600052603260045260246000fd5b6000918252602090912001556107c08360016108d0565b600082815260018901602052604090205586548790806107f057634e487b7160e01b600052603160045260246000fd5b60019003818190600052602060002001600090559055866001016000878152602001908152602001600020600090556001945050505050610387565b6000915050610387565b80356001600160a01b038116811461084d57600080fd5b919050565b600060208284031215610863578081fd5b61038482610836565b60006020828403121561087d578081fd5b5035919050565b60008060408385031215610896578081fd5b823591506108a660208401610836565b90509250929050565b600080604083850312156108c1578182fd5b50508035926020909101359150565b600082198211156108e3576108e36108ff565b500190565b6000828210156108fa576108fa6108ff565b500390565b634e487b7160e01b600052601160045260246000fdfea26469706673582212206857d48252927afad6a1854d8d1f9d9b0ec6e1a0dc5ed3b632ce71fbae6322ea64736f6c63430008040033",
  "linkReferences": {},
  "deployedLinkReferences": {}
}