{
  "_format": "hh-sol-artifact-1",
  "contractName": "FixedToken",
  "sourceName": "contracts/Tokens/FixedToken.sol",
  "abi": [
    {
      "anonymous": false,
      "inputs": [
        {
          "indexed": true,
          "internalType": "address",
          "name": "owner",
          "type": "address"
        },
        {
          "indexed": true,
          "internalType": "address",
          "name": "spender",
          "type": "address"
        },
        {
          "indexed": false,
          "internalType": "uint256",
          "name": "value",
          "type": "uint256"
        }
      ],
      "name": "Approval",
      "type": "event"
    },
    {
      "anonymous": false,
      "inputs": [
        {
          "indexed": true,
          "internalType": "address",
          "name": "from",
          "type": "address"
        },
        {
          "indexed": true,
          "internalType": "address",
          "name": "to",
          "type": "address"
        },
        {
          "indexed": false,
          "internalType": "uint256",
          "name": "value",
          "type": "uint256"
        }
      ],
      "name": "Transfer",
      "type": "event"
    },
    {
      "inputs": [],
      "name": "DOMAIN_SEPARATOR",
      "outputs": [
        {
          "internalType": "bytes32",
          "name": "",
          "type": "bytes32"
        }
      ],
      "stateMutability": "view",
      "type": "function"
    },
    {
      "inputs": [
        {
          "internalType": "address",
          "name": "owner",
          "type": "address"
        },
        {
          "internalType": "address",
          "name": "spender",
          "type": "address"
        }
      ],
      "name": "allowance",
      "outputs": [
        {
          "internalType": "uint256",
          "name": "",
          "type": "uint256"
        }
      ],
      "stateMutability": "view",
      "type": "function"
    },
    {
      "inputs": [
        {
          "internalType": "address",
          "name": "spender",
          "type": "address"
        },
        {
          "internalType": "uint256",
          "name": "amount",
          "type": "uint256"
        }
      ],
      "name": "approve",
      "outputs": [
        {
          "internalType": "bool",
          "name": "",
          "type": "bool"
        }
      ],
      "stateMutability": "nonpayable",
      "type": "function"
    },
    {
      "inputs": [
        {
          "internalType": "address",
          "name": "account",
          "type": "address"
        }
      ],
      "name": "balanceOf",
      "outputs": [
        {
          "internalType": "uint256",
          "name": "",
          "type": "uint256"
        }
      ],
      "stateMutability": "view",
      "type": "function"
    },
    {
      "inputs": [],
      "name": "decimals",
      "outputs": [
        {
          "internalType": "uint8",
          "name": "",
          "type": "uint8"
        }
      ],
      "stateMutability": "view",
      "type": "function"
    },
    {
      "inputs": [
        {
          "internalType": "address",
          "name": "spender",
          "type": "address"
        },
        {
          "internalType": "uint256",
          "name": "subtractedValue",
          "type": "uint256"
        }
      ],
      "name": "decreaseAllowance",
      "outputs": [
        {
          "internalType": "bool",
          "name": "",
          "type": "bool"
        }
      ],
      "stateMutability": "nonpayable",
      "type": "function"
    },
    {
      "inputs": [
        {
          "internalType": "string",
          "name": "_name",
          "type": "string"
        },
        {
          "internalType": "string",
          "name": "_symbol",
          "type": "string"
        },
        {
          "internalType": "address",
          "name": "_owner",
          "type": "address"
        },
        {
          "internalType": "uint256",
          "name": "_initialSupply",
          "type": "uint256"
        }
      ],
      "name": "getInitData",
      "outputs": [
        {
          "internalType": "bytes",
          "name": "_data",
          "type": "bytes"
        }
      ],
      "stateMutability": "pure",
      "type": "function"
    },
    {
      "inputs": [
        {
          "internalType": "address",
          "name": "spender",
          "type": "address"
        },
        {
          "internalType": "uint256",
          "name": "addedValue",
          "type": "uint256"
        }
      ],
      "name": "increaseAllowance",
      "outputs": [
        {
          "internalType": "bool",
          "name": "",
          "type": "bool"
        }
      ],
      "stateMutability": "nonpayable",
      "type": "function"
    },
    {
      "inputs": [
        {
          "internalType": "bytes",
          "name": "_data",
          "type": "bytes"
        }
      ],
      "name": "init",
      "outputs": [],
      "stateMutability": "payable",
      "type": "function"
    },
    {
      "inputs": [
        {
          "internalType": "bytes",
          "name": "_data",
          "type": "bytes"
        }
      ],
      "name": "initToken",
      "outputs": [],
      "stateMutability": "nonpayable",
      "type": "function"
    },
    {
      "inputs": [
        {
          "internalType": "string",
          "name": "_name",
          "type": "string"
        },
        {
          "internalType": "string",
          "name": "_symbol",
          "type": "string"
        },
        {
          "internalType": "address",
          "name": "_owner",
          "type": "address"
        },
        {
          "internalType": "uint256",
          "name": "_initialSupply",
          "type": "uint256"
        }
      ],
      "name": "initToken",
      "outputs": [],
      "stateMutability": "nonpayable",
      "type": "function"
    },
    {
      "inputs": [],
      "name": "name",
      "outputs": [
        {
          "internalType": "string",
          "name": "",
          "type": "string"
        }
      ],
      "stateMutability": "view",
      "type": "function"
    },
    {
      "inputs": [
        {
          "internalType": "address",
          "name": "",
          "type": "address"
        }
      ],
      "name": "nonces",
      "outputs": [
        {
          "internalType": "uint256",
          "name": "",
          "type": "uint256"
        }
      ],
      "stateMutability": "view",
      "type": "function"
    },
    {
      "inputs": [
        {
          "internalType": "address",
          "name": "owner_",
          "type": "address"
        },
        {
          "internalType": "address",
          "name": "spender",
          "type": "address"
        },
        {
          "internalType": "uint256",
          "name": "value",
          "type": "uint256"
        },
        {
          "internalType": "uint256",
          "name": "deadline",
          "type": "uint256"
        },
        {
          "internalType": "uint8",
          "name": "v",
          "type": "uint8"
        },
        {
          "internalType": "bytes32",
          "name": "r",
          "type": "bytes32"
        },
        {
          "internalType": "bytes32",
          "name": "s",
          "type": "bytes32"
        }
      ],
      "name": "permit",
      "outputs": [],
      "stateMutability": "nonpayable",
      "type": "function"
    },
    {
      "inputs": [],
      "name": "symbol",
      "outputs": [
        {
          "internalType": "string",
          "name": "",
          "type": "string"
        }
      ],
      "stateMutability": "view",
      "type": "function"
    },
    {
      "inputs": [],
      "name": "tokenTemplate",
      "outputs": [
        {
          "internalType": "uint256",
          "name": "",
          "type": "uint256"
        }
      ],
      "stateMutability": "view",
      "type": "function"
    },
    {
      "inputs": [],
      "name": "totalSupply",
      "outputs": [
        {
          "internalType": "uint256",
          "name": "",
          "type": "uint256"
        }
      ],
      "stateMutability": "view",
      "type": "function"
    },
    {
      "inputs": [
        {
          "internalType": "address",
          "name": "recipient",
          "type": "address"
        },
        {
          "internalType": "uint256",
          "name": "amount",
          "type": "uint256"
        }
      ],
      "name": "transfer",
      "outputs": [
        {
          "internalType": "bool",
          "name": "",
          "type": "bool"
        }
      ],
      "stateMutability": "nonpayable",
      "type": "function"
    },
    {
      "inputs": [
        {
          "internalType": "address",
          "name": "sender",
          "type": "address"
        },
        {
          "internalType": "address",
          "name": "recipient",
          "type": "address"
        },
        {
          "internalType": "uint256",
          "name": "amount",
          "type": "uint256"
        }
      ],
      "name": "transferFrom",
      "outputs": [
        {
          "internalType": "bool",
          "name": "",
          "type": "bool"
        }
      ],
      "stateMutability": "nonpayable",
      "type": "function"
    }
  ],
  "bytecode": "0x608060405234801561001057600080fd5b506126c1806100206000396000f3fe6080604052600436106101145760003560e01c806360b1cc80116100a0578063a457c2d711610064578063a457c2d7146103ba578063a9059cbb146103f7578063d505accf14610434578063dd62ed3e1461045d578063f21f007c1461049a57610114565b806360b1cc80146102c357806370a08231146102ec5780637ecebe00146103295780638dc7df721461036657806395d89b411461038f57610114565b806323b872dd116100e757806323b872dd146101d7578063313ce567146102145780633644e5151461023f578063395093511461026a5780634ddf47d4146102a757610114565b806306fdde03146101195780630814d3dd14610144578063095ea7b31461016f57806318160ddd146101ac575b600080fd5b34801561012557600080fd5b5061012e6104d7565b60405161013b9190611e8b565b60405180910390f35b34801561015057600080fd5b50610159610569565b6040516101669190611fed565b60405180910390f35b34801561017b57600080fd5b50610196600480360381019061019191906117f4565b61056e565b6040516101a39190611cff565b60405180910390f35b3480156101b857600080fd5b506101c161058c565b6040516101ce9190611fed565b60405180910390f35b3480156101e357600080fd5b506101fe60048036038101906101f99190611707565b610596565b60405161020b9190611cff565b60405180910390f35b34801561022057600080fd5b5061022961066f565b6040516102369190612008565b60405180910390f35b34801561024b57600080fd5b50610254610686565b6040516102619190611d1a565b60405180910390f35b34801561027657600080fd5b50610291600480360381019061028c91906117f4565b61068c565b60405161029e9190611cff565b60405180910390f35b6102c160048036038101906102bc9190611830565b61073f565b005b3480156102cf57600080fd5b506102ea60048036038101906102e59190611830565b610743565b005b3480156102f857600080fd5b50610313600480360381019061030e91906116a2565b610774565b6040516103209190611fed565b60405180910390f35b34801561033557600080fd5b50610350600480360381019061034b91906116a2565b6107bd565b60405161035d9190611fed565b60405180910390f35b34801561037257600080fd5b5061038d600480360381019061038891906119a3565b6107d5565b005b34801561039b57600080fd5b506103a46107ef565b6040516103b19190611e8b565b60405180910390f35b3480156103c657600080fd5b506103e160048036038101906103dc91906117f4565b610881565b6040516103ee9190611cff565b60405180910390f35b34801561040357600080fd5b5061041e600480360381019061041991906117f4565b61094e565b60405161042b9190611cff565b60405180910390f35b34801561044057600080fd5b5061045b60048036038101906104569190611756565b61096c565b005b34801561046957600080fd5b50610484600480360381019061047f91906116cb565b610c08565b6040516104919190611fed565b60405180910390f35b3480156104a657600080fd5b506104c160048036038101906104bc9190611875565b610c8f565b6040516104ce9190611e12565b60405180910390f35b6060600580546104e6906121f9565b80601f0160208091040260200160405190810160405280929190818152602001828054610512906121f9565b801561055f5780601f106105345761010080835404028352916020019161055f565b820191906000526020600020905b81548152906001019060200180831161054257829003601f168201915b5050505050905090565b600181565b600061058261057b610cc7565b8484610ccf565b6001905092915050565b6000600454905090565b60006105a3848484610e9a565b610664846105af610cc7565b61065f8560405180606001604052806028815260200161263f60289139600360008b73ffffffffffffffffffffffffffffffffffffffff1673ffffffffffffffffffffffffffffffffffffffff1681526020019081526020016000206000610615610cc7565b73ffffffffffffffffffffffffffffffffffffffff1673ffffffffffffffffffffffffffffffffffffffff168152602001908152602001600020546111339092919063ffffffff16565b610ccf565b600190509392505050565b6000600760009054906101000a900460ff16905090565b60005481565b6000610735610699610cc7565b8461073085600360006106aa610cc7565b73ffffffffffffffffffffffffffffffffffffffff1673ffffffffffffffffffffffffffffffffffffffff16815260200190815260200160002060008973ffffffffffffffffffffffffffffffffffffffff1673ffffffffffffffffffffffffffffffffffffffff1681526020019081526020016000205461119190919063ffffffff16565b610ccf565b6001905092915050565b5050565b60008060008085858101906107589190611910565b935093509350935061076c848484846107d5565b505050505050565b6000600160008373ffffffffffffffffffffffffffffffffffffffff1673ffffffffffffffffffffffffffffffffffffffff168152602001908152602001600020549050919050565b60026020528060005260406000206000915090505481565b6107df84846111ef565b6107e933826112ff565b50505050565b6060600680546107fe906121f9565b80601f016020809104026020016040519081016040528092919081815260200182805461082a906121f9565b80156108775780601f1061084c57610100808354040283529160200191610877565b820191906000526020600020905b81548152906001019060200180831161085a57829003601f168201915b5050505050905090565b600061094461088e610cc7565b8461093f8560405180606001604052806025815260200161266760259139600360006108b8610cc7565b73ffffffffffffffffffffffffffffffffffffffff1673ffffffffffffffffffffffffffffffffffffffff16815260200190815260200160002060008a73ffffffffffffffffffffffffffffffffffffffff1673ffffffffffffffffffffffffffffffffffffffff168152602001908152602001600020546111339092919063ffffffff16565b610ccf565b6001905092915050565b600061096261095b610cc7565b8484610e9a565b6001905092915050565b600073ffffffffffffffffffffffffffffffffffffffff168773ffffffffffffffffffffffffffffffffffffffff1614156109dc576040517f08c379a00000000000000000000000000000000000000000000000000000000081526004016109d390611f8d565b60405180910390fd5b834210610a1e576040517f08c379a0000000000000000000000000000000000000000000000000000000008152600401610a1590611f2d565b60405180910390fd5b60006040518060400160405280600281526020017f19010000000000000000000000000000000000000000000000000000000000008152506000547f6e71edae12b1b97f4d1f60370fef10105fa2faae0126114a169c64845d6126c960001b8a8a8a600260008f73ffffffffffffffffffffffffffffffffffffffff1673ffffffffffffffffffffffffffffffffffffffff1681526020019081526020016000206000815480929190610ad09061225c565b919050558b604051602001610aea96959493929190611d35565b60405160208183030381529060405280519060200120604051602001610b1293929190611cc6565b604051602081830303815290604052805190602001209050600060018286868660405160008152602001604052604051610b4f9493929190611dcd565b6020604051602081039080840390855afa158015610b71573d6000803e3d6000fd5b5050506020604051035190508873ffffffffffffffffffffffffffffffffffffffff168173ffffffffffffffffffffffffffffffffffffffff1614610beb576040517f08c379a0000000000000000000000000000000000000000000000000000000008152600401610be290611fcd565b60405180910390fd5b610bfd610bf6610cc7565b8989610ccf565b505050505050505050565b6000600360008473ffffffffffffffffffffffffffffffffffffffff1673ffffffffffffffffffffffffffffffffffffffff16815260200190815260200160002060008373ffffffffffffffffffffffffffffffffffffffff1673ffffffffffffffffffffffffffffffffffffffff16815260200190815260200160002054905092915050565b6060868686868686604051602001610cac96959493929190611e34565b60405160208183030381529060405290509695505050505050565b600033905090565b600073ffffffffffffffffffffffffffffffffffffffff168373ffffffffffffffffffffffffffffffffffffffff161415610d3f576040517f08c379a0000000000000000000000000000000000000000000000000000000008152600401610d3690611f6d565b60405180910390fd5b600073ffffffffffffffffffffffffffffffffffffffff168273ffffffffffffffffffffffffffffffffffffffff161415610daf576040517f08c379a0000000000000000000000000000000000000000000000000000000008152600401610da690611ecd565b60405180910390fd5b80600360008573ffffffffffffffffffffffffffffffffffffffff1673ffffffffffffffffffffffffffffffffffffffff16815260200190815260200160002060008473ffffffffffffffffffffffffffffffffffffffff1673ffffffffffffffffffffffffffffffffffffffff168152602001908152602001600020819055508173ffffffffffffffffffffffffffffffffffffffff168373ffffffffffffffffffffffffffffffffffffffff167f8c5be1e5ebec7d5bd14f71427d1e84f3dd0314c0f7b2291e5b200ac8c7c3b92583604051610e8d9190611fed565b60405180910390a3505050565b600073ffffffffffffffffffffffffffffffffffffffff168373ffffffffffffffffffffffffffffffffffffffff161415610f0a576040517f08c379a0000000000000000000000000000000000000000000000000000000008152600401610f0190611f4d565b60405180910390fd5b600073ffffffffffffffffffffffffffffffffffffffff168273ffffffffffffffffffffffffffffffffffffffff161415610f7a576040517f08c379a0000000000000000000000000000000000000000000000000000000008152600401610f7190611ead565b60405180910390fd5b610f85838383611495565b610ff18160405180606001604052806026815260200161261960269139600160008773ffffffffffffffffffffffffffffffffffffffff1673ffffffffffffffffffffffffffffffffffffffff168152602001908152602001600020546111339092919063ffffffff16565b600160008573ffffffffffffffffffffffffffffffffffffffff1673ffffffffffffffffffffffffffffffffffffffff1681526020019081526020016000208190555061108681600160008573ffffffffffffffffffffffffffffffffffffffff1673ffffffffffffffffffffffffffffffffffffffff1681526020019081526020016000205461119190919063ffffffff16565b600160008473ffffffffffffffffffffffffffffffffffffffff1673ffffffffffffffffffffffffffffffffffffffff168152602001908152602001600020819055508173ffffffffffffffffffffffffffffffffffffffff168373ffffffffffffffffffffffffffffffffffffffff167fddf252ad1be2c89b69c2b068fc378daa952ba7f163c4a11628f55a4df523b3ef836040516111269190611fed565b60405180910390a3505050565b600083831115829061117b576040517f08c379a00000000000000000000000000000000000000000000000000000000081526004016111729190611e8b565b60405180910390fd5b5082846111889190612112565b90509392505050565b60008082846111a091906120bc565b9050838110156111e5576040517f08c379a00000000000000000000000000000000000000000000000000000000081526004016111dc90611eed565b60405180910390fd5b8091505092915050565b600760019054906101000a900460ff161561123f576040517f08c379a000000000000000000000000000000000000000000000000000000000815260040161123690611f0d565b60405180910390fd5b816005908051906020019061125592919061149a565b50806006908051906020019061126c92919061149a565b506012600760006101000a81548160ff021916908360ff16021790555060004690507f47e79534a245952e8b16893a336b85a3d9ea9fa8c573f3d803afb92a7946921881306040516020016112c393929190611d96565b604051602081830303815290604052805190602001206000819055506001600760016101000a81548160ff021916908315150217905550505050565b600073ffffffffffffffffffffffffffffffffffffffff168273ffffffffffffffffffffffffffffffffffffffff16141561136f576040517f08c379a000000000000000000000000000000000000000000000000000000000815260040161136690611fad565b60405180910390fd5b61137b60008383611495565b6113908160045461119190919063ffffffff16565b6004819055506113e881600160008573ffffffffffffffffffffffffffffffffffffffff1673ffffffffffffffffffffffffffffffffffffffff1681526020019081526020016000205461119190919063ffffffff16565b600160008473ffffffffffffffffffffffffffffffffffffffff1673ffffffffffffffffffffffffffffffffffffffff168152602001908152602001600020819055508173ffffffffffffffffffffffffffffffffffffffff16600073ffffffffffffffffffffffffffffffffffffffff167fddf252ad1be2c89b69c2b068fc378daa952ba7f163c4a11628f55a4df523b3ef836040516114899190611fed565b60405180910390a35050565b505050565b8280546114a6906121f9565b90600052602060002090601f0160209004810192826114c8576000855561150f565b82601f106114e157805160ff191683800117855561150f565b8280016001018555821561150f579182015b8281111561150e5782518255916020019190600101906114f3565b5b50905061151c9190611520565b5090565b5b80821115611539576000816000905550600101611521565b5090565b600061155061154b84612048565b612023565b90508281526020810184848401111561156857600080fd5b6115738482856121b7565b509392505050565b60008135905061158a816125a5565b92915050565b60008135905061159f816125bc565b92915050565b6000813590506115b4816125d3565b92915050565b60008083601f8401126115cc57600080fd5b8235905067ffffffffffffffff8111156115e557600080fd5b6020830191508360018202830111156115fd57600080fd5b9250929050565b60008083601f84011261161657600080fd5b8235905067ffffffffffffffff81111561162f57600080fd5b60208301915083600182028301111561164757600080fd5b9250929050565b600082601f83011261165f57600080fd5b813561166f84826020860161153d565b91505092915050565b600081359050611687816125ea565b92915050565b60008135905061169c81612601565b92915050565b6000602082840312156116b457600080fd5b60006116c28482850161157b565b91505092915050565b600080604083850312156116de57600080fd5b60006116ec8582860161157b565b92505060206116fd8582860161157b565b9150509250929050565b60008060006060848603121561171c57600080fd5b600061172a8682870161157b565b935050602061173b8682870161157b565b925050604061174c86828701611678565b9150509250925092565b600080600080600080600060e0888a03121561177157600080fd5b600061177f8a828b0161157b565b97505060206117908a828b0161157b565b96505060406117a18a828b01611678565b95505060606117b28a828b01611678565b94505060806117c38a828b0161168d565b93505060a06117d48a828b016115a5565b92505060c06117e58a828b016115a5565b91505092959891949750929550565b6000806040838503121561180757600080fd5b60006118158582860161157b565b925050602061182685828601611678565b9150509250929050565b6000806020838503121561184357600080fd5b600083013567ffffffffffffffff81111561185d57600080fd5b611869858286016115ba565b92509250509250929050565b6000806000806000806080878903121561188e57600080fd5b600087013567ffffffffffffffff8111156118a857600080fd5b6118b489828a01611604565b9650965050602087013567ffffffffffffffff8111156118d357600080fd5b6118df89828a01611604565b945094505060406118f289828a0161157b565b925050606061190389828a01611678565b9150509295509295509295565b6000806000806080858703121561192657600080fd5b600085013567ffffffffffffffff81111561194057600080fd5b61194c8782880161164e565b945050602085013567ffffffffffffffff81111561196957600080fd5b6119758782880161164e565b935050604061198687828801611590565b925050606061199787828801611678565b91505092959194509250565b600080600080608085870312156119b957600080fd5b600085013567ffffffffffffffff8111156119d357600080fd5b6119df8782880161164e565b945050602085013567ffffffffffffffff8111156119fc57600080fd5b611a088782880161164e565b9350506040611a198782880161157b565b9250506060611a2a87828801611678565b91505092959194509250565b611a3f81612146565b82525050565b611a4e8161216a565b82525050565b611a5d81612176565b82525050565b611a74611a6f82612176565b6122a5565b82525050565b6000611a8582612079565b611a8f818561208f565b9350611a9f8185602086016121c6565b611aa88161233c565b840191505092915050565b6000611abf83856120a0565b9350611acc8385846121b7565b611ad58361233c565b840190509392505050565b6000611aeb82612084565b611af581856120a0565b9350611b058185602086016121c6565b611b0e8161233c565b840191505092915050565b6000611b2482612084565b611b2e81856120b1565b9350611b3e8185602086016121c6565b80840191505092915050565b6000611b576023836120a0565b9150611b628261234d565b604082019050919050565b6000611b7a6022836120a0565b9150611b858261239c565b604082019050919050565b6000611b9d601b836120a0565b9150611ba8826123eb565b602082019050919050565b6000611bc0602a836120a0565b9150611bcb82612414565b604082019050919050565b6000611be3600e836120a0565b9150611bee82612463565b602082019050919050565b6000611c066025836120a0565b9150611c118261248c565b604082019050919050565b6000611c296024836120a0565b9150611c34826124db565b604082019050919050565b6000611c4c6018836120a0565b9150611c578261252a565b602082019050919050565b6000611c6f601f836120a0565b9150611c7a82612553565b602082019050919050565b6000611c926018836120a0565b9150611c9d8261257c565b602082019050919050565b611cb1816121a0565b82525050565b611cc0816121aa565b82525050565b6000611cd28286611b19565b9150611cde8285611a63565b602082019150611cee8284611a63565b602082019150819050949350505050565b6000602082019050611d146000830184611a45565b92915050565b6000602082019050611d2f6000830184611a54565b92915050565b600060c082019050611d4a6000830189611a54565b611d576020830188611a36565b611d646040830187611a36565b611d716060830186611ca8565b611d7e6080830185611ca8565b611d8b60a0830184611ca8565b979650505050505050565b6000606082019050611dab6000830186611a54565b611db86020830185611ca8565b611dc56040830184611a36565b949350505050565b6000608082019050611de26000830187611a54565b611def6020830186611cb7565b611dfc6040830185611a54565b611e096060830184611a54565b95945050505050565b60006020820190508181036000830152611e2c8184611a7a565b905092915050565b60006080820190508181036000830152611e4f81888a611ab3565b90508181036020830152611e64818688611ab3565b9050611e736040830185611a36565b611e806060830184611ca8565b979650505050505050565b60006020820190508181036000830152611ea58184611ae0565b905092915050565b60006020820190508181036000830152611ec681611b4a565b9050919050565b60006020820190508181036000830152611ee681611b6d565b9050919050565b60006020820190508181036000830152611f0681611b90565b9050919050565b60006020820190508181036000830152611f2681611bb3565b9050919050565b60006020820190508181036000830152611f4681611bd6565b9050919050565b60006020820190508181036000830152611f6681611bf9565b9050919050565b60006020820190508181036000830152611f8681611c1c565b9050919050565b60006020820190508181036000830152611fa681611c3f565b9050919050565b60006020820190508181036000830152611fc681611c62565b9050919050565b60006020820190508181036000830152611fe681611c85565b9050919050565b60006020820190506120026000830184611ca8565b92915050565b600060208201905061201d6000830184611cb7565b92915050565b600061202d61203e565b9050612039828261222b565b919050565b6000604051905090565b600067ffffffffffffffff8211156120635761206261230d565b5b61206c8261233c565b9050602081019050919050565b600081519050919050565b600081519050919050565b600082825260208201905092915050565b600082825260208201905092915050565b600081905092915050565b60006120c7826121a0565b91506120d2836121a0565b9250827fffffffffffffffffffffffffffffffffffffffffffffffffffffffffffffffff03821115612107576121066122af565b5b828201905092915050565b600061211d826121a0565b9150612128836121a0565b92508282101561213b5761213a6122af565b5b828203905092915050565b600061215182612180565b9050919050565b600061216382612180565b9050919050565b60008115159050919050565b6000819050919050565b600073ffffffffffffffffffffffffffffffffffffffff82169050919050565b6000819050919050565b600060ff82169050919050565b82818337600083830152505050565b60005b838110156121e45780820151818401526020810190506121c9565b838111156121f3576000848401525b50505050565b6000600282049050600182168061221157607f821691505b60208210811415612225576122246122de565b5b50919050565b6122348261233c565b810181811067ffffffffffffffff821117156122535761225261230d565b5b80604052505050565b6000612267826121a0565b91507fffffffffffffffffffffffffffffffffffffffffffffffffffffffffffffffff82141561229a576122996122af565b5b600182019050919050565b6000819050919050565b7f4e487b7100000000000000000000000000000000000000000000000000000000600052601160045260246000fd5b7f4e487b7100000000000000000000000000000000000000000000000000000000600052602260045260246000fd5b7f4e487b7100000000000000000000000000000000000000000000000000000000600052604160045260246000fd5b6000601f19601f8301169050919050565b7f45524332303a207472616e7366657220746f20746865207a65726f206164647260008201527f6573730000000000000000000000000000000000000000000000000000000000602082015250565b7f45524332303a20617070726f766520746f20746865207a65726f20616464726560008201527f7373000000000000000000000000000000000000000000000000000000000000602082015250565b7f536166654d6174683a206164646974696f6e206f766572666c6f770000000000600082015250565b7f45524332303a20746f6b656e2068617320616c7265616479206265656e20696e60008201527f697469616c697a65642100000000000000000000000000000000000000000000602082015250565b7f45524332303a2045787069726564000000000000000000000000000000000000600082015250565b7f45524332303a207472616e736665722066726f6d20746865207a65726f20616460008201527f6472657373000000000000000000000000000000000000000000000000000000602082015250565b7f45524332303a20617070726f76652066726f6d20746865207a65726f2061646460008201527f7265737300000000000000000000000000000000000000000000000000000000602082015250565b7f45524332303a204f776e65722063616e6e6f7420626520300000000000000000600082015250565b7f45524332303a206d696e7420746f20746865207a65726f206164647265737300600082015250565b7f45524332303a20496e76616c6964205369676e61747572650000000000000000600082015250565b6125ae81612146565b81146125b957600080fd5b50565b6125c581612158565b81146125d057600080fd5b50565b6125dc81612176565b81146125e757600080fd5b50565b6125f3816121a0565b81146125fe57600080fd5b50565b61260a816121aa565b811461261557600080fd5b5056fe45524332303a207472616e7366657220616d6f756e7420657863656564732062616c616e636545524332303a207472616e7366657220616d6f756e74206578636565647320616c6c6f77616e636545524332303a2064656372656173656420616c6c6f77616e63652062656c6f77207a65726fa2646970667358221220a23b5af362e403d5e843048765218017a1a489aa308807244dbada74ecd3a50564736f6c63430008040033",
  "linkReferences": {},
  "deployedLinkReferences": {}
}