{
  "_format": "hh-sol-artifact-1",
  "contractName": "FixedToken",
  "sourceName": "contracts/Tokens/FixedToken.sol",
  "abi": [
    {
      "anonymous": false,
      "inputs": [
        {
          "indexed": true,
          "internalType": "address",
          "name": "owner",
          "type": "address"
        },
        {
          "indexed": true,
          "internalType": "address",
          "name": "spender",
          "type": "address"
        },
        {
          "indexed": false,
          "internalType": "uint256",
          "name": "value",
          "type": "uint256"
        }
      ],
      "name": "Approval",
      "type": "event"
    },
    {
      "anonymous": false,
      "inputs": [
        {
          "indexed": true,
          "internalType": "address",
          "name": "from",
          "type": "address"
        },
        {
          "indexed": true,
          "internalType": "address",
          "name": "to",
          "type": "address"
        },
        {
          "indexed": false,
          "internalType": "uint256",
          "name": "value",
          "type": "uint256"
        }
      ],
      "name": "Transfer",
      "type": "event"
    },
    {
      "inputs": [],
      "name": "DOMAIN_SEPARATOR",
      "outputs": [
        {
          "internalType": "bytes32",
          "name": "",
          "type": "bytes32"
        }
      ],
      "stateMutability": "view",
      "type": "function"
    },
    {
      "inputs": [
        {
          "internalType": "address",
          "name": "owner",
          "type": "address"
        },
        {
          "internalType": "address",
          "name": "spender",
          "type": "address"
        }
      ],
      "name": "allowance",
      "outputs": [
        {
          "internalType": "uint256",
          "name": "",
          "type": "uint256"
        }
      ],
      "stateMutability": "view",
      "type": "function"
    },
    {
      "inputs": [
        {
          "internalType": "address",
          "name": "spender",
          "type": "address"
        },
        {
          "internalType": "uint256",
          "name": "amount",
          "type": "uint256"
        }
      ],
      "name": "approve",
      "outputs": [
        {
          "internalType": "bool",
          "name": "",
          "type": "bool"
        }
      ],
      "stateMutability": "nonpayable",
      "type": "function"
    },
    {
      "inputs": [
        {
          "internalType": "address",
          "name": "account",
          "type": "address"
        }
      ],
      "name": "balanceOf",
      "outputs": [
        {
          "internalType": "uint256",
          "name": "",
          "type": "uint256"
        }
      ],
      "stateMutability": "view",
      "type": "function"
    },
    {
      "inputs": [],
      "name": "decimals",
      "outputs": [
        {
          "internalType": "uint8",
          "name": "",
          "type": "uint8"
        }
      ],
      "stateMutability": "view",
      "type": "function"
    },
    {
      "inputs": [
        {
          "internalType": "address",
          "name": "spender",
          "type": "address"
        },
        {
          "internalType": "uint256",
          "name": "subtractedValue",
          "type": "uint256"
        }
      ],
      "name": "decreaseAllowance",
      "outputs": [
        {
          "internalType": "bool",
          "name": "",
          "type": "bool"
        }
      ],
      "stateMutability": "nonpayable",
      "type": "function"
    },
    {
      "inputs": [
        {
          "internalType": "string",
          "name": "_name",
          "type": "string"
        },
        {
          "internalType": "string",
          "name": "_symbol",
          "type": "string"
        },
        {
          "internalType": "address",
          "name": "_owner",
          "type": "address"
        },
        {
          "internalType": "uint256",
          "name": "_initialSupply",
          "type": "uint256"
        }
      ],
      "name": "getInitData",
      "outputs": [
        {
          "internalType": "bytes",
          "name": "_data",
          "type": "bytes"
        }
      ],
      "stateMutability": "pure",
      "type": "function"
    },
    {
      "inputs": [
        {
          "internalType": "address",
          "name": "spender",
          "type": "address"
        },
        {
          "internalType": "uint256",
          "name": "addedValue",
          "type": "uint256"
        }
      ],
      "name": "increaseAllowance",
      "outputs": [
        {
          "internalType": "bool",
          "name": "",
          "type": "bool"
        }
      ],
      "stateMutability": "nonpayable",
      "type": "function"
    },
    {
      "inputs": [
        {
          "internalType": "bytes",
          "name": "_data",
          "type": "bytes"
        }
      ],
      "name": "init",
      "outputs": [],
      "stateMutability": "payable",
      "type": "function"
    },
    {
      "inputs": [
        {
          "internalType": "bytes",
          "name": "_data",
          "type": "bytes"
        }
      ],
      "name": "initToken",
      "outputs": [],
      "stateMutability": "nonpayable",
      "type": "function"
    },
    {
      "inputs": [
        {
          "internalType": "string",
          "name": "_name",
          "type": "string"
        },
        {
          "internalType": "string",
          "name": "_symbol",
          "type": "string"
        },
        {
          "internalType": "address",
          "name": "_owner",
          "type": "address"
        },
        {
          "internalType": "uint256",
          "name": "_initialSupply",
          "type": "uint256"
        }
      ],
      "name": "initToken",
      "outputs": [],
      "stateMutability": "nonpayable",
      "type": "function"
    },
    {
      "inputs": [],
      "name": "name",
      "outputs": [
        {
          "internalType": "string",
          "name": "",
          "type": "string"
        }
      ],
      "stateMutability": "view",
      "type": "function"
    },
    {
      "inputs": [
        {
          "internalType": "address",
          "name": "",
          "type": "address"
        }
      ],
      "name": "nonces",
      "outputs": [
        {
          "internalType": "uint256",
          "name": "",
          "type": "uint256"
        }
      ],
      "stateMutability": "view",
      "type": "function"
    },
    {
      "inputs": [
        {
          "internalType": "address",
          "name": "owner_",
          "type": "address"
        },
        {
          "internalType": "address",
          "name": "spender",
          "type": "address"
        },
        {
          "internalType": "uint256",
          "name": "value",
          "type": "uint256"
        },
        {
          "internalType": "uint256",
          "name": "deadline",
          "type": "uint256"
        },
        {
          "internalType": "uint8",
          "name": "v",
          "type": "uint8"
        },
        {
          "internalType": "bytes32",
          "name": "r",
          "type": "bytes32"
        },
        {
          "internalType": "bytes32",
          "name": "s",
          "type": "bytes32"
        }
      ],
      "name": "permit",
      "outputs": [],
      "stateMutability": "nonpayable",
      "type": "function"
    },
    {
      "inputs": [],
      "name": "symbol",
      "outputs": [
        {
          "internalType": "string",
          "name": "",
          "type": "string"
        }
      ],
      "stateMutability": "view",
      "type": "function"
    },
    {
      "inputs": [],
      "name": "tokenTemplate",
      "outputs": [
        {
          "internalType": "uint256",
          "name": "",
          "type": "uint256"
        }
      ],
      "stateMutability": "view",
      "type": "function"
    },
    {
      "inputs": [],
      "name": "totalSupply",
      "outputs": [
        {
          "internalType": "uint256",
          "name": "",
          "type": "uint256"
        }
      ],
      "stateMutability": "view",
      "type": "function"
    },
    {
      "inputs": [
        {
          "internalType": "address",
          "name": "recipient",
          "type": "address"
        },
        {
          "internalType": "uint256",
          "name": "amount",
          "type": "uint256"
        }
      ],
      "name": "transfer",
      "outputs": [
        {
          "internalType": "bool",
          "name": "",
          "type": "bool"
        }
      ],
      "stateMutability": "nonpayable",
      "type": "function"
    },
    {
      "inputs": [
        {
          "internalType": "address",
          "name": "sender",
          "type": "address"
        },
        {
          "internalType": "address",
          "name": "recipient",
          "type": "address"
        },
        {
          "internalType": "uint256",
          "name": "amount",
          "type": "uint256"
        }
      ],
      "name": "transferFrom",
      "outputs": [
        {
          "internalType": "bool",
          "name": "",
          "type": "bool"
        }
      ],
      "stateMutability": "nonpayable",
      "type": "function"
    }
  ],
  "bytecode": "0x608060405234801561001057600080fd5b5061148d806100206000396000f3fe6080604052600436106101445760003560e01c806360b1cc80116100c0578063a457c2d711610074578063d505accf11610059578063d505accf14610360578063dd62ed3e14610380578063f21f007c146103c657600080fd5b8063a457c2d714610320578063a9059cbb1461034057600080fd5b80637ecebe00116100a55780637ecebe00146102be5780638dc7df72146102eb57806395d89b411461030b57600080fd5b806360b1cc801461026857806370a082311461028857600080fd5b806323b872dd116101175780633644e515116100fc5780633644e5151461021e57806339509351146102345780634ddf47d41461025457600080fd5b806323b872dd146101dc578063313ce567146101fc57600080fd5b806306fdde03146101495780630814d3dd14610174578063095ea7b31461019757806318160ddd146101c7575b600080fd5b34801561015557600080fd5b5061015e6103e6565b60405161016b9190611296565b60405180910390f35b34801561018057600080fd5b50610189600181565b60405190815260200161016b565b3480156101a357600080fd5b506101b76101b23660046110ab565b610478565b604051901515815260200161016b565b3480156101d357600080fd5b50600454610189565b3480156101e857600080fd5b506101b76101f7366004610ff6565b61048e565b34801561020857600080fd5b5060075460405160ff909116815260200161016b565b34801561022a57600080fd5b5061018960005481565b34801561024057600080fd5b506101b761024f3660046110ab565b6104f7565b6102666102623660046110d6565b5050565b005b34801561027457600080fd5b506102666102833660046110d6565b61052d565b34801561029457600080fd5b506101896102a3366004610fa2565b6001600160a01b031660009081526001602052604090205490565b3480156102ca57600080fd5b506101896102d9366004610fa2565b60026020526000908152604090205481565b3480156102f757600080fd5b5061026661030636600461119f565b61055a565b34801561031757600080fd5b5061015e610574565b34801561032c57600080fd5b506101b761033b3660046110ab565b610583565b34801561034c57600080fd5b506101b761035b3660046110ab565b6105d2565b34801561036c57600080fd5b5061026661037b366004611036565b6105df565b34801561038c57600080fd5b5061018961039b366004610fbe565b6001600160a01b03918216600090815260036020908152604080832093909416825291909152205490565b3480156103d257600080fd5b5061015e6103e1366004611116565b61085f565b6060600580546103f59061134a565b80601f01602080910402602001604051908101604052809291908181526020018280546104219061134a565b801561046e5780601f106104435761010080835404028352916020019161046e565b820191906000526020600020905b81548152906001019060200180831161045157829003601f168201915b5050505050905090565b6000610485338484610897565b50600192915050565b600061049b8484846109f0565b6104ed84336104e88560405180606001604052806028815260200161140b602891396001600160a01b038a1660009081526003602090815260408083203384529091529020549190610ba8565b610897565b5060019392505050565b3360008181526003602090815260408083206001600160a01b038716845290915281205490916104859185906104e89086610bdf565b600080808061053e8587018761119f565b93509350935093506105528484848461055a565b505050505050565b6105648484610c45565b61056e8282610d55565b50505050565b6060600680546103f59061134a565b600061048533846104e885604051806060016040528060258152602001611433602591393360009081526003602090815260408083206001600160a01b038d1684529091529020549190610ba8565b60006104853384846109f0565b6001600160a01b03871661063a5760405162461bcd60e51b815260206004820152601860248201527f45524332303a204f776e65722063616e6e6f742062652030000000000000000060448201526064015b60405180910390fd5b8342106106895760405162461bcd60e51b815260206004820152600e60248201527f45524332303a20457870697265640000000000000000000000000000000000006044820152606401610631565b60408051808201825260028082527f1901000000000000000000000000000000000000000000000000000000000000602080840191909152600080546001600160a01b038d1682529290915292832080547f6e71edae12b1b97f4d1f60370fef10105fa2faae0126114a169c64845d6126c9918c918c918c91908861070d83611385565b909155506040805160208101969096526001600160a01b0394851690860152929091166060840152608083015260a082015260c0810188905260e001604051602081830303815290604052805190602001206040516020016107719392919061126f565b60408051601f198184030181528282528051602091820120600080855291840180845281905260ff88169284019290925260608301869052608083018590529092509060019060a0016020604051602081039080840390855afa1580156107dc573d6000803e3d6000fd5b505050602060405103519050886001600160a01b0316816001600160a01b0316146108495760405162461bcd60e51b815260206004820152601860248201527f45524332303a20496e76616c6964205369676e617475726500000000000000006044820152606401610631565b610854338989610897565b505050505050505050565b606086868686868660405160200161087c969594939291906112a9565b60405160208183030381529060405290509695505050505050565b6001600160a01b0383166109125760405162461bcd60e51b8152602060048201526024808201527f45524332303a20617070726f76652066726f6d20746865207a65726f2061646460448201527f72657373000000000000000000000000000000000000000000000000000000006064820152608401610631565b6001600160a01b03821661098e5760405162461bcd60e51b815260206004820152602260248201527f45524332303a20617070726f766520746f20746865207a65726f20616464726560448201527f73730000000000000000000000000000000000000000000000000000000000006064820152608401610631565b6001600160a01b0383811660008181526003602090815260408083209487168084529482529182902085905590518481527f8c5be1e5ebec7d5bd14f71427d1e84f3dd0314c0f7b2291e5b200ac8c7c3b92591015b60405180910390a3505050565b6001600160a01b038316610a6c5760405162461bcd60e51b815260206004820152602560248201527f45524332303a207472616e736665722066726f6d20746865207a65726f20616460448201527f64726573730000000000000000000000000000000000000000000000000000006064820152608401610631565b6001600160a01b038216610ae85760405162461bcd60e51b815260206004820152602360248201527f45524332303a207472616e7366657220746f20746865207a65726f206164647260448201527f65737300000000000000000000000000000000000000000000000000000000006064820152608401610631565b610b25816040518060600160405280602681526020016113e5602691396001600160a01b0386166000908152600160205260409020549190610ba8565b6001600160a01b038085166000908152600160205260408082209390935590841681522054610b549082610bdf565b6001600160a01b0380841660008181526001602052604090819020939093559151908516907fddf252ad1be2c89b69c2b068fc378daa952ba7f163c4a11628f55a4df523b3ef906109e39085815260200190565b60008184841115610bcc5760405162461bcd60e51b81526004016106319190611296565b50610bd78385611307565b949350505050565b600080610bec83856112ef565b905083811015610c3e5760405162461bcd60e51b815260206004820152601b60248201527f536166654d6174683a206164646974696f6e206f766572666c6f7700000000006044820152606401610631565b9392505050565b600754610100900460ff1615610cc35760405162461bcd60e51b815260206004820152602a60248201527f45524332303a20746f6b656e2068617320616c7265616479206265656e20696e60448201527f697469616c697a656421000000000000000000000000000000000000000000006064820152608401610631565b8151610cd6906005906020850190610e3b565b508051610cea906006906020840190610e3b565b505060078054604080517f47e79534a245952e8b16893a336b85a3d9ea9fa8c573f3d803afb92a79469218602080830191909152468284015230606080840191909152835180840390910181526080909201909252805191012060005561ffff191661011217905550565b6001600160a01b038216610dab5760405162461bcd60e51b815260206004820152601f60248201527f45524332303a206d696e7420746f20746865207a65726f2061646472657373006044820152606401610631565b600454610db89082610bdf565b6004556001600160a01b038216600090815260016020526040902054610dde9082610bdf565b6001600160a01b0383166000818152600160205260408082209390935591519091907fddf252ad1be2c89b69c2b068fc378daa952ba7f163c4a11628f55a4df523b3ef90610e2f9085815260200190565b60405180910390a35050565b828054610e479061134a565b90600052602060002090601f016020900481019282610e695760008555610eaf565b82601f10610e8257805160ff1916838001178555610eaf565b82800160010185558215610eaf579182015b82811115610eaf578251825591602001919060010190610e94565b50610ebb929150610ebf565b5090565b5b80821115610ebb5760008155600101610ec0565b60008083601f840112610ee5578182fd5b50813567ffffffffffffffff811115610efc578182fd5b602083019150836020828501011115610f1457600080fd5b9250929050565b600082601f830112610f2b578081fd5b813567ffffffffffffffff80821115610f4657610f466113b6565b604051601f8301601f19908116603f01168101908282118183101715610f6e57610f6e6113b6565b81604052838152866020858801011115610f86578485fd5b8360208701602083013792830160200193909352509392505050565b600060208284031215610fb3578081fd5b8135610c3e816113cc565b60008060408385031215610fd0578081fd5b8235610fdb816113cc565b91506020830135610feb816113cc565b809150509250929050565b60008060006060848603121561100a578081fd5b8335611015816113cc565b92506020840135611025816113cc565b929592945050506040919091013590565b600080600080600080600060e0888a031215611050578283fd5b873561105b816113cc565b9650602088013561106b816113cc565b95506040880135945060608801359350608088013560ff8116811461108e578384fd5b9699959850939692959460a0840135945060c09093013592915050565b600080604083850312156110bd578182fd5b82356110c8816113cc565b946020939093013593505050565b600080602083850312156110e8578182fd5b823567ffffffffffffffff8111156110fe578283fd5b61110a85828601610ed4565b90969095509350505050565b6000806000806000806080878903121561112e578182fd5b863567ffffffffffffffff80821115611145578384fd5b6111518a838b01610ed4565b90985096506020890135915080821115611169578384fd5b5061117689828a01610ed4565b909550935050604087013561118a816113cc565b80925050606087013590509295509295509295565b600080600080608085870312156111b4578384fd5b843567ffffffffffffffff808211156111cb578586fd5b6111d788838901610f1b565b955060208701359150808211156111ec578485fd5b506111f987828801610f1b565b935050604085013561120a816113cc565b9396929550929360600135925050565b6000815180845261123281602086016020860161131e565b601f01601f19169290920160200192915050565b81835281816020850137506000828201602090810191909152601f909101601f19169091010190565b6000845161128181846020890161131e565b91909101928352506020820152604001919050565b602081526000610c3e602083018461121a565b6080815260006112bd60808301888a611246565b82810360208401526112d0818789611246565b6001600160a01b03959095166040840152505060600152949350505050565b60008219821115611302576113026113a0565b500190565b600082821015611319576113196113a0565b500390565b60005b83811015611339578181015183820152602001611321565b8381111561056e5750506000910152565b600181811c9082168061135e57607f821691505b6020821081141561137f57634e487b7160e01b600052602260045260246000fd5b50919050565b6000600019821415611399576113996113a0565b5060010190565b634e487b7160e01b600052601160045260246000fd5b634e487b7160e01b600052604160045260246000fd5b6001600160a01b03811681146113e157600080fd5b5056fe45524332303a207472616e7366657220616d6f756e7420657863656564732062616c616e636545524332303a207472616e7366657220616d6f756e74206578636565647320616c6c6f77616e636545524332303a2064656372656173656420616c6c6f77616e63652062656c6f77207a65726fa26469706673582212204d4652fc550d3c04e7a33423217a324fbb745b9d162c578b0faa8bca3135a70264736f6c63430008040033",
  "linkReferences": {},
  "deployedLinkReferences": {}
}