{
  "_format": "hh-sol-artifact-1",
  "contractName": "SushiToken",
  "sourceName": "contracts/Tokens/SushiToken.sol",
  "abi": [
    {
      "anonymous": false,
      "inputs": [
        {
          "indexed": true,
          "internalType": "address",
          "name": "owner",
          "type": "address"
        },
        {
          "indexed": true,
          "internalType": "address",
          "name": "spender",
          "type": "address"
        },
        {
          "indexed": false,
          "internalType": "uint256",
          "name": "value",
          "type": "uint256"
        }
      ],
      "name": "Approval",
      "type": "event"
    },
    {
      "anonymous": false,
      "inputs": [
        {
          "indexed": true,
          "internalType": "address",
          "name": "delegator",
          "type": "address"
        },
        {
          "indexed": true,
          "internalType": "address",
          "name": "fromDelegate",
          "type": "address"
        },
        {
          "indexed": true,
          "internalType": "address",
          "name": "toDelegate",
          "type": "address"
        }
      ],
      "name": "DelegateChanged",
      "type": "event"
    },
    {
      "anonymous": false,
      "inputs": [
        {
          "indexed": true,
          "internalType": "address",
          "name": "delegate",
          "type": "address"
        },
        {
          "indexed": false,
          "internalType": "uint256",
          "name": "previousBalance",
          "type": "uint256"
        },
        {
          "indexed": false,
          "internalType": "uint256",
          "name": "newBalance",
          "type": "uint256"
        }
      ],
      "name": "DelegateVotesChanged",
      "type": "event"
    },
    {
      "anonymous": false,
      "inputs": [
        {
          "indexed": true,
          "internalType": "bytes32",
          "name": "role",
          "type": "bytes32"
        },
        {
          "indexed": true,
          "internalType": "bytes32",
          "name": "previousAdminRole",
          "type": "bytes32"
        },
        {
          "indexed": true,
          "internalType": "bytes32",
          "name": "newAdminRole",
          "type": "bytes32"
        }
      ],
      "name": "RoleAdminChanged",
      "type": "event"
    },
    {
      "anonymous": false,
      "inputs": [
        {
          "indexed": true,
          "internalType": "bytes32",
          "name": "role",
          "type": "bytes32"
        },
        {
          "indexed": true,
          "internalType": "address",
          "name": "account",
          "type": "address"
        },
        {
          "indexed": true,
          "internalType": "address",
          "name": "sender",
          "type": "address"
        }
      ],
      "name": "RoleGranted",
      "type": "event"
    },
    {
      "anonymous": false,
      "inputs": [
        {
          "indexed": true,
          "internalType": "bytes32",
          "name": "role",
          "type": "bytes32"
        },
        {
          "indexed": true,
          "internalType": "address",
          "name": "account",
          "type": "address"
        },
        {
          "indexed": true,
          "internalType": "address",
          "name": "sender",
          "type": "address"
        }
      ],
      "name": "RoleRevoked",
      "type": "event"
    },
    {
      "anonymous": false,
      "inputs": [
        {
          "indexed": true,
          "internalType": "address",
          "name": "from",
          "type": "address"
        },
        {
          "indexed": true,
          "internalType": "address",
          "name": "to",
          "type": "address"
        },
        {
          "indexed": false,
          "internalType": "uint256",
          "name": "value",
          "type": "uint256"
        }
      ],
      "name": "Transfer",
      "type": "event"
    },
    {
      "inputs": [],
      "name": "DEFAULT_ADMIN_ROLE",
      "outputs": [
        {
          "internalType": "bytes32",
          "name": "",
          "type": "bytes32"
        }
      ],
      "stateMutability": "view",
      "type": "function"
    },
    {
      "inputs": [],
      "name": "DELEGATION_TYPEHASH",
      "outputs": [
        {
          "internalType": "bytes32",
          "name": "",
          "type": "bytes32"
        }
      ],
      "stateMutability": "view",
      "type": "function"
    },
    {
      "inputs": [],
      "name": "DOMAIN_SEPARATOR",
      "outputs": [
        {
          "internalType": "bytes32",
          "name": "",
          "type": "bytes32"
        }
      ],
      "stateMutability": "view",
      "type": "function"
    },
    {
      "inputs": [],
      "name": "DOMAIN_TYPEHASH",
      "outputs": [
        {
          "internalType": "bytes32",
          "name": "",
          "type": "bytes32"
        }
      ],
      "stateMutability": "view",
      "type": "function"
    },
    {
      "inputs": [],
      "name": "MINTER_ROLE",
      "outputs": [
        {
          "internalType": "bytes32",
          "name": "",
          "type": "bytes32"
        }
      ],
      "stateMutability": "view",
      "type": "function"
    },
    {
      "inputs": [
        {
          "internalType": "address",
          "name": "owner",
          "type": "address"
        },
        {
          "internalType": "address",
          "name": "spender",
          "type": "address"
        }
      ],
      "name": "allowance",
      "outputs": [
        {
          "internalType": "uint256",
          "name": "",
          "type": "uint256"
        }
      ],
      "stateMutability": "view",
      "type": "function"
    },
    {
      "inputs": [
        {
          "internalType": "address",
          "name": "spender",
          "type": "address"
        },
        {
          "internalType": "uint256",
          "name": "amount",
          "type": "uint256"
        }
      ],
      "name": "approve",
      "outputs": [
        {
          "internalType": "bool",
          "name": "",
          "type": "bool"
        }
      ],
      "stateMutability": "nonpayable",
      "type": "function"
    },
    {
      "inputs": [
        {
          "internalType": "address",
          "name": "account",
          "type": "address"
        }
      ],
      "name": "balanceOf",
      "outputs": [
        {
          "internalType": "uint256",
          "name": "",
          "type": "uint256"
        }
      ],
      "stateMutability": "view",
      "type": "function"
    },
    {
      "inputs": [
        {
          "internalType": "address",
          "name": "",
          "type": "address"
        },
        {
          "internalType": "uint32",
          "name": "",
          "type": "uint32"
        }
      ],
      "name": "checkpoints",
      "outputs": [
        {
          "internalType": "uint32",
          "name": "fromBlock",
          "type": "uint32"
        },
        {
          "internalType": "uint256",
          "name": "votes",
          "type": "uint256"
        }
      ],
      "stateMutability": "view",
      "type": "function"
    },
    {
      "inputs": [],
      "name": "decimals",
      "outputs": [
        {
          "internalType": "uint8",
          "name": "",
          "type": "uint8"
        }
      ],
      "stateMutability": "view",
      "type": "function"
    },
    {
      "inputs": [
        {
          "internalType": "address",
          "name": "spender",
          "type": "address"
        },
        {
          "internalType": "uint256",
          "name": "subtractedValue",
          "type": "uint256"
        }
      ],
      "name": "decreaseAllowance",
      "outputs": [
        {
          "internalType": "bool",
          "name": "",
          "type": "bool"
        }
      ],
      "stateMutability": "nonpayable",
      "type": "function"
    },
    {
      "inputs": [
        {
          "internalType": "address",
          "name": "delegatee",
          "type": "address"
        }
      ],
      "name": "delegate",
      "outputs": [],
      "stateMutability": "nonpayable",
      "type": "function"
    },
    {
      "inputs": [
        {
          "internalType": "address",
          "name": "delegatee",
          "type": "address"
        },
        {
          "internalType": "uint256",
          "name": "nonce",
          "type": "uint256"
        },
        {
          "internalType": "uint256",
          "name": "expiry",
          "type": "uint256"
        },
        {
          "internalType": "uint8",
          "name": "v",
          "type": "uint8"
        },
        {
          "internalType": "bytes32",
          "name": "r",
          "type": "bytes32"
        },
        {
          "internalType": "bytes32",
          "name": "s",
          "type": "bytes32"
        }
      ],
      "name": "delegateBySig",
      "outputs": [],
      "stateMutability": "nonpayable",
      "type": "function"
    },
    {
      "inputs": [
        {
          "internalType": "address",
          "name": "delegator",
          "type": "address"
        }
      ],
      "name": "delegates",
      "outputs": [
        {
          "internalType": "address",
          "name": "",
          "type": "address"
        }
      ],
      "stateMutability": "view",
      "type": "function"
    },
    {
      "inputs": [
        {
          "internalType": "address",
          "name": "account",
          "type": "address"
        }
      ],
      "name": "getCurrentVotes",
      "outputs": [
        {
          "internalType": "uint256",
          "name": "",
          "type": "uint256"
        }
      ],
      "stateMutability": "view",
      "type": "function"
    },
    {
      "inputs": [
        {
          "internalType": "string",
          "name": "_name",
          "type": "string"
        },
        {
          "internalType": "string",
          "name": "_symbol",
          "type": "string"
        },
        {
          "internalType": "address",
          "name": "_owner",
          "type": "address"
        },
        {
          "internalType": "uint256",
          "name": "_initialSupply",
          "type": "uint256"
        }
      ],
      "name": "getInitData",
      "outputs": [
        {
          "internalType": "bytes",
          "name": "_data",
          "type": "bytes"
        }
      ],
      "stateMutability": "pure",
      "type": "function"
    },
    {
      "inputs": [
        {
          "internalType": "address",
          "name": "account",
          "type": "address"
        },
        {
          "internalType": "uint256",
          "name": "blockNumber",
          "type": "uint256"
        }
      ],
      "name": "getPriorVotes",
      "outputs": [
        {
          "internalType": "uint256",
          "name": "",
          "type": "uint256"
        }
      ],
      "stateMutability": "view",
      "type": "function"
    },
    {
      "inputs": [
        {
          "internalType": "bytes32",
          "name": "role",
          "type": "bytes32"
        }
      ],
      "name": "getRoleAdmin",
      "outputs": [
        {
          "internalType": "bytes32",
          "name": "",
          "type": "bytes32"
        }
      ],
      "stateMutability": "view",
      "type": "function"
    },
    {
      "inputs": [
        {
          "internalType": "bytes32",
          "name": "role",
          "type": "bytes32"
        },
        {
          "internalType": "uint256",
          "name": "index",
          "type": "uint256"
        }
      ],
      "name": "getRoleMember",
      "outputs": [
        {
          "internalType": "address",
          "name": "",
          "type": "address"
        }
      ],
      "stateMutability": "view",
      "type": "function"
    },
    {
      "inputs": [
        {
          "internalType": "bytes32",
          "name": "role",
          "type": "bytes32"
        }
      ],
      "name": "getRoleMemberCount",
      "outputs": [
        {
          "internalType": "uint256",
          "name": "",
          "type": "uint256"
        }
      ],
      "stateMutability": "view",
      "type": "function"
    },
    {
      "inputs": [
        {
          "internalType": "bytes32",
          "name": "role",
          "type": "bytes32"
        },
        {
          "internalType": "address",
          "name": "account",
          "type": "address"
        }
      ],
      "name": "grantRole",
      "outputs": [],
      "stateMutability": "nonpayable",
      "type": "function"
    },
    {
      "inputs": [
        {
          "internalType": "bytes32",
          "name": "role",
          "type": "bytes32"
        },
        {
          "internalType": "address",
          "name": "account",
          "type": "address"
        }
      ],
      "name": "hasRole",
      "outputs": [
        {
          "internalType": "bool",
          "name": "",
          "type": "bool"
        }
      ],
      "stateMutability": "view",
      "type": "function"
    },
    {
      "inputs": [
        {
          "internalType": "address",
          "name": "spender",
          "type": "address"
        },
        {
          "internalType": "uint256",
          "name": "addedValue",
          "type": "uint256"
        }
      ],
      "name": "increaseAllowance",
      "outputs": [
        {
          "internalType": "bool",
          "name": "",
          "type": "bool"
        }
      ],
      "stateMutability": "nonpayable",
      "type": "function"
    },
    {
      "inputs": [
        {
          "internalType": "bytes",
          "name": "_data",
          "type": "bytes"
        }
      ],
      "name": "init",
      "outputs": [],
      "stateMutability": "payable",
      "type": "function"
    },
    {
      "inputs": [
        {
          "internalType": "bytes",
          "name": "_data",
          "type": "bytes"
        }
      ],
      "name": "initToken",
      "outputs": [],
      "stateMutability": "nonpayable",
      "type": "function"
    },
    {
      "inputs": [
        {
          "internalType": "string",
          "name": "_name",
          "type": "string"
        },
        {
          "internalType": "string",
          "name": "_symbol",
          "type": "string"
        },
        {
          "internalType": "address",
          "name": "_owner",
          "type": "address"
        },
        {
          "internalType": "uint256",
          "name": "_initialSupply",
          "type": "uint256"
        }
      ],
      "name": "initToken",
      "outputs": [],
      "stateMutability": "nonpayable",
      "type": "function"
    },
    {
      "inputs": [
        {
          "internalType": "address",
          "name": "_to",
          "type": "address"
        },
        {
          "internalType": "uint256",
          "name": "_amount",
          "type": "uint256"
        }
      ],
      "name": "mint",
      "outputs": [],
      "stateMutability": "nonpayable",
      "type": "function"
    },
    {
      "inputs": [],
      "name": "name",
      "outputs": [
        {
          "internalType": "string",
          "name": "",
          "type": "string"
        }
      ],
      "stateMutability": "view",
      "type": "function"
    },
    {
      "inputs": [
        {
          "internalType": "address",
          "name": "",
          "type": "address"
        }
      ],
      "name": "nonces",
      "outputs": [
        {
          "internalType": "uint256",
          "name": "",
          "type": "uint256"
        }
      ],
      "stateMutability": "view",
      "type": "function"
    },
    {
      "inputs": [
        {
          "internalType": "address",
          "name": "",
          "type": "address"
        }
      ],
      "name": "numCheckpoints",
      "outputs": [
        {
          "internalType": "uint32",
          "name": "",
          "type": "uint32"
        }
      ],
      "stateMutability": "view",
      "type": "function"
    },
    {
      "inputs": [
        {
          "internalType": "address",
          "name": "owner_",
          "type": "address"
        },
        {
          "internalType": "address",
          "name": "spender",
          "type": "address"
        },
        {
          "internalType": "uint256",
          "name": "value",
          "type": "uint256"
        },
        {
          "internalType": "uint256",
          "name": "deadline",
          "type": "uint256"
        },
        {
          "internalType": "uint8",
          "name": "v",
          "type": "uint8"
        },
        {
          "internalType": "bytes32",
          "name": "r",
          "type": "bytes32"
        },
        {
          "internalType": "bytes32",
          "name": "s",
          "type": "bytes32"
        }
      ],
      "name": "permit",
      "outputs": [],
      "stateMutability": "nonpayable",
      "type": "function"
    },
    {
      "inputs": [
        {
          "internalType": "bytes32",
          "name": "role",
          "type": "bytes32"
        },
        {
          "internalType": "address",
          "name": "account",
          "type": "address"
        }
      ],
      "name": "renounceRole",
      "outputs": [],
      "stateMutability": "nonpayable",
      "type": "function"
    },
    {
      "inputs": [
        {
          "internalType": "bytes32",
          "name": "role",
          "type": "bytes32"
        },
        {
          "internalType": "address",
          "name": "account",
          "type": "address"
        }
      ],
      "name": "revokeRole",
      "outputs": [],
      "stateMutability": "nonpayable",
      "type": "function"
    },
    {
      "inputs": [
        {
          "internalType": "address",
          "name": "",
          "type": "address"
        }
      ],
      "name": "sigNonces",
      "outputs": [
        {
          "internalType": "uint256",
          "name": "",
          "type": "uint256"
        }
      ],
      "stateMutability": "view",
      "type": "function"
    },
    {
      "inputs": [],
      "name": "symbol",
      "outputs": [
        {
          "internalType": "string",
          "name": "",
          "type": "string"
        }
      ],
      "stateMutability": "view",
      "type": "function"
    },
    {
      "inputs": [],
      "name": "tokenTemplate",
      "outputs": [
        {
          "internalType": "uint256",
          "name": "",
          "type": "uint256"
        }
      ],
      "stateMutability": "view",
      "type": "function"
    },
    {
      "inputs": [],
      "name": "totalSupply",
      "outputs": [
        {
          "internalType": "uint256",
          "name": "",
          "type": "uint256"
        }
      ],
      "stateMutability": "view",
      "type": "function"
    },
    {
      "inputs": [
        {
          "internalType": "address",
          "name": "recipient",
          "type": "address"
        },
        {
          "internalType": "uint256",
          "name": "amount",
          "type": "uint256"
        }
      ],
      "name": "transfer",
      "outputs": [
        {
          "internalType": "bool",
          "name": "",
          "type": "bool"
        }
      ],
      "stateMutability": "nonpayable",
      "type": "function"
    },
    {
      "inputs": [
        {
          "internalType": "address",
          "name": "sender",
          "type": "address"
        },
        {
          "internalType": "address",
          "name": "recipient",
          "type": "address"
        },
        {
          "internalType": "uint256",
          "name": "amount",
          "type": "uint256"
        }
      ],
      "name": "transferFrom",
      "outputs": [
        {
          "internalType": "bool",
          "name": "",
          "type": "bool"
        }
      ],
      "stateMutability": "nonpayable",
      "type": "function"
    }
  ],
  "bytecode": "0x608060405234801561001057600080fd5b50614d06806100206000396000f3fe6080604052600436106102305760003560e01c8063782d6fe11161012e578063c3cda520116100ab578063dd62ed3e1161006f578063dd62ed3e146108d8578063e7a324dc14610915578063f1127ed814610940578063f21f007c1461097e578063f990ccd7146109bb57610230565b8063c3cda520146107f5578063ca15c8731461081e578063d505accf1461085b578063d539139314610884578063d547741f146108af57610230565b806395d89b41116100f257806395d89b41146106e8578063a217fddf14610713578063a457c2d71461073e578063a9059cbb1461077b578063b4b5ea57146107b857610230565b8063782d6fe1146105cb5780637ecebe00146106085780638dc7df72146106455780639010d07c1461066e57806391d14854146106ab57610230565b80633644e515116101bc578063587cde1e11610180578063587cde1e146104c25780635c19a95c146104ff57806360b1cc80146105285780636fcfff451461055157806370a082311461058e57610230565b80633644e515146103ec57806336568abe14610417578063395093511461044057806340c10f191461047d5780634ddf47d4146104a657610230565b806320606b701161020357806320606b70146102f357806323b872dd1461031e578063248a9ca31461035b5780632f2ff15d14610398578063313ce567146103c157610230565b806306fdde03146102355780630814d3dd14610260578063095ea7b31461028b57806318160ddd146102c8575b600080fd5b34801561024157600080fd5b5061024a6109f8565b6040516102579190613f29565b60405180910390f35b34801561026c57600080fd5b50610275610a8a565b60405161028291906141ab565b60405180910390f35b34801561029757600080fd5b506102b260048036038101906102ad91906134e3565b610a8f565b6040516102bf9190613d13565b60405180910390f35b3480156102d457600080fd5b506102dd610aad565b6040516102ea91906141ab565b60405180910390f35b3480156102ff57600080fd5b50610308610ab7565b6040516103159190613d2e565b60405180910390f35b34801561032a57600080fd5b50610345600480360381019061034091906133f6565b610adb565b6040516103529190613d13565b60405180910390f35b34801561036757600080fd5b50610382600480360381019061037d91906135e4565b610bb4565b60405161038f9190613d2e565b60405180910390f35b3480156103a457600080fd5b506103bf60048036038101906103ba919061360d565b610bd3565b005b3480156103cd57600080fd5b506103d6610c46565b6040516103e39190614233565b60405180910390f35b3480156103f857600080fd5b50610401610c5d565b60405161040e9190613d2e565b60405180910390f35b34801561042357600080fd5b5061043e6004803603810190610439919061360d565b610c63565b005b34801561044c57600080fd5b50610467600480360381019061046291906134e3565b610ce6565b6040516104749190613d13565b60405180910390f35b34801561048957600080fd5b506104a4600480360381019061049f91906134e3565b610d99565b005b6104c060048036038101906104bb9190613685565b610e82565b005b3480156104ce57600080fd5b506104e960048036038101906104e49190613391565b610e86565b6040516104f69190613cf8565b60405180910390f35b34801561050b57600080fd5b5061052660048036038101906105219190613391565b610eef565b005b34801561053457600080fd5b5061054f600480360381019061054a9190613685565b610efc565b005b34801561055d57600080fd5b5061057860048036038101906105739190613391565b610f2d565b60405161058591906141ef565b60405180910390f35b34801561059a57600080fd5b506105b560048036038101906105b09190613391565b610f50565b6040516105c291906141ab565b60405180910390f35b3480156105d757600080fd5b506105f260048036038101906105ed91906134e3565b610f99565b6040516105ff91906141ab565b60405180910390f35b34801561061457600080fd5b5061062f600480360381019061062a9190613391565b611370565b60405161063c91906141ab565b60405180910390f35b34801561065157600080fd5b5061066c600480360381019061066791906137f8565b611388565b005b34801561067a57600080fd5b5061069560048036038101906106909190613649565b6113d9565b6040516106a29190613cf8565b60405180910390f35b3480156106b757600080fd5b506106d260048036038101906106cd919061360d565b61140a565b6040516106df9190613d13565b60405180910390f35b3480156106f457600080fd5b506106fd61143b565b60405161070a9190613f29565b60405180910390f35b34801561071f57600080fd5b506107286114cd565b6040516107359190613d2e565b60405180910390f35b34801561074a57600080fd5b50610765600480360381019061076091906134e3565b6114d4565b6040516107729190613d13565b60405180910390f35b34801561078757600080fd5b506107a2600480360381019061079d91906134e3565b6115a1565b6040516107af9190613d13565b60405180910390f35b3480156107c457600080fd5b506107df60048036038101906107da9190613391565b6115bf565b6040516107ec91906141ab565b60405180910390f35b34801561080157600080fd5b5061081c6004803603810190610817919061351f565b61169e565b005b34801561082a57600080fd5b50610845600480360381019061084091906135e4565b611933565b60405161085291906141ab565b60405180910390f35b34801561086757600080fd5b50610882600480360381019061087d9190613445565b611959565b005b34801561089057600080fd5b50610899611bf5565b6040516108a69190613d2e565b60405180910390f35b3480156108bb57600080fd5b506108d660048036038101906108d1919061360d565b611c19565b005b3480156108e457600080fd5b506108ff60048036038101906108fa91906133ba565b611c8c565b60405161090c91906141ab565b60405180910390f35b34801561092157600080fd5b5061092a611d13565b6040516109379190613d2e565b60405180910390f35b34801561094c57600080fd5b50610967600480360381019061096291906135a8565b611d37565b60405161097592919061420a565b60405180910390f35b34801561098a57600080fd5b506109a560048036038101906109a091906136ca565b611d78565b6040516109b29190613eb0565b60405180910390f35b3480156109c757600080fd5b506109e260048036038101906109dd9190613391565b611db0565b6040516109ef91906141ab565b60405180910390f35b606060068054610a07906144d3565b80601f0160208091040260200160405190810160405280929190818152602001828054610a33906144d3565b8015610a805780601f10610a5557610100808354040283529160200191610a80565b820191906000526020600020905b815481529060010190602001808311610a6357829003601f168201915b5050505050905090565b600381565b6000610aa3610a9c611dc8565b8484611dd0565b6001905092915050565b6000600554905090565b7f8cad95687ba82c2ce50e74f7b754645e5117c3a5bec8151c0726d5857980a86681565b6000610ae8848484611f9b565b610ba984610af4611dc8565b610ba485604051806060016040528060288152602001614c8460289139600460008b73ffffffffffffffffffffffffffffffffffffffff1673ffffffffffffffffffffffffffffffffffffffff1681526020019081526020016000206000610b5a611dc8565b73ffffffffffffffffffffffffffffffffffffffff1673ffffffffffffffffffffffffffffffffffffffff168152602001908152602001600020546122349092919063ffffffff16565b611dd0565b600190509392505050565b6000806000838152602001908152602001600020600201549050919050565b610bf960008084815260200190815260200160002060020154610bf4611dc8565b61140a565b610c38576040517f08c379a0000000000000000000000000000000000000000000000000000000008152600401610c2f90613f8b565b60405180910390fd5b610c428282612292565b5050565b6000600860009054906101000a900460ff16905090565b60015481565b610c6b611dc8565b73ffffffffffffffffffffffffffffffffffffffff168173ffffffffffffffffffffffffffffffffffffffff1614610cd8576040517f08c379a0000000000000000000000000000000000000000000000000000000008152600401610ccf9061414b565b60405180910390fd5b610ce28282612325565b5050565b6000610d8f610cf3611dc8565b84610d8a8560046000610d04611dc8565b73ffffffffffffffffffffffffffffffffffffffff1673ffffffffffffffffffffffffffffffffffffffff16815260200190815260200160002060008973ffffffffffffffffffffffffffffffffffffffff1673ffffffffffffffffffffffffffffffffffffffff168152602001908152602001600020546123b890919063ffffffff16565b611dd0565b6001905092915050565b610dca7f9f2df0fed2c77648de5860a4cc508cd0818c85b8b8a1ab4ceeef8d981c8956a6610dc5611dc8565b61140a565b610e09576040517f08c379a0000000000000000000000000000000000000000000000000000000008152600401610e0090613fab565b60405180910390fd5b610e138282612416565b610e7e6000600960008573ffffffffffffffffffffffffffffffffffffffff1673ffffffffffffffffffffffffffffffffffffffff16815260200190815260200160002060009054906101000a900473ffffffffffffffffffffffffffffffffffffffff16836125ac565b5050565b5050565b6000600960008373ffffffffffffffffffffffffffffffffffffffff1673ffffffffffffffffffffffffffffffffffffffff16815260200190815260200160002060009054906101000a900473ffffffffffffffffffffffffffffffffffffffff169050919050565b610ef9338261284d565b50565b6000806000808585810190610f119190613765565b9350935093509350610f2584848484611388565b505050505050565b600b6020528060005260406000206000915054906101000a900463ffffffff1681565b6000600260008373ffffffffffffffffffffffffffffffffffffffff1673ffffffffffffffffffffffffffffffffffffffff168152602001908152602001600020549050919050565b6000438210610fdd576040517f08c379a0000000000000000000000000000000000000000000000000000000008152600401610fd49061408b565b60405180910390fd5b6000600b60008573ffffffffffffffffffffffffffffffffffffffff1673ffffffffffffffffffffffffffffffffffffffff16815260200190815260200160002060009054906101000a900463ffffffff16905060008163ffffffff16141561104a57600091505061136a565b82600a60008673ffffffffffffffffffffffffffffffffffffffff1673ffffffffffffffffffffffffffffffffffffffff168152602001908152602001600020600060018461109991906143dc565b63ffffffff1663ffffffff16815260200190815260200160002060000160009054906101000a900463ffffffff1663ffffffff161161114657600a60008573ffffffffffffffffffffffffffffffffffffffff1673ffffffffffffffffffffffffffffffffffffffff168152602001908152602001600020600060018361112091906143dc565b63ffffffff1663ffffffff1681526020019081526020016000206001015491505061136a565b82600a60008673ffffffffffffffffffffffffffffffffffffffff1673ffffffffffffffffffffffffffffffffffffffff16815260200190815260200160002060008063ffffffff16815260200190815260200160002060000160009054906101000a900463ffffffff1663ffffffff1611156111c757600091505061136a565b6000806001836111d791906143dc565b90505b8163ffffffff168163ffffffff161115611304576000600283836111fe91906143dc565b6112089190614377565b8261121391906143dc565b90506000600a60008973ffffffffffffffffffffffffffffffffffffffff1673ffffffffffffffffffffffffffffffffffffffff16815260200190815260200160002060008363ffffffff1663ffffffff1681526020019081526020016000206040518060400160405290816000820160009054906101000a900463ffffffff1663ffffffff1663ffffffff168152602001600182015481525050905086816000015163ffffffff1614156112d35780602001519550505050505061136a565b86816000015163ffffffff1610156112ed578193506112fd565b6001826112fa91906143dc565b92505b50506111da565b600a60008773ffffffffffffffffffffffffffffffffffffffff1673ffffffffffffffffffffffffffffffffffffffff16815260200190815260200160002060008363ffffffff1663ffffffff1681526020019081526020016000206001015493505050505b92915050565b60036020528060005260406000206000915090505481565b61139284846129be565b61139f6000801b83612ace565b6113c97f9f2df0fed2c77648de5860a4cc508cd0818c85b8b8a1ab4ceeef8d981c8956a683612ace565b6113d33382612416565b50505050565b600061140282600080868152602001908152602001600020600001612adc90919063ffffffff16565b905092915050565b600061143382600080868152602001908152602001600020600001612af690919063ffffffff16565b905092915050565b60606007805461144a906144d3565b80601f0160208091040260200160405190810160405280929190818152602001828054611476906144d3565b80156114c35780601f10611498576101008083540402835291602001916114c3565b820191906000526020600020905b8154815290600101906020018083116114a657829003601f168201915b5050505050905090565b6000801b81565b60006115976114e1611dc8565b8461159285604051806060016040528060258152602001614cac602591396004600061150b611dc8565b73ffffffffffffffffffffffffffffffffffffffff1673ffffffffffffffffffffffffffffffffffffffff16815260200190815260200160002060008a73ffffffffffffffffffffffffffffffffffffffff1673ffffffffffffffffffffffffffffffffffffffff168152602001908152602001600020546122349092919063ffffffff16565b611dd0565b6001905092915050565b60006115b56115ae611dc8565b8484611f9b565b6001905092915050565b600080600b60008473ffffffffffffffffffffffffffffffffffffffff1673ffffffffffffffffffffffffffffffffffffffff16815260200190815260200160002060009054906101000a900463ffffffff16905060008163ffffffff1611611629576000611696565b600a60008473ffffffffffffffffffffffffffffffffffffffff1673ffffffffffffffffffffffffffffffffffffffff168152602001908152602001600020600060018361167791906143dc565b63ffffffff1663ffffffff168152602001908152602001600020600101545b915050919050565b60007f8cad95687ba82c2ce50e74f7b754645e5117c3a5bec8151c0726d5857980a8666116c96109f8565b805190602001206116d8612b26565b306040516020016116ec9493929190613def565b60405160208183030381529060405280519060200120905060007fe48329057bfd03d55e49b547132e39cffd9c1820ad7b9d4c5307691425d15adf88888860405160200161173d9493929190613daa565b6040516020818303038152906040528051906020012090506000828260405160200161176a929190613cc1565b6040516020818303038152906040528051906020012090506000600182888888604051600081526020016040526040516117a79493929190613e6b565b6020604051602081039080840390855afa1580156117c9573d6000803e3d6000fd5b505050602060405103519050600073ffffffffffffffffffffffffffffffffffffffff168173ffffffffffffffffffffffffffffffffffffffff161415611845576040517f08c379a000000000000000000000000000000000000000000000000000000000815260040161183c906140cb565b60405180910390fd5b600c60008273ffffffffffffffffffffffffffffffffffffffff1673ffffffffffffffffffffffffffffffffffffffff168152602001908152602001600020600081548092919061189590614536565b9190505589146118da576040517f08c379a00000000000000000000000000000000000000000000000000000000081526004016118d1906140ab565b60405180910390fd5b8742111561191d576040517f08c379a000000000000000000000000000000000000000000000000000000000815260040161191490613fcb565b60405180910390fd5b611927818b61284d565b50505050505050505050565b6000611952600080848152602001908152602001600020600001612b33565b9050919050565b600073ffffffffffffffffffffffffffffffffffffffff168773ffffffffffffffffffffffffffffffffffffffff1614156119c9576040517f08c379a00000000000000000000000000000000000000000000000000000000081526004016119c09061412b565b60405180910390fd5b834210611a0b576040517f08c379a0000000000000000000000000000000000000000000000000000000008152600401611a029061406b565b60405180910390fd5b60006040518060400160405280600281526020017f19010000000000000000000000000000000000000000000000000000000000008152506001547f6e71edae12b1b97f4d1f60370fef10105fa2faae0126114a169c64845d6126c960001b8a8a8a600360008f73ffffffffffffffffffffffffffffffffffffffff1673ffffffffffffffffffffffffffffffffffffffff1681526020019081526020016000206000815480929190611abd90614536565b919050558b604051602001611ad796959493929190613d49565b60405160208183030381529060405280519060200120604051602001611aff93929190613c88565b604051602081830303815290604052805190602001209050600060018286868660405160008152602001604052604051611b3c9493929190613e6b565b6020604051602081039080840390855afa158015611b5e573d6000803e3d6000fd5b5050506020604051035190508873ffffffffffffffffffffffffffffffffffffffff168173ffffffffffffffffffffffffffffffffffffffff1614611bd8576040517f08c379a0000000000000000000000000000000000000000000000000000000008152600401611bcf9061418b565b60405180910390fd5b611bea611be3611dc8565b8989611dd0565b505050505050505050565b7f9f2df0fed2c77648de5860a4cc508cd0818c85b8b8a1ab4ceeef8d981c8956a681565b611c3f60008084815260200190815260200160002060020154611c3a611dc8565b61140a565b611c7e576040517f08c379a0000000000000000000000000000000000000000000000000000000008152600401611c759061404b565b60405180910390fd5b611c888282612325565b5050565b6000600460008473ffffffffffffffffffffffffffffffffffffffff1673ffffffffffffffffffffffffffffffffffffffff16815260200190815260200160002060008373ffffffffffffffffffffffffffffffffffffffff1673ffffffffffffffffffffffffffffffffffffffff16815260200190815260200160002054905092915050565b7fe48329057bfd03d55e49b547132e39cffd9c1820ad7b9d4c5307691425d15adf81565b600a602052816000526040600020602052806000526040600020600091509150508060000160009054906101000a900463ffffffff16908060010154905082565b6060868686868686604051602001611d9596959493929190613ed2565b60405160208183030381529060405290509695505050505050565b600c6020528060005260406000206000915090505481565b600033905090565b600073ffffffffffffffffffffffffffffffffffffffff168373ffffffffffffffffffffffffffffffffffffffff161415611e40576040517f08c379a0000000000000000000000000000000000000000000000000000000008152600401611e379061410b565b60405180910390fd5b600073ffffffffffffffffffffffffffffffffffffffff168273ffffffffffffffffffffffffffffffffffffffff161415611eb0576040517f08c379a0000000000000000000000000000000000000000000000000000000008152600401611ea790613feb565b60405180910390fd5b80600460008573ffffffffffffffffffffffffffffffffffffffff1673ffffffffffffffffffffffffffffffffffffffff16815260200190815260200160002060008473ffffffffffffffffffffffffffffffffffffffff1673ffffffffffffffffffffffffffffffffffffffff168152602001908152602001600020819055508173ffffffffffffffffffffffffffffffffffffffff168373ffffffffffffffffffffffffffffffffffffffff167f8c5be1e5ebec7d5bd14f71427d1e84f3dd0314c0f7b2291e5b200ac8c7c3b92583604051611f8e91906141ab565b60405180910390a3505050565b600073ffffffffffffffffffffffffffffffffffffffff168373ffffffffffffffffffffffffffffffffffffffff16141561200b576040517f08c379a0000000000000000000000000000000000000000000000000000000008152600401612002906140eb565b60405180910390fd5b600073ffffffffffffffffffffffffffffffffffffffff168273ffffffffffffffffffffffffffffffffffffffff16141561207b576040517f08c379a000000000000000000000000000000000000000000000000000000000815260040161207290613f6b565b60405180910390fd5b612086838383612b48565b6120f281604051806060016040528060268152602001614c2960269139600260008773ffffffffffffffffffffffffffffffffffffffff1673ffffffffffffffffffffffffffffffffffffffff168152602001908152602001600020546122349092919063ffffffff16565b600260008573ffffffffffffffffffffffffffffffffffffffff1673ffffffffffffffffffffffffffffffffffffffff1681526020019081526020016000208190555061218781600260008573ffffffffffffffffffffffffffffffffffffffff1673ffffffffffffffffffffffffffffffffffffffff168152602001908152602001600020546123b890919063ffffffff16565b600260008473ffffffffffffffffffffffffffffffffffffffff1673ffffffffffffffffffffffffffffffffffffffff168152602001908152602001600020819055508173ffffffffffffffffffffffffffffffffffffffff168373ffffffffffffffffffffffffffffffffffffffff167fddf252ad1be2c89b69c2b068fc378daa952ba7f163c4a11628f55a4df523b3ef8360405161222791906141ab565b60405180910390a3505050565b600083831115829061227c576040517f08c379a00000000000000000000000000000000000000000000000000000000081526004016122739190613f29565b60405180910390fd5b50828461228991906143a8565b90509392505050565b6122b981600080858152602001908152602001600020600001612b4d90919063ffffffff16565b15612321576122c6611dc8565b73ffffffffffffffffffffffffffffffffffffffff168173ffffffffffffffffffffffffffffffffffffffff16837f2f8788117e7eff1d82e926ec794901d17c78024a50270940304540a733656f0d60405160405180910390a45b5050565b61234c81600080858152602001908152602001600020600001612b7d90919063ffffffff16565b156123b457612359611dc8565b73ffffffffffffffffffffffffffffffffffffffff168173ffffffffffffffffffffffffffffffffffffffff16837ff6391f5c32d9c69d2a47ea670b442974b53935d1edc7fd64eb21e047a839171b60405160405180910390a45b5050565b60008082846123c791906142e7565b90508381101561240c576040517f08c379a00000000000000000000000000000000000000000000000000000000081526004016124039061400b565b60405180910390fd5b8091505092915050565b600073ffffffffffffffffffffffffffffffffffffffff168273ffffffffffffffffffffffffffffffffffffffff161415612486576040517f08c379a000000000000000000000000000000000000000000000000000000000815260040161247d9061416b565b60405180910390fd5b61249260008383612b48565b6124a7816005546123b890919063ffffffff16565b6005819055506124ff81600260008573ffffffffffffffffffffffffffffffffffffffff1673ffffffffffffffffffffffffffffffffffffffff168152602001908152602001600020546123b890919063ffffffff16565b600260008473ffffffffffffffffffffffffffffffffffffffff1673ffffffffffffffffffffffffffffffffffffffff168152602001908152602001600020819055508173ffffffffffffffffffffffffffffffffffffffff16600073ffffffffffffffffffffffffffffffffffffffff167fddf252ad1be2c89b69c2b068fc378daa952ba7f163c4a11628f55a4df523b3ef836040516125a091906141ab565b60405180910390a35050565b8173ffffffffffffffffffffffffffffffffffffffff168373ffffffffffffffffffffffffffffffffffffffff16141580156125e85750600081115b1561284857600073ffffffffffffffffffffffffffffffffffffffff168373ffffffffffffffffffffffffffffffffffffffff161461271a576000600b60008573ffffffffffffffffffffffffffffffffffffffff1673ffffffffffffffffffffffffffffffffffffffff16815260200190815260200160002060009054906101000a900463ffffffff1690506000808263ffffffff161161268b5760006126f8565b600a60008673ffffffffffffffffffffffffffffffffffffffff1673ffffffffffffffffffffffffffffffffffffffff16815260200190815260200160002060006001846126d991906143dc565b63ffffffff1663ffffffff168152602001908152602001600020600101545b90506000838261270891906143a8565b905061271686848484612bad565b5050505b600073ffffffffffffffffffffffffffffffffffffffff168273ffffffffffffffffffffffffffffffffffffffff1614612847576000600b60008473ffffffffffffffffffffffffffffffffffffffff1673ffffffffffffffffffffffffffffffffffffffff16815260200190815260200160002060009054906101000a900463ffffffff1690506000808263ffffffff16116127b8576000612825565b600a60008573ffffffffffffffffffffffffffffffffffffffff1673ffffffffffffffffffffffffffffffffffffffff168152602001908152602001600020600060018461280691906143dc565b63ffffffff1663ffffffff168152602001908152602001600020600101545b90506000838261283591906142e7565b905061284385848484612bad565b5050505b5b505050565b6000600960008473ffffffffffffffffffffffffffffffffffffffff1673ffffffffffffffffffffffffffffffffffffffff16815260200190815260200160002060009054906101000a900473ffffffffffffffffffffffffffffffffffffffff16905060006128bc84610f50565b905082600960008673ffffffffffffffffffffffffffffffffffffffff1673ffffffffffffffffffffffffffffffffffffffff16815260200190815260200160002060006101000a81548173ffffffffffffffffffffffffffffffffffffffff021916908373ffffffffffffffffffffffffffffffffffffffff1602179055508273ffffffffffffffffffffffffffffffffffffffff168273ffffffffffffffffffffffffffffffffffffffff168573ffffffffffffffffffffffffffffffffffffffff167f3134e8a2e6d97e929a7e54011ea5485d7d196dd5f0ba4d4ef95803e8e3fc257f60405160405180910390a46129b88284836125ac565b50505050565b600860019054906101000a900460ff1615612a0e576040517f08c379a0000000000000000000000000000000000000000000000000000000008152600401612a059061402b565b60405180910390fd5b8160069080519060200190612a24929190613174565b508060079080519060200190612a3b929190613174565b506012600860006101000a81548160ff021916908360ff16021790555060004690507f47e79534a245952e8b16893a336b85a3d9ea9fa8c573f3d803afb92a794692188130604051602001612a9293929190613e34565b604051602081830303815290604052805190602001206001819055506001600860016101000a81548160ff021916908315150217905550505050565b612ad88282612292565b5050565b6000612aeb8360000183612e56565b60001c905092915050565b6000612b1e836000018373ffffffffffffffffffffffffffffffffffffffff1660001b612ef0565b905092915050565b6000804690508091505090565b6000612b4182600001612f13565b9050919050565b505050565b6000612b75836000018373ffffffffffffffffffffffffffffffffffffffff1660001b612f24565b905092915050565b6000612ba5836000018373ffffffffffffffffffffffffffffffffffffffff1660001b612f94565b905092915050565b6000612bd143604051806060016040528060358152602001614c4f6035913961311e565b905060008463ffffffff16118015612c6f57508063ffffffff16600a60008773ffffffffffffffffffffffffffffffffffffffff1673ffffffffffffffffffffffffffffffffffffffff1681526020019081526020016000206000600187612c3991906143dc565b63ffffffff1663ffffffff16815260200190815260200160002060000160009054906101000a900463ffffffff1663ffffffff16145b15612ce95781600a60008773ffffffffffffffffffffffffffffffffffffffff1673ffffffffffffffffffffffffffffffffffffffff1681526020019081526020016000206000600187612cc391906143dc565b63ffffffff1663ffffffff16815260200190815260200160002060010181905550612dff565b60405180604001604052808263ffffffff16815260200183815250600a60008773ffffffffffffffffffffffffffffffffffffffff1673ffffffffffffffffffffffffffffffffffffffff16815260200190815260200160002060008663ffffffff1663ffffffff16815260200190815260200160002060008201518160000160006101000a81548163ffffffff021916908363ffffffff16021790555060208201518160010155905050600184612da1919061433d565b600b60008773ffffffffffffffffffffffffffffffffffffffff1673ffffffffffffffffffffffffffffffffffffffff16815260200190815260200160002060006101000a81548163ffffffff021916908363ffffffff1602179055505b8473ffffffffffffffffffffffffffffffffffffffff167fdec2bacdd2f05b59de34da9b523dff8be42e5e38e818c82fdb0bae774387a7248484604051612e479291906141c6565b60405180910390a25050505050565b600081836000018054905011612ea1576040517f08c379a0000000000000000000000000000000000000000000000000000000008152600401612e9890613f4b565b60405180910390fd5b826000018281548110612edd577f4e487b7100000000000000000000000000000000000000000000000000000000600052603260045260246000fd5b9060005260206000200154905092915050565b600080836001016000848152602001908152602001600020541415905092915050565b600081600001805490509050919050565b6000612f308383612ef0565b612f89578260000182908060018154018082558091505060019003906000526020600020016000909190919091505582600001805490508360010160008481526020019081526020016000208190555060019050612f8e565b600090505b92915050565b60008083600101600084815260200190815260200160002054905060008114613112576000600182612fc691906143a8565b9050600060018660000180549050612fde91906143a8565b9050600086600001828154811061301e577f4e487b7100000000000000000000000000000000000000000000000000000000600052603260045260246000fd5b9060005260206000200154905080876000018481548110613068577f4e487b7100000000000000000000000000000000000000000000000000000000600052603260045260246000fd5b906000526020600020018190555060018361308391906142e7565b87600101600083815260200190815260200160002081905550866000018054806130d6577f4e487b7100000000000000000000000000000000000000000000000000000000600052603160045260246000fd5b60019003818190600052602060002001600090559055866001016000878152602001908152602001600020600090556001945050505050613118565b60009150505b92915050565b60006401000000008310829061316a576040517f08c379a00000000000000000000000000000000000000000000000000000000081526004016131619190613f29565b60405180910390fd5b5082905092915050565b828054613180906144d3565b90600052602060002090601f0160209004810192826131a257600085556131e9565b82601f106131bb57805160ff19168380011785556131e9565b828001600101855582156131e9579182015b828111156131e85782518255916020019190600101906131cd565b5b5090506131f691906131fa565b5090565b5b808211156132135760008160009055506001016131fb565b5090565b600061322a61322584614273565b61424e565b90508281526020810184848401111561324257600080fd5b61324d848285614491565b509392505050565b60008135905061326481614b9e565b92915050565b60008135905061327981614bb5565b92915050565b60008135905061328e81614bcc565b92915050565b60008083601f8401126132a657600080fd5b8235905067ffffffffffffffff8111156132bf57600080fd5b6020830191508360018202830111156132d757600080fd5b9250929050565b60008083601f8401126132f057600080fd5b8235905067ffffffffffffffff81111561330957600080fd5b60208301915083600182028301111561332157600080fd5b9250929050565b600082601f83011261333957600080fd5b8135613349848260208601613217565b91505092915050565b60008135905061336181614be3565b92915050565b60008135905061337681614bfa565b92915050565b60008135905061338b81614c11565b92915050565b6000602082840312156133a357600080fd5b60006133b184828501613255565b91505092915050565b600080604083850312156133cd57600080fd5b60006133db85828601613255565b92505060206133ec85828601613255565b9150509250929050565b60008060006060848603121561340b57600080fd5b600061341986828701613255565b935050602061342a86828701613255565b925050604061343b86828701613352565b9150509250925092565b600080600080600080600060e0888a03121561346057600080fd5b600061346e8a828b01613255565b975050602061347f8a828b01613255565b96505060406134908a828b01613352565b95505060606134a18a828b01613352565b94505060806134b28a828b0161337c565b93505060a06134c38a828b0161327f565b92505060c06134d48a828b0161327f565b91505092959891949750929550565b600080604083850312156134f657600080fd5b600061350485828601613255565b925050602061351585828601613352565b9150509250929050565b60008060008060008060c0878903121561353857600080fd5b600061354689828a01613255565b965050602061355789828a01613352565b955050604061356889828a01613352565b945050606061357989828a0161337c565b935050608061358a89828a0161327f565b92505060a061359b89828a0161327f565b9150509295509295509295565b600080604083850312156135bb57600080fd5b60006135c985828601613255565b92505060206135da85828601613367565b9150509250929050565b6000602082840312156135f657600080fd5b60006136048482850161327f565b91505092915050565b6000806040838503121561362057600080fd5b600061362e8582860161327f565b925050602061363f85828601613255565b9150509250929050565b6000806040838503121561365c57600080fd5b600061366a8582860161327f565b925050602061367b85828601613352565b9150509250929050565b6000806020838503121561369857600080fd5b600083013567ffffffffffffffff8111156136b257600080fd5b6136be85828601613294565b92509250509250929050565b600080600080600080608087890312156136e357600080fd5b600087013567ffffffffffffffff8111156136fd57600080fd5b61370989828a016132de565b9650965050602087013567ffffffffffffffff81111561372857600080fd5b61373489828a016132de565b9450945050604061374789828a01613255565b925050606061375889828a01613352565b9150509295509295509295565b6000806000806080858703121561377b57600080fd5b600085013567ffffffffffffffff81111561379557600080fd5b6137a187828801613328565b945050602085013567ffffffffffffffff8111156137be57600080fd5b6137ca87828801613328565b93505060406137db8782880161326a565b92505060606137ec87828801613352565b91505092959194509250565b6000806000806080858703121561380e57600080fd5b600085013567ffffffffffffffff81111561382857600080fd5b61383487828801613328565b945050602085013567ffffffffffffffff81111561385157600080fd5b61385d87828801613328565b935050604061386e87828801613255565b925050606061387f87828801613352565b91505092959194509250565b61389481614410565b82525050565b6138a381614434565b82525050565b6138b281614440565b82525050565b6138c96138c482614440565b61457f565b82525050565b60006138da826142a4565b6138e481856142ba565b93506138f48185602086016144a0565b6138fd81614645565b840191505092915050565b600061391483856142cb565b9350613921838584614491565b61392a83614645565b840190509392505050565b6000613940826142af565b61394a81856142cb565b935061395a8185602086016144a0565b61396381614645565b840191505092915050565b6000613979826142af565b61398381856142dc565b93506139938185602086016144a0565b80840191505092915050565b60006139ac6022836142cb565b91506139b782614656565b604082019050919050565b60006139cf6023836142cb565b91506139da826146a5565b604082019050919050565b60006139f2602f836142cb565b91506139fd826146f4565b604082019050919050565b6000613a156029836142cb565b9150613a2082614743565b604082019050919050565b6000613a386027836142cb565b9150613a4382614792565b604082019050919050565b6000613a5b6022836142cb565b9150613a66826147e1565b604082019050919050565b6000613a7e6002836142dc565b9150613a8982614830565b600282019050919050565b6000613aa1601b836142cb565b9150613aac82614859565b602082019050919050565b6000613ac4602a836142cb565b9150613acf82614882565b604082019050919050565b6000613ae76030836142cb565b9150613af2826148d1565b604082019050919050565b6000613b0a600e836142cb565b9150613b1582614920565b602082019050919050565b6000613b2d6028836142cb565b9150613b3882614949565b604082019050919050565b6000613b506023836142cb565b9150613b5b82614998565b604082019050919050565b6000613b736027836142cb565b9150613b7e826149e7565b604082019050919050565b6000613b966025836142cb565b9150613ba182614a36565b604082019050919050565b6000613bb96024836142cb565b9150613bc482614a85565b604082019050919050565b6000613bdc6018836142cb565b9150613be782614ad4565b602082019050919050565b6000613bff602f836142cb565b9150613c0a82614afd565b604082019050919050565b6000613c22601f836142cb565b9150613c2d82614b4c565b602082019050919050565b6000613c456018836142cb565b9150613c5082614b75565b602082019050919050565b613c648161446a565b82525050565b613c7381614474565b82525050565b613c8281614484565b82525050565b6000613c94828661396e565b9150613ca082856138b8565b602082019150613cb082846138b8565b602082019150819050949350505050565b6000613ccc82613a71565b9150613cd882856138b8565b602082019150613ce882846138b8565b6020820191508190509392505050565b6000602082019050613d0d600083018461388b565b92915050565b6000602082019050613d28600083018461389a565b92915050565b6000602082019050613d4360008301846138a9565b92915050565b600060c082019050613d5e60008301896138a9565b613d6b602083018861388b565b613d78604083018761388b565b613d856060830186613c5b565b613d926080830185613c5b565b613d9f60a0830184613c5b565b979650505050505050565b6000608082019050613dbf60008301876138a9565b613dcc602083018661388b565b613dd96040830185613c5b565b613de66060830184613c5b565b95945050505050565b6000608082019050613e0460008301876138a9565b613e1160208301866138a9565b613e1e6040830185613c5b565b613e2b606083018461388b565b95945050505050565b6000606082019050613e4960008301866138a9565b613e566020830185613c5b565b613e63604083018461388b565b949350505050565b6000608082019050613e8060008301876138a9565b613e8d6020830186613c79565b613e9a60408301856138a9565b613ea760608301846138a9565b95945050505050565b60006020820190508181036000830152613eca81846138cf565b905092915050565b60006080820190508181036000830152613eed81888a613908565b90508181036020830152613f02818688613908565b9050613f11604083018561388b565b613f1e6060830184613c5b565b979650505050505050565b60006020820190508181036000830152613f438184613935565b905092915050565b60006020820190508181036000830152613f648161399f565b9050919050565b60006020820190508181036000830152613f84816139c2565b9050919050565b60006020820190508181036000830152613fa4816139e5565b9050919050565b60006020820190508181036000830152613fc481613a08565b9050919050565b60006020820190508181036000830152613fe481613a2b565b9050919050565b6000602082019050818103600083015261400481613a4e565b9050919050565b6000602082019050818103600083015261402481613a94565b9050919050565b6000602082019050818103600083015261404481613ab7565b9050919050565b6000602082019050818103600083015261406481613ada565b9050919050565b6000602082019050818103600083015261408481613afd565b9050919050565b600060208201905081810360008301526140a481613b20565b9050919050565b600060208201905081810360008301526140c481613b43565b9050919050565b600060208201905081810360008301526140e481613b66565b9050919050565b6000602082019050818103600083015261410481613b89565b9050919050565b6000602082019050818103600083015261412481613bac565b9050919050565b6000602082019050818103600083015261414481613bcf565b9050919050565b6000602082019050818103600083015261416481613bf2565b9050919050565b6000602082019050818103600083015261418481613c15565b9050919050565b600060208201905081810360008301526141a481613c38565b9050919050565b60006020820190506141c06000830184613c5b565b92915050565b60006040820190506141db6000830185613c5b565b6141e86020830184613c5b565b9392505050565b60006020820190506142046000830184613c6a565b92915050565b600060408201905061421f6000830185613c6a565b61422c6020830184613c5b565b9392505050565b60006020820190506142486000830184613c79565b92915050565b6000614258614269565b90506142648282614505565b919050565b6000604051905090565b600067ffffffffffffffff82111561428e5761428d614616565b5b61429782614645565b9050602081019050919050565b600081519050919050565b600081519050919050565b600082825260208201905092915050565b600082825260208201905092915050565b600081905092915050565b60006142f28261446a565b91506142fd8361446a565b9250827fffffffffffffffffffffffffffffffffffffffffffffffffffffffffffffffff0382111561433257614331614589565b5b828201905092915050565b600061434882614474565b915061435383614474565b92508263ffffffff0382111561436c5761436b614589565b5b828201905092915050565b600061438282614474565b915061438d83614474565b92508261439d5761439c6145b8565b5b828204905092915050565b60006143b38261446a565b91506143be8361446a565b9250828210156143d1576143d0614589565b5b828203905092915050565b60006143e782614474565b91506143f283614474565b92508282101561440557614404614589565b5b828203905092915050565b600061441b8261444a565b9050919050565b600061442d8261444a565b9050919050565b60008115159050919050565b6000819050919050565b600073ffffffffffffffffffffffffffffffffffffffff82169050919050565b6000819050919050565b600063ffffffff82169050919050565b600060ff82169050919050565b82818337600083830152505050565b60005b838110156144be5780820151818401526020810190506144a3565b838111156144cd576000848401525b50505050565b600060028204905060018216806144eb57607f821691505b602082108114156144ff576144fe6145e7565b5b50919050565b61450e82614645565b810181811067ffffffffffffffff8211171561452d5761452c614616565b5b80604052505050565b60006145418261446a565b91507fffffffffffffffffffffffffffffffffffffffffffffffffffffffffffffffff82141561457457614573614589565b5b600182019050919050565b6000819050919050565b7f4e487b7100000000000000000000000000000000000000000000000000000000600052601160045260246000fd5b7f4e487b7100000000000000000000000000000000000000000000000000000000600052601260045260246000fd5b7f4e487b7100000000000000000000000000000000000000000000000000000000600052602260045260246000fd5b7f4e487b7100000000000000000000000000000000000000000000000000000000600052604160045260246000fd5b6000601f19601f8301169050919050565b7f456e756d657261626c655365743a20696e646578206f7574206f6620626f756e60008201527f6473000000000000000000000000000000000000000000000000000000000000602082015250565b7f45524332303a207472616e7366657220746f20746865207a65726f206164647260008201527f6573730000000000000000000000000000000000000000000000000000000000602082015250565b7f416363657373436f6e74726f6c3a2073656e646572206d75737420626520616e60008201527f2061646d696e20746f206772616e740000000000000000000000000000000000602082015250565b7f5375736869546f6b656e3a206d7573742068617665206d696e74657220726f6c60008201527f6520746f206d696e740000000000000000000000000000000000000000000000602082015250565b7f53555348493a3a64656c656761746542795369673a207369676e61747572652060008201527f6578706972656400000000000000000000000000000000000000000000000000602082015250565b7f45524332303a20617070726f766520746f20746865207a65726f20616464726560008201527f7373000000000000000000000000000000000000000000000000000000000000602082015250565b7f1901000000000000000000000000000000000000000000000000000000000000600082015250565b7f536166654d6174683a206164646974696f6e206f766572666c6f770000000000600082015250565b7f45524332303a20746f6b656e2068617320616c7265616479206265656e20696e60008201527f697469616c697a65642100000000000000000000000000000000000000000000602082015250565b7f416363657373436f6e74726f6c3a2073656e646572206d75737420626520616e60008201527f2061646d696e20746f207265766f6b6500000000000000000000000000000000602082015250565b7f45524332303a2045787069726564000000000000000000000000000000000000600082015250565b7f53555348493a3a6765745072696f72566f7465733a206e6f742079657420646560008201527f7465726d696e6564000000000000000000000000000000000000000000000000602082015250565b7f53555348493a3a64656c656761746542795369673a20696e76616c6964206e6f60008201527f6e63650000000000000000000000000000000000000000000000000000000000602082015250565b7f53555348493a3a64656c656761746542795369673a20696e76616c696420736960008201527f676e617475726500000000000000000000000000000000000000000000000000602082015250565b7f45524332303a207472616e736665722066726f6d20746865207a65726f20616460008201527f6472657373000000000000000000000000000000000000000000000000000000602082015250565b7f45524332303a20617070726f76652066726f6d20746865207a65726f2061646460008201527f7265737300000000000000000000000000000000000000000000000000000000602082015250565b7f45524332303a204f776e65722063616e6e6f7420626520300000000000000000600082015250565b7f416363657373436f6e74726f6c3a2063616e206f6e6c792072656e6f756e636560008201527f20726f6c657320666f722073656c660000000000000000000000000000000000602082015250565b7f45524332303a206d696e7420746f20746865207a65726f206164647265737300600082015250565b7f45524332303a20496e76616c6964205369676e61747572650000000000000000600082015250565b614ba781614410565b8114614bb257600080fd5b50565b614bbe81614422565b8114614bc957600080fd5b50565b614bd581614440565b8114614be057600080fd5b50565b614bec8161446a565b8114614bf757600080fd5b50565b614c0381614474565b8114614c0e57600080fd5b50565b614c1a81614484565b8114614c2557600080fd5b5056fe45524332303a207472616e7366657220616d6f756e7420657863656564732062616c616e636553555348493a3a5f7772697465436865636b706f696e743a20626c6f636b206e756d6265722065786365656473203332206269747345524332303a207472616e7366657220616d6f756e74206578636565647320616c6c6f77616e636545524332303a2064656372656173656420616c6c6f77616e63652062656c6f77207a65726fa2646970667358221220d93c1b13998f882dc80c085e2c24f48defce368549a8de17165ef832cf56971664736f6c63430008040033",
  "linkReferences": {},
  "deployedLinkReferences": {}
}