{
  "_format": "hh-sol-artifact-1",
  "contractName": "BatchAuction",
  "sourceName": "contracts/Auctions/BatchAuction.sol",
  "abi": [
    {
      "anonymous": false,
      "inputs": [
        {
          "indexed": false,
          "internalType": "address",
          "name": "addr",
          "type": "address"
        },
        {
          "indexed": false,
          "internalType": "uint256",
          "name": "commitment",
          "type": "uint256"
        }
      ],
      "name": "AddedCommitment",
      "type": "event"
    },
    {
      "anonymous": false,
      "inputs": [
        {
          "indexed": true,
          "internalType": "address",
          "name": "beneficiary",
          "type": "address"
        },
        {
          "indexed": true,
          "internalType": "address",
          "name": "caller",
          "type": "address"
        }
      ],
      "name": "AdminRoleGranted",
      "type": "event"
    },
    {
      "anonymous": false,
      "inputs": [
        {
          "indexed": true,
          "internalType": "address",
          "name": "beneficiary",
          "type": "address"
        },
        {
          "indexed": true,
          "internalType": "address",
          "name": "caller",
          "type": "address"
        }
      ],
      "name": "AdminRoleRemoved",
      "type": "event"
    },
    {
      "anonymous": false,
      "inputs": [],
      "name": "AuctionCancelled",
      "type": "event"
    },
    {
      "anonymous": false,
      "inputs": [],
      "name": "AuctionFinalized",
      "type": "event"
    },
    {
      "anonymous": false,
      "inputs": [
        {
          "indexed": false,
          "internalType": "uint256",
          "name": "minimumCommitmentAmount",
          "type": "uint256"
        }
      ],
      "name": "AuctionPriceUpdated",
      "type": "event"
    },
    {
      "anonymous": false,
      "inputs": [
        {
          "indexed": false,
          "internalType": "uint256",
          "name": "startTime",
          "type": "uint256"
        },
        {
          "indexed": false,
          "internalType": "uint256",
          "name": "endTime",
          "type": "uint256"
        }
      ],
      "name": "AuctionTimeUpdated",
      "type": "event"
    },
    {
      "anonymous": false,
      "inputs": [
        {
          "indexed": false,
          "internalType": "address",
          "name": "wallet",
          "type": "address"
        }
      ],
      "name": "AuctionWalletUpdated",
      "type": "event"
    },
    {
      "anonymous": false,
      "inputs": [
        {
          "indexed": true,
          "internalType": "string",
          "name": "_name",
          "type": "string"
        },
        {
          "indexed": false,
          "internalType": "string",
          "name": "_data",
          "type": "string"
        }
      ],
      "name": "DocumentRemoved",
      "type": "event"
    },
    {
      "anonymous": false,
      "inputs": [
        {
          "indexed": true,
          "internalType": "string",
          "name": "_name",
          "type": "string"
        },
        {
          "indexed": false,
          "internalType": "string",
          "name": "_data",
          "type": "string"
        }
      ],
      "name": "DocumentUpdated",
      "type": "event"
    },
    {
      "anonymous": false,
      "inputs": [
        {
          "indexed": true,
          "internalType": "address",
          "name": "beneficiary",
          "type": "address"
        },
        {
          "indexed": true,
          "internalType": "address",
          "name": "caller",
          "type": "address"
        }
      ],
      "name": "MinterRoleGranted",
      "type": "event"
    },
    {
      "anonymous": false,
      "inputs": [
        {
          "indexed": true,
          "internalType": "address",
          "name": "beneficiary",
          "type": "address"
        },
        {
          "indexed": true,
          "internalType": "address",
          "name": "caller",
          "type": "address"
        }
      ],
      "name": "MinterRoleRemoved",
      "type": "event"
    },
    {
      "anonymous": false,
      "inputs": [
        {
          "indexed": true,
          "internalType": "address",
          "name": "beneficiary",
          "type": "address"
        },
        {
          "indexed": true,
          "internalType": "address",
          "name": "caller",
          "type": "address"
        }
      ],
      "name": "OperatorRoleGranted",
      "type": "event"
    },
    {
      "anonymous": false,
      "inputs": [
        {
          "indexed": true,
          "internalType": "address",
          "name": "beneficiary",
          "type": "address"
        },
        {
          "indexed": true,
          "internalType": "address",
          "name": "caller",
          "type": "address"
        }
      ],
      "name": "OperatorRoleRemoved",
      "type": "event"
    },
    {
      "anonymous": false,
      "inputs": [
        {
          "indexed": true,
          "internalType": "bytes32",
          "name": "role",
          "type": "bytes32"
        },
        {
          "indexed": true,
          "internalType": "bytes32",
          "name": "previousAdminRole",
          "type": "bytes32"
        },
        {
          "indexed": true,
          "internalType": "bytes32",
          "name": "newAdminRole",
          "type": "bytes32"
        }
      ],
      "name": "RoleAdminChanged",
      "type": "event"
    },
    {
      "anonymous": false,
      "inputs": [
        {
          "indexed": true,
          "internalType": "bytes32",
          "name": "role",
          "type": "bytes32"
        },
        {
          "indexed": true,
          "internalType": "address",
          "name": "account",
          "type": "address"
        },
        {
          "indexed": true,
          "internalType": "address",
          "name": "sender",
          "type": "address"
        }
      ],
      "name": "RoleGranted",
      "type": "event"
    },
    {
      "anonymous": false,
      "inputs": [
        {
          "indexed": true,
          "internalType": "bytes32",
          "name": "role",
          "type": "bytes32"
        },
        {
          "indexed": true,
          "internalType": "address",
          "name": "account",
          "type": "address"
        },
        {
          "indexed": true,
          "internalType": "address",
          "name": "sender",
          "type": "address"
        }
      ],
      "name": "RoleRevoked",
      "type": "event"
    },
    {
      "anonymous": false,
      "inputs": [
        {
          "indexed": true,
          "internalType": "address",
          "name": "beneficiary",
          "type": "address"
        },
        {
          "indexed": true,
          "internalType": "address",
          "name": "caller",
          "type": "address"
        }
      ],
      "name": "SmartContractRoleGranted",
      "type": "event"
    },
    {
      "anonymous": false,
      "inputs": [
        {
          "indexed": true,
          "internalType": "address",
          "name": "beneficiary",
          "type": "address"
        },
        {
          "indexed": true,
          "internalType": "address",
          "name": "caller",
          "type": "address"
        }
      ],
      "name": "SmartContractRoleRemoved",
      "type": "event"
    },
    {
      "inputs": [],
      "name": "DEFAULT_ADMIN_ROLE",
      "outputs": [
        {
          "internalType": "bytes32",
          "name": "",
          "type": "bytes32"
        }
      ],
      "stateMutability": "view",
      "type": "function"
    },
    {
      "inputs": [],
      "name": "MINTER_ROLE",
      "outputs": [
        {
          "internalType": "bytes32",
          "name": "",
          "type": "bytes32"
        }
      ],
      "stateMutability": "view",
      "type": "function"
    },
    {
      "inputs": [],
      "name": "OPERATOR_ROLE",
      "outputs": [
        {
          "internalType": "bytes32",
          "name": "",
          "type": "bytes32"
        }
      ],
      "stateMutability": "view",
      "type": "function"
    },
    {
      "inputs": [],
      "name": "SMART_CONTRACT_ROLE",
      "outputs": [
        {
          "internalType": "bytes32",
          "name": "",
          "type": "bytes32"
        }
      ],
      "stateMutability": "view",
      "type": "function"
    },
    {
      "inputs": [
        {
          "internalType": "address",
          "name": "_address",
          "type": "address"
        }
      ],
      "name": "addAdminRole",
      "outputs": [],
      "stateMutability": "nonpayable",
      "type": "function"
    },
    {
      "inputs": [
        {
          "internalType": "address",
          "name": "_address",
          "type": "address"
        }
      ],
      "name": "addMinterRole",
      "outputs": [],
      "stateMutability": "nonpayable",
      "type": "function"
    },
    {
      "inputs": [
        {
          "internalType": "address",
          "name": "_address",
          "type": "address"
        }
      ],
      "name": "addOperatorRole",
      "outputs": [],
      "stateMutability": "nonpayable",
      "type": "function"
    },
    {
      "inputs": [
        {
          "internalType": "address",
          "name": "_address",
          "type": "address"
        }
      ],
      "name": "addSmartContractRole",
      "outputs": [],
      "stateMutability": "nonpayable",
      "type": "function"
    },
    {
      "inputs": [],
      "name": "auctionEnded",
      "outputs": [
        {
          "internalType": "bool",
          "name": "",
          "type": "bool"
        }
      ],
      "stateMutability": "view",
      "type": "function"
    },
    {
      "inputs": [],
      "name": "auctionSuccessful",
      "outputs": [
        {
          "internalType": "bool",
          "name": "",
          "type": "bool"
        }
      ],
      "stateMutability": "view",
      "type": "function"
    },
    {
      "inputs": [],
      "name": "auctionToken",
      "outputs": [
        {
          "internalType": "address",
          "name": "",
          "type": "address"
        }
      ],
      "stateMutability": "view",
      "type": "function"
    },
    {
      "inputs": [],
      "name": "cancelAuction",
      "outputs": [],
      "stateMutability": "nonpayable",
      "type": "function"
    },
    {
      "inputs": [
        {
          "internalType": "address",
          "name": "",
          "type": "address"
        }
      ],
      "name": "claimed",
      "outputs": [
        {
          "internalType": "uint256",
          "name": "",
          "type": "uint256"
        }
      ],
      "stateMutability": "view",
      "type": "function"
    },
    {
      "inputs": [
        {
          "internalType": "address payable",
          "name": "_beneficiary",
          "type": "address"
        },
        {
          "internalType": "bool",
          "name": "readAndAgreedToMarketParticipationAgreement",
          "type": "bool"
        }
      ],
      "name": "commitEth",
      "outputs": [],
      "stateMutability": "payable",
      "type": "function"
    },
    {
      "inputs": [
        {
          "internalType": "uint256",
          "name": "_amount",
          "type": "uint256"
        },
        {
          "internalType": "bool",
          "name": "readAndAgreedToMarketParticipationAgreement",
          "type": "bool"
        }
      ],
      "name": "commitTokens",
      "outputs": [],
      "stateMutability": "nonpayable",
      "type": "function"
    },
    {
      "inputs": [
        {
          "internalType": "address",
          "name": "_from",
          "type": "address"
        },
        {
          "internalType": "uint256",
          "name": "_amount",
          "type": "uint256"
        },
        {
          "internalType": "bool",
          "name": "readAndAgreedToMarketParticipationAgreement",
          "type": "bool"
        }
      ],
      "name": "commitTokensFrom",
      "outputs": [],
      "stateMutability": "nonpayable",
      "type": "function"
    },
    {
      "inputs": [
        {
          "internalType": "address",
          "name": "",
          "type": "address"
        }
      ],
      "name": "commitments",
      "outputs": [
        {
          "internalType": "uint256",
          "name": "",
          "type": "uint256"
        }
      ],
      "stateMutability": "view",
      "type": "function"
    },
    {
      "inputs": [
        {
          "internalType": "bool",
          "name": "_status",
          "type": "bool"
        }
      ],
      "name": "enableList",
      "outputs": [],
      "stateMutability": "nonpayable",
      "type": "function"
    },
    {
      "inputs": [],
      "name": "finalize",
      "outputs": [],
      "stateMutability": "nonpayable",
      "type": "function"
    },
    {
      "inputs": [],
      "name": "finalizeTimeExpired",
      "outputs": [
        {
          "internalType": "bool",
          "name": "",
          "type": "bool"
        }
      ],
      "stateMutability": "view",
      "type": "function"
    },
    {
      "inputs": [],
      "name": "finalized",
      "outputs": [
        {
          "internalType": "bool",
          "name": "",
          "type": "bool"
        }
      ],
      "stateMutability": "view",
      "type": "function"
    },
    {
      "inputs": [],
      "name": "getAllDocuments",
      "outputs": [
        {
          "internalType": "string[]",
          "name": "",
          "type": "string[]"
        }
      ],
      "stateMutability": "view",
      "type": "function"
    },
    {
      "inputs": [],
      "name": "getBaseInformation",
      "outputs": [
        {
          "internalType": "address",
          "name": "token",
          "type": "address"
        },
        {
          "internalType": "uint64",
          "name": "startTime",
          "type": "uint64"
        },
        {
          "internalType": "uint64",
          "name": "endTime",
          "type": "uint64"
        },
        {
          "internalType": "bool",
          "name": "marketFinalized",
          "type": "bool"
        }
      ],
      "stateMutability": "view",
      "type": "function"
    },
    {
      "inputs": [
        {
          "internalType": "address",
          "name": "_funder",
          "type": "address"
        },
        {
          "internalType": "address",
          "name": "_token",
          "type": "address"
        },
        {
          "internalType": "uint256",
          "name": "_totalTokens",
          "type": "uint256"
        },
        {
          "internalType": "uint256",
          "name": "_startTime",
          "type": "uint256"
        },
        {
          "internalType": "uint256",
          "name": "_endTime",
          "type": "uint256"
        },
        {
          "internalType": "address",
          "name": "_paymentCurrency",
          "type": "address"
        },
        {
          "internalType": "uint256",
          "name": "_minimumCommitmentAmount",
          "type": "uint256"
        },
        {
          "internalType": "address",
          "name": "_admin",
          "type": "address"
        },
        {
          "internalType": "address",
          "name": "_pointList",
          "type": "address"
        },
        {
          "internalType": "address payable",
          "name": "_wallet",
          "type": "address"
        }
      ],
      "name": "getBatchAuctionInitData",
      "outputs": [
        {
          "internalType": "bytes",
          "name": "_data",
          "type": "bytes"
        }
      ],
      "stateMutability": "pure",
      "type": "function"
    },
    {
      "inputs": [
        {
          "internalType": "string",
          "name": "_name",
          "type": "string"
        }
      ],
      "name": "getDocument",
      "outputs": [
        {
          "internalType": "string",
          "name": "",
          "type": "string"
        },
        {
          "internalType": "uint256",
          "name": "",
          "type": "uint256"
        }
      ],
      "stateMutability": "view",
      "type": "function"
    },
    {
      "inputs": [],
      "name": "getDocumentCount",
      "outputs": [
        {
          "internalType": "uint256",
          "name": "",
          "type": "uint256"
        }
      ],
      "stateMutability": "view",
      "type": "function"
    },
    {
      "inputs": [
        {
          "internalType": "uint256",
          "name": "_index",
          "type": "uint256"
        }
      ],
      "name": "getDocumentName",
      "outputs": [
        {
          "internalType": "string",
          "name": "",
          "type": "string"
        }
      ],
      "stateMutability": "view",
      "type": "function"
    },
    {
      "inputs": [
        {
          "internalType": "bytes32",
          "name": "role",
          "type": "bytes32"
        }
      ],
      "name": "getRoleAdmin",
      "outputs": [
        {
          "internalType": "bytes32",
          "name": "",
          "type": "bytes32"
        }
      ],
      "stateMutability": "view",
      "type": "function"
    },
    {
      "inputs": [
        {
          "internalType": "bytes32",
          "name": "role",
          "type": "bytes32"
        },
        {
          "internalType": "uint256",
          "name": "index",
          "type": "uint256"
        }
      ],
      "name": "getRoleMember",
      "outputs": [
        {
          "internalType": "address",
          "name": "",
          "type": "address"
        }
      ],
      "stateMutability": "view",
      "type": "function"
    },
    {
      "inputs": [
        {
          "internalType": "bytes32",
          "name": "role",
          "type": "bytes32"
        }
      ],
      "name": "getRoleMemberCount",
      "outputs": [
        {
          "internalType": "uint256",
          "name": "",
          "type": "uint256"
        }
      ],
      "stateMutability": "view",
      "type": "function"
    },
    {
      "inputs": [],
      "name": "getTotalTokens",
      "outputs": [
        {
          "internalType": "uint256",
          "name": "",
          "type": "uint256"
        }
      ],
      "stateMutability": "view",
      "type": "function"
    },
    {
      "inputs": [
        {
          "internalType": "bytes32",
          "name": "role",
          "type": "bytes32"
        },
        {
          "internalType": "address",
          "name": "account",
          "type": "address"
        }
      ],
      "name": "grantRole",
      "outputs": [],
      "stateMutability": "nonpayable",
      "type": "function"
    },
    {
      "inputs": [
        {
          "internalType": "address",
          "name": "_address",
          "type": "address"
        }
      ],
      "name": "hasAdminRole",
      "outputs": [
        {
          "internalType": "bool",
          "name": "",
          "type": "bool"
        }
      ],
      "stateMutability": "view",
      "type": "function"
    },
    {
      "inputs": [
        {
          "internalType": "address",
          "name": "_address",
          "type": "address"
        }
      ],
      "name": "hasMinterRole",
      "outputs": [
        {
          "internalType": "bool",
          "name": "",
          "type": "bool"
        }
      ],
      "stateMutability": "view",
      "type": "function"
    },
    {
      "inputs": [
        {
          "internalType": "address",
          "name": "_address",
          "type": "address"
        }
      ],
      "name": "hasOperatorRole",
      "outputs": [
        {
          "internalType": "bool",
          "name": "",
          "type": "bool"
        }
      ],
      "stateMutability": "view",
      "type": "function"
    },
    {
      "inputs": [
        {
          "internalType": "bytes32",
          "name": "role",
          "type": "bytes32"
        },
        {
          "internalType": "address",
          "name": "account",
          "type": "address"
        }
      ],
      "name": "hasRole",
      "outputs": [
        {
          "internalType": "bool",
          "name": "",
          "type": "bool"
        }
      ],
      "stateMutability": "view",
      "type": "function"
    },
    {
      "inputs": [
        {
          "internalType": "address",
          "name": "_address",
          "type": "address"
        }
      ],
      "name": "hasSmartContractRole",
      "outputs": [
        {
          "internalType": "bool",
          "name": "",
          "type": "bool"
        }
      ],
      "stateMutability": "view",
      "type": "function"
    },
    {
      "inputs": [
        {
          "internalType": "bytes",
          "name": "_data",
          "type": "bytes"
        }
      ],
      "name": "init",
      "outputs": [],
      "stateMutability": "payable",
      "type": "function"
    },
    {
      "inputs": [
        {
          "internalType": "address",
          "name": "_admin",
          "type": "address"
        }
      ],
      "name": "initAccessControls",
      "outputs": [],
      "stateMutability": "nonpayable",
      "type": "function"
    },
    {
      "inputs": [
        {
          "internalType": "address",
          "name": "_funder",
          "type": "address"
        },
        {
          "internalType": "address",
          "name": "_token",
          "type": "address"
        },
        {
          "internalType": "uint256",
          "name": "_totalTokens",
          "type": "uint256"
        },
        {
          "internalType": "uint256",
          "name": "_startTime",
          "type": "uint256"
        },
        {
          "internalType": "uint256",
          "name": "_endTime",
          "type": "uint256"
        },
        {
          "internalType": "address",
          "name": "_paymentCurrency",
          "type": "address"
        },
        {
          "internalType": "uint256",
          "name": "_minimumCommitmentAmount",
          "type": "uint256"
        },
        {
          "internalType": "address",
          "name": "_admin",
          "type": "address"
        },
        {
          "internalType": "address",
          "name": "_pointList",
          "type": "address"
        },
        {
          "internalType": "address payable",
          "name": "_wallet",
          "type": "address"
        }
      ],
      "name": "initAuction",
      "outputs": [],
      "stateMutability": "nonpayable",
      "type": "function"
    },
    {
      "inputs": [
        {
          "internalType": "bytes",
          "name": "_data",
          "type": "bytes"
        }
      ],
      "name": "initMarket",
      "outputs": [],
      "stateMutability": "nonpayable",
      "type": "function"
    },
    {
      "inputs": [],
      "name": "marketInfo",
      "outputs": [
        {
          "internalType": "uint64",
          "name": "startTime",
          "type": "uint64"
        },
        {
          "internalType": "uint64",
          "name": "endTime",
          "type": "uint64"
        },
        {
          "internalType": "uint128",
          "name": "totalTokens",
          "type": "uint128"
        }
      ],
      "stateMutability": "view",
      "type": "function"
    },
    {
      "inputs": [],
      "name": "marketParticipationAgreement",
      "outputs": [
        {
          "internalType": "string",
          "name": "",
          "type": "string"
        }
      ],
      "stateMutability": "pure",
      "type": "function"
    },
    {
      "inputs": [],
      "name": "marketStatus",
      "outputs": [
        {
          "internalType": "uint128",
          "name": "commitmentsTotal",
          "type": "uint128"
        },
        {
          "internalType": "uint128",
          "name": "minimumCommitmentAmount",
          "type": "uint128"
        },
        {
          "internalType": "bool",
          "name": "finalized",
          "type": "bool"
        },
        {
          "internalType": "bool",
          "name": "usePointList",
          "type": "bool"
        }
      ],
      "stateMutability": "view",
      "type": "function"
    },
    {
      "inputs": [],
      "name": "marketTemplate",
      "outputs": [
        {
          "internalType": "uint256",
          "name": "",
          "type": "uint256"
        }
      ],
      "stateMutability": "view",
      "type": "function"
    },
    {
      "inputs": [],
      "name": "paymentCurrency",
      "outputs": [
        {
          "internalType": "address",
          "name": "",
          "type": "address"
        }
      ],
      "stateMutability": "view",
      "type": "function"
    },
    {
      "inputs": [],
      "name": "pointList",
      "outputs": [
        {
          "internalType": "address",
          "name": "",
          "type": "address"
        }
      ],
      "stateMutability": "view",
      "type": "function"
    },
    {
      "inputs": [
        {
          "internalType": "address",
          "name": "_address",
          "type": "address"
        }
      ],
      "name": "removeAdminRole",
      "outputs": [],
      "stateMutability": "nonpayable",
      "type": "function"
    },
    {
      "inputs": [
        {
          "internalType": "string",
          "name": "_name",
          "type": "string"
        }
      ],
      "name": "removeDocument",
      "outputs": [],
      "stateMutability": "nonpayable",
      "type": "function"
    },
    {
      "inputs": [
        {
          "internalType": "address",
          "name": "_address",
          "type": "address"
        }
      ],
      "name": "removeMinterRole",
      "outputs": [],
      "stateMutability": "nonpayable",
      "type": "function"
    },
    {
      "inputs": [
        {
          "internalType": "address",
          "name": "_address",
          "type": "address"
        }
      ],
      "name": "removeOperatorRole",
      "outputs": [],
      "stateMutability": "nonpayable",
      "type": "function"
    },
    {
      "inputs": [
        {
          "internalType": "address",
          "name": "_address",
          "type": "address"
        }
      ],
      "name": "removeSmartContractRole",
      "outputs": [],
      "stateMutability": "nonpayable",
      "type": "function"
    },
    {
      "inputs": [
        {
          "internalType": "bytes32",
          "name": "role",
          "type": "bytes32"
        },
        {
          "internalType": "address",
          "name": "account",
          "type": "address"
        }
      ],
      "name": "renounceRole",
      "outputs": [],
      "stateMutability": "nonpayable",
      "type": "function"
    },
    {
      "inputs": [
        {
          "internalType": "bytes32",
          "name": "role",
          "type": "bytes32"
        },
        {
          "internalType": "address",
          "name": "account",
          "type": "address"
        }
      ],
      "name": "revokeRole",
      "outputs": [],
      "stateMutability": "nonpayable",
      "type": "function"
    },
    {
      "inputs": [
        {
          "internalType": "uint256",
          "name": "_minimumCommitmentAmount",
          "type": "uint256"
        }
      ],
      "name": "setAuctionPrice",
      "outputs": [],
      "stateMutability": "nonpayable",
      "type": "function"
    },
    {
      "inputs": [
        {
          "internalType": "uint256",
          "name": "_startTime",
          "type": "uint256"
        },
        {
          "internalType": "uint256",
          "name": "_endTime",
          "type": "uint256"
        }
      ],
      "name": "setAuctionTime",
      "outputs": [],
      "stateMutability": "nonpayable",
      "type": "function"
    },
    {
      "inputs": [
        {
          "internalType": "address payable",
          "name": "_wallet",
          "type": "address"
        }
      ],
      "name": "setAuctionWallet",
      "outputs": [],
      "stateMutability": "nonpayable",
      "type": "function"
    },
    {
      "inputs": [
        {
          "internalType": "string",
          "name": "_name",
          "type": "string"
        },
        {
          "internalType": "string",
          "name": "_data",
          "type": "string"
        }
      ],
      "name": "setDocument",
      "outputs": [],
      "stateMutability": "nonpayable",
      "type": "function"
    },
    {
      "inputs": [
        {
          "internalType": "string[]",
          "name": "_name",
          "type": "string[]"
        },
        {
          "internalType": "string[]",
          "name": "_data",
          "type": "string[]"
        }
      ],
      "name": "setDocuments",
      "outputs": [],
      "stateMutability": "nonpayable",
      "type": "function"
    },
    {
      "inputs": [
        {
          "internalType": "address",
          "name": "_list",
          "type": "address"
        }
      ],
      "name": "setList",
      "outputs": [],
      "stateMutability": "nonpayable",
      "type": "function"
    },
    {
      "inputs": [],
      "name": "tokenPrice",
      "outputs": [
        {
          "internalType": "uint256",
          "name": "",
          "type": "uint256"
        }
      ],
      "stateMutability": "view",
      "type": "function"
    },
    {
      "inputs": [
        {
          "internalType": "address",
          "name": "_user",
          "type": "address"
        }
      ],
      "name": "tokensClaimable",
      "outputs": [
        {
          "internalType": "uint256",
          "name": "claimerCommitment",
          "type": "uint256"
        }
      ],
      "stateMutability": "view",
      "type": "function"
    },
    {
      "inputs": [],
      "name": "wallet",
      "outputs": [
        {
          "internalType": "address payable",
          "name": "",
          "type": "address"
        }
      ],
      "stateMutability": "view",
      "type": "function"
    },
    {
      "inputs": [
        {
          "internalType": "address payable",
          "name": "beneficiary",
          "type": "address"
        }
      ],
      "name": "withdrawTokens",
      "outputs": [],
      "stateMutability": "nonpayable",
      "type": "function"
    },
    {
      "inputs": [],
      "name": "withdrawTokens",
      "outputs": [],
      "stateMutability": "nonpayable",
      "type": "function"
    },
    {
      "stateMutability": "payable",
      "type": "receive"
    }
  ],
  "bytecode": "0x608060405234801561001057600080fd5b5060016005556148a0806100256000396000f3fe6080604052600436106103e25760003560e01c80638a845fc01161020d578063c884ef8311610128578063dde51f6d116100bb578063f04899d31161008a578063f5b541a61161006f578063f5b541a614610cb6578063f910691314610cea578063fc4e3e0a14610d7857600080fd5b8063f04899d314610c71578063f08b82e614610c9157600080fd5b8063dde51f6d14610b95578063e0e081d714610bb5578063e6594abd14610c24578063e8fcf72314610c4457600080fd5b8063d547741f116100f7578063d547741f14610b15578063d69d3e6214610b35578063dc97e08214610b55578063dccfe31014610b7557600080fd5b8063c884ef8314610a74578063c92bce8714610aa1578063ca15c87314610ac1578063d539139314610ae157600080fd5b80639c64d0ae116101a0578063b3f05b971161016f578063b3f05b97146109fc578063b7928b1d14610a14578063c395fcb314610a34578063c6b547e614610a5457600080fd5b80639c64d0ae146109855780639fa5f50b146109a5578063a217fddf146109c7578063adbf3776146109dc57600080fd5b806391d14854116101dc57806391d14854146109055780639478941c1461092557806399fdb320146109455780639a87222c1461096557600080fd5b80638a845fc01461089b5780638d8f2adb146108bb5780638fa8b790146108d05780639010d07c146108e557600080fd5b806349df728c116102fd5780636ae260c1116102905780637ff9b5961161025f5780637ff9b5961461080a57806381353c8e1461081f578063857d26081461083f578063864333741461087357600080fd5b80636ae260c11461077a57806374cf9fc51461079a5780637525b0bd146107bc5780637ccb6a64146107dc57600080fd5b80634ddf47d4116102cc5780634ddf47d414610708578063521eb2731461071a57806354f1e1261461073a5780636595171c1461075a57600080fd5b806349df728c146106935780634b3e6abb146106b35780634bb278f3146106d35780634dc80e15146106e857600080fd5b80632f2ff15d116103755780633b33fe73116103445780633b33fe73146106065780633d15cc6d146106265780633d1c22731461065e5780633f16431a1461067357600080fd5b80632f2ff15d14610555578063314148e21461057557806336568abe146105d157806336d0054b146105f157600080fd5b80631b3e460e116103b15780631b3e460e146104cf578063212f8a81146104f2578063248a9ca314610512578063297629601461054257600080fd5b8063031bee00146103f6578063099db0171461046a578063113b0ab21461049a57806317026455146104ba57600080fd5b366103f1576103ef610d98565b005b600080fd5b34801561040257600080fd5b506006546104359067ffffffffffffffff80821691600160401b810490911690600160801b90046001600160801b031683565b6040805167ffffffffffffffff94851681529390921660208401526001600160801b0316908201526060015b60405180910390f35b34801561047657600080fd5b5061048a610485366004614015565b610e31565b6040519015158152602001610461565b3480156104a657600080fd5b5061048a6104b5366004614015565b610e63565b3480156104c657600080fd5b5061048a610e8f565b3480156104db57600080fd5b506104e4600381565b604051908152602001610461565b3480156104fe57600080fd5b506103ef61050d366004614114565b610ebb565b34801561051e57600080fd5b506104e461052d3660046141f6565b60009081526020819052604090206002015490565b6103ef6105503660046140dc565b611042565b34801561056157600080fd5b506103ef61057036600461420e565b61114f565b34801561058157600080fd5b50600954600654600854604080516001600160a01b03909416845267ffffffffffffffff8084166020860152600160401b9093049092169183019190915260ff1615156060820152608001610461565b3480156105dd57600080fd5b506103ef6105ec36600461420e565b6111e7565b3480156105fd57600080fd5b5061048a61126f565b34801561061257600080fd5b506103ef6106213660046141f6565b6112a5565b34801561063257600080fd5b50600a54610646906001600160a01b031681565b6040516001600160a01b039091168152602001610461565b34801561066a57600080fd5b506004546104e4565b34801561067f57600080fd5b506103ef61068e366004614015565b611399565b34801561069f57600080fd5b506103ef6106ae366004614015565b6113fc565b3480156106bf57600080fd5b506103ef6106ce3660046141be565b611673565b3480156106df57600080fd5b506103ef61169f565b3480156106f457600080fd5b506104e4610703366004614015565b6119af565b6103ef610716366004614253565b5050565b34801561072657600080fd5b50600c54610646906001600160a01b031681565b34801561074657600080fd5b506103ef610755366004614015565b611ac9565b34801561076657600080fd5b506103ef610775366004614015565b611b2c565b34801561078657600080fd5b506103ef610795366004614232565b611b70565b3480156107a657600080fd5b506107af611e97565b6040516104619190614475565b3480156107c857600080fd5b506103ef6107d7366004614031565b611eba565b3480156107e857600080fd5b506107fc6107f7366004614253565b61252d565b6040516104619291906144b7565b34801561081657600080fd5b506104e4612626565b34801561082b57600080fd5b506103ef61083a366004614253565b61265f565b34801561084b57600080fd5b506104e47f9d49f397ae9ef1a834b569acb967799a367061e305932181a44f5773da873bfd81565b34801561087f57600080fd5b50600654600160401b900467ffffffffffffffff16421161048a565b3480156108a757600080fd5b506103ef6108b6366004614015565b6126aa565b3480156108c757600080fd5b506103ef61270d565b3480156108dc57600080fd5b506103ef612718565b3480156108f157600080fd5b50610646610900366004614232565b6128a1565b34801561091157600080fd5b5061048a61092036600461420e565b6128c0565b34801561093157600080fd5b506103ef610940366004614015565b6128d8565b34801561095157600080fd5b50600954610646906001600160a01b031681565b34801561097157600080fd5b506103ef610980366004614015565b61293b565b34801561099157600080fd5b506103ef6109a0366004614293565b612a0f565b3480156109b157600080fd5b506109ba612a33565b6040516104619190614414565b3480156109d357600080fd5b506104e4600081565b3480156109e857600080fd5b506103ef6109f7366004614015565b612b0c565b348015610a0857600080fd5b5060085460ff1661048a565b348015610a2057600080fd5b506103ef610a2f366004614015565b612b6f565b348015610a4057600080fd5b5061048a610a4f366004614015565b612bd2565b348015610a6057600080fd5b506107af610a6f3660046141f6565b612bde565b348015610a8057600080fd5b506104e4610a8f366004614015565b600e6020526000908152604090205481565b348015610aad57600080fd5b506103ef610abc366004614155565b612ced565b348015610acd57600080fd5b506104e4610adc3660046141f6565b612d91565b348015610aed57600080fd5b506104e47f9f2df0fed2c77648de5860a4cc508cd0818c85b8b8a1ab4ceeef8d981c8956a681565b348015610b2157600080fd5b506103ef610b3036600461420e565b612da8565b348015610b4157600080fd5b506103ef610b50366004614015565b612e36565b348015610b6157600080fd5b506103ef610b70366004614308565b612e54565b348015610b8157600080fd5b506103ef610b90366004614015565b612e5f565b348015610ba157600080fd5b506103ef610bb0366004614253565b612ea3565b348015610bc157600080fd5b50600754600854610bf1916001600160801b0380821692600160801b909204169060ff8082169161010090041684565b604080516001600160801b0395861681529490931660208501529015159183019190915215156060820152608001610461565b348015610c3057600080fd5b506103ef610c3f366004614015565b612ebf565b348015610c5057600080fd5b506104e4610c5f366004614015565b600d6020526000908152604090205481565b348015610c7d57600080fd5b50600b54610646906001600160a01b031681565b348015610c9d57600080fd5b50600654600160801b90046001600160801b03166104e4565b348015610cc257600080fd5b506104e47f97667070c54ef182b0f5858b034beac1b6f3089aa2d3188bb1e8929f4fa9b92981565b348015610cf657600080fd5b506107af610d05366004614031565b604080516001600160a01b039b8c166020820152998b168a82015260608a0198909852608089019690965260a088019490945291871660c087015260e086015285166101008501528416610120840152909216610140808301919091528251808303909101815261016090910190915290565b348015610d8457600080fd5b5061048a610d93366004614015565b612f2c565b60405162461bcd60e51b815260206004820152605260248201527f4e6f2061677265656d656e742070726f76696465642c20706c6561736520726560448201527f766965772074686520736d61727420636f6e7472616374206265666f7265206960648201527f6e746572616374696e6720776974682069740000000000000000000000000000608482015260a4015b60405180910390fd5b6000610e5d7f9f2df0fed2c77648de5860a4cc508cd0818c85b8b8a1ab4ceeef8d981c8956a6836128c0565b92915050565b6000610e5d7f9d49f397ae9ef1a834b569acb967799a367061e305932181a44f5773da873bfd836128c0565b6006546000904290610eb590600160401b900467ffffffffffffffff1662093a8061459f565b10905090565b60026005541415610f0e5760405162461bcd60e51b815260206004820152601f60248201527f5265656e7472616e637947756172643a207265656e7472616e742063616c6c006044820152606401610e28565b6002600555600a546001600160a01b031673eeeeeeeeeeeeeeeeeeeeeeeeeeeeeeeeeeeeeeee1415610fa85760405162461bcd60e51b815260206004820152602d60248201527f426174636841756374696f6e3a205061796d656e742063757272656e6379206960448201527f73206e6f74206120746f6b656e000000000000000000000000000000000000006064820152608401610e28565b80610fb557610fb5610d98565b600082116110175760405162461bcd60e51b815260206004820152602960248201527f426174636841756374696f6e3a2056616c7565206d757374206265206869676860448201526806572207468616e20360bc1b6064820152608401610e28565b600a5461102e906001600160a01b03163384612f58565b6110388383613054565b5050600160055550565b600a546001600160a01b031673eeeeeeeeeeeeeeeeeeeeeeeeeeeeeeeeeeeeeeee146110d65760405162461bcd60e51b815260206004820152602960248201527f426174636841756374696f6e3a207061796d656e742063757272656e6379206960448201527f73206e6f742045544800000000000000000000000000000000000000000000006064820152608401610e28565b600034116111385760405162461bcd60e51b815260206004820152602960248201527f426174636841756374696f6e3a2056616c7565206d757374206265206869676860448201526806572207468616e20360bc1b6064820152608401610e28565b8061114557611145610d98565b6107168234613054565b60008281526020819052604090206002015461116b90336128c0565b6111dd5760405162461bcd60e51b815260206004820152602f60248201527f416363657373436f6e74726f6c3a2073656e646572206d75737420626520616e60448201527f2061646d696e20746f206772616e7400000000000000000000000000000000006064820152608401610e28565b610716828261328a565b6001600160a01b03811633146112655760405162461bcd60e51b815260206004820152602f60248201527f416363657373436f6e74726f6c3a2063616e206f6e6c792072656e6f756e636560448201527f20726f6c657320666f722073656c6600000000000000000000000000000000006064820152608401610e28565b61071682826132e3565b6007546000906001600160801b03600160801b820481169116108015906112a057506007546001600160801b031615155b905090565b6112ae33612bd2565b6112b757600080fd5b6007546001600160801b0316156113365760405162461bcd60e51b815260206004820152603160248201527f426174636841756374696f6e3a2061756374696f6e2063616e6e6f742068617660448201527f6520616c726561647920737461727465640000000000000000000000000000006064820152608401610e28565b61133f8161333c565b600780546001600160801b03928316600160801b0292169190911790556040517f1fd3f6b4312b53d1521fb9dab5af66131ff5b6141870420ded20e5ffb42f6cf29061138e9083815260200190565b60405180910390a150565b6113c37f9d49f397ae9ef1a834b569acb967799a367061e305932181a44f5773da873bfd8261114f565b60405133906001600160a01b038316907f1d5f9ec24c6f91be922ea13ceaad919ad6554a41b5c26087f96289a9baf98ad290600090a350565b6002600554141561144f5760405162461bcd60e51b815260206004820152601f60248201527f5265656e7472616e637947756172643a207265656e7472616e742063616c6c006044820152606401610e28565b600260055561145c61126f565b156115655760085460ff166114b35760405162461bcd60e51b815260206004820152601b60248201527f426174636841756374696f6e3a206e6f742066696e616c697a656400000000006044820152606401610e28565b60006114be826119af565b9050600081116115105760405162461bcd60e51b815260206004820181905260248201527f426174636841756374696f6e3a204e6f20746f6b656e7320746f20636c61696d6044820152606401610e28565b6001600160a01b0382166000908152600e60205260409020546115339082613399565b6001600160a01b038084166000908152600e602052604090209190915560095461155f911683836133f7565b5061166b565b600654600160401b900467ffffffffffffffff1642116115da5760405162461bcd60e51b815260206004820152602a60248201527f426174636841756374696f6e3a2041756374696f6e20686173206e6f742066696044820152691b9a5cda1959081e595d60b21b6064820152608401610e28565b6001600160a01b0381166000908152600d6020526040902054806116405760405162461bcd60e51b815260206004820181905260248201527f426174636841756374696f6e3a204e6f2066756e647320636f6d6d69747465646044820152606401610e28565b6001600160a01b038083166000908152600d6020526040812055600a54611669911683836133f7565b505b506001600555565b61167c33612bd2565b61168557600080fd5b600880549115156101000261ff0019909216919091179055565b600260055414156116f25760405162461bcd60e51b815260206004820152601f60248201527f5265656e7472616e637947756172643a207265656e7472616e742063616c6c006044820152606401610e28565b600260055561170033612bd2565b806117155750600c546001600160a01b031633145b80611724575061172433610e63565b806117325750611732610e8f565b6117a45760405162461bcd60e51b815260206004820152602260248201527f426174636841756374696f6e3a2053656e646572206d7573742062652061646d60448201527f696e0000000000000000000000000000000000000000000000000000000000006064820152608401610e28565b60085460ff161561181d5760405162461bcd60e51b815260206004820152602b60248201527f426174636841756374696f6e3a2041756374696f6e2068617320616c7265616460448201527f792066696e616c697a65640000000000000000000000000000000000000000006064820152608401610e28565b600654600160401b900467ffffffffffffffff1642116118925760405162461bcd60e51b815260206004820152602a60248201527f426174636841756374696f6e3a2041756374696f6e20686173206e6f742066696044820152691b9a5cda1959081e595d60b21b6064820152608401610e28565b61189a61126f565b156118cd57600a54600c546007546118c8926001600160a01b039081169216906001600160801b03166133f7565b611972565b600654600160401b900467ffffffffffffffff1642116119425760405162461bcd60e51b815260206004820152602a60248201527f426174636841756374696f6e3a2041756374696f6e20686173206e6f742066696044820152691b9a5cda1959081e595d60b21b6064820152608401610e28565b600954600c54600654611972926001600160a01b03908116921690600160801b90046001600160801b03166133f7565b6008805460ff191660011790556040517f32bebcfd2d04dbae321298091d96d2cb1d07279f59718cd83bd98245b8b82b5a90600090a16001600555565b6001600160a01b0381166000908152600d60205260408120546119d457506000919050565b6009546040517f70a082310000000000000000000000000000000000000000000000000000000081523060048201526000916001600160a01b0316906370a082319060240160206040518083038186803b158015611a3157600080fd5b505afa158015611a45573d6000803e3d6000fd5b505050506040513d601f19601f82011682018060405250810190611a6991906142f0565b6001600160a01b0384166000908152600d6020526040902054909150611a8e90613436565b6001600160a01b0384166000908152600e6020526040902054909250611ab590839061346e565b915080821115611ac3578091505b50919050565b611af37f9f2df0fed2c77648de5860a4cc508cd0818c85b8b8a1ab4ceeef8d981c8956a682612da8565b60405133906001600160a01b038316907f56692a161ffec953ddf9def93b958ea8d1ec95e21b80870c66be91a4374dc4e390600090a350565b611b3760008261114f565b60405133906001600160a01b038316907f2570ac42fd8b322dc453ada624dc2ed0e9bdd67f16f201a25bbd30468f2aa18790600090a350565b611b7933612bd2565b611b8257600080fd5b6402540be4008210611c065760405162461bcd60e51b815260206004820152604160248201527f426174636841756374696f6e3a20656e74657220616e20756e69782074696d6560448201527f7374616d7020696e207365636f6e64732c206e6f74206d696c697365636f6e646064820152607360f81b608482015260a401610e28565b6402540be4008110611c8a5760405162461bcd60e51b815260206004820152604160248201527f426174636841756374696f6e3a20656e74657220616e20756e69782074696d6560448201527f7374616d7020696e207365636f6e64732c206e6f74206d696c697365636f6e646064820152607360f81b608482015260a401610e28565b42821015611d005760405162461bcd60e51b815260206004820152602f60248201527f426174636841756374696f6e3a2073746172742074696d65206973206265666f60448201527f72652063757272656e742074696d6500000000000000000000000000000000006064820152608401610e28565b818111611d755760405162461bcd60e51b815260206004820152603560248201527f426174636841756374696f6e3a20656e642074696d65206d757374206265206f60448201527f6c646572207468616e20737461727420707269636500000000000000000000006064820152608401610e28565b6007546001600160801b031615611df45760405162461bcd60e51b815260206004820152603160248201527f426174636841756374696f6e3a2061756374696f6e2063616e6e6f742068617660448201527f6520616c726561647920737461727465640000000000000000000000000000006064820152608401610e28565b611dfd826134cc565b6006805467ffffffffffffffff191667ffffffffffffffff92909216919091179055611e28816134cc565b6006805467ffffffffffffffff92909216600160401b026fffffffffffffffff00000000000000001990921691909117905560408051838152602081018390527f5725d1e4352d6944889e54837ffaefde55cdc0b55796b831365d61cd4c87fdb8910160405180910390a15050565b606060405180610180016040528061015b815260200161471061015b9139905090565b6402540be4008710611f3e5760405162461bcd60e51b815260206004820152604160248201527f426174636841756374696f6e3a20656e74657220616e20756e69782074696d6560448201527f7374616d7020696e207365636f6e64732c206e6f74206d696c697365636f6e646064820152607360f81b608482015260a401610e28565b6402540be4008610611fc25760405162461bcd60e51b815260206004820152604160248201527f426174636841756374696f6e3a20656e74657220616e20756e69782074696d6560448201527f7374616d7020696e207365636f6e64732c206e6f74206d696c697365636f6e646064820152607360f81b608482015260a401610e28565b428710156120385760405162461bcd60e51b815260206004820152602f60248201527f426174636841756374696f6e3a2073746172742074696d65206973206265666f60448201527f72652063757272656e742074696d6500000000000000000000000000000000006064820152608401610e28565b8686116120ad5760405162461bcd60e51b815260206004820152603460248201527f426174636841756374696f6e3a20656e642074696d65206d757374206265206f60448201527f6c646572207468616e2073746172742074696d650000000000000000000000006064820152608401610e28565b600088116121235760405162461bcd60e51b815260206004820152603460248201527f426174636841756374696f6e3a20746f74616c20746f6b656e73206d7573742060448201527f62652067726561746572207468616e207a65726f0000000000000000000000006064820152608401610e28565b6001600160a01b03831661219f5760405162461bcd60e51b815260206004820152602760248201527f426174636841756374696f6e3a2061646d696e20697320746865207a65726f2060448201527f61646472657373000000000000000000000000000000000000000000000000006064820152608401610e28565b6001600160a01b0381166122065760405162461bcd60e51b815260206004820152602860248201527f426174636841756374696f6e3a2077616c6c657420697320746865207a65726f604482015267206164647265737360c01b6064820152608401610e28565b886001600160a01b031663313ce5676040518163ffffffff1660e01b815260040160206040518083038186803b15801561223f57600080fd5b505afa158015612253573d6000803e3d6000fd5b505050506040513d601f19601f82011682018060405250810190612277919061432c565b60ff166012146122ef5760405162461bcd60e51b815260206004820152602d60248201527f426174636841756374696f6e3a20546f6b656e20646f6573206e6f742068617660448201527f6520313820646563696d616c73000000000000000000000000000000000000006064820152608401610e28565b6001600160a01b03851673eeeeeeeeeeeeeeeeeeeeeeeeeeeeeeeeeeeeeeee146123fc576000856001600160a01b031663313ce5676040518163ffffffff1660e01b815260040160206040518083038186803b15801561234e57600080fd5b505afa158015612362573d6000803e3d6000fd5b505050506040513d601f19601f82011682018060405250810190612386919061432c565b60ff16116123fc5760405162461bcd60e51b815260206004820152602b60248201527f426174636841756374696f6e3a205061796d656e742063757272656e6379206960448201527f73206e6f742045524332300000000000000000000000000000000000000000006064820152608401610e28565b6124058461333c565b600780546001600160801b03928316600160801b02921691909117905561242b876134cc565b6006805467ffffffffffffffff191667ffffffffffffffff92909216919091179055612456866134cc565b6006805467ffffffffffffffff92909216600160401b026fffffffffffffffff0000000000000000199092169190911790556124918861333c565b600680546001600160801b03928316600160801b029216919091179055600980546001600160a01b03808c1673ffffffffffffffffffffffffffffffffffffffff1992831617909255600a8054888416908316179055600c80549284169290911691909117905561250183612ebf565b61250a82613526565b600954612521906001600160a01b03168b8a612f58565b50505050505050505050565b6060600060028484604051612543929190614395565b908152602001604051809103902060010160028585604051612566929190614395565b90815260405190819003602001902054815467ffffffffffffffff6401000000009092049190911690829061259a90614686565b80601f01602080910402602001604051908101604052809291908181526020018280546125c690614686565b80156126135780601f106125e857610100808354040283529160200191612613565b820191906000526020600020905b8154815290600101906020018083116125f657829003601f168201915b50505050509150915091505b9250929050565b6006546007546000916112a0916001600160801b03600160801b9092048216916126599116670de0b6b3a7640000613571565b906135e1565b60008080808080808080806126768b8d018d614031565b995099509950995099509950995099509950995061269c8a8a8a8a8a8a8a8a8a8a611eba565b505050505050505050505050565b6126d47f9d49f397ae9ef1a834b569acb967799a367061e305932181a44f5773da873bfd82612da8565b60405133906001600160a01b038316907fe5f1aa9e528307345194b88b24a32401c13926e0823060f1049d9b26c0bb62b290600090a350565b612716336113fc565b565b6002600554141561276b5760405162461bcd60e51b815260206004820152601f60248201527f5265656e7472616e637947756172643a207265656e7472616e742063616c6c006044820152606401610e28565b600260055561277933612bd2565b61278257600080fd5b60085460079060ff16156127d85760405162461bcd60e51b815260206004820152601c60248201527f43726f776473616c653a20616c72656164792066696e616c697a6564000000006044820152606401610e28565b80546001600160801b0316156128305760405162461bcd60e51b815260206004820152601f60248201527f43726f776473616c653a2046756e647320616c726561647920726169736564006044820152606401610e28565b600954600c54600654612860926001600160a01b03908116921690600160801b90046001600160801b03166133f7565b6001818101805460ff191690911790556040517fa5fb31e47bd1eca58bf14a3312d5e6aeafdc4ee787c8ed348c15c2b092324d9390600090a1506001600555565b60008281526020819052604081206128b9908361363c565b9392505050565b60008281526020819052604081206128b99083613648565b6129027f97667070c54ef182b0f5858b034beac1b6f3089aa2d3188bb1e8929f4fa9b92982612da8565b60405133906001600160a01b038316907f70b25138b6fadeb9992d18b9653564271823e34b3e3257515d12a6d4b15fcddf90600090a350565b61294433612bd2565b61294d57600080fd5b6001600160a01b0381166129b45760405162461bcd60e51b815260206004820152602860248201527f426174636841756374696f6e3a2077616c6c657420697320746865207a65726f604482015267206164647265737360c01b6064820152608401610e28565b600c805473ffffffffffffffffffffffffffffffffffffffff19166001600160a01b0383169081179091556040519081527f34ae2bad9265f0212d4cf341708b8250949164bb54f9d0e4f442024f83bb2f909060200161138e565b612a1833612bd2565b612a2157600080fd5b612a2d8484848461366a565b50505050565b60606004805480602002602001604051908101604052809291908181526020016000905b82821015612b03578382906000526020600020018054612a7690614686565b80601f0160208091040260200160405190810160405280929190818152602001828054612aa290614686565b8015612aef5780601f10612ac457610100808354040283529160200191612aef565b820191906000526020600020905b815481529060010190602001808311612ad257829003601f168201915b505050505081526020019060010190612a57565b50505050905090565b612b367f9f2df0fed2c77648de5860a4cc508cd0818c85b8b8a1ab4ceeef8d981c8956a68261114f565b60405133906001600160a01b038316907f0be6ab9784c7401fafb73f7bc47bc67cc4ef8c47a60ad3cb66d1de0353a0784c90600090a350565b612b997f97667070c54ef182b0f5858b034beac1b6f3089aa2d3188bb1e8929f4fa9b9298261114f565b60405133906001600160a01b038316907f2d45ee102874989882745a26688d0b4fffee125a18df26536b12582c7fde4e1790600090a350565b6000610e5d81836128c0565b6004546060908210612c325760405162461bcd60e51b815260206004820152601360248201527f496e646578206f7574206f6620626f756e6473000000000000000000000000006044820152606401610e28565b60048281548110612c5357634e487b7160e01b600052603260045260246000fd5b906000526020600020018054612c6890614686565b80601f0160208091040260200160405190810160405280929190818152602001828054612c9490614686565b8015612ce15780601f10612cb657610100808354040283529160200191612ce1565b820191906000526020600020905b815481529060010190602001808311612cc457829003601f168201915b50505050509050919050565b612cf633612bd2565b612cff57600080fd5b8260005b81811015612d8957612d77868683818110612d2e57634e487b7160e01b600052603260045260246000fd5b9050602002810190612d40919061455a565b868685818110612d6057634e487b7160e01b600052603260045260246000fd5b9050602002810190612d72919061455a565b61366a565b80612d81816146bb565b915050612d03565b505050505050565b6000818152602081905260408120610e5d90613820565b600082815260208190526040902060020154612dc490336128c0565b6112655760405162461bcd60e51b815260206004820152603060248201527f416363657373436f6e74726f6c3a2073656e646572206d75737420626520616e60448201527f2061646d696e20746f207265766f6b65000000000000000000000000000000006064820152608401610e28565b612e3f33612bd2565b612e4857600080fd5b612e5181613526565b50565b610716338383610ebb565b612e6a600082612da8565b60405133906001600160a01b038316907f21ba1239795d4e22874e3dc55f0a9d7b65bfb23069d32965d7c23be9524ccf9590600090a350565b612eac33612bd2565b612eb557600080fd5b610716828261382a565b60015460ff1615612f125760405162461bcd60e51b815260206004820152601360248201527f416c726561647920696e697469616c69736564000000000000000000000000006044820152606401610e28565b612f1d6000826111dd565b506001805460ff191681179055565b6000610e5d7f97667070c54ef182b0f5858b034beac1b6f3089aa2d3188bb1e8929f4fa9b929836128c0565b6040516001600160a01b0383811660248301523060448301526064820183905260009182918616906323b872dd906084015b6040516020818303038152906040529060e01b6020820180517bffffffffffffffffffffffffffffffffffffffffffffffffffffffff8381831617835250505050604051612fd89190614379565b6000604051808303816000865af19150503d8060008114613015576040519150601f19603f3d011682016040523d82523d6000602084013e61301a565b606091505b509150915081801561304457508051158061304457508080602001905181019061304491906141da565b61304d57600080fd5b5050505050565b60065467ffffffffffffffff1642108015906130835750600654600160401b900467ffffffffffffffff164211155b6130f55760405162461bcd60e51b815260206004820152602360248201527f426174636841756374696f6e3a206f7574736964652061756374696f6e20686f60448201527f75727300000000000000000000000000000000000000000000000000000000006064820152608401610e28565b6001600160a01b0382166000908152600d60205260408120546131189083613399565b600854909150610100900460ff16156131d157600b546040517f1cd53d550000000000000000000000000000000000000000000000000000000081526001600160a01b0385811660048301526024820184905290911690631cd53d559060440160206040518083038186803b15801561319057600080fd5b505afa1580156131a4573d6000803e3d6000fd5b505050506040513d601f19601f820116820180604052508101906131c891906141da565b6131d157600080fd5b6001600160a01b0383166000908152600d6020526040902081905560075461320b90613206906001600160801b031684613399565b61333c565b600780547fffffffffffffffffffffffffffffffff00000000000000000000000000000000166001600160801b0392909216919091179055604080516001600160a01b0385168152602081018490527f077511a636ba1f10551cc7b89c13ff66a6ac9344e8a917527817a9690b15af7a910160405180910390a1505050565b60008281526020819052604090206132a29082613af4565b156107165760405133906001600160a01b0383169084907f2f8788117e7eff1d82e926ec794901d17c78024a50270940304540a733656f0d90600090a45050565b60008281526020819052604090206132fb9082613b09565b156107165760405133906001600160a01b0383169084907ff6391f5c32d9c69d2a47ea670b442974b53935d1edc7fd64eb21e047a839171b90600090a45050565b60006001600160801b038211156133955760405162461bcd60e51b815260206004820152601c60248201527f426f72696e674d6174683a2075696e74313238204f766572666c6f77000000006044820152606401610e28565b5090565b6000816133a6818561459f565b9150811015610e5d5760405162461bcd60e51b815260206004820152601860248201527f426f72696e674d6174683a20416464204f766572666c6f7700000000000000006044820152606401610e28565b6001600160a01b03831673eeeeeeeeeeeeeeeeeeeeeeeeeeeeeeeeeeeeeeee141561342b576134268282613b1e565b505050565b613426838383613c01565b6007546000906001600160801b031661345157506000919050565b610e5d61345c612626565b61265984670de0b6b3a7640000613571565b60008261347b838261461e565b9150811115610e5d5760405162461bcd60e51b815260206004820152601560248201527f426f72696e674d6174683a20556e646572666c6f7700000000000000000000006044820152606401610e28565b600067ffffffffffffffff8211156133955760405162461bcd60e51b815260206004820152601b60248201527f426f72696e674d6174683a2075696e743634204f766572666c6f7700000000006044820152606401610e28565b6001600160a01b03811615612e5157600b80546001600160a01b03831673ffffffffffffffffffffffffffffffffffffffff199091161790556008805461ff00191661010017905550565b60008115806135955750828261358781836145ff565b925061359390836145df565b145b610e5d5760405162461bcd60e51b815260206004820152601860248201527f426f72696e674d6174683a204d756c204f766572666c6f7700000000000000006044820152606401610e28565b60008082116136325760405162461bcd60e51b815260206004820152601460248201527f426f72696e674d6174683a20446976207a65726f0000000000000000000000006044820152606401610e28565b6128b982846145df565b60006128b98383613c31565b6001600160a01b038116600090815260018301602052604081205415156128b9565b826136b75760405162461bcd60e51b815260206004820152601860248201527f5a65726f206e616d65206973206e6f7420616c6c6f77656400000000000000006044820152606401610e28565b806137045760405162461bcd60e51b815260206004820152601a60248201527f53686f756c64206e6f74206265206120656d70747920646174610000000000006044820152606401610e28565b600067ffffffffffffffff1660028585604051613722929190614395565b9081526040519081900360200190205467ffffffffffffffff6401000000009091041614156137c95760048054600181018255600091909152613788907f8a35acfbc15ff81a39ae7d344fd709f28e8600b4aa8c65c6b64bfe7fe36bd19b018585613e4c565b5060045460405160029061379f9087908790614395565b908152604051908190036020019020805463ffffffff9290921663ffffffff199092169190911790555b83836040516137d9929190614395565b60405180910390207fbaa206e5ea800eb88bce099f453fee53295b793b9d5d1cfc4ce4b6db06a34f538383604051613812929190614488565b60405180910390a250505050565b6000610e5d825490565b600067ffffffffffffffff1660028383604051613848929190614395565b9081526040519081900360200190205467ffffffffffffffff6401000000009091041614156138b95760405162461bcd60e51b815260206004820152601560248201527f446f63756d656e742073686f756c6420657869737400000000000000000000006044820152606401610e28565b60006001600284846040516138cf929190614395565b908152604051908190036020019020546138ef919063ffffffff16614635565b6004549091506139019060019061461e565b8163ffffffff1614613a03576004805461391d9060019061461e565b8154811061393b57634e487b7160e01b600052603260045260246000fd5b9060005260206000200160048263ffffffff168154811061396c57634e487b7160e01b600052603260045260246000fd5b9060005260206000200190805461398290614686565b61398d929190613ecc565b506139998160016145b7565b600260048363ffffffff16815481106139c257634e487b7160e01b600052603260045260246000fd5b906000526020600020016040516139d991906143a5565b908152604051908190036020019020805463ffffffff9290921663ffffffff199092169190911790555b6004805480613a2257634e487b7160e01b600052603160045260246000fd5b600190038181906000526020600020016000613a3e9190613f47565b90558282604051613a50929190614395565b60405180910390207f4b5338540b4d1c0f6dd0308a25f633b7ff60472f894d711cff9dd64e35c613b260028585604051613a8b929190614395565b9081526020016040518091039020600101604051613aa991906144d9565b60405180910390a260028383604051613ac3929190614395565b90815260405190819003602001902080546bffffffffffffffffffffffff19168155600061304d6001830182613f47565b60006128b9836001600160a01b038416613ce0565b60006128b9836001600160a01b038416613d2f565b604080516000808252602082019092526001600160a01b038416908390604051613b489190614379565b60006040518083038185875af1925050503d8060008114613b85576040519150601f19603f3d011682016040523d82523d6000602084013e613b8a565b606091505b50509050806134265760405162461bcd60e51b815260206004820152602360248201527f5472616e7366657248656c7065723a204554485f5452414e534645525f46414960448201527f4c454400000000000000000000000000000000000000000000000000000000006064820152608401610e28565b6040516001600160a01b03838116602483015260448201839052600091829186169063a9059cbb90606401612f8a565b81546000908210613caa5760405162461bcd60e51b815260206004820152602260248201527f456e756d657261626c655365743a20696e646578206f7574206f6620626f756e60448201527f64730000000000000000000000000000000000000000000000000000000000006064820152608401610e28565b826000018281548110613ccd57634e487b7160e01b600052603260045260246000fd5b9060005260206000200154905092915050565b6000818152600183016020526040812054613d2757508154600181810184556000848152602080822090930184905584548482528286019093526040902091909155610e5d565b506000610e5d565b60008181526001830160205260408120548015613e42576000613d5360018361461e565b8554909150600090613d679060019061461e565b90506000866000018281548110613d8e57634e487b7160e01b600052603260045260246000fd5b9060005260206000200154905080876000018481548110613dbf57634e487b7160e01b600052603260045260246000fd5b600091825260209091200155613dd683600161459f565b60008281526001890160205260409020558654879080613e0657634e487b7160e01b600052603160045260246000fd5b60019003818190600052602060002001600090559055866001016000878152602001908152602001600020600090556001945050505050610e5d565b6000915050610e5d565b828054613e5890614686565b90600052602060002090601f016020900481019282613e7a5760008555613ec0565b82601f10613e935782800160ff19823516178555613ec0565b82800160010185558215613ec0579182015b82811115613ec0578235825591602001919060010190613ea5565b50613395929150613f7d565b828054613ed890614686565b90600052602060002090601f016020900481019282613efa5760008555613ec0565b82601f10613f0b5780548555613ec0565b82800160010185558215613ec057600052602060002091601f016020900482015b82811115613ec0578254825591600101919060010190613f2c565b508054613f5390614686565b6000825580601f10613f63575050565b601f016020900490600052602060002090810190612e5191905b5b808211156133955760008155600101613f7e565b60008083601f840112613fa3578182fd5b50813567ffffffffffffffff811115613fba578182fd5b6020830191508360208260051b850101111561261f57600080fd5b60008083601f840112613fe6578182fd5b50813567ffffffffffffffff811115613ffd578182fd5b60208301915083602082850101111561261f57600080fd5b600060208284031215614026578081fd5b81356128b9816146ec565b6000806000806000806000806000806101408b8d031215614050578586fd5b8a3561405b816146ec565b995060208b013561406b816146ec565b985060408b0135975060608b0135965060808b0135955060a08b0135614090816146ec565b945060c08b0135935060e08b01356140a7816146ec565b92506101008b01356140b8816146ec565b91506101208b01356140c9816146ec565b809150509295989b9194979a5092959850565b600080604083850312156140ee578182fd5b82356140f9816146ec565b9150602083013561410981614701565b809150509250929050565b600080600060608486031215614128578283fd5b8335614133816146ec565b925060208401359150604084013561414a81614701565b809150509250925092565b6000806000806040858703121561416a578384fd5b843567ffffffffffffffff80821115614181578586fd5b61418d88838901613f92565b909650945060208701359150808211156141a5578384fd5b506141b287828801613f92565b95989497509550505050565b6000602082840312156141cf578081fd5b81356128b981614701565b6000602082840312156141eb578081fd5b81516128b981614701565b600060208284031215614207578081fd5b5035919050565b60008060408385031215614220578182fd5b823591506020830135614109816146ec565b60008060408385031215614244578182fd5b50508035926020909101359150565b60008060208385031215614265578182fd5b823567ffffffffffffffff81111561427b578283fd5b61428785828601613fd5565b90969095509350505050565b600080600080604085870312156142a8578182fd5b843567ffffffffffffffff808211156142bf578384fd5b6142cb88838901613fd5565b909650945060208701359150808211156142e3578384fd5b506141b287828801613fd5565b600060208284031215614301578081fd5b5051919050565b6000806040838503121561431a578182fd5b82359150602083013561410981614701565b60006020828403121561433d578081fd5b815160ff811681146128b9578182fd5b6000815180845261436581602086016020860161465a565b601f01601f19169290920160200192915050565b6000825161438b81846020870161465a565b9190910192915050565b8183823760009101908152919050565b60008083546143b381614686565b600182811680156143cb57600181146143dc57614408565b60ff19841687528287019450614408565b8786526020808720875b858110156143ff5781548a8201529084019082016143e6565b50505082870194505b50929695505050505050565b6000602080830181845280855180835260408601915060408160051b8701019250838701855b8281101561446857603f1988860301845261445685835161434d565b9450928501929085019060010161443a565b5092979650505050505050565b6020815260006128b9602083018461434d565b60208152816020820152818360408301376000818301604090810191909152601f909201601f19160101919050565b6040815260006144ca604083018561434d565b90508260208301529392505050565b600060208083528184546144ec81614686565b8084870152604060018084166000811461450d57600181146145215761454c565b60ff1985168984015260608901955061454c565b898852868820885b858110156145445781548b8201860152908301908801614529565b8a0184019650505b509398975050505050505050565b6000808335601e19843603018112614570578283fd5b83018035915067ffffffffffffffff82111561458a578283fd5b60200191503681900382131561261f57600080fd5b600082198211156145b2576145b26146d6565b500190565b600063ffffffff8083168185168083038211156145d6576145d66146d6565b01949350505050565b6000826145fa57634e487b7160e01b81526012600452602481fd5b500490565b6000816000190483118215151615614619576146196146d6565b500290565b600082821015614630576146306146d6565b500390565b600063ffffffff83811690831681811015614652576146526146d6565b039392505050565b60005b8381101561467557818101518382015260200161465d565b83811115612a2d5750506000910152565b600181811c9082168061469a57607f821691505b60208210811415611ac357634e487b7160e01b600052602260045260246000fd5b60006000198214156146cf576146cf6146d6565b5060010190565b634e487b7160e01b600052601160045260246000fd5b6001600160a01b0381168114612e5157600080fd5b8015158114612e5157600080fdfe4920756e6465727374616e642074686174204920616d20696e746572616374696e672077697468206120736d61727420636f6e74726163742e204920756e6465727374616e64207468617420746f6b656e7320636f6d6d6974656420617265207375626a65637420746f2074686520746f6b656e2069737375657220616e64206c6f63616c206c617773207768657265206170706c696361626c652e204920686176652072657669657765642074686520636f6465206f66207468697320736d61727420636f6e747261637420616e6420756e6465727374616e642069742066756c6c792e204920616772656520746f206e6f7420686f6c6420646576656c6f70657273206f72206f746865722070656f706c65206173736f6369617465642077697468207468652070726f6a656374206c6961626c6520666f7220616e79206c6f73736573206f72206d6973756e6465727374616e64696e6773a2646970667358221220e34081719913a95cf68ddf2f1896860c3fc90ea69a6f59c2b72f0f173c37d38864736f6c63430008040033",
  "linkReferences": {},
  "deployedLinkReferences": {}
}