{
  "_format": "hh-sol-artifact-1",
  "contractName": "BatchAuction",
  "sourceName": "contracts/Auctions/BatchAuction.sol",
  "abi": [
    {
      "anonymous": false,
      "inputs": [
        {
          "indexed": false,
          "internalType": "address",
          "name": "addr",
          "type": "address"
        },
        {
          "indexed": false,
          "internalType": "uint256",
          "name": "commitment",
          "type": "uint256"
        }
      ],
      "name": "AddedCommitment",
      "type": "event"
    },
    {
      "anonymous": false,
      "inputs": [
        {
          "indexed": true,
          "internalType": "address",
          "name": "beneficiary",
          "type": "address"
        },
        {
          "indexed": true,
          "internalType": "address",
          "name": "caller",
          "type": "address"
        }
      ],
      "name": "AdminRoleGranted",
      "type": "event"
    },
    {
      "anonymous": false,
      "inputs": [
        {
          "indexed": true,
          "internalType": "address",
          "name": "beneficiary",
          "type": "address"
        },
        {
          "indexed": true,
          "internalType": "address",
          "name": "caller",
          "type": "address"
        }
      ],
      "name": "AdminRoleRemoved",
      "type": "event"
    },
    {
      "anonymous": false,
      "inputs": [],
      "name": "AuctionCancelled",
      "type": "event"
    },
    {
      "anonymous": false,
      "inputs": [],
      "name": "AuctionFinalized",
      "type": "event"
    },
    {
      "anonymous": false,
      "inputs": [
        {
          "indexed": false,
          "internalType": "uint256",
          "name": "minimumCommitmentAmount",
          "type": "uint256"
        }
      ],
      "name": "AuctionPriceUpdated",
      "type": "event"
    },
    {
      "anonymous": false,
      "inputs": [
        {
          "indexed": false,
          "internalType": "uint256",
          "name": "startTime",
          "type": "uint256"
        },
        {
          "indexed": false,
          "internalType": "uint256",
          "name": "endTime",
          "type": "uint256"
        }
      ],
      "name": "AuctionTimeUpdated",
      "type": "event"
    },
    {
      "anonymous": false,
      "inputs": [
        {
          "indexed": false,
          "internalType": "address",
          "name": "wallet",
          "type": "address"
        }
      ],
      "name": "AuctionWalletUpdated",
      "type": "event"
    },
    {
      "anonymous": false,
      "inputs": [
        {
          "indexed": true,
          "internalType": "string",
          "name": "_name",
          "type": "string"
        },
        {
          "indexed": false,
          "internalType": "string",
          "name": "_data",
          "type": "string"
        }
      ],
      "name": "DocumentRemoved",
      "type": "event"
    },
    {
      "anonymous": false,
      "inputs": [
        {
          "indexed": true,
          "internalType": "string",
          "name": "_name",
          "type": "string"
        },
        {
          "indexed": false,
          "internalType": "string",
          "name": "_data",
          "type": "string"
        }
      ],
      "name": "DocumentUpdated",
      "type": "event"
    },
    {
      "anonymous": false,
      "inputs": [
        {
          "indexed": true,
          "internalType": "address",
          "name": "beneficiary",
          "type": "address"
        },
        {
          "indexed": true,
          "internalType": "address",
          "name": "caller",
          "type": "address"
        }
      ],
      "name": "MinterRoleGranted",
      "type": "event"
    },
    {
      "anonymous": false,
      "inputs": [
        {
          "indexed": true,
          "internalType": "address",
          "name": "beneficiary",
          "type": "address"
        },
        {
          "indexed": true,
          "internalType": "address",
          "name": "caller",
          "type": "address"
        }
      ],
      "name": "MinterRoleRemoved",
      "type": "event"
    },
    {
      "anonymous": false,
      "inputs": [
        {
          "indexed": true,
          "internalType": "address",
          "name": "beneficiary",
          "type": "address"
        },
        {
          "indexed": true,
          "internalType": "address",
          "name": "caller",
          "type": "address"
        }
      ],
      "name": "OperatorRoleGranted",
      "type": "event"
    },
    {
      "anonymous": false,
      "inputs": [
        {
          "indexed": true,
          "internalType": "address",
          "name": "beneficiary",
          "type": "address"
        },
        {
          "indexed": true,
          "internalType": "address",
          "name": "caller",
          "type": "address"
        }
      ],
      "name": "OperatorRoleRemoved",
      "type": "event"
    },
    {
      "anonymous": false,
      "inputs": [
        {
          "indexed": true,
          "internalType": "bytes32",
          "name": "role",
          "type": "bytes32"
        },
        {
          "indexed": true,
          "internalType": "bytes32",
          "name": "previousAdminRole",
          "type": "bytes32"
        },
        {
          "indexed": true,
          "internalType": "bytes32",
          "name": "newAdminRole",
          "type": "bytes32"
        }
      ],
      "name": "RoleAdminChanged",
      "type": "event"
    },
    {
      "anonymous": false,
      "inputs": [
        {
          "indexed": true,
          "internalType": "bytes32",
          "name": "role",
          "type": "bytes32"
        },
        {
          "indexed": true,
          "internalType": "address",
          "name": "account",
          "type": "address"
        },
        {
          "indexed": true,
          "internalType": "address",
          "name": "sender",
          "type": "address"
        }
      ],
      "name": "RoleGranted",
      "type": "event"
    },
    {
      "anonymous": false,
      "inputs": [
        {
          "indexed": true,
          "internalType": "bytes32",
          "name": "role",
          "type": "bytes32"
        },
        {
          "indexed": true,
          "internalType": "address",
          "name": "account",
          "type": "address"
        },
        {
          "indexed": true,
          "internalType": "address",
          "name": "sender",
          "type": "address"
        }
      ],
      "name": "RoleRevoked",
      "type": "event"
    },
    {
      "anonymous": false,
      "inputs": [
        {
          "indexed": true,
          "internalType": "address",
          "name": "beneficiary",
          "type": "address"
        },
        {
          "indexed": true,
          "internalType": "address",
          "name": "caller",
          "type": "address"
        }
      ],
      "name": "SmartContractRoleGranted",
      "type": "event"
    },
    {
      "anonymous": false,
      "inputs": [
        {
          "indexed": true,
          "internalType": "address",
          "name": "beneficiary",
          "type": "address"
        },
        {
          "indexed": true,
          "internalType": "address",
          "name": "caller",
          "type": "address"
        }
      ],
      "name": "SmartContractRoleRemoved",
      "type": "event"
    },
    {
      "inputs": [],
      "name": "DEFAULT_ADMIN_ROLE",
      "outputs": [
        {
          "internalType": "bytes32",
          "name": "",
          "type": "bytes32"
        }
      ],
      "stateMutability": "view",
      "type": "function"
    },
    {
      "inputs": [],
      "name": "MINTER_ROLE",
      "outputs": [
        {
          "internalType": "bytes32",
          "name": "",
          "type": "bytes32"
        }
      ],
      "stateMutability": "view",
      "type": "function"
    },
    {
      "inputs": [],
      "name": "OPERATOR_ROLE",
      "outputs": [
        {
          "internalType": "bytes32",
          "name": "",
          "type": "bytes32"
        }
      ],
      "stateMutability": "view",
      "type": "function"
    },
    {
      "inputs": [],
      "name": "SMART_CONTRACT_ROLE",
      "outputs": [
        {
          "internalType": "bytes32",
          "name": "",
          "type": "bytes32"
        }
      ],
      "stateMutability": "view",
      "type": "function"
    },
    {
      "inputs": [
        {
          "internalType": "address",
          "name": "_address",
          "type": "address"
        }
      ],
      "name": "addAdminRole",
      "outputs": [],
      "stateMutability": "nonpayable",
      "type": "function"
    },
    {
      "inputs": [
        {
          "internalType": "address",
          "name": "_address",
          "type": "address"
        }
      ],
      "name": "addMinterRole",
      "outputs": [],
      "stateMutability": "nonpayable",
      "type": "function"
    },
    {
      "inputs": [
        {
          "internalType": "address",
          "name": "_address",
          "type": "address"
        }
      ],
      "name": "addOperatorRole",
      "outputs": [],
      "stateMutability": "nonpayable",
      "type": "function"
    },
    {
      "inputs": [
        {
          "internalType": "address",
          "name": "_address",
          "type": "address"
        }
      ],
      "name": "addSmartContractRole",
      "outputs": [],
      "stateMutability": "nonpayable",
      "type": "function"
    },
    {
      "inputs": [],
      "name": "auctionEnded",
      "outputs": [
        {
          "internalType": "bool",
          "name": "",
          "type": "bool"
        }
      ],
      "stateMutability": "view",
      "type": "function"
    },
    {
      "inputs": [],
      "name": "auctionSuccessful",
      "outputs": [
        {
          "internalType": "bool",
          "name": "",
          "type": "bool"
        }
      ],
      "stateMutability": "view",
      "type": "function"
    },
    {
      "inputs": [],
      "name": "auctionToken",
      "outputs": [
        {
          "internalType": "address",
          "name": "",
          "type": "address"
        }
      ],
      "stateMutability": "view",
      "type": "function"
    },
    {
      "inputs": [],
      "name": "cancelAuction",
      "outputs": [],
      "stateMutability": "nonpayable",
      "type": "function"
    },
    {
      "inputs": [
        {
          "internalType": "address",
          "name": "",
          "type": "address"
        }
      ],
      "name": "claimed",
      "outputs": [
        {
          "internalType": "uint256",
          "name": "",
          "type": "uint256"
        }
      ],
      "stateMutability": "view",
      "type": "function"
    },
    {
      "inputs": [
        {
          "internalType": "address payable",
          "name": "_beneficiary",
          "type": "address"
        },
        {
          "internalType": "bool",
          "name": "readAndAgreedToMarketParticipationAgreement",
          "type": "bool"
        }
      ],
      "name": "commitEth",
      "outputs": [],
      "stateMutability": "payable",
      "type": "function"
    },
    {
      "inputs": [
        {
          "internalType": "uint256",
          "name": "_amount",
          "type": "uint256"
        },
        {
          "internalType": "bool",
          "name": "readAndAgreedToMarketParticipationAgreement",
          "type": "bool"
        }
      ],
      "name": "commitTokens",
      "outputs": [],
      "stateMutability": "nonpayable",
      "type": "function"
    },
    {
      "inputs": [
        {
          "internalType": "address",
          "name": "_from",
          "type": "address"
        },
        {
          "internalType": "uint256",
          "name": "_amount",
          "type": "uint256"
        },
        {
          "internalType": "bool",
          "name": "readAndAgreedToMarketParticipationAgreement",
          "type": "bool"
        }
      ],
      "name": "commitTokensFrom",
      "outputs": [],
      "stateMutability": "nonpayable",
      "type": "function"
    },
    {
      "inputs": [
        {
          "internalType": "address",
          "name": "",
          "type": "address"
        }
      ],
      "name": "commitments",
      "outputs": [
        {
          "internalType": "uint256",
          "name": "",
          "type": "uint256"
        }
      ],
      "stateMutability": "view",
      "type": "function"
    },
    {
      "inputs": [
        {
          "internalType": "bool",
          "name": "_status",
          "type": "bool"
        }
      ],
      "name": "enableList",
      "outputs": [],
      "stateMutability": "nonpayable",
      "type": "function"
    },
    {
      "inputs": [],
      "name": "finalize",
      "outputs": [],
      "stateMutability": "nonpayable",
      "type": "function"
    },
    {
      "inputs": [],
      "name": "finalizeTimeExpired",
      "outputs": [
        {
          "internalType": "bool",
          "name": "",
          "type": "bool"
        }
      ],
      "stateMutability": "view",
      "type": "function"
    },
    {
      "inputs": [],
      "name": "finalized",
      "outputs": [
        {
          "internalType": "bool",
          "name": "",
          "type": "bool"
        }
      ],
      "stateMutability": "view",
      "type": "function"
    },
    {
      "inputs": [],
      "name": "getAllDocuments",
      "outputs": [
        {
          "internalType": "string[]",
          "name": "",
          "type": "string[]"
        }
      ],
      "stateMutability": "view",
      "type": "function"
    },
    {
      "inputs": [],
      "name": "getBaseInformation",
      "outputs": [
        {
          "internalType": "address",
          "name": "token",
          "type": "address"
        },
        {
          "internalType": "uint64",
          "name": "startTime",
          "type": "uint64"
        },
        {
          "internalType": "uint64",
          "name": "endTime",
          "type": "uint64"
        },
        {
          "internalType": "bool",
          "name": "marketFinalized",
          "type": "bool"
        }
      ],
      "stateMutability": "view",
      "type": "function"
    },
    {
      "inputs": [
        {
          "internalType": "address",
          "name": "_funder",
          "type": "address"
        },
        {
          "internalType": "address",
          "name": "_token",
          "type": "address"
        },
        {
          "internalType": "uint256",
          "name": "_totalTokens",
          "type": "uint256"
        },
        {
          "internalType": "uint256",
          "name": "_startTime",
          "type": "uint256"
        },
        {
          "internalType": "uint256",
          "name": "_endTime",
          "type": "uint256"
        },
        {
          "internalType": "address",
          "name": "_paymentCurrency",
          "type": "address"
        },
        {
          "internalType": "uint256",
          "name": "_minimumCommitmentAmount",
          "type": "uint256"
        },
        {
          "internalType": "address",
          "name": "_admin",
          "type": "address"
        },
        {
          "internalType": "address",
          "name": "_pointList",
          "type": "address"
        },
        {
          "internalType": "address payable",
          "name": "_wallet",
          "type": "address"
        }
      ],
      "name": "getBatchAuctionInitData",
      "outputs": [
        {
          "internalType": "bytes",
          "name": "_data",
          "type": "bytes"
        }
      ],
      "stateMutability": "pure",
      "type": "function"
    },
    {
      "inputs": [
        {
          "internalType": "string",
          "name": "_name",
          "type": "string"
        }
      ],
      "name": "getDocument",
      "outputs": [
        {
          "internalType": "string",
          "name": "",
          "type": "string"
        },
        {
          "internalType": "uint256",
          "name": "",
          "type": "uint256"
        }
      ],
      "stateMutability": "view",
      "type": "function"
    },
    {
      "inputs": [],
      "name": "getDocumentCount",
      "outputs": [
        {
          "internalType": "uint256",
          "name": "",
          "type": "uint256"
        }
      ],
      "stateMutability": "view",
      "type": "function"
    },
    {
      "inputs": [
        {
          "internalType": "uint256",
          "name": "_index",
          "type": "uint256"
        }
      ],
      "name": "getDocumentName",
      "outputs": [
        {
          "internalType": "string",
          "name": "",
          "type": "string"
        }
      ],
      "stateMutability": "view",
      "type": "function"
    },
    {
      "inputs": [
        {
          "internalType": "bytes32",
          "name": "role",
          "type": "bytes32"
        }
      ],
      "name": "getRoleAdmin",
      "outputs": [
        {
          "internalType": "bytes32",
          "name": "",
          "type": "bytes32"
        }
      ],
      "stateMutability": "view",
      "type": "function"
    },
    {
      "inputs": [
        {
          "internalType": "bytes32",
          "name": "role",
          "type": "bytes32"
        },
        {
          "internalType": "uint256",
          "name": "index",
          "type": "uint256"
        }
      ],
      "name": "getRoleMember",
      "outputs": [
        {
          "internalType": "address",
          "name": "",
          "type": "address"
        }
      ],
      "stateMutability": "view",
      "type": "function"
    },
    {
      "inputs": [
        {
          "internalType": "bytes32",
          "name": "role",
          "type": "bytes32"
        }
      ],
      "name": "getRoleMemberCount",
      "outputs": [
        {
          "internalType": "uint256",
          "name": "",
          "type": "uint256"
        }
      ],
      "stateMutability": "view",
      "type": "function"
    },
    {
      "inputs": [],
      "name": "getTotalTokens",
      "outputs": [
        {
          "internalType": "uint256",
          "name": "",
          "type": "uint256"
        }
      ],
      "stateMutability": "view",
      "type": "function"
    },
    {
      "inputs": [
        {
          "internalType": "bytes32",
          "name": "role",
          "type": "bytes32"
        },
        {
          "internalType": "address",
          "name": "account",
          "type": "address"
        }
      ],
      "name": "grantRole",
      "outputs": [],
      "stateMutability": "nonpayable",
      "type": "function"
    },
    {
      "inputs": [
        {
          "internalType": "address",
          "name": "_address",
          "type": "address"
        }
      ],
      "name": "hasAdminRole",
      "outputs": [
        {
          "internalType": "bool",
          "name": "",
          "type": "bool"
        }
      ],
      "stateMutability": "view",
      "type": "function"
    },
    {
      "inputs": [
        {
          "internalType": "address",
          "name": "_address",
          "type": "address"
        }
      ],
      "name": "hasMinterRole",
      "outputs": [
        {
          "internalType": "bool",
          "name": "",
          "type": "bool"
        }
      ],
      "stateMutability": "view",
      "type": "function"
    },
    {
      "inputs": [
        {
          "internalType": "address",
          "name": "_address",
          "type": "address"
        }
      ],
      "name": "hasOperatorRole",
      "outputs": [
        {
          "internalType": "bool",
          "name": "",
          "type": "bool"
        }
      ],
      "stateMutability": "view",
      "type": "function"
    },
    {
      "inputs": [
        {
          "internalType": "bytes32",
          "name": "role",
          "type": "bytes32"
        },
        {
          "internalType": "address",
          "name": "account",
          "type": "address"
        }
      ],
      "name": "hasRole",
      "outputs": [
        {
          "internalType": "bool",
          "name": "",
          "type": "bool"
        }
      ],
      "stateMutability": "view",
      "type": "function"
    },
    {
      "inputs": [
        {
          "internalType": "address",
          "name": "_address",
          "type": "address"
        }
      ],
      "name": "hasSmartContractRole",
      "outputs": [
        {
          "internalType": "bool",
          "name": "",
          "type": "bool"
        }
      ],
      "stateMutability": "view",
      "type": "function"
    },
    {
      "inputs": [
        {
          "internalType": "bytes",
          "name": "_data",
          "type": "bytes"
        }
      ],
      "name": "init",
      "outputs": [],
      "stateMutability": "payable",
      "type": "function"
    },
    {
      "inputs": [
        {
          "internalType": "address",
          "name": "_admin",
          "type": "address"
        }
      ],
      "name": "initAccessControls",
      "outputs": [],
      "stateMutability": "nonpayable",
      "type": "function"
    },
    {
      "inputs": [
        {
          "internalType": "address",
          "name": "_funder",
          "type": "address"
        },
        {
          "internalType": "address",
          "name": "_token",
          "type": "address"
        },
        {
          "internalType": "uint256",
          "name": "_totalTokens",
          "type": "uint256"
        },
        {
          "internalType": "uint256",
          "name": "_startTime",
          "type": "uint256"
        },
        {
          "internalType": "uint256",
          "name": "_endTime",
          "type": "uint256"
        },
        {
          "internalType": "address",
          "name": "_paymentCurrency",
          "type": "address"
        },
        {
          "internalType": "uint256",
          "name": "_minimumCommitmentAmount",
          "type": "uint256"
        },
        {
          "internalType": "address",
          "name": "_admin",
          "type": "address"
        },
        {
          "internalType": "address",
          "name": "_pointList",
          "type": "address"
        },
        {
          "internalType": "address payable",
          "name": "_wallet",
          "type": "address"
        }
      ],
      "name": "initAuction",
      "outputs": [],
      "stateMutability": "nonpayable",
      "type": "function"
    },
    {
      "inputs": [
        {
          "internalType": "bytes",
          "name": "_data",
          "type": "bytes"
        }
      ],
      "name": "initMarket",
      "outputs": [],
      "stateMutability": "nonpayable",
      "type": "function"
    },
    {
      "inputs": [],
      "name": "marketInfo",
      "outputs": [
        {
          "internalType": "uint64",
          "name": "startTime",
          "type": "uint64"
        },
        {
          "internalType": "uint64",
          "name": "endTime",
          "type": "uint64"
        },
        {
          "internalType": "uint128",
          "name": "totalTokens",
          "type": "uint128"
        }
      ],
      "stateMutability": "view",
      "type": "function"
    },
    {
      "inputs": [],
      "name": "marketParticipationAgreement",
      "outputs": [
        {
          "internalType": "string",
          "name": "",
          "type": "string"
        }
      ],
      "stateMutability": "pure",
      "type": "function"
    },
    {
      "inputs": [],
      "name": "marketStatus",
      "outputs": [
        {
          "internalType": "uint128",
          "name": "commitmentsTotal",
          "type": "uint128"
        },
        {
          "internalType": "uint128",
          "name": "minimumCommitmentAmount",
          "type": "uint128"
        },
        {
          "internalType": "bool",
          "name": "finalized",
          "type": "bool"
        },
        {
          "internalType": "bool",
          "name": "usePointList",
          "type": "bool"
        }
      ],
      "stateMutability": "view",
      "type": "function"
    },
    {
      "inputs": [],
      "name": "marketTemplate",
      "outputs": [
        {
          "internalType": "uint256",
          "name": "",
          "type": "uint256"
        }
      ],
      "stateMutability": "view",
      "type": "function"
    },
    {
      "inputs": [],
      "name": "paymentCurrency",
      "outputs": [
        {
          "internalType": "address",
          "name": "",
          "type": "address"
        }
      ],
      "stateMutability": "view",
      "type": "function"
    },
    {
      "inputs": [],
      "name": "pointList",
      "outputs": [
        {
          "internalType": "address",
          "name": "",
          "type": "address"
        }
      ],
      "stateMutability": "view",
      "type": "function"
    },
    {
      "inputs": [
        {
          "internalType": "address",
          "name": "_address",
          "type": "address"
        }
      ],
      "name": "removeAdminRole",
      "outputs": [],
      "stateMutability": "nonpayable",
      "type": "function"
    },
    {
      "inputs": [
        {
          "internalType": "string",
          "name": "_name",
          "type": "string"
        }
      ],
      "name": "removeDocument",
      "outputs": [],
      "stateMutability": "nonpayable",
      "type": "function"
    },
    {
      "inputs": [
        {
          "internalType": "address",
          "name": "_address",
          "type": "address"
        }
      ],
      "name": "removeMinterRole",
      "outputs": [],
      "stateMutability": "nonpayable",
      "type": "function"
    },
    {
      "inputs": [
        {
          "internalType": "address",
          "name": "_address",
          "type": "address"
        }
      ],
      "name": "removeOperatorRole",
      "outputs": [],
      "stateMutability": "nonpayable",
      "type": "function"
    },
    {
      "inputs": [
        {
          "internalType": "address",
          "name": "_address",
          "type": "address"
        }
      ],
      "name": "removeSmartContractRole",
      "outputs": [],
      "stateMutability": "nonpayable",
      "type": "function"
    },
    {
      "inputs": [
        {
          "internalType": "bytes32",
          "name": "role",
          "type": "bytes32"
        },
        {
          "internalType": "address",
          "name": "account",
          "type": "address"
        }
      ],
      "name": "renounceRole",
      "outputs": [],
      "stateMutability": "nonpayable",
      "type": "function"
    },
    {
      "inputs": [
        {
          "internalType": "bytes32",
          "name": "role",
          "type": "bytes32"
        },
        {
          "internalType": "address",
          "name": "account",
          "type": "address"
        }
      ],
      "name": "revokeRole",
      "outputs": [],
      "stateMutability": "nonpayable",
      "type": "function"
    },
    {
      "inputs": [
        {
          "internalType": "uint256",
          "name": "_minimumCommitmentAmount",
          "type": "uint256"
        }
      ],
      "name": "setAuctionPrice",
      "outputs": [],
      "stateMutability": "nonpayable",
      "type": "function"
    },
    {
      "inputs": [
        {
          "internalType": "uint256",
          "name": "_startTime",
          "type": "uint256"
        },
        {
          "internalType": "uint256",
          "name": "_endTime",
          "type": "uint256"
        }
      ],
      "name": "setAuctionTime",
      "outputs": [],
      "stateMutability": "nonpayable",
      "type": "function"
    },
    {
      "inputs": [
        {
          "internalType": "address payable",
          "name": "_wallet",
          "type": "address"
        }
      ],
      "name": "setAuctionWallet",
      "outputs": [],
      "stateMutability": "nonpayable",
      "type": "function"
    },
    {
      "inputs": [
        {
          "internalType": "string",
          "name": "_name",
          "type": "string"
        },
        {
          "internalType": "string",
          "name": "_data",
          "type": "string"
        }
      ],
      "name": "setDocument",
      "outputs": [],
      "stateMutability": "nonpayable",
      "type": "function"
    },
    {
      "inputs": [
        {
          "internalType": "string[]",
          "name": "_name",
          "type": "string[]"
        },
        {
          "internalType": "string[]",
          "name": "_data",
          "type": "string[]"
        }
      ],
      "name": "setDocuments",
      "outputs": [],
      "stateMutability": "nonpayable",
      "type": "function"
    },
    {
      "inputs": [
        {
          "internalType": "address",
          "name": "_list",
          "type": "address"
        }
      ],
      "name": "setList",
      "outputs": [],
      "stateMutability": "nonpayable",
      "type": "function"
    },
    {
      "inputs": [],
      "name": "tokenPrice",
      "outputs": [
        {
          "internalType": "uint256",
          "name": "",
          "type": "uint256"
        }
      ],
      "stateMutability": "view",
      "type": "function"
    },
    {
      "inputs": [
        {
          "internalType": "address",
          "name": "_user",
          "type": "address"
        }
      ],
      "name": "tokensClaimable",
      "outputs": [
        {
          "internalType": "uint256",
          "name": "claimerCommitment",
          "type": "uint256"
        }
      ],
      "stateMutability": "view",
      "type": "function"
    },
    {
      "inputs": [],
      "name": "wallet",
      "outputs": [
        {
          "internalType": "address payable",
          "name": "",
          "type": "address"
        }
      ],
      "stateMutability": "view",
      "type": "function"
    },
    {
      "inputs": [
        {
          "internalType": "address payable",
          "name": "beneficiary",
          "type": "address"
        }
      ],
      "name": "withdrawTokens",
      "outputs": [],
      "stateMutability": "nonpayable",
      "type": "function"
    },
    {
      "inputs": [],
      "name": "withdrawTokens",
      "outputs": [],
      "stateMutability": "nonpayable",
      "type": "function"
    },
    {
      "stateMutability": "payable",
      "type": "receive"
    }
  ],
  "bytecode": "0x608060405234801561001057600080fd5b5060016005819055506176eb80620000296000396000f3fe6080604052600436106103d25760003560e01c80638a845fc0116101fd578063c884ef8311610118578063dde51f6d116100ab578063f04899d31161007a578063f04899d314610e4f578063f08b82e614610e7a578063f5b541a614610ea5578063f910691314610ed0578063fc4e3e0a14610f0d576103e1565b8063dde51f6d14610d92578063e0e081d714610dbb578063e6594abd14610de9578063e8fcf72314610e12576103e1565b8063d547741f116100e7578063d547741f14610cee578063d69d3e6214610d17578063dc97e08214610d40578063dccfe31014610d69576103e1565b8063c884ef8314610c20578063c92bce8714610c5d578063ca15c87314610c86578063d539139314610cc3576103e1565b80639c64d0ae11610190578063b3f05b971161015f578063b3f05b9714610b52578063b7928b1d14610b7d578063c395fcb314610ba6578063c6b547e614610be3576103e1565b80639c64d0ae14610aaa5780639fa5f50b14610ad3578063a217fddf14610afe578063adbf377614610b29576103e1565b806391d14854116101cc57806391d14854146109f05780639478941c14610a2d57806399fdb32014610a565780639a87222c14610a81576103e1565b80638a845fc01461095c5780638d8f2adb146109855780638fa8b7901461099c5780639010d07c146109b3576103e1565b806349df728c116102ed5780636ae260c1116102805780637ff9b5961161024f5780637ff9b596146108b257806381353c8e146108dd578063857d2608146109065780638643337414610931576103e1565b80636ae260c1146107f757806374cf9fc5146108205780637525b0bd1461084b5780637ccb6a6414610874576103e1565b80634ddf47d4116102bc5780634ddf47d41461075e578063521eb2731461077a57806354f1e126146107a55780636595171c146107ce576103e1565b806349df728c146106b85780634b3e6abb146106e15780634bb278f31461070a5780634dc80e1514610721576103e1565b80632f2ff15d116103655780633b33fe73116103345780633b33fe73146106105780633d15cc6d146106395780633d1c2273146106645780633f16431a1461068f576103e1565b80632f2ff15d14610565578063314148e21461058e57806336568abe146105bc57806336d0054b146105e5576103e1565b80631b3e460e116103a15780631b3e460e146104b8578063212f8a81146104e3578063248a9ca31461050c5780632976296014610549576103e1565b8063031bee00146103e6578063099db01714610413578063113b0ab214610450578063170264551461048d576103e1565b366103e1576103df610f4a565b005b600080fd5b3480156103f257600080fd5b506103fb610f85565b60405161040a939291906165b2565b60405180910390f35b34801561041f57600080fd5b5061043a60048036038101906104359190614eab565b610fe1565b6040516104479190615f39565b60405180910390f35b34801561045c57600080fd5b5061047760048036038101906104729190614eab565b611014565b6040516104849190615f39565b60405180910390f35b34801561049957600080fd5b506104a2611047565b6040516104af9190615f39565b60405180910390f35b3480156104c457600080fd5b506104cd611082565b6040516104da919061656e565b60405180910390f35b3480156104ef57600080fd5b5061050a600480360381019061050591906150ef565b611087565b005b34801561051857600080fd5b50610533600480360381019061052e9190615205565b611217565b6040516105409190615f54565b60405180910390f35b610563600480360381019061055e9190614fd8565b611236565b005b34801561057157600080fd5b5061058c6004803603810190610587919061522e565b611341565b005b34801561059a57600080fd5b506105a36113b4565b6040516105b39493929190615ed2565b60405180910390f35b3480156105c857600080fd5b506105e360048036038101906105de919061522e565b611432565b005b3480156105f157600080fd5b506105fa6114b5565b6040516106079190615f39565b60405180910390f35b34801561061c57600080fd5b50610637600480360381019061063291906153a5565b611565565b005b34801561064557600080fd5b5061064e61166b565b60405161065b9190615d85565b60405180910390f35b34801561067057600080fd5b50610679611691565b604051610686919061656e565b60405180910390f35b34801561069b57600080fd5b506106b660048036038101906106b19190614eab565b61169e565b005b3480156106c457600080fd5b506106df60048036038101906106da9190614ed4565b61172c565b005b3480156106ed57600080fd5b50610708600480360381019061070391906151b3565b611a5c565b005b34801561071657600080fd5b5061071f611a8e565b005b34801561072d57600080fd5b5061074860048036038101906107439190614eab565b611e23565b604051610755919061656e565b60405180910390f35b610778600480360381019061077391906152a6565b611fd5565b005b34801561078657600080fd5b5061078f611fd9565b60405161079c9190615dbb565b60405180910390f35b3480156107b157600080fd5b506107cc60048036038101906107c79190614eab565b611fff565b005b3480156107da57600080fd5b506107f560048036038101906107f09190614eab565b61208d565b005b34801561080357600080fd5b5061081e60048036038101906108199190615433565b6120fe565b005b34801561082c57600080fd5b5061083561233e565b6040516108429190615fb5565b60405180910390f35b34801561085757600080fd5b50610872600480360381019061086d9190615014565b612361565b005b34801561088057600080fd5b5061089b600480360381019061089691906152eb565b612963565b6040516108a9929190615fd7565b60405180910390f35b3480156108be57600080fd5b506108c7612a63565b6040516108d4919061656e565b60405180910390f35b3480156108e957600080fd5b5061090460048036038101906108ff91906152a6565b612afd565b005b34801561091257600080fd5b5061091b612b4f565b6040516109289190615f54565b60405180910390f35b34801561093d57600080fd5b50610946612b73565b6040516109539190615f39565b60405180910390f35b34801561096857600080fd5b50610983600480360381019061097e9190614eab565b612ba0565b005b34801561099157600080fd5b5061099a612c2e565b005b3480156109a857600080fd5b506109b1612c39565b005b3480156109bf57600080fd5b506109da60048036038101906109d5919061526a565b612e3c565b6040516109e79190615d85565b60405180910390f35b3480156109fc57600080fd5b50610a176004803603810190610a12919061522e565b612e6d565b604051610a249190615f39565b60405180910390f35b348015610a3957600080fd5b50610a546004803603810190610a4f9190614eab565b612e9e565b005b348015610a6257600080fd5b50610a6b612f2c565b604051610a789190615d85565b60405180910390f35b348015610a8d57600080fd5b50610aa86004803603810190610aa39190614ed4565b612f52565b005b348015610ab657600080fd5b50610ad16004803603810190610acc9190615330565b61304f565b005b348015610adf57600080fd5b50610ae8613073565b604051610af59190615f17565b60405180910390f35b348015610b0a57600080fd5b50610b1361314c565b604051610b209190615f54565b60405180910390f35b348015610b3557600080fd5b50610b506004803603810190610b4b9190614eab565b613153565b005b348015610b5e57600080fd5b50610b676131e1565b604051610b749190615f39565b60405180910390f35b348015610b8957600080fd5b50610ba46004803603810190610b9f9190614eab565b6131fb565b005b348015610bb257600080fd5b50610bcd6004803603810190610bc89190614eab565b613289565b604051610bda9190615f39565b60405180910390f35b348015610bef57600080fd5b50610c0a6004803603810190610c0591906153a5565b61329f565b604051610c179190615fb5565b60405180910390f35b348015610c2c57600080fd5b50610c476004803603810190610c429190614eab565b6133bc565b604051610c54919061656e565b60405180910390f35b348015610c6957600080fd5b50610c846004803603810190610c7f919061513e565b6133d4565b005b348015610c9257600080fd5b50610cad6004803603810190610ca89190615205565b6134b2565b604051610cba919061656e565b60405180910390f35b348015610ccf57600080fd5b50610cd86134d8565b604051610ce59190615f54565b60405180910390f35b348015610cfa57600080fd5b50610d156004803603810190610d10919061522e565b6134fc565b005b348015610d2357600080fd5b50610d3e6004803603810190610d399190614eab565b61356f565b005b348015610d4c57600080fd5b50610d676004803603810190610d6291906153f7565b61358d565b005b348015610d7557600080fd5b50610d906004803603810190610d8b9190614eab565b61359c565b005b348015610d9e57600080fd5b50610db96004803603810190610db491906152eb565b61360d565b005b348015610dc757600080fd5b50610dd061362d565b604051610de09493929190616529565b60405180910390f35b348015610df557600080fd5b50610e106004803603810190610e0b9190614eab565b61369d565b005b348015610e1e57600080fd5b50610e396004803603810190610e349190614eab565b613717565b604051610e46919061656e565b60405180910390f35b348015610e5b57600080fd5b50610e6461372f565b604051610e719190615d85565b60405180910390f35b348015610e8657600080fd5b50610e8f613755565b604051610e9c919061656e565b60405180910390f35b348015610eb157600080fd5b50610eba613790565b604051610ec79190615f54565b60405180910390f35b348015610edc57600080fd5b50610ef76004803603810190610ef29190615014565b6137b4565b604051610f049190615f6f565b60405180910390f35b348015610f1957600080fd5b50610f346004803603810190610f2f9190614eab565b6137f8565b604051610f419190615f39565b60405180910390f35b6040517f08c379a0000000000000000000000000000000000000000000000000000000008152600401610f7c906160e9565b60405180910390fd5b60068060000160009054906101000a900467ffffffffffffffff16908060000160089054906101000a900467ffffffffffffffff16908060000160109054906101000a90046fffffffffffffffffffffffffffffffff16905083565b600061100d7f9f2df0fed2c77648de5860a4cc508cd0818c85b8b8a1ab4ceeef8d981c8956a683612e6d565b9050919050565b60006110407f9d49f397ae9ef1a834b569acb967799a367061e305932181a44f5773da873bfd83612e6d565b9050919050565b60004262093a80600660000160089054906101000a900467ffffffffffffffff1667ffffffffffffffff1661107c91906166ed565b10905090565b600381565b600260055414156110cd576040517f08c379a00000000000000000000000000000000000000000000000000000000081526004016110c490616469565b60405180910390fd5b600260058190555073eeeeeeeeeeeeeeeeeeeeeeeeeeeeeeeeeeeeeeee73ffffffffffffffffffffffffffffffffffffffff16600a60009054906101000a900473ffffffffffffffffffffffffffffffffffffffff1673ffffffffffffffffffffffffffffffffffffffff16141561117a576040517f08c379a000000000000000000000000000000000000000000000000000000000815260040161117190616489565b60405180910390fd5b6000151581151514156111905761118f610f4a565b5b600082116111d3576040517f08c379a00000000000000000000000000000000000000000000000000000000081526004016111ca90616389565b60405180910390fd5b611200600a60009054906101000a900473ffffffffffffffffffffffffffffffffffffffff16338461382b565b61120a838361392d565b6001600581905550505050565b6000806000838152602001908152602001600020600201549050919050565b73eeeeeeeeeeeeeeeeeeeeeeeeeeeeeeeeeeeeeeee73ffffffffffffffffffffffffffffffffffffffff16600a60009054906101000a900473ffffffffffffffffffffffffffffffffffffffff1673ffffffffffffffffffffffffffffffffffffffff16146112da576040517f08c379a00000000000000000000000000000000000000000000000000000000081526004016112d190616349565b60405180910390fd5b6000341161131d576040517f08c379a000000000000000000000000000000000000000000000000000000000815260040161131490616389565b60405180910390fd5b60001515811515141561133357611332610f4a565b5b61133d823461392d565b5050565b61136760008084815260200190815260200160002060020154611362613bf2565b612e6d565b6113a6576040517f08c379a000000000000000000000000000000000000000000000000000000000815260040161139d90616089565b60405180910390fd5b6113b08282613bfa565b5050565b600080600080600960009054906101000a900473ffffffffffffffffffffffffffffffffffffffff16600660000160009054906101000a900467ffffffffffffffff16600660000160089054906101000a900467ffffffffffffffff16600760010160009054906101000a900460ff16935093509350935090919293565b61143a613bf2565b73ffffffffffffffffffffffffffffffffffffffff168173ffffffffffffffffffffffffffffffffffffffff16146114a7576040517f08c379a000000000000000000000000000000000000000000000000000000000815260040161149e906164e9565b60405180910390fd5b6114b18282613c8d565b5050565b6000600760000160109054906101000a90046fffffffffffffffffffffffffffffffff166fffffffffffffffffffffffffffffffff16600760000160009054906101000a90046fffffffffffffffffffffffffffffffff166fffffffffffffffffffffffffffffffff161015801561156057506000600760000160009054906101000a90046fffffffffffffffffffffffffffffffff166fffffffffffffffffffffffffffffffff16115b905090565b61156e33613289565b61157757600080fd5b6000600760000160009054906101000a90046fffffffffffffffffffffffffffffffff166fffffffffffffffffffffffffffffffff16146115ed576040517f08c379a00000000000000000000000000000000000000000000000000000000081526004016115e4906162e9565b60405180910390fd5b6115f681613d20565b600760000160106101000a8154816fffffffffffffffffffffffffffffffff02191690836fffffffffffffffffffffffffffffffff1602179055507f1fd3f6b4312b53d1521fb9dab5af66131ff5b6141870420ded20e5ffb42f6cf281604051611660919061656e565b60405180910390a150565b600a60009054906101000a900473ffffffffffffffffffffffffffffffffffffffff1681565b6000600480549050905090565b6116c87f9d49f397ae9ef1a834b569acb967799a367061e305932181a44f5773da873bfd82611341565b6116d0613bf2565b73ffffffffffffffffffffffffffffffffffffffff168173ffffffffffffffffffffffffffffffffffffffff167f1d5f9ec24c6f91be922ea13ceaad919ad6554a41b5c26087f96289a9baf98ad260405160405180910390a350565b60026005541415611772576040517f08c379a000000000000000000000000000000000000000000000000000000000815260040161176990616469565b60405180910390fd5b60026005819055506117826114b5565b156118f157600760010160009054906101000a900460ff166117d9576040517f08c379a00000000000000000000000000000000000000000000000000000000081526004016117d0906162a9565b60405180910390fd5b60006117e482611e23565b905060008111611829576040517f08c379a0000000000000000000000000000000000000000000000000000000008152600401611820906164c9565b60405180910390fd5b61187b81600e60008573ffffffffffffffffffffffffffffffffffffffff1673ffffffffffffffffffffffffffffffffffffffff16815260200190815260200160002054613d7f90919063ffffffff16565b600e60008473ffffffffffffffffffffffffffffffffffffffff1673ffffffffffffffffffffffffffffffffffffffff168152602001908152602001600020819055506118eb600960009054906101000a900473ffffffffffffffffffffffffffffffffffffffff168383613dd8565b50611a51565b600660000160089054906101000a900467ffffffffffffffff1667ffffffffffffffff164211611956576040517f08c379a000000000000000000000000000000000000000000000000000000000815260040161194d90616249565b60405180910390fd5b6000600d60008373ffffffffffffffffffffffffffffffffffffffff1673ffffffffffffffffffffffffffffffffffffffff168152602001908152602001600020549050600081116119dd576040517f08c379a00000000000000000000000000000000000000000000000000000000081526004016119d490616209565b60405180910390fd5b6000600d60008473ffffffffffffffffffffffffffffffffffffffff1673ffffffffffffffffffffffffffffffffffffffff16815260200190815260200160002081905550611a4f600a60009054906101000a900473ffffffffffffffffffffffffffffffffffffffff168383613dd8565b505b600160058190555050565b611a6533613289565b611a6e57600080fd5b80600760010160016101000a81548160ff02191690831515021790555050565b60026005541415611ad4576040517f08c379a0000000000000000000000000000000000000000000000000000000008152600401611acb90616469565b60405180910390fd5b6002600581905550611ae533613289565b80611b3d57503373ffffffffffffffffffffffffffffffffffffffff16600c60009054906101000a900473ffffffffffffffffffffffffffffffffffffffff1673ffffffffffffffffffffffffffffffffffffffff16145b80611b4d5750611b4c33611014565b5b80611b5c5750611b5b611047565b5b611b9b576040517f08c379a0000000000000000000000000000000000000000000000000000000008152600401611b92906163e9565b60405180910390fd5b600760010160009054906101000a900460ff1615611bee576040517f08c379a0000000000000000000000000000000000000000000000000000000008152600401611be5906160c9565b60405180910390fd5b600660000160089054906101000a900467ffffffffffffffff1667ffffffffffffffff164211611c53576040517f08c379a0000000000000000000000000000000000000000000000000000000008152600401611c4a90616249565b60405180910390fd5b611c5b6114b5565b15611ce757611ce2600a60009054906101000a900473ffffffffffffffffffffffffffffffffffffffff16600c60009054906101000a900473ffffffffffffffffffffffffffffffffffffffff16600760000160009054906101000a90046fffffffffffffffffffffffffffffffff166fffffffffffffffffffffffffffffffff16613dd8565b611dcf565b600660000160089054906101000a900467ffffffffffffffff1667ffffffffffffffff164211611d4c576040517f08c379a0000000000000000000000000000000000000000000000000000000008152600401611d4390616249565b60405180910390fd5b611dce600960009054906101000a900473ffffffffffffffffffffffffffffffffffffffff16600c60009054906101000a900473ffffffffffffffffffffffffffffffffffffffff16600660000160109054906101000a90046fffffffffffffffffffffffffffffffff166fffffffffffffffffffffffffffffffff16613dd8565b5b6001600760010160006101000a81548160ff0219169083151502179055507f32bebcfd2d04dbae321298091d96d2cb1d07279f59718cd83bd98245b8b82b5a60405160405180910390a16001600581905550565b600080600d60008473ffffffffffffffffffffffffffffffffffffffff1673ffffffffffffffffffffffffffffffffffffffff168152602001908152602001600020541415611e755760009050611fd0565b6000600960009054906101000a900473ffffffffffffffffffffffffffffffffffffffff1673ffffffffffffffffffffffffffffffffffffffff166370a08231306040518263ffffffff1660e01b8152600401611ed29190615d85565b60206040518083038186803b158015611eea57600080fd5b505afa158015611efe573d6000803e3d6000fd5b505050506040513d601f19601f82011682018060405250810190611f2291906153ce565b9050611f6c600d60008573ffffffffffffffffffffffffffffffffffffffff1673ffffffffffffffffffffffffffffffffffffffff16815260200190815260200160002054613e40565b9150611fc0600e60008573ffffffffffffffffffffffffffffffffffffffff1673ffffffffffffffffffffffffffffffffffffffff1681526020019081526020016000205483613ec290919063ffffffff16565b915080821115611fce578091505b505b919050565b5050565b600c60009054906101000a900473ffffffffffffffffffffffffffffffffffffffff1681565b6120297f9f2df0fed2c77648de5860a4cc508cd0818c85b8b8a1ab4ceeef8d981c8956a6826134fc565b612031613bf2565b73ffffffffffffffffffffffffffffffffffffffff168173ffffffffffffffffffffffffffffffffffffffff167f56692a161ffec953ddf9def93b958ea8d1ec95e21b80870c66be91a4374dc4e360405160405180910390a350565b61209a6000801b82611341565b6120a2613bf2565b73ffffffffffffffffffffffffffffffffffffffff168173ffffffffffffffffffffffffffffffffffffffff167f2570ac42fd8b322dc453ada624dc2ed0e9bdd67f16f201a25bbd30468f2aa18760405160405180910390a350565b61210733613289565b61211057600080fd5b6402540be4008210612157576040517f08c379a000000000000000000000000000000000000000000000000000000000815260040161214e906160a9565b60405180910390fd5b6402540be400811061219e576040517f08c379a0000000000000000000000000000000000000000000000000000000008152600401612195906160a9565b60405180910390fd5b428210156121e1576040517f08c379a00000000000000000000000000000000000000000000000000000000081526004016121d890616449565b60405180910390fd5b818111612223576040517f08c379a000000000000000000000000000000000000000000000000000000000815260040161221a90616169565b60405180910390fd5b6000600760000160009054906101000a90046fffffffffffffffffffffffffffffffff166fffffffffffffffffffffffffffffffff1614612299576040517f08c379a0000000000000000000000000000000000000000000000000000000008152600401612290906162e9565b60405180910390fd5b6122a282613f1b565b600660000160006101000a81548167ffffffffffffffff021916908367ffffffffffffffff1602179055506122d681613f1b565b600660000160086101000a81548167ffffffffffffffff021916908367ffffffffffffffff1602179055507f5725d1e4352d6944889e54837ffaefde55cdc0b55796b831365d61cd4c87fdb88282604051612332929190616589565b60405180910390a15050565b606060405180610180016040528061015b815260200161755b61015b9139905090565b6402540be40087106123a8576040517f08c379a000000000000000000000000000000000000000000000000000000000815260040161239f906160a9565b60405180910390fd5b6402540be40086106123ef576040517f08c379a00000000000000000000000000000000000000000000000000000000081526004016123e6906160a9565b60405180910390fd5b42871015612432576040517f08c379a000000000000000000000000000000000000000000000000000000000815260040161242990616449565b60405180910390fd5b868611612474576040517f08c379a000000000000000000000000000000000000000000000000000000000815260040161246b90616109565b60405180910390fd5b600088116124b7576040517f08c379a00000000000000000000000000000000000000000000000000000000081526004016124ae90616269565b60405180910390fd5b600073ffffffffffffffffffffffffffffffffffffffff168373ffffffffffffffffffffffffffffffffffffffff161415612527576040517f08c379a000000000000000000000000000000000000000000000000000000000815260040161251e906161c9565b60405180910390fd5b600073ffffffffffffffffffffffffffffffffffffffff168173ffffffffffffffffffffffffffffffffffffffff161415612597576040517f08c379a000000000000000000000000000000000000000000000000000000000815260040161258e90616369565b60405180910390fd5b60128973ffffffffffffffffffffffffffffffffffffffff1663313ce5676040518163ffffffff1660e01b815260040160206040518083038186803b1580156125df57600080fd5b505afa1580156125f3573d6000803e3d6000fd5b505050506040513d601f19601f82011682018060405250810190612617919061546f565b60ff161461265a576040517f08c379a0000000000000000000000000000000000000000000000000000000008152600401612651906162c9565b60405180910390fd5b73eeeeeeeeeeeeeeeeeeeeeeeeeeeeeeeeeeeeeeee73ffffffffffffffffffffffffffffffffffffffff168573ffffffffffffffffffffffffffffffffffffffff16146127655760008573ffffffffffffffffffffffffffffffffffffffff1663313ce5676040518163ffffffff1660e01b815260040160206040518083038186803b1580156126e957600080fd5b505afa1580156126fd573d6000803e3d6000fd5b505050506040513d601f19601f82011682018060405250810190612721919061546f565b60ff1611612764576040517f08c379a000000000000000000000000000000000000000000000000000000000815260040161275b90616309565b60405180910390fd5b5b61276e84613d20565b600760000160106101000a8154816fffffffffffffffffffffffffffffffff02191690836fffffffffffffffffffffffffffffffff1602179055506127b287613f1b565b600660000160006101000a81548167ffffffffffffffff021916908367ffffffffffffffff1602179055506127e686613f1b565b600660000160086101000a81548167ffffffffffffffff021916908367ffffffffffffffff16021790555061281a88613d20565b600660000160106101000a8154816fffffffffffffffffffffffffffffffff02191690836fffffffffffffffffffffffffffffffff16021790555088600960006101000a81548173ffffffffffffffffffffffffffffffffffffffff021916908373ffffffffffffffffffffffffffffffffffffffff16021790555084600a60006101000a81548173ffffffffffffffffffffffffffffffffffffffff021916908373ffffffffffffffffffffffffffffffffffffffff16021790555080600c60006101000a81548173ffffffffffffffffffffffffffffffffffffffff021916908373ffffffffffffffffffffffffffffffffffffffff1602179055506129218361369d565b61292a82613f72565b612957600960009054906101000a900473ffffffffffffffffffffffffffffffffffffffff168b8a61382b565b50505050505050505050565b6060600060028484604051612979929190615d55565b90815260200160405180910390206001016002858560405161299c929190615d55565b908152602001604051809103902060000160049054906101000a900467ffffffffffffffff1667ffffffffffffffff168180546129d890616999565b80601f0160208091040260200160405190810160405280929190818152602001828054612a0490616999565b8015612a515780601f10612a2657610100808354040283529160200191612a51565b820191906000526020600020905b815481529060010190602001808311612a3457829003601f168201915b50505050509150915091509250929050565b6000612af8600660000160109054906101000a90046fffffffffffffffffffffffffffffffff166fffffffffffffffffffffffffffffffff16612aea670de0b6b3a7640000600760000160009054906101000a90046fffffffffffffffffffffffffffffffff166fffffffffffffffffffffffffffffffff1661400990919063ffffffff16565b61407690919063ffffffff16565b905090565b6000806000806000806000806000808b8b810190612b1b9190614efd565b9950995099509950995099509950995099509950612b418a8a8a8a8a8a8a8a8a8a612361565b505050505050505050505050565b7f9d49f397ae9ef1a834b569acb967799a367061e305932181a44f5773da873bfd81565b6000600660000160089054906101000a900467ffffffffffffffff1667ffffffffffffffff164211905090565b612bca7f9d49f397ae9ef1a834b569acb967799a367061e305932181a44f5773da873bfd826134fc565b612bd2613bf2565b73ffffffffffffffffffffffffffffffffffffffff168173ffffffffffffffffffffffffffffffffffffffff167fe5f1aa9e528307345194b88b24a32401c13926e0823060f1049d9b26c0bb62b260405160405180910390a350565b612c373361172c565b565b60026005541415612c7f576040517f08c379a0000000000000000000000000000000000000000000000000000000008152600401612c7690616469565b60405180910390fd5b6002600581905550612c9033613289565b612c9957600080fd5b6000600790508060010160009054906101000a900460ff1615612cf1576040517f08c379a0000000000000000000000000000000000000000000000000000000008152600401612ce890616149565b60405180910390fd5b60008160000160009054906101000a90046fffffffffffffffffffffffffffffffff166fffffffffffffffffffffffffffffffff1614612d66576040517f08c379a0000000000000000000000000000000000000000000000000000000008152600401612d5d90616289565b60405180910390fd5b612de8600960009054906101000a900473ffffffffffffffffffffffffffffffffffffffff16600c60009054906101000a900473ffffffffffffffffffffffffffffffffffffffff16600660000160109054906101000a90046fffffffffffffffffffffffffffffffff166fffffffffffffffffffffffffffffffff16613dd8565b60018160010160006101000a81548160ff0219169083151502179055507fa5fb31e47bd1eca58bf14a3312d5e6aeafdc4ee787c8ed348c15c2b092324d9360405160405180910390a1506001600581905550565b6000612e65826000808681526020019081526020016000206000016140ce90919063ffffffff16565b905092915050565b6000612e96826000808681526020019081526020016000206000016140e890919063ffffffff16565b905092915050565b612ec87f97667070c54ef182b0f5858b034beac1b6f3089aa2d3188bb1e8929f4fa9b929826134fc565b612ed0613bf2565b73ffffffffffffffffffffffffffffffffffffffff168173ffffffffffffffffffffffffffffffffffffffff167f70b25138b6fadeb9992d18b9653564271823e34b3e3257515d12a6d4b15fcddf60405160405180910390a350565b600960009054906101000a900473ffffffffffffffffffffffffffffffffffffffff1681565b612f5b33613289565b612f6457600080fd5b600073ffffffffffffffffffffffffffffffffffffffff168173ffffffffffffffffffffffffffffffffffffffff161415612fd4576040517f08c379a0000000000000000000000000000000000000000000000000000000008152600401612fcb90616369565b60405180910390fd5b80600c60006101000a81548173ffffffffffffffffffffffffffffffffffffffff021916908373ffffffffffffffffffffffffffffffffffffffff1602179055507f34ae2bad9265f0212d4cf341708b8250949164bb54f9d0e4f442024f83bb2f90816040516130449190615da0565b60405180910390a150565b61305833613289565b61306157600080fd5b61306d84848484614118565b50505050565b60606004805480602002602001604051908101604052809291908181526020016000905b828210156131435783829060005260206000200180546130b690616999565b80601f01602080910402602001604051908101604052809291908181526020018280546130e290616999565b801561312f5780601f106131045761010080835404028352916020019161312f565b820191906000526020600020905b81548152906001019060200180831161311257829003601f168201915b505050505081526020019060010190613097565b50505050905090565b6000801b81565b61317d7f9f2df0fed2c77648de5860a4cc508cd0818c85b8b8a1ab4ceeef8d981c8956a682611341565b613185613bf2565b73ffffffffffffffffffffffffffffffffffffffff168173ffffffffffffffffffffffffffffffffffffffff167f0be6ab9784c7401fafb73f7bc47bc67cc4ef8c47a60ad3cb66d1de0353a0784c60405160405180910390a350565b6000600760010160009054906101000a900460ff16905090565b6132257f97667070c54ef182b0f5858b034beac1b6f3089aa2d3188bb1e8929f4fa9b92982611341565b61322d613bf2565b73ffffffffffffffffffffffffffffffffffffffff168173ffffffffffffffffffffffffffffffffffffffff167f2d45ee102874989882745a26688d0b4fffee125a18df26536b12582c7fde4e1760405160405180910390a350565b60006132986000801b83612e6d565b9050919050565b606060048054905082106132e8576040517f08c379a00000000000000000000000000000000000000000000000000000000081526004016132df906163c9565b60405180910390fd5b60048281548110613322577f4e487b7100000000000000000000000000000000000000000000000000000000600052603260045260246000fd5b90600052602060002001805461333790616999565b80601f016020809104026020016040519081016040528092919081815260200182805461336390616999565b80156133b05780601f10613385576101008083540402835291602001916133b0565b820191906000526020600020905b81548152906001019060200180831161339357829003601f168201915b50505050509050919050565b600e6020528060005260406000206000915090505481565b6133dd33613289565b6133e657600080fd5b600084849050905060005b818110156134aa57613497868683818110613435577f4e487b7100000000000000000000000000000000000000000000000000000000600052603260045260246000fd5b905060200281019061344791906165e9565b868685818110613480577f4e487b7100000000000000000000000000000000000000000000000000000000600052603260045260246000fd5b905060200281019061349291906165e9565b614118565b80806134a2906169cb565b9150506133f1565b505050505050565b60006134d16000808481526020019081526020016000206000016142d5565b9050919050565b7f9f2df0fed2c77648de5860a4cc508cd0818c85b8b8a1ab4ceeef8d981c8956a681565b6135226000808481526020019081526020016000206002015461351d613bf2565b612e6d565b613561576040517f08c379a0000000000000000000000000000000000000000000000000000000008152600401613558906161a9565b60405180910390fd5b61356b8282613c8d565b5050565b61357833613289565b61358157600080fd5b61358a81613f72565b50565b613598338383611087565b5050565b6135a96000801b826134fc565b6135b1613bf2565b73ffffffffffffffffffffffffffffffffffffffff168173ffffffffffffffffffffffffffffffffffffffff167f21ba1239795d4e22874e3dc55f0a9d7b65bfb23069d32965d7c23be9524ccf9560405160405180910390a350565b61361633613289565b61361f57600080fd5b61362982826142ea565b5050565b60078060000160009054906101000a90046fffffffffffffffffffffffffffffffff16908060000160109054906101000a90046fffffffffffffffffffffffffffffffff16908060010160009054906101000a900460ff16908060010160019054906101000a900460ff16905084565b600160009054906101000a900460ff16156136ed576040517f08c379a00000000000000000000000000000000000000000000000000000000081526004016136e490616049565b60405180910390fd5b6136fa6000801b82614659565b60018060006101000a81548160ff02191690831515021790555050565b600d6020528060005260406000206000915090505481565b600b60009054906101000a900473ffffffffffffffffffffffffffffffffffffffff1681565b6000600660000160109054906101000a90046fffffffffffffffffffffffffffffffff166fffffffffffffffffffffffffffffffff16905090565b7f97667070c54ef182b0f5858b034beac1b6f3089aa2d3188bb1e8929f4fa9b92981565b60608a8a8a8a8a8a8a8a8a8a6040516020016137d99a99989796959493929190615e0d565b60405160208183030381529060405290509a9950505050505050505050565b60006138247f97667070c54ef182b0f5858b034beac1b6f3089aa2d3188bb1e8929f4fa9b92983612e6d565b9050919050565b6000808473ffffffffffffffffffffffffffffffffffffffff166323b872dd85308660405160240161385f93929190615dd6565b6040516020818303038152906040529060e01b6020820180517bffffffffffffffffffffffffffffffffffffffffffffffffffffffff83818316178352505050506040516138ad9190615d3e565b6000604051808303816000865af19150503d80600081146138ea576040519150601f19603f3d011682016040523d82523d6000602084013e6138ef565b606091505b509150915081801561391d575060008151148061391c57508080602001905181019061391b91906151dc565b5b5b61392657600080fd5b5050505050565b600660000160009054906101000a900467ffffffffffffffff1667ffffffffffffffff1642101580156139835750600660000160089054906101000a900467ffffffffffffffff1667ffffffffffffffff164211155b6139c2576040517f08c379a00000000000000000000000000000000000000000000000000000000081526004016139b990616429565b60405180910390fd5b6000613a1682600d60008673ffffffffffffffffffffffffffffffffffffffff1673ffffffffffffffffffffffffffffffffffffffff16815260200190815260200160002054613d7f90919063ffffffff16565b9050600760010160019054906101000a900460ff1615613ae757600b60009054906101000a900473ffffffffffffffffffffffffffffffffffffffff1673ffffffffffffffffffffffffffffffffffffffff16631cd53d5584836040518363ffffffff1660e01b8152600401613a8d929190615ea9565b60206040518083038186803b158015613aa557600080fd5b505afa158015613ab9573d6000803e3d6000fd5b505050506040513d601f19601f82011682018060405250810190613add91906151dc565b613ae657600080fd5b5b80600d60008573ffffffffffffffffffffffffffffffffffffffff1673ffffffffffffffffffffffffffffffffffffffff16815260200190815260200160002081905550613b79613b7483600760000160009054906101000a90046fffffffffffffffffffffffffffffffff166fffffffffffffffffffffffffffffffff16613d7f90919063ffffffff16565b613d20565b600760000160006101000a8154816fffffffffffffffffffffffffffffffff02191690836fffffffffffffffffffffffffffffffff1602179055507f077511a636ba1f10551cc7b89c13ff66a6ac9344e8a917527817a9690b15af7a8383604051613be5929190615ea9565b60405180910390a1505050565b600033905090565b613c218160008085815260200190815260200160002060000161466790919063ffffffff16565b15613c8957613c2e613bf2565b73ffffffffffffffffffffffffffffffffffffffff168173ffffffffffffffffffffffffffffffffffffffff16837f2f8788117e7eff1d82e926ec794901d17c78024a50270940304540a733656f0d60405160405180910390a45b5050565b613cb48160008085815260200190815260200160002060000161469790919063ffffffff16565b15613d1c57613cc1613bf2565b73ffffffffffffffffffffffffffffffffffffffff168173ffffffffffffffffffffffffffffffffffffffff16837ff6391f5c32d9c69d2a47ea670b442974b53935d1edc7fd64eb21e047a839171b60405160405180910390a45b5050565b60006fffffffffffffffffffffffffffffffff8016821115613d77576040517f08c379a0000000000000000000000000000000000000000000000000000000008152600401613d6e90616189565b60405180910390fd5b819050919050565b6000818284613d8e91906166ed565b9150811015613dd2576040517f08c379a0000000000000000000000000000000000000000000000000000000008152600401613dc9906161e9565b60405180910390fd5b92915050565b73eeeeeeeeeeeeeeeeeeeeeeeeeeeeeeeeeeeeeeee73ffffffffffffffffffffffffffffffffffffffff168373ffffffffffffffffffffffffffffffffffffffff161415613e2f57613e2a82826146c7565b613e3b565b613e3a8383836147ed565b5b505050565b600080600760000160009054906101000a90046fffffffffffffffffffffffffffffffff166fffffffffffffffffffffffffffffffff161415613e865760009050613ebd565b613eba613e91612a63565b613eac670de0b6b3a76400008561400990919063ffffffff16565b61407690919063ffffffff16565b90505b919050565b6000828284613ed19190616808565b9150811115613f15576040517f08c379a0000000000000000000000000000000000000000000000000000000008152600401613f0c90616029565b60405180910390fd5b92915050565b600067ffffffffffffffff8016821115613f6a576040517f08c379a0000000000000000000000000000000000000000000000000000000008152600401613f6190616329565b60405180910390fd5b819050919050565b600073ffffffffffffffffffffffffffffffffffffffff168173ffffffffffffffffffffffffffffffffffffffff16146140065780600b60006101000a81548173ffffffffffffffffffffffffffffffffffffffff021916908373ffffffffffffffffffffffffffffffffffffffff1602179055506001600760010160016101000a81548160ff0219169083151502179055505b50565b60008082148061403157508282838561402291906167ae565b92508261402f919061677d565b145b614070576040517f08c379a0000000000000000000000000000000000000000000000000000000008152600401614067906164a9565b60405180910390fd5b92915050565b60008082116140ba576040517f08c379a00000000000000000000000000000000000000000000000000000000081526004016140b190616509565b60405180910390fd5b81836140c6919061677d565b905092915050565b60006140dd83600001836148ed565b60001c905092915050565b6000614110836000018373ffffffffffffffffffffffffffffffffffffffff1660001b614987565b905092915050565b6000848490501161415e576040517f08c379a000000000000000000000000000000000000000000000000000000000815260040161415590616229565b60405180910390fd5b600082829050116141a4576040517f08c379a000000000000000000000000000000000000000000000000000000000815260040161419b90616409565b60405180910390fd5b600067ffffffffffffffff16600285856040516141c2929190615d55565b908152602001604051809103902060000160049054906101000a900467ffffffffffffffff1667ffffffffffffffff16141561427e576004848490918060018154018082558091505060019003906000526020600020016000909192909192909192909192509190614235929190614bb5565b506004805490506002858560405161424e929190615d55565b908152602001604051809103902060000160006101000a81548163ffffffff021916908363ffffffff1602179055505b838360405161428e929190615d55565b60405180910390207fbaa206e5ea800eb88bce099f453fee53295b793b9d5d1cfc4ce4b6db06a34f5383836040516142c7929190615f91565b60405180910390a250505050565b60006142e3826000016149aa565b9050919050565b600067ffffffffffffffff1660028383604051614308929190615d55565b908152602001604051809103902060000160049054906101000a900467ffffffffffffffff1667ffffffffffffffff161415614379576040517f08c379a000000000000000000000000000000000000000000000000000000000815260040161437090616129565b60405180910390fd5b600060016002848460405161438f929190615d55565b908152602001604051809103902060000160009054906101000a900463ffffffff166143bb919061683c565b905060016004805490506143cf9190616808565b8163ffffffff161461452857600460016004805490506143ef9190616808565b81548110614426577f4e487b7100000000000000000000000000000000000000000000000000000000600052603260045260246000fd5b9060005260206000200160048263ffffffff1681548110614470577f4e487b7100000000000000000000000000000000000000000000000000000000600052603260045260246000fd5b9060005260206000200190805461448690616999565b614491929190614c3b565b5060018161449f9190616743565b600260048363ffffffff16815481106144e1577f4e487b7100000000000000000000000000000000000000000000000000000000600052603260045260246000fd5b906000526020600020016040516144f89190615d6e565b908152602001604051809103902060000160006101000a81548163ffffffff021916908363ffffffff1602179055505b6004805480614560577f4e487b7100000000000000000000000000000000000000000000000000000000600052603160045260246000fd5b60019003818190600052602060002001600061457c9190614cc8565b9055828260405161458e929190615d55565b60405180910390207f4b5338540b4d1c0f6dd0308a25f633b7ff60472f894d711cff9dd64e35c613b2600285856040516145c9929190615d55565b90815260200160405180910390206001016040516145e79190616007565b60405180910390a260028383604051614601929190615d55565b9081526020016040518091039020600080820160006101000a81549063ffffffff02191690556000820160046101000a81549067ffffffffffffffff02191690556001820160006146529190614cc8565b5050505050565b6146638282613bfa565b5050565b600061468f836000018373ffffffffffffffffffffffffffffffffffffffff1660001b6149bb565b905092915050565b60006146bf836000018373ffffffffffffffffffffffffffffffffffffffff1660001b614a2b565b905092915050565b60008273ffffffffffffffffffffffffffffffffffffffff1682600067ffffffffffffffff811115614722577f4e487b7100000000000000000000000000000000000000000000000000000000600052604160045260246000fd5b6040519080825280601f01601f1916602001820160405280156147545781602001600182028036833780820191505090505b506040516147629190615d3e565b60006040518083038185875af1925050503d806000811461479f576040519150601f19603f3d011682016040523d82523d6000602084013e6147a4565b606091505b50509050806147e8576040517f08c379a00000000000000000000000000000000000000000000000000000000081526004016147df906163a9565b60405180910390fd5b505050565b6000808473ffffffffffffffffffffffffffffffffffffffff1663a9059cbb858560405160240161481f929190615ea9565b6040516020818303038152906040529060e01b6020820180517bffffffffffffffffffffffffffffffffffffffffffffffffffffffff838183161783525050505060405161486d9190615d3e565b6000604051808303816000865af19150503d80600081146148aa576040519150601f19603f3d011682016040523d82523d6000602084013e6148af565b606091505b50915091508180156148dd57506000815114806148dc5750808060200190518101906148db91906151dc565b5b5b6148e657600080fd5b5050505050565b600081836000018054905011614938576040517f08c379a000000000000000000000000000000000000000000000000000000000815260040161492f90616069565b60405180910390fd5b826000018281548110614974577f4e487b7100000000000000000000000000000000000000000000000000000000600052603260045260246000fd5b9060005260206000200154905092915050565b600080836001016000848152602001908152602001600020541415905092915050565b600081600001805490509050919050565b60006149c78383614987565b614a20578260000182908060018154018082558091505060019003906000526020600020016000909190919091505582600001805490508360010160008481526020019081526020016000208190555060019050614a25565b600090505b92915050565b60008083600101600084815260200190815260200160002054905060008114614ba9576000600182614a5d9190616808565b9050600060018660000180549050614a759190616808565b90506000866000018281548110614ab5577f4e487b7100000000000000000000000000000000000000000000000000000000600052603260045260246000fd5b9060005260206000200154905080876000018481548110614aff577f4e487b7100000000000000000000000000000000000000000000000000000000600052603260045260246000fd5b9060005260206000200181905550600183614b1a91906166ed565b8760010160008381526020019081526020016000208190555086600001805480614b6d577f4e487b7100000000000000000000000000000000000000000000000000000000600052603160045260246000fd5b60019003818190600052602060002001600090559055866001016000878152602001908152602001600020600090556001945050505050614baf565b60009150505b92915050565b828054614bc190616999565b90600052602060002090601f016020900481019282614be35760008555614c2a565b82601f10614bfc57803560ff1916838001178555614c2a565b82800160010185558215614c2a579182015b82811115614c29578235825591602001919060010190614c0e565b5b509050614c379190614d08565b5090565b828054614c4790616999565b90600052602060002090601f016020900481019282614c695760008555614cb7565b82601f10614c7a5780548555614cb7565b82800160010185558215614cb757600052602060002091601f016020900482015b82811115614cb6578254825591600101919060010190614c9b565b5b509050614cc49190614d08565b5090565b508054614cd490616999565b6000825580601f10614ce65750614d05565b601f016020900490600052602060002090810190614d049190614d08565b5b50565b5b80821115614d21576000816000905550600101614d09565b5090565b600081359050614d34816174d0565b92915050565b600081359050614d49816174e7565b92915050565b60008083601f840112614d6157600080fd5b8235905067ffffffffffffffff811115614d7a57600080fd5b602083019150836020820283011115614d9257600080fd5b9250929050565b600081359050614da8816174fe565b92915050565b600081519050614dbd816174fe565b92915050565b600081359050614dd281617515565b92915050565b60008083601f840112614dea57600080fd5b8235905067ffffffffffffffff811115614e0357600080fd5b602083019150836001820283011115614e1b57600080fd5b9250929050565b60008083601f840112614e3457600080fd5b8235905067ffffffffffffffff811115614e4d57600080fd5b602083019150836001820283011115614e6557600080fd5b9250929050565b600081359050614e7b8161752c565b92915050565b600081519050614e908161752c565b92915050565b600081519050614ea581617543565b92915050565b600060208284031215614ebd57600080fd5b6000614ecb84828501614d25565b91505092915050565b600060208284031215614ee657600080fd5b6000614ef484828501614d3a565b91505092915050565b6000806000806000806000806000806101408b8d031215614f1d57600080fd5b6000614f2b8d828e01614d3a565b9a50506020614f3c8d828e01614d3a565b9950506040614f4d8d828e01614e6c565b9850506060614f5e8d828e01614e6c565b9750506080614f6f8d828e01614e6c565b96505060a0614f808d828e01614d3a565b95505060c0614f918d828e01614e6c565b94505060e0614fa28d828e01614d3a565b935050610100614fb48d828e01614d3a565b925050610120614fc68d828e01614d3a565b9150509295989b9194979a5092959850565b60008060408385031215614feb57600080fd5b6000614ff985828601614d3a565b925050602061500a85828601614d99565b9150509250929050565b6000806000806000806000806000806101408b8d03121561503457600080fd5b60006150428d828e01614d25565b9a505060206150538d828e01614d25565b99505060406150648d828e01614e6c565b98505060606150758d828e01614e6c565b97505060806150868d828e01614e6c565b96505060a06150978d828e01614d25565b95505060c06150a88d828e01614e6c565b94505060e06150b98d828e01614d25565b9350506101006150cb8d828e01614d25565b9250506101206150dd8d828e01614d3a565b9150509295989b9194979a5092959850565b60008060006060848603121561510457600080fd5b600061511286828701614d25565b935050602061512386828701614e6c565b925050604061513486828701614d99565b9150509250925092565b6000806000806040858703121561515457600080fd5b600085013567ffffffffffffffff81111561516e57600080fd5b61517a87828801614d4f565b9450945050602085013567ffffffffffffffff81111561519957600080fd5b6151a587828801614d4f565b925092505092959194509250565b6000602082840312156151c557600080fd5b60006151d384828501614d99565b91505092915050565b6000602082840312156151ee57600080fd5b60006151fc84828501614dae565b91505092915050565b60006020828403121561521757600080fd5b600061522584828501614dc3565b91505092915050565b6000806040838503121561524157600080fd5b600061524f85828601614dc3565b925050602061526085828601614d25565b9150509250929050565b6000806040838503121561527d57600080fd5b600061528b85828601614dc3565b925050602061529c85828601614e6c565b9150509250929050565b600080602083850312156152b957600080fd5b600083013567ffffffffffffffff8111156152d357600080fd5b6152df85828601614dd8565b92509250509250929050565b600080602083850312156152fe57600080fd5b600083013567ffffffffffffffff81111561531857600080fd5b61532485828601614e22565b92509250509250929050565b6000806000806040858703121561534657600080fd5b600085013567ffffffffffffffff81111561536057600080fd5b61536c87828801614e22565b9450945050602085013567ffffffffffffffff81111561538b57600080fd5b61539787828801614e22565b925092505092959194509250565b6000602082840312156153b757600080fd5b60006153c584828501614e6c565b91505092915050565b6000602082840312156153e057600080fd5b60006153ee84828501614e81565b91505092915050565b6000806040838503121561540a57600080fd5b600061541885828601614e6c565b925050602061542985828601614d99565b9150509250929050565b6000806040838503121561544657600080fd5b600061545485828601614e6c565b925050602061546585828601614e6c565b9150509250929050565b60006020828403121561548157600080fd5b600061548f84828501614e96565b91505092915050565b60006154a48383615628565b905092915050565b6154b581616921565b82525050565b6154c481616882565b82525050565b6154d381616870565b82525050565b60006154e482616665565b6154ee8185616693565b93508360208202850161550085616640565b8060005b8581101561553c578484038952815161551d8582615498565b945061552883616686565b925060208a01995050600181019050615504565b50829750879550505050505092915050565b61555781616894565b82525050565b615566816168a0565b82525050565b600061557782616670565b61558181856166a4565b9350615591818560208601616966565b61559a81616aa1565b840191505092915050565b60006155b082616670565b6155ba81856166b5565b93506155ca818560208601616966565b80840191505092915050565b60006155e283856166d1565b93506155ef838584616957565b6155f883616aa1565b840190509392505050565b600061560f83856166e2565b935061561c838584616957565b82840190509392505050565b60006156338261667b565b61563d81856166c0565b935061564d818560208601616966565b61565681616aa1565b840191505092915050565b600061566c8261667b565b61567681856166d1565b9350615686818560208601616966565b61568f81616aa1565b840191505092915050565b600081546156a781616999565b6156b181866166d1565b945060018216600081146156cc57600181146156de57615711565b60ff1983168652602086019350615711565b6156e785616650565b60005b83811015615709578154818901526001820191506020810190506156ea565b808801955050505b50505092915050565b6000815461572781616999565b61573181866166e2565b9450600182166000811461574c576001811461575d57615790565b60ff19831686528186019350615790565b61576685616650565b60005b8381101561578857815481890152600182019150602081019050615769565b838801955050505b50505092915050565b60006157a66015836166d1565b91506157b182616ab2565b602082019050919050565b60006157c96013836166d1565b91506157d482616adb565b602082019050919050565b60006157ec6022836166d1565b91506157f782616b04565b604082019050919050565b600061580f602f836166d1565b915061581a82616b53565b604082019050919050565b60006158326041836166d1565b915061583d82616ba2565b606082019050919050565b6000615855602b836166d1565b915061586082616c17565b604082019050919050565b60006158786052836166d1565b915061588382616c66565b606082019050919050565b600061589b6034836166d1565b91506158a682616cdb565b604082019050919050565b60006158be6015836166d1565b91506158c982616d2a565b602082019050919050565b60006158e1601c836166d1565b91506158ec82616d53565b602082019050919050565b60006159046035836166d1565b915061590f82616d7c565b604082019050919050565b6000615927601c836166d1565b915061593282616dcb565b602082019050919050565b600061594a6030836166d1565b915061595582616df4565b604082019050919050565b600061596d6027836166d1565b915061597882616e43565b604082019050919050565b60006159906018836166d1565b915061599b82616e92565b602082019050919050565b60006159b36020836166d1565b91506159be82616ebb565b602082019050919050565b60006159d66018836166d1565b91506159e182616ee4565b602082019050919050565b60006159f9602a836166d1565b9150615a0482616f0d565b604082019050919050565b6000615a1c6034836166d1565b9150615a2782616f5c565b604082019050919050565b6000615a3f601f836166d1565b9150615a4a82616fab565b602082019050919050565b6000615a62601b836166d1565b9150615a6d82616fd4565b602082019050919050565b6000615a85602d836166d1565b9150615a9082616ffd565b604082019050919050565b6000615aa86031836166d1565b9150615ab38261704c565b604082019050919050565b6000615acb602b836166d1565b9150615ad68261709b565b604082019050919050565b6000615aee601b836166d1565b9150615af9826170ea565b602082019050919050565b6000615b116029836166d1565b9150615b1c82617113565b604082019050919050565b6000615b346028836166d1565b9150615b3f82617162565b604082019050919050565b6000615b576029836166d1565b9150615b62826171b1565b604082019050919050565b6000615b7a6023836166d1565b9150615b8582617200565b604082019050919050565b6000615b9d6013836166d1565b9150615ba88261724f565b602082019050919050565b6000615bc06022836166d1565b9150615bcb82617278565b604082019050919050565b6000615be3601a836166d1565b9150615bee826172c7565b602082019050919050565b6000615c066023836166d1565b9150615c11826172f0565b604082019050919050565b6000615c29602f836166d1565b9150615c348261733f565b604082019050919050565b6000615c4c601f836166d1565b9150615c578261738e565b602082019050919050565b6000615c6f602d836166d1565b9150615c7a826173b7565b604082019050919050565b6000615c926018836166d1565b9150615c9d82617406565b602082019050919050565b6000615cb56020836166d1565b9150615cc08261742f565b602082019050919050565b6000615cd8602f836166d1565b9150615ce382617458565b604082019050919050565b6000615cfb6014836166d1565b9150615d06826174a7565b602082019050919050565b615d1a816168aa565b82525050565b615d29816168e6565b82525050565b615d3881616900565b82525050565b6000615d4a82846155a5565b915081905092915050565b6000615d62828486615603565b91508190509392505050565b6000615d7a828461571a565b915081905092915050565b6000602082019050615d9a60008301846154ca565b92915050565b6000602082019050615db560008301846154ac565b92915050565b6000602082019050615dd060008301846154bb565b92915050565b6000606082019050615deb60008301866154ca565b615df860208301856154ca565b615e056040830184615d20565b949350505050565b600061014082019050615e23600083018d6154ca565b615e30602083018c6154ca565b615e3d604083018b615d20565b615e4a606083018a615d20565b615e576080830189615d20565b615e6460a08301886154ca565b615e7160c0830187615d20565b615e7e60e08301866154ca565b615e8c6101008301856154ca565b615e9a6101208301846154bb565b9b9a5050505050505050505050565b6000604082019050615ebe60008301856154ca565b615ecb6020830184615d20565b9392505050565b6000608082019050615ee760008301876154ca565b615ef46020830186615d2f565b615f016040830185615d2f565b615f0e606083018461554e565b95945050505050565b60006020820190508181036000830152615f3181846154d9565b905092915050565b6000602082019050615f4e600083018461554e565b92915050565b6000602082019050615f69600083018461555d565b92915050565b60006020820190508181036000830152615f89818461556c565b905092915050565b60006020820190508181036000830152615fac8184866155d6565b90509392505050565b60006020820190508181036000830152615fcf8184615661565b905092915050565b60006040820190508181036000830152615ff18185615661565b90506160006020830184615d20565b9392505050565b60006020820190508181036000830152616021818461569a565b905092915050565b6000602082019050818103600083015261604281615799565b9050919050565b60006020820190508181036000830152616062816157bc565b9050919050565b60006020820190508181036000830152616082816157df565b9050919050565b600060208201905081810360008301526160a281615802565b9050919050565b600060208201905081810360008301526160c281615825565b9050919050565b600060208201905081810360008301526160e281615848565b9050919050565b600060208201905081810360008301526161028161586b565b9050919050565b600060208201905081810360008301526161228161588e565b9050919050565b60006020820190508181036000830152616142816158b1565b9050919050565b60006020820190508181036000830152616162816158d4565b9050919050565b60006020820190508181036000830152616182816158f7565b9050919050565b600060208201905081810360008301526161a28161591a565b9050919050565b600060208201905081810360008301526161c28161593d565b9050919050565b600060208201905081810360008301526161e281615960565b9050919050565b6000602082019050818103600083015261620281615983565b9050919050565b60006020820190508181036000830152616222816159a6565b9050919050565b60006020820190508181036000830152616242816159c9565b9050919050565b60006020820190508181036000830152616262816159ec565b9050919050565b6000602082019050818103600083015261628281615a0f565b9050919050565b600060208201905081810360008301526162a281615a32565b9050919050565b600060208201905081810360008301526162c281615a55565b9050919050565b600060208201905081810360008301526162e281615a78565b9050919050565b6000602082019050818103600083015261630281615a9b565b9050919050565b6000602082019050818103600083015261632281615abe565b9050919050565b6000602082019050818103600083015261634281615ae1565b9050919050565b6000602082019050818103600083015261636281615b04565b9050919050565b6000602082019050818103600083015261638281615b27565b9050919050565b600060208201905081810360008301526163a281615b4a565b9050919050565b600060208201905081810360008301526163c281615b6d565b9050919050565b600060208201905081810360008301526163e281615b90565b9050919050565b6000602082019050818103600083015261640281615bb3565b9050919050565b6000602082019050818103600083015261642281615bd6565b9050919050565b6000602082019050818103600083015261644281615bf9565b9050919050565b6000602082019050818103600083015261646281615c1c565b9050919050565b6000602082019050818103600083015261648281615c3f565b9050919050565b600060208201905081810360008301526164a281615c62565b9050919050565b600060208201905081810360008301526164c281615c85565b9050919050565b600060208201905081810360008301526164e281615ca8565b9050919050565b6000602082019050818103600083015261650281615ccb565b9050919050565b6000602082019050818103600083015261652281615cee565b9050919050565b600060808201905061653e6000830187615d11565b61654b6020830186615d11565b616558604083018561554e565b616565606083018461554e565b95945050505050565b60006020820190506165836000830184615d20565b92915050565b600060408201905061659e6000830185615d20565b6165ab6020830184615d20565b9392505050565b60006060820190506165c76000830186615d2f565b6165d46020830185615d2f565b6165e16040830184615d11565b949350505050565b6000808335600160200384360303811261660257600080fd5b80840192508235915067ffffffffffffffff82111561662057600080fd5b60208301925060018202360383131561663857600080fd5b509250929050565b6000819050602082019050919050565b60008190508160005260206000209050919050565b600081519050919050565b600081519050919050565b600081519050919050565b6000602082019050919050565b600082825260208201905092915050565b600082825260208201905092915050565b600081905092915050565b600082825260208201905092915050565b600082825260208201905092915050565b600081905092915050565b60006166f8826168e6565b9150616703836168e6565b9250827fffffffffffffffffffffffffffffffffffffffffffffffffffffffffffffffff0382111561673857616737616a14565b5b828201905092915050565b600061674e826168f0565b9150616759836168f0565b92508263ffffffff0382111561677257616771616a14565b5b828201905092915050565b6000616788826168e6565b9150616793836168e6565b9250826167a3576167a2616a43565b5b828204905092915050565b60006167b9826168e6565b91506167c4836168e6565b9250817fffffffffffffffffffffffffffffffffffffffffffffffffffffffffffffffff04831182151516156167fd576167fc616a14565b5b828202905092915050565b6000616813826168e6565b915061681e836168e6565b92508282101561683157616830616a14565b5b828203905092915050565b6000616847826168f0565b9150616852836168f0565b92508282101561686557616864616a14565b5b828203905092915050565b600061687b826168c6565b9050919050565b600061688d826168c6565b9050919050565b60008115159050919050565b6000819050919050565b60006fffffffffffffffffffffffffffffffff82169050919050565b600073ffffffffffffffffffffffffffffffffffffffff82169050919050565b6000819050919050565b600063ffffffff82169050919050565b600067ffffffffffffffff82169050919050565b600060ff82169050919050565b600061692c82616933565b9050919050565b600061693e82616945565b9050919050565b6000616950826168c6565b9050919050565b82818337600083830152505050565b60005b83811015616984578082015181840152602081019050616969565b83811115616993576000848401525b50505050565b600060028204905060018216806169b157607f821691505b602082108114156169c5576169c4616a72565b5b50919050565b60006169d6826168e6565b91507fffffffffffffffffffffffffffffffffffffffffffffffffffffffffffffffff821415616a0957616a08616a14565b5b600182019050919050565b7f4e487b7100000000000000000000000000000000000000000000000000000000600052601160045260246000fd5b7f4e487b7100000000000000000000000000000000000000000000000000000000600052601260045260246000fd5b7f4e487b7100000000000000000000000000000000000000000000000000000000600052602260045260246000fd5b6000601f19601f8301169050919050565b7f426f72696e674d6174683a20556e646572666c6f770000000000000000000000600082015250565b7f416c726561647920696e697469616c6973656400000000000000000000000000600082015250565b7f456e756d657261626c655365743a20696e646578206f7574206f6620626f756e60008201527f6473000000000000000000000000000000000000000000000000000000000000602082015250565b7f416363657373436f6e74726f6c3a2073656e646572206d75737420626520616e60008201527f2061646d696e20746f206772616e740000000000000000000000000000000000602082015250565b7f426174636841756374696f6e3a20656e74657220616e20756e69782074696d6560008201527f7374616d7020696e207365636f6e64732c206e6f74206d696c697365636f6e6460208201527f7300000000000000000000000000000000000000000000000000000000000000604082015250565b7f426174636841756374696f6e3a2041756374696f6e2068617320616c7265616460008201527f792066696e616c697a6564000000000000000000000000000000000000000000602082015250565b7f4e6f2061677265656d656e742070726f76696465642c20706c6561736520726560008201527f766965772074686520736d61727420636f6e7472616374206265666f7265206960208201527f6e746572616374696e6720776974682069740000000000000000000000000000604082015250565b7f426174636841756374696f6e3a20656e642074696d65206d757374206265206f60008201527f6c646572207468616e2073746172742074696d65000000000000000000000000602082015250565b7f446f63756d656e742073686f756c642065786973740000000000000000000000600082015250565b7f43726f776473616c653a20616c72656164792066696e616c697a656400000000600082015250565b7f426174636841756374696f6e3a20656e642074696d65206d757374206265206f60008201527f6c646572207468616e2073746172742070726963650000000000000000000000602082015250565b7f426f72696e674d6174683a2075696e74313238204f766572666c6f7700000000600082015250565b7f416363657373436f6e74726f6c3a2073656e646572206d75737420626520616e60008201527f2061646d696e20746f207265766f6b6500000000000000000000000000000000602082015250565b7f426174636841756374696f6e3a2061646d696e20697320746865207a65726f2060008201527f6164647265737300000000000000000000000000000000000000000000000000602082015250565b7f426f72696e674d6174683a20416464204f766572666c6f770000000000000000600082015250565b7f426174636841756374696f6e3a204e6f2066756e647320636f6d6d6974746564600082015250565b7f5a65726f206e616d65206973206e6f7420616c6c6f7765640000000000000000600082015250565b7f426174636841756374696f6e3a2041756374696f6e20686173206e6f7420666960008201527f6e69736865642079657400000000000000000000000000000000000000000000602082015250565b7f426174636841756374696f6e3a20746f74616c20746f6b656e73206d7573742060008201527f62652067726561746572207468616e207a65726f000000000000000000000000602082015250565b7f43726f776473616c653a2046756e647320616c72656164792072616973656400600082015250565b7f426174636841756374696f6e3a206e6f742066696e616c697a65640000000000600082015250565b7f426174636841756374696f6e3a20546f6b656e20646f6573206e6f742068617660008201527f6520313820646563696d616c7300000000000000000000000000000000000000602082015250565b7f426174636841756374696f6e3a2061756374696f6e2063616e6e6f742068617660008201527f6520616c72656164792073746172746564000000000000000000000000000000602082015250565b7f426174636841756374696f6e3a205061796d656e742063757272656e6379206960008201527f73206e6f74204552433230000000000000000000000000000000000000000000602082015250565b7f426f72696e674d6174683a2075696e743634204f766572666c6f770000000000600082015250565b7f426174636841756374696f6e3a207061796d656e742063757272656e6379206960008201527f73206e6f74204554480000000000000000000000000000000000000000000000602082015250565b7f426174636841756374696f6e3a2077616c6c657420697320746865207a65726f60008201527f2061646472657373000000000000000000000000000000000000000000000000602082015250565b7f426174636841756374696f6e3a2056616c7565206d757374206265206869676860008201527f6572207468616e20300000000000000000000000000000000000000000000000602082015250565b7f5472616e7366657248656c7065723a204554485f5452414e534645525f46414960008201527f4c45440000000000000000000000000000000000000000000000000000000000602082015250565b7f496e646578206f7574206f6620626f756e647300000000000000000000000000600082015250565b7f426174636841756374696f6e3a2053656e646572206d7573742062652061646d60008201527f696e000000000000000000000000000000000000000000000000000000000000602082015250565b7f53686f756c64206e6f74206265206120656d7074792064617461000000000000600082015250565b7f426174636841756374696f6e3a206f7574736964652061756374696f6e20686f60008201527f7572730000000000000000000000000000000000000000000000000000000000602082015250565b7f426174636841756374696f6e3a2073746172742074696d65206973206265666f60008201527f72652063757272656e742074696d650000000000000000000000000000000000602082015250565b7f5265656e7472616e637947756172643a207265656e7472616e742063616c6c00600082015250565b7f426174636841756374696f6e3a205061796d656e742063757272656e6379206960008201527f73206e6f74206120746f6b656e00000000000000000000000000000000000000602082015250565b7f426f72696e674d6174683a204d756c204f766572666c6f770000000000000000600082015250565b7f426174636841756374696f6e3a204e6f20746f6b656e7320746f20636c61696d600082015250565b7f416363657373436f6e74726f6c3a2063616e206f6e6c792072656e6f756e636560008201527f20726f6c657320666f722073656c660000000000000000000000000000000000602082015250565b7f426f72696e674d6174683a20446976207a65726f000000000000000000000000600082015250565b6174d981616870565b81146174e457600080fd5b50565b6174f081616882565b81146174fb57600080fd5b50565b61750781616894565b811461751257600080fd5b50565b61751e816168a0565b811461752957600080fd5b50565b617535816168e6565b811461754057600080fd5b50565b61754c81616914565b811461755757600080fd5b5056fe4920756e6465727374616e642074686174204920616d20696e746572616374696e672077697468206120736d61727420636f6e74726163742e204920756e6465727374616e64207468617420746f6b656e7320636f6d6d6974656420617265207375626a65637420746f2074686520746f6b656e2069737375657220616e64206c6f63616c206c617773207768657265206170706c696361626c652e204920686176652072657669657765642074686520636f6465206f66207468697320736d61727420636f6e747261637420616e6420756e6465727374616e642069742066756c6c792e204920616772656520746f206e6f7420686f6c6420646576656c6f70657273206f72206f746865722070656f706c65206173736f6369617465642077697468207468652070726f6a656374206c6961626c6520666f7220616e79206c6f73736573206f72206d6973756e6465727374616e64696e6773a26469706673582212200b754076ef705da2db1da7354c793c77bd4749dd83a0b45b6f01236dad74b9f664736f6c63430008040033",
  "linkReferences": {},
  "deployedLinkReferences": {}
}