{
  "_format": "hh-sol-artifact-1",
  "contractName": "VaporMarket",
  "sourceName": "contracts/VaporMarket.sol",
  "abi": [
    {
      "inputs": [],
      "stateMutability": "nonpayable",
      "type": "constructor"
    },
    {
      "anonymous": false,
      "inputs": [
        {
          "indexed": false,
          "internalType": "address",
          "name": "newAuction",
          "type": "address"
        },
        {
          "indexed": false,
          "internalType": "uint256",
          "name": "templateId",
          "type": "uint256"
        }
      ],
      "name": "AuctionTemplateAdded",
      "type": "event"
    },
    {
      "anonymous": false,
      "inputs": [
        {
          "indexed": false,
          "internalType": "address",
          "name": "auction",
          "type": "address"
        },
        {
          "indexed": false,
          "internalType": "uint256",
          "name": "templateId",
          "type": "uint256"
        }
      ],
      "name": "AuctionTemplateRemoved",
      "type": "event"
    },
    {
      "anonymous": false,
      "inputs": [
        {
          "indexed": true,
          "internalType": "address",
          "name": "owner",
          "type": "address"
        },
        {
          "indexed": true,
          "internalType": "address",
          "name": "addr",
          "type": "address"
        },
        {
          "indexed": false,
          "internalType": "address",
          "name": "marketTemplate",
          "type": "address"
        }
      ],
      "name": "MarketCreated",
      "type": "event"
    },
    {
      "anonymous": false,
      "inputs": [
        {
          "indexed": false,
          "internalType": "address",
          "name": "sender",
          "type": "address"
        }
      ],
      "name": "VaporInitMarket",
      "type": "event"
    },
    {
      "inputs": [],
      "name": "MARKET_MINTER_ROLE",
      "outputs": [
        {
          "internalType": "bytes32",
          "name": "",
          "type": "bytes32"
        }
      ],
      "stateMutability": "view",
      "type": "function"
    },
    {
      "inputs": [],
      "name": "VaporDiv",
      "outputs": [
        {
          "internalType": "address payable",
          "name": "",
          "type": "address"
        }
      ],
      "stateMutability": "view",
      "type": "function"
    },
    {
      "inputs": [],
      "name": "accessControls",
      "outputs": [
        {
          "internalType": "contract VaporAccessControls",
          "name": "",
          "type": "address"
        }
      ],
      "stateMutability": "view",
      "type": "function"
    },
    {
      "inputs": [
        {
          "internalType": "address",
          "name": "_template",
          "type": "address"
        }
      ],
      "name": "addAuctionTemplate",
      "outputs": [],
      "stateMutability": "nonpayable",
      "type": "function"
    },
    {
      "inputs": [
        {
          "internalType": "address",
          "name": "",
          "type": "address"
        }
      ],
      "name": "auctionInfo",
      "outputs": [
        {
          "internalType": "bool",
          "name": "exists",
          "type": "bool"
        },
        {
          "internalType": "uint64",
          "name": "templateId",
          "type": "uint64"
        },
        {
          "internalType": "uint128",
          "name": "index",
          "type": "uint128"
        }
      ],
      "stateMutability": "view",
      "type": "function"
    },
    {
      "inputs": [],
      "name": "auctionTemplateId",
      "outputs": [
        {
          "internalType": "uint256",
          "name": "",
          "type": "uint256"
        }
      ],
      "stateMutability": "view",
      "type": "function"
    },
    {
      "inputs": [
        {
          "internalType": "uint256",
          "name": "",
          "type": "uint256"
        }
      ],
      "name": "auctions",
      "outputs": [
        {
          "internalType": "address",
          "name": "",
          "type": "address"
        }
      ],
      "stateMutability": "view",
      "type": "function"
    },
    {
      "inputs": [
        {
          "internalType": "uint256",
          "name": "_templateId",
          "type": "uint256"
        },
        {
          "internalType": "address",
          "name": "_token",
          "type": "address"
        },
        {
          "internalType": "uint256",
          "name": "_tokenSupply",
          "type": "uint256"
        },
        {
          "internalType": "address payable",
          "name": "_integratorFeeAccount",
          "type": "address"
        },
        {
          "internalType": "bytes",
          "name": "_data",
          "type": "bytes"
        }
      ],
      "name": "createMarket",
      "outputs": [
        {
          "internalType": "address",
          "name": "newMarket",
          "type": "address"
        }
      ],
      "stateMutability": "payable",
      "type": "function"
    },
    {
      "inputs": [
        {
          "internalType": "uint256",
          "name": "",
          "type": "uint256"
        }
      ],
      "name": "currentTemplateId",
      "outputs": [
        {
          "internalType": "uint256",
          "name": "",
          "type": "uint256"
        }
      ],
      "stateMutability": "view",
      "type": "function"
    },
    {
      "inputs": [
        {
          "internalType": "uint256",
          "name": "_templateId",
          "type": "uint256"
        },
        {
          "internalType": "address payable",
          "name": "_integratorFeeAccount",
          "type": "address"
        }
      ],
      "name": "deployMarket",
      "outputs": [
        {
          "internalType": "address",
          "name": "newMarket",
          "type": "address"
        }
      ],
      "stateMutability": "payable",
      "type": "function"
    },
    {
      "inputs": [
        {
          "internalType": "uint256",
          "name": "_templateId",
          "type": "uint256"
        }
      ],
      "name": "getAuctionTemplate",
      "outputs": [
        {
          "internalType": "address",
          "name": "",
          "type": "address"
        }
      ],
      "stateMutability": "view",
      "type": "function"
    },
    {
      "inputs": [
        {
          "internalType": "address",
          "name": "_auction",
          "type": "address"
        }
      ],
      "name": "getMarketTemplateId",
      "outputs": [
        {
          "internalType": "uint64",
          "name": "",
          "type": "uint64"
        }
      ],
      "stateMutability": "view",
      "type": "function"
    },
    {
      "inputs": [],
      "name": "getMarkets",
      "outputs": [
        {
          "internalType": "address[]",
          "name": "",
          "type": "address[]"
        }
      ],
      "stateMutability": "view",
      "type": "function"
    },
    {
      "inputs": [
        {
          "internalType": "address",
          "name": "_auctionTemplate",
          "type": "address"
        }
      ],
      "name": "getTemplateId",
      "outputs": [
        {
          "internalType": "uint256",
          "name": "",
          "type": "uint256"
        }
      ],
      "stateMutability": "view",
      "type": "function"
    },
    {
      "inputs": [
        {
          "internalType": "address",
          "name": "_address",
          "type": "address"
        }
      ],
      "name": "hasMarketMinterRole",
      "outputs": [
        {
          "internalType": "bool",
          "name": "",
          "type": "bool"
        }
      ],
      "stateMutability": "view",
      "type": "function"
    },
    {
      "inputs": [
        {
          "internalType": "address",
          "name": "_accessControls",
          "type": "address"
        },
        {
          "internalType": "address[]",
          "name": "_templates",
          "type": "address[]"
        }
      ],
      "name": "initVaporMarket",
      "outputs": [],
      "stateMutability": "nonpayable",
      "type": "function"
    },
    {
      "inputs": [],
      "name": "locked",
      "outputs": [
        {
          "internalType": "bool",
          "name": "",
          "type": "bool"
        }
      ],
      "stateMutability": "view",
      "type": "function"
    },
    {
      "inputs": [],
      "name": "marketFees",
      "outputs": [
        {
          "internalType": "uint128",
          "name": "minimumFee",
          "type": "uint128"
        },
        {
          "internalType": "uint32",
          "name": "integratorFeePct",
          "type": "uint32"
        }
      ],
      "stateMutability": "view",
      "type": "function"
    },
    {
      "inputs": [],
      "name": "minimumFee",
      "outputs": [
        {
          "internalType": "uint128",
          "name": "",
          "type": "uint128"
        }
      ],
      "stateMutability": "view",
      "type": "function"
    },
    {
      "inputs": [],
      "name": "numberOfAuctions",
      "outputs": [
        {
          "internalType": "uint256",
          "name": "",
          "type": "uint256"
        }
      ],
      "stateMutability": "view",
      "type": "function"
    },
    {
      "inputs": [
        {
          "internalType": "uint256",
          "name": "_templateId",
          "type": "uint256"
        }
      ],
      "name": "removeAuctionTemplate",
      "outputs": [],
      "stateMutability": "nonpayable",
      "type": "function"
    },
    {
      "inputs": [
        {
          "internalType": "uint256",
          "name": "_templateType",
          "type": "uint256"
        },
        {
          "internalType": "uint256",
          "name": "_templateId",
          "type": "uint256"
        }
      ],
      "name": "setCurrentTemplateId",
      "outputs": [],
      "stateMutability": "nonpayable",
      "type": "function"
    },
    {
      "inputs": [
        {
          "internalType": "address payable",
          "name": "_divaddr",
          "type": "address"
        }
      ],
      "name": "setDividends",
      "outputs": [],
      "stateMutability": "nonpayable",
      "type": "function"
    },
    {
      "inputs": [
        {
          "internalType": "uint256",
          "name": "_amount",
          "type": "uint256"
        }
      ],
      "name": "setIntegratorFeePct",
      "outputs": [],
      "stateMutability": "nonpayable",
      "type": "function"
    },
    {
      "inputs": [
        {
          "internalType": "bool",
          "name": "_locked",
          "type": "bool"
        }
      ],
      "name": "setLocked",
      "outputs": [],
      "stateMutability": "nonpayable",
      "type": "function"
    },
    {
      "inputs": [
        {
          "internalType": "uint256",
          "name": "_amount",
          "type": "uint256"
        }
      ],
      "name": "setMinimumFee",
      "outputs": [],
      "stateMutability": "nonpayable",
      "type": "function"
    }
  ],
  "bytecode": "0x608060405234801561001057600080fd5b5061241c806100206000396000f3fe6080604052600436106101a15760003560e01c8063748365ef116100e1578063aa1bd2f61161008a578063cf30901211610064578063cf3090121461058b578063d335ebda146105a5578063e1f6b034146105db578063ec2c90161461060057600080fd5b8063aa1bd2f6146104fa578063b03434931461050d578063b9551d141461056b57600080fd5b80639e9188ea116100bb5780639e9188ea146104675780639edbd90a14610487578063a5fd7565146104da57600080fd5b8063748365ef146104075780638940d530146104275780639e5940cc1461044757600080fd5b8063390467b61161014e5780634f5f2a45116101285780634f5f2a451461038857806350d9d472146103bc578063571a26a0146103d15780636c2eefe1146103f157600080fd5b8063390467b6146103025780633f1f44b0146103325780634b939ed71461035257600080fd5b8063211e28b61161017f578063211e28b61461027c57806328e58e4f1461029c5780632ed4f578146102c757600080fd5b80630448e51a146101a6578063182a7506146102325780631a7626e714610254575b600080fd5b3480156101b257600080fd5b506101fe6101c1366004611fbe565b60066020526000908152604090205460ff811690610100810467ffffffffffffffff1690690100000000000000000090046001600160801b031683565b60408051931515845267ffffffffffffffff90921660208401526001600160801b0316908201526060015b60405180910390f35b34801561023e57600080fd5b5061025261024d3660046120f5565b610622565b005b34801561026057600080fd5b506007546040516001600160801b039091168152602001610229565b34801561028857600080fd5b506102526102973660046120bd565b61073e565b6102af6102aa366004612125565b610822565b6040516001600160a01b039091168152602001610229565b3480156102d357600080fd5b506102f46102e23660046120f5565b60056020526000908152604090205481565b604051908152602001610229565b34801561030e57600080fd5b5061032261031d366004611fbe565b610da4565b6040519015158152602001610229565b34801561033e57600080fd5b5061025261034d3660046120f5565b610e67565b34801561035e57600080fd5b506102af61036d3660046120f5565b6000908152600360205260409020546001600160a01b031690565b34801561039457600080fd5b506102f47f185f85149db0f205130703941d0f9ccd8133e50df5d5080231c7704337aa2c3881565b3480156103c857600080fd5b506001546102f4565b3480156103dd57600080fd5b506102af6103ec3660046120f5565b610ffb565b3480156103fd57600080fd5b506102f460025481565b34801561041357600080fd5b506000546102af906001600160a01b031681565b34801561043357600080fd5b50610252610442366004611fe1565b611025565b34801561045357600080fd5b506102526104623660046121f9565b6111b0565b34801561047357600080fd5b50610252610482366004611fbe565b611293565b34801561049357600080fd5b506007546104b6906001600160801b03811690600160801b900463ffffffff1682565b604080516001600160801b03909316835263ffffffff909116602083015201610229565b3480156104e657600080fd5b506102526104f5366004611fbe565b6113d2565b6102af610508366004612154565b611532565b34801561051957600080fd5b50610552610528366004611fbe565b6001600160a01b0316600090815260066020526040902054610100900467ffffffffffffffff1690565b60405167ffffffffffffffff9091168152602001610229565b34801561057757600080fd5b506102526105863660046120f5565b61176c565b34801561059757600080fd5b506008546103229060ff1681565b3480156105b157600080fd5b506102f46105c0366004611fbe565b6001600160a01b031660009081526004602052604090205490565b3480156105e757600080fd5b506008546102af9061010090046001600160a01b031681565b34801561060c57600080fd5b50610615611938565b6040516102299190612236565b60005460405163c395fcb360e01b81523360048201526001600160a01b039091169063c395fcb39060240160206040518083038186803b15801561066557600080fd5b505afa158015610679573d6000803e3d6000fd5b505050506040513d601f19601f8201168201806040525081019061069d91906120d9565b6106fa5760405162461bcd60e51b8152602060048201526024808201527f5661706f724d61726b65743a2053656e646572206d757374206265206f70657260448201526330ba37b960e11b60648201526084015b60405180910390fd5b6107038161199a565b600780547fffffffffffffffffffffffffffffffff00000000000000000000000000000000166001600160801b039290921691909117905550565b60005460405163c395fcb360e01b81523360048201526001600160a01b039091169063c395fcb39060240160206040518083038186803b15801561078157600080fd5b505afa158015610795573d6000803e3d6000fd5b505050506040513d601f19601f820116820180604052508101906107b991906120d9565b61080f5760405162461bcd60e51b815260206004820152602160248201527f5661706f724d61726b65743a2053656e646572206d7573742062652061646d696044820152603760f91b60648201526084016106f1565b6008805460ff1916911515919091179055565b60085460009060ff16156109c65760005460405163c395fcb360e01b81523360048201526001600160a01b039091169063c395fcb39060240160206040518083038186803b15801561087357600080fd5b505afa158015610887573d6000803e3d6000fd5b505050506040513d601f19601f820116820180604052508101906108ab91906120d9565b8061094557506000546040517f099db0170000000000000000000000000000000000000000000000000000000081523360048201526001600160a01b039091169063099db0179060240160206040518083038186803b15801561090d57600080fd5b505afa158015610921573d6000803e3d6000fd5b505050506040513d601f19601f8201168201806040525081019061094591906120d9565b80610954575061095433610da4565b6109c65760405162461bcd60e51b815260206004820152602c60248201527f5661706f724d61726b65743a2053656e646572206d757374206265206d696e7460448201527f6572206966206c6f636b6564000000000000000000000000000000000000000060648201526084016106f1565b6040805180820182526007546001600160801b038082168352600160801b90910463ffffffff16602080840191909152600087815260039091529290922054815191926001600160a01b039091169116341015610a8b5760405162461bcd60e51b815260206004820152602a60248201527f5661706f724d61726b65743a204661696c656420746f207472616e736665722060448201527f6d696e696d756d4665650000000000000000000000000000000000000000000060648201526084016106f1565b6001600160a01b038116610b075760405162461bcd60e51b815260206004820152602b60248201527f5661706f724d61726b65743a2041756374696f6e2074656d706c61746520646f60448201527f65736e277420657869737400000000000000000000000000000000000000000060648201526084016106f1565b6000346001600160a01b03861615801590610b3557506008546001600160a01b038781166101009092041614155b15610b6c576103e8846020015163ffffffff1682610b539190612316565b610b5d91906122f6565b9150610b698282612335565b90505b610b75836119f7565b9450610bb66040518060400160405280601181526020017f61756374696f6e20616464726573733a2000000000000000000000000000000081525086611a60565b6040518060600160405280600115158152602001610bd389611ac2565b67ffffffffffffffff168152602001610bf060018054905061199a565b6001600160801b039081169091526001600160a01b0387811660008181526006602090815260408083208751815489850151998401519098166901000000000000000000027fffffffffffffff00000000000000000000000000000000ffffffffffffffffff67ffffffffffffffff909a166101000268ffffffffffffffff00199215159290921668ffffffffffffffffff199099169890981717979097169590951790955560018054808201825591527fb10e2d527612073b26eecdfd717e6a320cf44b4afac2b0732d9fcbe2b7fa0cf601805473ffffffffffffffffffffffffffffffffffffffff19168217905591519086168152909133917fe63e6130091e2155004c4b5ac35e8fb9be704d6637ff3068a8f710ba36c9f41a910160405180910390a38015610d5c576008546040516101009091046001600160a01b0316906108fc8315029083906000818181858888f19350505050158015610d5a573d6000803e3d6000fd5b505b8115610d9a576040516001600160a01b0387169083156108fc029084906000818181858888f19350505050158015610d98573d6000803e3d6000fd5b505b5050505092915050565b600080546040517f91d148540000000000000000000000000000000000000000000000000000000081527f185f85149db0f205130703941d0f9ccd8133e50df5d5080231c7704337aa2c3860048201526001600160a01b038481166024830152909116906391d148549060440160206040518083038186803b158015610e2957600080fd5b505afa158015610e3d573d6000803e3d6000fd5b505050506040513d601f19601f82011682018060405250810190610e6191906120d9565b92915050565b60005460405163c395fcb360e01b81523360048201526001600160a01b039091169063c395fcb39060240160206040518083038186803b158015610eaa57600080fd5b505afa158015610ebe573d6000803e3d6000fd5b505050506040513d601f19601f82011682018060405250810190610ee291906120d9565b610f3a5760405162461bcd60e51b8152602060048201526024808201527f5661706f724d61726b65743a2053656e646572206d757374206265206f70657260448201526330ba37b960e11b60648201526084016106f1565b6103e8811115610fb25760405162461bcd60e51b815260206004820152602660248201527f5661706f724d61726b65743a2050657263656e74616765206973206f7574206f60448201527f662031303030000000000000000000000000000000000000000000000000000060648201526084016106f1565b610fbb81611b1c565b6007805463ffffffff92909216600160801b027fffffffffffffffffffffffff00000000ffffffffffffffffffffffffffffffff90921691909117905550565b6001818154811061100b57600080fd5b6000918252602090912001546001600160a01b0316905081565b600054600160a01b900460ff161561103c57600080fd5b6001600160a01b0382166110b85760405162461bcd60e51b815260206004820152603560248201527f696e69745661706f724d61726b65743a20616363657373436f6e74726f6c732060448201527f63616e6e6f742062652073657420746f207a65726f000000000000000000000060648201526084016106f1565b6000805473ffffffffffffffffffffffffffffffffffffffff19166001600160a01b03841617815560028190555b81518110156111315761111f82828151811061111257634e487b7160e01b600052603260045260246000fd5b6020026020010151611b72565b806111298161237c565b9150506110e6565b5061113d600254611e18565b6008805460ff19166001179055600080547fffffffffffffffffffffff00ffffffffffffffffffffffffffffffffffffffff16600160a01b1790556040513381527f1f1fd7338f5664499da52fa665987c7184faca56fcfbeb57a102083feae23eb9906020015b60405180910390a15050565b60005460405163c395fcb360e01b81523360048201526001600160a01b039091169063c395fcb39060240160206040518083038186803b1580156111f357600080fd5b505afa158015611207573d6000803e3d6000fd5b505050506040513d601f19601f8201168201806040525081019061122b91906120d9565b6112815760405162461bcd60e51b815260206004820152602160248201527f5661706f724d61726b65743a2053656e646572206d7573742062652061646d696044820152603760f91b60648201526084016106f1565b60009182526005602052604090912055565b60005460405163c395fcb360e01b81523360048201526001600160a01b039091169063c395fcb39060240160206040518083038186803b1580156112d657600080fd5b505afa1580156112ea573d6000803e3d6000fd5b505050506040513d601f19601f8201168201806040525081019061130e91906120d9565b6113805760405162461bcd60e51b815260206004820152602b60248201527f5661706f724d61726b65742e7365744465763a2053656e646572206d7573742060448201527f6265206f70657261746f7200000000000000000000000000000000000000000060648201526084016106f1565b6001600160a01b03811661139357600080fd5b600880546001600160a01b03909216610100027fffffffffffffffffffffff0000000000000000000000000000000000000000ff909216919091179055565b60005460405163c395fcb360e01b81523360048201526001600160a01b039091169063c395fcb39060240160206040518083038186803b15801561141557600080fd5b505afa158015611429573d6000803e3d6000fd5b505050506040513d601f19601f8201168201806040525081019061144d91906120d9565b806114ce5750600054604051637e271f0560e11b81523360048201526001600160a01b039091169063fc4e3e0a9060240160206040518083038186803b15801561149657600080fd5b505afa1580156114aa573d6000803e3d6000fd5b505050506040513d601f19601f820116820180604052508101906114ce91906120d9565b6115265760405162461bcd60e51b8152602060048201526024808201527f5661706f724d61726b65743a2053656e646572206d757374206265206f70657260448201526330ba37b960e11b60648201526084016106f1565b61152f81611b72565b50565b600061153e8785610822565b9050841561163857611551863387611e76565b6040517f095ea7b30000000000000000000000000000000000000000000000000000000081526001600160a01b0382811660048301526024820187905287169063095ea7b390604401602060405180830381600087803b1580156115b457600080fd5b505af11580156115c8573d6000803e3d6000fd5b505050506040513d601f19601f820116820180604052508101906115ec91906120d9565b6116385760405162461bcd60e51b815260206004820152600160248201527f310000000000000000000000000000000000000000000000000000000000000060448201526064016106f1565b6040517f81353c8e0000000000000000000000000000000000000000000000000000000081526001600160a01b038216906381353c8e9061167f9086908690600401612283565b600060405180830381600087803b15801561169957600080fd5b505af11580156116ad573d6000803e3d6000fd5b505050506000851115611762576040517f70a082310000000000000000000000000000000000000000000000000000000081523060048201526000906001600160a01b038816906370a082319060240160206040518083038186803b15801561171557600080fd5b505afa158015611729573d6000803e3d6000fd5b505050506040513d601f19601f8201168201806040525081019061174d919061210d565b9050801561176057611760873383611f5d565b505b9695505050505050565b60005460405163c395fcb360e01b81523360048201526001600160a01b039091169063c395fcb39060240160206040518083038186803b1580156117af57600080fd5b505afa1580156117c3573d6000803e3d6000fd5b505050506040513d601f19601f820116820180604052508101906117e791906120d9565b806118685750600054604051637e271f0560e11b81523360048201526001600160a01b039091169063fc4e3e0a9060240160206040518083038186803b15801561183057600080fd5b505afa158015611844573d6000803e3d6000fd5b505050506040513d601f19601f8201168201806040525081019061186891906120d9565b6118c05760405162461bcd60e51b8152602060048201526024808201527f5661706f724d61726b65743a2053656e646572206d757374206265206f70657260448201526330ba37b960e11b60648201526084016106f1565b6000818152600360209081526040808320805473ffffffffffffffffffffffffffffffffffffffff1981169091556001600160a01b0316808452600483528184209390935580518381529182018490527f9e451d330e5bb7320c38b55046b66305a869486110a27e84e383b9b2a329875b91016111a4565b6060600180548060200260200160405190810160405280929190818152602001828054801561199057602002820191906000526020600020905b81546001600160a01b03168152600190910190602001808311611972575b5050505050905090565b60006001600160801b038211156119f35760405162461bcd60e51b815260206004820152601c60248201527f426f72696e674d6174683a2075696e74313238204f766572666c6f770000000060448201526064016106f1565b5090565b6000808260601b90506040517f3d602d80600a3d3981f3363d3d373d3d3d363d7300000000000000000000000081528160148201527f5af43d82803e903d91602b57fd5bf3000000000000000000000000000000000060288201526037816000f0949350505050565b611abe8282604051602401611a769291906122b2565b60408051601f198184030181529190526020810180516001600160e01b03167f319af33300000000000000000000000000000000000000000000000000000000179052611f8d565b5050565b600067ffffffffffffffff8211156119f35760405162461bcd60e51b815260206004820152601b60248201527f426f72696e674d6174683a2075696e743634204f766572666c6f77000000000060448201526064016106f1565b600063ffffffff8211156119f35760405162461bcd60e51b815260206004820152601b60248201527f426f72696e674d6174683a2075696e743332204f766572666c6f77000000000060448201526064016106f1565b6001600160a01b03811660009081526004602052604090205415611bfd5760405162461bcd60e51b8152602060048201526024808201527f5661706f724d61726b65743a2054656d706c61746520616c726561647920657860448201527f697374730000000000000000000000000000000000000000000000000000000060648201526084016106f1565b6001600160a01b03811660009081526004602052604090205415611c895760405162461bcd60e51b815260206004820152602360248201527f5661706f724d61726b65743a2054656d706c61746520616c726561647920616460448201527f646564000000000000000000000000000000000000000000000000000000000060648201526084016106f1565b6000816001600160a01b0316631b3e460e6040518163ffffffff1660e01b815260040160206040518083038186803b158015611cc457600080fd5b505afa158015611cd8573d6000803e3d6000fd5b505050506040513d601f19601f82011682018060405250810190611cfc919061210d565b905060008111611d745760405162461bcd60e51b815260206004820152602560248201527f5661706f724d61726b65743a20496e636f72726563742074656d706c6174652060448201527f636f64652000000000000000000000000000000000000000000000000000000060648201526084016106f1565b60028054906000611d848361237c565b9091555050600280546000908152600360209081526040808320805473ffffffffffffffffffffffffffffffffffffffff19166001600160a01b03881690811790915593548484526004835281842081905585845260058352928190208390558051938452908301919091527f893e8595c407d2a22d29ff3ba939d15ec3966113ce988bd39c68e4b00350400791016111a4565b61152f81604051602401611e2e91815260200190565b60408051601f198184030181529190526020810180516001600160e01b03167ff5b1bba900000000000000000000000000000000000000000000000000000000179052611f8d565b6040516001600160a01b0383811660248301523060448301526064820183905260009182918616906323b872dd906084015b6040516020818303038152906040529060e01b6020820180516001600160e01b038381831617835250505050604051611ee1919061221a565b6000604051808303816000865af19150503d8060008114611f1e576040519150601f19603f3d011682016040523d82523d6000602084013e611f23565b606091505b5091509150818015611f4d575080511580611f4d575080806020019051810190611f4d91906120d9565b611f5657600080fd5b5050505050565b6040516001600160a01b03838116602483015260448201839052600091829186169063a9059cbb90606401611ea8565b80516a636f6e736f6c652e6c6f67602083016000808483855afa5050505050565b8035611fb9816123c3565b919050565b600060208284031215611fcf578081fd5b8135611fda816123c3565b9392505050565b60008060408385031215611ff3578081fd5b8235611ffe816123c3565b915060208381013567ffffffffffffffff8082111561201b578384fd5b818601915086601f83011261202e578384fd5b813581811115612040576120406123ad565b8060051b604051601f19603f83011681018181108582111715612065576120656123ad565b604052828152858101935084860182860187018b1015612083578788fd5b8795505b838610156120ac5761209881611fae565b855260019590950194938601938601612087565b508096505050505050509250929050565b6000602082840312156120ce578081fd5b8135611fda816123d8565b6000602082840312156120ea578081fd5b8151611fda816123d8565b600060208284031215612106578081fd5b5035919050565b60006020828403121561211e578081fd5b5051919050565b60008060408385031215612137578182fd5b823591506020830135612149816123c3565b809150509250929050565b60008060008060008060a0878903121561216c578182fd5b86359550602087013561217e816123c3565b9450604087013593506060870135612195816123c3565b9250608087013567ffffffffffffffff808211156121b1578384fd5b818901915089601f8301126121c4578384fd5b8135818111156121d2578485fd5b8a60208285010111156121e3578485fd5b6020830194508093505050509295509295509295565b6000806040838503121561220b578182fd5b50508035926020909101359150565b6000825161222c81846020870161234c565b9190910192915050565b6020808252825182820181905260009190848201906040850190845b818110156122775783516001600160a01b031683529284019291840191600101612252565b50909695505050505050565b60208152816020820152818360408301376000818301604090810191909152601f909201601f19160101919050565b60408152600083518060408401526122d181606085016020880161234c565b6001600160a01b0393909316602083015250601f91909101601f191601606001919050565b60008261231157634e487b7160e01b81526012600452602481fd5b500490565b600081600019048311821515161561233057612330612397565b500290565b60008282101561234757612347612397565b500390565b60005b8381101561236757818101518382015260200161234f565b83811115612376576000848401525b50505050565b600060001982141561239057612390612397565b5060010190565b634e487b7160e01b600052601160045260246000fd5b634e487b7160e01b600052604160045260246000fd5b6001600160a01b038116811461152f57600080fd5b801515811461152f57600080fdfea264697066735822122032af91e7a93478296730fdd24c822e12b233c158892ae19fa231ef50eeef378764736f6c63430008040033",
  "linkReferences": {},
  "deployedLinkReferences": {}
}