{
  "_format": "hh-sol-artifact-1",
  "contractName": "DutchAuction",
  "sourceName": "contracts/Auctions/DutchAuction.sol",
  "abi": [
    {
      "anonymous": false,
      "inputs": [
        {
          "indexed": false,
          "internalType": "address",
          "name": "addr",
          "type": "address"
        },
        {
          "indexed": false,
          "internalType": "uint256",
          "name": "commitment",
          "type": "uint256"
        }
      ],
      "name": "AddedCommitment",
      "type": "event"
    },
    {
      "anonymous": false,
      "inputs": [
        {
          "indexed": true,
          "internalType": "address",
          "name": "beneficiary",
          "type": "address"
        },
        {
          "indexed": true,
          "internalType": "address",
          "name": "caller",
          "type": "address"
        }
      ],
      "name": "AdminRoleGranted",
      "type": "event"
    },
    {
      "anonymous": false,
      "inputs": [
        {
          "indexed": true,
          "internalType": "address",
          "name": "beneficiary",
          "type": "address"
        },
        {
          "indexed": true,
          "internalType": "address",
          "name": "caller",
          "type": "address"
        }
      ],
      "name": "AdminRoleRemoved",
      "type": "event"
    },
    {
      "anonymous": false,
      "inputs": [],
      "name": "AuctionCancelled",
      "type": "event"
    },
    {
      "anonymous": false,
      "inputs": [],
      "name": "AuctionFinalized",
      "type": "event"
    },
    {
      "anonymous": false,
      "inputs": [
        {
          "indexed": false,
          "internalType": "uint256",
          "name": "startPrice",
          "type": "uint256"
        },
        {
          "indexed": false,
          "internalType": "uint256",
          "name": "minimumPrice",
          "type": "uint256"
        }
      ],
      "name": "AuctionPriceUpdated",
      "type": "event"
    },
    {
      "anonymous": false,
      "inputs": [
        {
          "indexed": false,
          "internalType": "uint256",
          "name": "startTime",
          "type": "uint256"
        },
        {
          "indexed": false,
          "internalType": "uint256",
          "name": "endTime",
          "type": "uint256"
        }
      ],
      "name": "AuctionTimeUpdated",
      "type": "event"
    },
    {
      "anonymous": false,
      "inputs": [
        {
          "indexed": false,
          "internalType": "address",
          "name": "wallet",
          "type": "address"
        }
      ],
      "name": "AuctionWalletUpdated",
      "type": "event"
    },
    {
      "anonymous": false,
      "inputs": [
        {
          "indexed": true,
          "internalType": "string",
          "name": "_name",
          "type": "string"
        },
        {
          "indexed": false,
          "internalType": "string",
          "name": "_data",
          "type": "string"
        }
      ],
      "name": "DocumentRemoved",
      "type": "event"
    },
    {
      "anonymous": false,
      "inputs": [
        {
          "indexed": true,
          "internalType": "string",
          "name": "_name",
          "type": "string"
        },
        {
          "indexed": false,
          "internalType": "string",
          "name": "_data",
          "type": "string"
        }
      ],
      "name": "DocumentUpdated",
      "type": "event"
    },
    {
      "anonymous": false,
      "inputs": [
        {
          "indexed": true,
          "internalType": "address",
          "name": "beneficiary",
          "type": "address"
        },
        {
          "indexed": true,
          "internalType": "address",
          "name": "caller",
          "type": "address"
        }
      ],
      "name": "MinterRoleGranted",
      "type": "event"
    },
    {
      "anonymous": false,
      "inputs": [
        {
          "indexed": true,
          "internalType": "address",
          "name": "beneficiary",
          "type": "address"
        },
        {
          "indexed": true,
          "internalType": "address",
          "name": "caller",
          "type": "address"
        }
      ],
      "name": "MinterRoleRemoved",
      "type": "event"
    },
    {
      "anonymous": false,
      "inputs": [
        {
          "indexed": true,
          "internalType": "address",
          "name": "beneficiary",
          "type": "address"
        },
        {
          "indexed": true,
          "internalType": "address",
          "name": "caller",
          "type": "address"
        }
      ],
      "name": "OperatorRoleGranted",
      "type": "event"
    },
    {
      "anonymous": false,
      "inputs": [
        {
          "indexed": true,
          "internalType": "address",
          "name": "beneficiary",
          "type": "address"
        },
        {
          "indexed": true,
          "internalType": "address",
          "name": "caller",
          "type": "address"
        }
      ],
      "name": "OperatorRoleRemoved",
      "type": "event"
    },
    {
      "anonymous": false,
      "inputs": [
        {
          "indexed": true,
          "internalType": "bytes32",
          "name": "role",
          "type": "bytes32"
        },
        {
          "indexed": true,
          "internalType": "bytes32",
          "name": "previousAdminRole",
          "type": "bytes32"
        },
        {
          "indexed": true,
          "internalType": "bytes32",
          "name": "newAdminRole",
          "type": "bytes32"
        }
      ],
      "name": "RoleAdminChanged",
      "type": "event"
    },
    {
      "anonymous": false,
      "inputs": [
        {
          "indexed": true,
          "internalType": "bytes32",
          "name": "role",
          "type": "bytes32"
        },
        {
          "indexed": true,
          "internalType": "address",
          "name": "account",
          "type": "address"
        },
        {
          "indexed": true,
          "internalType": "address",
          "name": "sender",
          "type": "address"
        }
      ],
      "name": "RoleGranted",
      "type": "event"
    },
    {
      "anonymous": false,
      "inputs": [
        {
          "indexed": true,
          "internalType": "bytes32",
          "name": "role",
          "type": "bytes32"
        },
        {
          "indexed": true,
          "internalType": "address",
          "name": "account",
          "type": "address"
        },
        {
          "indexed": true,
          "internalType": "address",
          "name": "sender",
          "type": "address"
        }
      ],
      "name": "RoleRevoked",
      "type": "event"
    },
    {
      "anonymous": false,
      "inputs": [
        {
          "indexed": true,
          "internalType": "address",
          "name": "beneficiary",
          "type": "address"
        },
        {
          "indexed": true,
          "internalType": "address",
          "name": "caller",
          "type": "address"
        }
      ],
      "name": "SmartContractRoleGranted",
      "type": "event"
    },
    {
      "anonymous": false,
      "inputs": [
        {
          "indexed": true,
          "internalType": "address",
          "name": "beneficiary",
          "type": "address"
        },
        {
          "indexed": true,
          "internalType": "address",
          "name": "caller",
          "type": "address"
        }
      ],
      "name": "SmartContractRoleRemoved",
      "type": "event"
    },
    {
      "inputs": [],
      "name": "DEFAULT_ADMIN_ROLE",
      "outputs": [
        {
          "internalType": "bytes32",
          "name": "",
          "type": "bytes32"
        }
      ],
      "stateMutability": "view",
      "type": "function"
    },
    {
      "inputs": [],
      "name": "MINTER_ROLE",
      "outputs": [
        {
          "internalType": "bytes32",
          "name": "",
          "type": "bytes32"
        }
      ],
      "stateMutability": "view",
      "type": "function"
    },
    {
      "inputs": [],
      "name": "OPERATOR_ROLE",
      "outputs": [
        {
          "internalType": "bytes32",
          "name": "",
          "type": "bytes32"
        }
      ],
      "stateMutability": "view",
      "type": "function"
    },
    {
      "inputs": [],
      "name": "SMART_CONTRACT_ROLE",
      "outputs": [
        {
          "internalType": "bytes32",
          "name": "",
          "type": "bytes32"
        }
      ],
      "stateMutability": "view",
      "type": "function"
    },
    {
      "inputs": [
        {
          "internalType": "address",
          "name": "_address",
          "type": "address"
        }
      ],
      "name": "addAdminRole",
      "outputs": [],
      "stateMutability": "nonpayable",
      "type": "function"
    },
    {
      "inputs": [
        {
          "internalType": "address",
          "name": "_address",
          "type": "address"
        }
      ],
      "name": "addMinterRole",
      "outputs": [],
      "stateMutability": "nonpayable",
      "type": "function"
    },
    {
      "inputs": [
        {
          "internalType": "address",
          "name": "_address",
          "type": "address"
        }
      ],
      "name": "addOperatorRole",
      "outputs": [],
      "stateMutability": "nonpayable",
      "type": "function"
    },
    {
      "inputs": [
        {
          "internalType": "address",
          "name": "_address",
          "type": "address"
        }
      ],
      "name": "addSmartContractRole",
      "outputs": [],
      "stateMutability": "nonpayable",
      "type": "function"
    },
    {
      "inputs": [],
      "name": "auctionEnded",
      "outputs": [
        {
          "internalType": "bool",
          "name": "",
          "type": "bool"
        }
      ],
      "stateMutability": "view",
      "type": "function"
    },
    {
      "inputs": [],
      "name": "auctionSuccessful",
      "outputs": [
        {
          "internalType": "bool",
          "name": "",
          "type": "bool"
        }
      ],
      "stateMutability": "view",
      "type": "function"
    },
    {
      "inputs": [],
      "name": "auctionToken",
      "outputs": [
        {
          "internalType": "address",
          "name": "",
          "type": "address"
        }
      ],
      "stateMutability": "view",
      "type": "function"
    },
    {
      "inputs": [
        {
          "internalType": "uint256",
          "name": "_commitment",
          "type": "uint256"
        }
      ],
      "name": "calculateCommitment",
      "outputs": [
        {
          "internalType": "uint256",
          "name": "committed",
          "type": "uint256"
        }
      ],
      "stateMutability": "view",
      "type": "function"
    },
    {
      "inputs": [],
      "name": "cancelAuction",
      "outputs": [],
      "stateMutability": "nonpayable",
      "type": "function"
    },
    {
      "inputs": [
        {
          "internalType": "address",
          "name": "",
          "type": "address"
        }
      ],
      "name": "claimed",
      "outputs": [
        {
          "internalType": "uint256",
          "name": "",
          "type": "uint256"
        }
      ],
      "stateMutability": "view",
      "type": "function"
    },
    {
      "inputs": [],
      "name": "clearingPrice",
      "outputs": [
        {
          "internalType": "uint256",
          "name": "",
          "type": "uint256"
        }
      ],
      "stateMutability": "view",
      "type": "function"
    },
    {
      "inputs": [
        {
          "internalType": "address payable",
          "name": "_beneficiary",
          "type": "address"
        },
        {
          "internalType": "bool",
          "name": "readAndAgreedToMarketParticipationAgreement",
          "type": "bool"
        }
      ],
      "name": "commitEth",
      "outputs": [],
      "stateMutability": "payable",
      "type": "function"
    },
    {
      "inputs": [
        {
          "internalType": "uint256",
          "name": "_amount",
          "type": "uint256"
        },
        {
          "internalType": "bool",
          "name": "readAndAgreedToMarketParticipationAgreement",
          "type": "bool"
        }
      ],
      "name": "commitTokens",
      "outputs": [],
      "stateMutability": "nonpayable",
      "type": "function"
    },
    {
      "inputs": [
        {
          "internalType": "address",
          "name": "_from",
          "type": "address"
        },
        {
          "internalType": "uint256",
          "name": "_amount",
          "type": "uint256"
        },
        {
          "internalType": "bool",
          "name": "readAndAgreedToMarketParticipationAgreement",
          "type": "bool"
        }
      ],
      "name": "commitTokensFrom",
      "outputs": [],
      "stateMutability": "nonpayable",
      "type": "function"
    },
    {
      "inputs": [
        {
          "internalType": "address",
          "name": "",
          "type": "address"
        }
      ],
      "name": "commitments",
      "outputs": [
        {
          "internalType": "uint256",
          "name": "",
          "type": "uint256"
        }
      ],
      "stateMutability": "view",
      "type": "function"
    },
    {
      "inputs": [
        {
          "internalType": "bool",
          "name": "_status",
          "type": "bool"
        }
      ],
      "name": "enableList",
      "outputs": [],
      "stateMutability": "nonpayable",
      "type": "function"
    },
    {
      "inputs": [],
      "name": "finalize",
      "outputs": [],
      "stateMutability": "nonpayable",
      "type": "function"
    },
    {
      "inputs": [],
      "name": "finalizeTimeExpired",
      "outputs": [
        {
          "internalType": "bool",
          "name": "",
          "type": "bool"
        }
      ],
      "stateMutability": "view",
      "type": "function"
    },
    {
      "inputs": [],
      "name": "finalized",
      "outputs": [
        {
          "internalType": "bool",
          "name": "",
          "type": "bool"
        }
      ],
      "stateMutability": "view",
      "type": "function"
    },
    {
      "inputs": [],
      "name": "getAllDocuments",
      "outputs": [
        {
          "internalType": "string[]",
          "name": "",
          "type": "string[]"
        }
      ],
      "stateMutability": "view",
      "type": "function"
    },
    {
      "inputs": [
        {
          "internalType": "address",
          "name": "_funder",
          "type": "address"
        },
        {
          "internalType": "address",
          "name": "_token",
          "type": "address"
        },
        {
          "internalType": "uint256",
          "name": "_totalTokens",
          "type": "uint256"
        },
        {
          "internalType": "uint256",
          "name": "_startTime",
          "type": "uint256"
        },
        {
          "internalType": "uint256",
          "name": "_endTime",
          "type": "uint256"
        },
        {
          "internalType": "address",
          "name": "_paymentCurrency",
          "type": "address"
        },
        {
          "internalType": "uint256",
          "name": "_startPrice",
          "type": "uint256"
        },
        {
          "internalType": "uint256",
          "name": "_minimumPrice",
          "type": "uint256"
        },
        {
          "internalType": "address",
          "name": "_admin",
          "type": "address"
        },
        {
          "internalType": "address",
          "name": "_pointList",
          "type": "address"
        },
        {
          "internalType": "address payable",
          "name": "_wallet",
          "type": "address"
        }
      ],
      "name": "getAuctionInitData",
      "outputs": [
        {
          "internalType": "bytes",
          "name": "_data",
          "type": "bytes"
        }
      ],
      "stateMutability": "pure",
      "type": "function"
    },
    {
      "inputs": [],
      "name": "getBaseInformation",
      "outputs": [
        {
          "internalType": "address",
          "name": "",
          "type": "address"
        },
        {
          "internalType": "uint64",
          "name": "",
          "type": "uint64"
        },
        {
          "internalType": "uint64",
          "name": "",
          "type": "uint64"
        },
        {
          "internalType": "bool",
          "name": "",
          "type": "bool"
        }
      ],
      "stateMutability": "view",
      "type": "function"
    },
    {
      "inputs": [
        {
          "internalType": "string",
          "name": "_name",
          "type": "string"
        }
      ],
      "name": "getDocument",
      "outputs": [
        {
          "internalType": "string",
          "name": "",
          "type": "string"
        },
        {
          "internalType": "uint256",
          "name": "",
          "type": "uint256"
        }
      ],
      "stateMutability": "view",
      "type": "function"
    },
    {
      "inputs": [],
      "name": "getDocumentCount",
      "outputs": [
        {
          "internalType": "uint256",
          "name": "",
          "type": "uint256"
        }
      ],
      "stateMutability": "view",
      "type": "function"
    },
    {
      "inputs": [
        {
          "internalType": "uint256",
          "name": "_index",
          "type": "uint256"
        }
      ],
      "name": "getDocumentName",
      "outputs": [
        {
          "internalType": "string",
          "name": "",
          "type": "string"
        }
      ],
      "stateMutability": "view",
      "type": "function"
    },
    {
      "inputs": [
        {
          "internalType": "bytes32",
          "name": "role",
          "type": "bytes32"
        }
      ],
      "name": "getRoleAdmin",
      "outputs": [
        {
          "internalType": "bytes32",
          "name": "",
          "type": "bytes32"
        }
      ],
      "stateMutability": "view",
      "type": "function"
    },
    {
      "inputs": [
        {
          "internalType": "bytes32",
          "name": "role",
          "type": "bytes32"
        },
        {
          "internalType": "uint256",
          "name": "index",
          "type": "uint256"
        }
      ],
      "name": "getRoleMember",
      "outputs": [
        {
          "internalType": "address",
          "name": "",
          "type": "address"
        }
      ],
      "stateMutability": "view",
      "type": "function"
    },
    {
      "inputs": [
        {
          "internalType": "bytes32",
          "name": "role",
          "type": "bytes32"
        }
      ],
      "name": "getRoleMemberCount",
      "outputs": [
        {
          "internalType": "uint256",
          "name": "",
          "type": "uint256"
        }
      ],
      "stateMutability": "view",
      "type": "function"
    },
    {
      "inputs": [],
      "name": "getTotalTokens",
      "outputs": [
        {
          "internalType": "uint256",
          "name": "",
          "type": "uint256"
        }
      ],
      "stateMutability": "view",
      "type": "function"
    },
    {
      "inputs": [
        {
          "internalType": "bytes32",
          "name": "role",
          "type": "bytes32"
        },
        {
          "internalType": "address",
          "name": "account",
          "type": "address"
        }
      ],
      "name": "grantRole",
      "outputs": [],
      "stateMutability": "nonpayable",
      "type": "function"
    },
    {
      "inputs": [
        {
          "internalType": "address",
          "name": "_address",
          "type": "address"
        }
      ],
      "name": "hasAdminRole",
      "outputs": [
        {
          "internalType": "bool",
          "name": "",
          "type": "bool"
        }
      ],
      "stateMutability": "view",
      "type": "function"
    },
    {
      "inputs": [
        {
          "internalType": "address",
          "name": "_address",
          "type": "address"
        }
      ],
      "name": "hasMinterRole",
      "outputs": [
        {
          "internalType": "bool",
          "name": "",
          "type": "bool"
        }
      ],
      "stateMutability": "view",
      "type": "function"
    },
    {
      "inputs": [
        {
          "internalType": "address",
          "name": "_address",
          "type": "address"
        }
      ],
      "name": "hasOperatorRole",
      "outputs": [
        {
          "internalType": "bool",
          "name": "",
          "type": "bool"
        }
      ],
      "stateMutability": "view",
      "type": "function"
    },
    {
      "inputs": [
        {
          "internalType": "bytes32",
          "name": "role",
          "type": "bytes32"
        },
        {
          "internalType": "address",
          "name": "account",
          "type": "address"
        }
      ],
      "name": "hasRole",
      "outputs": [
        {
          "internalType": "bool",
          "name": "",
          "type": "bool"
        }
      ],
      "stateMutability": "view",
      "type": "function"
    },
    {
      "inputs": [
        {
          "internalType": "address",
          "name": "_address",
          "type": "address"
        }
      ],
      "name": "hasSmartContractRole",
      "outputs": [
        {
          "internalType": "bool",
          "name": "",
          "type": "bool"
        }
      ],
      "stateMutability": "view",
      "type": "function"
    },
    {
      "inputs": [
        {
          "internalType": "bytes",
          "name": "_data",
          "type": "bytes"
        }
      ],
      "name": "init",
      "outputs": [],
      "stateMutability": "payable",
      "type": "function"
    },
    {
      "inputs": [
        {
          "internalType": "address",
          "name": "_admin",
          "type": "address"
        }
      ],
      "name": "initAccessControls",
      "outputs": [],
      "stateMutability": "nonpayable",
      "type": "function"
    },
    {
      "inputs": [
        {
          "internalType": "address",
          "name": "_funder",
          "type": "address"
        },
        {
          "internalType": "address",
          "name": "_token",
          "type": "address"
        },
        {
          "internalType": "uint256",
          "name": "_totalTokens",
          "type": "uint256"
        },
        {
          "internalType": "uint256",
          "name": "_startTime",
          "type": "uint256"
        },
        {
          "internalType": "uint256",
          "name": "_endTime",
          "type": "uint256"
        },
        {
          "internalType": "address",
          "name": "_paymentCurrency",
          "type": "address"
        },
        {
          "internalType": "uint256",
          "name": "_startPrice",
          "type": "uint256"
        },
        {
          "internalType": "uint256",
          "name": "_minimumPrice",
          "type": "uint256"
        },
        {
          "internalType": "address",
          "name": "_admin",
          "type": "address"
        },
        {
          "internalType": "address",
          "name": "_pointList",
          "type": "address"
        },
        {
          "internalType": "address payable",
          "name": "_wallet",
          "type": "address"
        }
      ],
      "name": "initAuction",
      "outputs": [],
      "stateMutability": "nonpayable",
      "type": "function"
    },
    {
      "inputs": [
        {
          "internalType": "bytes",
          "name": "_data",
          "type": "bytes"
        }
      ],
      "name": "initMarket",
      "outputs": [],
      "stateMutability": "nonpayable",
      "type": "function"
    },
    {
      "inputs": [],
      "name": "isOpen",
      "outputs": [
        {
          "internalType": "bool",
          "name": "",
          "type": "bool"
        }
      ],
      "stateMutability": "view",
      "type": "function"
    },
    {
      "inputs": [],
      "name": "marketInfo",
      "outputs": [
        {
          "internalType": "uint64",
          "name": "startTime",
          "type": "uint64"
        },
        {
          "internalType": "uint64",
          "name": "endTime",
          "type": "uint64"
        },
        {
          "internalType": "uint128",
          "name": "totalTokens",
          "type": "uint128"
        }
      ],
      "stateMutability": "view",
      "type": "function"
    },
    {
      "inputs": [],
      "name": "marketParticipationAgreement",
      "outputs": [
        {
          "internalType": "string",
          "name": "",
          "type": "string"
        }
      ],
      "stateMutability": "pure",
      "type": "function"
    },
    {
      "inputs": [],
      "name": "marketPrice",
      "outputs": [
        {
          "internalType": "uint128",
          "name": "startPrice",
          "type": "uint128"
        },
        {
          "internalType": "uint128",
          "name": "minimumPrice",
          "type": "uint128"
        }
      ],
      "stateMutability": "view",
      "type": "function"
    },
    {
      "inputs": [],
      "name": "marketStatus",
      "outputs": [
        {
          "internalType": "uint128",
          "name": "commitmentsTotal",
          "type": "uint128"
        },
        {
          "internalType": "bool",
          "name": "finalized",
          "type": "bool"
        },
        {
          "internalType": "bool",
          "name": "usePointList",
          "type": "bool"
        }
      ],
      "stateMutability": "view",
      "type": "function"
    },
    {
      "inputs": [],
      "name": "marketTemplate",
      "outputs": [
        {
          "internalType": "uint256",
          "name": "",
          "type": "uint256"
        }
      ],
      "stateMutability": "view",
      "type": "function"
    },
    {
      "inputs": [],
      "name": "paymentCurrency",
      "outputs": [
        {
          "internalType": "address",
          "name": "",
          "type": "address"
        }
      ],
      "stateMutability": "view",
      "type": "function"
    },
    {
      "inputs": [],
      "name": "pointList",
      "outputs": [
        {
          "internalType": "address",
          "name": "",
          "type": "address"
        }
      ],
      "stateMutability": "view",
      "type": "function"
    },
    {
      "inputs": [],
      "name": "priceDrop",
      "outputs": [
        {
          "internalType": "uint256",
          "name": "",
          "type": "uint256"
        }
      ],
      "stateMutability": "view",
      "type": "function"
    },
    {
      "inputs": [],
      "name": "priceFunction",
      "outputs": [
        {
          "internalType": "uint256",
          "name": "",
          "type": "uint256"
        }
      ],
      "stateMutability": "view",
      "type": "function"
    },
    {
      "inputs": [
        {
          "internalType": "address",
          "name": "_address",
          "type": "address"
        }
      ],
      "name": "removeAdminRole",
      "outputs": [],
      "stateMutability": "nonpayable",
      "type": "function"
    },
    {
      "inputs": [
        {
          "internalType": "string",
          "name": "_name",
          "type": "string"
        }
      ],
      "name": "removeDocument",
      "outputs": [],
      "stateMutability": "nonpayable",
      "type": "function"
    },
    {
      "inputs": [
        {
          "internalType": "address",
          "name": "_address",
          "type": "address"
        }
      ],
      "name": "removeMinterRole",
      "outputs": [],
      "stateMutability": "nonpayable",
      "type": "function"
    },
    {
      "inputs": [
        {
          "internalType": "address",
          "name": "_address",
          "type": "address"
        }
      ],
      "name": "removeOperatorRole",
      "outputs": [],
      "stateMutability": "nonpayable",
      "type": "function"
    },
    {
      "inputs": [
        {
          "internalType": "address",
          "name": "_address",
          "type": "address"
        }
      ],
      "name": "removeSmartContractRole",
      "outputs": [],
      "stateMutability": "nonpayable",
      "type": "function"
    },
    {
      "inputs": [
        {
          "internalType": "bytes32",
          "name": "role",
          "type": "bytes32"
        },
        {
          "internalType": "address",
          "name": "account",
          "type": "address"
        }
      ],
      "name": "renounceRole",
      "outputs": [],
      "stateMutability": "nonpayable",
      "type": "function"
    },
    {
      "inputs": [
        {
          "internalType": "bytes32",
          "name": "role",
          "type": "bytes32"
        },
        {
          "internalType": "address",
          "name": "account",
          "type": "address"
        }
      ],
      "name": "revokeRole",
      "outputs": [],
      "stateMutability": "nonpayable",
      "type": "function"
    },
    {
      "inputs": [
        {
          "internalType": "uint256",
          "name": "_startPrice",
          "type": "uint256"
        },
        {
          "internalType": "uint256",
          "name": "_minimumPrice",
          "type": "uint256"
        }
      ],
      "name": "setAuctionPrice",
      "outputs": [],
      "stateMutability": "nonpayable",
      "type": "function"
    },
    {
      "inputs": [
        {
          "internalType": "uint256",
          "name": "_startTime",
          "type": "uint256"
        },
        {
          "internalType": "uint256",
          "name": "_endTime",
          "type": "uint256"
        }
      ],
      "name": "setAuctionTime",
      "outputs": [],
      "stateMutability": "nonpayable",
      "type": "function"
    },
    {
      "inputs": [
        {
          "internalType": "address payable",
          "name": "_wallet",
          "type": "address"
        }
      ],
      "name": "setAuctionWallet",
      "outputs": [],
      "stateMutability": "nonpayable",
      "type": "function"
    },
    {
      "inputs": [
        {
          "internalType": "string",
          "name": "_name",
          "type": "string"
        },
        {
          "internalType": "string",
          "name": "_data",
          "type": "string"
        }
      ],
      "name": "setDocument",
      "outputs": [],
      "stateMutability": "nonpayable",
      "type": "function"
    },
    {
      "inputs": [
        {
          "internalType": "string[]",
          "name": "_name",
          "type": "string[]"
        },
        {
          "internalType": "string[]",
          "name": "_data",
          "type": "string[]"
        }
      ],
      "name": "setDocuments",
      "outputs": [],
      "stateMutability": "nonpayable",
      "type": "function"
    },
    {
      "inputs": [
        {
          "internalType": "address",
          "name": "_list",
          "type": "address"
        }
      ],
      "name": "setList",
      "outputs": [],
      "stateMutability": "nonpayable",
      "type": "function"
    },
    {
      "inputs": [],
      "name": "tokenPrice",
      "outputs": [
        {
          "internalType": "uint256",
          "name": "",
          "type": "uint256"
        }
      ],
      "stateMutability": "view",
      "type": "function"
    },
    {
      "inputs": [
        {
          "internalType": "address",
          "name": "_user",
          "type": "address"
        }
      ],
      "name": "tokensClaimable",
      "outputs": [
        {
          "internalType": "uint256",
          "name": "claimerCommitment",
          "type": "uint256"
        }
      ],
      "stateMutability": "view",
      "type": "function"
    },
    {
      "inputs": [],
      "name": "totalTokensCommitted",
      "outputs": [
        {
          "internalType": "uint256",
          "name": "",
          "type": "uint256"
        }
      ],
      "stateMutability": "view",
      "type": "function"
    },
    {
      "inputs": [],
      "name": "wallet",
      "outputs": [
        {
          "internalType": "address payable",
          "name": "",
          "type": "address"
        }
      ],
      "stateMutability": "view",
      "type": "function"
    },
    {
      "inputs": [
        {
          "internalType": "address payable",
          "name": "beneficiary",
          "type": "address"
        }
      ],
      "name": "withdrawTokens",
      "outputs": [],
      "stateMutability": "nonpayable",
      "type": "function"
    },
    {
      "inputs": [],
      "name": "withdrawTokens",
      "outputs": [],
      "stateMutability": "nonpayable",
      "type": "function"
    },
    {
      "stateMutability": "payable",
      "type": "receive"
    }
  ],
  "bytecode": "0x608060405234801561001057600080fd5b506001600581905550617ffd80620000296000396000f3fe60806040526004361061041f5760003560e01c80638a845fc01161021e578063c6b547e611610123578063dccfe310116100ab578063e8fcf7231161007a578063e8fcf72314610fdb578063f04899d314611018578063f08b82e614611043578063f5b541a61461106e578063fc4e3e0a146110995761042e565b8063dccfe31014610f33578063dde51f6d14610f5c578063e0e081d714610f85578063e6594abd14610fb25761042e565b8063d5391393116100f2578063d539139314610e62578063d547741f14610e8d578063d69d3e6214610eb6578063d7568b6e14610edf578063dc97e08214610f0a5761042e565b8063c6b547e614610d82578063c884ef8314610dbf578063c92bce8714610dfc578063ca15c87314610e255761042e565b80639c64d0ae116101a6578063adbf377611610175578063adbf377614610c9f578063b1f1621814610cc8578063b3f05b9714610cf1578063b7928b1d14610d1c578063c395fcb314610d455761042e565b80639c64d0ae14610bf55780639fa5f50b14610c1e578063a217fddf14610c49578063a9d87ee614610c745761042e565b8063919e93b5116101ed578063919e93b514610b1057806391d1485414610b3b5780639478941c14610b7857806399fdb32014610ba15780639a87222c14610bcc5761042e565b80638a845fc014610a7c5780638d8f2adb14610aa55780638fa8b79014610abc5780639010d07c14610ad35761042e565b806347535d7b116103245780636ae260c1116102ac5780637ff9b5961161027b5780637ff9b5961461099557806381353c8e146109c057806384720f16146109e9578063857d260814610a265780638643337414610a515761042e565b80636ae260c1146108c657806373973fcb146108ef57806374cf9fc51461092c5780637ccb6a64146109575761042e565b80634dc80e15116102f35780634dc80e15146107f05780634ddf47d41461082d578063521eb2731461084957806354f1e126146108745780636595171c1461089d5761042e565b806347535d7b1461075c57806349df728c146107875780634b3e6abb146107b05780634bb278f3146107d95761042e565b80632f2ff15d116103a757806336d0054b1161037657806336d0054b146106865780633d15cc6d146106b15780633d1c2273146106dc5780633f16431a1461070757806345a15388146107305761042e565b80632f2ff15d146105db578063314148e21461060457806332a0f2d71461063257806336568abe1461065d5761042e565b80631b3e460e116103ee5780631b3e460e14610505578063212f8a8114610530578063248a9ca31461055957806324e4025b1461059657806329762960146105bf5761042e565b8063031bee0014610433578063099db01714610460578063113b0ab21461049d57806317026455146104da5761042e565b3661042e5761042c6110d6565b005b600080fd5b34801561043f57600080fd5b50610448611111565b60405161045793929190616e44565b60405180910390f35b34801561046c57600080fd5b506104876004803603810190610482919061572c565b61116d565b60405161049491906167d0565b60405180910390f35b3480156104a957600080fd5b506104c460048036038101906104bf919061572c565b6111a0565b6040516104d191906167d0565b60405180910390f35b3480156104e657600080fd5b506104ef6111d3565b6040516104fc91906167d0565b60405180910390f35b34801561051157600080fd5b5061051a61120e565b6040516105279190616e00565b60405180910390f35b34801561053c57600080fd5b506105576004803603810190610552919061599a565b611213565b005b34801561056557600080fd5b50610580600480360381019061057b9190615ab0565b611378565b60405161058d91906167eb565b60405180910390f35b3480156105a257600080fd5b506105bd60048036038101906105b89190615cde565b611397565b005b6105d960048036038101906105d4919061586e565b611569565b005b3480156105e757600080fd5b5061060260048036038101906105fd9190615ad9565b6116b2565b005b34801561061057600080fd5b50610619611725565b6040516106299493929190616769565b60405180910390f35b34801561063e57600080fd5b506106476117a3565b6040516106549190616e00565b60405180910390f35b34801561066957600080fd5b50610684600480360381019061067f9190615ad9565b6117d8565b005b34801561069257600080fd5b5061069b61185b565b6040516106a891906167d0565b60405180910390f35b3480156106bd57600080fd5b506106c6611874565b6040516106d3919061660d565b60405180910390f35b3480156106e857600080fd5b506106f161189a565b6040516106fe9190616e00565b60405180910390f35b34801561071357600080fd5b5061072e6004803603810190610729919061572c565b6118a7565b005b34801561073c57600080fd5b50610745611935565b604051610753929190616dd7565b60405180910390f35b34801561076857600080fd5b5061077161197f565b60405161077e91906167d0565b60405180910390f35b34801561079357600080fd5b506107ae60048036038101906107a99190615755565b6119dc565b005b3480156107bc57600080fd5b506107d760048036038101906107d29190615a5e565b611cc9565b005b3480156107e557600080fd5b506107ee611cfb565b005b3480156107fc57600080fd5b506108176004803603810190610812919061572c565b61202f565b6040516108249190616e00565b60405180910390f35b61084760048036038101906108429190615b51565b612263565b005b34801561085557600080fd5b5061085e612267565b60405161086b9190616643565b60405180910390f35b34801561088057600080fd5b5061089b6004803603810190610896919061572c565b61228d565b005b3480156108a957600080fd5b506108c460048036038101906108bf919061572c565b61231b565b005b3480156108d257600080fd5b506108ed60048036038101906108e89190615cde565b61238c565b005b3480156108fb57600080fd5b5061091660048036038101906109119190615c50565b6125cc565b6040516109239190616e00565b60405180910390f35b34801561093857600080fd5b506109416126dd565b60405161094e919061684c565b60405180910390f35b34801561096357600080fd5b5061097e60048036038101906109799190615b96565b612700565b60405161098c92919061686e565b60405180910390f35b3480156109a157600080fd5b506109aa612800565b6040516109b79190616e00565b60405180910390f35b3480156109cc57600080fd5b506109e760048036038101906109e29190615b51565b61289a565b005b3480156109f557600080fd5b50610a106004803603810190610a0b91906158aa565b6128f2565b604051610a1d9190616806565b60405180910390f35b348015610a3257600080fd5b50610a3b612939565b604051610a4891906167eb565b60405180910390f35b348015610a5d57600080fd5b50610a6661295d565b604051610a7391906167d0565b60405180910390f35b348015610a8857600080fd5b50610aa36004803603810190610a9e919061572c565b612999565b005b348015610ab157600080fd5b50610aba612a27565b005b348015610ac857600080fd5b50610ad1612a32565b005b348015610adf57600080fd5b50610afa6004803603810190610af59190615b15565b612c35565b604051610b07919061660d565b60405180910390f35b348015610b1c57600080fd5b50610b25612c66565b604051610b329190616e00565b60405180910390f35b348015610b4757600080fd5b50610b626004803603810190610b5d9190615ad9565b612cd4565b604051610b6f91906167d0565b60405180910390f35b348015610b8457600080fd5b50610b9f6004803603810190610b9a919061572c565b612d05565b005b348015610bad57600080fd5b50610bb6612d93565b604051610bc3919061660d565b60405180910390f35b348015610bd857600080fd5b50610bf36004803603810190610bee9190615755565b612db9565b005b348015610c0157600080fd5b50610c1c6004803603810190610c179190615bdb565b612eb6565b005b348015610c2a57600080fd5b50610c33612eda565b604051610c4091906167ae565b60405180910390f35b348015610c5557600080fd5b50610c5e612fb3565b604051610c6b91906167eb565b60405180910390f35b348015610c8057600080fd5b50610c89612fba565b604051610c969190616e00565b60405180910390f35b348015610cab57600080fd5b50610cc66004803603810190610cc1919061572c565b613094565b005b348015610cd457600080fd5b50610cef6004803603810190610cea91906158aa565b613122565b005b348015610cfd57600080fd5b50610d066137cc565b604051610d1391906167d0565b60405180910390f35b348015610d2857600080fd5b50610d436004803603810190610d3e919061572c565b6137e6565b005b348015610d5157600080fd5b50610d6c6004803603810190610d67919061572c565b613874565b604051610d7991906167d0565b60405180910390f35b348015610d8e57600080fd5b50610da96004803603810190610da49190615c50565b61388a565b604051610db6919061684c565b60405180910390f35b348015610dcb57600080fd5b50610de66004803603810190610de1919061572c565b6139a7565b604051610df39190616e00565b60405180910390f35b348015610e0857600080fd5b50610e236004803603810190610e1e91906159e9565b6139bf565b005b348015610e3157600080fd5b50610e4c6004803603810190610e479190615ab0565b613a9d565b604051610e599190616e00565b60405180910390f35b348015610e6e57600080fd5b50610e77613ac3565b604051610e8491906167eb565b60405180910390f35b348015610e9957600080fd5b50610eb46004803603810190610eaf9190615ad9565b613ae7565b005b348015610ec257600080fd5b50610edd6004803603810190610ed8919061572c565b613b5a565b005b348015610eeb57600080fd5b50610ef4613b78565b604051610f019190616e00565b60405180910390f35b348015610f1657600080fd5b50610f316004803603810190610f2c9190615ca2565b613d68565b005b348015610f3f57600080fd5b50610f5a6004803603810190610f55919061572c565b613d77565b005b348015610f6857600080fd5b50610f836004803603810190610f7e9190615b96565b613de8565b005b348015610f9157600080fd5b50610f9a613e08565b604051610fa993929190616da0565b60405180910390f35b348015610fbe57600080fd5b50610fd96004803603810190610fd4919061572c565b613e56565b005b348015610fe757600080fd5b506110026004803603810190610ffd919061572c565b613ed0565b60405161100f9190616e00565b60405180910390f35b34801561102457600080fd5b5061102d613ee8565b60405161103a919061660d565b60405180910390f35b34801561104f57600080fd5b50611058613f0e565b6040516110659190616e00565b60405180910390f35b34801561107a57600080fd5b50611083613f49565b60405161109091906167eb565b60405180910390f35b3480156110a557600080fd5b506110c060048036038101906110bb919061572c565b613f6d565b6040516110cd91906167d0565b60405180910390f35b6040517f08c379a000000000000000000000000000000000000000000000000000000000815260040161110890616a60565b60405180910390fd5b60068060000160009054906101000a900467ffffffffffffffff16908060000160089054906101000a900467ffffffffffffffff16908060000160109054906101000a90046fffffffffffffffffffffffffffffffff16905083565b60006111997f9f2df0fed2c77648de5860a4cc508cd0818c85b8b8a1ab4ceeef8d981c8956a683612cd4565b9050919050565b60006111cc7f9d49f397ae9ef1a834b569acb967799a367061e305932181a44f5773da873bfd83612cd4565b9050919050565b60004262093a80600660000160089054906101000a900467ffffffffffffffff1667ffffffffffffffff166112089190616f7f565b10905090565b600281565b60026005541415611259576040517f08c379a000000000000000000000000000000000000000000000000000000000815260040161125090616cc0565b60405180910390fd5b600260058190555073eeeeeeeeeeeeeeeeeeeeeeeeeeeeeeeeeeeeeeee73ffffffffffffffffffffffffffffffffffffffff16600a60009054906101000a900473ffffffffffffffffffffffffffffffffffffffff1673ffffffffffffffffffffffffffffffffffffffff161415611306576040517f08c379a00000000000000000000000000000000000000000000000000000000081526004016112fd906168c0565b60405180910390fd5b60001515811515141561131c5761131b6110d6565b5b6000611327836125cc565b9050600081111561136a5761135f600a60009054906101000a900473ffffffffffffffffffffffffffffffffffffffff163383613fa0565b61136984826140a2565b5b506001600581905550505050565b6000806000838152602001908152602001600020600201549050919050565b6113a033613874565b6113a957600080fd5b8082116113eb576040517f08c379a00000000000000000000000000000000000000000000000000000000081526004016113e290616d20565b60405180910390fd5b6000811161142e576040517f08c379a0000000000000000000000000000000000000000000000000000000008152600401611425906169e0565b60405180910390fd5b6000600860000160009054906101000a90046fffffffffffffffffffffffffffffffff166fffffffffffffffffffffffffffffffff16146114a4576040517f08c379a000000000000000000000000000000000000000000000000000000000815260040161149b90616ce0565b60405180910390fd5b6114ad8261436b565b600760000160006101000a8154816fffffffffffffffffffffffffffffffff02191690836fffffffffffffffffffffffffffffffff1602179055506114f18161436b565b600760000160106101000a8154816fffffffffffffffffffffffffffffffff02191690836fffffffffffffffffffffffffffffffff1602179055507f622a57040c34e45abc5fadeb22e4c3c687cf48a096c86694cd21a7be9e7851ee828260405161155d929190616e1b565b60405180910390a15050565b73eeeeeeeeeeeeeeeeeeeeeeeeeeeeeeeeeeeeeeee73ffffffffffffffffffffffffffffffffffffffff16600a60009054906101000a900473ffffffffffffffffffffffffffffffffffffffff1673ffffffffffffffffffffffffffffffffffffffff161461160d576040517f08c379a000000000000000000000000000000000000000000000000000000000815260040161160490616ba0565b60405180910390fd5b600015158115151415611623576116226110d6565b5b600061162e346125cc565b9050600061164582346143ca90919063ffffffff16565b9050600082111561165b5761165a84836140a2565b5b60008111156116ac578373ffffffffffffffffffffffffffffffffffffffff166108fc829081150290604051600060405180830381858888f193505050501580156116aa573d6000803e3d6000fd5b505b50505050565b6116d8600080848152602001908152602001600020600201546116d3614423565b612cd4565b611717576040517f08c379a000000000000000000000000000000000000000000000000000000000815260040161170e906169a0565b60405180910390fd5b611721828261442b565b5050565b600080600080600960009054906101000a900473ffffffffffffffffffffffffffffffffffffffff16600660000160009054906101000a900467ffffffffffffffff16600660000160089054906101000a900467ffffffffffffffff16600860000160109054906101000a900460ff16935093509350935090919293565b60006117ad612fba565b6117b5612800565b11156117ca576117c3612800565b90506117d5565b6117d2612fba565b90505b90565b6117e0614423565b73ffffffffffffffffffffffffffffffffffffffff168173ffffffffffffffffffffffffffffffffffffffff161461184d576040517f08c379a000000000000000000000000000000000000000000000000000000000815260040161184490616d60565b60405180910390fd5b61185782826144be565b5050565b60006118656117a3565b61186d612800565b1015905090565b600a60009054906101000a900473ffffffffffffffffffffffffffffffffffffffff1681565b6000600480549050905090565b6118d17f9d49f397ae9ef1a834b569acb967799a367061e305932181a44f5773da873bfd826116b2565b6118d9614423565b73ffffffffffffffffffffffffffffffffffffffff168173ffffffffffffffffffffffffffffffffffffffff167f1d5f9ec24c6f91be922ea13ceaad919ad6554a41b5c26087f96289a9baf98ad260405160405180910390a350565b60078060000160009054906101000a90046fffffffffffffffffffffffffffffffff16908060000160109054906101000a90046fffffffffffffffffffffffffffffffff16905082565b6000600660000160009054906101000a900467ffffffffffffffff1667ffffffffffffffff1642101580156119d75750600660000160089054906101000a900467ffffffffffffffff1667ffffffffffffffff164211155b905090565b60026005541415611a22576040517f08c379a0000000000000000000000000000000000000000000000000000000008152600401611a1990616cc0565b60405180910390fd5b6002600581905550611a3261185b565b15611ba157600860000160109054906101000a900460ff16611a89576040517f08c379a0000000000000000000000000000000000000000000000000000000008152600401611a8090616c00565b60405180910390fd5b6000611a948261202f565b905060008111611ad9576040517f08c379a0000000000000000000000000000000000000000000000000000000008152600401611ad090616920565b60405180910390fd5b611b2b81600e60008573ffffffffffffffffffffffffffffffffffffffff1673ffffffffffffffffffffffffffffffffffffffff1681526020019081526020016000205461455190919063ffffffff16565b600e60008473ffffffffffffffffffffffffffffffffffffffff1673ffffffffffffffffffffffffffffffffffffffff16815260200190815260200160002081905550611b9b600960009054906101000a900473ffffffffffffffffffffffffffffffffffffffff1683836145aa565b50611cbe565b600660000160089054906101000a900467ffffffffffffffff1667ffffffffffffffff164211611c06576040517f08c379a0000000000000000000000000000000000000000000000000000000008152600401611bfd90616c80565b60405180910390fd5b6000600d60008373ffffffffffffffffffffffffffffffffffffffff1673ffffffffffffffffffffffffffffffffffffffff1681526020019081526020016000205490506000600d60008473ffffffffffffffffffffffffffffffffffffffff1673ffffffffffffffffffffffffffffffffffffffff16815260200190815260200160002081905550611cbc600a60009054906101000a900473ffffffffffffffffffffffffffffffffffffffff1683836145aa565b505b600160058190555050565b611cd233613874565b611cdb57600080fd5b80600860000160116101000a81548160ff02191690831515021790555050565b60026005541415611d41576040517f08c379a0000000000000000000000000000000000000000000000000000000008152600401611d3890616cc0565b60405180910390fd5b6002600581905550611d5233613874565b80611d625750611d61336111a0565b5b80611dba57503373ffffffffffffffffffffffffffffffffffffffff16600b60009054906101000a900473ffffffffffffffffffffffffffffffffffffffff1673ffffffffffffffffffffffffffffffffffffffff16145b80611dc95750611dc86111d3565b5b611e08576040517f08c379a0000000000000000000000000000000000000000000000000000000008152600401611dff90616bc0565b60405180910390fd5b6000600890508060000160109054906101000a900460ff1615611e60576040517f08c379a0000000000000000000000000000000000000000000000000000000008152600401611e5790616a00565b60405180910390fd5b611e6861185b565b15611ef357611eee600a60009054906101000a900473ffffffffffffffffffffffffffffffffffffffff16600b60009054906101000a900473ffffffffffffffffffffffffffffffffffffffff168360000160009054906101000a90046fffffffffffffffffffffffffffffffff166fffffffffffffffffffffffffffffffff166145aa565b611fdb565b600660000160089054906101000a900467ffffffffffffffff1667ffffffffffffffff164211611f58576040517f08c379a0000000000000000000000000000000000000000000000000000000008152600401611f4f90616c80565b60405180910390fd5b611fda600960009054906101000a900473ffffffffffffffffffffffffffffffffffffffff16600b60009054906101000a900473ffffffffffffffffffffffffffffffffffffffff16600660000160109054906101000a90046fffffffffffffffffffffffffffffffff166fffffffffffffffffffffffffffffffff166145aa565b5b60018160000160106101000a81548160ff0219169083151502179055507f32bebcfd2d04dbae321298091d96d2cb1d07279f59718cd83bd98245b8b82b5a60405160405180910390a1506001600581905550565b600080600d60008473ffffffffffffffffffffffffffffffffffffffff1673ffffffffffffffffffffffffffffffffffffffff168152602001908152602001600020541415612081576000905061225e565b6000600960009054906101000a900473ffffffffffffffffffffffffffffffffffffffff1673ffffffffffffffffffffffffffffffffffffffff166370a08231306040518263ffffffff1660e01b81526004016120de919061660d565b60206040518083038186803b1580156120f657600080fd5b505afa15801561210a573d6000803e3d6000fd5b505050506040513d601f19601f8201168201806040525081019061212e9190615c79565b90506121fa600860000160009054906101000a90046fffffffffffffffffffffffffffffffff166fffffffffffffffffffffffffffffffff166121ec600660000160109054906101000a90046fffffffffffffffffffffffffffffffff166fffffffffffffffffffffffffffffffff16600d60008873ffffffffffffffffffffffffffffffffffffffff1673ffffffffffffffffffffffffffffffffffffffff1681526020019081526020016000205461461290919063ffffffff16565b61467f90919063ffffffff16565b915061224e600e60008573ffffffffffffffffffffffffffffffffffffffff1673ffffffffffffffffffffffffffffffffffffffff16815260200190815260200160002054836143ca90919063ffffffff16565b91508082111561225c578091505b505b919050565b5050565b600b60009054906101000a900473ffffffffffffffffffffffffffffffffffffffff1681565b6122b77f9f2df0fed2c77648de5860a4cc508cd0818c85b8b8a1ab4ceeef8d981c8956a682613ae7565b6122bf614423565b73ffffffffffffffffffffffffffffffffffffffff168173ffffffffffffffffffffffffffffffffffffffff167f56692a161ffec953ddf9def93b958ea8d1ec95e21b80870c66be91a4374dc4e360405160405180910390a350565b6123286000801b826116b2565b612330614423565b73ffffffffffffffffffffffffffffffffffffffff168173ffffffffffffffffffffffffffffffffffffffff167f2570ac42fd8b322dc453ada624dc2ed0e9bdd67f16f201a25bbd30468f2aa18760405160405180910390a350565b61239533613874565b61239e57600080fd5b6402540be40082106123e5576040517f08c379a00000000000000000000000000000000000000000000000000000000081526004016123dc90616a20565b60405180910390fd5b6402540be400811061242c576040517f08c379a000000000000000000000000000000000000000000000000000000000815260040161242390616a20565b60405180910390fd5b4282101561246f576040517f08c379a000000000000000000000000000000000000000000000000000000000815260040161246690616a80565b60405180910390fd5b8181116124b1576040517f08c379a00000000000000000000000000000000000000000000000000000000081526004016124a8906168e0565b60405180910390fd5b6000600860000160009054906101000a90046fffffffffffffffffffffffffffffffff166fffffffffffffffffffffffffffffffff1614612527576040517f08c379a000000000000000000000000000000000000000000000000000000000815260040161251e90616ce0565b60405180910390fd5b612530826146d7565b600660000160006101000a81548167ffffffffffffffff021916908367ffffffffffffffff160217905550612564816146d7565b600660000160086101000a81548167ffffffffffffffff021916908367ffffffffffffffff1602179055507f5725d1e4352d6944889e54837ffaefde55cdc0b55796b831365d61cd4c87fdb882826040516125c0929190616e1b565b60405180910390a15050565b600080612636670de0b6b3a76400006126286125e66117a3565b600660000160109054906101000a90046fffffffffffffffffffffffffffffffff166fffffffffffffffffffffffffffffffff1661461290919063ffffffff16565b61467f90919063ffffffff16565b90508061267f84600860000160009054906101000a90046fffffffffffffffffffffffffffffffff166fffffffffffffffffffffffffffffffff1661455190919063ffffffff16565b11156126d3576126cb600860000160009054906101000a90046fffffffffffffffffffffffffffffffff166fffffffffffffffffffffffffffffffff16826143ca90919063ffffffff16565b9150506126d8565b829150505b919050565b60606040518061018001604052806101508152602001617e786101509139905090565b60606000600284846040516127169291906165dd565b9081526020016040518091039020600101600285856040516127399291906165dd565b908152602001604051809103902060000160049054906101000a900467ffffffffffffffff1667ffffffffffffffff1681805461277590617293565b80601f01602080910402602001604051908101604052809291908181526020018280546127a190617293565b80156127ee5780601f106127c3576101008083540402835291602001916127ee565b820191906000526020600020905b8154815290600101906020018083116127d157829003601f168201915b50505050509150915091509250929050565b6000612895600660000160109054906101000a90046fffffffffffffffffffffffffffffffff166fffffffffffffffffffffffffffffffff16612887670de0b6b3a7640000600860000160009054906101000a90046fffffffffffffffffffffffffffffffff166fffffffffffffffffffffffffffffffff1661461290919063ffffffff16565b61467f90919063ffffffff16565b905090565b60008060008060008060008060008060008c8c8101906128ba919061577e565b9a509a509a509a509a509a509a509a509a509a509a506128e38b8b8b8b8b8b8b8b8b8b8b613122565b50505050505050505050505050565b60608b8b8b8b8b8b8b8b8b8b8b6040516020016129199b9a99989796959493929190616695565b60405160208183030381529060405290509b9a5050505050505050505050565b7f9d49f397ae9ef1a834b569acb967799a367061e305932181a44f5773da873bfd81565b600061296761185b565b806129945750600660000160089054906101000a900467ffffffffffffffff1667ffffffffffffffff1642115b905090565b6129c37f9d49f397ae9ef1a834b569acb967799a367061e305932181a44f5773da873bfd82613ae7565b6129cb614423565b73ffffffffffffffffffffffffffffffffffffffff168173ffffffffffffffffffffffffffffffffffffffff167fe5f1aa9e528307345194b88b24a32401c13926e0823060f1049d9b26c0bb62b260405160405180910390a350565b612a30336119dc565b565b60026005541415612a78576040517f08c379a0000000000000000000000000000000000000000000000000000000008152600401612a6f90616cc0565b60405180910390fd5b6002600581905550612a8933613874565b612a9257600080fd5b6000600890508060000160109054906101000a900460ff1615612aea576040517f08c379a0000000000000000000000000000000000000000000000000000000008152600401612ae190616a00565b60405180910390fd5b60008160000160009054906101000a90046fffffffffffffffffffffffffffffffff166fffffffffffffffffffffffffffffffff1614612b5f576040517f08c379a0000000000000000000000000000000000000000000000000000000008152600401612b5690616a40565b60405180910390fd5b612be1600960009054906101000a900473ffffffffffffffffffffffffffffffffffffffff16600b60009054906101000a900473ffffffffffffffffffffffffffffffffffffffff16600660000160109054906101000a90046fffffffffffffffffffffffffffffffff166fffffffffffffffffffffffffffffffff166145aa565b60018160000160106101000a81548160ff0219169083151502179055507fa5fb31e47bd1eca58bf14a3312d5e6aeafdc4ee787c8ed348c15c2b092324d9360405160405180910390a1506001600581905550565b6000612c5e8260008086815260200190815260200160002060000161472e90919063ffffffff16565b905092915050565b6000612ccf612c736117a3565b612cc1670de0b6b3a7640000600860000160009054906101000a90046fffffffffffffffffffffffffffffffff166fffffffffffffffffffffffffffffffff1661461290919063ffffffff16565b61467f90919063ffffffff16565b905090565b6000612cfd8260008086815260200190815260200160002060000161474890919063ffffffff16565b905092915050565b612d2f7f97667070c54ef182b0f5858b034beac1b6f3089aa2d3188bb1e8929f4fa9b92982613ae7565b612d37614423565b73ffffffffffffffffffffffffffffffffffffffff168173ffffffffffffffffffffffffffffffffffffffff167f70b25138b6fadeb9992d18b9653564271823e34b3e3257515d12a6d4b15fcddf60405160405180910390a350565b600960009054906101000a900473ffffffffffffffffffffffffffffffffffffffff1681565b612dc233613874565b612dcb57600080fd5b600073ffffffffffffffffffffffffffffffffffffffff168173ffffffffffffffffffffffffffffffffffffffff161415612e3b576040517f08c379a0000000000000000000000000000000000000000000000000000000008152600401612e3290616940565b60405180910390fd5b80600b60006101000a81548173ffffffffffffffffffffffffffffffffffffffff021916908373ffffffffffffffffffffffffffffffffffffffff1602179055507f34ae2bad9265f0212d4cf341708b8250949164bb54f9d0e4f442024f83bb2f9081604051612eab9190616628565b60405180910390a150565b612ebf33613874565b612ec857600080fd5b612ed484848484614778565b50505050565b60606004805480602002602001604051908101604052809291908181526020016000905b82821015612faa578382906000526020600020018054612f1d90617293565b80601f0160208091040260200160405190810160405280929190818152602001828054612f4990617293565b8015612f965780601f10612f6b57610100808354040283529160200191612f96565b820191906000526020600020905b815481529060010190602001808311612f7957829003601f168201915b505050505081526020019060010190612efe565b50505050905090565b6000801b81565b6000600660000160009054906101000a900467ffffffffffffffff1667ffffffffffffffff16421161302157600760000160009054906101000a90046fffffffffffffffffffffffffffffffff166fffffffffffffffffffffffffffffffff169050613091565b600660000160089054906101000a900467ffffffffffffffff1667ffffffffffffffff16421061308657600760000160109054906101000a90046fffffffffffffffffffffffffffffffff166fffffffffffffffffffffffffffffffff169050613091565b61308e614935565b90505b90565b6130be7f9f2df0fed2c77648de5860a4cc508cd0818c85b8b8a1ab4ceeef8d981c8956a6826116b2565b6130c6614423565b73ffffffffffffffffffffffffffffffffffffffff168173ffffffffffffffffffffffffffffffffffffffff167f0be6ab9784c7401fafb73f7bc47bc67cc4ef8c47a60ad3cb66d1de0353a0784c60405160405180910390a350565b6402540be4008810613169576040517f08c379a000000000000000000000000000000000000000000000000000000000815260040161316090616a20565b60405180910390fd5b6402540be40087106131b0576040517f08c379a00000000000000000000000000000000000000000000000000000000081526004016131a790616a20565b60405180910390fd5b428810156131f3576040517f08c379a00000000000000000000000000000000000000000000000000000000081526004016131ea90616a80565b60405180910390fd5b878711613235576040517f08c379a000000000000000000000000000000000000000000000000000000000815260040161322c90616be0565b60405180910390fd5b60008911613278576040517f08c379a000000000000000000000000000000000000000000000000000000000815260040161326f90616ac0565b60405180910390fd5b8385116132ba576040517f08c379a00000000000000000000000000000000000000000000000000000000081526004016132b190616d20565b60405180910390fd5b600084116132fd576040517f08c379a00000000000000000000000000000000000000000000000000000000081526004016132f4906169e0565b60405180910390fd5b600073ffffffffffffffffffffffffffffffffffffffff168373ffffffffffffffffffffffffffffffffffffffff16141561336d576040517f08c379a000000000000000000000000000000000000000000000000000000000815260040161336490616d40565b60405180910390fd5b600073ffffffffffffffffffffffffffffffffffffffff168173ffffffffffffffffffffffffffffffffffffffff1614156133dd576040517f08c379a00000000000000000000000000000000000000000000000000000000081526004016133d490616940565b60405180910390fd5b60128a73ffffffffffffffffffffffffffffffffffffffff1663313ce5676040518163ffffffff1660e01b815260040160206040518083038186803b15801561342557600080fd5b505afa158015613439573d6000803e3d6000fd5b505050506040513d601f19601f8201168201806040525081019061345d9190615d1a565b60ff16146134a0576040517f08c379a000000000000000000000000000000000000000000000000000000000815260040161349790616ca0565b60405180910390fd5b73eeeeeeeeeeeeeeeeeeeeeeeeeeeeeeeeeeeeeeee73ffffffffffffffffffffffffffffffffffffffff168673ffffffffffffffffffffffffffffffffffffffff16146135ab5760008673ffffffffffffffffffffffffffffffffffffffff1663313ce5676040518163ffffffff1660e01b815260040160206040518083038186803b15801561352f57600080fd5b505afa158015613543573d6000803e3d6000fd5b505050506040513d601f19601f820116820180604052508101906135679190615d1a565b60ff16116135aa576040517f08c379a00000000000000000000000000000000000000000000000000000000081526004016135a1906169c0565b60405180910390fd5b5b6135b4886146d7565b600660000160006101000a81548167ffffffffffffffff021916908367ffffffffffffffff1602179055506135e8876146d7565b600660000160086101000a81548167ffffffffffffffff021916908367ffffffffffffffff16021790555061361c8961436b565b600660000160106101000a8154816fffffffffffffffffffffffffffffffff02191690836fffffffffffffffffffffffffffffffff1602179055506136608561436b565b600760000160006101000a8154816fffffffffffffffffffffffffffffffff02191690836fffffffffffffffffffffffffffffffff1602179055506136a48461436b565b600760000160106101000a8154816fffffffffffffffffffffffffffffffff02191690836fffffffffffffffffffffffffffffffff16021790555089600960006101000a81548173ffffffffffffffffffffffffffffffffffffffff021916908373ffffffffffffffffffffffffffffffffffffffff16021790555085600a60006101000a81548173ffffffffffffffffffffffffffffffffffffffff021916908373ffffffffffffffffffffffffffffffffffffffff16021790555080600b60006101000a81548173ffffffffffffffffffffffffffffffffffffffff021916908373ffffffffffffffffffffffffffffffffffffffff1602179055506137ab83613e56565b6137b4826149d5565b6137bf8a8c8b613fa0565b5050505050505050505050565b6000600860000160109054906101000a900460ff16905090565b6138107f97667070c54ef182b0f5858b034beac1b6f3089aa2d3188bb1e8929f4fa9b929826116b2565b613818614423565b73ffffffffffffffffffffffffffffffffffffffff168173ffffffffffffffffffffffffffffffffffffffff167f2d45ee102874989882745a26688d0b4fffee125a18df26536b12582c7fde4e1760405160405180910390a350565b60006138836000801b83612cd4565b9050919050565b606060048054905082106138d3576040517f08c379a00000000000000000000000000000000000000000000000000000000081526004016138ca90616c40565b60405180910390fd5b6004828154811061390d577f4e487b7100000000000000000000000000000000000000000000000000000000600052603260045260246000fd5b90600052602060002001805461392290617293565b80601f016020809104026020016040519081016040528092919081815260200182805461394e90617293565b801561399b5780601f106139705761010080835404028352916020019161399b565b820191906000526020600020905b81548152906001019060200180831161397e57829003601f168201915b50505050509050919050565b600e6020528060005260406000206000915090505481565b6139c833613874565b6139d157600080fd5b600084849050905060005b81811015613a9557613a82868683818110613a20577f4e487b7100000000000000000000000000000000000000000000000000000000600052603260045260246000fd5b9050602002810190613a329190616e7b565b868685818110613a6b577f4e487b7100000000000000000000000000000000000000000000000000000000600052603260045260246000fd5b9050602002810190613a7d9190616e7b565b614778565b8080613a8d906172c5565b9150506139dc565b505050505050565b6000613abc600080848152602001908152602001600020600001614a6c565b9050919050565b7f9f2df0fed2c77648de5860a4cc508cd0818c85b8b8a1ab4ceeef8d981c8956a681565b613b0d60008084815260200190815260200160002060020154613b08614423565b612cd4565b613b4c576040517f08c379a0000000000000000000000000000000000000000000000000000000008152600401613b4390616b00565b60405180910390fd5b613b5682826144be565b5050565b613b6333613874565b613b6c57600080fd5b613b75816149d5565b50565b60008060066040518060600160405290816000820160009054906101000a900467ffffffffffffffff1667ffffffffffffffff1667ffffffffffffffff1681526020016000820160089054906101000a900467ffffffffffffffff1667ffffffffffffffff1667ffffffffffffffff1681526020016000820160109054906101000a90046fffffffffffffffffffffffffffffffff166fffffffffffffffffffffffffffffffff166fffffffffffffffffffffffffffffffff16815250509050600060076040518060400160405290816000820160009054906101000a90046fffffffffffffffffffffffffffffffff166fffffffffffffffffffffffffffffffff166fffffffffffffffffffffffffffffffff1681526020016000820160109054906101000a90046fffffffffffffffffffffffffffffffff166fffffffffffffffffffffffffffffffff166fffffffffffffffffffffffffffffffff168152505090506000613d0c826020015183600001516fffffffffffffffffffffffffffffffff16614a8190919063ffffffff16565b6fffffffffffffffffffffffffffffffff1690506000613d478460000151856020015167ffffffffffffffff16614afe90919063ffffffff16565b67ffffffffffffffff1690508082613d5f919061700f565b94505050505090565b613d73338383611213565b5050565b613d846000801b82613ae7565b613d8c614423565b73ffffffffffffffffffffffffffffffffffffffff168173ffffffffffffffffffffffffffffffffffffffff167f21ba1239795d4e22874e3dc55f0a9d7b65bfb23069d32965d7c23be9524ccf9560405160405180910390a350565b613df133613874565b613dfa57600080fd5b613e048282614b6b565b5050565b60088060000160009054906101000a90046fffffffffffffffffffffffffffffffff16908060000160109054906101000a900460ff16908060000160119054906101000a900460ff16905083565b600160009054906101000a900460ff1615613ea6576040517f08c379a0000000000000000000000000000000000000000000000000000000008152600401613e9d90616960565b60405180910390fd5b613eb36000801b82614eda565b60018060006101000a81548160ff02191690831515021790555050565b600d6020528060005260406000206000915090505481565b600c60009054906101000a900473ffffffffffffffffffffffffffffffffffffffff1681565b6000600660000160109054906101000a90046fffffffffffffffffffffffffffffffff166fffffffffffffffffffffffffffffffff16905090565b7f97667070c54ef182b0f5858b034beac1b6f3089aa2d3188bb1e8929f4fa9b92981565b6000613f997f97667070c54ef182b0f5858b034beac1b6f3089aa2d3188bb1e8929f4fa9b92983612cd4565b9050919050565b6000808473ffffffffffffffffffffffffffffffffffffffff166323b872dd853086604051602401613fd49392919061665e565b6040516020818303038152906040529060e01b6020820180517bffffffffffffffffffffffffffffffffffffffffffffffffffffffff838183161783525050505060405161402291906165c6565b6000604051808303816000865af19150503d806000811461405f576040519150601f19603f3d011682016040523d82523d6000602084013e614064565b606091505b509150915081801561409257506000815114806140915750808060200190518101906140909190615a87565b5b5b61409b57600080fd5b5050505050565b600660000160009054906101000a900467ffffffffffffffff1667ffffffffffffffff1642101580156140f85750600660000160089054906101000a900467ffffffffffffffff1667ffffffffffffffff164211155b614137576040517f08c379a000000000000000000000000000000000000000000000000000000000815260040161412e90616b60565b60405180910390fd5b600060089050600061419183600d60008773ffffffffffffffffffffffffffffffffffffffff1673ffffffffffffffffffffffffffffffffffffffff1681526020019081526020016000205461455190919063ffffffff16565b90508160000160119054906101000a900460ff161561426157600c60009054906101000a900473ffffffffffffffffffffffffffffffffffffffff1673ffffffffffffffffffffffffffffffffffffffff16631cd53d5585836040518363ffffffff1660e01b8152600401614207929190616740565b60206040518083038186803b15801561421f57600080fd5b505afa158015614233573d6000803e3d6000fd5b505050506040513d601f19601f820116820180604052508101906142579190615a87565b61426057600080fd5b5b80600d60008673ffffffffffffffffffffffffffffffffffffffff1673ffffffffffffffffffffffffffffffffffffffff168152602001908152602001600020819055506142f26142ed848460000160009054906101000a90046fffffffffffffffffffffffffffffffff166fffffffffffffffffffffffffffffffff1661455190919063ffffffff16565b61436b565b8260000160006101000a8154816fffffffffffffffffffffffffffffffff02191690836fffffffffffffffffffffffffffffffff1602179055507f077511a636ba1f10551cc7b89c13ff66a6ac9344e8a917527817a9690b15af7a848460405161435d929190616740565b60405180910390a150505050565b60006fffffffffffffffffffffffffffffffff80168211156143c2576040517f08c379a00000000000000000000000000000000000000000000000000000000081526004016143b990616ae0565b60405180910390fd5b819050919050565b60008282846143d991906170ce565b915081111561441d576040517f08c379a000000000000000000000000000000000000000000000000000000000815260040161441490616900565b60405180910390fd5b92915050565b600033905090565b61445281600080858152602001908152602001600020600001614ee890919063ffffffff16565b156144ba5761445f614423565b73ffffffffffffffffffffffffffffffffffffffff168173ffffffffffffffffffffffffffffffffffffffff16837f2f8788117e7eff1d82e926ec794901d17c78024a50270940304540a733656f0d60405160405180910390a45b5050565b6144e581600080858152602001908152602001600020600001614f1890919063ffffffff16565b1561454d576144f2614423565b73ffffffffffffffffffffffffffffffffffffffff168173ffffffffffffffffffffffffffffffffffffffff16837ff6391f5c32d9c69d2a47ea670b442974b53935d1edc7fd64eb21e047a839171b60405160405180910390a45b5050565b60008182846145609190616f7f565b91508110156145a4576040517f08c379a000000000000000000000000000000000000000000000000000000000815260040161459b90616b20565b60405180910390fd5b92915050565b73eeeeeeeeeeeeeeeeeeeeeeeeeeeeeeeeeeeeeeee73ffffffffffffffffffffffffffffffffffffffff168373ffffffffffffffffffffffffffffffffffffffff161415614601576145fc8282614f48565b61460d565b61460c83838361506e565b5b505050565b60008082148061463a57508282838561462b9190617040565b925082614638919061700f565b145b614679576040517f08c379a000000000000000000000000000000000000000000000000000000000815260040161467090616d00565b60405180910390fd5b92915050565b60008082116146c3576040517f08c379a00000000000000000000000000000000000000000000000000000000081526004016146ba90616d80565b60405180910390fd5b81836146cf919061700f565b905092915050565b600067ffffffffffffffff8016821115614726576040517f08c379a000000000000000000000000000000000000000000000000000000000815260040161471d90616b80565b60405180910390fd5b819050919050565b600061473d836000018361516e565b60001c905092915050565b6000614770836000018373ffffffffffffffffffffffffffffffffffffffff1660001b615208565b905092915050565b600084849050116147be576040517f08c379a00000000000000000000000000000000000000000000000000000000081526004016147b590616b40565b60405180910390fd5b60008282905011614804576040517f08c379a00000000000000000000000000000000000000000000000000000000081526004016147fb90616c60565b60405180910390fd5b600067ffffffffffffffff16600285856040516148229291906165dd565b908152602001604051809103902060000160049054906101000a900467ffffffffffffffff1667ffffffffffffffff1614156148de576004848490918060018154018082558091505060019003906000526020600020016000909192909192909192909192509190614895929190615436565b50600480549050600285856040516148ae9291906165dd565b908152602001604051809103902060000160006101000a81548163ffffffff021916908363ffffffff1602179055505b83836040516148ee9291906165dd565b60405180910390207fbaa206e5ea800eb88bce099f453fee53295b793b9d5d1cfc4ce4b6db06a34f538383604051614927929190616828565b60405180910390a250505050565b600080614987614943613b78565b614979600660000160009054906101000a900467ffffffffffffffff1667ffffffffffffffff16426143ca90919063ffffffff16565b61461290919063ffffffff16565b90506149cf81600760000160009054906101000a90046fffffffffffffffffffffffffffffffff166fffffffffffffffffffffffffffffffff166143ca90919063ffffffff16565b91505090565b600073ffffffffffffffffffffffffffffffffffffffff168173ffffffffffffffffffffffffffffffffffffffff1614614a695780600c60006101000a81548173ffffffffffffffffffffffffffffffffffffffff021916908373ffffffffffffffffffffffffffffffffffffffff1602179055506001600860000160116101000a81548160ff0219169083151502179055505b50565b6000614a7a8260000161522b565b9050919050565b6000826fffffffffffffffffffffffffffffffff168284614aa2919061709a565b9150816fffffffffffffffffffffffffffffffff161115614af8576040517f08c379a0000000000000000000000000000000000000000000000000000000008152600401614aef90616900565b60405180910390fd5b92915050565b60008267ffffffffffffffff168284614b179190617136565b91508167ffffffffffffffff161115614b65576040517f08c379a0000000000000000000000000000000000000000000000000000000008152600401614b5c90616900565b60405180910390fd5b92915050565b600067ffffffffffffffff1660028383604051614b899291906165dd565b908152602001604051809103902060000160049054906101000a900467ffffffffffffffff1667ffffffffffffffff161415614bfa576040517f08c379a0000000000000000000000000000000000000000000000000000000008152600401614bf190616aa0565b60405180910390fd5b6000600160028484604051614c109291906165dd565b908152602001604051809103902060000160009054906101000a900463ffffffff16614c3c9190617102565b90506001600480549050614c5091906170ce565b8163ffffffff1614614da95760046001600480549050614c7091906170ce565b81548110614ca7577f4e487b7100000000000000000000000000000000000000000000000000000000600052603260045260246000fd5b9060005260206000200160048263ffffffff1681548110614cf1577f4e487b7100000000000000000000000000000000000000000000000000000000600052603260045260246000fd5b90600052602060002001908054614d0790617293565b614d129291906154bc565b50600181614d209190616fd5565b600260048363ffffffff1681548110614d62577f4e487b7100000000000000000000000000000000000000000000000000000000600052603260045260246000fd5b90600052602060002001604051614d7991906165f6565b908152602001604051809103902060000160006101000a81548163ffffffff021916908363ffffffff1602179055505b6004805480614de1577f4e487b7100000000000000000000000000000000000000000000000000000000600052603160045260246000fd5b600190038181906000526020600020016000614dfd9190615549565b90558282604051614e0f9291906165dd565b60405180910390207f4b5338540b4d1c0f6dd0308a25f633b7ff60472f894d711cff9dd64e35c613b260028585604051614e4a9291906165dd565b9081526020016040518091039020600101604051614e68919061689e565b60405180910390a260028383604051614e829291906165dd565b9081526020016040518091039020600080820160006101000a81549063ffffffff02191690556000820160046101000a81549067ffffffffffffffff0219169055600182016000614ed39190615549565b5050505050565b614ee4828261442b565b5050565b6000614f10836000018373ffffffffffffffffffffffffffffffffffffffff1660001b61523c565b905092915050565b6000614f40836000018373ffffffffffffffffffffffffffffffffffffffff1660001b6152ac565b905092915050565b60008273ffffffffffffffffffffffffffffffffffffffff1682600067ffffffffffffffff811115614fa3577f4e487b7100000000000000000000000000000000000000000000000000000000600052604160045260246000fd5b6040519080825280601f01601f191660200182016040528015614fd55781602001600182028036833780820191505090505b50604051614fe391906165c6565b60006040518083038185875af1925050503d8060008114615020576040519150601f19603f3d011682016040523d82523d6000602084013e615025565b606091505b5050905080615069576040517f08c379a000000000000000000000000000000000000000000000000000000000815260040161506090616c20565b60405180910390fd5b505050565b6000808473ffffffffffffffffffffffffffffffffffffffff1663a9059cbb85856040516024016150a0929190616740565b6040516020818303038152906040529060e01b6020820180517bffffffffffffffffffffffffffffffffffffffffffffffffffffffff83818316178352505050506040516150ee91906165c6565b6000604051808303816000865af19150503d806000811461512b576040519150601f19603f3d011682016040523d82523d6000602084013e615130565b606091505b509150915081801561515e575060008151148061515d57508080602001905181019061515c9190615a87565b5b5b61516757600080fd5b5050505050565b6000818360000180549050116151b9576040517f08c379a00000000000000000000000000000000000000000000000000000000081526004016151b090616980565b60405180910390fd5b8260000182815481106151f5577f4e487b7100000000000000000000000000000000000000000000000000000000600052603260045260246000fd5b9060005260206000200154905092915050565b600080836001016000848152602001908152602001600020541415905092915050565b600081600001805490509050919050565b60006152488383615208565b6152a15782600001829080600181540180825580915050600190039060005260206000200160009091909190915055826000018054905083600101600084815260200190815260200160002081905550600190506152a6565b600090505b92915050565b6000808360010160008481526020019081526020016000205490506000811461542a5760006001826152de91906170ce565b90506000600186600001805490506152f691906170ce565b90506000866000018281548110615336577f4e487b7100000000000000000000000000000000000000000000000000000000600052603260045260246000fd5b9060005260206000200154905080876000018481548110615380577f4e487b7100000000000000000000000000000000000000000000000000000000600052603260045260246000fd5b906000526020600020018190555060018361539b9190616f7f565b87600101600083815260200190815260200160002081905550866000018054806153ee577f4e487b7100000000000000000000000000000000000000000000000000000000600052603160045260246000fd5b60019003818190600052602060002001600090559055866001016000878152602001908152602001600020600090556001945050505050615430565b60009150505b92915050565b82805461544290617293565b90600052602060002090601f01602090048101928261546457600085556154ab565b82601f1061547d57803560ff19168380011785556154ab565b828001600101855582156154ab579182015b828111156154aa57823582559160200191906001019061548f565b5b5090506154b89190615589565b5090565b8280546154c890617293565b90600052602060002090601f0160209004810192826154ea5760008555615538565b82601f106154fb5780548555615538565b8280016001018555821561553857600052602060002091601f016020900482015b8281111561553757825482559160010191906001019061551c565b5b5090506155459190615589565b5090565b50805461555590617293565b6000825580601f106155675750615586565b601f0160209004906000526020600020908101906155859190615589565b5b50565b5b808211156155a257600081600090555060010161558a565b5090565b6000813590506155b581617ded565b92915050565b6000813590506155ca81617e04565b92915050565b60008083601f8401126155e257600080fd5b8235905067ffffffffffffffff8111156155fb57600080fd5b60208301915083602082028301111561561357600080fd5b9250929050565b60008135905061562981617e1b565b92915050565b60008151905061563e81617e1b565b92915050565b60008135905061565381617e32565b92915050565b60008083601f84011261566b57600080fd5b8235905067ffffffffffffffff81111561568457600080fd5b60208301915083600182028301111561569c57600080fd5b9250929050565b60008083601f8401126156b557600080fd5b8235905067ffffffffffffffff8111156156ce57600080fd5b6020830191508360018202830111156156e657600080fd5b9250929050565b6000813590506156fc81617e49565b92915050565b60008151905061571181617e49565b92915050565b60008151905061572681617e60565b92915050565b60006020828403121561573e57600080fd5b600061574c848285016155a6565b91505092915050565b60006020828403121561576757600080fd5b6000615775848285016155bb565b91505092915050565b60008060008060008060008060008060006101608c8e0312156157a057600080fd5b60006157ae8e828f016155bb565b9b505060206157bf8e828f016155bb565b9a505060406157d08e828f016156ed565b99505060606157e18e828f016156ed565b98505060806157f28e828f016156ed565b97505060a06158038e828f016155bb565b96505060c06158148e828f016156ed565b95505060e06158258e828f016156ed565b9450506101006158378e828f016155bb565b9350506101206158498e828f016155bb565b92505061014061585b8e828f016155bb565b9150509295989b509295989b9093969950565b6000806040838503121561588157600080fd5b600061588f858286016155bb565b92505060206158a08582860161561a565b9150509250929050565b60008060008060008060008060008060006101608c8e0312156158cc57600080fd5b60006158da8e828f016155a6565b9b505060206158eb8e828f016155a6565b9a505060406158fc8e828f016156ed565b995050606061590d8e828f016156ed565b985050608061591e8e828f016156ed565b97505060a061592f8e828f016155a6565b96505060c06159408e828f016156ed565b95505060e06159518e828f016156ed565b9450506101006159638e828f016155a6565b9350506101206159758e828f016155a6565b9250506101406159878e828f016155bb565b9150509295989b509295989b9093969950565b6000806000606084860312156159af57600080fd5b60006159bd868287016155a6565b93505060206159ce868287016156ed565b92505060406159df8682870161561a565b9150509250925092565b600080600080604085870312156159ff57600080fd5b600085013567ffffffffffffffff811115615a1957600080fd5b615a25878288016155d0565b9450945050602085013567ffffffffffffffff811115615a4457600080fd5b615a50878288016155d0565b925092505092959194509250565b600060208284031215615a7057600080fd5b6000615a7e8482850161561a565b91505092915050565b600060208284031215615a9957600080fd5b6000615aa78482850161562f565b91505092915050565b600060208284031215615ac257600080fd5b6000615ad084828501615644565b91505092915050565b60008060408385031215615aec57600080fd5b6000615afa85828601615644565b9250506020615b0b858286016155a6565b9150509250929050565b60008060408385031215615b2857600080fd5b6000615b3685828601615644565b9250506020615b47858286016156ed565b9150509250929050565b60008060208385031215615b6457600080fd5b600083013567ffffffffffffffff811115615b7e57600080fd5b615b8a85828601615659565b92509250509250929050565b60008060208385031215615ba957600080fd5b600083013567ffffffffffffffff811115615bc357600080fd5b615bcf858286016156a3565b92509250509250929050565b60008060008060408587031215615bf157600080fd5b600085013567ffffffffffffffff811115615c0b57600080fd5b615c17878288016156a3565b9450945050602085013567ffffffffffffffff811115615c3657600080fd5b615c42878288016156a3565b925092505092959194509250565b600060208284031215615c6257600080fd5b6000615c70848285016156ed565b91505092915050565b600060208284031215615c8b57600080fd5b6000615c9984828501615702565b91505092915050565b60008060408385031215615cb557600080fd5b6000615cc3858286016156ed565b9250506020615cd48582860161561a565b9150509250929050565b60008060408385031215615cf157600080fd5b6000615cff858286016156ed565b9250506020615d10858286016156ed565b9150509250929050565b600060208284031215615d2c57600080fd5b6000615d3a84828501615717565b91505092915050565b6000615d4f8383615ed3565b905092915050565b615d608161721b565b82525050565b615d6f8161717c565b82525050565b615d7e8161716a565b82525050565b6000615d8f82616ef7565b615d998185616f25565b935083602082028501615dab85616ed2565b8060005b85811015615de75784840389528151615dc88582615d43565b9450615dd383616f18565b925060208a01995050600181019050615daf565b50829750879550505050505092915050565b615e028161718e565b82525050565b615e118161719a565b82525050565b6000615e2282616f02565b615e2c8185616f36565b9350615e3c818560208601617260565b615e458161739b565b840191505092915050565b6000615e5b82616f02565b615e658185616f47565b9350615e75818560208601617260565b80840191505092915050565b6000615e8d8385616f63565b9350615e9a838584617251565b615ea38361739b565b840190509392505050565b6000615eba8385616f74565b9350615ec7838584617251565b82840190509392505050565b6000615ede82616f0d565b615ee88185616f52565b9350615ef8818560208601617260565b615f018161739b565b840191505092915050565b6000615f1782616f0d565b615f218185616f63565b9350615f31818560208601617260565b615f3a8161739b565b840191505092915050565b60008154615f5281617293565b615f5c8186616f63565b94506001821660008114615f775760018114615f8957615fbc565b60ff1983168652602086019350615fbc565b615f9285616ee2565b60005b83811015615fb457815481890152600182019150602081019050615f95565b808801955050505b50505092915050565b60008154615fd281617293565b615fdc8186616f74565b94506001821660008114615ff757600181146160085761603b565b60ff1983168652818601935061603b565b61601185616ee2565b60005b8381101561603357815481890152600182019150602081019050616014565b838801955050505b50505092915050565b6000616051602d83616f63565b915061605c826173ac565b604082019050919050565b6000616074603483616f63565b915061607f826173fb565b604082019050919050565b6000616097601583616f63565b91506160a28261744a565b602082019050919050565b60006160ba602083616f63565b91506160c582617473565b602082019050919050565b60006160dd602883616f63565b91506160e88261749c565b604082019050919050565b6000616100601383616f63565b915061610b826174eb565b602082019050919050565b6000616123602283616f63565b915061612e82617514565b604082019050919050565b6000616146602f83616f63565b915061615182617563565b604082019050919050565b6000616169602b83616f63565b9150616174826175b2565b604082019050919050565b600061618c603283616f63565b915061619782617601565b604082019050919050565b60006161af602783616f63565b91506161ba82617650565b604082019050919050565b60006161d2604183616f63565b91506161dd8261769f565b606082019050919050565b60006161f5602783616f63565b915061620082617714565b604082019050919050565b6000616218605283616f63565b915061622382617763565b606082019050919050565b600061623b602f83616f63565b9150616246826177d8565b604082019050919050565b600061625e601583616f63565b915061626982617827565b602082019050919050565b6000616281603483616f63565b915061628c82617850565b604082019050919050565b60006162a4601c83616f63565b91506162af8261789f565b602082019050919050565b60006162c7603083616f63565b91506162d2826178c8565b604082019050919050565b60006162ea601883616f63565b91506162f582617917565b602082019050919050565b600061630d601883616f63565b915061631882617940565b602082019050919050565b6000616330602383616f63565b915061633b82617969565b604082019050919050565b6000616353601b83616f63565b915061635e826179b8565b602082019050919050565b6000616376603183616f63565b9150616381826179e1565b604082019050919050565b6000616399602583616f63565b91506163a482617a30565b604082019050919050565b60006163bc603583616f63565b91506163c782617a7f565b604082019050919050565b60006163df601b83616f63565b91506163ea82617ace565b602082019050919050565b6000616402602383616f63565b915061640d82617af7565b604082019050919050565b6000616425601383616f63565b915061643082617b46565b602082019050919050565b6000616448601a83616f63565b915061645382617b6f565b602082019050919050565b600061646b602a83616f63565b915061647682617b98565b604082019050919050565b600061648e602d83616f63565b915061649982617be7565b604082019050919050565b60006164b1601f83616f63565b91506164bc82617c36565b602082019050919050565b60006164d4603183616f63565b91506164df82617c5f565b604082019050919050565b60006164f7601883616f63565b915061650282617cae565b602082019050919050565b600061651a603b83616f63565b915061652582617cd7565b604082019050919050565b600061653d602783616f63565b915061654882617d26565b604082019050919050565b6000616560602f83616f63565b915061656b82617d75565b604082019050919050565b6000616583601483616f63565b915061658e82617dc4565b602082019050919050565b6165a2816171a4565b82525050565b6165b1816171e0565b82525050565b6165c0816171fa565b82525050565b60006165d28284615e50565b915081905092915050565b60006165ea828486615eae565b91508190509392505050565b60006166028284615fc5565b915081905092915050565b60006020820190506166226000830184615d75565b92915050565b600060208201905061663d6000830184615d57565b92915050565b60006020820190506166586000830184615d66565b92915050565b60006060820190506166736000830186615d75565b6166806020830185615d75565b61668d60408301846165a8565b949350505050565b6000610160820190506166ab600083018e615d75565b6166b8602083018d615d75565b6166c5604083018c6165a8565b6166d2606083018b6165a8565b6166df608083018a6165a8565b6166ec60a0830189615d75565b6166f960c08301886165a8565b61670660e08301876165a8565b616714610100830186615d75565b616722610120830185615d75565b616730610140830184615d66565b9c9b505050505050505050505050565b60006040820190506167556000830185615d75565b61676260208301846165a8565b9392505050565b600060808201905061677e6000830187615d75565b61678b60208301866165b7565b61679860408301856165b7565b6167a56060830184615df9565b95945050505050565b600060208201905081810360008301526167c88184615d84565b905092915050565b60006020820190506167e56000830184615df9565b92915050565b60006020820190506168006000830184615e08565b92915050565b600060208201905081810360008301526168208184615e17565b905092915050565b60006020820190508181036000830152616843818486615e81565b90509392505050565b600060208201905081810360008301526168668184615f0c565b905092915050565b600060408201905081810360008301526168888185615f0c565b905061689760208301846165a8565b9392505050565b600060208201905081810360008301526168b88184615f45565b905092915050565b600060208201905081810360008301526168d981616044565b9050919050565b600060208201905081810360008301526168f981616067565b9050919050565b600060208201905081810360008301526169198161608a565b9050919050565b60006020820190508181036000830152616939816160ad565b9050919050565b60006020820190508181036000830152616959816160d0565b9050919050565b60006020820190508181036000830152616979816160f3565b9050919050565b6000602082019050818103600083015261699981616116565b9050919050565b600060208201905081810360008301526169b981616139565b9050919050565b600060208201905081810360008301526169d98161615c565b9050919050565b600060208201905081810360008301526169f98161617f565b9050919050565b60006020820190508181036000830152616a19816161a2565b9050919050565b60006020820190508181036000830152616a39816161c5565b9050919050565b60006020820190508181036000830152616a59816161e8565b9050919050565b60006020820190508181036000830152616a798161620b565b9050919050565b60006020820190508181036000830152616a998161622e565b9050919050565b60006020820190508181036000830152616ab981616251565b9050919050565b60006020820190508181036000830152616ad981616274565b9050919050565b60006020820190508181036000830152616af981616297565b9050919050565b60006020820190508181036000830152616b19816162ba565b9050919050565b60006020820190508181036000830152616b39816162dd565b9050919050565b60006020820190508181036000830152616b5981616300565b9050919050565b60006020820190508181036000830152616b7981616323565b9050919050565b60006020820190508181036000830152616b9981616346565b9050919050565b60006020820190508181036000830152616bb981616369565b9050919050565b60006020820190508181036000830152616bd98161638c565b9050919050565b60006020820190508181036000830152616bf9816163af565b9050919050565b60006020820190508181036000830152616c19816163d2565b9050919050565b60006020820190508181036000830152616c39816163f5565b9050919050565b60006020820190508181036000830152616c5981616418565b9050919050565b60006020820190508181036000830152616c798161643b565b9050919050565b60006020820190508181036000830152616c998161645e565b9050919050565b60006020820190508181036000830152616cb981616481565b9050919050565b60006020820190508181036000830152616cd9816164a4565b9050919050565b60006020820190508181036000830152616cf9816164c7565b9050919050565b60006020820190508181036000830152616d19816164ea565b9050919050565b60006020820190508181036000830152616d398161650d565b9050919050565b60006020820190508181036000830152616d5981616530565b9050919050565b60006020820190508181036000830152616d7981616553565b9050919050565b60006020820190508181036000830152616d9981616576565b9050919050565b6000606082019050616db56000830186616599565b616dc26020830185615df9565b616dcf6040830184615df9565b949350505050565b6000604082019050616dec6000830185616599565b616df96020830184616599565b9392505050565b6000602082019050616e1560008301846165a8565b92915050565b6000604082019050616e3060008301856165a8565b616e3d60208301846165a8565b9392505050565b6000606082019050616e5960008301866165b7565b616e6660208301856165b7565b616e736040830184616599565b949350505050565b60008083356001602003843603038112616e9457600080fd5b80840192508235915067ffffffffffffffff821115616eb257600080fd5b602083019250600182023603831315616eca57600080fd5b509250929050565b6000819050602082019050919050565b60008190508160005260206000209050919050565b600081519050919050565b600081519050919050565b600081519050919050565b6000602082019050919050565b600082825260208201905092915050565b600082825260208201905092915050565b600081905092915050565b600082825260208201905092915050565b600082825260208201905092915050565b600081905092915050565b6000616f8a826171e0565b9150616f95836171e0565b9250827fffffffffffffffffffffffffffffffffffffffffffffffffffffffffffffffff03821115616fca57616fc961730e565b5b828201905092915050565b6000616fe0826171ea565b9150616feb836171ea565b92508263ffffffff038211156170045761700361730e565b5b828201905092915050565b600061701a826171e0565b9150617025836171e0565b9250826170355761703461733d565b5b828204905092915050565b600061704b826171e0565b9150617056836171e0565b9250817fffffffffffffffffffffffffffffffffffffffffffffffffffffffffffffffff048311821515161561708f5761708e61730e565b5b828202905092915050565b60006170a5826171a4565b91506170b0836171a4565b9250828210156170c3576170c261730e565b5b828203905092915050565b60006170d9826171e0565b91506170e4836171e0565b9250828210156170f7576170f661730e565b5b828203905092915050565b600061710d826171ea565b9150617118836171ea565b92508282101561712b5761712a61730e565b5b828203905092915050565b6000617141826171fa565b915061714c836171fa565b92508282101561715f5761715e61730e565b5b828203905092915050565b6000617175826171c0565b9050919050565b6000617187826171c0565b9050919050565b60008115159050919050565b6000819050919050565b60006fffffffffffffffffffffffffffffffff82169050919050565b600073ffffffffffffffffffffffffffffffffffffffff82169050919050565b6000819050919050565b600063ffffffff82169050919050565b600067ffffffffffffffff82169050919050565b600060ff82169050919050565b60006172268261722d565b9050919050565b60006172388261723f565b9050919050565b600061724a826171c0565b9050919050565b82818337600083830152505050565b60005b8381101561727e578082015181840152602081019050617263565b8381111561728d576000848401525b50505050565b600060028204905060018216806172ab57607f821691505b602082108114156172bf576172be61736c565b5b50919050565b60006172d0826171e0565b91507fffffffffffffffffffffffffffffffffffffffffffffffffffffffffffffffff8214156173035761730261730e565b5b600182019050919050565b7f4e487b7100000000000000000000000000000000000000000000000000000000600052601160045260246000fd5b7f4e487b7100000000000000000000000000000000000000000000000000000000600052601260045260246000fd5b7f4e487b7100000000000000000000000000000000000000000000000000000000600052602260045260246000fd5b6000601f19601f8301169050919050565b7f447574636841756374696f6e3a205061796d656e742063757272656e6379206960008201527f73206e6f74206120746f6b656e00000000000000000000000000000000000000602082015250565b7f447574636841756374696f6e3a20656e642074696d65206d757374206265206f60008201527f6c646572207468616e2073746172742074696d65000000000000000000000000602082015250565b7f426f72696e674d6174683a20556e646572666c6f770000000000000000000000600082015250565b7f447574636841756374696f6e3a204e6f20746f6b656e7320746f20636c61696d600082015250565b7f447574636841756374696f6e3a2077616c6c657420697320746865207a65726f60008201527f2061646472657373000000000000000000000000000000000000000000000000602082015250565b7f416c726561647920696e697469616c6973656400000000000000000000000000600082015250565b7f456e756d657261626c655365743a20696e646578206f7574206f6620626f756e60008201527f6473000000000000000000000000000000000000000000000000000000000000602082015250565b7f416363657373436f6e74726f6c3a2073656e646572206d75737420626520616e60008201527f2061646d696e20746f206772616e740000000000000000000000000000000000602082015250565b7f447574636841756374696f6e3a205061796d656e742063757272656e6379206960008201527f73206e6f74204552433230000000000000000000000000000000000000000000602082015250565b7f447574636841756374696f6e3a206d696e696d756d207072696365206d75737460008201527f2062652067726561746572207468616e20300000000000000000000000000000602082015250565b7f447574636841756374696f6e3a2061756374696f6e20616c726561647920666960008201527f6e616c697a656400000000000000000000000000000000000000000000000000602082015250565b7f447574636841756374696f6e3a20656e74657220616e20756e69782074696d6560008201527f7374616d7020696e207365636f6e64732c206e6f74206d696c697365636f6e6460208201527f7300000000000000000000000000000000000000000000000000000000000000604082015250565b7f447574636841756374696f6e3a2061756374696f6e20616c726561647920636f60008201527f6d6d697474656400000000000000000000000000000000000000000000000000602082015250565b7f4e6f2061677265656d656e742070726f76696465642c20706c6561736520726560008201527f766965772074686520736d61727420636f6e7472616374206265666f7265206960208201527f6e746572616374696e6720776974682069740000000000000000000000000000604082015250565b7f447574636841756374696f6e3a2073746172742074696d65206973206265666f60008201527f72652063757272656e742074696d650000000000000000000000000000000000602082015250565b7f446f63756d656e742073686f756c642065786973740000000000000000000000600082015250565b7f447574636841756374696f6e3a20746f74616c20746f6b656e73206d7573742060008201527f62652067726561746572207468616e207a65726f000000000000000000000000602082015250565b7f426f72696e674d6174683a2075696e74313238204f766572666c6f7700000000600082015250565b7f416363657373436f6e74726f6c3a2073656e646572206d75737420626520616e60008201527f2061646d696e20746f207265766f6b6500000000000000000000000000000000602082015250565b7f426f72696e674d6174683a20416464204f766572666c6f770000000000000000600082015250565b7f5a65726f206e616d65206973206e6f7420616c6c6f7765640000000000000000600082015250565b7f447574636841756374696f6e3a206f7574736964652061756374696f6e20686f60008201527f7572730000000000000000000000000000000000000000000000000000000000602082015250565b7f426f72696e674d6174683a2075696e743634204f766572666c6f770000000000600082015250565b7f447574636841756374696f6e3a207061796d656e742063757272656e6379206960008201527f73206e6f74204554482061646472657373000000000000000000000000000000602082015250565b7f447574636841756374696f6e3a2073656e646572206d75737420626520616e2060008201527f61646d696e000000000000000000000000000000000000000000000000000000602082015250565b7f447574636841756374696f6e3a20656e642074696d65206d757374206265206f60008201527f6c646572207468616e2073746172742070726963650000000000000000000000602082015250565b7f447574636841756374696f6e3a206e6f742066696e616c697a65640000000000600082015250565b7f5472616e7366657248656c7065723a204554485f5452414e534645525f46414960008201527f4c45440000000000000000000000000000000000000000000000000000000000602082015250565b7f496e646578206f7574206f6620626f756e647300000000000000000000000000600082015250565b7f53686f756c64206e6f74206265206120656d7074792064617461000000000000600082015250565b7f447574636841756374696f6e3a2061756374696f6e20686173206e6f7420666960008201527f6e69736865642079657400000000000000000000000000000000000000000000602082015250565b7f447574636841756374696f6e3a20546f6b656e20646f6573206e6f742068617660008201527f6520313820646563696d616c7300000000000000000000000000000000000000602082015250565b7f5265656e7472616e637947756172643a207265656e7472616e742063616c6c00600082015250565b7f447574636841756374696f6e3a2061756374696f6e2063616e6e6f742068617660008201527f6520616c72656164792073746172746564000000000000000000000000000000602082015250565b7f426f72696e674d6174683a204d756c204f766572666c6f770000000000000000600082015250565b7f447574636841756374696f6e3a207374617274207072696365206d757374206260008201527f6520686967686572207468616e206d696e696d756d2070726963650000000000602082015250565b7f447574636841756374696f6e3a2061646d696e20697320746865207a65726f2060008201527f6164647265737300000000000000000000000000000000000000000000000000602082015250565b7f416363657373436f6e74726f6c3a2063616e206f6e6c792072656e6f756e636560008201527f20726f6c657320666f722073656c660000000000000000000000000000000000602082015250565b7f426f72696e674d6174683a20446976207a65726f000000000000000000000000600082015250565b617df68161716a565b8114617e0157600080fd5b50565b617e0d8161717c565b8114617e1857600080fd5b50565b617e248161718e565b8114617e2f57600080fd5b50565b617e3b8161719a565b8114617e4657600080fd5b50565b617e52816171e0565b8114617e5d57600080fd5b50565b617e698161720e565b8114617e7457600080fd5b5056fe4920756e6465727374616e6420746861742049276d20696e746572616374696e672077697468206120736d61727420636f6e74726163742e204920756e6465727374616e64207468617420746f6b656e7320636f6d6d6974656420617265207375626a65637420746f2074686520746f6b656e2069737375657220616e64206c6f63616c206c617773207768657265206170706c696361626c652e204920726576696577656420636f6465206f662074686520736d61727420636f6e747261637420616e6420756e6465727374616e642069742066756c6c792e204920616772656520746f206e6f7420686f6c6420646576656c6f70657273206f72206f746865722070656f706c65206173736f6369617465642077697468207468652070726f6a656374206c6961626c6520666f7220616e79206c6f73736573206f72206d6973756e6465727374616e64696e6773a2646970667358221220cafd42d36b4eba6fa6d2dec064ada67842e4c1013817c5e4faaed35492a232ae64736f6c63430008040033",
  "linkReferences": {},
  "deployedLinkReferences": {}
}