{
  "_format": "hh-sol-artifact-1",
  "contractName": "DutchAuction",
  "sourceName": "contracts/Auctions/DutchAuction.sol",
  "abi": [
    {
      "anonymous": false,
      "inputs": [
        {
          "indexed": false,
          "internalType": "address",
          "name": "addr",
          "type": "address"
        },
        {
          "indexed": false,
          "internalType": "uint256",
          "name": "commitment",
          "type": "uint256"
        }
      ],
      "name": "AddedCommitment",
      "type": "event"
    },
    {
      "anonymous": false,
      "inputs": [
        {
          "indexed": true,
          "internalType": "address",
          "name": "beneficiary",
          "type": "address"
        },
        {
          "indexed": true,
          "internalType": "address",
          "name": "caller",
          "type": "address"
        }
      ],
      "name": "AdminRoleGranted",
      "type": "event"
    },
    {
      "anonymous": false,
      "inputs": [
        {
          "indexed": true,
          "internalType": "address",
          "name": "beneficiary",
          "type": "address"
        },
        {
          "indexed": true,
          "internalType": "address",
          "name": "caller",
          "type": "address"
        }
      ],
      "name": "AdminRoleRemoved",
      "type": "event"
    },
    {
      "anonymous": false,
      "inputs": [],
      "name": "AuctionCancelled",
      "type": "event"
    },
    {
      "anonymous": false,
      "inputs": [],
      "name": "AuctionFinalized",
      "type": "event"
    },
    {
      "anonymous": false,
      "inputs": [
        {
          "indexed": false,
          "internalType": "uint256",
          "name": "startPrice",
          "type": "uint256"
        },
        {
          "indexed": false,
          "internalType": "uint256",
          "name": "minimumPrice",
          "type": "uint256"
        }
      ],
      "name": "AuctionPriceUpdated",
      "type": "event"
    },
    {
      "anonymous": false,
      "inputs": [
        {
          "indexed": false,
          "internalType": "uint256",
          "name": "startTime",
          "type": "uint256"
        },
        {
          "indexed": false,
          "internalType": "uint256",
          "name": "endTime",
          "type": "uint256"
        }
      ],
      "name": "AuctionTimeUpdated",
      "type": "event"
    },
    {
      "anonymous": false,
      "inputs": [
        {
          "indexed": false,
          "internalType": "address",
          "name": "wallet",
          "type": "address"
        }
      ],
      "name": "AuctionWalletUpdated",
      "type": "event"
    },
    {
      "anonymous": false,
      "inputs": [
        {
          "indexed": true,
          "internalType": "string",
          "name": "_name",
          "type": "string"
        },
        {
          "indexed": false,
          "internalType": "string",
          "name": "_data",
          "type": "string"
        }
      ],
      "name": "DocumentRemoved",
      "type": "event"
    },
    {
      "anonymous": false,
      "inputs": [
        {
          "indexed": true,
          "internalType": "string",
          "name": "_name",
          "type": "string"
        },
        {
          "indexed": false,
          "internalType": "string",
          "name": "_data",
          "type": "string"
        }
      ],
      "name": "DocumentUpdated",
      "type": "event"
    },
    {
      "anonymous": false,
      "inputs": [
        {
          "indexed": true,
          "internalType": "address",
          "name": "beneficiary",
          "type": "address"
        },
        {
          "indexed": true,
          "internalType": "address",
          "name": "caller",
          "type": "address"
        }
      ],
      "name": "MinterRoleGranted",
      "type": "event"
    },
    {
      "anonymous": false,
      "inputs": [
        {
          "indexed": true,
          "internalType": "address",
          "name": "beneficiary",
          "type": "address"
        },
        {
          "indexed": true,
          "internalType": "address",
          "name": "caller",
          "type": "address"
        }
      ],
      "name": "MinterRoleRemoved",
      "type": "event"
    },
    {
      "anonymous": false,
      "inputs": [
        {
          "indexed": true,
          "internalType": "address",
          "name": "beneficiary",
          "type": "address"
        },
        {
          "indexed": true,
          "internalType": "address",
          "name": "caller",
          "type": "address"
        }
      ],
      "name": "OperatorRoleGranted",
      "type": "event"
    },
    {
      "anonymous": false,
      "inputs": [
        {
          "indexed": true,
          "internalType": "address",
          "name": "beneficiary",
          "type": "address"
        },
        {
          "indexed": true,
          "internalType": "address",
          "name": "caller",
          "type": "address"
        }
      ],
      "name": "OperatorRoleRemoved",
      "type": "event"
    },
    {
      "anonymous": false,
      "inputs": [
        {
          "indexed": true,
          "internalType": "bytes32",
          "name": "role",
          "type": "bytes32"
        },
        {
          "indexed": true,
          "internalType": "bytes32",
          "name": "previousAdminRole",
          "type": "bytes32"
        },
        {
          "indexed": true,
          "internalType": "bytes32",
          "name": "newAdminRole",
          "type": "bytes32"
        }
      ],
      "name": "RoleAdminChanged",
      "type": "event"
    },
    {
      "anonymous": false,
      "inputs": [
        {
          "indexed": true,
          "internalType": "bytes32",
          "name": "role",
          "type": "bytes32"
        },
        {
          "indexed": true,
          "internalType": "address",
          "name": "account",
          "type": "address"
        },
        {
          "indexed": true,
          "internalType": "address",
          "name": "sender",
          "type": "address"
        }
      ],
      "name": "RoleGranted",
      "type": "event"
    },
    {
      "anonymous": false,
      "inputs": [
        {
          "indexed": true,
          "internalType": "bytes32",
          "name": "role",
          "type": "bytes32"
        },
        {
          "indexed": true,
          "internalType": "address",
          "name": "account",
          "type": "address"
        },
        {
          "indexed": true,
          "internalType": "address",
          "name": "sender",
          "type": "address"
        }
      ],
      "name": "RoleRevoked",
      "type": "event"
    },
    {
      "anonymous": false,
      "inputs": [
        {
          "indexed": true,
          "internalType": "address",
          "name": "beneficiary",
          "type": "address"
        },
        {
          "indexed": true,
          "internalType": "address",
          "name": "caller",
          "type": "address"
        }
      ],
      "name": "SmartContractRoleGranted",
      "type": "event"
    },
    {
      "anonymous": false,
      "inputs": [
        {
          "indexed": true,
          "internalType": "address",
          "name": "beneficiary",
          "type": "address"
        },
        {
          "indexed": true,
          "internalType": "address",
          "name": "caller",
          "type": "address"
        }
      ],
      "name": "SmartContractRoleRemoved",
      "type": "event"
    },
    {
      "inputs": [],
      "name": "DEFAULT_ADMIN_ROLE",
      "outputs": [
        {
          "internalType": "bytes32",
          "name": "",
          "type": "bytes32"
        }
      ],
      "stateMutability": "view",
      "type": "function"
    },
    {
      "inputs": [],
      "name": "MINTER_ROLE",
      "outputs": [
        {
          "internalType": "bytes32",
          "name": "",
          "type": "bytes32"
        }
      ],
      "stateMutability": "view",
      "type": "function"
    },
    {
      "inputs": [],
      "name": "OPERATOR_ROLE",
      "outputs": [
        {
          "internalType": "bytes32",
          "name": "",
          "type": "bytes32"
        }
      ],
      "stateMutability": "view",
      "type": "function"
    },
    {
      "inputs": [],
      "name": "SMART_CONTRACT_ROLE",
      "outputs": [
        {
          "internalType": "bytes32",
          "name": "",
          "type": "bytes32"
        }
      ],
      "stateMutability": "view",
      "type": "function"
    },
    {
      "inputs": [
        {
          "internalType": "address",
          "name": "_address",
          "type": "address"
        }
      ],
      "name": "addAdminRole",
      "outputs": [],
      "stateMutability": "nonpayable",
      "type": "function"
    },
    {
      "inputs": [
        {
          "internalType": "address",
          "name": "_address",
          "type": "address"
        }
      ],
      "name": "addMinterRole",
      "outputs": [],
      "stateMutability": "nonpayable",
      "type": "function"
    },
    {
      "inputs": [
        {
          "internalType": "address",
          "name": "_address",
          "type": "address"
        }
      ],
      "name": "addOperatorRole",
      "outputs": [],
      "stateMutability": "nonpayable",
      "type": "function"
    },
    {
      "inputs": [
        {
          "internalType": "address",
          "name": "_address",
          "type": "address"
        }
      ],
      "name": "addSmartContractRole",
      "outputs": [],
      "stateMutability": "nonpayable",
      "type": "function"
    },
    {
      "inputs": [],
      "name": "auctionEnded",
      "outputs": [
        {
          "internalType": "bool",
          "name": "",
          "type": "bool"
        }
      ],
      "stateMutability": "view",
      "type": "function"
    },
    {
      "inputs": [],
      "name": "auctionSuccessful",
      "outputs": [
        {
          "internalType": "bool",
          "name": "",
          "type": "bool"
        }
      ],
      "stateMutability": "view",
      "type": "function"
    },
    {
      "inputs": [],
      "name": "auctionToken",
      "outputs": [
        {
          "internalType": "address",
          "name": "",
          "type": "address"
        }
      ],
      "stateMutability": "view",
      "type": "function"
    },
    {
      "inputs": [
        {
          "internalType": "uint256",
          "name": "_commitment",
          "type": "uint256"
        }
      ],
      "name": "calculateCommitment",
      "outputs": [
        {
          "internalType": "uint256",
          "name": "committed",
          "type": "uint256"
        }
      ],
      "stateMutability": "view",
      "type": "function"
    },
    {
      "inputs": [],
      "name": "cancelAuction",
      "outputs": [],
      "stateMutability": "nonpayable",
      "type": "function"
    },
    {
      "inputs": [
        {
          "internalType": "address",
          "name": "",
          "type": "address"
        }
      ],
      "name": "claimed",
      "outputs": [
        {
          "internalType": "uint256",
          "name": "",
          "type": "uint256"
        }
      ],
      "stateMutability": "view",
      "type": "function"
    },
    {
      "inputs": [],
      "name": "clearingPrice",
      "outputs": [
        {
          "internalType": "uint256",
          "name": "",
          "type": "uint256"
        }
      ],
      "stateMutability": "view",
      "type": "function"
    },
    {
      "inputs": [
        {
          "internalType": "address payable",
          "name": "_beneficiary",
          "type": "address"
        },
        {
          "internalType": "bool",
          "name": "readAndAgreedToMarketParticipationAgreement",
          "type": "bool"
        }
      ],
      "name": "commitEth",
      "outputs": [],
      "stateMutability": "payable",
      "type": "function"
    },
    {
      "inputs": [
        {
          "internalType": "uint256",
          "name": "_amount",
          "type": "uint256"
        },
        {
          "internalType": "bool",
          "name": "readAndAgreedToMarketParticipationAgreement",
          "type": "bool"
        }
      ],
      "name": "commitTokens",
      "outputs": [],
      "stateMutability": "nonpayable",
      "type": "function"
    },
    {
      "inputs": [
        {
          "internalType": "address",
          "name": "_from",
          "type": "address"
        },
        {
          "internalType": "uint256",
          "name": "_amount",
          "type": "uint256"
        },
        {
          "internalType": "bool",
          "name": "readAndAgreedToMarketParticipationAgreement",
          "type": "bool"
        }
      ],
      "name": "commitTokensFrom",
      "outputs": [],
      "stateMutability": "nonpayable",
      "type": "function"
    },
    {
      "inputs": [
        {
          "internalType": "address",
          "name": "",
          "type": "address"
        }
      ],
      "name": "commitments",
      "outputs": [
        {
          "internalType": "uint256",
          "name": "",
          "type": "uint256"
        }
      ],
      "stateMutability": "view",
      "type": "function"
    },
    {
      "inputs": [
        {
          "internalType": "bool",
          "name": "_status",
          "type": "bool"
        }
      ],
      "name": "enableList",
      "outputs": [],
      "stateMutability": "nonpayable",
      "type": "function"
    },
    {
      "inputs": [],
      "name": "finalize",
      "outputs": [],
      "stateMutability": "nonpayable",
      "type": "function"
    },
    {
      "inputs": [],
      "name": "finalizeTimeExpired",
      "outputs": [
        {
          "internalType": "bool",
          "name": "",
          "type": "bool"
        }
      ],
      "stateMutability": "view",
      "type": "function"
    },
    {
      "inputs": [],
      "name": "finalized",
      "outputs": [
        {
          "internalType": "bool",
          "name": "",
          "type": "bool"
        }
      ],
      "stateMutability": "view",
      "type": "function"
    },
    {
      "inputs": [],
      "name": "getAllDocuments",
      "outputs": [
        {
          "internalType": "string[]",
          "name": "",
          "type": "string[]"
        }
      ],
      "stateMutability": "view",
      "type": "function"
    },
    {
      "inputs": [
        {
          "internalType": "address",
          "name": "_funder",
          "type": "address"
        },
        {
          "internalType": "address",
          "name": "_token",
          "type": "address"
        },
        {
          "internalType": "uint256",
          "name": "_totalTokens",
          "type": "uint256"
        },
        {
          "internalType": "uint256",
          "name": "_startTime",
          "type": "uint256"
        },
        {
          "internalType": "uint256",
          "name": "_endTime",
          "type": "uint256"
        },
        {
          "internalType": "address",
          "name": "_paymentCurrency",
          "type": "address"
        },
        {
          "internalType": "uint256",
          "name": "_startPrice",
          "type": "uint256"
        },
        {
          "internalType": "uint256",
          "name": "_minimumPrice",
          "type": "uint256"
        },
        {
          "internalType": "address",
          "name": "_admin",
          "type": "address"
        },
        {
          "internalType": "address",
          "name": "_pointList",
          "type": "address"
        },
        {
          "internalType": "address payable",
          "name": "_wallet",
          "type": "address"
        }
      ],
      "name": "getAuctionInitData",
      "outputs": [
        {
          "internalType": "bytes",
          "name": "_data",
          "type": "bytes"
        }
      ],
      "stateMutability": "pure",
      "type": "function"
    },
    {
      "inputs": [],
      "name": "getBaseInformation",
      "outputs": [
        {
          "internalType": "address",
          "name": "",
          "type": "address"
        },
        {
          "internalType": "uint64",
          "name": "",
          "type": "uint64"
        },
        {
          "internalType": "uint64",
          "name": "",
          "type": "uint64"
        },
        {
          "internalType": "bool",
          "name": "",
          "type": "bool"
        }
      ],
      "stateMutability": "view",
      "type": "function"
    },
    {
      "inputs": [
        {
          "internalType": "string",
          "name": "_name",
          "type": "string"
        }
      ],
      "name": "getDocument",
      "outputs": [
        {
          "internalType": "string",
          "name": "",
          "type": "string"
        },
        {
          "internalType": "uint256",
          "name": "",
          "type": "uint256"
        }
      ],
      "stateMutability": "view",
      "type": "function"
    },
    {
      "inputs": [],
      "name": "getDocumentCount",
      "outputs": [
        {
          "internalType": "uint256",
          "name": "",
          "type": "uint256"
        }
      ],
      "stateMutability": "view",
      "type": "function"
    },
    {
      "inputs": [
        {
          "internalType": "uint256",
          "name": "_index",
          "type": "uint256"
        }
      ],
      "name": "getDocumentName",
      "outputs": [
        {
          "internalType": "string",
          "name": "",
          "type": "string"
        }
      ],
      "stateMutability": "view",
      "type": "function"
    },
    {
      "inputs": [
        {
          "internalType": "bytes32",
          "name": "role",
          "type": "bytes32"
        }
      ],
      "name": "getRoleAdmin",
      "outputs": [
        {
          "internalType": "bytes32",
          "name": "",
          "type": "bytes32"
        }
      ],
      "stateMutability": "view",
      "type": "function"
    },
    {
      "inputs": [
        {
          "internalType": "bytes32",
          "name": "role",
          "type": "bytes32"
        },
        {
          "internalType": "uint256",
          "name": "index",
          "type": "uint256"
        }
      ],
      "name": "getRoleMember",
      "outputs": [
        {
          "internalType": "address",
          "name": "",
          "type": "address"
        }
      ],
      "stateMutability": "view",
      "type": "function"
    },
    {
      "inputs": [
        {
          "internalType": "bytes32",
          "name": "role",
          "type": "bytes32"
        }
      ],
      "name": "getRoleMemberCount",
      "outputs": [
        {
          "internalType": "uint256",
          "name": "",
          "type": "uint256"
        }
      ],
      "stateMutability": "view",
      "type": "function"
    },
    {
      "inputs": [],
      "name": "getTotalTokens",
      "outputs": [
        {
          "internalType": "uint256",
          "name": "",
          "type": "uint256"
        }
      ],
      "stateMutability": "view",
      "type": "function"
    },
    {
      "inputs": [
        {
          "internalType": "bytes32",
          "name": "role",
          "type": "bytes32"
        },
        {
          "internalType": "address",
          "name": "account",
          "type": "address"
        }
      ],
      "name": "grantRole",
      "outputs": [],
      "stateMutability": "nonpayable",
      "type": "function"
    },
    {
      "inputs": [
        {
          "internalType": "address",
          "name": "_address",
          "type": "address"
        }
      ],
      "name": "hasAdminRole",
      "outputs": [
        {
          "internalType": "bool",
          "name": "",
          "type": "bool"
        }
      ],
      "stateMutability": "view",
      "type": "function"
    },
    {
      "inputs": [
        {
          "internalType": "address",
          "name": "_address",
          "type": "address"
        }
      ],
      "name": "hasMinterRole",
      "outputs": [
        {
          "internalType": "bool",
          "name": "",
          "type": "bool"
        }
      ],
      "stateMutability": "view",
      "type": "function"
    },
    {
      "inputs": [
        {
          "internalType": "address",
          "name": "_address",
          "type": "address"
        }
      ],
      "name": "hasOperatorRole",
      "outputs": [
        {
          "internalType": "bool",
          "name": "",
          "type": "bool"
        }
      ],
      "stateMutability": "view",
      "type": "function"
    },
    {
      "inputs": [
        {
          "internalType": "bytes32",
          "name": "role",
          "type": "bytes32"
        },
        {
          "internalType": "address",
          "name": "account",
          "type": "address"
        }
      ],
      "name": "hasRole",
      "outputs": [
        {
          "internalType": "bool",
          "name": "",
          "type": "bool"
        }
      ],
      "stateMutability": "view",
      "type": "function"
    },
    {
      "inputs": [
        {
          "internalType": "address",
          "name": "_address",
          "type": "address"
        }
      ],
      "name": "hasSmartContractRole",
      "outputs": [
        {
          "internalType": "bool",
          "name": "",
          "type": "bool"
        }
      ],
      "stateMutability": "view",
      "type": "function"
    },
    {
      "inputs": [
        {
          "internalType": "bytes",
          "name": "_data",
          "type": "bytes"
        }
      ],
      "name": "init",
      "outputs": [],
      "stateMutability": "payable",
      "type": "function"
    },
    {
      "inputs": [
        {
          "internalType": "address",
          "name": "_admin",
          "type": "address"
        }
      ],
      "name": "initAccessControls",
      "outputs": [],
      "stateMutability": "nonpayable",
      "type": "function"
    },
    {
      "inputs": [
        {
          "internalType": "address",
          "name": "_funder",
          "type": "address"
        },
        {
          "internalType": "address",
          "name": "_token",
          "type": "address"
        },
        {
          "internalType": "uint256",
          "name": "_totalTokens",
          "type": "uint256"
        },
        {
          "internalType": "uint256",
          "name": "_startTime",
          "type": "uint256"
        },
        {
          "internalType": "uint256",
          "name": "_endTime",
          "type": "uint256"
        },
        {
          "internalType": "address",
          "name": "_paymentCurrency",
          "type": "address"
        },
        {
          "internalType": "uint256",
          "name": "_startPrice",
          "type": "uint256"
        },
        {
          "internalType": "uint256",
          "name": "_minimumPrice",
          "type": "uint256"
        },
        {
          "internalType": "address",
          "name": "_admin",
          "type": "address"
        },
        {
          "internalType": "address",
          "name": "_pointList",
          "type": "address"
        },
        {
          "internalType": "address payable",
          "name": "_wallet",
          "type": "address"
        }
      ],
      "name": "initAuction",
      "outputs": [],
      "stateMutability": "nonpayable",
      "type": "function"
    },
    {
      "inputs": [
        {
          "internalType": "bytes",
          "name": "_data",
          "type": "bytes"
        }
      ],
      "name": "initMarket",
      "outputs": [],
      "stateMutability": "nonpayable",
      "type": "function"
    },
    {
      "inputs": [],
      "name": "isOpen",
      "outputs": [
        {
          "internalType": "bool",
          "name": "",
          "type": "bool"
        }
      ],
      "stateMutability": "view",
      "type": "function"
    },
    {
      "inputs": [],
      "name": "marketInfo",
      "outputs": [
        {
          "internalType": "uint64",
          "name": "startTime",
          "type": "uint64"
        },
        {
          "internalType": "uint64",
          "name": "endTime",
          "type": "uint64"
        },
        {
          "internalType": "uint128",
          "name": "totalTokens",
          "type": "uint128"
        }
      ],
      "stateMutability": "view",
      "type": "function"
    },
    {
      "inputs": [],
      "name": "marketParticipationAgreement",
      "outputs": [
        {
          "internalType": "string",
          "name": "",
          "type": "string"
        }
      ],
      "stateMutability": "pure",
      "type": "function"
    },
    {
      "inputs": [],
      "name": "marketPrice",
      "outputs": [
        {
          "internalType": "uint128",
          "name": "startPrice",
          "type": "uint128"
        },
        {
          "internalType": "uint128",
          "name": "minimumPrice",
          "type": "uint128"
        }
      ],
      "stateMutability": "view",
      "type": "function"
    },
    {
      "inputs": [],
      "name": "marketStatus",
      "outputs": [
        {
          "internalType": "uint128",
          "name": "commitmentsTotal",
          "type": "uint128"
        },
        {
          "internalType": "bool",
          "name": "finalized",
          "type": "bool"
        },
        {
          "internalType": "bool",
          "name": "usePointList",
          "type": "bool"
        }
      ],
      "stateMutability": "view",
      "type": "function"
    },
    {
      "inputs": [],
      "name": "marketTemplate",
      "outputs": [
        {
          "internalType": "uint256",
          "name": "",
          "type": "uint256"
        }
      ],
      "stateMutability": "view",
      "type": "function"
    },
    {
      "inputs": [],
      "name": "paymentCurrency",
      "outputs": [
        {
          "internalType": "address",
          "name": "",
          "type": "address"
        }
      ],
      "stateMutability": "view",
      "type": "function"
    },
    {
      "inputs": [],
      "name": "pointList",
      "outputs": [
        {
          "internalType": "address",
          "name": "",
          "type": "address"
        }
      ],
      "stateMutability": "view",
      "type": "function"
    },
    {
      "inputs": [],
      "name": "priceDrop",
      "outputs": [
        {
          "internalType": "uint256",
          "name": "",
          "type": "uint256"
        }
      ],
      "stateMutability": "view",
      "type": "function"
    },
    {
      "inputs": [],
      "name": "priceFunction",
      "outputs": [
        {
          "internalType": "uint256",
          "name": "",
          "type": "uint256"
        }
      ],
      "stateMutability": "view",
      "type": "function"
    },
    {
      "inputs": [
        {
          "internalType": "address",
          "name": "_address",
          "type": "address"
        }
      ],
      "name": "removeAdminRole",
      "outputs": [],
      "stateMutability": "nonpayable",
      "type": "function"
    },
    {
      "inputs": [
        {
          "internalType": "string",
          "name": "_name",
          "type": "string"
        }
      ],
      "name": "removeDocument",
      "outputs": [],
      "stateMutability": "nonpayable",
      "type": "function"
    },
    {
      "inputs": [
        {
          "internalType": "address",
          "name": "_address",
          "type": "address"
        }
      ],
      "name": "removeMinterRole",
      "outputs": [],
      "stateMutability": "nonpayable",
      "type": "function"
    },
    {
      "inputs": [
        {
          "internalType": "address",
          "name": "_address",
          "type": "address"
        }
      ],
      "name": "removeOperatorRole",
      "outputs": [],
      "stateMutability": "nonpayable",
      "type": "function"
    },
    {
      "inputs": [
        {
          "internalType": "address",
          "name": "_address",
          "type": "address"
        }
      ],
      "name": "removeSmartContractRole",
      "outputs": [],
      "stateMutability": "nonpayable",
      "type": "function"
    },
    {
      "inputs": [
        {
          "internalType": "bytes32",
          "name": "role",
          "type": "bytes32"
        },
        {
          "internalType": "address",
          "name": "account",
          "type": "address"
        }
      ],
      "name": "renounceRole",
      "outputs": [],
      "stateMutability": "nonpayable",
      "type": "function"
    },
    {
      "inputs": [
        {
          "internalType": "bytes32",
          "name": "role",
          "type": "bytes32"
        },
        {
          "internalType": "address",
          "name": "account",
          "type": "address"
        }
      ],
      "name": "revokeRole",
      "outputs": [],
      "stateMutability": "nonpayable",
      "type": "function"
    },
    {
      "inputs": [
        {
          "internalType": "uint256",
          "name": "_startPrice",
          "type": "uint256"
        },
        {
          "internalType": "uint256",
          "name": "_minimumPrice",
          "type": "uint256"
        }
      ],
      "name": "setAuctionPrice",
      "outputs": [],
      "stateMutability": "nonpayable",
      "type": "function"
    },
    {
      "inputs": [
        {
          "internalType": "uint256",
          "name": "_startTime",
          "type": "uint256"
        },
        {
          "internalType": "uint256",
          "name": "_endTime",
          "type": "uint256"
        }
      ],
      "name": "setAuctionTime",
      "outputs": [],
      "stateMutability": "nonpayable",
      "type": "function"
    },
    {
      "inputs": [
        {
          "internalType": "address payable",
          "name": "_wallet",
          "type": "address"
        }
      ],
      "name": "setAuctionWallet",
      "outputs": [],
      "stateMutability": "nonpayable",
      "type": "function"
    },
    {
      "inputs": [
        {
          "internalType": "string",
          "name": "_name",
          "type": "string"
        },
        {
          "internalType": "string",
          "name": "_data",
          "type": "string"
        }
      ],
      "name": "setDocument",
      "outputs": [],
      "stateMutability": "nonpayable",
      "type": "function"
    },
    {
      "inputs": [
        {
          "internalType": "string[]",
          "name": "_name",
          "type": "string[]"
        },
        {
          "internalType": "string[]",
          "name": "_data",
          "type": "string[]"
        }
      ],
      "name": "setDocuments",
      "outputs": [],
      "stateMutability": "nonpayable",
      "type": "function"
    },
    {
      "inputs": [
        {
          "internalType": "address",
          "name": "_list",
          "type": "address"
        }
      ],
      "name": "setList",
      "outputs": [],
      "stateMutability": "nonpayable",
      "type": "function"
    },
    {
      "inputs": [],
      "name": "tokenPrice",
      "outputs": [
        {
          "internalType": "uint256",
          "name": "",
          "type": "uint256"
        }
      ],
      "stateMutability": "view",
      "type": "function"
    },
    {
      "inputs": [
        {
          "internalType": "address",
          "name": "_user",
          "type": "address"
        }
      ],
      "name": "tokensClaimable",
      "outputs": [
        {
          "internalType": "uint256",
          "name": "claimerCommitment",
          "type": "uint256"
        }
      ],
      "stateMutability": "view",
      "type": "function"
    },
    {
      "inputs": [],
      "name": "totalTokensCommitted",
      "outputs": [
        {
          "internalType": "uint256",
          "name": "",
          "type": "uint256"
        }
      ],
      "stateMutability": "view",
      "type": "function"
    },
    {
      "inputs": [],
      "name": "wallet",
      "outputs": [
        {
          "internalType": "address payable",
          "name": "",
          "type": "address"
        }
      ],
      "stateMutability": "view",
      "type": "function"
    },
    {
      "inputs": [
        {
          "internalType": "address payable",
          "name": "beneficiary",
          "type": "address"
        }
      ],
      "name": "withdrawTokens",
      "outputs": [],
      "stateMutability": "nonpayable",
      "type": "function"
    },
    {
      "inputs": [],
      "name": "withdrawTokens",
      "outputs": [],
      "stateMutability": "nonpayable",
      "type": "function"
    },
    {
      "stateMutability": "payable",
      "type": "receive"
    }
  ],
  "bytecode": "0x608060405234801561001057600080fd5b506001600555614f3a806100256000396000f3fe60806040526004361061049f5760003560e01c80638a845fc01161025e578063c6b547e611610143578063dccfe310116100bb578063e8fcf7231161008a578063f08b82e61161006f578063f08b82e614610ea2578063f5b541a614610ec7578063fc4e3e0a14610efb57600080fd5b8063e8fcf72314610e55578063f04899d314610e8257600080fd5b8063dccfe31014610d98578063dde51f6d14610db8578063e0e081d714610dd8578063e6594abd14610e3557600080fd5b8063d539139311610112578063d69d3e62116100f7578063d69d3e6214610d43578063d7568b6e14610d63578063dc97e08214610d7857600080fd5b8063d539139314610cef578063d547741f14610d2357600080fd5b8063c6b547e614610c62578063c884ef8314610c82578063c92bce8714610caf578063ca15c87314610ccf57600080fd5b80639c64d0ae116101d6578063adbf3776116101a5578063b3f05b971161018a578063b3f05b9714610c03578063b7928b1d14610c22578063c395fcb314610c4257600080fd5b8063adbf377614610bc3578063b1f1621814610be357600080fd5b80639c64d0ae14610b575780639fa5f50b14610b77578063a217fddf14610b99578063a9d87ee614610bae57600080fd5b8063919e93b51161022d5780639478941c116102125780639478941c14610af757806399fdb32014610b175780639a87222c14610b3757600080fd5b8063919e93b514610ac257806391d1485414610ad757600080fd5b80638a845fc014610a585780638d8f2adb14610a785780638fa8b79014610a8d5780639010d07c14610aa257600080fd5b806347535d7b116103845780636ae260c1116102fc5780637ff9b596116102cb57806384720f16116102b057806384720f1614610978578063857d260814610a0f5780638643337414610a4357600080fd5b80637ff9b5961461094357806381353c8e1461095857600080fd5b80636ae260c1146108b357806373973fcb146108d357806374cf9fc5146108f35780637ccb6a641461091557600080fd5b80634dc80e1511610353578063521eb27311610338578063521eb2731461085357806354f1e126146108735780636595171c1461089357600080fd5b80634dc80e15146108215780634ddf47d41461084157600080fd5b806347535d7b146107b757806349df728c146107cc5780634b3e6abb146107ec5780634bb278f31461080c57600080fd5b80632f2ff15d1161041757806336d0054b116103e65780633d1c2273116103cb5780633d1c2273146107375780633f16431a1461074c57806345a153881461076c57600080fd5b806336d0054b146106ea5780633d15cc6d146106ff57600080fd5b80632f2ff15d14610632578063314148e21461065257806332a0f2d7146106b557806336568abe146106ca57600080fd5b80631b3e460e1161046e578063248a9ca311610453578063248a9ca3146105cf57806324e4025b146105ff578063297629601461061f57600080fd5b80631b3e460e1461058c578063212f8a81146105af57600080fd5b8063031bee00146104b3578063099db01714610527578063113b0ab214610557578063170264551461057757600080fd5b366104ae576104ac610f1b565b005b600080fd5b3480156104bf57600080fd5b506006546104f29067ffffffffffffffff80821691600160401b810490911690600160801b90046001600160801b031683565b6040805167ffffffffffffffff94851681529390921660208401526001600160801b0316908201526060015b60405180910390f35b34801561053357600080fd5b5061054761054236600461464d565b610fb4565b604051901515815260200161051e565b34801561056357600080fd5b5061054761057236600461464d565b610fe6565b34801561058357600080fd5b50610547611012565b34801561059857600080fd5b506105a1600281565b60405190815260200161051e565b3480156105bb57600080fd5b506104ac6105ca366004614778565b61103e565b3480156105db57600080fd5b506105a16105ea36600461485a565b60009081526020819052604090206002015490565b34801561060b57600080fd5b506104ac61061a366004614896565b611177565b6104ac61062d36600461471f565b611392565b34801561063e57600080fd5b506104ac61064d366004614872565b6114a2565b34801561065e57600080fd5b50600954600654600854604080516001600160a01b03909416845267ffffffffffffffff8084166020860152600160401b90930490921691830191909152600160801b900460ff161515606082015260800161051e565b3480156106c157600080fd5b506105a161153a565b3480156106d657600080fd5b506104ac6106e5366004614872565b611567565b3480156106f657600080fd5b506105476115ef565b34801561070b57600080fd5b50600a5461071f906001600160a01b031681565b6040516001600160a01b03909116815260200161051e565b34801561074357600080fd5b506004546105a1565b34801561075857600080fd5b506104ac61076736600461464d565b611608565b34801561077857600080fd5b50600754610797906001600160801b0380821691600160801b90041682565b604080516001600160801b0393841681529290911660208301520161051e565b3480156107c357600080fd5b5061054761166b565b3480156107d857600080fd5b506104ac6107e736600461464d565b6116a0565b3480156107f857600080fd5b506104ac610807366004614822565b6118be565b34801561081857600080fd5b506104ac6118fc565b34801561082d57600080fd5b506105a161083c36600461464d565b611b9a565b6104ac61084f3660046148b7565b5050565b34801561085f57600080fd5b50600b5461071f906001600160a01b031681565b34801561087f57600080fd5b506104ac61088e36600461464d565b611cd8565b34801561089f57600080fd5b506104ac6108ae36600461464d565b611d3b565b3480156108bf57600080fd5b506104ac6108ce366004614896565b611d7f565b3480156108df57600080fd5b506105a16108ee36600461485a565b61209f565b3480156108ff57600080fd5b50610908612118565b60405161051e9190614ad9565b34801561092157600080fd5b506109356109303660046148b7565b61213b565b60405161051e929190614b1b565b34801561094f57600080fd5b506105a1612234565b34801561096457600080fd5b506104ac6109733660046148b7565b612267565b34801561098457600080fd5b50610908610993366004614757565b604080516001600160a01b039c8d1660208201529a8c168b82015260608b019990995260808a019790975260a089019590955292881660c088015260e087019190915261010086015285166101208501528416610140840152909216610160808301919091528251808303909101815261018090910190915290565b348015610a1b57600080fd5b506105a17f9d49f397ae9ef1a834b569acb967799a367061e305932181a44f5773da873bfd81565b348015610a4f57600080fd5b506105476122b7565b348015610a6457600080fd5b506104ac610a7336600461464d565b6122e1565b348015610a8457600080fd5b506104ac612344565b348015610a9957600080fd5b506104ac61234f565b348015610aae57600080fd5b5061071f610abd366004614896565b612521565b348015610ace57600080fd5b506105a1612539565b348015610ae357600080fd5b50610547610af2366004614872565b612564565b348015610b0357600080fd5b506104ac610b1236600461464d565b61257c565b348015610b2357600080fd5b5060095461071f906001600160a01b031681565b348015610b4357600080fd5b506104ac610b5236600461464d565b6125df565b348015610b6357600080fd5b506104ac610b723660046148f7565b6126b9565b348015610b8357600080fd5b50610b8c6126d7565b60405161051e9190614a78565b348015610ba557600080fd5b506105a1600081565b348015610bba57600080fd5b506105a16127b0565b348015610bcf57600080fd5b506104ac610bde36600461464d565b61280f565b348015610bef57600080fd5b506104ac610bfe366004614757565b612872565b348015610c0f57600080fd5b50600854600160801b900460ff16610547565b348015610c2e57600080fd5b506104ac610c3d36600461464d565b612ff7565b348015610c4e57600080fd5b50610547610c5d36600461464d565b61305a565b348015610c6e57600080fd5b50610908610c7d36600461485a565b613066565b348015610c8e57600080fd5b506105a1610c9d36600461464d565b600e6020526000908152604090205481565b348015610cbb57600080fd5b506104ac610cca3660046147b9565b613175565b348015610cdb57600080fd5b506105a1610cea36600461485a565b613219565b348015610cfb57600080fd5b506105a17f9f2df0fed2c77648de5860a4cc508cd0818c85b8b8a1ab4ceeef8d981c8956a681565b348015610d2f57600080fd5b506104ac610d3e366004614872565b613230565b348015610d4f57600080fd5b506104ac610d5e36600461464d565b6132be565b348015610d6f57600080fd5b506105a16132dc565b348015610d8457600080fd5b506104ac610d9336600461496c565b61339b565b348015610da457600080fd5b506104ac610db336600461464d565b6133a6565b348015610dc457600080fd5b506104ac610dd33660046148b7565b6133ea565b348015610de457600080fd5b50600854610e0e906001600160801b0381169060ff600160801b8204811691600160881b90041683565b604080516001600160801b039094168452911515602084015215159082015260600161051e565b348015610e4157600080fd5b506104ac610e5036600461464d565b613406565b348015610e6157600080fd5b506105a1610e7036600461464d565b600d6020526000908152604090205481565b348015610e8e57600080fd5b50600c5461071f906001600160a01b031681565b348015610eae57600080fd5b50600654600160801b90046001600160801b03166105a1565b348015610ed357600080fd5b506105a17f97667070c54ef182b0f5858b034beac1b6f3089aa2d3188bb1e8929f4fa9b92981565b348015610f0757600080fd5b50610547610f1636600461464d565b613473565b60405162461bcd60e51b815260206004820152605260248201527f4e6f2061677265656d656e742070726f76696465642c20706c6561736520726560448201527f766965772074686520736d61727420636f6e7472616374206265666f7265206960648201527f6e746572616374696e6720776974682069740000000000000000000000000000608482015260a4015b60405180910390fd5b6000610fe07f9f2df0fed2c77648de5860a4cc508cd0818c85b8b8a1ab4ceeef8d981c8956a683612564565b92915050565b6000610fe07f9d49f397ae9ef1a834b569acb967799a367061e305932181a44f5773da873bfd83612564565b600654600090429061103890600160401b900467ffffffffffffffff1662093a80614c03565b10905090565b600260055414156110915760405162461bcd60e51b815260206004820152601f60248201527f5265656e7472616e637947756172643a207265656e7472616e742063616c6c006044820152606401610fab565b6002600555600a546001600160a01b031673eeeeeeeeeeeeeeeeeeeeeeeeeeeeeeeeeeeeeeee141561112b5760405162461bcd60e51b815260206004820152602d60248201527f447574636841756374696f6e3a205061796d656e742063757272656e6379206960448201527f73206e6f74206120746f6b656e000000000000000000000000000000000000006064820152608401610fab565b8061113857611138610f1b565b60006111438361209f565b9050801561116c57600a54611162906001600160a01b0316338361349f565b61116c8482613594565b505060016005555050565b6111803361305a565b61118957600080fd5b8082116111fe5760405162461bcd60e51b815260206004820152603b60248201527f447574636841756374696f6e3a207374617274207072696365206d757374206260448201527f6520686967686572207468616e206d696e696d756d20707269636500000000006064820152608401610fab565b600081116112745760405162461bcd60e51b815260206004820152603260248201527f447574636841756374696f6e3a206d696e696d756d207072696365206d75737460448201527f2062652067726561746572207468616e203000000000000000000000000000006064820152608401610fab565b6008546001600160801b0316156112f35760405162461bcd60e51b815260206004820152603160248201527f447574636841756374696f6e3a2061756374696f6e2063616e6e6f742068617660448201527f6520616c726561647920737461727465640000000000000000000000000000006064820152608401610fab565b6112fc826137bb565b600780546fffffffffffffffffffffffffffffffff19166001600160801b039290921691909117905561132e816137bb565b600780546001600160801b03928316600160801b0292169190911790556040517f622a57040c34e45abc5fadeb22e4c3c687cf48a096c86694cd21a7be9e7851ee906113869084908490918252602082015260400190565b60405180910390a15050565b600a546001600160a01b031673eeeeeeeeeeeeeeeeeeeeeeeeeeeeeeeeeeeeeeee146114265760405162461bcd60e51b815260206004820152603160248201527f447574636841756374696f6e3a207061796d656e742063757272656e6379206960448201527f73206e6f742045544820616464726573730000000000000000000000000000006064820152608401610fab565b8061143357611433610f1b565b600061143e3461209f565b9050600061144c3483613818565b9050811561145e5761145e8483613594565b801561149c576040516001600160a01b0385169082156108fc029083906000818181858888f1935050505015801561149a573d6000803e3d6000fd5b505b50505050565b6000828152602081905260409020600201546114be9033612564565b6115305760405162461bcd60e51b815260206004820152602f60248201527f416363657373436f6e74726f6c3a2073656e646572206d75737420626520616e60448201527f2061646d696e20746f206772616e7400000000000000000000000000000000006064820152608401610fab565b61084f8282613876565b60006115446127b0565b61154c612234565b111561155f5761155a612234565b905090565b61155a6127b0565b6001600160a01b03811633146115e55760405162461bcd60e51b815260206004820152602f60248201527f416363657373436f6e74726f6c3a2063616e206f6e6c792072656e6f756e636560448201527f20726f6c657320666f722073656c6600000000000000000000000000000000006064820152608401610fab565b61084f82826138cf565b60006115f961153a565b611601612234565b1015905090565b6116327f9d49f397ae9ef1a834b569acb967799a367061e305932181a44f5773da873bfd826114a2565b60405133906001600160a01b038316907f1d5f9ec24c6f91be922ea13ceaad919ad6554a41b5c26087f96289a9baf98ad290600090a350565b60065460009067ffffffffffffffff16421080159061155a575050600654600160401b900467ffffffffffffffff1642111590565b600260055414156116f35760405162461bcd60e51b815260206004820152601f60248201527f5265656e7472616e637947756172643a207265656e7472616e742063616c6c006044820152606401610fab565b60026005556117006115ef565b1561181057600854600160801b900460ff1661175e5760405162461bcd60e51b815260206004820152601b60248201527f447574636841756374696f6e3a206e6f742066696e616c697a656400000000006044820152606401610fab565b600061176982611b9a565b9050600081116117bb5760405162461bcd60e51b815260206004820181905260248201527f447574636841756374696f6e3a204e6f20746f6b656e7320746f20636c61696d6044820152606401610fab565b6001600160a01b0382166000908152600e60205260409020546117de9082613928565b6001600160a01b038084166000908152600e602052604090209190915560095461180a91168383613986565b506118b6565b600654600160401b900467ffffffffffffffff1642116118855760405162461bcd60e51b815260206004820152602a60248201527f447574636841756374696f6e3a2061756374696f6e20686173206e6f742066696044820152691b9a5cda1959081e595d60b21b6064820152608401610fab565b6001600160a01b038082166000908152600d602052604081208054919055600a5490916118b491168383613986565b505b506001600555565b6118c73361305a565b6118d057600080fd5b60088054911515600160881b0271ff000000000000000000000000000000000019909216919091179055565b6002600554141561194f5760405162461bcd60e51b815260206004820152601f60248201527f5265656e7472616e637947756172643a207265656e7472616e742063616c6c006044820152606401610fab565b600260055561195d3361305a565b8061196c575061196c33610fe6565b806119815750600b546001600160a01b031633145b8061198f575061198f611012565b611a015760405162461bcd60e51b815260206004820152602560248201527f447574636841756374696f6e3a2073656e646572206d75737420626520616e2060448201527f61646d696e0000000000000000000000000000000000000000000000000000006064820152608401610fab565b60088054600160801b900460ff1615611a6c5760405162461bcd60e51b815260206004820152602760248201527f447574636841756374696f6e3a2061756374696f6e20616c72656164792066696044820152661b985b1a5e995960ca1b6064820152608401610fab565b611a746115ef565b15611aa657600a54600b548254611aa1926001600160a01b039081169216906001600160801b0316613986565b611b4b565b600654600160401b900467ffffffffffffffff164211611b1b5760405162461bcd60e51b815260206004820152602a60248201527f447574636841756374696f6e3a2061756374696f6e20686173206e6f742066696044820152691b9a5cda1959081e595d60b21b6064820152608401610fab565b600954600b54600654611b4b926001600160a01b03908116921690600160801b90046001600160801b0316613986565b805470ff000000000000000000000000000000001916600160801b1781556040517f32bebcfd2d04dbae321298091d96d2cb1d07279f59718cd83bd98245b8b82b5a90600090a1506001600555565b6001600160a01b0381166000908152600d6020526040812054611bbf57506000919050565b6009546040517f70a082310000000000000000000000000000000000000000000000000000000081523060048201526000916001600160a01b0316906370a082319060240160206040518083038186803b158015611c1c57600080fd5b505afa158015611c30573d6000803e3d6000fd5b505050506040513d601f19601f82011682018060405250810190611c549190614954565b6008546006546001600160a01b0386166000908152600d6020526040902054929350611c9d926001600160801b0392831692611c9792600160801b9004166139c5565b90613a35565b6001600160a01b0384166000908152600e6020526040902054909250611cc4908390613818565b915080821115611cd2578091505b50919050565b611d027f9f2df0fed2c77648de5860a4cc508cd0818c85b8b8a1ab4ceeef8d981c8956a682613230565b60405133906001600160a01b038316907f56692a161ffec953ddf9def93b958ea8d1ec95e21b80870c66be91a4374dc4e390600090a350565b611d466000826114a2565b60405133906001600160a01b038316907f2570ac42fd8b322dc453ada624dc2ed0e9bdd67f16f201a25bbd30468f2aa18790600090a350565b611d883361305a565b611d9157600080fd5b6402540be4008210611e155760405162461bcd60e51b815260206004820152604160248201527f447574636841756374696f6e3a20656e74657220616e20756e69782074696d6560448201527f7374616d7020696e207365636f6e64732c206e6f74206d696c697365636f6e646064820152607360f81b608482015260a401610fab565b6402540be4008110611e995760405162461bcd60e51b815260206004820152604160248201527f447574636841756374696f6e3a20656e74657220616e20756e69782074696d6560448201527f7374616d7020696e207365636f6e64732c206e6f74206d696c697365636f6e646064820152607360f81b608482015260a401610fab565b42821015611f0f5760405162461bcd60e51b815260206004820152602f60248201527f447574636841756374696f6e3a2073746172742074696d65206973206265666f60448201527f72652063757272656e742074696d6500000000000000000000000000000000006064820152608401610fab565b818111611f845760405162461bcd60e51b815260206004820152603460248201527f447574636841756374696f6e3a20656e642074696d65206d757374206265206f60448201527f6c646572207468616e2073746172742074696d650000000000000000000000006064820152608401610fab565b6008546001600160801b0316156120035760405162461bcd60e51b815260206004820152603160248201527f447574636841756374696f6e3a2061756374696f6e2063616e6e6f742068617660448201527f6520616c726561647920737461727465640000000000000000000000000000006064820152608401610fab565b61200c82613a90565b6006805467ffffffffffffffff191667ffffffffffffffff9290921691909117905561203781613a90565b6006805467ffffffffffffffff92909216600160401b026fffffffffffffffff00000000000000001990921691909117905560408051838152602081018390527f5725d1e4352d6944889e54837ffaefde55cdc0b55796b831365d61cd4c87fdb89101611386565b6000806120d2670de0b6b3a7640000611c976120b961153a565b600654600160801b90046001600160801b0316906139c5565b60085490915081906120ed906001600160801b031685613928565b11156121115760085461210a9082906001600160801b0316613818565b9392505050565b5090919050565b60606040518061018001604052806101508152602001614db56101509139905090565b60606000600284846040516121519291906149f9565b9081526020016040518091039020600101600285856040516121749291906149f9565b90815260405190819003602001902054815467ffffffffffffffff640100000000909204919091169082906121a890614d2b565b80601f01602080910402602001604051908101604052809291908181526020018280546121d490614d2b565b80156122215780601f106121f657610100808354040283529160200191612221565b820191906000526020600020905b81548152906001019060200180831161220457829003601f168201915b50505050509150915091505b9250929050565b60065460085460009161155a916001600160801b03600160801b909204821691611c979116670de0b6b3a76400006139c5565b60008080808080808080808061227f8c8e018e614669565b9a509a509a509a509a509a509a509a509a509a509a506122a88b8b8b8b8b8b8b8b8b8b8b612872565b50505050505050505050505050565b60006122c16115ef565b8061155a575050600654600160401b900467ffffffffffffffff16421190565b61230b7f9d49f397ae9ef1a834b569acb967799a367061e305932181a44f5773da873bfd82613230565b60405133906001600160a01b038316907fe5f1aa9e528307345194b88b24a32401c13926e0823060f1049d9b26c0bb62b290600090a350565b61234d336116a0565b565b600260055414156123a25760405162461bcd60e51b815260206004820152601f60248201527f5265656e7472616e637947756172643a207265656e7472616e742063616c6c006044820152606401610fab565b60026005556123b03361305a565b6123b957600080fd5b60088054600160801b900460ff16156124245760405162461bcd60e51b815260206004820152602760248201527f447574636841756374696f6e3a2061756374696f6e20616c72656164792066696044820152661b985b1a5e995960ca1b6064820152608401610fab565b80546001600160801b0316156124a25760405162461bcd60e51b815260206004820152602760248201527f447574636841756374696f6e3a2061756374696f6e20616c726561647920636f60448201527f6d6d6974746564000000000000000000000000000000000000000000000000006064820152608401610fab565b600954600b546006546124d2926001600160a01b03908116921690600160801b90046001600160801b0316613986565b805470ff000000000000000000000000000000001916600160801b1781556040517fa5fb31e47bd1eca58bf14a3312d5e6aeafdc4ee787c8ed348c15c2b092324d9390600090a1506001600555565b600082815260208190526040812061210a9083613aea565b600061155a61254661153a565b600854611c97906001600160801b0316670de0b6b3a76400006139c5565b600082815260208190526040812061210a9083613af6565b6125a67f97667070c54ef182b0f5858b034beac1b6f3089aa2d3188bb1e8929f4fa9b92982613230565b60405133906001600160a01b038316907f70b25138b6fadeb9992d18b9653564271823e34b3e3257515d12a6d4b15fcddf90600090a350565b6125e83361305a565b6125f157600080fd5b6001600160a01b0381166126585760405162461bcd60e51b815260206004820152602860248201527f447574636841756374696f6e3a2077616c6c657420697320746865207a65726f604482015267206164647265737360c01b6064820152608401610fab565b600b805473ffffffffffffffffffffffffffffffffffffffff19166001600160a01b0383169081179091556040519081527f34ae2bad9265f0212d4cf341708b8250949164bb54f9d0e4f442024f83bb2f909060200160405180910390a150565b6126c23361305a565b6126cb57600080fd5b61149c84848484613b18565b60606004805480602002602001604051908101604052809291908181526020016000905b828210156127a757838290600052602060002001805461271a90614d2b565b80601f016020809104026020016040519081016040528092919081815260200182805461274690614d2b565b80156127935780601f1061276857610100808354040283529160200191612793565b820191906000526020600020905b81548152906001019060200180831161277657829003601f168201915b5050505050815260200190600101906126fb565b50505050905090565b60065460009067ffffffffffffffff1642116127d657506007546001600160801b031690565b600654600160401b900467ffffffffffffffff1642106128075750600754600160801b90046001600160801b031690565b61155a613cce565b6128397f9f2df0fed2c77648de5860a4cc508cd0818c85b8b8a1ab4ceeef8d981c8956a6826114a2565b60405133906001600160a01b038316907f0be6ab9784c7401fafb73f7bc47bc67cc4ef8c47a60ad3cb66d1de0353a0784c90600090a350565b6402540be40088106128f65760405162461bcd60e51b815260206004820152604160248201527f447574636841756374696f6e3a20656e74657220616e20756e69782074696d6560448201527f7374616d7020696e207365636f6e64732c206e6f74206d696c697365636f6e646064820152607360f81b608482015260a401610fab565b6402540be400871061297a5760405162461bcd60e51b815260206004820152604160248201527f447574636841756374696f6e3a20656e74657220616e20756e69782074696d6560448201527f7374616d7020696e207365636f6e64732c206e6f74206d696c697365636f6e646064820152607360f81b608482015260a401610fab565b428810156129f05760405162461bcd60e51b815260206004820152602f60248201527f447574636841756374696f6e3a2073746172742074696d65206973206265666f60448201527f72652063757272656e742074696d6500000000000000000000000000000000006064820152608401610fab565b878711612a655760405162461bcd60e51b815260206004820152603560248201527f447574636841756374696f6e3a20656e642074696d65206d757374206265206f60448201527f6c646572207468616e20737461727420707269636500000000000000000000006064820152608401610fab565b60008911612adb5760405162461bcd60e51b815260206004820152603460248201527f447574636841756374696f6e3a20746f74616c20746f6b656e73206d7573742060448201527f62652067726561746572207468616e207a65726f0000000000000000000000006064820152608401610fab565b838511612b505760405162461bcd60e51b815260206004820152603b60248201527f447574636841756374696f6e3a207374617274207072696365206d757374206260448201527f6520686967686572207468616e206d696e696d756d20707269636500000000006064820152608401610fab565b60008411612bc65760405162461bcd60e51b815260206004820152603260248201527f447574636841756374696f6e3a206d696e696d756d207072696365206d75737460448201527f2062652067726561746572207468616e203000000000000000000000000000006064820152608401610fab565b6001600160a01b038316612c425760405162461bcd60e51b815260206004820152602760248201527f447574636841756374696f6e3a2061646d696e20697320746865207a65726f2060448201527f61646472657373000000000000000000000000000000000000000000000000006064820152608401610fab565b6001600160a01b038116612ca95760405162461bcd60e51b815260206004820152602860248201527f447574636841756374696f6e3a2077616c6c657420697320746865207a65726f604482015267206164647265737360c01b6064820152608401610fab565b896001600160a01b031663313ce5676040518163ffffffff1660e01b815260040160206040518083038186803b158015612ce257600080fd5b505afa158015612cf6573d6000803e3d6000fd5b505050506040513d601f19601f82011682018060405250810190612d1a9190614990565b60ff16601214612d925760405162461bcd60e51b815260206004820152602d60248201527f447574636841756374696f6e3a20546f6b656e20646f6573206e6f742068617660448201527f6520313820646563696d616c73000000000000000000000000000000000000006064820152608401610fab565b6001600160a01b03861673eeeeeeeeeeeeeeeeeeeeeeeeeeeeeeeeeeeeeeee14612e9f576000866001600160a01b031663313ce5676040518163ffffffff1660e01b815260040160206040518083038186803b158015612df157600080fd5b505afa158015612e05573d6000803e3d6000fd5b505050506040513d601f19601f82011682018060405250810190612e299190614990565b60ff1611612e9f5760405162461bcd60e51b815260206004820152602b60248201527f447574636841756374696f6e3a205061796d656e742063757272656e6379206960448201527f73206e6f742045524332300000000000000000000000000000000000000000006064820152608401610fab565b612ea888613a90565b6006805467ffffffffffffffff191667ffffffffffffffff92909216919091179055612ed387613a90565b6006805467ffffffffffffffff92909216600160401b026fffffffffffffffff000000000000000019909216919091179055612f0e896137bb565b600680546001600160801b03928316600160801b029216919091179055612f34856137bb565b600780546fffffffffffffffffffffffffffffffff19166001600160801b0392909216919091179055612f66846137bb565b600780546001600160801b03928316600160801b029216919091179055600980546001600160a01b03808d1673ffffffffffffffffffffffffffffffffffffffff1992831617909255600a8054898416908316179055600b805492841692909116919091179055612fd683613406565b612fdf82613d19565b612fea8a8c8b61349f565b5050505050505050505050565b6130217f97667070c54ef182b0f5858b034beac1b6f3089aa2d3188bb1e8929f4fa9b929826114a2565b60405133906001600160a01b038316907f2d45ee102874989882745a26688d0b4fffee125a18df26536b12582c7fde4e1790600090a350565b6000610fe08183612564565b60045460609082106130ba5760405162461bcd60e51b815260206004820152601360248201527f496e646578206f7574206f6620626f756e6473000000000000000000000000006044820152606401610fab565b600482815481106130db57634e487b7160e01b600052603260045260246000fd5b9060005260206000200180546130f090614d2b565b80601f016020809104026020016040519081016040528092919081815260200182805461311c90614d2b565b80156131695780601f1061313e57610100808354040283529160200191613169565b820191906000526020600020905b81548152906001019060200180831161314c57829003601f168201915b50505050509050919050565b61317e3361305a565b61318757600080fd5b8260005b81811015613211576131ff8686838181106131b657634e487b7160e01b600052603260045260246000fd5b90506020028101906131c89190614bbe565b8686858181106131e857634e487b7160e01b600052603260045260246000fd5b90506020028101906131fa9190614bbe565b613b18565b8061320981614d60565b91505061318b565b505050505050565b6000818152602081905260408120610fe090613d76565b60008281526020819052604090206002015461324c9033612564565b6115e55760405162461bcd60e51b815260206004820152603060248201527f416363657373436f6e74726f6c3a2073656e646572206d75737420626520616e60448201527f2061646d696e20746f207265766f6b65000000000000000000000000000000006064820152608401610fab565b6132c73361305a565b6132d057600080fd5b6132d981613d19565b50565b6040805160608101825260065467ffffffffffffffff8082168352600160401b8204166020808401919091526001600160801b03600160801b9283900481168486015284518086019095526007548082168087529390041690840181905260009391849161334a9190613d80565b6001600160801b03169050600061337c8460000151856020015167ffffffffffffffff16613df090919063ffffffff16565b67ffffffffffffffff1690506133928183614c43565b94505050505090565b61084f33838361103e565b6133b1600082613230565b60405133906001600160a01b038316907f21ba1239795d4e22874e3dc55f0a9d7b65bfb23069d32965d7c23be9524ccf9590600090a350565b6133f33361305a565b6133fc57600080fd5b61084f8282613e62565b60015460ff16156134595760405162461bcd60e51b815260206004820152601360248201527f416c726561647920696e697469616c69736564000000000000000000000000006044820152606401610fab565b613464600082611530565b506001805460ff191681179055565b6000610fe07f97667070c54ef182b0f5858b034beac1b6f3089aa2d3188bb1e8929f4fa9b92983612564565b6040516001600160a01b0383811660248301523060448301526064820183905260009182918616906323b872dd906084015b6040516020818303038152906040529060e01b6020820180517bffffffffffffffffffffffffffffffffffffffffffffffffffffffff838183161783525050505060405161351f91906149dd565b6000604051808303816000865af19150503d806000811461355c576040519150601f19603f3d011682016040523d82523d6000602084013e613561565b606091505b509150915081801561358b57508051158061358b57508080602001905181019061358b919061483e565b61149a57600080fd5b60065467ffffffffffffffff1642108015906135c35750600654600160401b900467ffffffffffffffff164211155b6136355760405162461bcd60e51b815260206004820152602360248201527f447574636841756374696f6e3a206f7574736964652061756374696f6e20686f60448201527f75727300000000000000000000000000000000000000000000000000000000006064820152608401610fab565b6001600160a01b0382166000908152600d60205260408120546008919061365c9084613928565b8254909150600160881b900460ff161561371657600c546040517f1cd53d550000000000000000000000000000000000000000000000000000000081526001600160a01b0386811660048301526024820184905290911690631cd53d559060440160206040518083038186803b1580156136d557600080fd5b505afa1580156136e9573d6000803e3d6000fd5b505050506040513d601f19601f8201168201806040525081019061370d919061483e565b61371657600080fd5b6001600160a01b0384166000908152600d60205260409020819055815461374f9061374a906001600160801b031685613928565b6137bb565b82546fffffffffffffffffffffffffffffffff19166001600160801b0391909116178255604080516001600160a01b0386168152602081018590527f077511a636ba1f10551cc7b89c13ff66a6ac9344e8a917527817a9690b15af7a910160405180910390a150505050565b60006001600160801b038211156138145760405162461bcd60e51b815260206004820152601c60248201527f426f72696e674d6174683a2075696e74313238204f766572666c6f77000000006044820152606401610fab565b5090565b6000826138258382614caa565b9150811115610fe05760405162461bcd60e51b815260206004820152601560248201527f426f72696e674d6174683a20556e646572666c6f7700000000000000000000006044820152606401610fab565b600082815260208190526040902061388e908261412c565b1561084f5760405133906001600160a01b0383169084907f2f8788117e7eff1d82e926ec794901d17c78024a50270940304540a733656f0d90600090a45050565b60008281526020819052604090206138e79082614141565b1561084f5760405133906001600160a01b0383169084907ff6391f5c32d9c69d2a47ea670b442974b53935d1edc7fd64eb21e047a839171b90600090a45050565b6000816139358185614c03565b9150811015610fe05760405162461bcd60e51b815260206004820152601860248201527f426f72696e674d6174683a20416464204f766572666c6f7700000000000000006044820152606401610fab565b6001600160a01b03831673eeeeeeeeeeeeeeeeeeeeeeeeeeeeeeeeeeeeeeee14156139ba576139b58282614156565b505050565b6139b5838383614239565b60008115806139e9575082826139db8183614c63565b92506139e79083614c43565b145b610fe05760405162461bcd60e51b815260206004820152601860248201527f426f72696e674d6174683a204d756c204f766572666c6f7700000000000000006044820152606401610fab565b6000808211613a865760405162461bcd60e51b815260206004820152601460248201527f426f72696e674d6174683a20446976207a65726f0000000000000000000000006044820152606401610fab565b61210a8284614c43565b600067ffffffffffffffff8211156138145760405162461bcd60e51b815260206004820152601b60248201527f426f72696e674d6174683a2075696e743634204f766572666c6f7700000000006044820152606401610fab565b600061210a8383614269565b6001600160a01b0381166000908152600183016020526040812054151561210a565b82613b655760405162461bcd60e51b815260206004820152601860248201527f5a65726f206e616d65206973206e6f7420616c6c6f77656400000000000000006044820152606401610fab565b80613bb25760405162461bcd60e51b815260206004820152601a60248201527f53686f756c64206e6f74206265206120656d70747920646174610000000000006044820152606401610fab565b600067ffffffffffffffff1660028585604051613bd09291906149f9565b9081526040519081900360200190205467ffffffffffffffff640100000000909104161415613c775760048054600181018255600091909152613c36907f8a35acfbc15ff81a39ae7d344fd709f28e8600b4aa8c65c6b64bfe7fe36bd19b018585614484565b50600454604051600290613c4d90879087906149f9565b908152604051908190036020019020805463ffffffff9290921663ffffffff199092169190911790555b8383604051613c879291906149f9565b60405180910390207fbaa206e5ea800eb88bce099f453fee53295b793b9d5d1cfc4ce4b6db06a34f538383604051613cc0929190614aec565b60405180910390a250505050565b600080613cfa613cdc6132dc565b600654613cf490429067ffffffffffffffff16613818565b906139c5565b600754909150613d13906001600160801b031682613818565b91505090565b6001600160a01b038116156132d957600c80546001600160a01b03831673ffffffffffffffffffffffffffffffffffffffff199091161790556008805471ff00000000000000000000000000000000001916600160881b17905550565b6000610fe0825490565b60006001600160801b038316613d968385614c82565b9150816001600160801b03161115610fe05760405162461bcd60e51b815260206004820152601560248201527f426f72696e674d6174683a20556e646572666c6f7700000000000000000000006044820152606401610fab565b600067ffffffffffffffff8316613e078385614cde565b91508167ffffffffffffffff161115610fe05760405162461bcd60e51b815260206004820152601560248201527f426f72696e674d6174683a20556e646572666c6f7700000000000000000000006044820152606401610fab565b600067ffffffffffffffff1660028383604051613e809291906149f9565b9081526040519081900360200190205467ffffffffffffffff640100000000909104161415613ef15760405162461bcd60e51b815260206004820152601560248201527f446f63756d656e742073686f756c6420657869737400000000000000000000006044820152606401610fab565b6000600160028484604051613f079291906149f9565b90815260405190819003602001902054613f27919063ffffffff16614cc1565b600454909150613f3990600190614caa565b8163ffffffff161461403b5760048054613f5590600190614caa565b81548110613f7357634e487b7160e01b600052603260045260246000fd5b9060005260206000200160048263ffffffff1681548110613fa457634e487b7160e01b600052603260045260246000fd5b90600052602060002001908054613fba90614d2b565b613fc5929190614504565b50613fd1816001614c1b565b600260048363ffffffff1681548110613ffa57634e487b7160e01b600052603260045260246000fd5b906000526020600020016040516140119190614a09565b908152604051908190036020019020805463ffffffff9290921663ffffffff199092169190911790555b600480548061405a57634e487b7160e01b600052603160045260246000fd5b600190038181906000526020600020016000614076919061457f565b905582826040516140889291906149f9565b60405180910390207f4b5338540b4d1c0f6dd0308a25f633b7ff60472f894d711cff9dd64e35c613b2600285856040516140c39291906149f9565b90815260200160405180910390206001016040516140e19190614b3d565b60405180910390a2600283836040516140fb9291906149f9565b90815260405190819003602001902080546bffffffffffffffffffffffff19168155600061149a600183018261457f565b600061210a836001600160a01b038416614318565b600061210a836001600160a01b038416614367565b604080516000808252602082019092526001600160a01b03841690839060405161418091906149dd565b60006040518083038185875af1925050503d80600081146141bd576040519150601f19603f3d011682016040523d82523d6000602084013e6141c2565b606091505b50509050806139b55760405162461bcd60e51b815260206004820152602360248201527f5472616e7366657248656c7065723a204554485f5452414e534645525f46414960448201527f4c454400000000000000000000000000000000000000000000000000000000006064820152608401610fab565b6040516001600160a01b03838116602483015260448201839052600091829186169063a9059cbb906064016134d1565b815460009082106142e25760405162461bcd60e51b815260206004820152602260248201527f456e756d657261626c655365743a20696e646578206f7574206f6620626f756e60448201527f64730000000000000000000000000000000000000000000000000000000000006064820152608401610fab565b82600001828154811061430557634e487b7160e01b600052603260045260246000fd5b9060005260206000200154905092915050565b600081815260018301602052604081205461435f57508154600181810184556000848152602080822090930184905584548482528286019093526040902091909155610fe0565b506000610fe0565b6000818152600183016020526040812054801561447a57600061438b600183614caa565b855490915060009061439f90600190614caa565b905060008660000182815481106143c657634e487b7160e01b600052603260045260246000fd5b90600052602060002001549050808760000184815481106143f757634e487b7160e01b600052603260045260246000fd5b60009182526020909120015561440e836001614c03565b6000828152600189016020526040902055865487908061443e57634e487b7160e01b600052603160045260246000fd5b60019003818190600052602060002001600090559055866001016000878152602001908152602001600020600090556001945050505050610fe0565b6000915050610fe0565b82805461449090614d2b565b90600052602060002090601f0160209004810192826144b257600085556144f8565b82601f106144cb5782800160ff198235161785556144f8565b828001600101855582156144f8579182015b828111156144f85782358255916020019190600101906144dd565b506138149291506145b5565b82805461451090614d2b565b90600052602060002090601f01602090048101928261453257600085556144f8565b82601f1061454357805485556144f8565b828001600101855582156144f857600052602060002091601f016020900482015b828111156144f8578254825591600101919060010190614564565b50805461458b90614d2b565b6000825580601f1061459b575050565b601f0160209004906000526020600020908101906132d991905b5b8082111561381457600081556001016145b6565b60008083601f8401126145db578182fd5b50813567ffffffffffffffff8111156145f2578182fd5b6020830191508360208260051b850101111561222d57600080fd5b60008083601f84011261461e578182fd5b50813567ffffffffffffffff811115614635578182fd5b60208301915083602082850101111561222d57600080fd5b60006020828403121561465e578081fd5b813561210a81614d91565b60008060008060008060008060008060006101608c8e03121561468a578687fd5b8b3561469581614d91565b9a5060208c01356146a581614d91565b995060408c0135985060608c0135975060808c0135965060a08c01356146ca81614d91565b955060c08c0135945060e08c013593506101008c01356146e981614d91565b92506101208c01356146fa81614d91565b91506101408c013561470b81614d91565b809150509295989b509295989b9093969950565b60008060408385031215614731578182fd5b823561473c81614d91565b9150602083013561474c81614da6565b809150509250929050565b60008060008060008060008060008060006101608c8e03121561468a578081fd5b60008060006060848603121561478c578283fd5b833561479781614d91565b92506020840135915060408401356147ae81614da6565b809150509250925092565b600080600080604085870312156147ce578384fd5b843567ffffffffffffffff808211156147e5578586fd5b6147f1888389016145ca565b90965094506020870135915080821115614809578384fd5b50614816878288016145ca565b95989497509550505050565b600060208284031215614833578081fd5b813561210a81614da6565b60006020828403121561484f578081fd5b815161210a81614da6565b60006020828403121561486b578081fd5b5035919050565b60008060408385031215614884578182fd5b82359150602083013561474c81614d91565b600080604083850312156148a8578182fd5b50508035926020909101359150565b600080602083850312156148c9578182fd5b823567ffffffffffffffff8111156148df578283fd5b6148eb8582860161460d565b90969095509350505050565b6000806000806040858703121561490c578182fd5b843567ffffffffffffffff80821115614923578384fd5b61492f8883890161460d565b90965094506020870135915080821115614947578384fd5b506148168782880161460d565b600060208284031215614965578081fd5b5051919050565b6000806040838503121561497e578182fd5b82359150602083013561474c81614da6565b6000602082840312156149a1578081fd5b815160ff8116811461210a578182fd5b600081518084526149c9816020860160208601614cff565b601f01601f19169290920160200192915050565b600082516149ef818460208701614cff565b9190910192915050565b8183823760009101908152919050565b6000808354614a1781614d2b565b60018281168015614a2f5760018114614a4057614a6c565b60ff19841687528287019450614a6c565b8786526020808720875b85811015614a635781548a820152908401908201614a4a565b50505082870194505b50929695505050505050565b6000602080830181845280855180835260408601915060408160051b8701019250838701855b82811015614acc57603f19888603018452614aba8583516149b1565b94509285019290850190600101614a9e565b5092979650505050505050565b60208152600061210a60208301846149b1565b60208152816020820152818360408301376000818301604090810191909152601f909201601f19160101919050565b604081526000614b2e60408301856149b1565b90508260208301529392505050565b60006020808352818454614b5081614d2b565b80848701526040600180841660008114614b715760018114614b8557614bb0565b60ff19851689840152606089019550614bb0565b898852868820885b85811015614ba85781548b8201860152908301908801614b8d565b8a0184019650505b509398975050505050505050565b6000808335601e19843603018112614bd4578283fd5b83018035915067ffffffffffffffff821115614bee578283fd5b60200191503681900382131561222d57600080fd5b60008219821115614c1657614c16614d7b565b500190565b600063ffffffff808316818516808303821115614c3a57614c3a614d7b565b01949350505050565b600082614c5e57634e487b7160e01b81526012600452602481fd5b500490565b6000816000190483118215151615614c7d57614c7d614d7b565b500290565b60006001600160801b0383811690831681811015614ca257614ca2614d7b565b039392505050565b600082821015614cbc57614cbc614d7b565b500390565b600063ffffffff83811690831681811015614ca257614ca2614d7b565b600067ffffffffffffffff83811690831681811015614ca257614ca2614d7b565b60005b83811015614d1a578181015183820152602001614d02565b8381111561149c5750506000910152565b600181811c90821680614d3f57607f821691505b60208210811415611cd257634e487b7160e01b600052602260045260246000fd5b6000600019821415614d7457614d74614d7b565b5060010190565b634e487b7160e01b600052601160045260246000fd5b6001600160a01b03811681146132d957600080fd5b80151581146132d957600080fdfe4920756e6465727374616e6420746861742049276d20696e746572616374696e672077697468206120736d61727420636f6e74726163742e204920756e6465727374616e64207468617420746f6b656e7320636f6d6d6974656420617265207375626a65637420746f2074686520746f6b656e2069737375657220616e64206c6f63616c206c617773207768657265206170706c696361626c652e204920726576696577656420636f6465206f662074686520736d61727420636f6e747261637420616e6420756e6465727374616e642069742066756c6c792e204920616772656520746f206e6f7420686f6c6420646576656c6f70657273206f72206f746865722070656f706c65206173736f6369617465642077697468207468652070726f6a656374206c6961626c6520666f7220616e79206c6f73736573206f72206d6973756e6465727374616e64696e6773a2646970667358221220c7edf844791268aa9a2220a6fd8f24463fb06fe4b0362aa97db7951a4dffbd0164736f6c63430008040033",
  "linkReferences": {},
  "deployedLinkReferences": {}
}