{
  "_format": "hh-sol-artifact-1",
  "contractName": "VaporFermenter",
  "sourceName": "contracts/VaporFermenter.sol",
  "abi": [
    {
      "anonymous": false,
      "inputs": [
        {
          "indexed": true,
          "internalType": "address",
          "name": "owner",
          "type": "address"
        },
        {
          "indexed": true,
          "internalType": "address",
          "name": "addr",
          "type": "address"
        },
        {
          "indexed": false,
          "internalType": "address",
          "name": "escrowTemplate",
          "type": "address"
        }
      ],
      "name": "EscrowCreated",
      "type": "event"
    },
    {
      "anonymous": false,
      "inputs": [
        {
          "indexed": false,
          "internalType": "address",
          "name": "newTemplate",
          "type": "address"
        },
        {
          "indexed": false,
          "internalType": "uint256",
          "name": "templateId",
          "type": "uint256"
        }
      ],
      "name": "EscrowTemplateAdded",
      "type": "event"
    },
    {
      "anonymous": false,
      "inputs": [
        {
          "indexed": false,
          "internalType": "address",
          "name": "template",
          "type": "address"
        },
        {
          "indexed": false,
          "internalType": "uint256",
          "name": "templateId",
          "type": "uint256"
        }
      ],
      "name": "EscrowTemplateRemoved",
      "type": "event"
    },
    {
      "anonymous": false,
      "inputs": [
        {
          "indexed": false,
          "internalType": "address",
          "name": "sender",
          "type": "address"
        }
      ],
      "name": "VaporInitFermenter",
      "type": "event"
    },
    {
      "inputs": [],
      "name": "VAULT_MINTER_ROLE",
      "outputs": [
        {
          "internalType": "bytes32",
          "name": "",
          "type": "bytes32"
        }
      ],
      "stateMutability": "view",
      "type": "function"
    },
    {
      "inputs": [],
      "name": "accessControls",
      "outputs": [
        {
          "internalType": "contract VaporAccessControls",
          "name": "",
          "type": "address"
        }
      ],
      "stateMutability": "view",
      "type": "function"
    },
    {
      "inputs": [
        {
          "internalType": "address",
          "name": "_escrowTemplate",
          "type": "address"
        }
      ],
      "name": "addEscrowTemplate",
      "outputs": [],
      "stateMutability": "nonpayable",
      "type": "function"
    },
    {
      "inputs": [
        {
          "internalType": "uint256",
          "name": "_templateId",
          "type": "uint256"
        }
      ],
      "name": "createEscrow",
      "outputs": [
        {
          "internalType": "address",
          "name": "newEscrow",
          "type": "address"
        }
      ],
      "stateMutability": "nonpayable",
      "type": "function"
    },
    {
      "inputs": [],
      "name": "escrowTemplateId",
      "outputs": [
        {
          "internalType": "uint256",
          "name": "",
          "type": "uint256"
        }
      ],
      "stateMutability": "view",
      "type": "function"
    },
    {
      "inputs": [
        {
          "internalType": "uint256",
          "name": "",
          "type": "uint256"
        }
      ],
      "name": "escrows",
      "outputs": [
        {
          "internalType": "address",
          "name": "",
          "type": "address"
        }
      ],
      "stateMutability": "view",
      "type": "function"
    },
    {
      "inputs": [
        {
          "internalType": "uint256",
          "name": "_templateId",
          "type": "uint256"
        }
      ],
      "name": "getEscrowTemplate",
      "outputs": [
        {
          "internalType": "address",
          "name": "",
          "type": "address"
        }
      ],
      "stateMutability": "view",
      "type": "function"
    },
    {
      "inputs": [
        {
          "internalType": "address",
          "name": "_escrowTemplate",
          "type": "address"
        }
      ],
      "name": "getTemplateId",
      "outputs": [
        {
          "internalType": "uint256",
          "name": "templateId",
          "type": "uint256"
        }
      ],
      "stateMutability": "view",
      "type": "function"
    },
    {
      "inputs": [
        {
          "internalType": "address",
          "name": "_address",
          "type": "address"
        }
      ],
      "name": "hasVaultMinterRole",
      "outputs": [
        {
          "internalType": "bool",
          "name": "",
          "type": "bool"
        }
      ],
      "stateMutability": "view",
      "type": "function"
    },
    {
      "inputs": [
        {
          "internalType": "address",
          "name": "_accessControls",
          "type": "address"
        }
      ],
      "name": "initVaporFermenter",
      "outputs": [],
      "stateMutability": "nonpayable",
      "type": "function"
    },
    {
      "inputs": [
        {
          "internalType": "address",
          "name": "",
          "type": "address"
        }
      ],
      "name": "isChildEscrow",
      "outputs": [
        {
          "internalType": "bool",
          "name": "exists",
          "type": "bool"
        },
        {
          "internalType": "uint256",
          "name": "templateId",
          "type": "uint256"
        },
        {
          "internalType": "uint256",
          "name": "index",
          "type": "uint256"
        }
      ],
      "stateMutability": "view",
      "type": "function"
    },
    {
      "inputs": [],
      "name": "locked",
      "outputs": [
        {
          "internalType": "bool",
          "name": "",
          "type": "bool"
        }
      ],
      "stateMutability": "view",
      "type": "function"
    },
    {
      "inputs": [],
      "name": "numberOfTokens",
      "outputs": [
        {
          "internalType": "uint256",
          "name": "",
          "type": "uint256"
        }
      ],
      "stateMutability": "view",
      "type": "function"
    },
    {
      "inputs": [
        {
          "internalType": "uint256",
          "name": "_templateId",
          "type": "uint256"
        }
      ],
      "name": "removeEscrowTemplate",
      "outputs": [],
      "stateMutability": "nonpayable",
      "type": "function"
    },
    {
      "inputs": [
        {
          "internalType": "bool",
          "name": "_locked",
          "type": "bool"
        }
      ],
      "name": "setLocked",
      "outputs": [],
      "stateMutability": "nonpayable",
      "type": "function"
    }
  ],
  "bytecode": "0x608060405234801561001057600080fd5b50610cdf806100206000396000f3fe608060405234801561001057600080fd5b50600436106100f55760003560e01c80637a08291111610097578063cf30901211610066578063cf30901214610265578063d335ebda14610279578063f9f16ef2146102a2578063ff6a6392146102aa57600080fd5b80637a082911146101b25780638d4e0590146102025780638da2c87314610229578063c46689641461023c57600080fd5b8063467f8400116100d3578063467f8400146101525780634919292814610165578063748365ef1461017c5780637513dea61461018f57600080fd5b8063012f52ee146100fa578063211e28b61461012a5780633bfcd9b51461013f575b600080fd5b61010d610108366004610c1f565b6102bd565b6040516001600160a01b0390911681526020015b60405180910390f35b61013d610138366004610be7565b6102e7565b005b61013d61014d366004610c1f565b610411565b61013d610160366004610bb9565b610588565b61016e60025481565b604051908152602001610121565b60005461010d906001600160a01b031681565b6101a261019d366004610bb9565b610634565b6040519015158152602001610121565b6101e56101c0366004610bb9565b60056020526000908152604090208054600182015460029092015460ff909116919083565b604080519315158452602084019290925290820152606001610121565b61016e7f98e4415ac43dc65a73fb377c77c834c9fba44fb3f81dc603d1f33e6023519e0781565b61010d610237366004610c1f565b6106f7565b61010d61024a366004610c1f565b6000908152600360205260409020546001600160a01b031690565b6000546101a290600160a81b900460ff1681565b61016e610287366004610bb9565b6001600160a01b031660009081526004602052604090205490565b60015461016e565b61013d6102b8366004610bb9565b6109e2565b600181815481106102cd57600080fd5b6000918252602090912001546001600160a01b0316905081565b60005460405163c395fcb360e01b81523360048201526001600160a01b039091169063c395fcb39060240160206040518083038186803b15801561032a57600080fd5b505afa15801561033e573d6000803e3d6000fd5b505050506040513d601f19601f820116820180604052508101906103629190610c03565b6103d85760405162461bcd60e51b8152602060048201526024808201527f5661706f724665726d656e7465723a2053656e646572206d757374206265206160448201527f646d696e0000000000000000000000000000000000000000000000000000000060648201526084015b60405180910390fd5b60008054911515600160a81b027fffffffffffffffffffff00ffffffffffffffffffffffffffffffffffffffffff909216919091179055565b600054604051637e271f0560e11b81523360048201526001600160a01b039091169063fc4e3e0a9060240160206040518083038186803b15801561045457600080fd5b505afa158015610468573d6000803e3d6000fd5b505050506040513d601f19601f8201168201806040525081019061048c9190610c03565b6104e85760405162461bcd60e51b815260206004820152602760248201527f5661706f724665726d656e7465723a2053656e646572206d757374206265206f6044820152663832b930ba37b960c91b60648201526084016103cf565b6000818152600360205260409020546001600160a01b031661050957600080fd5b6000818152600360209081526040808320805473ffffffffffffffffffffffffffffffffffffffff1981169091556001600160a01b0316808452600483528184209390935580518381529182018490527f3f5a556fd0475f028f62c9ca9bdf824a2c3fd93a5a26fa74b0aa07703b8d11ea910160405180910390a15050565b60005474010000000000000000000000000000000000000000900460ff16156105b057600080fd5b6000805475010100000000000000000000000000000000000000007fffffffffffffffffffff000000000000000000000000000000000000000000009091166001600160a01b038416171790556040513381527f63ae191741cada3b366955fa592182a67f4f3603920e4c9c81bf9c7a1c9f9f28906020015b60405180910390a150565b600080546040517f91d148540000000000000000000000000000000000000000000000000000000081527f98e4415ac43dc65a73fb377c77c834c9fba44fb3f81dc603d1f33e6023519e0760048201526001600160a01b038481166024830152909116906391d148549060440160206040518083038186803b1580156106b957600080fd5b505afa1580156106cd573d6000803e3d6000fd5b505050506040513d601f19601f820116820180604052508101906106f19190610c03565b92915050565b60008054600160a81b900460ff16156108a05760005460405163c395fcb360e01b81523360048201526001600160a01b039091169063c395fcb39060240160206040518083038186803b15801561074d57600080fd5b505afa158015610761573d6000803e3d6000fd5b505050506040513d601f19601f820116820180604052508101906107859190610c03565b8061081f57506000546040517f099db0170000000000000000000000000000000000000000000000000000000081523360048201526001600160a01b039091169063099db0179060240160206040518083038186803b1580156107e757600080fd5b505afa1580156107fb573d6000803e3d6000fd5b505050506040513d601f19601f8201168201806040525081019061081f9190610c03565b8061082e575061082e33610634565b6108a05760405162461bcd60e51b815260206004820152602f60248201527f5661706f724665726d656e7465723a2053656e646572206d757374206265206d60448201527f696e746572206966206c6f636b6564000000000000000000000000000000000060648201526084016103cf565b6000828152600360205260409020546001600160a01b03166108c157600080fd5b6000828152600360205260409020546108e2906001600160a01b0316610b50565b905060405180606001604052806001151581526020018381526020016001808054905061090f9190610c37565b90526001600160a01b0382811660008181526005602090815260408083208651815460ff1916901515178155868301516001808301919091559682015160029091015585548087019096557fb10e2d527612073b26eecdfd717e6a320cf44b4afac2b0732d9fcbe2b7fa0cf6909501805473ffffffffffffffffffffffffffffffffffffffff19168417905586825260038152908490205493519390921683529133917f4743c0c2884de4f19f280dbd2cc93bc24491cdf876ed107046fe8194183c09e9910160405180910390a3919050565b600054604051637e271f0560e11b81523360048201526001600160a01b039091169063fc4e3e0a9060240160206040518083038186803b158015610a2557600080fd5b505afa158015610a39573d6000803e3d6000fd5b505050506040513d601f19601f82011682018060405250810190610a5d9190610c03565b610ab95760405162461bcd60e51b815260206004820152602760248201527f5661706f724665726d656e7465723a2053656e646572206d757374206265206f6044820152663832b930ba37b960c91b60648201526084016103cf565b60028054906000610ac983610c4e565b9091555050600280546000908152600360209081526040808320805473ffffffffffffffffffffffffffffffffffffffff19166001600160a01b038716908117909155935484845260048352928190208390558051938452908301919091527f439cb22d4d440cdda8508c466333dca53d6f577c7c91274ac9feaec3946a67039101610629565b6000808260601b90506040517f3d602d80600a3d3981f3363d3d373d3d3d363d7300000000000000000000000081528160148201527f5af43d82803e903d91602b57fd5bf3000000000000000000000000000000000060288201526037816000f0949350505050565b600060208284031215610bca578081fd5b81356001600160a01b0381168114610be0578182fd5b9392505050565b600060208284031215610bf8578081fd5b8135610be081610c98565b600060208284031215610c14578081fd5b8151610be081610c98565b600060208284031215610c30578081fd5b5035919050565b600082821015610c4957610c49610c69565b500390565b6000600019821415610c6257610c62610c69565b5060010190565b7f4e487b7100000000000000000000000000000000000000000000000000000000600052601160045260246000fd5b8015158114610ca657600080fd5b5056fea2646970667358221220096742619ba2675743400cfe6f0841d6ed878fe726fca0a37002cabde159f80464736f6c63430008040033",
  "linkReferences": {},
  "deployedLinkReferences": {}
}