{
  "_format": "hh-sol-artifact-1",
  "contractName": "CalculationsSushiswap",
  "sourceName": "contracts/Helper/CalculationsSushiswap.sol",
  "abi": [
    {
      "inputs": [
        {
          "internalType": "address",
          "name": "_primaryRouterAddress",
          "type": "address"
        },
        {
          "internalType": "address",
          "name": "_primaryFactoryAddress",
          "type": "address"
        },
        {
          "internalType": "address",
          "name": "_secondaryRouterAddress",
          "type": "address"
        },
        {
          "internalType": "address",
          "name": "_secondaryFactoryAddress",
          "type": "address"
        },
        {
          "internalType": "address",
          "name": "_usdcAddress",
          "type": "address"
        }
      ],
      "stateMutability": "nonpayable",
      "type": "constructor"
    },
    {
      "inputs": [
        {
          "internalType": "address",
          "name": "tokenAddress",
          "type": "address"
        }
      ],
      "name": "getLpTokenPriceUsdc",
      "outputs": [
        {
          "internalType": "uint256",
          "name": "",
          "type": "uint256"
        }
      ],
      "stateMutability": "view",
      "type": "function"
    },
    {
      "inputs": [
        {
          "internalType": "address",
          "name": "tokenAddress",
          "type": "address"
        }
      ],
      "name": "getLpTokenTotalLiquidityUsdc",
      "outputs": [
        {
          "internalType": "uint256",
          "name": "",
          "type": "uint256"
        }
      ],
      "stateMutability": "view",
      "type": "function"
    },
    {
      "inputs": [
        {
          "internalType": "address",
          "name": "tokenAddress",
          "type": "address"
        },
        {
          "internalType": "uint256",
          "name": "amount",
          "type": "uint256"
        }
      ],
      "name": "getNormalizedValueUsdc",
      "outputs": [
        {
          "internalType": "uint256",
          "name": "",
          "type": "uint256"
        }
      ],
      "stateMutability": "view",
      "type": "function"
    },
    {
      "inputs": [
        {
          "internalType": "address",
          "name": "token0Address",
          "type": "address"
        },
        {
          "internalType": "address",
          "name": "token1Address",
          "type": "address"
        }
      ],
      "name": "getPriceFromRouter",
      "outputs": [
        {
          "internalType": "uint256",
          "name": "",
          "type": "uint256"
        }
      ],
      "stateMutability": "view",
      "type": "function"
    },
    {
      "inputs": [
        {
          "internalType": "address",
          "name": "tokenAddress",
          "type": "address"
        }
      ],
      "name": "getPriceFromRouterUsdc",
      "outputs": [
        {
          "internalType": "uint256",
          "name": "",
          "type": "uint256"
        }
      ],
      "stateMutability": "view",
      "type": "function"
    },
    {
      "inputs": [
        {
          "internalType": "address",
          "name": "tokenAddress",
          "type": "address"
        }
      ],
      "name": "getPriceUsdc",
      "outputs": [
        {
          "internalType": "uint256",
          "name": "",
          "type": "uint256"
        }
      ],
      "stateMutability": "view",
      "type": "function"
    },
    {
      "inputs": [
        {
          "internalType": "address",
          "name": "tokenAddress",
          "type": "address"
        }
      ],
      "name": "getRouterForLpToken",
      "outputs": [
        {
          "internalType": "contract PriceRouter",
          "name": "",
          "type": "address"
        }
      ],
      "stateMutability": "view",
      "type": "function"
    },
    {
      "inputs": [
        {
          "internalType": "address",
          "name": "tokenAddress",
          "type": "address"
        }
      ],
      "name": "isLpToken",
      "outputs": [
        {
          "internalType": "bool",
          "name": "",
          "type": "bool"
        }
      ],
      "stateMutability": "view",
      "type": "function"
    },
    {
      "inputs": [],
      "name": "primaryFactoryAddress",
      "outputs": [
        {
          "internalType": "address",
          "name": "",
          "type": "address"
        }
      ],
      "stateMutability": "view",
      "type": "function"
    },
    {
      "inputs": [],
      "name": "primaryRouterAddress",
      "outputs": [
        {
          "internalType": "address",
          "name": "",
          "type": "address"
        }
      ],
      "stateMutability": "view",
      "type": "function"
    },
    {
      "inputs": [],
      "name": "secondaryFactoryAddress",
      "outputs": [
        {
          "internalType": "address",
          "name": "",
          "type": "address"
        }
      ],
      "stateMutability": "view",
      "type": "function"
    },
    {
      "inputs": [],
      "name": "secondaryRouterAddress",
      "outputs": [
        {
          "internalType": "address",
          "name": "",
          "type": "address"
        }
      ],
      "stateMutability": "view",
      "type": "function"
    },
    {
      "inputs": [],
      "name": "usdcAddress",
      "outputs": [
        {
          "internalType": "address",
          "name": "",
          "type": "address"
        }
      ],
      "stateMutability": "view",
      "type": "function"
    },
    {
      "inputs": [],
      "name": "wethAddress",
      "outputs": [
        {
          "internalType": "address",
          "name": "",
          "type": "address"
        }
      ],
      "stateMutability": "view",
      "type": "function"
    }
  ],
  "bytecode": "0x608060405273eeeeeeeeeeeeeeeeeeeeeeeeeeeeeeeeeeeeeeee600860006101000a81548173ffffffffffffffffffffffffffffffffffffffff021916908373ffffffffffffffffffffffffffffffffffffffff1602179055506000600960006101000a81548173ffffffffffffffffffffffffffffffffffffffff021916908373ffffffffffffffffffffffffffffffffffffffff160217905550348015620000a857600080fd5b5060405162002451380380620024518339818101604052810190620000ce919062000408565b846000806101000a81548173ffffffffffffffffffffffffffffffffffffffff021916908373ffffffffffffffffffffffffffffffffffffffff16021790555083600160006101000a81548173ffffffffffffffffffffffffffffffffffffffff021916908373ffffffffffffffffffffffffffffffffffffffff16021790555082600260006101000a81548173ffffffffffffffffffffffffffffffffffffffff021916908373ffffffffffffffffffffffffffffffffffffffff16021790555081600360006101000a81548173ffffffffffffffffffffffffffffffffffffffff021916908373ffffffffffffffffffffffffffffffffffffffff16021790555080600560006101000a81548173ffffffffffffffffffffffffffffffffffffffff021916908373ffffffffffffffffffffffffffffffffffffffff16021790555060008054906101000a900473ffffffffffffffffffffffffffffffffffffffff16600660006101000a81548173ffffffffffffffffffffffffffffffffffffffff021916908373ffffffffffffffffffffffffffffffffffffffff160217905550600260009054906101000a900473ffffffffffffffffffffffffffffffffffffffff16600760006101000a81548173ffffffffffffffffffffffffffffffffffffffff021916908373ffffffffffffffffffffffffffffffffffffffff160217905550600660009054906101000a900473ffffffffffffffffffffffffffffffffffffffff1673ffffffffffffffffffffffffffffffffffffffff1663ad5c46486040518163ffffffff1660e01b815260040160206040518083038186803b1580156200033f57600080fd5b505afa15801562000354573d6000803e3d6000fd5b505050506040513d601f19601f820116820180604052508101906200037a9190620003dc565b600460006101000a81548173ffffffffffffffffffffffffffffffffffffffff021916908373ffffffffffffffffffffffffffffffffffffffff1602179055505050505050620004d8565b600081519050620003d681620004be565b92915050565b600060208284031215620003ef57600080fd5b6000620003ff84828501620003c5565b91505092915050565b600080600080600060a086880312156200042157600080fd5b60006200043188828901620003c5565b95505060206200044488828901620003c5565b94505060406200045788828901620003c5565b93505060606200046a88828901620003c5565b92505060806200047d88828901620003c5565b9150509295509295909350565b600062000497826200049e565b9050919050565b600073ffffffffffffffffffffffffffffffffffffffff82169050919050565b620004c9816200048a565b8114620004d557600080fd5b50565b611f6980620004e86000396000f3fe608060405234801561001057600080fd5b50600436106100ea5760003560e01c80636c7394101161008c578063bc52f13111610066578063bc52f13114610275578063d61a7847146102a5578063e6a68d00146102d5578063eaa457d2146102f3576100ea565b80636c739410146101f75780638a7f668014610215578063973aaefd14610245576100ea565b806325d366f1116100c857806325d366f11461015b578063369ee46b146101795780634f0e0ef3146101a9578063583850c9146101c7576100ea565b806302d45457146100ef5780630f24ca7d1461010d57806323373c7a1461013d575b600080fd5b6100f7610323565b6040516101049190611913565b60405180910390f35b610127600480360381019061012291906116a6565b610349565b604051610134919061192e565b60405180910390f35b6101456103e0565b6040516101529190611913565b60405180910390f35b610163610406565b6040516101709190611913565b60405180910390f35b610193600480360381019061018e91906116f8565b61042c565b6040516101a09190611964565b60405180910390f35b6101b1610d32565b6040516101be9190611913565b60405180910390f35b6101e160048036038101906101dc91906116a6565b610d58565b6040516101ee9190611964565b60405180910390f35b6101ff610ea3565b60405161020c9190611913565b60405180910390f35b61022f600480360381019061022a9190611734565b610ec7565b60405161023c9190611964565b60405180910390f35b61025f600480360381019061025a91906116a6565b61101b565b60405161026c9190611964565b60405180910390f35b61028f600480360381019061028a91906116a6565b61135b565b60405161029c9190611964565b60405180910390f35b6102bf60048036038101906102ba91906116a6565b611390565b6040516102cc9190611964565b60405180910390f35b6102dd6113c1565b6040516102ea9190611913565b60405180910390f35b61030d600480360381019061030891906116a6565b6113e7565b60405161031a9190611949565b60405180910390f35b600560009054906101000a900473ffffffffffffffffffffffffffffffffffffffff1681565b6000808290508073ffffffffffffffffffffffffffffffffffffffff1663c45a01556040518163ffffffff1660e01b815260040160206040518083038186803b15801561039557600080fd5b505afa9250505080156103c657506040513d601f19601f820116820180604052508101906103c391906116cf565b60015b6103d45760009150506103db565b5060019150505b919050565b600360009054906101000a900473ffffffffffffffffffffffffffffffffffffffff1681565b600260009054906101000a900473ffffffffffffffffffffffffffffffffffffffff1681565b6000600860009054906101000a900473ffffffffffffffffffffffffffffffffffffffff1673ffffffffffffffffffffffffffffffffffffffff168373ffffffffffffffffffffffffffffffffffffffff1614156104aa57600460009054906101000a900473ffffffffffffffffffffffffffffffffffffffff1692505b600860009054906101000a900473ffffffffffffffffffffffffffffffffffffffff1673ffffffffffffffffffffffffffffffffffffffff168273ffffffffffffffffffffffffffffffffffffffff16141561052657600460009054906101000a900473ffffffffffffffffffffffffffffffffffffffff1691505b6060600080600460009054906101000a900473ffffffffffffffffffffffffffffffffffffffff1673ffffffffffffffffffffffffffffffffffffffff168673ffffffffffffffffffffffffffffffffffffffff1614806105d45750600460009054906101000a900473ffffffffffffffffffffffffffffffffffffffff1673ffffffffffffffffffffffffffffffffffffffff168573ffffffffffffffffffffffffffffffffffffffff16145b9050801561074f57600191506001826105ed9190611a8f565b60ff1667ffffffffffffffff81111561062f577f4e487b7100000000000000000000000000000000000000000000000000000000600052604160045260246000fd5b60405190808252806020026020018201604052801561065d5781602001602082028036833780820191505090505b509250858360008151811061069b577f4e487b7100000000000000000000000000000000000000000000000000000000600052603260045260246000fd5b602002602001019073ffffffffffffffffffffffffffffffffffffffff16908173ffffffffffffffffffffffffffffffffffffffff16815250508483600181518110610710577f4e487b7100000000000000000000000000000000000000000000000000000000600052603260045260246000fd5b602002602001019073ffffffffffffffffffffffffffffffffffffffff16908173ffffffffffffffffffffffffffffffffffffffff1681525050610955565b600291506001826107609190611a8f565b60ff1667ffffffffffffffff8111156107a2577f4e487b7100000000000000000000000000000000000000000000000000000000600052604160045260246000fd5b6040519080825280602002602001820160405280156107d05781602001602082028036833780820191505090505b509250858360008151811061080e577f4e487b7100000000000000000000000000000000000000000000000000000000600052603260045260246000fd5b602002602001019073ffffffffffffffffffffffffffffffffffffffff16908173ffffffffffffffffffffffffffffffffffffffff1681525050600460009054906101000a900473ffffffffffffffffffffffffffffffffffffffff16836001815181106108a5577f4e487b7100000000000000000000000000000000000000000000000000000000600052603260045260246000fd5b602002602001019073ffffffffffffffffffffffffffffffffffffffff16908173ffffffffffffffffffffffffffffffffffffffff1681525050848360028151811061091a577f4e487b7100000000000000000000000000000000000000000000000000000000600052603260045260246000fd5b602002602001019073ffffffffffffffffffffffffffffffffffffffff16908173ffffffffffffffffffffffffffffffffffffffff16815250505b600086905060008173ffffffffffffffffffffffffffffffffffffffff1663313ce5676040518163ffffffff1660e01b815260040160206040518083038186803b1580156109a257600080fd5b505afa1580156109b6573d6000803e3d6000fd5b505050506040513d601f19601f820116820180604052508101906109da9190611829565b60ff16600a6109e99190611b4a565b905060606000600960009054906101000a900473ffffffffffffffffffffffffffffffffffffffff1673ffffffffffffffffffffffffffffffffffffffff16600260009054906101000a900473ffffffffffffffffffffffffffffffffffffffff1673ffffffffffffffffffffffffffffffffffffffff16141590508015610bdd57600660009054906101000a900473ffffffffffffffffffffffffffffffffffffffff1673ffffffffffffffffffffffffffffffffffffffff1663d06ca61f84896040518363ffffffff1660e01b8152600401610ac892919061197f565b60006040518083038186803b158015610ae057600080fd5b505afa925050508015610b1657506040513d6000823e3d601f19601f82011682018060405250810190610b139190611770565b60015b610bd357600760009054906101000a900473ffffffffffffffffffffffffffffffffffffffff1673ffffffffffffffffffffffffffffffffffffffff1663d06ca61f84896040518363ffffffff1660e01b8152600401610b7792919061197f565b60006040518083038186803b158015610b8f57600080fd5b505afa158015610ba3573d6000803e3d6000fd5b505050506040513d6000823e3d601f19601f82011682018060405250810190610bcc9190611770565b9150610bd8565b809250505b610c92565b600660009054906101000a900473ffffffffffffffffffffffffffffffffffffffff1673ffffffffffffffffffffffffffffffffffffffff1663d06ca61f84896040518363ffffffff1660e01b8152600401610c3a92919061197f565b60006040518083038186803b158015610c5257600080fd5b505afa158015610c66573d6000803e3d6000fd5b505050506040513d6000823e3d601f19601f82011682018060405250810190610c8f9190611770565b91505b60008260018451610ca39190611d0d565b81518110610cda577f4e487b7100000000000000000000000000000000000000000000000000000000600052603260045260246000fd5b602002602001015190506000601e90508760ff1681610cf99190611cb3565b612710610d069190611d0d565b61271083610d149190611cb3565b610d1e9190611ac6565b915081995050505050505050505092915050565b600460009054906101000a900473ffffffffffffffffffffffffffffffffffffffff1681565b6000808290506000610d698461101b565b905060008273ffffffffffffffffffffffffffffffffffffffff166318160ddd6040518163ffffffff1660e01b815260040160206040518083038186803b158015610db357600080fd5b505afa158015610dc7573d6000803e3d6000fd5b505050506040513d601f19601f82011682018060405250810190610deb9190611800565b905060008373ffffffffffffffffffffffffffffffffffffffff1663313ce5676040518163ffffffff1660e01b815260040160206040518083038186803b158015610e3557600080fd5b505afa158015610e49573d6000803e3d6000fd5b505050506040513d601f19601f82011682018060405250810190610e6d9190611829565b905060008282600a610e7f9190611b95565b85610e8a9190611cb3565b610e949190611ac6565b90508095505050505050919050565b60008054906101000a900473ffffffffffffffffffffffffffffffffffffffff1681565b60008083905060008173ffffffffffffffffffffffffffffffffffffffff1663313ce5676040518163ffffffff1660e01b815260040160206040518083038186803b158015610f1557600080fd5b505afa158015610f29573d6000803e3d6000fd5b505050506040513d601f19601f82011682018060405250810190610f4d9190611829565b60ff1690506000600690506000818310610f74578183610f6d9190611d0d565b9050610f83565b8282610f809190611d0d565b90505b6000610f8e88611390565b9050600080831115610fe6578483610fa69190611a39565b600a610fb29190611b4a565b83600a610fbf9190611b4a565b838a610fcb9190611cb3565b610fd59190611cb3565b610fdf9190611ac6565b905061100c565b83600a610ff39190611b4a565b8289610fff9190611cb3565b6110099190611ac6565b90505b80965050505050505092915050565b60008082905060008173ffffffffffffffffffffffffffffffffffffffff16630dfe16816040518163ffffffff1660e01b815260040160206040518083038186803b15801561106957600080fd5b505afa15801561107d573d6000803e3d6000fd5b505050506040513d601f19601f820116820180604052508101906110a191906116cf565b905060008273ffffffffffffffffffffffffffffffffffffffff1663d21220a76040518163ffffffff1660e01b815260040160206040518083038186803b1580156110eb57600080fd5b505afa1580156110ff573d6000803e3d6000fd5b505050506040513d601f19601f8201168201806040525081019061112391906116cf565b90506000829050600082905060008273ffffffffffffffffffffffffffffffffffffffff1663313ce5676040518163ffffffff1660e01b815260040160206040518083038186803b15801561117757600080fd5b505afa15801561118b573d6000803e3d6000fd5b505050506040513d601f19601f820116820180604052508101906111af9190611829565b905060008273ffffffffffffffffffffffffffffffffffffffff1663313ce5676040518163ffffffff1660e01b815260040160206040518083038186803b1580156111f957600080fd5b505afa15801561120d573d6000803e3d6000fd5b505050506040513d601f19601f820116820180604052508101906112319190611829565b9050600061123e87611390565b9050600061124b87611390565b90506000808a73ffffffffffffffffffffffffffffffffffffffff16630902f1ac6040518163ffffffff1660e01b815260040160606040518083038186803b15801561129657600080fd5b505afa1580156112aa573d6000803e3d6000fd5b505050506040513d601f19601f820116820180604052508101906112ce91906117b1565b509150915060008386600a6112e39190611b95565b836dffffffffffffffffffffffffffff166112fe9190611ac6565b6113089190611cb3565b8588600a6113169190611b95565b856dffffffffffffffffffffffffffff166113319190611ac6565b61133b9190611cb3565b6113459190611a39565b9050809c50505050505050505050505050919050565b600061138982600560009054906101000a900473ffffffffffffffffffffffffffffffffffffffff1661042c565b9050919050565b600061139b82610349565b156113b0576113a982610d58565b90506113bc565b6113b98261135b565b90505b919050565b600160009054906101000a900473ffffffffffffffffffffffffffffffffffffffff1681565b60008082905060008173ffffffffffffffffffffffffffffffffffffffff1663c45a01556040518163ffffffff1660e01b815260040160206040518083038186803b15801561143557600080fd5b505afa158015611449573d6000803e3d6000fd5b505050506040513d601f19601f8201168201806040525081019061146d91906116cf565b9050600160009054906101000a900473ffffffffffffffffffffffffffffffffffffffff1673ffffffffffffffffffffffffffffffffffffffff168173ffffffffffffffffffffffffffffffffffffffff1614156114f157600660009054906101000a900473ffffffffffffffffffffffffffffffffffffffff1692505050611578565b600360009054906101000a900473ffffffffffffffffffffffffffffffffffffffff1673ffffffffffffffffffffffffffffffffffffffff168173ffffffffffffffffffffffffffffffffffffffff16141561157357600760009054906101000a900473ffffffffffffffffffffffffffffffffffffffff1692505050611578565b600080fd5b919050565b600061159061158b846119d4565b6119af565b905080838252602082019050828560208602820111156115af57600080fd5b60005b858110156115df57816115c58882611667565b8452602084019350602083019250506001810190506115b2565b5050509392505050565b6000813590506115f881611ec0565b92915050565b60008151905061160d81611ec0565b92915050565b600082601f83011261162457600080fd5b815161163484826020860161157d565b91505092915050565b60008151905061164c81611ed7565b92915050565b60008135905061166181611eee565b92915050565b60008151905061167681611eee565b92915050565b60008151905061168b81611f05565b92915050565b6000815190506116a081611f1c565b92915050565b6000602082840312156116b857600080fd5b60006116c6848285016115e9565b91505092915050565b6000602082840312156116e157600080fd5b60006116ef848285016115fe565b91505092915050565b6000806040838503121561170b57600080fd5b6000611719858286016115e9565b925050602061172a858286016115e9565b9150509250929050565b6000806040838503121561174757600080fd5b6000611755858286016115e9565b925050602061176685828601611652565b9150509250929050565b60006020828403121561178257600080fd5b600082015167ffffffffffffffff81111561179c57600080fd5b6117a884828501611613565b91505092915050565b6000806000606084860312156117c657600080fd5b60006117d48682870161163d565b93505060206117e58682870161163d565b92505060406117f68682870161167c565b9150509250925092565b60006020828403121561181257600080fd5b600061182084828501611667565b91505092915050565b60006020828403121561183b57600080fd5b600061184984828501611691565b91505092915050565b600061185e838361186a565b60208301905092915050565b61187381611d41565b82525050565b61188281611d41565b82525050565b600061189382611a10565b61189d8185611a28565b93506118a883611a00565b8060005b838110156118d95781516118c08882611852565b97506118cb83611a1b565b9250506001810190506118ac565b5085935050505092915050565b6118ef81611d53565b82525050565b6118fe81611dc0565b82525050565b61190d81611d99565b82525050565b60006020820190506119286000830184611879565b92915050565b600060208201905061194360008301846118e6565b92915050565b600060208201905061195e60008301846118f5565b92915050565b60006020820190506119796000830184611904565b92915050565b60006040820190506119946000830185611904565b81810360208301526119a68184611888565b90509392505050565b60006119b96119ca565b90506119c58282611de4565b919050565b6000604051905090565b600067ffffffffffffffff8211156119ef576119ee611e73565b5b602082029050602081019050919050565b6000819050602082019050919050565b600081519050919050565b6000602082019050919050565b600082825260208201905092915050565b6000611a4482611d99565b9150611a4f83611d99565b9250827fffffffffffffffffffffffffffffffffffffffffffffffffffffffffffffffff03821115611a8457611a83611e15565b5b828201905092915050565b6000611a9a82611db3565b9150611aa583611db3565b92508260ff03821115611abb57611aba611e15565b5b828201905092915050565b6000611ad182611d99565b9150611adc83611d99565b925082611aec57611aeb611e44565b5b828204905092915050565b6000808291508390505b6001851115611b4157808604811115611b1d57611b1c611e15565b5b6001851615611b2c5780820291505b8081029050611b3a85611eb3565b9450611b01565b94509492505050565b6000611b5582611d99565b9150611b6083611d99565b9250611b8d7fffffffffffffffffffffffffffffffffffffffffffffffffffffffffffffffff8484611be0565b905092915050565b6000611ba082611d99565b9150611bab83611db3565b9250611bd87fffffffffffffffffffffffffffffffffffffffffffffffffffffffffffffffff8484611be0565b905092915050565b600082611bf05760019050611cac565b81611bfe5760009050611cac565b8160018114611c145760028114611c1e57611c4d565b6001915050611cac565b60ff841115611c3057611c2f611e15565b5b8360020a915084821115611c4757611c46611e15565b5b50611cac565b5060208310610133831016604e8410600b8410161715611c825782820a905083811115611c7d57611c7c611e15565b5b611cac565b611c8f8484846001611af7565b92509050818404811115611ca657611ca5611e15565b5b81810290505b9392505050565b6000611cbe82611d99565b9150611cc983611d99565b9250817fffffffffffffffffffffffffffffffffffffffffffffffffffffffffffffffff0483118215151615611d0257611d01611e15565b5b828202905092915050565b6000611d1882611d99565b9150611d2383611d99565b925082821015611d3657611d35611e15565b5b828203905092915050565b6000611d4c82611d79565b9050919050565b60008115159050919050565b60006dffffffffffffffffffffffffffff82169050919050565b600073ffffffffffffffffffffffffffffffffffffffff82169050919050565b6000819050919050565b600063ffffffff82169050919050565b600060ff82169050919050565b6000611dcb82611dd2565b9050919050565b6000611ddd82611d79565b9050919050565b611ded82611ea2565b810181811067ffffffffffffffff82111715611e0c57611e0b611e73565b5b80604052505050565b7f4e487b7100000000000000000000000000000000000000000000000000000000600052601160045260246000fd5b7f4e487b7100000000000000000000000000000000000000000000000000000000600052601260045260246000fd5b7f4e487b7100000000000000000000000000000000000000000000000000000000600052604160045260246000fd5b6000601f19601f8301169050919050565b60008160011c9050919050565b611ec981611d41565b8114611ed457600080fd5b50565b611ee081611d5f565b8114611eeb57600080fd5b50565b611ef781611d99565b8114611f0257600080fd5b50565b611f0e81611da3565b8114611f1957600080fd5b50565b611f2581611db3565b8114611f3057600080fd5b5056fea2646970667358221220998963499fc1cb79c4f6ce7c1c95178f16f800b7c6ba54dc78c56928059c7b1264736f6c63430008040033",
  "linkReferences": {},
  "deployedLinkReferences": {}
}