{
  "_format": "hh-sol-artifact-1",
  "contractName": "CalculationsSushiswap",
  "sourceName": "contracts/Helper/CalculationsSushiswap.sol",
  "abi": [
    {
      "inputs": [
        {
          "internalType": "address",
          "name": "_primaryRouterAddress",
          "type": "address"
        },
        {
          "internalType": "address",
          "name": "_primaryFactoryAddress",
          "type": "address"
        },
        {
          "internalType": "address",
          "name": "_secondaryRouterAddress",
          "type": "address"
        },
        {
          "internalType": "address",
          "name": "_secondaryFactoryAddress",
          "type": "address"
        },
        {
          "internalType": "address",
          "name": "_usdcAddress",
          "type": "address"
        }
      ],
      "stateMutability": "nonpayable",
      "type": "constructor"
    },
    {
      "inputs": [
        {
          "internalType": "address",
          "name": "tokenAddress",
          "type": "address"
        }
      ],
      "name": "getLpTokenPriceUsdc",
      "outputs": [
        {
          "internalType": "uint256",
          "name": "",
          "type": "uint256"
        }
      ],
      "stateMutability": "view",
      "type": "function"
    },
    {
      "inputs": [
        {
          "internalType": "address",
          "name": "tokenAddress",
          "type": "address"
        }
      ],
      "name": "getLpTokenTotalLiquidityUsdc",
      "outputs": [
        {
          "internalType": "uint256",
          "name": "",
          "type": "uint256"
        }
      ],
      "stateMutability": "view",
      "type": "function"
    },
    {
      "inputs": [
        {
          "internalType": "address",
          "name": "tokenAddress",
          "type": "address"
        },
        {
          "internalType": "uint256",
          "name": "amount",
          "type": "uint256"
        }
      ],
      "name": "getNormalizedValueUsdc",
      "outputs": [
        {
          "internalType": "uint256",
          "name": "",
          "type": "uint256"
        }
      ],
      "stateMutability": "view",
      "type": "function"
    },
    {
      "inputs": [
        {
          "internalType": "address",
          "name": "token0Address",
          "type": "address"
        },
        {
          "internalType": "address",
          "name": "token1Address",
          "type": "address"
        }
      ],
      "name": "getPriceFromRouter",
      "outputs": [
        {
          "internalType": "uint256",
          "name": "",
          "type": "uint256"
        }
      ],
      "stateMutability": "view",
      "type": "function"
    },
    {
      "inputs": [
        {
          "internalType": "address",
          "name": "tokenAddress",
          "type": "address"
        }
      ],
      "name": "getPriceFromRouterUsdc",
      "outputs": [
        {
          "internalType": "uint256",
          "name": "",
          "type": "uint256"
        }
      ],
      "stateMutability": "view",
      "type": "function"
    },
    {
      "inputs": [
        {
          "internalType": "address",
          "name": "tokenAddress",
          "type": "address"
        }
      ],
      "name": "getPriceUsdc",
      "outputs": [
        {
          "internalType": "uint256",
          "name": "",
          "type": "uint256"
        }
      ],
      "stateMutability": "view",
      "type": "function"
    },
    {
      "inputs": [
        {
          "internalType": "address",
          "name": "tokenAddress",
          "type": "address"
        }
      ],
      "name": "getRouterForLpToken",
      "outputs": [
        {
          "internalType": "contract PriceRouter",
          "name": "",
          "type": "address"
        }
      ],
      "stateMutability": "view",
      "type": "function"
    },
    {
      "inputs": [
        {
          "internalType": "address",
          "name": "tokenAddress",
          "type": "address"
        }
      ],
      "name": "isLpToken",
      "outputs": [
        {
          "internalType": "bool",
          "name": "",
          "type": "bool"
        }
      ],
      "stateMutability": "view",
      "type": "function"
    },
    {
      "inputs": [],
      "name": "primaryFactoryAddress",
      "outputs": [
        {
          "internalType": "address",
          "name": "",
          "type": "address"
        }
      ],
      "stateMutability": "view",
      "type": "function"
    },
    {
      "inputs": [],
      "name": "primaryRouterAddress",
      "outputs": [
        {
          "internalType": "address",
          "name": "",
          "type": "address"
        }
      ],
      "stateMutability": "view",
      "type": "function"
    },
    {
      "inputs": [],
      "name": "secondaryFactoryAddress",
      "outputs": [
        {
          "internalType": "address",
          "name": "",
          "type": "address"
        }
      ],
      "stateMutability": "view",
      "type": "function"
    },
    {
      "inputs": [],
      "name": "secondaryRouterAddress",
      "outputs": [
        {
          "internalType": "address",
          "name": "",
          "type": "address"
        }
      ],
      "stateMutability": "view",
      "type": "function"
    },
    {
      "inputs": [],
      "name": "usdcAddress",
      "outputs": [
        {
          "internalType": "address",
          "name": "",
          "type": "address"
        }
      ],
      "stateMutability": "view",
      "type": "function"
    },
    {
      "inputs": [],
      "name": "wethAddress",
      "outputs": [
        {
          "internalType": "address",
          "name": "",
          "type": "address"
        }
      ],
      "stateMutability": "view",
      "type": "function"
    }
  ],
  "bytecode": "0x6080604052600880546001600160a01b031990811673eeeeeeeeeeeeeeeeeeeeeeeeeeeeeeeeeeeeeeee179091556009805490911690553480156200004357600080fd5b5060405162001506380380620015068339810160408190526200006691620001b3565b600080546001600160a01b038088166001600160a01b03199283168117909355600180548883169084161790556002805487831690841681179091556003805487841690851617905560058054928616928416929092179091556006805483168417905560078054909216179055604080516315ab88c960e31b8152905163ad5c464891600480820192602092909190829003018186803b1580156200010b57600080fd5b505afa15801562000120573d6000803e3d6000fd5b505050506040513d601f19601f820116820180604052508101906200014691906200018f565b600480546001600160a01b0319166001600160a01b039290921691909117905550620002229350505050565b80516001600160a01b03811681146200018a57600080fd5b919050565b600060208284031215620001a1578081fd5b620001ac8262000172565b9392505050565b600080600080600060a08688031215620001cb578081fd5b620001d68662000172565b9450620001e66020870162000172565b9350620001f66040870162000172565b9250620002066060870162000172565b9150620002166080870162000172565b90509295509295909350565b6112d480620002326000396000f3fe608060405234801561001057600080fd5b50600436106100ea5760003560e01c80636c7394101161008c578063bc52f13111610066578063bc52f131146101e8578063d61a7847146101fb578063e6a68d001461020e578063eaa457d21461022157600080fd5b80636c739410146101af5780638a7f6680146101c2578063973aaefd146101d557600080fd5b806325d366f1116100c857806325d366f114610155578063369ee46b146101685780634f0e0ef314610189578063583850c91461019c57600080fd5b806302d45457146100ef5780630f24ca7d1461011f57806323373c7a14610142575b600080fd5b600554610102906001600160a01b031681565b6040516001600160a01b0390911681526020015b60405180910390f35b61013261012d366004610e8d565b610234565b6040519015158152602001610116565b600354610102906001600160a01b031681565b600254610102906001600160a01b031681565b61017b610176366004610ecc565b6102ba565b604051908152602001610116565b600454610102906001600160a01b031681565b61017b6101aa366004610e8d565b610813565b600054610102906001600160a01b031681565b61017b6101d0366004610f04565b610939565b61017b6101e3366004610e8d565b610a68565b61017b6101f6366004610e8d565b610d5e565b61017b610209366004610e8d565b610d78565b600154610102906001600160a01b031681565b61010261022f366004610e8d565b610d9a565b600080829050806001600160a01b031663c45a01556040518163ffffffff1660e01b815260040160206040518083038186803b15801561027357600080fd5b505afa9250505080156102a3575060408051601f3d908101601f191682019092526102a091810190610eb0565b60015b6102b05750600092915050565b5060019392505050565b6008546000906001600160a01b03848116911614156102e2576004546001600160a01b031692505b6008546001600160a01b0383811691161415610307576004546001600160a01b031691505b60045460609060009081906001600160a01b038781169116148061033857506004546001600160a01b038681169116145b9050801561042c576001915061034e82806110e4565b60ff1667ffffffffffffffff81111561037757634e487b7160e01b600052604160045260246000fd5b6040519080825280602002602001820160405280156103a0578160200160208202803683370190505b50925085836000815181106103c557634e487b7160e01b600052603260045260246000fd5b60200260200101906001600160a01b031690816001600160a01b031681525050848360018151811061040757634e487b7160e01b600052603260045260246000fd5b60200260200101906001600160a01b031690816001600160a01b031681525050610554565b6002915061043b8260016110e4565b60ff1667ffffffffffffffff81111561046457634e487b7160e01b600052604160045260246000fd5b60405190808252806020026020018201604052801561048d578160200160208202803683370190505b50925085836000815181106104b257634e487b7160e01b600052603260045260246000fd5b6001600160a01b0392831660209182029290920101526004548451911690849060019081106104f157634e487b7160e01b600052603260045260246000fd5b60200260200101906001600160a01b031690816001600160a01b031681525050848360028151811061053357634e487b7160e01b600052603260045260246000fd5b60200260200101906001600160a01b031690816001600160a01b0316815250505b60008690506000816001600160a01b031663313ce5676040518163ffffffff1660e01b815260040160206040518083038186803b15801561059457600080fd5b505afa1580156105a8573d6000803e3d6000fd5b505050506040513d601f19601f820116820180604052508101906105cc9190611055565b6105da9060ff16600a61116c565b6009546002549192506060916001600160a01b0390811691161480159061070b5760065460405163d06ca61f60e01b81526001600160a01b039091169063d06ca61f9061062d9086908b90600401611076565b60006040518083038186803b15801561064557600080fd5b505afa92505050801561067a57506040513d6000823e601f3d908101601f191682016040526106779190810190610f2f565b60015b6107045760075460405163d06ca61f60e01b81526001600160a01b039091169063d06ca61f906106b09086908b90600401611076565b60006040518083038186803b1580156106c857600080fd5b505afa1580156106dc573d6000803e3d6000fd5b505050506040513d6000823e601f3d908101601f191682016040526107049190810190610f2f565b9150610794565b60065460405163d06ca61f60e01b81526001600160a01b039091169063d06ca61f9061073d9086908b90600401611076565b60006040518083038186803b15801561075557600080fd5b505afa158015610769573d6000803e3d6000fd5b505050506040513d6000823e601f3d908101601f191682016040526107919190810190610f2f565b91505b600082600184516107a59190611243565b815181106107c357634e487b7160e01b600052603260045260246000fd5b60209081029190910101519050601e6107df60ff891682611224565b6107eb90612710611243565b6107f783612710611224565b6108019190611109565b99505050505050505050505b92915050565b6000818161082082610a68565b90506000826001600160a01b03166318160ddd6040518163ffffffff1660e01b815260040160206040518083038186803b15801561085d57600080fd5b505afa158015610871573d6000803e3d6000fd5b505050506040513d601f19601f82011682018060405250810190610895919061103d565b90506000836001600160a01b031663313ce5676040518163ffffffff1660e01b815260040160206040518083038186803b1580156108d257600080fd5b505afa1580156108e6573d6000803e3d6000fd5b505050506040513d601f19601f8201168201806040525081019061090a9190611055565b905060008261091a83600a611178565b6109249086611224565b61092e9190611109565b979650505050505050565b6000808390506000816001600160a01b031663313ce5676040518163ffffffff1660e01b815260040160206040518083038186803b15801561097a57600080fd5b505afa15801561098e573d6000803e3d6000fd5b505050506040513d601f19601f820116820180604052508101906109b29190611055565b60ff169050600660008183106109d3576109cc8284611243565b90506109e0565b6109dd8383611243565b90505b60006109eb88610d78565b905060008215610a3a576109ff85846110cc565b610a0a90600a61116c565b610a1584600a61116c565b610a1f848b611224565b610a299190611224565b610a339190611109565b9050610a5c565b610a4584600a61116c565b610a4f838a611224565b610a599190611109565b90505b98975050505050505050565b6000808290506000816001600160a01b0316630dfe16816040518163ffffffff1660e01b815260040160206040518083038186803b158015610aa957600080fd5b505afa158015610abd573d6000803e3d6000fd5b505050506040513d601f19601f82011682018060405250810190610ae19190610eb0565b90506000826001600160a01b031663d21220a76040518163ffffffff1660e01b815260040160206040518083038186803b158015610b1e57600080fd5b505afa158015610b32573d6000803e3d6000fd5b505050506040513d601f19601f82011682018060405250810190610b569190610eb0565b9050600082905060008290506000826001600160a01b031663313ce5676040518163ffffffff1660e01b815260040160206040518083038186803b158015610b9d57600080fd5b505afa158015610bb1573d6000803e3d6000fd5b505050506040513d601f19601f82011682018060405250810190610bd59190611055565b90506000826001600160a01b031663313ce5676040518163ffffffff1660e01b815260040160206040518083038186803b158015610c1257600080fd5b505afa158015610c26573d6000803e3d6000fd5b505050506040513d601f19601f82011682018060405250810190610c4a9190611055565b90506000610c5787610d78565b90506000610c6487610d78565b90506000808a6001600160a01b0316630902f1ac6040518163ffffffff1660e01b815260040160606040518083038186803b158015610ca257600080fd5b505afa158015610cb6573d6000803e3d6000fd5b505050506040513d601f19601f82011682018060405250810190610cda9190610fef565b509092509050600083610cee87600a611178565b610d08906dffffffffffffffffffffffffffff8516611109565b610d129190611224565b85610d1e89600a611178565b610d38906dffffffffffffffffffffffffffff8716611109565b610d429190611224565b610d4c91906110cc565b9e9d5050505050505050505050505050565b60055460009061080d9083906001600160a01b03166102ba565b6000610d8382610234565b15610d915761080d82610813565b61080d82610d5e565b6000808290506000816001600160a01b031663c45a01556040518163ffffffff1660e01b815260040160206040518083038186803b158015610ddb57600080fd5b505afa158015610def573d6000803e3d6000fd5b505050506040513d601f19601f82011682018060405250810190610e139190610eb0565b6001549091506001600160a01b0380831691161415610e405750506006546001600160a01b031692915050565b6003546001600160a01b03828116911614156100ea5750506007546001600160a01b031692915050565b80516dffffffffffffffffffffffffffff81168114610e8857600080fd5b919050565b600060208284031215610e9e578081fd5b8135610ea981611286565b9392505050565b600060208284031215610ec1578081fd5b8151610ea981611286565b60008060408385031215610ede578081fd5b8235610ee981611286565b91506020830135610ef981611286565b809150509250929050565b60008060408385031215610f16578182fd5b8235610f2181611286565b946020939093013593505050565b60006020808385031215610f41578182fd5b825167ffffffffffffffff80821115610f58578384fd5b818501915085601f830112610f6b578384fd5b815181811115610f7d57610f7d611270565b8060051b604051601f19603f83011681018181108582111715610fa257610fa2611270565b604052828152858101935084860182860187018a1015610fc0578788fd5b8795505b83861015610fe2578051855260019590950194938601938601610fc4565b5098975050505050505050565b600080600060608486031215611003578081fd5b61100c84610e6a565b925061101a60208501610e6a565b9150604084015163ffffffff81168114611032578182fd5b809150509250925092565b60006020828403121561104e578081fd5b5051919050565b600060208284031215611066578081fd5b815160ff81168114610ea9578182fd5b60006040820184835260206040818501528185518084526060860191508287019350845b818110156110bf5784516001600160a01b03168352938301939183019160010161109a565b5090979650505050505050565b600082198211156110df576110df61125a565b500190565b600060ff821660ff84168060ff038211156111015761110161125a565b019392505050565b60008261112457634e487b7160e01b81526012600452602481fd5b500490565b600181815b8085111561116457816000190482111561114a5761114a61125a565b8085161561115757918102915b93841c939080029061112e565b509250929050565b6000610ea98383611183565b6000610ea960ff8416835b6000826111925750600161080d565b8161119f5750600061080d565b81600181146111b557600281146111bf576111db565b600191505061080d565b60ff8411156111d0576111d061125a565b50506001821b61080d565b5060208310610133831016604e8410600b84101617156111fe575081810a61080d565b6112088383611129565b806000190482111561121c5761121c61125a565b029392505050565b600081600019048311821515161561123e5761123e61125a565b500290565b6000828210156112555761125561125a565b500390565b634e487b7160e01b600052601160045260246000fd5b634e487b7160e01b600052604160045260246000fd5b6001600160a01b038116811461129b57600080fd5b5056fea264697066735822122025c24eedd383bf3280393e78955f6739dfd8083ec69498946bbd0fa9f96b379c64736f6c63430008040033",
  "linkReferences": {},
  "deployedLinkReferences": {}
}