{
  "_format": "hh-sol-artifact-1",
  "contractName": "VaporAccessFactory",
  "sourceName": "contracts/Access/VaporAccessFactory.sol",
  "abi": [
    {
      "inputs": [],
      "stateMutability": "nonpayable",
      "type": "constructor"
    },
    {
      "anonymous": false,
      "inputs": [
        {
          "indexed": true,
          "internalType": "address",
          "name": "owner",
          "type": "address"
        },
        {
          "indexed": false,
          "internalType": "address",
          "name": "accessControls",
          "type": "address"
        },
        {
          "indexed": false,
          "internalType": "address",
          "name": "admin",
          "type": "address"
        },
        {
          "indexed": false,
          "internalType": "address",
          "name": "accessTemplate",
          "type": "address"
        }
      ],
      "name": "AccessControlCreated",
      "type": "event"
    },
    {
      "anonymous": false,
      "inputs": [
        {
          "indexed": false,
          "internalType": "address",
          "name": "oldAccessControl",
          "type": "address"
        },
        {
          "indexed": false,
          "internalType": "address",
          "name": "newAccessControl",
          "type": "address"
        }
      ],
      "name": "AccessControlTemplateAdded",
      "type": "event"
    },
    {
      "anonymous": false,
      "inputs": [
        {
          "indexed": false,
          "internalType": "address",
          "name": "access",
          "type": "address"
        },
        {
          "indexed": false,
          "internalType": "uint256",
          "name": "templateId",
          "type": "uint256"
        }
      ],
      "name": "AccessControlTemplateRemoved",
      "type": "event"
    },
    {
      "anonymous": false,
      "inputs": [
        {
          "indexed": false,
          "internalType": "address",
          "name": "oldDev",
          "type": "address"
        },
        {
          "indexed": false,
          "internalType": "address",
          "name": "newDev",
          "type": "address"
        }
      ],
      "name": "DevAddressUpdated",
      "type": "event"
    },
    {
      "anonymous": false,
      "inputs": [
        {
          "indexed": false,
          "internalType": "uint256",
          "name": "oldFee",
          "type": "uint256"
        },
        {
          "indexed": false,
          "internalType": "uint256",
          "name": "newFee",
          "type": "uint256"
        }
      ],
      "name": "MinimumFeeUpdated",
      "type": "event"
    },
    {
      "anonymous": false,
      "inputs": [
        {
          "indexed": false,
          "internalType": "address",
          "name": "sender",
          "type": "address"
        }
      ],
      "name": "VaporInitAccessFactory",
      "type": "event"
    },
    {
      "inputs": [],
      "name": "accessControlTemplate",
      "outputs": [
        {
          "internalType": "address",
          "name": "",
          "type": "address"
        }
      ],
      "stateMutability": "view",
      "type": "function"
    },
    {
      "inputs": [],
      "name": "accessControls",
      "outputs": [
        {
          "internalType": "contract VaporAccessControls",
          "name": "",
          "type": "address"
        }
      ],
      "stateMutability": "view",
      "type": "function"
    },
    {
      "inputs": [
        {
          "internalType": "uint256",
          "name": "",
          "type": "uint256"
        }
      ],
      "name": "children",
      "outputs": [
        {
          "internalType": "address",
          "name": "",
          "type": "address"
        }
      ],
      "stateMutability": "view",
      "type": "function"
    },
    {
      "inputs": [
        {
          "internalType": "address",
          "name": "_admin",
          "type": "address"
        }
      ],
      "name": "deployAccessControl",
      "outputs": [
        {
          "internalType": "address",
          "name": "access",
          "type": "address"
        }
      ],
      "stateMutability": "payable",
      "type": "function"
    },
    {
      "inputs": [],
      "name": "devaddr",
      "outputs": [
        {
          "internalType": "address",
          "name": "",
          "type": "address"
        }
      ],
      "stateMutability": "view",
      "type": "function"
    },
    {
      "inputs": [
        {
          "internalType": "uint256",
          "name": "_minimumFee",
          "type": "uint256"
        },
        {
          "internalType": "address",
          "name": "_accessControls",
          "type": "address"
        }
      ],
      "name": "initVaporAccessFactory",
      "outputs": [],
      "stateMutability": "nonpayable",
      "type": "function"
    },
    {
      "inputs": [
        {
          "internalType": "address",
          "name": "",
          "type": "address"
        }
      ],
      "name": "isChild",
      "outputs": [
        {
          "internalType": "bool",
          "name": "",
          "type": "bool"
        }
      ],
      "stateMutability": "view",
      "type": "function"
    },
    {
      "inputs": [],
      "name": "minimumFee",
      "outputs": [
        {
          "internalType": "uint256",
          "name": "",
          "type": "uint256"
        }
      ],
      "stateMutability": "view",
      "type": "function"
    },
    {
      "inputs": [],
      "name": "numberOfChildren",
      "outputs": [
        {
          "internalType": "uint256",
          "name": "",
          "type": "uint256"
        }
      ],
      "stateMutability": "view",
      "type": "function"
    },
    {
      "inputs": [
        {
          "internalType": "address",
          "name": "_devaddr",
          "type": "address"
        }
      ],
      "name": "setDev",
      "outputs": [],
      "stateMutability": "nonpayable",
      "type": "function"
    },
    {
      "inputs": [
        {
          "internalType": "uint256",
          "name": "_minimumFee",
          "type": "uint256"
        }
      ],
      "name": "setMinimumFee",
      "outputs": [],
      "stateMutability": "nonpayable",
      "type": "function"
    },
    {
      "inputs": [
        {
          "internalType": "address",
          "name": "_template",
          "type": "address"
        }
      ],
      "name": "updateAccessTemplate",
      "outputs": [],
      "stateMutability": "nonpayable",
      "type": "function"
    }
  ],
  "bytecode": "0x608060405234801561001057600080fd5b50610a42806100206000396000f3fe6080604052600436106100c75760003560e01c8063748365ef11610074578063d49e77cd1161004e578063d49e77cd146101f7578063e2c6deba14610217578063fc91a8971461023757600080fd5b8063748365ef146101975780637943e04b146101b7578063d477f05f146101d757600080fd5b8063534349f5116100a5578063534349f5146101425780635bd75e45146101575780637002ce421461017757600080fd5b8063182a7506146100cc5780631a7626e7146100ee5780634960742014610117575b600080fd5b3480156100d857600080fd5b506100ec6100e73660046109c9565b610277565b005b3480156100fa57600080fd5b5061010460025481565b6040519081526020015b60405180910390f35b61012a610125366004610988565b6103aa565b6040516001600160a01b03909116815260200161010e565b34801561014e57600080fd5b50600454610104565b34801561016357600080fd5b506100ec610172366004610988565b61055a565b34801561018357600080fd5b5061012a6101923660046109c9565b6106d0565b3480156101a357600080fd5b5060005461012a906001600160a01b031681565b3480156101c357600080fd5b5060015461012a906001600160a01b031681565b3480156101e357600080fd5b506100ec6101f2366004610988565b6106fa565b34801561020357600080fd5b5060035461012a906001600160a01b031681565b34801561022357600080fd5b506100ec6102323660046109e1565b61085d565b34801561024357600080fd5b50610267610252366004610988565b60056020526000908152604090205460ff1681565b604051901515815260200161010e565b60005460405163c395fcb360e01b81523360048201526001600160a01b039091169063c395fcb39060240160206040518083038186803b1580156102ba57600080fd5b505afa1580156102ce573d6000803e3d6000fd5b505050506040513d601f19601f820116820180604052508101906102f291906109a9565b6103695760405162461bcd60e51b815260206004820152603660248201527f5661706f72416363657373466163746f72792e7365744d696e696d756d46656560448201527f3a2053656e646572206d7573742062652061646d696e0000000000000000000060648201526084015b60405180910390fd5b60025460408051918252602082018390527fcc2f49c6214278ae5862935eff953448e8e69118d10abfafaf63ea6aa35255cb910160405180910390a1600255565b60006002543410156103bb57600080fd5b6001546001600160a01b03166103d057600080fd5b6001546103e5906001600160a01b0316610908565b6001600160a01b03818116600081815260056020526040808220805460ff19166001908117909155600480549182018155928390527f8a35acfbc15ff81a39ae7d344fd709f28e8600b4aa8c65c6b64bfe7fe36bd19b01805473ffffffffffffffffffffffffffffffffffffffff191684179055517fe6594abd0000000000000000000000000000000000000000000000000000000081529286169083015291925063e6594abd90602401600060405180830381600087803b1580156104aa57600080fd5b505af11580156104be573d6000803e3d6000fd5b5050600154604080516001600160a01b0380871682528088166020830152909216908201523392507f04bab762abec794d3bbbbb6c239930bfa67fcb065ac0544dc86d570d286c2ddf915060600160405180910390a23415610555576003546040516001600160a01b03909116903480156108fc02916000818181858888f19350505050158015610553573d6000803e3d6000fd5b505b919050565b60005460405163c395fcb360e01b81523360048201526001600160a01b039091169063c395fcb39060240160206040518083038186803b15801561059d57600080fd5b505afa1580156105b1573d6000803e3d6000fd5b505050506040513d601f19601f820116820180604052508101906105d591906109a9565b6106475760405162461bcd60e51b815260206004820152603d60248201527f5661706f72416363657373466163746f72792e7570646174654163636573735460448201527f656d706c6174653a2053656e646572206d7573742062652061646d696e0000006064820152608401610360565b6001600160a01b03811661065a57600080fd5b600154604080516001600160a01b03808516825290921660208301527fbf2021603fd1f7522ea24bb278e25cb332de4ad13e99ed41c6cbebf37005bbbf910160405180910390a16001805473ffffffffffffffffffffffffffffffffffffffff19166001600160a01b0392909216919091179055565b600481815481106106e057600080fd5b6000918252602090912001546001600160a01b0316905081565b60005460405163c395fcb360e01b81523360048201526001600160a01b039091169063c395fcb39060240160206040518083038186803b15801561073d57600080fd5b505afa158015610751573d6000803e3d6000fd5b505050506040513d601f19601f8201168201806040525081019061077591906109a9565b6107e75760405162461bcd60e51b815260206004820152603660248201527f5661706f72416363657373466163746f72792e7365744d696e696d756d46656560448201527f3a2053656e646572206d7573742062652061646d696e000000000000000000006064820152608401610360565b600354604080516001600160a01b03928316815291831660208301527f52882fe9c8937a186eb2653e68b33629cf58f0c3e09b567f0d1db958d3a6c3f0910160405180910390a16003805473ffffffffffffffffffffffffffffffffffffffff19166001600160a01b0392909216919091179055565b600154600160a01b900460ff161561087457600080fd5b60018054600160a01b7fffffffffffffffffffffff00ffffffffffffffffffffffffffffffffffffffff90911617905560028290556000805473ffffffffffffffffffffffffffffffffffffffff19166001600160a01b0383161790556040513381527f51d6f112bd5d0f74557dafea4fa032faeaf797c1138b4e5d26d68fb91574d6989060200160405180910390a15050565b6000808260601b90506040517f3d602d80600a3d3981f3363d3d373d3d3d363d7300000000000000000000000081528160148201527f5af43d82803e903d91602b57fd5bf3000000000000000000000000000000000060288201526037816000f0949350505050565b80356001600160a01b038116811461055557600080fd5b600060208284031215610999578081fd5b6109a282610971565b9392505050565b6000602082840312156109ba578081fd5b815180151581146109a2578182fd5b6000602082840312156109da578081fd5b5035919050565b600080604083850312156109f3578081fd5b82359150610a0360208401610971565b9050925092905056fea26469706673582212203d1faa64bea50fddfbe8536d267e1a744ddec00e371e1bb6eab01a70a3f2c5e664736f6c63430008040033",
  "linkReferences": {},
  "deployedLinkReferences": {}
}