{
  "_format": "hh-sol-artifact-1",
  "contractName": "ERC20",
  "sourceName": "contracts/Tokens/ERC20.sol",
  "abi": [
    {
      "anonymous": false,
      "inputs": [
        {
          "indexed": true,
          "internalType": "address",
          "name": "owner",
          "type": "address"
        },
        {
          "indexed": true,
          "internalType": "address",
          "name": "spender",
          "type": "address"
        },
        {
          "indexed": false,
          "internalType": "uint256",
          "name": "value",
          "type": "uint256"
        }
      ],
      "name": "Approval",
      "type": "event"
    },
    {
      "anonymous": false,
      "inputs": [
        {
          "indexed": true,
          "internalType": "address",
          "name": "from",
          "type": "address"
        },
        {
          "indexed": true,
          "internalType": "address",
          "name": "to",
          "type": "address"
        },
        {
          "indexed": false,
          "internalType": "uint256",
          "name": "value",
          "type": "uint256"
        }
      ],
      "name": "Transfer",
      "type": "event"
    },
    {
      "inputs": [],
      "name": "DOMAIN_SEPARATOR",
      "outputs": [
        {
          "internalType": "bytes32",
          "name": "",
          "type": "bytes32"
        }
      ],
      "stateMutability": "view",
      "type": "function"
    },
    {
      "inputs": [
        {
          "internalType": "address",
          "name": "owner",
          "type": "address"
        },
        {
          "internalType": "address",
          "name": "spender",
          "type": "address"
        }
      ],
      "name": "allowance",
      "outputs": [
        {
          "internalType": "uint256",
          "name": "",
          "type": "uint256"
        }
      ],
      "stateMutability": "view",
      "type": "function"
    },
    {
      "inputs": [
        {
          "internalType": "address",
          "name": "spender",
          "type": "address"
        },
        {
          "internalType": "uint256",
          "name": "amount",
          "type": "uint256"
        }
      ],
      "name": "approve",
      "outputs": [
        {
          "internalType": "bool",
          "name": "",
          "type": "bool"
        }
      ],
      "stateMutability": "nonpayable",
      "type": "function"
    },
    {
      "inputs": [
        {
          "internalType": "address",
          "name": "account",
          "type": "address"
        }
      ],
      "name": "balanceOf",
      "outputs": [
        {
          "internalType": "uint256",
          "name": "",
          "type": "uint256"
        }
      ],
      "stateMutability": "view",
      "type": "function"
    },
    {
      "inputs": [],
      "name": "decimals",
      "outputs": [
        {
          "internalType": "uint8",
          "name": "",
          "type": "uint8"
        }
      ],
      "stateMutability": "view",
      "type": "function"
    },
    {
      "inputs": [
        {
          "internalType": "address",
          "name": "spender",
          "type": "address"
        },
        {
          "internalType": "uint256",
          "name": "subtractedValue",
          "type": "uint256"
        }
      ],
      "name": "decreaseAllowance",
      "outputs": [
        {
          "internalType": "bool",
          "name": "",
          "type": "bool"
        }
      ],
      "stateMutability": "nonpayable",
      "type": "function"
    },
    {
      "inputs": [
        {
          "internalType": "address",
          "name": "spender",
          "type": "address"
        },
        {
          "internalType": "uint256",
          "name": "addedValue",
          "type": "uint256"
        }
      ],
      "name": "increaseAllowance",
      "outputs": [
        {
          "internalType": "bool",
          "name": "",
          "type": "bool"
        }
      ],
      "stateMutability": "nonpayable",
      "type": "function"
    },
    {
      "inputs": [],
      "name": "name",
      "outputs": [
        {
          "internalType": "string",
          "name": "",
          "type": "string"
        }
      ],
      "stateMutability": "view",
      "type": "function"
    },
    {
      "inputs": [
        {
          "internalType": "address",
          "name": "",
          "type": "address"
        }
      ],
      "name": "nonces",
      "outputs": [
        {
          "internalType": "uint256",
          "name": "",
          "type": "uint256"
        }
      ],
      "stateMutability": "view",
      "type": "function"
    },
    {
      "inputs": [
        {
          "internalType": "address",
          "name": "owner_",
          "type": "address"
        },
        {
          "internalType": "address",
          "name": "spender",
          "type": "address"
        },
        {
          "internalType": "uint256",
          "name": "value",
          "type": "uint256"
        },
        {
          "internalType": "uint256",
          "name": "deadline",
          "type": "uint256"
        },
        {
          "internalType": "uint8",
          "name": "v",
          "type": "uint8"
        },
        {
          "internalType": "bytes32",
          "name": "r",
          "type": "bytes32"
        },
        {
          "internalType": "bytes32",
          "name": "s",
          "type": "bytes32"
        }
      ],
      "name": "permit",
      "outputs": [],
      "stateMutability": "nonpayable",
      "type": "function"
    },
    {
      "inputs": [],
      "name": "symbol",
      "outputs": [
        {
          "internalType": "string",
          "name": "",
          "type": "string"
        }
      ],
      "stateMutability": "view",
      "type": "function"
    },
    {
      "inputs": [],
      "name": "totalSupply",
      "outputs": [
        {
          "internalType": "uint256",
          "name": "",
          "type": "uint256"
        }
      ],
      "stateMutability": "view",
      "type": "function"
    },
    {
      "inputs": [
        {
          "internalType": "address",
          "name": "recipient",
          "type": "address"
        },
        {
          "internalType": "uint256",
          "name": "amount",
          "type": "uint256"
        }
      ],
      "name": "transfer",
      "outputs": [
        {
          "internalType": "bool",
          "name": "",
          "type": "bool"
        }
      ],
      "stateMutability": "nonpayable",
      "type": "function"
    },
    {
      "inputs": [
        {
          "internalType": "address",
          "name": "sender",
          "type": "address"
        },
        {
          "internalType": "address",
          "name": "recipient",
          "type": "address"
        },
        {
          "internalType": "uint256",
          "name": "amount",
          "type": "uint256"
        }
      ],
      "name": "transferFrom",
      "outputs": [
        {
          "internalType": "bool",
          "name": "",
          "type": "bool"
        }
      ],
      "stateMutability": "nonpayable",
      "type": "function"
    }
  ],
  "bytecode": "0x608060405234801561001057600080fd5b50611b01806100206000396000f3fe608060405234801561001057600080fd5b50600436106100ea5760003560e01c806370a082311161008c578063a457c2d711610066578063a457c2d714610275578063a9059cbb146102a5578063d505accf146102d5578063dd62ed3e146102f1576100ea565b806370a08231146101f75780637ecebe001461022757806395d89b4114610257576100ea565b806323b872dd116100c857806323b872dd1461015b578063313ce5671461018b5780633644e515146101a957806339509351146101c7576100ea565b806306fdde03146100ef578063095ea7b31461010d57806318160ddd1461013d575b600080fd5b6100f7610321565b604051610104919061148d565b60405180910390f35b61012760048036038101906101229190611158565b6103b3565b60405161013491906113b1565b60405180910390f35b6101456103d1565b60405161015291906115af565b60405180910390f35b6101756004803603810190610170919061106b565b6103db565b60405161018291906113b1565b60405180910390f35b6101936104b4565b6040516101a091906115ca565b60405180910390f35b6101b16104cb565b6040516101be91906113cc565b60405180910390f35b6101e160048036038101906101dc9190611158565b6104d1565b6040516101ee91906113b1565b60405180910390f35b610211600480360381019061020c9190611006565b610584565b60405161021e91906115af565b60405180910390f35b610241600480360381019061023c9190611006565b6105cd565b60405161024e91906115af565b60405180910390f35b61025f6105e5565b60405161026c919061148d565b60405180910390f35b61028f600480360381019061028a9190611158565b610677565b60405161029c91906113b1565b60405180910390f35b6102bf60048036038101906102ba9190611158565b610744565b6040516102cc91906113b1565b60405180910390f35b6102ef60048036038101906102ea91906110ba565b610762565b005b61030b6004803603810190610306919061102f565b6109fe565b60405161031891906115af565b60405180910390f35b60606005805461033090611728565b80601f016020809104026020016040519081016040528092919081815260200182805461035c90611728565b80156103a95780601f1061037e576101008083540402835291602001916103a9565b820191906000526020600020905b81548152906001019060200180831161038c57829003601f168201915b5050505050905090565b60006103c76103c0610a85565b8484610a8d565b6001905092915050565b6000600454905090565b60006103e8848484610c58565b6104a9846103f4610a85565b6104a485604051806060016040528060288152602001611a7f60289139600360008b73ffffffffffffffffffffffffffffffffffffffff1673ffffffffffffffffffffffffffffffffffffffff168152602001908152602001600020600061045a610a85565b73ffffffffffffffffffffffffffffffffffffffff1673ffffffffffffffffffffffffffffffffffffffff16815260200190815260200160002054610ef19092919063ffffffff16565b610a8d565b600190509392505050565b6000600760009054906101000a900460ff16905090565b60005481565b600061057a6104de610a85565b8461057585600360006104ef610a85565b73ffffffffffffffffffffffffffffffffffffffff1673ffffffffffffffffffffffffffffffffffffffff16815260200190815260200160002060008973ffffffffffffffffffffffffffffffffffffffff1673ffffffffffffffffffffffffffffffffffffffff16815260200190815260200160002054610f4f90919063ffffffff16565b610a8d565b6001905092915050565b6000600160008373ffffffffffffffffffffffffffffffffffffffff1673ffffffffffffffffffffffffffffffffffffffff168152602001908152602001600020549050919050565b60026020528060005260406000206000915090505481565b6060600680546105f490611728565b80601f016020809104026020016040519081016040528092919081815260200182805461062090611728565b801561066d5780601f106106425761010080835404028352916020019161066d565b820191906000526020600020905b81548152906001019060200180831161065057829003601f168201915b5050505050905090565b600061073a610684610a85565b8461073585604051806060016040528060258152602001611aa760259139600360006106ae610a85565b73ffffffffffffffffffffffffffffffffffffffff1673ffffffffffffffffffffffffffffffffffffffff16815260200190815260200160002060008a73ffffffffffffffffffffffffffffffffffffffff1673ffffffffffffffffffffffffffffffffffffffff16815260200190815260200160002054610ef19092919063ffffffff16565b610a8d565b6001905092915050565b6000610758610751610a85565b8484610c58565b6001905092915050565b600073ffffffffffffffffffffffffffffffffffffffff168773ffffffffffffffffffffffffffffffffffffffff1614156107d2576040517f08c379a00000000000000000000000000000000000000000000000000000000081526004016107c99061156f565b60405180910390fd5b834210610814576040517f08c379a000000000000000000000000000000000000000000000000000000000815260040161080b9061150f565b60405180910390fd5b60006040518060400160405280600281526020017f19010000000000000000000000000000000000000000000000000000000000008152506000547f6e71edae12b1b97f4d1f60370fef10105fa2faae0126114a169c64845d6126c960001b8a8a8a600260008f73ffffffffffffffffffffffffffffffffffffffff1673ffffffffffffffffffffffffffffffffffffffff16815260200190815260200160002060008154809291906108c69061175a565b919050558b6040516020016108e0969594939291906113e7565b6040516020818303038152906040528051906020012060405160200161090893929190611378565b6040516020818303038152906040528051906020012090506000600182868686604051600081526020016040526040516109459493929190611448565b6020604051602081039080840390855afa158015610967573d6000803e3d6000fd5b5050506020604051035190508873ffffffffffffffffffffffffffffffffffffffff168173ffffffffffffffffffffffffffffffffffffffff16146109e1576040517f08c379a00000000000000000000000000000000000000000000000000000000081526004016109d89061158f565b60405180910390fd5b6109f36109ec610a85565b8989610a8d565b505050505050505050565b6000600360008473ffffffffffffffffffffffffffffffffffffffff1673ffffffffffffffffffffffffffffffffffffffff16815260200190815260200160002060008373ffffffffffffffffffffffffffffffffffffffff1673ffffffffffffffffffffffffffffffffffffffff16815260200190815260200160002054905092915050565b600033905090565b600073ffffffffffffffffffffffffffffffffffffffff168373ffffffffffffffffffffffffffffffffffffffff161415610afd576040517f08c379a0000000000000000000000000000000000000000000000000000000008152600401610af49061154f565b60405180910390fd5b600073ffffffffffffffffffffffffffffffffffffffff168273ffffffffffffffffffffffffffffffffffffffff161415610b6d576040517f08c379a0000000000000000000000000000000000000000000000000000000008152600401610b64906114cf565b60405180910390fd5b80600360008573ffffffffffffffffffffffffffffffffffffffff1673ffffffffffffffffffffffffffffffffffffffff16815260200190815260200160002060008473ffffffffffffffffffffffffffffffffffffffff1673ffffffffffffffffffffffffffffffffffffffff168152602001908152602001600020819055508173ffffffffffffffffffffffffffffffffffffffff168373ffffffffffffffffffffffffffffffffffffffff167f8c5be1e5ebec7d5bd14f71427d1e84f3dd0314c0f7b2291e5b200ac8c7c3b92583604051610c4b91906115af565b60405180910390a3505050565b600073ffffffffffffffffffffffffffffffffffffffff168373ffffffffffffffffffffffffffffffffffffffff161415610cc8576040517f08c379a0000000000000000000000000000000000000000000000000000000008152600401610cbf9061152f565b60405180910390fd5b600073ffffffffffffffffffffffffffffffffffffffff168273ffffffffffffffffffffffffffffffffffffffff161415610d38576040517f08c379a0000000000000000000000000000000000000000000000000000000008152600401610d2f906114af565b60405180910390fd5b610d43838383610fad565b610daf81604051806060016040528060268152602001611a5960269139600160008773ffffffffffffffffffffffffffffffffffffffff1673ffffffffffffffffffffffffffffffffffffffff16815260200190815260200160002054610ef19092919063ffffffff16565b600160008573ffffffffffffffffffffffffffffffffffffffff1673ffffffffffffffffffffffffffffffffffffffff16815260200190815260200160002081905550610e4481600160008573ffffffffffffffffffffffffffffffffffffffff1673ffffffffffffffffffffffffffffffffffffffff16815260200190815260200160002054610f4f90919063ffffffff16565b600160008473ffffffffffffffffffffffffffffffffffffffff1673ffffffffffffffffffffffffffffffffffffffff168152602001908152602001600020819055508173ffffffffffffffffffffffffffffffffffffffff168373ffffffffffffffffffffffffffffffffffffffff167fddf252ad1be2c89b69c2b068fc378daa952ba7f163c4a11628f55a4df523b3ef83604051610ee491906115af565b60405180910390a3505050565b6000838311158290610f39576040517f08c379a0000000000000000000000000000000000000000000000000000000008152600401610f30919061148d565b60405180910390fd5b508284610f469190611662565b90509392505050565b6000808284610f5e919061160c565b905083811015610fa3576040517f08c379a0000000000000000000000000000000000000000000000000000000008152600401610f9a906114ef565b60405180910390fd5b8091505092915050565b505050565b600081359050610fc1816119fc565b92915050565b600081359050610fd681611a13565b92915050565b600081359050610feb81611a2a565b92915050565b60008135905061100081611a41565b92915050565b60006020828403121561101857600080fd5b600061102684828501610fb2565b91505092915050565b6000806040838503121561104257600080fd5b600061105085828601610fb2565b925050602061106185828601610fb2565b9150509250929050565b60008060006060848603121561108057600080fd5b600061108e86828701610fb2565b935050602061109f86828701610fb2565b92505060406110b086828701610fdc565b9150509250925092565b600080600080600080600060e0888a0312156110d557600080fd5b60006110e38a828b01610fb2565b97505060206110f48a828b01610fb2565b96505060406111058a828b01610fdc565b95505060606111168a828b01610fdc565b94505060806111278a828b01610ff1565b93505060a06111388a828b01610fc7565b92505060c06111498a828b01610fc7565b91505092959891949750929550565b6000806040838503121561116b57600080fd5b600061117985828601610fb2565b925050602061118a85828601610fdc565b9150509250929050565b61119d81611696565b82525050565b6111ac816116a8565b82525050565b6111bb816116b4565b82525050565b6111d26111cd826116b4565b6117a3565b82525050565b60006111e3826115e5565b6111ed81856115f0565b93506111fd8185602086016116f5565b6112068161180b565b840191505092915050565b600061121c826115e5565b6112268185611601565b93506112368185602086016116f5565b80840191505092915050565b600061124f6023836115f0565b915061125a8261181c565b604082019050919050565b60006112726022836115f0565b915061127d8261186b565b604082019050919050565b6000611295601b836115f0565b91506112a0826118ba565b602082019050919050565b60006112b8600e836115f0565b91506112c3826118e3565b602082019050919050565b60006112db6025836115f0565b91506112e68261190c565b604082019050919050565b60006112fe6024836115f0565b91506113098261195b565b604082019050919050565b60006113216018836115f0565b915061132c826119aa565b602082019050919050565b60006113446018836115f0565b915061134f826119d3565b602082019050919050565b611363816116de565b82525050565b611372816116e8565b82525050565b60006113848286611211565b915061139082856111c1565b6020820191506113a082846111c1565b602082019150819050949350505050565b60006020820190506113c660008301846111a3565b92915050565b60006020820190506113e160008301846111b2565b92915050565b600060c0820190506113fc60008301896111b2565b6114096020830188611194565b6114166040830187611194565b611423606083018661135a565b611430608083018561135a565b61143d60a083018461135a565b979650505050505050565b600060808201905061145d60008301876111b2565b61146a6020830186611369565b61147760408301856111b2565b61148460608301846111b2565b95945050505050565b600060208201905081810360008301526114a781846111d8565b905092915050565b600060208201905081810360008301526114c881611242565b9050919050565b600060208201905081810360008301526114e881611265565b9050919050565b6000602082019050818103600083015261150881611288565b9050919050565b60006020820190508181036000830152611528816112ab565b9050919050565b60006020820190508181036000830152611548816112ce565b9050919050565b60006020820190508181036000830152611568816112f1565b9050919050565b6000602082019050818103600083015261158881611314565b9050919050565b600060208201905081810360008301526115a881611337565b9050919050565b60006020820190506115c4600083018461135a565b92915050565b60006020820190506115df6000830184611369565b92915050565b600081519050919050565b600082825260208201905092915050565b600081905092915050565b6000611617826116de565b9150611622836116de565b9250827fffffffffffffffffffffffffffffffffffffffffffffffffffffffffffffffff03821115611657576116566117ad565b5b828201905092915050565b600061166d826116de565b9150611678836116de565b92508282101561168b5761168a6117ad565b5b828203905092915050565b60006116a1826116be565b9050919050565b60008115159050919050565b6000819050919050565b600073ffffffffffffffffffffffffffffffffffffffff82169050919050565b6000819050919050565b600060ff82169050919050565b60005b838110156117135780820151818401526020810190506116f8565b83811115611722576000848401525b50505050565b6000600282049050600182168061174057607f821691505b60208210811415611754576117536117dc565b5b50919050565b6000611765826116de565b91507fffffffffffffffffffffffffffffffffffffffffffffffffffffffffffffffff821415611798576117976117ad565b5b600182019050919050565b6000819050919050565b7f4e487b7100000000000000000000000000000000000000000000000000000000600052601160045260246000fd5b7f4e487b7100000000000000000000000000000000000000000000000000000000600052602260045260246000fd5b6000601f19601f8301169050919050565b7f45524332303a207472616e7366657220746f20746865207a65726f206164647260008201527f6573730000000000000000000000000000000000000000000000000000000000602082015250565b7f45524332303a20617070726f766520746f20746865207a65726f20616464726560008201527f7373000000000000000000000000000000000000000000000000000000000000602082015250565b7f536166654d6174683a206164646974696f6e206f766572666c6f770000000000600082015250565b7f45524332303a2045787069726564000000000000000000000000000000000000600082015250565b7f45524332303a207472616e736665722066726f6d20746865207a65726f20616460008201527f6472657373000000000000000000000000000000000000000000000000000000602082015250565b7f45524332303a20617070726f76652066726f6d20746865207a65726f2061646460008201527f7265737300000000000000000000000000000000000000000000000000000000602082015250565b7f45524332303a204f776e65722063616e6e6f7420626520300000000000000000600082015250565b7f45524332303a20496e76616c6964205369676e61747572650000000000000000600082015250565b611a0581611696565b8114611a1057600080fd5b50565b611a1c816116b4565b8114611a2757600080fd5b50565b611a33816116de565b8114611a3e57600080fd5b50565b611a4a816116e8565b8114611a5557600080fd5b5056fe45524332303a207472616e7366657220616d6f756e7420657863656564732062616c616e636545524332303a207472616e7366657220616d6f756e74206578636565647320616c6c6f77616e636545524332303a2064656372656173656420616c6c6f77616e63652062656c6f77207a65726fa2646970667358221220b910ae3f017c3a6fc60f29ac228af8c9cd9a323cedbf228c22583eb4c8debc0764736f6c63430008040033",
  "linkReferences": {},
  "deployedLinkReferences": {}
}