{
  "_format": "hh-sol-artifact-1",
  "contractName": "ERC20",
  "sourceName": "contracts/Tokens/ERC20.sol",
  "abi": [
    {
      "anonymous": false,
      "inputs": [
        {
          "indexed": true,
          "internalType": "address",
          "name": "owner",
          "type": "address"
        },
        {
          "indexed": true,
          "internalType": "address",
          "name": "spender",
          "type": "address"
        },
        {
          "indexed": false,
          "internalType": "uint256",
          "name": "value",
          "type": "uint256"
        }
      ],
      "name": "Approval",
      "type": "event"
    },
    {
      "anonymous": false,
      "inputs": [
        {
          "indexed": true,
          "internalType": "address",
          "name": "from",
          "type": "address"
        },
        {
          "indexed": true,
          "internalType": "address",
          "name": "to",
          "type": "address"
        },
        {
          "indexed": false,
          "internalType": "uint256",
          "name": "value",
          "type": "uint256"
        }
      ],
      "name": "Transfer",
      "type": "event"
    },
    {
      "inputs": [],
      "name": "DOMAIN_SEPARATOR",
      "outputs": [
        {
          "internalType": "bytes32",
          "name": "",
          "type": "bytes32"
        }
      ],
      "stateMutability": "view",
      "type": "function"
    },
    {
      "inputs": [
        {
          "internalType": "address",
          "name": "owner",
          "type": "address"
        },
        {
          "internalType": "address",
          "name": "spender",
          "type": "address"
        }
      ],
      "name": "allowance",
      "outputs": [
        {
          "internalType": "uint256",
          "name": "",
          "type": "uint256"
        }
      ],
      "stateMutability": "view",
      "type": "function"
    },
    {
      "inputs": [
        {
          "internalType": "address",
          "name": "spender",
          "type": "address"
        },
        {
          "internalType": "uint256",
          "name": "amount",
          "type": "uint256"
        }
      ],
      "name": "approve",
      "outputs": [
        {
          "internalType": "bool",
          "name": "",
          "type": "bool"
        }
      ],
      "stateMutability": "nonpayable",
      "type": "function"
    },
    {
      "inputs": [
        {
          "internalType": "address",
          "name": "account",
          "type": "address"
        }
      ],
      "name": "balanceOf",
      "outputs": [
        {
          "internalType": "uint256",
          "name": "",
          "type": "uint256"
        }
      ],
      "stateMutability": "view",
      "type": "function"
    },
    {
      "inputs": [],
      "name": "decimals",
      "outputs": [
        {
          "internalType": "uint8",
          "name": "",
          "type": "uint8"
        }
      ],
      "stateMutability": "view",
      "type": "function"
    },
    {
      "inputs": [
        {
          "internalType": "address",
          "name": "spender",
          "type": "address"
        },
        {
          "internalType": "uint256",
          "name": "subtractedValue",
          "type": "uint256"
        }
      ],
      "name": "decreaseAllowance",
      "outputs": [
        {
          "internalType": "bool",
          "name": "",
          "type": "bool"
        }
      ],
      "stateMutability": "nonpayable",
      "type": "function"
    },
    {
      "inputs": [
        {
          "internalType": "address",
          "name": "spender",
          "type": "address"
        },
        {
          "internalType": "uint256",
          "name": "addedValue",
          "type": "uint256"
        }
      ],
      "name": "increaseAllowance",
      "outputs": [
        {
          "internalType": "bool",
          "name": "",
          "type": "bool"
        }
      ],
      "stateMutability": "nonpayable",
      "type": "function"
    },
    {
      "inputs": [],
      "name": "name",
      "outputs": [
        {
          "internalType": "string",
          "name": "",
          "type": "string"
        }
      ],
      "stateMutability": "view",
      "type": "function"
    },
    {
      "inputs": [
        {
          "internalType": "address",
          "name": "",
          "type": "address"
        }
      ],
      "name": "nonces",
      "outputs": [
        {
          "internalType": "uint256",
          "name": "",
          "type": "uint256"
        }
      ],
      "stateMutability": "view",
      "type": "function"
    },
    {
      "inputs": [
        {
          "internalType": "address",
          "name": "owner_",
          "type": "address"
        },
        {
          "internalType": "address",
          "name": "spender",
          "type": "address"
        },
        {
          "internalType": "uint256",
          "name": "value",
          "type": "uint256"
        },
        {
          "internalType": "uint256",
          "name": "deadline",
          "type": "uint256"
        },
        {
          "internalType": "uint8",
          "name": "v",
          "type": "uint8"
        },
        {
          "internalType": "bytes32",
          "name": "r",
          "type": "bytes32"
        },
        {
          "internalType": "bytes32",
          "name": "s",
          "type": "bytes32"
        }
      ],
      "name": "permit",
      "outputs": [],
      "stateMutability": "nonpayable",
      "type": "function"
    },
    {
      "inputs": [],
      "name": "symbol",
      "outputs": [
        {
          "internalType": "string",
          "name": "",
          "type": "string"
        }
      ],
      "stateMutability": "view",
      "type": "function"
    },
    {
      "inputs": [],
      "name": "totalSupply",
      "outputs": [
        {
          "internalType": "uint256",
          "name": "",
          "type": "uint256"
        }
      ],
      "stateMutability": "view",
      "type": "function"
    },
    {
      "inputs": [
        {
          "internalType": "address",
          "name": "recipient",
          "type": "address"
        },
        {
          "internalType": "uint256",
          "name": "amount",
          "type": "uint256"
        }
      ],
      "name": "transfer",
      "outputs": [
        {
          "internalType": "bool",
          "name": "",
          "type": "bool"
        }
      ],
      "stateMutability": "nonpayable",
      "type": "function"
    },
    {
      "inputs": [
        {
          "internalType": "address",
          "name": "sender",
          "type": "address"
        },
        {
          "internalType": "address",
          "name": "recipient",
          "type": "address"
        },
        {
          "internalType": "uint256",
          "name": "amount",
          "type": "uint256"
        }
      ],
      "name": "transferFrom",
      "outputs": [
        {
          "internalType": "bool",
          "name": "",
          "type": "bool"
        }
      ],
      "stateMutability": "nonpayable",
      "type": "function"
    }
  ],
  "bytecode": "0x608060405234801561001057600080fd5b50610d36806100206000396000f3fe608060405234801561001057600080fd5b50600436106100ea5760003560e01c806370a082311161008c578063a457c2d711610066578063a457c2d7146101d7578063a9059cbb146101ea578063d505accf146101fd578063dd62ed3e1461021257600080fd5b806370a08231146101865780637ecebe00146101af57806395d89b41146101cf57600080fd5b806323b872dd116100c857806323b872dd14610142578063313ce567146101555780633644e5151461016a578063395093511461017357600080fd5b806306fdde03146100ef578063095ea7b31461010d57806318160ddd14610130575b600080fd5b6100f761024b565b6040516101049190610b8f565b60405180910390f35b61012061011b366004610b3f565b6102dd565b6040519015158152602001610104565b6004545b604051908152602001610104565b610120610150366004610a93565b6102f3565b60075460405160ff9091168152602001610104565b61013460005481565b610120610181366004610b3f565b61035c565b610134610194366004610a47565b6001600160a01b031660009081526001602052604090205490565b6101346101bd366004610a47565b60026020526000908152604090205481565b6100f7610392565b6101206101e5366004610b3f565b6103a1565b6101206101f8366004610b3f565b6103f0565b61021061020b366004610ace565b6103fd565b005b610134610220366004610a61565b6001600160a01b03918216600090815260036020908152604080832093909416825291909152205490565b60606005805461025a90610c21565b80601f016020809104026020016040519081016040528092919081815260200182805461028690610c21565b80156102d35780601f106102a8576101008083540402835291602001916102d3565b820191906000526020600020905b8154815290600101906020018083116102b657829003601f168201915b5050505050905090565b60006102ea33848461067d565b50600192915050565b60006103008484846107d6565b610352843361034d85604051806060016040528060288152602001610cb4602891396001600160a01b038a166000908152600360209081526040808320338452909152902054919061098e565b61067d565b5060019392505050565b3360008181526003602090815260408083206001600160a01b038716845290915281205490916102ea91859061034d90866109c5565b60606006805461025a90610c21565b60006102ea338461034d85604051806060016040528060258152602001610cdc602591393360009081526003602090815260408083206001600160a01b038d168452909152902054919061098e565b60006102ea3384846107d6565b6001600160a01b0387166104585760405162461bcd60e51b815260206004820152601860248201527f45524332303a204f776e65722063616e6e6f742062652030000000000000000060448201526064015b60405180910390fd5b8342106104a75760405162461bcd60e51b815260206004820152600e60248201527f45524332303a2045787069726564000000000000000000000000000000000000604482015260640161044f565b60408051808201825260028082527f1901000000000000000000000000000000000000000000000000000000000000602080840191909152600080546001600160a01b038d1682529290915292832080547f6e71edae12b1b97f4d1f60370fef10105fa2faae0126114a169c64845d6126c9918c918c918c91908861052b83610c5c565b909155506040805160208101969096526001600160a01b0394851690860152929091166060840152608083015260a082015260c0810188905260e0016040516020818303038152906040528051906020012060405160200161058f93929190610b68565b60408051601f198184030181528282528051602091820120600080855291840180845281905260ff88169284019290925260608301869052608083018590529092509060019060a0016020604051602081039080840390855afa1580156105fa573d6000803e3d6000fd5b505050602060405103519050886001600160a01b0316816001600160a01b0316146106675760405162461bcd60e51b815260206004820152601860248201527f45524332303a20496e76616c6964205369676e61747572650000000000000000604482015260640161044f565b61067233898961067d565b505050505050505050565b6001600160a01b0383166106f85760405162461bcd60e51b8152602060048201526024808201527f45524332303a20617070726f76652066726f6d20746865207a65726f2061646460448201527f7265737300000000000000000000000000000000000000000000000000000000606482015260840161044f565b6001600160a01b0382166107745760405162461bcd60e51b815260206004820152602260248201527f45524332303a20617070726f766520746f20746865207a65726f20616464726560448201527f7373000000000000000000000000000000000000000000000000000000000000606482015260840161044f565b6001600160a01b0383811660008181526003602090815260408083209487168084529482529182902085905590518481527f8c5be1e5ebec7d5bd14f71427d1e84f3dd0314c0f7b2291e5b200ac8c7c3b92591015b60405180910390a3505050565b6001600160a01b0383166108525760405162461bcd60e51b815260206004820152602560248201527f45524332303a207472616e736665722066726f6d20746865207a65726f20616460448201527f6472657373000000000000000000000000000000000000000000000000000000606482015260840161044f565b6001600160a01b0382166108ce5760405162461bcd60e51b815260206004820152602360248201527f45524332303a207472616e7366657220746f20746865207a65726f206164647260448201527f6573730000000000000000000000000000000000000000000000000000000000606482015260840161044f565b61090b81604051806060016040528060268152602001610c8e602691396001600160a01b038616600090815260016020526040902054919061098e565b6001600160a01b03808516600090815260016020526040808220939093559084168152205461093a90826109c5565b6001600160a01b0380841660008181526001602052604090819020939093559151908516907fddf252ad1be2c89b69c2b068fc378daa952ba7f163c4a11628f55a4df523b3ef906107c99085815260200190565b600081848411156109b25760405162461bcd60e51b815260040161044f9190610b8f565b506109bd8385610bda565b949350505050565b6000806109d28385610bc2565b905083811015610a245760405162461bcd60e51b815260206004820152601b60248201527f536166654d6174683a206164646974696f6e206f766572666c6f770000000000604482015260640161044f565b9392505050565b80356001600160a01b0381168114610a4257600080fd5b919050565b600060208284031215610a58578081fd5b610a2482610a2b565b60008060408385031215610a73578081fd5b610a7c83610a2b565b9150610a8a60208401610a2b565b90509250929050565b600080600060608486031215610aa7578081fd5b610ab084610a2b565b9250610abe60208501610a2b565b9150604084013590509250925092565b600080600080600080600060e0888a031215610ae8578283fd5b610af188610a2b565b9650610aff60208901610a2b565b95506040880135945060608801359350608088013560ff81168114610b22578384fd5b9699959850939692959460a0840135945060c09093013592915050565b60008060408385031215610b51578182fd5b610b5a83610a2b565b946020939093013593505050565b60008451610b7a818460208901610bf1565b91909101928352506020820152604001919050565b6020815260008251806020840152610bae816040850160208701610bf1565b601f01601f19169190910160400192915050565b60008219821115610bd557610bd5610c77565b500190565b600082821015610bec57610bec610c77565b500390565b60005b83811015610c0c578181015183820152602001610bf4565b83811115610c1b576000848401525b50505050565b600181811c90821680610c3557607f821691505b60208210811415610c5657634e487b7160e01b600052602260045260246000fd5b50919050565b6000600019821415610c7057610c70610c77565b5060010190565b634e487b7160e01b600052601160045260246000fdfe45524332303a207472616e7366657220616d6f756e7420657863656564732062616c616e636545524332303a207472616e7366657220616d6f756e74206578636565647320616c6c6f77616e636545524332303a2064656372656173656420616c6c6f77616e63652062656c6f77207a65726fa26469706673582212201e800eb067bffa216d6ed483953de80f782eda61eb642a580af96a46c9fecf3064736f6c63430008040033",
  "linkReferences": {},
  "deployedLinkReferences": {}
}