{
  "_format": "hh-sol-artifact-1",
  "contractName": "BaseBoringBatchable",
  "sourceName": "contracts/Utils/BoringBatchable.sol",
  "abi": [
    {
      "inputs": [
        {
          "internalType": "bytes[]",
          "name": "calls",
          "type": "bytes[]"
        },
        {
          "internalType": "bool",
          "name": "revertOnFail",
          "type": "bool"
        }
      ],
      "name": "batch",
      "outputs": [
        {
          "internalType": "bool[]",
          "name": "successes",
          "type": "bool[]"
        },
        {
          "internalType": "bytes[]",
          "name": "results",
          "type": "bytes[]"
        }
      ],
      "stateMutability": "payable",
      "type": "function"
    }
  ],
  "bytecode": "0x608060405234801561001057600080fd5b506109e0806100206000396000f3fe60806040526004361061001e5760003560e01c8063d2423b5114610023575b600080fd5b61003d60048036038101906100389190610440565b610054565b60405161004b929190610697565b60405180910390f35b6060808484905067ffffffffffffffff81111561009a577f4e487b7100000000000000000000000000000000000000000000000000000000600052604160045260246000fd5b6040519080825280602002602001820160405280156100c85781602001602082028036833780820191505090505b5091508484905067ffffffffffffffff81111561010e577f4e487b7100000000000000000000000000000000000000000000000000000000600052604160045260246000fd5b60405190808252806020026020018201604052801561014157816020015b606081526020019060019003908161012c5790505b50905060005b85859050811015610305576000803073ffffffffffffffffffffffffffffffffffffffff168888858181106101a5577f4e487b7100000000000000000000000000000000000000000000000000000000600052603260045260246000fd5b90506020028101906101b791906106f0565b6040516101c592919061067e565b600060405180830381855af49150503d8060008114610200576040519150601f19603f3d011682016040523d82523d6000602084013e610205565b606091505b50915091508180610214575085155b61021d8261030e565b9061025e576040517f08c379a000000000000000000000000000000000000000000000000000000000815260040161025591906106ce565b60405180910390fd5b5081858481518110610299577f4e487b7100000000000000000000000000000000000000000000000000000000600052603260045260246000fd5b602002602001019015159081151581525050808484815181106102e5577f4e487b7100000000000000000000000000000000000000000000000000000000600052603260045260246000fd5b6020026020010181905250505080806102fd906108db565b915050610147565b50935093915050565b6060604482511015610357576040518060400160405280601d81526020017f5472616e73616374696f6e2072657665727465642073696c656e746c790000008152509050610374565b600482019150818060200190518101906103719190610498565b90505b919050565b600061038c6103878461076c565b610747565b9050828152602081018484840111156103a457600080fd5b6103af848285610877565b509392505050565b60008083601f8401126103c957600080fd5b8235905067ffffffffffffffff8111156103e257600080fd5b6020830191508360208202830111156103fa57600080fd5b9250929050565b60008135905061041081610993565b92915050565b600082601f83011261042757600080fd5b8151610437848260208601610379565b91505092915050565b60008060006040848603121561045557600080fd5b600084013567ffffffffffffffff81111561046f57600080fd5b61047b868287016103b7565b9350935050602061048e86828701610401565b9150509250925092565b6000602082840312156104aa57600080fd5b600082015167ffffffffffffffff8111156104c457600080fd5b6104d084828501610416565b91505092915050565b60006104e583836105d8565b60208301905092915050565b60006104fd838361060c565b905092915050565b6000610510826107bd565b61051a8185610803565b93506105258361079d565b8060005b8381101561055657815161053d88826104d9565b9750610548836107e9565b925050600181019050610529565b5085935050505092915050565b600061056e826107c8565b6105788185610814565b93508360208202850161058a856107ad565b8060005b858110156105c657848403895281516105a785826104f1565b94506105b2836107f6565b925060208a0199505060018101905061058e565b50829750879550505050505092915050565b6105e181610852565b82525050565b60006105f38385610836565b9350610600838584610868565b82840190509392505050565b6000610617826107d3565b6106218185610825565b9350610631818560208601610877565b61063a81610982565b840191505092915050565b6000610650826107de565b61065a8185610841565b935061066a818560208601610877565b61067381610982565b840191505092915050565b600061068b8284866105e7565b91508190509392505050565b600060408201905081810360008301526106b18185610505565b905081810360208301526106c58184610563565b90509392505050565b600060208201905081810360008301526106e88184610645565b905092915050565b6000808335600160200384360303811261070957600080fd5b80840192508235915067ffffffffffffffff82111561072757600080fd5b60208301925060018202360383131561073f57600080fd5b509250929050565b6000610751610762565b905061075d82826108aa565b919050565b6000604051905090565b600067ffffffffffffffff82111561078757610786610953565b5b61079082610982565b9050602081019050919050565b6000819050602082019050919050565b6000819050602082019050919050565b600081519050919050565b600081519050919050565b600081519050919050565b600081519050919050565b6000602082019050919050565b6000602082019050919050565b600082825260208201905092915050565b600082825260208201905092915050565b600082825260208201905092915050565b600081905092915050565b600082825260208201905092915050565b60008115159050919050565b6000819050919050565b82818337600083830152505050565b60005b8381101561089557808201518184015260208101905061087a565b838111156108a4576000848401525b50505050565b6108b382610982565b810181811067ffffffffffffffff821117156108d2576108d1610953565b5b80604052505050565b60006108e68261085e565b91507fffffffffffffffffffffffffffffffffffffffffffffffffffffffffffffffff82141561091957610918610924565b5b600182019050919050565b7f4e487b7100000000000000000000000000000000000000000000000000000000600052601160045260246000fd5b7f4e487b7100000000000000000000000000000000000000000000000000000000600052604160045260246000fd5b6000601f19601f8301169050919050565b61099c81610852565b81146109a757600080fd5b5056fea2646970667358221220437812b2c65721672ff6b9c6ccb595373f679659e385a7ff9961841fa01c92b364736f6c63430008040033",
  "linkReferences": {},
  "deployedLinkReferences": {}
}