{
  "_format": "hh-sol-artifact-1",
  "contractName": "BaseBoringBatchable",
  "sourceName": "contracts/Utils/BoringBatchable.sol",
  "abi": [
    {
      "inputs": [
        {
          "internalType": "bytes[]",
          "name": "calls",
          "type": "bytes[]"
        },
        {
          "internalType": "bool",
          "name": "revertOnFail",
          "type": "bool"
        }
      ],
      "name": "batch",
      "outputs": [
        {
          "internalType": "bool[]",
          "name": "successes",
          "type": "bool[]"
        },
        {
          "internalType": "bytes[]",
          "name": "results",
          "type": "bytes[]"
        }
      ],
      "stateMutability": "payable",
      "type": "function"
    }
  ],
  "bytecode": "0x608060405234801561001057600080fd5b506105d7806100206000396000f3fe60806040526004361061001e5760003560e01c8063d2423b5114610023575b600080fd5b6100366100313660046102cb565b61004d565b604051610044929190610435565b60405180910390f35b6060808367ffffffffffffffff81111561007757634e487b7160e01b600052604160045260246000fd5b6040519080825280602002602001820160405280156100a0578160200160208202803683370190505b5091508367ffffffffffffffff8111156100ca57634e487b7160e01b600052604160045260246000fd5b6040519080825280602002602001820160405280156100fd57816020015b60608152602001906001900390816100e85790505b50905060005b8481101561025d576000803088888581811061012f57634e487b7160e01b600052603260045260246000fd5b905060200281019061014191906104e8565b60405161014f929190610425565b600060405180830381855af49150503d806000811461018a576040519150601f19603f3d011682016040523d82523d6000602084013e61018f565b606091505b5091509150818061019e575085155b6101a782610266565b906101e8576040517f08c379a00000000000000000000000000000000000000000000000000000000081526004016101df91906104ce565b60405180910390fd5b508185848151811061020a57634e487b7160e01b600052603260045260246000fd5b6020026020010190151590811515815250508084848151811061023d57634e487b7160e01b600052603260045260246000fd5b60200260200101819052505050808061025590610564565b915050610103565b50935093915050565b60606044825110156102ab57505060408051808201909152601d81527f5472616e73616374696f6e2072657665727465642073696c656e746c79000000602082015290565b600482019150818060200190518101906102c59190610350565b92915050565b6000806000604084860312156102df578283fd5b833567ffffffffffffffff808211156102f6578485fd5b818601915086601f830112610309578485fd5b813581811115610317578586fd5b8760208260051b850101111561032b578586fd5b602092830195509350508401358015158114610345578182fd5b809150509250925092565b600060208284031215610361578081fd5b815167ffffffffffffffff80821115610378578283fd5b818401915084601f83011261038b578283fd5b81518181111561039d5761039d61058b565b604051601f8201601f19908116603f011681019083821181831017156103c5576103c561058b565b816040528281528760208487010111156103dd578586fd5b6103ee836020830160208801610534565b979650505050505050565b60008151808452610411816020860160208601610534565b601f01601f19169290920160200192915050565b8183823760009101908152919050565b604080825283519082018190526000906020906060840190828701845b82811015610470578151151584529284019290840190600101610452565b50505083810382850152845180825282820190600581901b83018401878501865b838110156104bf57601f198684030185526104ad8383516103f9565b94870194925090860190600101610491565b50909998505050505050505050565b6020815260006104e160208301846103f9565b9392505050565b6000808335601e198436030181126104fe578283fd5b83018035915067ffffffffffffffff821115610518578283fd5b60200191503681900382131561052d57600080fd5b9250929050565b60005b8381101561054f578181015183820152602001610537565b8381111561055e576000848401525b50505050565b600060001982141561058457634e487b7160e01b81526011600452602481fd5b5060010190565b634e487b7160e01b600052604160045260246000fdfea2646970667358221220599d31bc80b6cfefd153e8cc67a77480f064f7b4be503e74f51f832cf2d2329564736f6c63430008040033",
  "linkReferences": {},
  "deployedLinkReferences": {}
}