{
  "_format": "hh-sol-artifact-1",
  "contractName": "BoringBatchable",
  "sourceName": "contracts/Utils/BoringBatchable.sol",
  "abi": [
    {
      "inputs": [
        {
          "internalType": "bytes[]",
          "name": "calls",
          "type": "bytes[]"
        },
        {
          "internalType": "bool",
          "name": "revertOnFail",
          "type": "bool"
        }
      ],
      "name": "batch",
      "outputs": [
        {
          "internalType": "bool[]",
          "name": "successes",
          "type": "bool[]"
        },
        {
          "internalType": "bytes[]",
          "name": "results",
          "type": "bytes[]"
        }
      ],
      "stateMutability": "payable",
      "type": "function"
    },
    {
      "inputs": [
        {
          "internalType": "contract IERC20",
          "name": "token",
          "type": "address"
        },
        {
          "internalType": "address",
          "name": "from",
          "type": "address"
        },
        {
          "internalType": "address",
          "name": "to",
          "type": "address"
        },
        {
          "internalType": "uint256",
          "name": "amount",
          "type": "uint256"
        },
        {
          "internalType": "uint256",
          "name": "deadline",
          "type": "uint256"
        },
        {
          "internalType": "uint8",
          "name": "v",
          "type": "uint8"
        },
        {
          "internalType": "bytes32",
          "name": "r",
          "type": "bytes32"
        },
        {
          "internalType": "bytes32",
          "name": "s",
          "type": "bytes32"
        }
      ],
      "name": "permitToken",
      "outputs": [],
      "stateMutability": "nonpayable",
      "type": "function"
    }
  ],
  "bytecode": "0x608060405234801561001057600080fd5b50610d29806100206000396000f3fe6080604052600436106100295760003560e01c80637c516e941461002e578063d2423b5114610057575b600080fd5b34801561003a57600080fd5b50610055600480360381019061005091906105b6565b610088565b005b610071600480360381019061006c919061055e565b610109565b60405161007f929190610912565b60405180910390f35b8773ffffffffffffffffffffffffffffffffffffffff1663d505accf888888888888886040518863ffffffff1660e01b81526004016100cd97969594939291906108a3565b600060405180830381600087803b1580156100e757600080fd5b505af11580156100fb573d6000803e3d6000fd5b505050505050505050505050565b6060808484905067ffffffffffffffff81111561014f577f4e487b7100000000000000000000000000000000000000000000000000000000600052604160045260246000fd5b60405190808252806020026020018201604052801561017d5781602001602082028036833780820191505090505b5091508484905067ffffffffffffffff8111156101c3577f4e487b7100000000000000000000000000000000000000000000000000000000600052604160045260246000fd5b6040519080825280602002602001820160405280156101f657816020015b60608152602001906001900390816101e15790505b50905060005b858590508110156103ba576000803073ffffffffffffffffffffffffffffffffffffffff1688888581811061025a577f4e487b7100000000000000000000000000000000000000000000000000000000600052603260045260246000fd5b905060200281019061026c919061096b565b60405161027a92919061088a565b600060405180830381855af49150503d80600081146102b5576040519150601f19603f3d011682016040523d82523d6000602084013e6102ba565b606091505b509150915081806102c9575085155b6102d2826103c3565b90610313576040517f08c379a000000000000000000000000000000000000000000000000000000000815260040161030a9190610949565b60405180910390fd5b508185848151811061034e577f4e487b7100000000000000000000000000000000000000000000000000000000600052603260045260246000fd5b6020026020010190151590811515815250508084848151811061039a577f4e487b7100000000000000000000000000000000000000000000000000000000600052603260045260246000fd5b6020026020010181905250505080806103b290610bb1565b9150506101fc565b50935093915050565b606060448251101561040c576040518060400160405280601d81526020017f5472616e73616374696f6e2072657665727465642073696c656e746c790000008152509050610429565b600482019150818060200190518101906104269190610668565b90505b919050565b600061044161043c846109e7565b6109c2565b90508281526020810184848401111561045957600080fd5b610464848285610b4d565b509392505050565b60008135905061047b81610c69565b92915050565b60008083601f84011261049357600080fd5b8235905067ffffffffffffffff8111156104ac57600080fd5b6020830191508360208202830111156104c457600080fd5b9250929050565b6000813590506104da81610c80565b92915050565b6000813590506104ef81610c97565b92915050565b60008135905061050481610cae565b92915050565b600082601f83011261051b57600080fd5b815161052b84826020860161042e565b91505092915050565b60008135905061054381610cc5565b92915050565b60008135905061055881610cdc565b92915050565b60008060006040848603121561057357600080fd5b600084013567ffffffffffffffff81111561058d57600080fd5b61059986828701610481565b935093505060206105ac868287016104cb565b9150509250925092565b600080600080600080600080610100898b0312156105d357600080fd5b60006105e18b828c016104f5565b98505060206105f28b828c0161046c565b97505060406106038b828c0161046c565b96505060606106148b828c01610534565b95505060806106258b828c01610534565b94505060a06106368b828c01610549565b93505060c06106478b828c016104e0565b92505060e06106588b828c016104e0565b9150509295985092959890939650565b60006020828403121561067a57600080fd5b600082015167ffffffffffffffff81111561069457600080fd5b6106a08482850161050a565b91505092915050565b60006106b583836107b7565b60208301905092915050565b60006106cd83836107fa565b905092915050565b6106de81610acd565b82525050565b60006106ef82610a38565b6106f98185610a7e565b935061070483610a18565b8060005b8381101561073557815161071c88826106a9565b975061072783610a64565b925050600181019050610708565b5085935050505092915050565b600061074d82610a43565b6107578185610a8f565b93508360208202850161076985610a28565b8060005b858110156107a5578484038952815161078685826106c1565b945061079183610a71565b925060208a0199505060018101905061076d565b50829750879550505050505092915050565b6107c081610adf565b82525050565b6107cf81610aeb565b82525050565b60006107e18385610ab1565b93506107ee838584610b3e565b82840190509392505050565b600061080582610a4e565b61080f8185610aa0565b935061081f818560208601610b4d565b61082881610c58565b840191505092915050565b600061083e82610a59565b6108488185610abc565b9350610858818560208601610b4d565b61086181610c58565b840191505092915050565b61087581610b27565b82525050565b61088481610b31565b82525050565b60006108978284866107d5565b91508190509392505050565b600060e0820190506108b8600083018a6106d5565b6108c560208301896106d5565b6108d2604083018861086c565b6108df606083018761086c565b6108ec608083018661087b565b6108f960a08301856107c6565b61090660c08301846107c6565b98975050505050505050565b6000604082019050818103600083015261092c81856106e4565b905081810360208301526109408184610742565b90509392505050565b600060208201905081810360008301526109638184610833565b905092915050565b6000808335600160200384360303811261098457600080fd5b80840192508235915067ffffffffffffffff8211156109a257600080fd5b6020830192506001820236038313156109ba57600080fd5b509250929050565b60006109cc6109dd565b90506109d88282610b80565b919050565b6000604051905090565b600067ffffffffffffffff821115610a0257610a01610c29565b5b610a0b82610c58565b9050602081019050919050565b6000819050602082019050919050565b6000819050602082019050919050565b600081519050919050565b600081519050919050565b600081519050919050565b600081519050919050565b6000602082019050919050565b6000602082019050919050565b600082825260208201905092915050565b600082825260208201905092915050565b600082825260208201905092915050565b600081905092915050565b600082825260208201905092915050565b6000610ad882610b07565b9050919050565b60008115159050919050565b6000819050919050565b6000610b0082610acd565b9050919050565b600073ffffffffffffffffffffffffffffffffffffffff82169050919050565b6000819050919050565b600060ff82169050919050565b82818337600083830152505050565b60005b83811015610b6b578082015181840152602081019050610b50565b83811115610b7a576000848401525b50505050565b610b8982610c58565b810181811067ffffffffffffffff82111715610ba857610ba7610c29565b5b80604052505050565b6000610bbc82610b27565b91507fffffffffffffffffffffffffffffffffffffffffffffffffffffffffffffffff821415610bef57610bee610bfa565b5b600182019050919050565b7f4e487b7100000000000000000000000000000000000000000000000000000000600052601160045260246000fd5b7f4e487b7100000000000000000000000000000000000000000000000000000000600052604160045260246000fd5b6000601f19601f8301169050919050565b610c7281610acd565b8114610c7d57600080fd5b50565b610c8981610adf565b8114610c9457600080fd5b50565b610ca081610aeb565b8114610cab57600080fd5b50565b610cb781610af5565b8114610cc257600080fd5b50565b610cce81610b27565b8114610cd957600080fd5b50565b610ce581610b31565b8114610cf057600080fd5b5056fea26469706673582212200b582b4cc3904be4f3e740fe1ef2894dfb70b19682e1e502661b7f78ec90aeb864736f6c63430008040033",
  "linkReferences": {},
  "deployedLinkReferences": {}
}