{
  "_format": "hh-sol-artifact-1",
  "contractName": "BoringBatchable",
  "sourceName": "contracts/Utils/BoringBatchable.sol",
  "abi": [
    {
      "inputs": [
        {
          "internalType": "bytes[]",
          "name": "calls",
          "type": "bytes[]"
        },
        {
          "internalType": "bool",
          "name": "revertOnFail",
          "type": "bool"
        }
      ],
      "name": "batch",
      "outputs": [
        {
          "internalType": "bool[]",
          "name": "successes",
          "type": "bool[]"
        },
        {
          "internalType": "bytes[]",
          "name": "results",
          "type": "bytes[]"
        }
      ],
      "stateMutability": "payable",
      "type": "function"
    },
    {
      "inputs": [
        {
          "internalType": "contract IERC20",
          "name": "token",
          "type": "address"
        },
        {
          "internalType": "address",
          "name": "from",
          "type": "address"
        },
        {
          "internalType": "address",
          "name": "to",
          "type": "address"
        },
        {
          "internalType": "uint256",
          "name": "amount",
          "type": "uint256"
        },
        {
          "internalType": "uint256",
          "name": "deadline",
          "type": "uint256"
        },
        {
          "internalType": "uint8",
          "name": "v",
          "type": "uint8"
        },
        {
          "internalType": "bytes32",
          "name": "r",
          "type": "bytes32"
        },
        {
          "internalType": "bytes32",
          "name": "s",
          "type": "bytes32"
        }
      ],
      "name": "permitToken",
      "outputs": [],
      "stateMutability": "nonpayable",
      "type": "function"
    }
  ],
  "bytecode": "0x608060405234801561001057600080fd5b50610768806100206000396000f3fe6080604052600436106100295760003560e01c80637c516e941461002e578063d2423b5114610050575b600080fd5b34801561003a57600080fd5b5061004e610049366004610435565b61007a565b005b61006361005e3660046103b0565b610132565b6040516100719291906105a1565b60405180910390f35b6040517fd505accf00000000000000000000000000000000000000000000000000000000815273ffffffffffffffffffffffffffffffffffffffff88811660048301528781166024830152604482018790526064820186905260ff8516608483015260a4820184905260c4820183905289169063d505accf9060e401600060405180830381600087803b15801561011057600080fd5b505af1158015610124573d6000803e3d6000fd5b505050505050505050505050565b6060808367ffffffffffffffff81111561015c57634e487b7160e01b600052604160045260246000fd5b604051908082528060200260200182016040528015610185578160200160208202803683370190505b5091508367ffffffffffffffff8111156101af57634e487b7160e01b600052604160045260246000fd5b6040519080825280602002602001820160405280156101e257816020015b60608152602001906001900390816101cd5790505b50905060005b84811015610342576000803088888581811061021457634e487b7160e01b600052603260045260246000fd5b90506020028101906102269190610654565b604051610234929190610591565b600060405180830381855af49150503d806000811461026f576040519150601f19603f3d011682016040523d82523d6000602084013e610274565b606091505b50915091508180610283575085155b61028c8261034b565b906102cd576040517f08c379a00000000000000000000000000000000000000000000000000000000081526004016102c4919061063a565b60405180910390fd5b50818584815181106102ef57634e487b7160e01b600052603260045260246000fd5b6020026020010190151590811515815250508084848151811061032257634e487b7160e01b600052603260045260246000fd5b60200260200101819052505050808061033a906106d0565b9150506101e8565b50935093915050565b606060448251101561039057505060408051808201909152601d81527f5472616e73616374696f6e2072657665727465642073696c656e746c79000000602082015290565b600482019150818060200190518101906103aa91906104bc565b92915050565b6000806000604084860312156103c4578283fd5b833567ffffffffffffffff808211156103db578485fd5b818601915086601f8301126103ee578485fd5b8135818111156103fc578586fd5b8760208260051b8501011115610410578586fd5b60209283019550935050840135801515811461042a578182fd5b809150509250925092565b600080600080600080600080610100898b031215610451578384fd5b883561045c8161070d565b9750602089013561046c8161070d565b9650604089013561047c8161070d565b9550606089013594506080890135935060a089013560ff8116811461049f578384fd5b979a969950949793969295929450505060c08201359160e0013590565b6000602082840312156104cd578081fd5b815167ffffffffffffffff808211156104e4578283fd5b818401915084601f8301126104f7578283fd5b815181811115610509576105096106f7565b604051601f8201601f19908116603f01168101908382118183101715610531576105316106f7565b81604052828152876020848701011115610549578586fd5b61055a8360208301602088016106a0565b979650505050505050565b6000815180845261057d8160208601602086016106a0565b601f01601f19169290920160200192915050565b8183823760009101908152919050565b604080825283519082018190526000906020906060840190828701845b828110156105dc5781511515845292840192908401906001016105be565b50505083810382850152845180825282820190600581901b83018401878501865b8381101561062b57601f19868403018552610619838351610565565b948701949250908601906001016105fd565b50909998505050505050505050565b60208152600061064d6020830184610565565b9392505050565b6000808335601e1984360301811261066a578283fd5b83018035915067ffffffffffffffff821115610684578283fd5b60200191503681900382131561069957600080fd5b9250929050565b60005b838110156106bb5781810151838201526020016106a3565b838111156106ca576000848401525b50505050565b60006000198214156106f057634e487b7160e01b81526011600452602481fd5b5060010190565b634e487b7160e01b600052604160045260246000fd5b73ffffffffffffffffffffffffffffffffffffffff8116811461072f57600080fd5b5056fea2646970667358221220f540fca9f4d48eb4df73a6ce60bcf3e26ea53f5222e05b83784269c7edefbb4c64736f6c63430008040033",
  "linkReferences": {},
  "deployedLinkReferences": {}
}