{
  "_format": "hh-sol-artifact-1",
  "contractName": "MISOAccessFactory",
  "sourceName": "contracts/Access/MISOAccessFactory.sol",
  "abi": [
    {
      "inputs": [],
      "stateMutability": "nonpayable",
      "type": "constructor"
    },
    {
      "anonymous": false,
      "inputs": [
        {
          "indexed": true,
          "internalType": "address",
          "name": "owner",
          "type": "address"
        },
        {
          "indexed": false,
          "internalType": "address",
          "name": "accessControls",
          "type": "address"
        },
        {
          "indexed": false,
          "internalType": "address",
          "name": "admin",
          "type": "address"
        },
        {
          "indexed": false,
          "internalType": "address",
          "name": "accessTemplate",
          "type": "address"
        }
      ],
      "name": "AccessControlCreated",
      "type": "event"
    },
    {
      "anonymous": false,
      "inputs": [
        {
          "indexed": false,
          "internalType": "address",
          "name": "oldAccessControl",
          "type": "address"
        },
        {
          "indexed": false,
          "internalType": "address",
          "name": "newAccessControl",
          "type": "address"
        }
      ],
      "name": "AccessControlTemplateAdded",
      "type": "event"
    },
    {
      "anonymous": false,
      "inputs": [
        {
          "indexed": false,
          "internalType": "address",
          "name": "access",
          "type": "address"
        },
        {
          "indexed": false,
          "internalType": "uint256",
          "name": "templateId",
          "type": "uint256"
        }
      ],
      "name": "AccessControlTemplateRemoved",
      "type": "event"
    },
    {
      "anonymous": false,
      "inputs": [
        {
          "indexed": false,
          "internalType": "address",
          "name": "oldDev",
          "type": "address"
        },
        {
          "indexed": false,
          "internalType": "address",
          "name": "newDev",
          "type": "address"
        }
      ],
      "name": "DevAddressUpdated",
      "type": "event"
    },
    {
      "anonymous": false,
      "inputs": [
        {
          "indexed": false,
          "internalType": "uint256",
          "name": "oldFee",
          "type": "uint256"
        },
        {
          "indexed": false,
          "internalType": "uint256",
          "name": "newFee",
          "type": "uint256"
        }
      ],
      "name": "MinimumFeeUpdated",
      "type": "event"
    },
    {
      "anonymous": false,
      "inputs": [
        {
          "indexed": false,
          "internalType": "address",
          "name": "sender",
          "type": "address"
        }
      ],
      "name": "MisoInitAccessFactory",
      "type": "event"
    },
    {
      "inputs": [],
      "name": "accessControlTemplate",
      "outputs": [
        {
          "internalType": "address",
          "name": "",
          "type": "address"
        }
      ],
      "stateMutability": "view",
      "type": "function"
    },
    {
      "inputs": [],
      "name": "accessControls",
      "outputs": [
        {
          "internalType": "contract MISOAccessControls",
          "name": "",
          "type": "address"
        }
      ],
      "stateMutability": "view",
      "type": "function"
    },
    {
      "inputs": [
        {
          "internalType": "uint256",
          "name": "",
          "type": "uint256"
        }
      ],
      "name": "children",
      "outputs": [
        {
          "internalType": "address",
          "name": "",
          "type": "address"
        }
      ],
      "stateMutability": "view",
      "type": "function"
    },
    {
      "inputs": [
        {
          "internalType": "address",
          "name": "_admin",
          "type": "address"
        }
      ],
      "name": "deployAccessControl",
      "outputs": [
        {
          "internalType": "address",
          "name": "access",
          "type": "address"
        }
      ],
      "stateMutability": "payable",
      "type": "function"
    },
    {
      "inputs": [],
      "name": "devaddr",
      "outputs": [
        {
          "internalType": "address",
          "name": "",
          "type": "address"
        }
      ],
      "stateMutability": "view",
      "type": "function"
    },
    {
      "inputs": [
        {
          "internalType": "uint256",
          "name": "_minimumFee",
          "type": "uint256"
        },
        {
          "internalType": "address",
          "name": "_accessControls",
          "type": "address"
        }
      ],
      "name": "initMISOAccessFactory",
      "outputs": [],
      "stateMutability": "nonpayable",
      "type": "function"
    },
    {
      "inputs": [
        {
          "internalType": "address",
          "name": "",
          "type": "address"
        }
      ],
      "name": "isChild",
      "outputs": [
        {
          "internalType": "bool",
          "name": "",
          "type": "bool"
        }
      ],
      "stateMutability": "view",
      "type": "function"
    },
    {
      "inputs": [],
      "name": "minimumFee",
      "outputs": [
        {
          "internalType": "uint256",
          "name": "",
          "type": "uint256"
        }
      ],
      "stateMutability": "view",
      "type": "function"
    },
    {
      "inputs": [],
      "name": "numberOfChildren",
      "outputs": [
        {
          "internalType": "uint256",
          "name": "",
          "type": "uint256"
        }
      ],
      "stateMutability": "view",
      "type": "function"
    },
    {
      "inputs": [
        {
          "internalType": "address",
          "name": "_devaddr",
          "type": "address"
        }
      ],
      "name": "setDev",
      "outputs": [],
      "stateMutability": "nonpayable",
      "type": "function"
    },
    {
      "inputs": [
        {
          "internalType": "uint256",
          "name": "_minimumFee",
          "type": "uint256"
        }
      ],
      "name": "setMinimumFee",
      "outputs": [],
      "stateMutability": "nonpayable",
      "type": "function"
    },
    {
      "inputs": [
        {
          "internalType": "address",
          "name": "_template",
          "type": "address"
        }
      ],
      "name": "updateAccessTemplate",
      "outputs": [],
      "stateMutability": "nonpayable",
      "type": "function"
    }
  ],
  "bytecode": "0x608060405234801561001057600080fd5b50611037806100206000396000f3fe6080604052600436106100a75760003560e01c80637002ce42116100645780637002ce42146101ad578063748365ef146101ea5780637943e04b14610215578063d477f05f14610240578063d49e77cd14610269578063fc91a89714610294576100a7565b8063182a7506146100ac5780631a7626e7146100d55780634960742014610100578063534349f5146101305780635bd75e451461015b5780636d657e9614610184575b600080fd5b3480156100b857600080fd5b506100d360048036038101906100ce9190610c85565b6102d1565b005b3480156100e157600080fd5b506100ea6103fe565b6040516100f79190610e5d565b60405180910390f35b61011a60048036038101906101159190610c33565b610404565b6040516101279190610d6c565b60405180910390f35b34801561013c57600080fd5b506101456106b0565b6040516101529190610e5d565b60405180910390f35b34801561016757600080fd5b50610182600480360381019061017d9190610c33565b6106bd565b005b34801561019057600080fd5b506101ab60048036038101906101a69190610cae565b61087e565b005b3480156101b957600080fd5b506101d460048036038101906101cf9190610c85565b610934565b6040516101e19190610d6c565b60405180910390f35b3480156101f657600080fd5b506101ff610973565b60405161020c9190610e02565b60405180910390f35b34801561022157600080fd5b5061022a610997565b6040516102379190610d6c565b60405180910390f35b34801561024c57600080fd5b5061026760048036038101906102629190610c33565b6109bd565b005b34801561027557600080fd5b5061027e610b44565b60405161028b9190610d6c565b60405180910390f35b3480156102a057600080fd5b506102bb60048036038101906102b69190610c33565b610b6a565b6040516102c89190610de7565b60405180910390f35b60008054906101000a900473ffffffffffffffffffffffffffffffffffffffff1673ffffffffffffffffffffffffffffffffffffffff1663c395fcb3336040518263ffffffff1660e01b815260040161032a9190610d6c565b60206040518083038186803b15801561034257600080fd5b505afa158015610356573d6000803e3d6000fd5b505050506040513d601f19601f8201168201806040525081019061037a9190610c5c565b6103b9576040517f08c379a00000000000000000000000000000000000000000000000000000000081526004016103b090610e3d565b60405180910390fd5b7fcc2f49c6214278ae5862935eff953448e8e69118d10abfafaf63ea6aa35255cb600254826040516103ec929190610e78565b60405180910390a18060028190555050565b60025481565b600060025434101561041557600080fd5b600073ffffffffffffffffffffffffffffffffffffffff16600160009054906101000a900473ffffffffffffffffffffffffffffffffffffffff1673ffffffffffffffffffffffffffffffffffffffff16141561047157600080fd5b61049c600160009054906101000a900473ffffffffffffffffffffffffffffffffffffffff16610b8a565b90506001600560008373ffffffffffffffffffffffffffffffffffffffff1673ffffffffffffffffffffffffffffffffffffffff16815260200190815260200160002060006101000a81548160ff0219169083151502179055506004819080600181540180825580915050600190039060005260206000200160009091909190916101000a81548173ffffffffffffffffffffffffffffffffffffffff021916908373ffffffffffffffffffffffffffffffffffffffff1602179055508073ffffffffffffffffffffffffffffffffffffffff1663e6594abd836040518263ffffffff1660e01b81526004016105929190610d6c565b600060405180830381600087803b1580156105ac57600080fd5b505af11580156105c0573d6000803e3d6000fd5b505050503373ffffffffffffffffffffffffffffffffffffffff167f04bab762abec794d3bbbbb6c239930bfa67fcb065ac0544dc86d570d286c2ddf8284600160009054906101000a900473ffffffffffffffffffffffffffffffffffffffff1660405161063093929190610db0565b60405180910390a260003411156106ab57600360009054906101000a900473ffffffffffffffffffffffffffffffffffffffff1673ffffffffffffffffffffffffffffffffffffffff166108fc349081150290604051600060405180830381858888f193505050501580156106a9573d6000803e3d6000fd5b505b919050565b6000600480549050905090565b60008054906101000a900473ffffffffffffffffffffffffffffffffffffffff1673ffffffffffffffffffffffffffffffffffffffff1663c395fcb3336040518263ffffffff1660e01b81526004016107169190610d6c565b60206040518083038186803b15801561072e57600080fd5b505afa158015610742573d6000803e3d6000fd5b505050506040513d601f19601f820116820180604052508101906107669190610c5c565b6107a5576040517f08c379a000000000000000000000000000000000000000000000000000000000815260040161079c90610e1d565b60405180910390fd5b600073ffffffffffffffffffffffffffffffffffffffff168173ffffffffffffffffffffffffffffffffffffffff1614156107df57600080fd5b7fbf2021603fd1f7522ea24bb278e25cb332de4ad13e99ed41c6cbebf37005bbbf81600160009054906101000a900473ffffffffffffffffffffffffffffffffffffffff16604051610832929190610d87565b60405180910390a180600160006101000a81548173ffffffffffffffffffffffffffffffffffffffff021916908373ffffffffffffffffffffffffffffffffffffffff16021790555050565b600160149054906101000a900460ff161561089857600080fd5b60018060146101000a81548160ff02191690831515021790555081600281905550806000806101000a81548173ffffffffffffffffffffffffffffffffffffffff021916908373ffffffffffffffffffffffffffffffffffffffff1602179055507f160479302f22eec0a2327a51401f61e05f763ca151a30f7a556841d31dc2f45a336040516109289190610d6c565b60405180910390a15050565b6004818154811061094457600080fd5b906000526020600020016000915054906101000a900473ffffffffffffffffffffffffffffffffffffffff1681565b60008054906101000a900473ffffffffffffffffffffffffffffffffffffffff1681565b600160009054906101000a900473ffffffffffffffffffffffffffffffffffffffff1681565b60008054906101000a900473ffffffffffffffffffffffffffffffffffffffff1673ffffffffffffffffffffffffffffffffffffffff1663c395fcb3336040518263ffffffff1660e01b8152600401610a169190610d6c565b60206040518083038186803b158015610a2e57600080fd5b505afa158015610a42573d6000803e3d6000fd5b505050506040513d601f19601f82011682018060405250810190610a669190610c5c565b610aa5576040517f08c379a0000000000000000000000000000000000000000000000000000000008152600401610a9c90610e3d565b60405180910390fd5b7f52882fe9c8937a186eb2653e68b33629cf58f0c3e09b567f0d1db958d3a6c3f0600360009054906101000a900473ffffffffffffffffffffffffffffffffffffffff1682604051610af8929190610d87565b60405180910390a180600360006101000a81548173ffffffffffffffffffffffffffffffffffffffff021916908373ffffffffffffffffffffffffffffffffffffffff16021790555050565b600360009054906101000a900473ffffffffffffffffffffffffffffffffffffffff1681565b60056020528060005260406000206000915054906101000a900460ff1681565b6000808260601b90506040517f3d602d80600a3d3981f3363d3d373d3d3d363d7300000000000000000000000081528160148201527f5af43d82803e903d91602b57fd5bf3000000000000000000000000000000000060288201526037816000f092505050919050565b600081359050610c0381610fbc565b92915050565b600081519050610c1881610fd3565b92915050565b600081359050610c2d81610fea565b92915050565b600060208284031215610c4557600080fd5b6000610c5384828501610bf4565b91505092915050565b600060208284031215610c6e57600080fd5b6000610c7c84828501610c09565b91505092915050565b600060208284031215610c9757600080fd5b6000610ca584828501610c1e565b91505092915050565b60008060408385031215610cc157600080fd5b6000610ccf85828601610c1e565b9250506020610ce085828601610bf4565b9150509250929050565b610cf381610eb2565b82525050565b610d0281610ec4565b82525050565b610d1181610efa565b82525050565b6000610d24603c83610ea1565b9150610d2f82610f1e565b604082019050919050565b6000610d47603583610ea1565b9150610d5282610f6d565b604082019050919050565b610d6681610ef0565b82525050565b6000602082019050610d816000830184610cea565b92915050565b6000604082019050610d9c6000830185610cea565b610da96020830184610cea565b9392505050565b6000606082019050610dc56000830186610cea565b610dd26020830185610cea565b610ddf6040830184610cea565b949350505050565b6000602082019050610dfc6000830184610cf9565b92915050565b6000602082019050610e176000830184610d08565b92915050565b60006020820190508181036000830152610e3681610d17565b9050919050565b60006020820190508181036000830152610e5681610d3a565b9050919050565b6000602082019050610e726000830184610d5d565b92915050565b6000604082019050610e8d6000830185610d5d565b610e9a6020830184610d5d565b9392505050565b600082825260208201905092915050565b6000610ebd82610ed0565b9050919050565b60008115159050919050565b600073ffffffffffffffffffffffffffffffffffffffff82169050919050565b6000819050919050565b6000610f0582610f0c565b9050919050565b6000610f1782610ed0565b9050919050565b7f4d49534f416363657373466163746f72792e757064617465416363657373546560008201527f6d706c6174653a2053656e646572206d7573742062652061646d696e00000000602082015250565b7f4d49534f416363657373466163746f72792e7365744d696e696d756d4665653a60008201527f2053656e646572206d7573742062652061646d696e0000000000000000000000602082015250565b610fc581610eb2565b8114610fd057600080fd5b50565b610fdc81610ec4565b8114610fe757600080fd5b50565b610ff381610ef0565b8114610ffe57600080fd5b5056fea26469706673582212208c7a8bdd857e6803d6dde491e77ee9a4641995438ea95abdd2750ed9fbdc7d7b64736f6c63430008040033",
  "linkReferences": {},
  "deployedLinkReferences": {}
}