{
  "_format": "hh-sol-artifact-1",
  "contractName": "PairsHelper",
  "sourceName": "contracts/Helper/PairsHelper.sol",
  "abi": [
    {
      "inputs": [
        {
          "internalType": "address",
          "name": "_wethAddress",
          "type": "address"
        },
        {
          "internalType": "address",
          "name": "_uniqueAddressesHelperAddress",
          "type": "address"
        }
      ],
      "stateMutability": "nonpayable",
      "type": "constructor"
    },
    {
      "inputs": [],
      "name": "owner",
      "outputs": [
        {
          "internalType": "address",
          "name": "",
          "type": "address"
        }
      ],
      "stateMutability": "view",
      "type": "function"
    },
    {
      "inputs": [
        {
          "internalType": "address",
          "name": "factoryAddress",
          "type": "address"
        },
        {
          "internalType": "uint256",
          "name": "pageSize",
          "type": "uint256"
        },
        {
          "internalType": "uint256",
          "name": "offset",
          "type": "uint256"
        }
      ],
      "name": "pagesLength",
      "outputs": [
        {
          "internalType": "uint256",
          "name": "",
          "type": "uint256"
        }
      ],
      "stateMutability": "view",
      "type": "function"
    },
    {
      "inputs": [
        {
          "internalType": "address",
          "name": "factoryAddress",
          "type": "address"
        },
        {
          "internalType": "uint256",
          "name": "pageSize",
          "type": "uint256"
        }
      ],
      "name": "pagesLength",
      "outputs": [
        {
          "internalType": "uint256",
          "name": "",
          "type": "uint256"
        }
      ],
      "stateMutability": "view",
      "type": "function"
    },
    {
      "inputs": [
        {
          "internalType": "address",
          "name": "factoryAddress",
          "type": "address"
        }
      ],
      "name": "pairsAddresses",
      "outputs": [
        {
          "internalType": "address[]",
          "name": "",
          "type": "address[]"
        }
      ],
      "stateMutability": "view",
      "type": "function"
    },
    {
      "inputs": [
        {
          "internalType": "address",
          "name": "factoryAddress",
          "type": "address"
        },
        {
          "internalType": "uint256",
          "name": "pageSize",
          "type": "uint256"
        },
        {
          "internalType": "uint256",
          "name": "pageNbr",
          "type": "uint256"
        },
        {
          "internalType": "uint256",
          "name": "offset",
          "type": "uint256"
        }
      ],
      "name": "pairsAddresses",
      "outputs": [
        {
          "internalType": "address[]",
          "name": "",
          "type": "address[]"
        }
      ],
      "stateMutability": "view",
      "type": "function"
    },
    {
      "inputs": [
        {
          "internalType": "address",
          "name": "factoryAddress",
          "type": "address"
        },
        {
          "internalType": "uint256",
          "name": "pageSize",
          "type": "uint256"
        },
        {
          "internalType": "uint256",
          "name": "pageNbr",
          "type": "uint256"
        }
      ],
      "name": "pairsAddresses",
      "outputs": [
        {
          "internalType": "address[]",
          "name": "",
          "type": "address[]"
        }
      ],
      "stateMutability": "view",
      "type": "function"
    },
    {
      "inputs": [
        {
          "internalType": "address",
          "name": "factoryAddress",
          "type": "address"
        }
      ],
      "name": "pairsLength",
      "outputs": [
        {
          "internalType": "uint256",
          "name": "",
          "type": "uint256"
        }
      ],
      "stateMutability": "view",
      "type": "function"
    },
    {
      "inputs": [
        {
          "internalType": "address",
          "name": "factoryAddress",
          "type": "address"
        }
      ],
      "name": "tokensAddresses",
      "outputs": [
        {
          "internalType": "address[]",
          "name": "",
          "type": "address[]"
        }
      ],
      "stateMutability": "view",
      "type": "function"
    },
    {
      "inputs": [
        {
          "internalType": "address",
          "name": "factoryAddress",
          "type": "address"
        },
        {
          "internalType": "uint256",
          "name": "pageSize",
          "type": "uint256"
        },
        {
          "internalType": "uint256",
          "name": "pageNbr",
          "type": "uint256"
        },
        {
          "internalType": "uint256",
          "name": "offset",
          "type": "uint256"
        }
      ],
      "name": "tokensAddresses",
      "outputs": [
        {
          "internalType": "address[]",
          "name": "",
          "type": "address[]"
        }
      ],
      "stateMutability": "view",
      "type": "function"
    },
    {
      "inputs": [
        {
          "internalType": "address",
          "name": "factoryAddress",
          "type": "address"
        },
        {
          "internalType": "uint256",
          "name": "pageSize",
          "type": "uint256"
        },
        {
          "internalType": "uint256",
          "name": "pageNbr",
          "type": "uint256"
        }
      ],
      "name": "tokensAddresses",
      "outputs": [
        {
          "internalType": "address[]",
          "name": "",
          "type": "address[]"
        }
      ],
      "stateMutability": "view",
      "type": "function"
    },
    {
      "inputs": [],
      "name": "uniqueAddressesHelperAddress",
      "outputs": [
        {
          "internalType": "address",
          "name": "",
          "type": "address"
        }
      ],
      "stateMutability": "view",
      "type": "function"
    },
    {
      "inputs": [
        {
          "internalType": "bytes32",
          "name": "slot",
          "type": "bytes32"
        },
        {
          "internalType": "bytes32",
          "name": "value",
          "type": "bytes32"
        }
      ],
      "name": "updateSlot",
      "outputs": [],
      "stateMutability": "nonpayable",
      "type": "function"
    },
    {
      "inputs": [],
      "name": "wethAddress",
      "outputs": [
        {
          "internalType": "address",
          "name": "",
          "type": "address"
        }
      ],
      "stateMutability": "view",
      "type": "function"
    }
  ],
  "bytecode": "0x608060405234801561001057600080fd5b50604051610cf8380380610cf883398101604081905261002f9161008c565b600280546001600160a01b039283166001600160a01b03199182168117909255600380548216909217909155600180549390921692169190911790556100be565b80516001600160a01b038116811461008757600080fd5b919050565b6000806040838503121561009e578182fd5b6100a783610070565b91506100b560208401610070565b90509250929050565b610c2b806100cd6000396000f3fe608060405234801561001057600080fd5b50600436106100df5760003560e01c80636b5de5721161008c57806391ea83e81161006657806391ea83e8146101c7578063b3119993146101dc578063bb261c9a146101ef578063ecb74b861461020257600080fd5b80636b5de5721461018e57806373dee485146101a15780638da5cb5b146101b457600080fd5b806346677af3116100bd57806346677af31461013d5780634f0e0ef314610150578063699fd8c31461017b57600080fd5b80631b9dd067146100e45780632a0d40f81461010a5780633687bb4b1461012a575b600080fd5b6100f76100f236600461096d565b610215565b6040519081526020015b60405180910390f35b61011d61011836600461090a565b610251565b6040516101019190610adb565b61011d61013836600461090a565b610274565b61011d61014b3660046109a1565b61028c565b600154610163906001600160a01b031681565b6040516001600160a01b039091168152602001610101565b600254610163906001600160a01b031681565b61011d61019c3660046109a1565b610470565b6100f76101af36600461090a565b610818565b600054610163906001600160a01b031681565b6101da6101d5366004610aa2565b610891565b005b61011d6101ea36600461096d565b6108ac565b61011d6101fd36600461096d565b6108bb565b6100f7610210366004610942565b6108ca565b60008061022185610818565b90506000846102308584610b7f565b61023a9190610b40565b9050610247816001610b28565b9695505050505050565b6060600061025e83610818565b905061026d8382600080610470565b9392505050565b6060600061028183610818565b905061026d83826000805b6060600061029986610818565b90506000836102a88787610b60565b6102b29190610b28565b905060006102c08783610b28565b90506102cd600184610b7f565b8111156102e2576102df600184610b7f565b90505b60008367ffffffffffffffff81111561030b57634e487b7160e01b600052604160045260246000fd5b604051908082528060200260200182016040528015610334578160200160208202803683370190505b50905060005b826103458583610b28565b116104215760006001600160a01b038b16631e3dd18b6103658785610b28565b6040518263ffffffff1660e01b815260040161038391815260200190565b60206040518083038186803b15801561039b57600080fd5b505afa1580156103af573d6000803e3d6000fd5b505050506040513d601f19601f820116820180604052508101906103d39190610926565b9050808383815181106103f657634e487b7160e01b600052603260045260246000fd5b6001600160a01b0390921660209283029190910190910152508061041981610b96565b91505061033a565b6000826040516020016104349190610adb565b60405160208183030381529060405290508160408201528080602001905181019061045f91906109db565b96505050505050505b949350505050565b606060006104808686868661028c565b80519091506000610492826002610b60565b61049d906001610b28565b905060008167ffffffffffffffff8111156104c857634e487b7160e01b600052604160045260246000fd5b6040519080825280602002602001820160405280156104f1578160200160208202803683370190505b509050826105145750506040805160008152602081019091529250610468915050565b60015481516001600160a01b0390911690829060009061054457634e487b7160e01b600052603260045260246000fd5b6001600160a01b0390921660209283029190910190910152600160005b8481101561075457600086828151811061058b57634e487b7160e01b600052603260045260246000fd5b6020026020010151905060008190506000816001600160a01b0316630dfe16816040518163ffffffff1660e01b815260040160206040518083038186803b1580156105d557600080fd5b505afa1580156105e9573d6000803e3d6000fd5b505050506040513d601f19601f8201168201806040525081019061060d9190610926565b90506000826001600160a01b031663d21220a76040518163ffffffff1660e01b815260040160206040518083038186803b15801561064a57600080fd5b505afa15801561065e573d6000803e3d6000fd5b505050506040513d601f19601f820116820180604052508101906106829190610926565b6001549091506001600160a01b038381169116146106e157818787815181106106bb57634e487b7160e01b600052603260045260246000fd5b6001600160a01b0390921660209283029190910190910152856106dd81610b96565b9650505b6001546001600160a01b0382811691161461073d578087878151811061071757634e487b7160e01b600052603260045260246000fd5b6001600160a01b03909216602092830291909101909101528561073981610b96565b9650505b50505050808061074c90610b96565b915050610561565b506000826040516020016107689190610adb565b60408051601f19818403018152918152810183905260035481519192506001600160a01b03169063d9f5ff41906107a890840160209081019085016109db565b6040518263ffffffff1660e01b81526004016107c49190610adb565b60006040518083038186803b1580156107dc57600080fd5b505afa1580156107f0573d6000803e3d6000fd5b505050506040513d6000823e601f3d908101601f1916820160405261045f91908101906109db565b6000816001600160a01b031663574f2ba36040518163ffffffff1660e01b815260040160206040518083038186803b15801561085357600080fd5b505afa158015610867573d6000803e3d6000fd5b505050506040513d601f19601f8201168201806040525081019061088b9190610ac3565b92915050565b6000546001600160a01b031633146108a857600080fd5b9055565b6060610468848484600061028c565b60606104688484846000610470565b6000806108d684610818565b905060006108e48483610b40565b90506108f1816001610b28565b95945050505050565b805161090581610bdd565b919050565b60006020828403121561091b578081fd5b813561026d81610bdd565b600060208284031215610937578081fd5b815161026d81610bdd565b60008060408385031215610954578081fd5b823561095f81610bdd565b946020939093013593505050565b600080600060608486031215610981578081fd5b833561098c81610bdd565b95602085013595506040909401359392505050565b600080600080608085870312156109b6578081fd5b84356109c181610bdd565b966020860135965060408601359560600135945092505050565b600060208083850312156109ed578182fd5b825167ffffffffffffffff80821115610a04578384fd5b818501915085601f830112610a17578384fd5b815181811115610a2957610a29610bc7565b8060051b604051601f19603f83011681018181108582111715610a4e57610a4e610bc7565b604052828152858101935084860182860187018a1015610a6c578788fd5b8795505b83861015610a9557610a81816108fa565b855260019590950194938601938601610a70565b5098975050505050505050565b60008060408385031215610ab4578182fd5b50508035926020909101359150565b600060208284031215610ad4578081fd5b5051919050565b6020808252825182820181905260009190848201906040850190845b81811015610b1c5783516001600160a01b031683529284019291840191600101610af7565b50909695505050505050565b60008219821115610b3b57610b3b610bb1565b500190565b600082610b5b57634e487b7160e01b81526012600452602481fd5b500490565b6000816000190483118215151615610b7a57610b7a610bb1565b500290565b600082821015610b9157610b91610bb1565b500390565b6000600019821415610baa57610baa610bb1565b5060010190565b634e487b7160e01b600052601160045260246000fd5b634e487b7160e01b600052604160045260246000fd5b6001600160a01b0381168114610bf257600080fd5b5056fea26469706673582212200d140947bc46b5560680c428174937304c8298e78c7b881f267084d57bb9f53164736f6c63430008040033",
  "linkReferences": {},
  "deployedLinkReferences": {}
}