{
  "_format": "hh-sol-artifact-1",
  "contractName": "Documents",
  "sourceName": "contracts/Utils/Documents.sol",
  "abi": [
    {
      "anonymous": false,
      "inputs": [
        {
          "indexed": true,
          "internalType": "string",
          "name": "_name",
          "type": "string"
        },
        {
          "indexed": false,
          "internalType": "string",
          "name": "_data",
          "type": "string"
        }
      ],
      "name": "DocumentRemoved",
      "type": "event"
    },
    {
      "anonymous": false,
      "inputs": [
        {
          "indexed": true,
          "internalType": "string",
          "name": "_name",
          "type": "string"
        },
        {
          "indexed": false,
          "internalType": "string",
          "name": "_data",
          "type": "string"
        }
      ],
      "name": "DocumentUpdated",
      "type": "event"
    },
    {
      "inputs": [],
      "name": "getAllDocuments",
      "outputs": [
        {
          "internalType": "string[]",
          "name": "",
          "type": "string[]"
        }
      ],
      "stateMutability": "view",
      "type": "function"
    },
    {
      "inputs": [
        {
          "internalType": "string",
          "name": "_name",
          "type": "string"
        }
      ],
      "name": "getDocument",
      "outputs": [
        {
          "internalType": "string",
          "name": "",
          "type": "string"
        },
        {
          "internalType": "uint256",
          "name": "",
          "type": "uint256"
        }
      ],
      "stateMutability": "view",
      "type": "function"
    },
    {
      "inputs": [],
      "name": "getDocumentCount",
      "outputs": [
        {
          "internalType": "uint256",
          "name": "",
          "type": "uint256"
        }
      ],
      "stateMutability": "view",
      "type": "function"
    },
    {
      "inputs": [
        {
          "internalType": "uint256",
          "name": "_index",
          "type": "uint256"
        }
      ],
      "name": "getDocumentName",
      "outputs": [
        {
          "internalType": "string",
          "name": "",
          "type": "string"
        }
      ],
      "stateMutability": "view",
      "type": "function"
    }
  ],
  "bytecode": "0x608060405234801561001057600080fd5b506105a8806100206000396000f3fe608060405234801561001057600080fd5b506004361061004c5760003560e01c80633d1c2273146100515780637ccb6a64146100675780639fa5f50b14610088578063c6b547e61461009d575b600080fd5b6002546040519081526020015b60405180910390f35b61007a6100753660046103ba565b6100bd565b60405161005e929190610515565b6100906101b4565b60405161005e919061049a565b6100b06100ab366004610427565b61028d565b60405161005e91906104fb565b606060008084846040516100d292919061048a565b9081526020016040518091039020600101600085856040516100f592919061048a565b90815260405190819003602001902054815467ffffffffffffffff6401000000009092049190911690829061012990610537565b80601f016020809104026020016040519081016040528092919081815260200182805461015590610537565b80156101a25780601f10610177576101008083540402835291602001916101a2565b820191906000526020600020905b81548152906001019060200180831161018557829003601f168201915b50505050509150915091509250929050565b60606002805480602002602001604051908101604052809291908181526020016000905b828210156102845783829060005260206000200180546101f790610537565b80601f016020809104026020016040519081016040528092919081815260200182805461022390610537565b80156102705780601f1061024557610100808354040283529160200191610270565b820191906000526020600020905b81548152906001019060200180831161025357829003601f168201915b5050505050815260200190600101906101d8565b50505050905090565b60025460609082106102ff576040517f08c379a000000000000000000000000000000000000000000000000000000000815260206004820152601360248201527f496e646578206f7574206f6620626f756e647300000000000000000000000000604482015260640160405180910390fd5b6002828154811061032057634e487b7160e01b600052603260045260246000fd5b90600052602060002001805461033590610537565b80601f016020809104026020016040519081016040528092919081815260200182805461036190610537565b80156103ae5780601f10610383576101008083540402835291602001916103ae565b820191906000526020600020905b81548152906001019060200180831161039157829003601f168201915b50505050509050919050565b600080602083850312156103cc578182fd5b823567ffffffffffffffff808211156103e3578384fd5b818501915085601f8301126103f6578384fd5b813581811115610404578485fd5b866020828501011115610415578485fd5b60209290920196919550909350505050565b600060208284031215610438578081fd5b5035919050565b60008151808452815b8181101561046457602081850181015186830182015201610448565b818111156104755782602083870101525b50601f01601f19169290920160200192915050565b8183823760009101908152919050565b6000602080830181845280855180835260408601915060408160051b8701019250838701855b828110156104ee57603f198886030184526104dc85835161043f565b945092850192908501906001016104c0565b5092979650505050505050565b60208152600061050e602083018461043f565b9392505050565b604081526000610528604083018561043f565b90508260208301529392505050565b600181811c9082168061054b57607f821691505b6020821081141561056c57634e487b7160e01b600052602260045260246000fd5b5091905056fea26469706673582212200781d0f94bf5fd1d806f9105bc668a292a34f3a9b853c160b0cc5f4a42e4b33164736f6c63430008040033",
  "linkReferences": {},
  "deployedLinkReferences": {}
}