{
  "_format": "hh-sol-artifact-1",
  "contractName": "Documents",
  "sourceName": "contracts/Utils/Documents.sol",
  "abi": [
    {
      "anonymous": false,
      "inputs": [
        {
          "indexed": true,
          "internalType": "string",
          "name": "_name",
          "type": "string"
        },
        {
          "indexed": false,
          "internalType": "string",
          "name": "_data",
          "type": "string"
        }
      ],
      "name": "DocumentRemoved",
      "type": "event"
    },
    {
      "anonymous": false,
      "inputs": [
        {
          "indexed": true,
          "internalType": "string",
          "name": "_name",
          "type": "string"
        },
        {
          "indexed": false,
          "internalType": "string",
          "name": "_data",
          "type": "string"
        }
      ],
      "name": "DocumentUpdated",
      "type": "event"
    },
    {
      "inputs": [],
      "name": "getAllDocuments",
      "outputs": [
        {
          "internalType": "string[]",
          "name": "",
          "type": "string[]"
        }
      ],
      "stateMutability": "view",
      "type": "function"
    },
    {
      "inputs": [
        {
          "internalType": "string",
          "name": "_name",
          "type": "string"
        }
      ],
      "name": "getDocument",
      "outputs": [
        {
          "internalType": "string",
          "name": "",
          "type": "string"
        },
        {
          "internalType": "uint256",
          "name": "",
          "type": "uint256"
        }
      ],
      "stateMutability": "view",
      "type": "function"
    },
    {
      "inputs": [],
      "name": "getDocumentCount",
      "outputs": [
        {
          "internalType": "uint256",
          "name": "",
          "type": "uint256"
        }
      ],
      "stateMutability": "view",
      "type": "function"
    },
    {
      "inputs": [
        {
          "internalType": "uint256",
          "name": "_index",
          "type": "uint256"
        }
      ],
      "name": "getDocumentName",
      "outputs": [
        {
          "internalType": "string",
          "name": "",
          "type": "string"
        }
      ],
      "stateMutability": "view",
      "type": "function"
    }
  ],
  "bytecode": "0x608060405234801561001057600080fd5b5061087c806100206000396000f3fe608060405234801561001057600080fd5b506004361061004c5760003560e01c80633d1c2273146100515780637ccb6a641461006f5780639fa5f50b146100a0578063c6b547e6146100be575b600080fd5b6100596100ee565b60405161006691906106bc565b60405180910390f35b6100896004803603810190610084919061044f565b6100fb565b60405161009792919061066c565b60405180910390f35b6100a86101fa565b6040516100b59190610628565b60405180910390f35b6100d860048036038101906100d39190610494565b6102d3565b6040516100e5919061064a565b60405180910390f35b6000600280549050905090565b6060600080848460405161011092919061060f565b90815260200160405180910390206001016000858560405161013392919061060f565b908152602001604051809103902060000160049054906101000a900467ffffffffffffffff1667ffffffffffffffff1681805461016f90610794565b80601f016020809104026020016040519081016040528092919081815260200182805461019b90610794565b80156101e85780601f106101bd576101008083540402835291602001916101e8565b820191906000526020600020905b8154815290600101906020018083116101cb57829003601f168201915b50505050509150915091509250929050565b60606002805480602002602001604051908101604052809291908181526020016000905b828210156102ca57838290600052602060002001805461023d90610794565b80601f016020809104026020016040519081016040528092919081815260200182805461026990610794565b80156102b65780601f1061028b576101008083540402835291602001916102b6565b820191906000526020600020905b81548152906001019060200180831161029957829003601f168201915b50505050508152602001906001019061021e565b50505050905090565b6060600280549050821061031c576040517f08c379a00000000000000000000000000000000000000000000000000000000081526004016103139061069c565b60405180910390fd5b60028281548110610356577f4e487b7100000000000000000000000000000000000000000000000000000000600052603260045260246000fd5b90600052602060002001805461036b90610794565b80601f016020809104026020016040519081016040528092919081815260200182805461039790610794565b80156103e45780601f106103b9576101008083540402835291602001916103e4565b820191906000526020600020905b8154815290600101906020018083116103c757829003601f168201915b50505050509050919050565b60008083601f84011261040257600080fd5b8235905067ffffffffffffffff81111561041b57600080fd5b60208301915083600182028301111561043357600080fd5b9250929050565b6000813590506104498161082f565b92915050565b6000806020838503121561046257600080fd5b600083013567ffffffffffffffff81111561047c57600080fd5b610488858286016103f0565b92509250509250929050565b6000602082840312156104a657600080fd5b60006104b48482850161043a565b91505092915050565b60006104c9838361056b565b905092915050565b60006104dc826106e7565b6104e6818561070a565b9350836020820285016104f8856106d7565b8060005b85811015610534578484038952815161051585826104bd565b9450610520836106fd565b925060208a019950506001810190506104fc565b50829750879550505050505092915050565b6000610552838561073d565b935061055f838584610752565b82840190509392505050565b6000610576826106f2565b610580818561071b565b9350610590818560208601610761565b610599816107f5565b840191505092915050565b60006105af826106f2565b6105b9818561072c565b93506105c9818560208601610761565b6105d2816107f5565b840191505092915050565b60006105ea60138361072c565b91506105f582610806565b602082019050919050565b61060981610748565b82525050565b600061061c828486610546565b91508190509392505050565b6000602082019050818103600083015261064281846104d1565b905092915050565b6000602082019050818103600083015261066481846105a4565b905092915050565b6000604082019050818103600083015261068681856105a4565b90506106956020830184610600565b9392505050565b600060208201905081810360008301526106b5816105dd565b9050919050565b60006020820190506106d16000830184610600565b92915050565b6000819050602082019050919050565b600081519050919050565b600081519050919050565b6000602082019050919050565b600082825260208201905092915050565b600082825260208201905092915050565b600082825260208201905092915050565b600081905092915050565b6000819050919050565b82818337600083830152505050565b60005b8381101561077f578082015181840152602081019050610764565b8381111561078e576000848401525b50505050565b600060028204905060018216806107ac57607f821691505b602082108114156107c0576107bf6107c6565b5b50919050565b7f4e487b7100000000000000000000000000000000000000000000000000000000600052602260045260246000fd5b6000601f19601f8301169050919050565b7f496e646578206f7574206f6620626f756e647300000000000000000000000000600082015250565b61083881610748565b811461084357600080fd5b5056fea26469706673582212205764c72930a20f8e81637ac29bb9c28f393501983d1e7d5a955dd25ab553b65a64736f6c63430008040033",
  "linkReferences": {},
  "deployedLinkReferences": {}
}