{
  "_format": "hh-sol-artifact-1",
  "contractName": "VestingWallet",
  "sourceName": "contracts/@openzeppelin/contracts/finance/VestingWallet.sol",
  "abi": [
    {
      "inputs": [
        {
          "internalType": "address",
          "name": "beneficiaryAddress",
          "type": "address"
        },
        {
          "internalType": "uint64",
          "name": "startTimestamp",
          "type": "uint64"
        },
        {
          "internalType": "uint64",
          "name": "durationSeconds",
          "type": "uint64"
        }
      ],
      "stateMutability": "nonpayable",
      "type": "constructor"
    },
    {
      "anonymous": false,
      "inputs": [
        {
          "indexed": true,
          "internalType": "address",
          "name": "token",
          "type": "address"
        },
        {
          "indexed": false,
          "internalType": "uint256",
          "name": "amount",
          "type": "uint256"
        }
      ],
      "name": "ERC20Released",
      "type": "event"
    },
    {
      "anonymous": false,
      "inputs": [
        {
          "indexed": false,
          "internalType": "uint256",
          "name": "amount",
          "type": "uint256"
        }
      ],
      "name": "EtherReleased",
      "type": "event"
    },
    {
      "inputs": [],
      "name": "beneficiary",
      "outputs": [
        {
          "internalType": "address",
          "name": "",
          "type": "address"
        }
      ],
      "stateMutability": "view",
      "type": "function"
    },
    {
      "inputs": [],
      "name": "duration",
      "outputs": [
        {
          "internalType": "uint256",
          "name": "",
          "type": "uint256"
        }
      ],
      "stateMutability": "view",
      "type": "function"
    },
    {
      "inputs": [
        {
          "internalType": "address",
          "name": "token",
          "type": "address"
        }
      ],
      "name": "release",
      "outputs": [],
      "stateMutability": "nonpayable",
      "type": "function"
    },
    {
      "inputs": [],
      "name": "release",
      "outputs": [],
      "stateMutability": "nonpayable",
      "type": "function"
    },
    {
      "inputs": [],
      "name": "released",
      "outputs": [
        {
          "internalType": "uint256",
          "name": "",
          "type": "uint256"
        }
      ],
      "stateMutability": "view",
      "type": "function"
    },
    {
      "inputs": [
        {
          "internalType": "address",
          "name": "token",
          "type": "address"
        }
      ],
      "name": "released",
      "outputs": [
        {
          "internalType": "uint256",
          "name": "",
          "type": "uint256"
        }
      ],
      "stateMutability": "view",
      "type": "function"
    },
    {
      "inputs": [],
      "name": "start",
      "outputs": [
        {
          "internalType": "uint256",
          "name": "",
          "type": "uint256"
        }
      ],
      "stateMutability": "view",
      "type": "function"
    },
    {
      "inputs": [
        {
          "internalType": "uint64",
          "name": "timestamp",
          "type": "uint64"
        }
      ],
      "name": "vestedAmount",
      "outputs": [
        {
          "internalType": "uint256",
          "name": "",
          "type": "uint256"
        }
      ],
      "stateMutability": "view",
      "type": "function"
    },
    {
      "inputs": [
        {
          "internalType": "address",
          "name": "token",
          "type": "address"
        },
        {
          "internalType": "uint64",
          "name": "timestamp",
          "type": "uint64"
        }
      ],
      "name": "vestedAmount",
      "outputs": [
        {
          "internalType": "uint256",
          "name": "",
          "type": "uint256"
        }
      ],
      "stateMutability": "view",
      "type": "function"
    },
    {
      "stateMutability": "payable",
      "type": "receive"
    }
  ],
  "bytecode": "0x60e06040523480156200001157600080fd5b50604051620014d7380380620014d7833981810160405281019062000037919062000156565b600073ffffffffffffffffffffffffffffffffffffffff168373ffffffffffffffffffffffffffffffffffffffff161415620000aa576040517f08c379a0000000000000000000000000000000000000000000000000000000008152600401620000a190620001d3565b60405180910390fd5b8273ffffffffffffffffffffffffffffffffffffffff1660808173ffffffffffffffffffffffffffffffffffffffff1660601b815250508167ffffffffffffffff1660a08167ffffffffffffffff1660c01b815250508067ffffffffffffffff1660c08167ffffffffffffffff1660c01b81525050505050620002d1565b60008151905062000139816200029d565b92915050565b6000815190506200015081620002b7565b92915050565b6000806000606084860312156200016c57600080fd5b60006200017c8682870162000128565b93505060206200018f868287016200013f565b9250506040620001a2868287016200013f565b9150509250925092565b6000620001bb602a83620001f5565b9150620001c8826200024e565b604082019050919050565b60006020820190508181036000830152620001ee81620001ac565b9050919050565b600082825260208201905092915050565b600062000213826200021a565b9050919050565b600073ffffffffffffffffffffffffffffffffffffffff82169050919050565b600067ffffffffffffffff82169050919050565b7f56657374696e6757616c6c65743a2062656e6566696369617279206973207a6560008201527f726f206164647265737300000000000000000000000000000000000000000000602082015250565b620002a88162000206565b8114620002b457600080fd5b50565b620002c2816200023a565b8114620002ce57600080fd5b50565b60805160601c60a05160c01c60c05160c01c6111cd6200030a60003960006102620152600061051a0152600061036f01526111cd6000f3fe60806040526004361061008a5760003560e01c8063810ec23b11610059578063810ec23b1461015257806386d1a69f1461018f57806396132521146101a65780639852595c146101d1578063be9a65551461020e57610091565b80630a17b06b146100965780630fb5a6b4146100d357806319165587146100fe57806338af3eed1461012757610091565b3661009157005b600080fd5b3480156100a257600080fd5b506100bd60048036038101906100b89190610ae4565b610239565b6040516100ca9190610d99565b60405180910390f35b3480156100df57600080fd5b506100e861025e565b6040516100f59190610d99565b60405180910390f35b34801561010a57600080fd5b5061012560048036038101906101209190610a2d565b610290565b005b34801561013357600080fd5b5061013c61036b565b6040516101499190610c93565b60405180910390f35b34801561015e57600080fd5b5061017960048036038101906101749190610a56565b610393565b6040516101869190610d99565b60405180910390f35b34801561019b57600080fd5b506101a4610442565b005b3480156101b257600080fd5b506101bb6104c4565b6040516101c89190610d99565b60405180910390f35b3480156101dd57600080fd5b506101f860048036038101906101f39190610a2d565b6104cd565b6040516102059190610d99565b60405180910390f35b34801561021a57600080fd5b50610223610516565b6040516102309190610d99565b60405180910390f35b60006102576102466104c4565b476102519190610de6565b83610548565b9050919050565b60007f000000000000000000000000000000000000000000000000000000000000000067ffffffffffffffff16905090565b600061029b826104cd565b6102a58342610393565b6102af9190610ec7565b905080600160008473ffffffffffffffffffffffffffffffffffffffff1673ffffffffffffffffffffffffffffffffffffffff16815260200190815260200160002060008282546103009190610de6565b925050819055508173ffffffffffffffffffffffffffffffffffffffff167fc0e523490dd523c33b1878c9eb14ff46991e3f5b2cd33710918618f2a39cba1b8260405161034d9190610d99565b60405180910390a26103678261036161036b565b836105e2565b5050565b60007f0000000000000000000000000000000000000000000000000000000000000000905090565b600061043a6103a1846104cd565b8473ffffffffffffffffffffffffffffffffffffffff166370a08231306040518263ffffffff1660e01b81526004016103da9190610c93565b60206040518083038186803b1580156103f257600080fd5b505afa158015610406573d6000803e3d6000fd5b505050506040513d601f19601f8201168201806040525081019061042a9190610abb565b6104349190610de6565b83610548565b905092915050565b600061044c6104c4565b61045542610239565b61045f9190610ec7565b9050806000808282546104729190610de6565b925050819055507fda9d4e5f101b8b9b1c5b76d0c5a9f7923571acfc02376aa076b75a8c080c956b816040516104a89190610d99565b60405180910390a16104c16104bb61036b565b82610668565b50565b60008054905090565b6000600160008373ffffffffffffffffffffffffffffffffffffffff1673ffffffffffffffffffffffffffffffffffffffff168152602001908152602001600020549050919050565b60007f000000000000000000000000000000000000000000000000000000000000000067ffffffffffffffff16905090565b6000610552610516565b8267ffffffffffffffff16101561056c57600090506105dc565b61057461025e565b61057c610516565b6105869190610de6565b8267ffffffffffffffff16111561059f578290506105dc565b6105a761025e565b6105af610516565b8367ffffffffffffffff166105c49190610ec7565b846105cf9190610e6d565b6105d99190610e3c565b90505b92915050565b6106638363a9059cbb60e01b8484604051602401610601929190610cae565b604051602081830303815290604052907bffffffffffffffffffffffffffffffffffffffffffffffffffffffff19166020820180517bffffffffffffffffffffffffffffffffffffffffffffffffffffffff838183161783525050505061075c565b505050565b804710156106ab576040517f08c379a00000000000000000000000000000000000000000000000000000000081526004016106a290610d19565b60405180910390fd5b60008273ffffffffffffffffffffffffffffffffffffffff16826040516106d190610c7e565b60006040518083038185875af1925050503d806000811461070e576040519150601f19603f3d011682016040523d82523d6000602084013e610713565b606091505b5050905080610757576040517f08c379a000000000000000000000000000000000000000000000000000000000815260040161074e90610cf9565b60405180910390fd5b505050565b60006107be826040518060400160405280602081526020017f5361666545524332303a206c6f772d6c6576656c2063616c6c206661696c65648152508573ffffffffffffffffffffffffffffffffffffffff166108239092919063ffffffff16565b905060008151111561081e57808060200190518101906107de9190610a92565b61081d576040517f08c379a000000000000000000000000000000000000000000000000000000000815260040161081490610d79565b60405180910390fd5b5b505050565b6060610832848460008561083b565b90509392505050565b606082471015610880576040517f08c379a000000000000000000000000000000000000000000000000000000000815260040161087790610d39565b60405180910390fd5b6108898561094f565b6108c8576040517f08c379a00000000000000000000000000000000000000000000000000000000081526004016108bf90610d59565b60405180910390fd5b6000808673ffffffffffffffffffffffffffffffffffffffff1685876040516108f19190610c67565b60006040518083038185875af1925050503d806000811461092e576040519150601f19603f3d011682016040523d82523d6000602084013e610933565b606091505b5091509150610943828286610972565b92505050949350505050565b6000808273ffffffffffffffffffffffffffffffffffffffff163b119050919050565b60608315610982578290506109d2565b6000835111156109955782518084602001fd5b816040517f08c379a00000000000000000000000000000000000000000000000000000000081526004016109c99190610cd7565b60405180910390fd5b9392505050565b6000813590506109e88161113b565b92915050565b6000815190506109fd81611152565b92915050565b600081519050610a1281611169565b92915050565b600081359050610a2781611180565b92915050565b600060208284031215610a3f57600080fd5b6000610a4d848285016109d9565b91505092915050565b60008060408385031215610a6957600080fd5b6000610a77858286016109d9565b9250506020610a8885828601610a18565b9150509250929050565b600060208284031215610aa457600080fd5b6000610ab2848285016109ee565b91505092915050565b600060208284031215610acd57600080fd5b6000610adb84828501610a03565b91505092915050565b600060208284031215610af657600080fd5b6000610b0484828501610a18565b91505092915050565b610b1681610efb565b82525050565b6000610b2782610db4565b610b318185610dca565b9350610b41818560208601610f57565b80840191505092915050565b6000610b5882610dbf565b610b628185610dd5565b9350610b72818560208601610f57565b610b7b81610fe8565b840191505092915050565b6000610b93603a83610dd5565b9150610b9e82610ff9565b604082019050919050565b6000610bb6601d83610dd5565b9150610bc182611048565b602082019050919050565b6000610bd9602683610dd5565b9150610be482611071565b604082019050919050565b6000610bfc600083610dca565b9150610c07826110c0565b600082019050919050565b6000610c1f601d83610dd5565b9150610c2a826110c3565b602082019050919050565b6000610c42602a83610dd5565b9150610c4d826110ec565b604082019050919050565b610c6181610f39565b82525050565b6000610c738284610b1c565b915081905092915050565b6000610c8982610bef565b9150819050919050565b6000602082019050610ca86000830184610b0d565b92915050565b6000604082019050610cc36000830185610b0d565b610cd06020830184610c58565b9392505050565b60006020820190508181036000830152610cf18184610b4d565b905092915050565b60006020820190508181036000830152610d1281610b86565b9050919050565b60006020820190508181036000830152610d3281610ba9565b9050919050565b60006020820190508181036000830152610d5281610bcc565b9050919050565b60006020820190508181036000830152610d7281610c12565b9050919050565b60006020820190508181036000830152610d9281610c35565b9050919050565b6000602082019050610dae6000830184610c58565b92915050565b600081519050919050565b600081519050919050565b600081905092915050565b600082825260208201905092915050565b6000610df182610f39565b9150610dfc83610f39565b9250827fffffffffffffffffffffffffffffffffffffffffffffffffffffffffffffffff03821115610e3157610e30610f8a565b5b828201905092915050565b6000610e4782610f39565b9150610e5283610f39565b925082610e6257610e61610fb9565b5b828204905092915050565b6000610e7882610f39565b9150610e8383610f39565b9250817fffffffffffffffffffffffffffffffffffffffffffffffffffffffffffffffff0483118215151615610ebc57610ebb610f8a565b5b828202905092915050565b6000610ed282610f39565b9150610edd83610f39565b925082821015610ef057610eef610f8a565b5b828203905092915050565b6000610f0682610f19565b9050919050565b60008115159050919050565b600073ffffffffffffffffffffffffffffffffffffffff82169050919050565b6000819050919050565b600067ffffffffffffffff82169050919050565b60005b83811015610f75578082015181840152602081019050610f5a565b83811115610f84576000848401525b50505050565b7f4e487b7100000000000000000000000000000000000000000000000000000000600052601160045260246000fd5b7f4e487b7100000000000000000000000000000000000000000000000000000000600052601260045260246000fd5b6000601f19601f8301169050919050565b7f416464726573733a20756e61626c6520746f2073656e642076616c75652c207260008201527f6563697069656e74206d61792068617665207265766572746564000000000000602082015250565b7f416464726573733a20696e73756666696369656e742062616c616e6365000000600082015250565b7f416464726573733a20696e73756666696369656e742062616c616e636520666f60008201527f722063616c6c0000000000000000000000000000000000000000000000000000602082015250565b50565b7f416464726573733a2063616c6c20746f206e6f6e2d636f6e7472616374000000600082015250565b7f5361666545524332303a204552433230206f7065726174696f6e20646964206e60008201527f6f74207375636365656400000000000000000000000000000000000000000000602082015250565b61114481610efb565b811461114f57600080fd5b50565b61115b81610f0d565b811461116657600080fd5b50565b61117281610f39565b811461117d57600080fd5b50565b61118981610f43565b811461119457600080fd5b5056fea26469706673582212209c3375d591caf2bacc32aea8e09c1bae8c43ce741a601e8fecab6e3c39cee2cb64736f6c63430008040033",
  "linkReferences": {},
  "deployedLinkReferences": {}
}