{
  "_format": "hh-sol-artifact-1",
  "contractName": "PointList",
  "sourceName": "contracts/Access/PointList.sol",
  "abi": [
    {
      "inputs": [],
      "stateMutability": "nonpayable",
      "type": "constructor"
    },
    {
      "anonymous": false,
      "inputs": [
        {
          "indexed": true,
          "internalType": "address",
          "name": "beneficiary",
          "type": "address"
        },
        {
          "indexed": true,
          "internalType": "address",
          "name": "caller",
          "type": "address"
        }
      ],
      "name": "AdminRoleGranted",
      "type": "event"
    },
    {
      "anonymous": false,
      "inputs": [
        {
          "indexed": true,
          "internalType": "address",
          "name": "beneficiary",
          "type": "address"
        },
        {
          "indexed": true,
          "internalType": "address",
          "name": "caller",
          "type": "address"
        }
      ],
      "name": "AdminRoleRemoved",
      "type": "event"
    },
    {
      "anonymous": false,
      "inputs": [
        {
          "indexed": true,
          "internalType": "address",
          "name": "beneficiary",
          "type": "address"
        },
        {
          "indexed": true,
          "internalType": "address",
          "name": "caller",
          "type": "address"
        }
      ],
      "name": "MinterRoleGranted",
      "type": "event"
    },
    {
      "anonymous": false,
      "inputs": [
        {
          "indexed": true,
          "internalType": "address",
          "name": "beneficiary",
          "type": "address"
        },
        {
          "indexed": true,
          "internalType": "address",
          "name": "caller",
          "type": "address"
        }
      ],
      "name": "MinterRoleRemoved",
      "type": "event"
    },
    {
      "anonymous": false,
      "inputs": [
        {
          "indexed": true,
          "internalType": "address",
          "name": "beneficiary",
          "type": "address"
        },
        {
          "indexed": true,
          "internalType": "address",
          "name": "caller",
          "type": "address"
        }
      ],
      "name": "OperatorRoleGranted",
      "type": "event"
    },
    {
      "anonymous": false,
      "inputs": [
        {
          "indexed": true,
          "internalType": "address",
          "name": "beneficiary",
          "type": "address"
        },
        {
          "indexed": true,
          "internalType": "address",
          "name": "caller",
          "type": "address"
        }
      ],
      "name": "OperatorRoleRemoved",
      "type": "event"
    },
    {
      "anonymous": false,
      "inputs": [
        {
          "indexed": true,
          "internalType": "address",
          "name": "account",
          "type": "address"
        },
        {
          "indexed": false,
          "internalType": "uint256",
          "name": "oldPoints",
          "type": "uint256"
        },
        {
          "indexed": false,
          "internalType": "uint256",
          "name": "newPoints",
          "type": "uint256"
        }
      ],
      "name": "PointsUpdated",
      "type": "event"
    },
    {
      "anonymous": false,
      "inputs": [
        {
          "indexed": true,
          "internalType": "bytes32",
          "name": "role",
          "type": "bytes32"
        },
        {
          "indexed": true,
          "internalType": "bytes32",
          "name": "previousAdminRole",
          "type": "bytes32"
        },
        {
          "indexed": true,
          "internalType": "bytes32",
          "name": "newAdminRole",
          "type": "bytes32"
        }
      ],
      "name": "RoleAdminChanged",
      "type": "event"
    },
    {
      "anonymous": false,
      "inputs": [
        {
          "indexed": true,
          "internalType": "bytes32",
          "name": "role",
          "type": "bytes32"
        },
        {
          "indexed": true,
          "internalType": "address",
          "name": "account",
          "type": "address"
        },
        {
          "indexed": true,
          "internalType": "address",
          "name": "sender",
          "type": "address"
        }
      ],
      "name": "RoleGranted",
      "type": "event"
    },
    {
      "anonymous": false,
      "inputs": [
        {
          "indexed": true,
          "internalType": "bytes32",
          "name": "role",
          "type": "bytes32"
        },
        {
          "indexed": true,
          "internalType": "address",
          "name": "account",
          "type": "address"
        },
        {
          "indexed": true,
          "internalType": "address",
          "name": "sender",
          "type": "address"
        }
      ],
      "name": "RoleRevoked",
      "type": "event"
    },
    {
      "anonymous": false,
      "inputs": [
        {
          "indexed": true,
          "internalType": "address",
          "name": "beneficiary",
          "type": "address"
        },
        {
          "indexed": true,
          "internalType": "address",
          "name": "caller",
          "type": "address"
        }
      ],
      "name": "SmartContractRoleGranted",
      "type": "event"
    },
    {
      "anonymous": false,
      "inputs": [
        {
          "indexed": true,
          "internalType": "address",
          "name": "beneficiary",
          "type": "address"
        },
        {
          "indexed": true,
          "internalType": "address",
          "name": "caller",
          "type": "address"
        }
      ],
      "name": "SmartContractRoleRemoved",
      "type": "event"
    },
    {
      "inputs": [],
      "name": "DEFAULT_ADMIN_ROLE",
      "outputs": [
        {
          "internalType": "bytes32",
          "name": "",
          "type": "bytes32"
        }
      ],
      "stateMutability": "view",
      "type": "function"
    },
    {
      "inputs": [],
      "name": "MINTER_ROLE",
      "outputs": [
        {
          "internalType": "bytes32",
          "name": "",
          "type": "bytes32"
        }
      ],
      "stateMutability": "view",
      "type": "function"
    },
    {
      "inputs": [],
      "name": "OPERATOR_ROLE",
      "outputs": [
        {
          "internalType": "bytes32",
          "name": "",
          "type": "bytes32"
        }
      ],
      "stateMutability": "view",
      "type": "function"
    },
    {
      "inputs": [],
      "name": "SMART_CONTRACT_ROLE",
      "outputs": [
        {
          "internalType": "bytes32",
          "name": "",
          "type": "bytes32"
        }
      ],
      "stateMutability": "view",
      "type": "function"
    },
    {
      "inputs": [
        {
          "internalType": "address",
          "name": "_address",
          "type": "address"
        }
      ],
      "name": "addAdminRole",
      "outputs": [],
      "stateMutability": "nonpayable",
      "type": "function"
    },
    {
      "inputs": [
        {
          "internalType": "address",
          "name": "_address",
          "type": "address"
        }
      ],
      "name": "addMinterRole",
      "outputs": [],
      "stateMutability": "nonpayable",
      "type": "function"
    },
    {
      "inputs": [
        {
          "internalType": "address",
          "name": "_address",
          "type": "address"
        }
      ],
      "name": "addOperatorRole",
      "outputs": [],
      "stateMutability": "nonpayable",
      "type": "function"
    },
    {
      "inputs": [
        {
          "internalType": "address",
          "name": "_address",
          "type": "address"
        }
      ],
      "name": "addSmartContractRole",
      "outputs": [],
      "stateMutability": "nonpayable",
      "type": "function"
    },
    {
      "inputs": [
        {
          "internalType": "bytes32",
          "name": "role",
          "type": "bytes32"
        }
      ],
      "name": "getRoleAdmin",
      "outputs": [
        {
          "internalType": "bytes32",
          "name": "",
          "type": "bytes32"
        }
      ],
      "stateMutability": "view",
      "type": "function"
    },
    {
      "inputs": [
        {
          "internalType": "bytes32",
          "name": "role",
          "type": "bytes32"
        },
        {
          "internalType": "uint256",
          "name": "index",
          "type": "uint256"
        }
      ],
      "name": "getRoleMember",
      "outputs": [
        {
          "internalType": "address",
          "name": "",
          "type": "address"
        }
      ],
      "stateMutability": "view",
      "type": "function"
    },
    {
      "inputs": [
        {
          "internalType": "bytes32",
          "name": "role",
          "type": "bytes32"
        }
      ],
      "name": "getRoleMemberCount",
      "outputs": [
        {
          "internalType": "uint256",
          "name": "",
          "type": "uint256"
        }
      ],
      "stateMutability": "view",
      "type": "function"
    },
    {
      "inputs": [
        {
          "internalType": "bytes32",
          "name": "role",
          "type": "bytes32"
        },
        {
          "internalType": "address",
          "name": "account",
          "type": "address"
        }
      ],
      "name": "grantRole",
      "outputs": [],
      "stateMutability": "nonpayable",
      "type": "function"
    },
    {
      "inputs": [
        {
          "internalType": "address",
          "name": "_address",
          "type": "address"
        }
      ],
      "name": "hasAdminRole",
      "outputs": [
        {
          "internalType": "bool",
          "name": "",
          "type": "bool"
        }
      ],
      "stateMutability": "view",
      "type": "function"
    },
    {
      "inputs": [
        {
          "internalType": "address",
          "name": "_address",
          "type": "address"
        }
      ],
      "name": "hasMinterRole",
      "outputs": [
        {
          "internalType": "bool",
          "name": "",
          "type": "bool"
        }
      ],
      "stateMutability": "view",
      "type": "function"
    },
    {
      "inputs": [
        {
          "internalType": "address",
          "name": "_address",
          "type": "address"
        }
      ],
      "name": "hasOperatorRole",
      "outputs": [
        {
          "internalType": "bool",
          "name": "",
          "type": "bool"
        }
      ],
      "stateMutability": "view",
      "type": "function"
    },
    {
      "inputs": [
        {
          "internalType": "address",
          "name": "_account",
          "type": "address"
        },
        {
          "internalType": "uint256",
          "name": "_amount",
          "type": "uint256"
        }
      ],
      "name": "hasPoints",
      "outputs": [
        {
          "internalType": "bool",
          "name": "",
          "type": "bool"
        }
      ],
      "stateMutability": "view",
      "type": "function"
    },
    {
      "inputs": [
        {
          "internalType": "bytes32",
          "name": "role",
          "type": "bytes32"
        },
        {
          "internalType": "address",
          "name": "account",
          "type": "address"
        }
      ],
      "name": "hasRole",
      "outputs": [
        {
          "internalType": "bool",
          "name": "",
          "type": "bool"
        }
      ],
      "stateMutability": "view",
      "type": "function"
    },
    {
      "inputs": [
        {
          "internalType": "address",
          "name": "_address",
          "type": "address"
        }
      ],
      "name": "hasSmartContractRole",
      "outputs": [
        {
          "internalType": "bool",
          "name": "",
          "type": "bool"
        }
      ],
      "stateMutability": "view",
      "type": "function"
    },
    {
      "inputs": [
        {
          "internalType": "address",
          "name": "_admin",
          "type": "address"
        }
      ],
      "name": "initAccessControls",
      "outputs": [],
      "stateMutability": "nonpayable",
      "type": "function"
    },
    {
      "inputs": [
        {
          "internalType": "address",
          "name": "_admin",
          "type": "address"
        }
      ],
      "name": "initPointList",
      "outputs": [],
      "stateMutability": "nonpayable",
      "type": "function"
    },
    {
      "inputs": [
        {
          "internalType": "address",
          "name": "_account",
          "type": "address"
        }
      ],
      "name": "isInList",
      "outputs": [
        {
          "internalType": "bool",
          "name": "",
          "type": "bool"
        }
      ],
      "stateMutability": "view",
      "type": "function"
    },
    {
      "inputs": [
        {
          "internalType": "address",
          "name": "",
          "type": "address"
        }
      ],
      "name": "points",
      "outputs": [
        {
          "internalType": "uint256",
          "name": "",
          "type": "uint256"
        }
      ],
      "stateMutability": "view",
      "type": "function"
    },
    {
      "inputs": [
        {
          "internalType": "address",
          "name": "_address",
          "type": "address"
        }
      ],
      "name": "removeAdminRole",
      "outputs": [],
      "stateMutability": "nonpayable",
      "type": "function"
    },
    {
      "inputs": [
        {
          "internalType": "address",
          "name": "_address",
          "type": "address"
        }
      ],
      "name": "removeMinterRole",
      "outputs": [],
      "stateMutability": "nonpayable",
      "type": "function"
    },
    {
      "inputs": [
        {
          "internalType": "address",
          "name": "_address",
          "type": "address"
        }
      ],
      "name": "removeOperatorRole",
      "outputs": [],
      "stateMutability": "nonpayable",
      "type": "function"
    },
    {
      "inputs": [
        {
          "internalType": "address",
          "name": "_address",
          "type": "address"
        }
      ],
      "name": "removeSmartContractRole",
      "outputs": [],
      "stateMutability": "nonpayable",
      "type": "function"
    },
    {
      "inputs": [
        {
          "internalType": "bytes32",
          "name": "role",
          "type": "bytes32"
        },
        {
          "internalType": "address",
          "name": "account",
          "type": "address"
        }
      ],
      "name": "renounceRole",
      "outputs": [],
      "stateMutability": "nonpayable",
      "type": "function"
    },
    {
      "inputs": [
        {
          "internalType": "bytes32",
          "name": "role",
          "type": "bytes32"
        },
        {
          "internalType": "address",
          "name": "account",
          "type": "address"
        }
      ],
      "name": "revokeRole",
      "outputs": [],
      "stateMutability": "nonpayable",
      "type": "function"
    },
    {
      "inputs": [
        {
          "internalType": "address[]",
          "name": "_accounts",
          "type": "address[]"
        },
        {
          "internalType": "uint256[]",
          "name": "_amounts",
          "type": "uint256[]"
        }
      ],
      "name": "setPoints",
      "outputs": [],
      "stateMutability": "nonpayable",
      "type": "function"
    },
    {
      "inputs": [],
      "name": "totalPoints",
      "outputs": [
        {
          "internalType": "uint256",
          "name": "",
          "type": "uint256"
        }
      ],
      "stateMutability": "view",
      "type": "function"
    }
  ],
  "bytecode": "0x608060405234801561001057600080fd5b50611368806100206000396000f3fe608060405234801561001057600080fd5b50600436106101da5760003560e01c806391d1485411610104578063ca15c873116100a2578063e6594abd11610071578063e6594abd14610455578063f5b541a614610468578063fa33bcf31461048f578063fc4e3e0a146104ba57600080fd5b8063ca15c873146103f5578063d539139314610408578063d547741f1461042f578063dccfe3101461044257600080fd5b8063a217fddf116100de578063a217fddf146103b4578063adbf3776146103bc578063b7928b1d146103cf578063c395fcb3146103e257600080fd5b806391d148541461037b5780639478941c1461038e5780639a80c4a1146103a157600080fd5b806336568abe1161017c5780636595171c1161014b5780636595171c14610303578063857d2608146103165780638a845fc01461033d5780639010d07c1461035057600080fd5b806336568abe146102c15780633f16431a146102d457806354f1e126146102e7578063567142be146102fa57600080fd5b8063248a9ca3116101b8578063248a9ca314610248578063283ba19b146102795780632f2ff15d1461028e578063358b8166146102a157600080fd5b8063099db017146101df578063113b0ab2146102075780631cd53d551461021a575b600080fd5b6101f26101ed3660046110ff565b6104cd565b60405190151581526020015b60405180910390f35b6101f26102153660046110ff565b6104ff565b6101f2610228366004611119565b6001600160a01b0391909116600090815260026020526040902054101590565b61026b610256366004611203565b60009081526020819052604090206002015490565b6040519081526020016101fe565b61028c6102873660046110ff565b61052b565b005b61028c61029c36600461121b565b610537565b61026b6102af3660046110ff565b60026020526000908152604090205481565b61028c6102cf36600461121b565b6105d8565b61028c6102e23660046110ff565b610660565b61028c6102f53660046110ff565b6106c3565b61026b60035481565b61028c6103113660046110ff565b610726565b61026b7f9d49f397ae9ef1a834b569acb967799a367061e305932181a44f5773da873bfd81565b61028c61034b3660046110ff565b61076a565b61036361035e366004611246565b6107cd565b6040516001600160a01b0390911681526020016101fe565b6101f261038936600461121b565b6107ec565b61028c61039c3660046110ff565b610804565b61028c6103af366004611142565b610867565b61026b600081565b61028c6103ca3660046110ff565b610a36565b61028c6103dd3660046110ff565b610a99565b6101f26103f03660046110ff565b610afc565b61026b610403366004611203565b610b08565b61026b7f9f2df0fed2c77648de5860a4cc508cd0818c85b8b8a1ab4ceeef8d981c8956a681565b61028c61043d36600461121b565b610b1f565b61028c6104503660046110ff565b610bad565b61028c6104633660046110ff565b610bf1565b61026b7f97667070c54ef182b0f5858b034beac1b6f3089aa2d3188bb1e8929f4fa9b92981565b6101f261049d3660046110ff565b6001600160a01b0316600090815260026020526040902054151590565b6101f26104c83660046110ff565b610c5e565b60006104f97f9f2df0fed2c77648de5860a4cc508cd0818c85b8b8a1ab4ceeef8d981c8956a6836107ec565b92915050565b60006104f97f9d49f397ae9ef1a834b569acb967799a367061e305932181a44f5773da873bfd836107ec565b61053481610bf1565b50565b60008281526020819052604090206002015461055390336107ec565b6105ca5760405162461bcd60e51b815260206004820152602f60248201527f416363657373436f6e74726f6c3a2073656e646572206d75737420626520616e60448201527f2061646d696e20746f206772616e74000000000000000000000000000000000060648201526084015b60405180910390fd5b6105d48282610c8a565b5050565b6001600160a01b03811633146106565760405162461bcd60e51b815260206004820152602f60248201527f416363657373436f6e74726f6c3a2063616e206f6e6c792072656e6f756e636560448201527f20726f6c657320666f722073656c66000000000000000000000000000000000060648201526084016105c1565b6105d48282610ce3565b61068a7f9d49f397ae9ef1a834b569acb967799a367061e305932181a44f5773da873bfd82610537565b60405133906001600160a01b038316907f1d5f9ec24c6f91be922ea13ceaad919ad6554a41b5c26087f96289a9baf98ad290600090a350565b6106ed7f9f2df0fed2c77648de5860a4cc508cd0818c85b8b8a1ab4ceeef8d981c8956a682610b1f565b60405133906001600160a01b038316907f56692a161ffec953ddf9def93b958ea8d1ec95e21b80870c66be91a4374dc4e390600090a350565b610731600082610537565b60405133906001600160a01b038316907f2570ac42fd8b322dc453ada624dc2ed0e9bdd67f16f201a25bbd30468f2aa18790600090a350565b6107947f9d49f397ae9ef1a834b569acb967799a367061e305932181a44f5773da873bfd82610b1f565b60405133906001600160a01b038316907fe5f1aa9e528307345194b88b24a32401c13926e0823060f1049d9b26c0bb62b290600090a350565b60008281526020819052604081206107e59083610d3c565b9392505050565b60008281526020819052604081206107e59083610d48565b61082e7f97667070c54ef182b0f5858b034beac1b6f3089aa2d3188bb1e8929f4fa9b92982610b1f565b60405133906001600160a01b038316907f70b25138b6fadeb9992d18b9653564271823e34b3e3257515d12a6d4b15fcddf90600090a350565b61087033610afc565b8061087f575061087f33610c5e565b6108f15760405162461bcd60e51b815260206004820152602c60248201527f506f696e744c6973742e736574506f696e74733a2053656e646572206d75737460448201527f206265206f70657261746f72000000000000000000000000000000000000000060648201526084016105c1565b81516108fc57600080fd5b805182511461090a57600080fd5b60005b8251811015610a3157600083828151811061093857634e487b7160e01b600052603260045260246000fd5b60200260200101519050600083838151811061096457634e487b7160e01b600052603260045260246000fd5b60200260200101519050600060026000846001600160a01b03166001600160a01b03168152602001908152602001600020549050808214610a1b576001600160a01b03831660009081526002602052604090208290556003546109d39083906109cd9084610d6a565b90610dc6565b60035560408051828152602081018490526001600160a01b038516917feceb10b266995afd3009502df537b0421b7f635dd268f4b0a74b99a87be65213910160405180910390a25b5050508080610a29906112eb565b91505061090d565b505050565b610a607f9f2df0fed2c77648de5860a4cc508cd0818c85b8b8a1ab4ceeef8d981c8956a682610537565b60405133906001600160a01b038316907f0be6ab9784c7401fafb73f7bc47bc67cc4ef8c47a60ad3cb66d1de0353a0784c90600090a350565b610ac37f97667070c54ef182b0f5858b034beac1b6f3089aa2d3188bb1e8929f4fa9b92982610537565b60405133906001600160a01b038316907f2d45ee102874989882745a26688d0b4fffee125a18df26536b12582c7fde4e1790600090a350565b60006104f981836107ec565b60008181526020819052604081206104f990610e25565b600082815260208190526040902060020154610b3b90336107ec565b6106565760405162461bcd60e51b815260206004820152603060248201527f416363657373436f6e74726f6c3a2073656e646572206d75737420626520616e60448201527f2061646d696e20746f207265766f6b650000000000000000000000000000000060648201526084016105c1565b610bb8600082610b1f565b60405133906001600160a01b038316907f21ba1239795d4e22874e3dc55f0a9d7b65bfb23069d32965d7c23be9524ccf9590600090a350565b60015460ff1615610c445760405162461bcd60e51b815260206004820152601360248201527f416c726561647920696e697469616c697365640000000000000000000000000060448201526064016105c1565b610c4f6000826105ca565b506001805460ff191681179055565b60006104f97f97667070c54ef182b0f5858b034beac1b6f3089aa2d3188bb1e8929f4fa9b929836107ec565b6000828152602081905260409020610ca29082610e2f565b156105d45760405133906001600160a01b0383169084907f2f8788117e7eff1d82e926ec794901d17c78024a50270940304540a733656f0d90600090a45050565b6000828152602081905260409020610cfb9082610e44565b156105d45760405133906001600160a01b0383169084907ff6391f5c32d9c69d2a47ea670b442974b53935d1edc7fd64eb21e047a839171b90600090a45050565b60006107e58383610e59565b6001600160a01b038116600090815260018301602052604081205415156107e5565b600082821115610dbc5760405162461bcd60e51b815260206004820152601e60248201527f536166654d6174683a207375627472616374696f6e206f766572666c6f77000060448201526064016105c1565b6107e582846112d4565b600080610dd383856112bc565b9050838110156107e55760405162461bcd60e51b815260206004820152601b60248201527f536166654d6174683a206164646974696f6e206f766572666c6f77000000000060448201526064016105c1565b60006104f9825490565b60006107e5836001600160a01b038416610f08565b60006107e5836001600160a01b038416610f57565b81546000908210610ed25760405162461bcd60e51b815260206004820152602260248201527f456e756d657261626c655365743a20696e646578206f7574206f6620626f756e60448201527f647300000000000000000000000000000000000000000000000000000000000060648201526084016105c1565b826000018281548110610ef557634e487b7160e01b600052603260045260246000fd5b9060005260206000200154905092915050565b6000818152600183016020526040812054610f4f575081546001818101845560008481526020808220909301849055845484825282860190935260409020919091556104f9565b5060006104f9565b6000818152600183016020526040812054801561106a576000610f7b6001836112d4565b8554909150600090610f8f906001906112d4565b90506000866000018281548110610fb657634e487b7160e01b600052603260045260246000fd5b9060005260206000200154905080876000018481548110610fe757634e487b7160e01b600052603260045260246000fd5b600091825260209091200155610ffe8360016112bc565b6000828152600189016020526040902055865487908061102e57634e487b7160e01b600052603160045260246000fd5b600190038181906000526020600020016000905590558660010160008781526020019081526020016000206000905560019450505050506104f9565b60009150506104f9565b80356001600160a01b038116811461108b57600080fd5b919050565b600082601f8301126110a0578081fd5b813560206110b56110b083611298565b611267565b80838252828201915082860187848660051b89010111156110d4578586fd5b855b858110156110f2578135845292840192908401906001016110d6565b5090979650505050505050565b600060208284031215611110578081fd5b6107e582611074565b6000806040838503121561112b578081fd5b61113483611074565b946020939093013593505050565b60008060408385031215611154578182fd5b823567ffffffffffffffff8082111561116b578384fd5b818501915085601f83011261117e578384fd5b8135602061118e6110b083611298565b8083825282820191508286018a848660051b89010111156111ad578889fd5b8896505b848710156111d6576111c281611074565b8352600196909601959183019183016111b1565b50965050860135925050808211156111ec578283fd5b506111f985828601611090565b9150509250929050565b600060208284031215611214578081fd5b5035919050565b6000806040838503121561122d578182fd5b8235915061123d60208401611074565b90509250929050565b60008060408385031215611258578182fd5b50508035926020909101359150565b604051601f8201601f1916810167ffffffffffffffff811182821017156112905761129061131c565b604052919050565b600067ffffffffffffffff8211156112b2576112b261131c565b5060051b60200190565b600082198211156112cf576112cf611306565b500190565b6000828210156112e6576112e6611306565b500390565b60006000198214156112ff576112ff611306565b5060010190565b634e487b7160e01b600052601160045260246000fd5b634e487b7160e01b600052604160045260246000fdfea26469706673582212206135857934dee8a9307dd2b8c902e2f7cbf9067e88192b9000569905c0b456b964736f6c63430008040033",
  "linkReferences": {},
  "deployedLinkReferences": {}
}