{
  "_format": "hh-sol-artifact-1",
  "contractName": "PointList",
  "sourceName": "contracts/Access/PointList.sol",
  "abi": [
    {
      "inputs": [],
      "stateMutability": "nonpayable",
      "type": "constructor"
    },
    {
      "anonymous": false,
      "inputs": [
        {
          "indexed": true,
          "internalType": "address",
          "name": "beneficiary",
          "type": "address"
        },
        {
          "indexed": true,
          "internalType": "address",
          "name": "caller",
          "type": "address"
        }
      ],
      "name": "AdminRoleGranted",
      "type": "event"
    },
    {
      "anonymous": false,
      "inputs": [
        {
          "indexed": true,
          "internalType": "address",
          "name": "beneficiary",
          "type": "address"
        },
        {
          "indexed": true,
          "internalType": "address",
          "name": "caller",
          "type": "address"
        }
      ],
      "name": "AdminRoleRemoved",
      "type": "event"
    },
    {
      "anonymous": false,
      "inputs": [
        {
          "indexed": true,
          "internalType": "address",
          "name": "beneficiary",
          "type": "address"
        },
        {
          "indexed": true,
          "internalType": "address",
          "name": "caller",
          "type": "address"
        }
      ],
      "name": "MinterRoleGranted",
      "type": "event"
    },
    {
      "anonymous": false,
      "inputs": [
        {
          "indexed": true,
          "internalType": "address",
          "name": "beneficiary",
          "type": "address"
        },
        {
          "indexed": true,
          "internalType": "address",
          "name": "caller",
          "type": "address"
        }
      ],
      "name": "MinterRoleRemoved",
      "type": "event"
    },
    {
      "anonymous": false,
      "inputs": [
        {
          "indexed": true,
          "internalType": "address",
          "name": "beneficiary",
          "type": "address"
        },
        {
          "indexed": true,
          "internalType": "address",
          "name": "caller",
          "type": "address"
        }
      ],
      "name": "OperatorRoleGranted",
      "type": "event"
    },
    {
      "anonymous": false,
      "inputs": [
        {
          "indexed": true,
          "internalType": "address",
          "name": "beneficiary",
          "type": "address"
        },
        {
          "indexed": true,
          "internalType": "address",
          "name": "caller",
          "type": "address"
        }
      ],
      "name": "OperatorRoleRemoved",
      "type": "event"
    },
    {
      "anonymous": false,
      "inputs": [
        {
          "indexed": true,
          "internalType": "address",
          "name": "account",
          "type": "address"
        },
        {
          "indexed": false,
          "internalType": "uint256",
          "name": "oldPoints",
          "type": "uint256"
        },
        {
          "indexed": false,
          "internalType": "uint256",
          "name": "newPoints",
          "type": "uint256"
        }
      ],
      "name": "PointsUpdated",
      "type": "event"
    },
    {
      "anonymous": false,
      "inputs": [
        {
          "indexed": true,
          "internalType": "bytes32",
          "name": "role",
          "type": "bytes32"
        },
        {
          "indexed": true,
          "internalType": "bytes32",
          "name": "previousAdminRole",
          "type": "bytes32"
        },
        {
          "indexed": true,
          "internalType": "bytes32",
          "name": "newAdminRole",
          "type": "bytes32"
        }
      ],
      "name": "RoleAdminChanged",
      "type": "event"
    },
    {
      "anonymous": false,
      "inputs": [
        {
          "indexed": true,
          "internalType": "bytes32",
          "name": "role",
          "type": "bytes32"
        },
        {
          "indexed": true,
          "internalType": "address",
          "name": "account",
          "type": "address"
        },
        {
          "indexed": true,
          "internalType": "address",
          "name": "sender",
          "type": "address"
        }
      ],
      "name": "RoleGranted",
      "type": "event"
    },
    {
      "anonymous": false,
      "inputs": [
        {
          "indexed": true,
          "internalType": "bytes32",
          "name": "role",
          "type": "bytes32"
        },
        {
          "indexed": true,
          "internalType": "address",
          "name": "account",
          "type": "address"
        },
        {
          "indexed": true,
          "internalType": "address",
          "name": "sender",
          "type": "address"
        }
      ],
      "name": "RoleRevoked",
      "type": "event"
    },
    {
      "anonymous": false,
      "inputs": [
        {
          "indexed": true,
          "internalType": "address",
          "name": "beneficiary",
          "type": "address"
        },
        {
          "indexed": true,
          "internalType": "address",
          "name": "caller",
          "type": "address"
        }
      ],
      "name": "SmartContractRoleGranted",
      "type": "event"
    },
    {
      "anonymous": false,
      "inputs": [
        {
          "indexed": true,
          "internalType": "address",
          "name": "beneficiary",
          "type": "address"
        },
        {
          "indexed": true,
          "internalType": "address",
          "name": "caller",
          "type": "address"
        }
      ],
      "name": "SmartContractRoleRemoved",
      "type": "event"
    },
    {
      "inputs": [],
      "name": "DEFAULT_ADMIN_ROLE",
      "outputs": [
        {
          "internalType": "bytes32",
          "name": "",
          "type": "bytes32"
        }
      ],
      "stateMutability": "view",
      "type": "function"
    },
    {
      "inputs": [],
      "name": "MINTER_ROLE",
      "outputs": [
        {
          "internalType": "bytes32",
          "name": "",
          "type": "bytes32"
        }
      ],
      "stateMutability": "view",
      "type": "function"
    },
    {
      "inputs": [],
      "name": "OPERATOR_ROLE",
      "outputs": [
        {
          "internalType": "bytes32",
          "name": "",
          "type": "bytes32"
        }
      ],
      "stateMutability": "view",
      "type": "function"
    },
    {
      "inputs": [],
      "name": "SMART_CONTRACT_ROLE",
      "outputs": [
        {
          "internalType": "bytes32",
          "name": "",
          "type": "bytes32"
        }
      ],
      "stateMutability": "view",
      "type": "function"
    },
    {
      "inputs": [
        {
          "internalType": "address",
          "name": "_address",
          "type": "address"
        }
      ],
      "name": "addAdminRole",
      "outputs": [],
      "stateMutability": "nonpayable",
      "type": "function"
    },
    {
      "inputs": [
        {
          "internalType": "address",
          "name": "_address",
          "type": "address"
        }
      ],
      "name": "addMinterRole",
      "outputs": [],
      "stateMutability": "nonpayable",
      "type": "function"
    },
    {
      "inputs": [
        {
          "internalType": "address",
          "name": "_address",
          "type": "address"
        }
      ],
      "name": "addOperatorRole",
      "outputs": [],
      "stateMutability": "nonpayable",
      "type": "function"
    },
    {
      "inputs": [
        {
          "internalType": "address",
          "name": "_address",
          "type": "address"
        }
      ],
      "name": "addSmartContractRole",
      "outputs": [],
      "stateMutability": "nonpayable",
      "type": "function"
    },
    {
      "inputs": [
        {
          "internalType": "bytes32",
          "name": "role",
          "type": "bytes32"
        }
      ],
      "name": "getRoleAdmin",
      "outputs": [
        {
          "internalType": "bytes32",
          "name": "",
          "type": "bytes32"
        }
      ],
      "stateMutability": "view",
      "type": "function"
    },
    {
      "inputs": [
        {
          "internalType": "bytes32",
          "name": "role",
          "type": "bytes32"
        },
        {
          "internalType": "uint256",
          "name": "index",
          "type": "uint256"
        }
      ],
      "name": "getRoleMember",
      "outputs": [
        {
          "internalType": "address",
          "name": "",
          "type": "address"
        }
      ],
      "stateMutability": "view",
      "type": "function"
    },
    {
      "inputs": [
        {
          "internalType": "bytes32",
          "name": "role",
          "type": "bytes32"
        }
      ],
      "name": "getRoleMemberCount",
      "outputs": [
        {
          "internalType": "uint256",
          "name": "",
          "type": "uint256"
        }
      ],
      "stateMutability": "view",
      "type": "function"
    },
    {
      "inputs": [
        {
          "internalType": "bytes32",
          "name": "role",
          "type": "bytes32"
        },
        {
          "internalType": "address",
          "name": "account",
          "type": "address"
        }
      ],
      "name": "grantRole",
      "outputs": [],
      "stateMutability": "nonpayable",
      "type": "function"
    },
    {
      "inputs": [
        {
          "internalType": "address",
          "name": "_address",
          "type": "address"
        }
      ],
      "name": "hasAdminRole",
      "outputs": [
        {
          "internalType": "bool",
          "name": "",
          "type": "bool"
        }
      ],
      "stateMutability": "view",
      "type": "function"
    },
    {
      "inputs": [
        {
          "internalType": "address",
          "name": "_address",
          "type": "address"
        }
      ],
      "name": "hasMinterRole",
      "outputs": [
        {
          "internalType": "bool",
          "name": "",
          "type": "bool"
        }
      ],
      "stateMutability": "view",
      "type": "function"
    },
    {
      "inputs": [
        {
          "internalType": "address",
          "name": "_address",
          "type": "address"
        }
      ],
      "name": "hasOperatorRole",
      "outputs": [
        {
          "internalType": "bool",
          "name": "",
          "type": "bool"
        }
      ],
      "stateMutability": "view",
      "type": "function"
    },
    {
      "inputs": [
        {
          "internalType": "address",
          "name": "_account",
          "type": "address"
        },
        {
          "internalType": "uint256",
          "name": "_amount",
          "type": "uint256"
        }
      ],
      "name": "hasPoints",
      "outputs": [
        {
          "internalType": "bool",
          "name": "",
          "type": "bool"
        }
      ],
      "stateMutability": "view",
      "type": "function"
    },
    {
      "inputs": [
        {
          "internalType": "bytes32",
          "name": "role",
          "type": "bytes32"
        },
        {
          "internalType": "address",
          "name": "account",
          "type": "address"
        }
      ],
      "name": "hasRole",
      "outputs": [
        {
          "internalType": "bool",
          "name": "",
          "type": "bool"
        }
      ],
      "stateMutability": "view",
      "type": "function"
    },
    {
      "inputs": [
        {
          "internalType": "address",
          "name": "_address",
          "type": "address"
        }
      ],
      "name": "hasSmartContractRole",
      "outputs": [
        {
          "internalType": "bool",
          "name": "",
          "type": "bool"
        }
      ],
      "stateMutability": "view",
      "type": "function"
    },
    {
      "inputs": [
        {
          "internalType": "address",
          "name": "_admin",
          "type": "address"
        }
      ],
      "name": "initAccessControls",
      "outputs": [],
      "stateMutability": "nonpayable",
      "type": "function"
    },
    {
      "inputs": [
        {
          "internalType": "address",
          "name": "_admin",
          "type": "address"
        }
      ],
      "name": "initPointList",
      "outputs": [],
      "stateMutability": "nonpayable",
      "type": "function"
    },
    {
      "inputs": [
        {
          "internalType": "address",
          "name": "_account",
          "type": "address"
        }
      ],
      "name": "isInList",
      "outputs": [
        {
          "internalType": "bool",
          "name": "",
          "type": "bool"
        }
      ],
      "stateMutability": "view",
      "type": "function"
    },
    {
      "inputs": [
        {
          "internalType": "address",
          "name": "",
          "type": "address"
        }
      ],
      "name": "points",
      "outputs": [
        {
          "internalType": "uint256",
          "name": "",
          "type": "uint256"
        }
      ],
      "stateMutability": "view",
      "type": "function"
    },
    {
      "inputs": [
        {
          "internalType": "address",
          "name": "_address",
          "type": "address"
        }
      ],
      "name": "removeAdminRole",
      "outputs": [],
      "stateMutability": "nonpayable",
      "type": "function"
    },
    {
      "inputs": [
        {
          "internalType": "address",
          "name": "_address",
          "type": "address"
        }
      ],
      "name": "removeMinterRole",
      "outputs": [],
      "stateMutability": "nonpayable",
      "type": "function"
    },
    {
      "inputs": [
        {
          "internalType": "address",
          "name": "_address",
          "type": "address"
        }
      ],
      "name": "removeOperatorRole",
      "outputs": [],
      "stateMutability": "nonpayable",
      "type": "function"
    },
    {
      "inputs": [
        {
          "internalType": "address",
          "name": "_address",
          "type": "address"
        }
      ],
      "name": "removeSmartContractRole",
      "outputs": [],
      "stateMutability": "nonpayable",
      "type": "function"
    },
    {
      "inputs": [
        {
          "internalType": "bytes32",
          "name": "role",
          "type": "bytes32"
        },
        {
          "internalType": "address",
          "name": "account",
          "type": "address"
        }
      ],
      "name": "renounceRole",
      "outputs": [],
      "stateMutability": "nonpayable",
      "type": "function"
    },
    {
      "inputs": [
        {
          "internalType": "bytes32",
          "name": "role",
          "type": "bytes32"
        },
        {
          "internalType": "address",
          "name": "account",
          "type": "address"
        }
      ],
      "name": "revokeRole",
      "outputs": [],
      "stateMutability": "nonpayable",
      "type": "function"
    },
    {
      "inputs": [
        {
          "internalType": "address[]",
          "name": "_accounts",
          "type": "address[]"
        },
        {
          "internalType": "uint256[]",
          "name": "_amounts",
          "type": "uint256[]"
        }
      ],
      "name": "setPoints",
      "outputs": [],
      "stateMutability": "nonpayable",
      "type": "function"
    },
    {
      "inputs": [],
      "name": "totalPoints",
      "outputs": [
        {
          "internalType": "uint256",
          "name": "",
          "type": "uint256"
        }
      ],
      "stateMutability": "view",
      "type": "function"
    }
  ],
  "bytecode": "0x608060405234801561001057600080fd5b506120f8806100206000396000f3fe608060405234801561001057600080fd5b50600436106101da5760003560e01c806391d1485411610104578063ca15c873116100a2578063e6594abd11610071578063e6594abd14610573578063f5b541a61461058f578063fa33bcf3146105ad578063fc4e3e0a146105dd576101da565b8063ca15c873146104ed578063d53913931461051d578063d547741f1461053b578063dccfe31014610557576101da565b8063a217fddf116100de578063a217fddf14610467578063adbf377614610485578063b7928b1d146104a1578063c395fcb3146104bd576101da565b806391d14854146103ff5780639478941c1461042f5780639a80c4a11461044b576101da565b806336568abe1161017c5780636595171c1161014b5780636595171c14610379578063857d2608146103955780638a845fc0146103b35780639010d07c146103cf576101da565b806336568abe146103075780633f16431a1461032357806354f1e1261461033f578063567142be1461035b576101da565b8063248a9ca3116101b8578063248a9ca31461026f578063283ba19b1461029f5780632f2ff15d146102bb578063358b8166146102d7576101da565b8063099db017146101df578063113b0ab21461020f5780631cd53d551461023f575b600080fd5b6101f960048036038101906101f491906117c9565b61060d565b6040516102069190611aaa565b60405180910390f35b610229600480360381019061022491906117c9565b610640565b6040516102369190611aaa565b60405180910390f35b610259600480360381019061025491906117f2565b610673565b6040516102669190611aaa565b60405180910390f35b6102896004803603810190610284919061189a565b6106c0565b6040516102969190611ac5565b60405180910390f35b6102b960048036038101906102b491906117c9565b6106df565b005b6102d560048036038101906102d091906118c3565b6106eb565b005b6102f160048036038101906102ec91906117c9565b61075e565b6040516102fe9190611be0565b60405180910390f35b610321600480360381019061031c91906118c3565b610776565b005b61033d600480360381019061033891906117c9565b6107f9565b005b610359600480360381019061035491906117c9565b610887565b005b610363610915565b6040516103709190611be0565b60405180910390f35b610393600480360381019061038e91906117c9565b61091b565b005b61039d61098c565b6040516103aa9190611ac5565b60405180910390f35b6103cd60048036038101906103c891906117c9565b6109b0565b005b6103e960048036038101906103e491906118ff565b610a3e565b6040516103f69190611a8f565b60405180910390f35b610419600480360381019061041491906118c3565b610a6f565b6040516104269190611aaa565b60405180910390f35b610449600480360381019061044491906117c9565b610aa0565b005b6104656004803603810190610460919061182e565b610b2e565b005b61046f610d61565b60405161047c9190611ac5565b60405180910390f35b61049f600480360381019061049a91906117c9565b610d68565b005b6104bb60048036038101906104b691906117c9565b610df6565b005b6104d760048036038101906104d291906117c9565b610e84565b6040516104e49190611aaa565b60405180910390f35b6105076004803603810190610502919061189a565b610e9a565b6040516105149190611be0565b60405180910390f35b610525610ec0565b6040516105329190611ac5565b60405180910390f35b610555600480360381019061055091906118c3565b610ee4565b005b610571600480360381019061056c91906117c9565b610f57565b005b61058d600480360381019061058891906117c9565b610fc8565b005b610597611042565b6040516105a49190611ac5565b60405180910390f35b6105c760048036038101906105c291906117c9565b611066565b6040516105d49190611aaa565b60405180910390f35b6105f760048036038101906105f291906117c9565b6110b1565b6040516106049190611aaa565b60405180910390f35b60006106397f9f2df0fed2c77648de5860a4cc508cd0818c85b8b8a1ab4ceeef8d981c8956a683610a6f565b9050919050565b600061066c7f9d49f397ae9ef1a834b569acb967799a367061e305932181a44f5773da873bfd83610a6f565b9050919050565b600081600260008573ffffffffffffffffffffffffffffffffffffffff1673ffffffffffffffffffffffffffffffffffffffff168152602001908152602001600020541015905092915050565b6000806000838152602001908152602001600020600201549050919050565b6106e881610fc8565b50565b6107116000808481526020019081526020016000206002015461070c6110e4565b610a6f565b610750576040517f08c379a000000000000000000000000000000000000000000000000000000000815260040161074790611b20565b60405180910390fd5b61075a82826110ec565b5050565b60026020528060005260406000206000915090505481565b61077e6110e4565b73ffffffffffffffffffffffffffffffffffffffff168173ffffffffffffffffffffffffffffffffffffffff16146107eb576040517f08c379a00000000000000000000000000000000000000000000000000000000081526004016107e290611bc0565b60405180910390fd5b6107f5828261117f565b5050565b6108237f9d49f397ae9ef1a834b569acb967799a367061e305932181a44f5773da873bfd826106eb565b61082b6110e4565b73ffffffffffffffffffffffffffffffffffffffff168173ffffffffffffffffffffffffffffffffffffffff167f1d5f9ec24c6f91be922ea13ceaad919ad6554a41b5c26087f96289a9baf98ad260405160405180910390a350565b6108b17f9f2df0fed2c77648de5860a4cc508cd0818c85b8b8a1ab4ceeef8d981c8956a682610ee4565b6108b96110e4565b73ffffffffffffffffffffffffffffffffffffffff168173ffffffffffffffffffffffffffffffffffffffff167f56692a161ffec953ddf9def93b958ea8d1ec95e21b80870c66be91a4374dc4e360405160405180910390a350565b60035481565b6109286000801b826106eb565b6109306110e4565b73ffffffffffffffffffffffffffffffffffffffff168173ffffffffffffffffffffffffffffffffffffffff167f2570ac42fd8b322dc453ada624dc2ed0e9bdd67f16f201a25bbd30468f2aa18760405160405180910390a350565b7f9d49f397ae9ef1a834b569acb967799a367061e305932181a44f5773da873bfd81565b6109da7f9d49f397ae9ef1a834b569acb967799a367061e305932181a44f5773da873bfd82610ee4565b6109e26110e4565b73ffffffffffffffffffffffffffffffffffffffff168173ffffffffffffffffffffffffffffffffffffffff167fe5f1aa9e528307345194b88b24a32401c13926e0823060f1049d9b26c0bb62b260405160405180910390a350565b6000610a678260008086815260200190815260200160002060000161121290919063ffffffff16565b905092915050565b6000610a988260008086815260200190815260200160002060000161122c90919063ffffffff16565b905092915050565b610aca7f97667070c54ef182b0f5858b034beac1b6f3089aa2d3188bb1e8929f4fa9b92982610ee4565b610ad26110e4565b73ffffffffffffffffffffffffffffffffffffffff168173ffffffffffffffffffffffffffffffffffffffff167f70b25138b6fadeb9992d18b9653564271823e34b3e3257515d12a6d4b15fcddf60405160405180910390a350565b610b3733610e84565b80610b475750610b46336110b1565b5b610b86576040517f08c379a0000000000000000000000000000000000000000000000000000000008152600401610b7d90611ba0565b60405180910390fd5b600082511415610b9557600080fd5b8051825114610ba357600080fd5b60005b8251811015610d5c576000838281518110610bea577f4e487b7100000000000000000000000000000000000000000000000000000000600052603260045260246000fd5b602002602001015190506000838381518110610c2f577f4e487b7100000000000000000000000000000000000000000000000000000000600052603260045260246000fd5b602002602001015190506000600260008473ffffffffffffffffffffffffffffffffffffffff1673ffffffffffffffffffffffffffffffffffffffff168152602001908152602001600020549050808214610d465781600260008573ffffffffffffffffffffffffffffffffffffffff1673ffffffffffffffffffffffffffffffffffffffff16815260200190815260200160002081905550610cef82610ce18360035461125c90919063ffffffff16565b6112b590919063ffffffff16565b6003819055508273ffffffffffffffffffffffffffffffffffffffff167feceb10b266995afd3009502df537b0421b7f635dd268f4b0a74b99a87be652138284604051610d3d929190611bfb565b60405180910390a25b5050508080610d5490611dbf565b915050610ba6565b505050565b6000801b81565b610d927f9f2df0fed2c77648de5860a4cc508cd0818c85b8b8a1ab4ceeef8d981c8956a6826106eb565b610d9a6110e4565b73ffffffffffffffffffffffffffffffffffffffff168173ffffffffffffffffffffffffffffffffffffffff167f0be6ab9784c7401fafb73f7bc47bc67cc4ef8c47a60ad3cb66d1de0353a0784c60405160405180910390a350565b610e207f97667070c54ef182b0f5858b034beac1b6f3089aa2d3188bb1e8929f4fa9b929826106eb565b610e286110e4565b73ffffffffffffffffffffffffffffffffffffffff168173ffffffffffffffffffffffffffffffffffffffff167f2d45ee102874989882745a26688d0b4fffee125a18df26536b12582c7fde4e1760405160405180910390a350565b6000610e936000801b83610a6f565b9050919050565b6000610eb9600080848152602001908152602001600020600001611313565b9050919050565b7f9f2df0fed2c77648de5860a4cc508cd0818c85b8b8a1ab4ceeef8d981c8956a681565b610f0a60008084815260200190815260200160002060020154610f056110e4565b610a6f565b610f49576040517f08c379a0000000000000000000000000000000000000000000000000000000008152600401610f4090611b80565b60405180910390fd5b610f53828261117f565b5050565b610f646000801b82610ee4565b610f6c6110e4565b73ffffffffffffffffffffffffffffffffffffffff168173ffffffffffffffffffffffffffffffffffffffff167f21ba1239795d4e22874e3dc55f0a9d7b65bfb23069d32965d7c23be9524ccf9560405160405180910390a350565b600160009054906101000a900460ff1615611018576040517f08c379a000000000000000000000000000000000000000000000000000000000815260040161100f90611ae0565b60405180910390fd5b6110256000801b82611328565b60018060006101000a81548160ff02191690831515021790555050565b7f97667070c54ef182b0f5858b034beac1b6f3089aa2d3188bb1e8929f4fa9b92981565b600080600260008473ffffffffffffffffffffffffffffffffffffffff1673ffffffffffffffffffffffffffffffffffffffff16815260200190815260200160002054119050919050565b60006110dd7f97667070c54ef182b0f5858b034beac1b6f3089aa2d3188bb1e8929f4fa9b92983610a6f565b9050919050565b600033905090565b6111138160008085815260200190815260200160002060000161133690919063ffffffff16565b1561117b576111206110e4565b73ffffffffffffffffffffffffffffffffffffffff168173ffffffffffffffffffffffffffffffffffffffff16837f2f8788117e7eff1d82e926ec794901d17c78024a50270940304540a733656f0d60405160405180910390a45b5050565b6111a68160008085815260200190815260200160002060000161136690919063ffffffff16565b1561120e576111b36110e4565b73ffffffffffffffffffffffffffffffffffffffff168173ffffffffffffffffffffffffffffffffffffffff16837ff6391f5c32d9c69d2a47ea670b442974b53935d1edc7fd64eb21e047a839171b60405160405180910390a45b5050565b60006112218360000183611396565b60001c905092915050565b6000611254836000018373ffffffffffffffffffffffffffffffffffffffff1660001b611430565b905092915050565b6000828211156112a1576040517f08c379a000000000000000000000000000000000000000000000000000000000815260040161129890611b60565b60405180910390fd5b81836112ad9190611d08565b905092915050565b60008082846112c49190611cb2565b905083811015611309576040517f08c379a000000000000000000000000000000000000000000000000000000000815260040161130090611b40565b60405180910390fd5b8091505092915050565b600061132182600001611453565b9050919050565b61133282826110ec565b5050565b600061135e836000018373ffffffffffffffffffffffffffffffffffffffff1660001b611464565b905092915050565b600061138e836000018373ffffffffffffffffffffffffffffffffffffffff1660001b6114d4565b905092915050565b6000818360000180549050116113e1576040517f08c379a00000000000000000000000000000000000000000000000000000000081526004016113d890611b00565b60405180910390fd5b82600001828154811061141d577f4e487b7100000000000000000000000000000000000000000000000000000000600052603260045260246000fd5b9060005260206000200154905092915050565b600080836001016000848152602001908152602001600020541415905092915050565b600081600001805490509050919050565b60006114708383611430565b6114c95782600001829080600181540180825580915050600190039060005260206000200160009091909190915055826000018054905083600101600084815260200190815260200160002081905550600190506114ce565b600090505b92915050565b600080836001016000848152602001908152602001600020549050600081146116525760006001826115069190611d08565b905060006001866000018054905061151e9190611d08565b9050600086600001828154811061155e577f4e487b7100000000000000000000000000000000000000000000000000000000600052603260045260246000fd5b90600052602060002001549050808760000184815481106115a8577f4e487b7100000000000000000000000000000000000000000000000000000000600052603260045260246000fd5b90600052602060002001819055506001836115c39190611cb2565b8760010160008381526020019081526020016000208190555086600001805480611616577f4e487b7100000000000000000000000000000000000000000000000000000000600052603160045260246000fd5b60019003818190600052602060002001600090559055866001016000878152602001908152602001600020600090556001945050505050611658565b60009150505b92915050565b600061167161166c84611c49565b611c24565b9050808382526020820190508285602086028201111561169057600080fd5b60005b858110156116c057816116a68882611736565b845260208401935060208301925050600181019050611693565b5050509392505050565b60006116dd6116d884611c75565b611c24565b905080838252602082019050828560208602820111156116fc57600080fd5b60005b8581101561172c578161171288826117b4565b8452602084019350602083019250506001810190506116ff565b5050509392505050565b6000813590506117458161207d565b92915050565b600082601f83011261175c57600080fd5b813561176c84826020860161165e565b91505092915050565b600082601f83011261178657600080fd5b81356117968482602086016116ca565b91505092915050565b6000813590506117ae81612094565b92915050565b6000813590506117c3816120ab565b92915050565b6000602082840312156117db57600080fd5b60006117e984828501611736565b91505092915050565b6000806040838503121561180557600080fd5b600061181385828601611736565b9250506020611824858286016117b4565b9150509250929050565b6000806040838503121561184157600080fd5b600083013567ffffffffffffffff81111561185b57600080fd5b6118678582860161174b565b925050602083013567ffffffffffffffff81111561188457600080fd5b61189085828601611775565b9150509250929050565b6000602082840312156118ac57600080fd5b60006118ba8482850161179f565b91505092915050565b600080604083850312156118d657600080fd5b60006118e48582860161179f565b92505060206118f585828601611736565b9150509250929050565b6000806040838503121561191257600080fd5b60006119208582860161179f565b9250506020611931858286016117b4565b9150509250929050565b61194481611d3c565b82525050565b61195381611d4e565b82525050565b61196281611d5a565b82525050565b6000611975601383611ca1565b915061198082611e77565b602082019050919050565b6000611998602283611ca1565b91506119a382611ea0565b604082019050919050565b60006119bb602f83611ca1565b91506119c682611eef565b604082019050919050565b60006119de601b83611ca1565b91506119e982611f3e565b602082019050919050565b6000611a01601e83611ca1565b9150611a0c82611f67565b602082019050919050565b6000611a24603083611ca1565b9150611a2f82611f90565b604082019050919050565b6000611a47602c83611ca1565b9150611a5282611fdf565b604082019050919050565b6000611a6a602f83611ca1565b9150611a758261202e565b604082019050919050565b611a8981611d84565b82525050565b6000602082019050611aa4600083018461193b565b92915050565b6000602082019050611abf600083018461194a565b92915050565b6000602082019050611ada6000830184611959565b92915050565b60006020820190508181036000830152611af981611968565b9050919050565b60006020820190508181036000830152611b198161198b565b9050919050565b60006020820190508181036000830152611b39816119ae565b9050919050565b60006020820190508181036000830152611b59816119d1565b9050919050565b60006020820190508181036000830152611b79816119f4565b9050919050565b60006020820190508181036000830152611b9981611a17565b9050919050565b60006020820190508181036000830152611bb981611a3a565b9050919050565b60006020820190508181036000830152611bd981611a5d565b9050919050565b6000602082019050611bf56000830184611a80565b92915050565b6000604082019050611c106000830185611a80565b611c1d6020830184611a80565b9392505050565b6000611c2e611c3f565b9050611c3a8282611d8e565b919050565b6000604051905090565b600067ffffffffffffffff821115611c6457611c63611e37565b5b602082029050602081019050919050565b600067ffffffffffffffff821115611c9057611c8f611e37565b5b602082029050602081019050919050565b600082825260208201905092915050565b6000611cbd82611d84565b9150611cc883611d84565b9250827fffffffffffffffffffffffffffffffffffffffffffffffffffffffffffffffff03821115611cfd57611cfc611e08565b5b828201905092915050565b6000611d1382611d84565b9150611d1e83611d84565b925082821015611d3157611d30611e08565b5b828203905092915050565b6000611d4782611d64565b9050919050565b60008115159050919050565b6000819050919050565b600073ffffffffffffffffffffffffffffffffffffffff82169050919050565b6000819050919050565b611d9782611e66565b810181811067ffffffffffffffff82111715611db657611db5611e37565b5b80604052505050565b6000611dca82611d84565b91507fffffffffffffffffffffffffffffffffffffffffffffffffffffffffffffffff821415611dfd57611dfc611e08565b5b600182019050919050565b7f4e487b7100000000000000000000000000000000000000000000000000000000600052601160045260246000fd5b7f4e487b7100000000000000000000000000000000000000000000000000000000600052604160045260246000fd5b6000601f19601f8301169050919050565b7f416c726561647920696e697469616c6973656400000000000000000000000000600082015250565b7f456e756d657261626c655365743a20696e646578206f7574206f6620626f756e60008201527f6473000000000000000000000000000000000000000000000000000000000000602082015250565b7f416363657373436f6e74726f6c3a2073656e646572206d75737420626520616e60008201527f2061646d696e20746f206772616e740000000000000000000000000000000000602082015250565b7f536166654d6174683a206164646974696f6e206f766572666c6f770000000000600082015250565b7f536166654d6174683a207375627472616374696f6e206f766572666c6f770000600082015250565b7f416363657373436f6e74726f6c3a2073656e646572206d75737420626520616e60008201527f2061646d696e20746f207265766f6b6500000000000000000000000000000000602082015250565b7f506f696e744c6973742e736574506f696e74733a2053656e646572206d75737460008201527f206265206f70657261746f720000000000000000000000000000000000000000602082015250565b7f416363657373436f6e74726f6c3a2063616e206f6e6c792072656e6f756e636560008201527f20726f6c657320666f722073656c660000000000000000000000000000000000602082015250565b61208681611d3c565b811461209157600080fd5b50565b61209d81611d5a565b81146120a857600080fd5b50565b6120b481611d84565b81146120bf57600080fd5b5056fea2646970667358221220b583054d43bbab26475e7eafe142dcc052079b24ee00192c4e51df48ba91a63b64736f6c63430008040033",
  "linkReferences": {},
  "deployedLinkReferences": {}
}