{
  "_format": "hh-sol-artifact-1",
  "contractName": "TimelockController",
  "sourceName": "contracts/OpenZeppelin/access/TimelockController.sol",
  "abi": [
    {
      "inputs": [
        {
          "internalType": "uint256",
          "name": "minDelay",
          "type": "uint256"
        },
        {
          "internalType": "address[]",
          "name": "proposers",
          "type": "address[]"
        },
        {
          "internalType": "address[]",
          "name": "executors",
          "type": "address[]"
        }
      ],
      "stateMutability": "nonpayable",
      "type": "constructor"
    },
    {
      "anonymous": false,
      "inputs": [
        {
          "indexed": true,
          "internalType": "bytes32",
          "name": "id",
          "type": "bytes32"
        },
        {
          "indexed": true,
          "internalType": "uint256",
          "name": "index",
          "type": "uint256"
        },
        {
          "indexed": false,
          "internalType": "address",
          "name": "target",
          "type": "address"
        },
        {
          "indexed": false,
          "internalType": "uint256",
          "name": "value",
          "type": "uint256"
        },
        {
          "indexed": false,
          "internalType": "bytes",
          "name": "data",
          "type": "bytes"
        }
      ],
      "name": "CallExecuted",
      "type": "event"
    },
    {
      "anonymous": false,
      "inputs": [
        {
          "indexed": true,
          "internalType": "bytes32",
          "name": "id",
          "type": "bytes32"
        },
        {
          "indexed": true,
          "internalType": "uint256",
          "name": "index",
          "type": "uint256"
        },
        {
          "indexed": false,
          "internalType": "address",
          "name": "target",
          "type": "address"
        },
        {
          "indexed": false,
          "internalType": "uint256",
          "name": "value",
          "type": "uint256"
        },
        {
          "indexed": false,
          "internalType": "bytes",
          "name": "data",
          "type": "bytes"
        },
        {
          "indexed": false,
          "internalType": "bytes32",
          "name": "predecessor",
          "type": "bytes32"
        },
        {
          "indexed": false,
          "internalType": "uint256",
          "name": "delay",
          "type": "uint256"
        }
      ],
      "name": "CallScheduled",
      "type": "event"
    },
    {
      "anonymous": false,
      "inputs": [
        {
          "indexed": true,
          "internalType": "bytes32",
          "name": "id",
          "type": "bytes32"
        }
      ],
      "name": "Cancelled",
      "type": "event"
    },
    {
      "anonymous": false,
      "inputs": [
        {
          "indexed": false,
          "internalType": "uint256",
          "name": "oldDuration",
          "type": "uint256"
        },
        {
          "indexed": false,
          "internalType": "uint256",
          "name": "newDuration",
          "type": "uint256"
        }
      ],
      "name": "MinDelayChange",
      "type": "event"
    },
    {
      "anonymous": false,
      "inputs": [
        {
          "indexed": true,
          "internalType": "bytes32",
          "name": "role",
          "type": "bytes32"
        },
        {
          "indexed": true,
          "internalType": "bytes32",
          "name": "previousAdminRole",
          "type": "bytes32"
        },
        {
          "indexed": true,
          "internalType": "bytes32",
          "name": "newAdminRole",
          "type": "bytes32"
        }
      ],
      "name": "RoleAdminChanged",
      "type": "event"
    },
    {
      "anonymous": false,
      "inputs": [
        {
          "indexed": true,
          "internalType": "bytes32",
          "name": "role",
          "type": "bytes32"
        },
        {
          "indexed": true,
          "internalType": "address",
          "name": "account",
          "type": "address"
        },
        {
          "indexed": true,
          "internalType": "address",
          "name": "sender",
          "type": "address"
        }
      ],
      "name": "RoleGranted",
      "type": "event"
    },
    {
      "anonymous": false,
      "inputs": [
        {
          "indexed": true,
          "internalType": "bytes32",
          "name": "role",
          "type": "bytes32"
        },
        {
          "indexed": true,
          "internalType": "address",
          "name": "account",
          "type": "address"
        },
        {
          "indexed": true,
          "internalType": "address",
          "name": "sender",
          "type": "address"
        }
      ],
      "name": "RoleRevoked",
      "type": "event"
    },
    {
      "inputs": [],
      "name": "DEFAULT_ADMIN_ROLE",
      "outputs": [
        {
          "internalType": "bytes32",
          "name": "",
          "type": "bytes32"
        }
      ],
      "stateMutability": "view",
      "type": "function"
    },
    {
      "inputs": [],
      "name": "EXECUTOR_ROLE",
      "outputs": [
        {
          "internalType": "bytes32",
          "name": "",
          "type": "bytes32"
        }
      ],
      "stateMutability": "view",
      "type": "function"
    },
    {
      "inputs": [],
      "name": "PROPOSER_ROLE",
      "outputs": [
        {
          "internalType": "bytes32",
          "name": "",
          "type": "bytes32"
        }
      ],
      "stateMutability": "view",
      "type": "function"
    },
    {
      "inputs": [],
      "name": "TIMELOCK_ADMIN_ROLE",
      "outputs": [
        {
          "internalType": "bytes32",
          "name": "",
          "type": "bytes32"
        }
      ],
      "stateMutability": "view",
      "type": "function"
    },
    {
      "inputs": [
        {
          "internalType": "bytes32",
          "name": "id",
          "type": "bytes32"
        }
      ],
      "name": "cancel",
      "outputs": [],
      "stateMutability": "nonpayable",
      "type": "function"
    },
    {
      "inputs": [
        {
          "internalType": "address",
          "name": "target",
          "type": "address"
        },
        {
          "internalType": "uint256",
          "name": "value",
          "type": "uint256"
        },
        {
          "internalType": "bytes",
          "name": "data",
          "type": "bytes"
        },
        {
          "internalType": "bytes32",
          "name": "predecessor",
          "type": "bytes32"
        },
        {
          "internalType": "bytes32",
          "name": "salt",
          "type": "bytes32"
        }
      ],
      "name": "execute",
      "outputs": [],
      "stateMutability": "payable",
      "type": "function"
    },
    {
      "inputs": [
        {
          "internalType": "address[]",
          "name": "targets",
          "type": "address[]"
        },
        {
          "internalType": "uint256[]",
          "name": "values",
          "type": "uint256[]"
        },
        {
          "internalType": "bytes[]",
          "name": "datas",
          "type": "bytes[]"
        },
        {
          "internalType": "bytes32",
          "name": "predecessor",
          "type": "bytes32"
        },
        {
          "internalType": "bytes32",
          "name": "salt",
          "type": "bytes32"
        }
      ],
      "name": "executeBatch",
      "outputs": [],
      "stateMutability": "payable",
      "type": "function"
    },
    {
      "inputs": [],
      "name": "getMinDelay",
      "outputs": [
        {
          "internalType": "uint256",
          "name": "duration",
          "type": "uint256"
        }
      ],
      "stateMutability": "view",
      "type": "function"
    },
    {
      "inputs": [
        {
          "internalType": "bytes32",
          "name": "role",
          "type": "bytes32"
        }
      ],
      "name": "getRoleAdmin",
      "outputs": [
        {
          "internalType": "bytes32",
          "name": "",
          "type": "bytes32"
        }
      ],
      "stateMutability": "view",
      "type": "function"
    },
    {
      "inputs": [
        {
          "internalType": "bytes32",
          "name": "role",
          "type": "bytes32"
        },
        {
          "internalType": "uint256",
          "name": "index",
          "type": "uint256"
        }
      ],
      "name": "getRoleMember",
      "outputs": [
        {
          "internalType": "address",
          "name": "",
          "type": "address"
        }
      ],
      "stateMutability": "view",
      "type": "function"
    },
    {
      "inputs": [
        {
          "internalType": "bytes32",
          "name": "role",
          "type": "bytes32"
        }
      ],
      "name": "getRoleMemberCount",
      "outputs": [
        {
          "internalType": "uint256",
          "name": "",
          "type": "uint256"
        }
      ],
      "stateMutability": "view",
      "type": "function"
    },
    {
      "inputs": [
        {
          "internalType": "bytes32",
          "name": "id",
          "type": "bytes32"
        }
      ],
      "name": "getTimestamp",
      "outputs": [
        {
          "internalType": "uint256",
          "name": "timestamp",
          "type": "uint256"
        }
      ],
      "stateMutability": "view",
      "type": "function"
    },
    {
      "inputs": [
        {
          "internalType": "bytes32",
          "name": "role",
          "type": "bytes32"
        },
        {
          "internalType": "address",
          "name": "account",
          "type": "address"
        }
      ],
      "name": "grantRole",
      "outputs": [],
      "stateMutability": "nonpayable",
      "type": "function"
    },
    {
      "inputs": [
        {
          "internalType": "bytes32",
          "name": "role",
          "type": "bytes32"
        },
        {
          "internalType": "address",
          "name": "account",
          "type": "address"
        }
      ],
      "name": "hasRole",
      "outputs": [
        {
          "internalType": "bool",
          "name": "",
          "type": "bool"
        }
      ],
      "stateMutability": "view",
      "type": "function"
    },
    {
      "inputs": [
        {
          "internalType": "address",
          "name": "target",
          "type": "address"
        },
        {
          "internalType": "uint256",
          "name": "value",
          "type": "uint256"
        },
        {
          "internalType": "bytes",
          "name": "data",
          "type": "bytes"
        },
        {
          "internalType": "bytes32",
          "name": "predecessor",
          "type": "bytes32"
        },
        {
          "internalType": "bytes32",
          "name": "salt",
          "type": "bytes32"
        }
      ],
      "name": "hashOperation",
      "outputs": [
        {
          "internalType": "bytes32",
          "name": "hash",
          "type": "bytes32"
        }
      ],
      "stateMutability": "pure",
      "type": "function"
    },
    {
      "inputs": [
        {
          "internalType": "address[]",
          "name": "targets",
          "type": "address[]"
        },
        {
          "internalType": "uint256[]",
          "name": "values",
          "type": "uint256[]"
        },
        {
          "internalType": "bytes[]",
          "name": "datas",
          "type": "bytes[]"
        },
        {
          "internalType": "bytes32",
          "name": "predecessor",
          "type": "bytes32"
        },
        {
          "internalType": "bytes32",
          "name": "salt",
          "type": "bytes32"
        }
      ],
      "name": "hashOperationBatch",
      "outputs": [
        {
          "internalType": "bytes32",
          "name": "hash",
          "type": "bytes32"
        }
      ],
      "stateMutability": "pure",
      "type": "function"
    },
    {
      "inputs": [
        {
          "internalType": "bytes32",
          "name": "id",
          "type": "bytes32"
        }
      ],
      "name": "isOperation",
      "outputs": [
        {
          "internalType": "bool",
          "name": "pending",
          "type": "bool"
        }
      ],
      "stateMutability": "view",
      "type": "function"
    },
    {
      "inputs": [
        {
          "internalType": "bytes32",
          "name": "id",
          "type": "bytes32"
        }
      ],
      "name": "isOperationDone",
      "outputs": [
        {
          "internalType": "bool",
          "name": "done",
          "type": "bool"
        }
      ],
      "stateMutability": "view",
      "type": "function"
    },
    {
      "inputs": [
        {
          "internalType": "bytes32",
          "name": "id",
          "type": "bytes32"
        }
      ],
      "name": "isOperationPending",
      "outputs": [
        {
          "internalType": "bool",
          "name": "pending",
          "type": "bool"
        }
      ],
      "stateMutability": "view",
      "type": "function"
    },
    {
      "inputs": [
        {
          "internalType": "bytes32",
          "name": "id",
          "type": "bytes32"
        }
      ],
      "name": "isOperationReady",
      "outputs": [
        {
          "internalType": "bool",
          "name": "ready",
          "type": "bool"
        }
      ],
      "stateMutability": "view",
      "type": "function"
    },
    {
      "inputs": [
        {
          "internalType": "bytes32",
          "name": "role",
          "type": "bytes32"
        },
        {
          "internalType": "address",
          "name": "account",
          "type": "address"
        }
      ],
      "name": "renounceRole",
      "outputs": [],
      "stateMutability": "nonpayable",
      "type": "function"
    },
    {
      "inputs": [
        {
          "internalType": "bytes32",
          "name": "role",
          "type": "bytes32"
        },
        {
          "internalType": "address",
          "name": "account",
          "type": "address"
        }
      ],
      "name": "revokeRole",
      "outputs": [],
      "stateMutability": "nonpayable",
      "type": "function"
    },
    {
      "inputs": [
        {
          "internalType": "address",
          "name": "target",
          "type": "address"
        },
        {
          "internalType": "uint256",
          "name": "value",
          "type": "uint256"
        },
        {
          "internalType": "bytes",
          "name": "data",
          "type": "bytes"
        },
        {
          "internalType": "bytes32",
          "name": "predecessor",
          "type": "bytes32"
        },
        {
          "internalType": "bytes32",
          "name": "salt",
          "type": "bytes32"
        },
        {
          "internalType": "uint256",
          "name": "delay",
          "type": "uint256"
        }
      ],
      "name": "schedule",
      "outputs": [],
      "stateMutability": "nonpayable",
      "type": "function"
    },
    {
      "inputs": [
        {
          "internalType": "address[]",
          "name": "targets",
          "type": "address[]"
        },
        {
          "internalType": "uint256[]",
          "name": "values",
          "type": "uint256[]"
        },
        {
          "internalType": "bytes[]",
          "name": "datas",
          "type": "bytes[]"
        },
        {
          "internalType": "bytes32",
          "name": "predecessor",
          "type": "bytes32"
        },
        {
          "internalType": "bytes32",
          "name": "salt",
          "type": "bytes32"
        },
        {
          "internalType": "uint256",
          "name": "delay",
          "type": "uint256"
        }
      ],
      "name": "scheduleBatch",
      "outputs": [],
      "stateMutability": "nonpayable",
      "type": "function"
    },
    {
      "inputs": [
        {
          "internalType": "uint256",
          "name": "newDelay",
          "type": "uint256"
        }
      ],
      "name": "updateDelay",
      "outputs": [],
      "stateMutability": "nonpayable",
      "type": "function"
    },
    {
      "stateMutability": "payable",
      "type": "receive"
    }
  ],
  "bytecode": "0x60806040523480156200001157600080fd5b5060405162003699380380620036998339818101604052810190620000379190620005be565b620000697f5f58e3a2316349923ce3780f8d587db2d72378aed66a8261c916544fa6846ca580620002f660201b60201c565b620000bb7fb09aa5aeb3702cfd50b6b62bc4532604938f21248a27a1d5ca736082b6819cc17f5f58e3a2316349923ce3780f8d587db2d72378aed66a8261c916544fa6846ca5620002f660201b60201c565b6200010d7fd8aa0f3194971a2a116679f7c2090f6939c8d4e01a2a8d7e41d55e5351469e637f5f58e3a2316349923ce3780f8d587db2d72378aed66a8261c916544fa6846ca5620002f660201b60201c565b6200014e7f5f58e3a2316349923ce3780f8d587db2d72378aed66a8261c916544fa6846ca5620001426200035860201b60201c565b6200036060201b60201c565b620001807f5f58e3a2316349923ce3780f8d587db2d72378aed66a8261c916544fa6846ca5306200036060201b60201c565b60005b82518110156200021457620002007fb09aa5aeb3702cfd50b6b62bc4532604938f21248a27a1d5ca736082b6819cc1848381518110620001ec577f4e487b7100000000000000000000000000000000000000000000000000000000600052603260045260246000fd5b60200260200101516200036060201b60201c565b806200020c9062000775565b905062000183565b5060005b8151811015620002a957620002957fd8aa0f3194971a2a116679f7c2090f6939c8d4e01a2a8d7e41d55e5351469e6383838151811062000281577f4e487b7100000000000000000000000000000000000000000000000000000000600052603260045260246000fd5b60200260200101516200036060201b60201c565b80620002a19062000775565b905062000218565b50826002819055507f11c24f4ead16507c69ac467fbd5e4eed5fb5c699626d2cc6d66421df253886d5600084604051620002e592919062000668565b60405180910390a150505062000866565b8060008084815260200190815260200160002060020154837fbd79b86ffe0ab8e8776151514217cd7cacd52c909f66475c3af44e129f0b00ff60405160405180910390a480600080848152602001908152602001600020600201819055505050565b600033905090565b6200037282826200037660201b60201c565b5050565b620003a4816000808581526020019081526020016000206000016200041960201b620012071790919060201c565b156200041557620003ba6200035860201b60201c565b73ffffffffffffffffffffffffffffffffffffffff168173ffffffffffffffffffffffffffffffffffffffff16837f2f8788117e7eff1d82e926ec794901d17c78024a50270940304540a733656f0d60405160405180910390a45b5050565b600062000449836000018373ffffffffffffffffffffffffffffffffffffffff1660001b6200045160201b60201c565b905092915050565b6000620004658383620004cb60201b60201c565b620004c0578260000182908060018154018082558091505060019003906000526020600020016000909190919091505582600001805490508360010160008481526020019081526020016000208190555060019050620004c5565b600090505b92915050565b600080836001016000848152602001908152602001600020541415905092915050565b600062000505620004ff84620006be565b62000695565b905080838252602082019050828560208602820111156200052557600080fd5b60005b858110156200055957816200053e888262000563565b84526020840193506020830192505060018101905062000528565b5050509392505050565b600081519050620005748162000832565b92915050565b600082601f8301126200058c57600080fd5b81516200059e848260208601620004ee565b91505092915050565b600081519050620005b8816200084c565b92915050565b600080600060608486031215620005d457600080fd5b6000620005e486828701620005a7565b935050602084015167ffffffffffffffff8111156200060257600080fd5b62000610868287016200057a565b925050604084015167ffffffffffffffff8111156200062e57600080fd5b6200063c868287016200057a565b9150509250925092565b62000651816200072b565b82525050565b620006628162000721565b82525050565b60006040820190506200067f600083018562000646565b6200068e602083018462000657565b9392505050565b6000620006a1620006b4565b9050620006af82826200073f565b919050565b6000604051905090565b600067ffffffffffffffff821115620006dc57620006db620007f2565b5b602082029050602081019050919050565b6000620006fa8262000701565b9050919050565b600073ffffffffffffffffffffffffffffffffffffffff82169050919050565b6000819050919050565b6000620007388262000721565b9050919050565b6200074a8262000821565b810181811067ffffffffffffffff821117156200076c576200076b620007f2565b5b80604052505050565b6000620007828262000721565b91507fffffffffffffffffffffffffffffffffffffffffffffffffffffffffffffffff821415620007b857620007b7620007c3565b5b600182019050919050565b7f4e487b7100000000000000000000000000000000000000000000000000000000600052601160045260246000fd5b7f4e487b7100000000000000000000000000000000000000000000000000000000600052604160045260246000fd5b6000601f19601f8301169050919050565b6200083d81620006ed565b81146200084957600080fd5b50565b620008578162000721565b81146200086357600080fd5b50565b612e2380620008766000396000f3fe60806040526004361061016a5760003560e01c80638065657f116100d1578063b1c5f4271161008a578063d45c443511610064578063d45c443514610596578063d547741f146105d3578063e38335e5146105fc578063f27a0c921461061857610171565b8063b1c5f427146104f3578063c4d252f514610530578063ca15c8731461055957610171565b80638065657f146103bd5780638f2a0bb0146103fa5780638f61f4f5146104235780639010d07c1461044e57806391d148541461048b578063a217fddf146104c857610171565b80632ab0f529116101235780632ab0f5291461028b5780632f2ff15d146102c857806331d50750146102f157806336568abe1461032e578063584b153e1461035757806364d623531461039457610171565b806301d5062a1461017657806307bd02651461019f5780630d3cf6fc146101ca578063134008d3146101f557806313bc9f2014610211578063248a9ca31461024e57610171565b3661017157005b600080fd5b34801561018257600080fd5b5061019d60048036038101906101989190611ba7565b610643565b005b3480156101ab57600080fd5b506101b4610731565b6040516101c19190612485565b60405180910390f35b3480156101d657600080fd5b506101df610755565b6040516101ec9190612485565b60405180910390f35b61020f600480360381019061020a9190611b15565b610779565b005b34801561021d57600080fd5b5061023860048036038101906102339190611df9565b610839565b604051610245919061246a565b60405180910390f35b34801561025a57600080fd5b5061027560048036038101906102709190611df9565b61085f565b6040516102829190612485565b60405180910390f35b34801561029757600080fd5b506102b260048036038101906102ad9190611df9565b61087e565b6040516102bf919061246a565b60405180910390f35b3480156102d457600080fd5b506102ef60048036038101906102ea9190611e22565b610893565b005b3480156102fd57600080fd5b5061031860048036038101906103139190611df9565b610906565b604051610325919061246a565b60405180910390f35b34801561033a57600080fd5b5061035560048036038101906103509190611e22565b61091a565b005b34801561036357600080fd5b5061037e60048036038101906103799190611df9565b61099d565b60405161038b919061246a565b60405180910390f35b3480156103a057600080fd5b506103bb60048036038101906103b69190611e9a565b6109b2565b005b3480156103c957600080fd5b506103e460048036038101906103df9190611b15565b610a65565b6040516103f19190612485565b60405180910390f35b34801561040657600080fd5b50610421600480360381019061041c9190611d1a565b610aa4565b005b34801561042f57600080fd5b50610438610d1a565b6040516104459190612485565b60405180910390f35b34801561045a57600080fd5b5061047560048036038101906104709190611e5e565b610d3e565b60405161048291906122e9565b60405180910390f35b34801561049757600080fd5b506104b260048036038101906104ad9190611e22565b610d6f565b6040516104bf919061246a565b60405180910390f35b3480156104d457600080fd5b506104dd610da0565b6040516104ea9190612485565b60405180910390f35b3480156104ff57600080fd5b5061051a60048036038101906105159190611c4e565b610da7565b6040516105279190612485565b60405180910390f35b34801561053c57600080fd5b5061055760048036038101906105529190611df9565b610dec565b005b34801561056557600080fd5b50610580600480360381019061057b9190611df9565b610eff565b60405161058d9190612660565b60405180910390f35b3480156105a257600080fd5b506105bd60048036038101906105b89190611df9565b610f25565b6040516105ca9190612660565b60405180910390f35b3480156105df57600080fd5b506105fa60048036038101906105f59190611e22565b610f42565b005b61061660048036038101906106119190611c4e565b610fb5565b005b34801561062457600080fd5b5061062d6111fd565b60405161063a9190612660565b60405180910390f35b7fb09aa5aeb3702cfd50b6b62bc4532604938f21248a27a1d5ca736082b6819cc161067581610670611237565b610d6f565b806106875750610686816000610d6f565b5b6106c6576040517f08c379a00000000000000000000000000000000000000000000000000000000081526004016106bd90612520565b60405180910390fd5b60006106d6898989898989610a65565b90506106e2818461123f565b6000817f4cf4410cc57040e44862ef0f45f3dd5a5e02db8eb8add648d4b0e236f1d07dca8b8b8b8b8b8a60405161071e969594939291906123a0565b60405180910390a3505050505050505050565b7fd8aa0f3194971a2a116679f7c2090f6939c8d4e01a2a8d7e41d55e5351469e6381565b7f5f58e3a2316349923ce3780f8d587db2d72378aed66a8261c916544fa6846ca581565b7fd8aa0f3194971a2a116679f7c2090f6939c8d4e01a2a8d7e41d55e5351469e636107ab816107a6611237565b610d6f565b806107bd57506107bc816000610d6f565b5b6107fc576040517f08c379a00000000000000000000000000000000000000000000000000000000081526004016107f390612520565b60405180910390fd5b600061080c888888888888610a65565b9050610817846112f7565b6108268160008a8a8a8a61134f565b61082f81611447565b5050505050505050565b60008061084583610f25565b90506001811180156108575750428111155b915050919050565b6000806000838152602001908152602001600020600201549050919050565b6000600161088b83610f25565b149050919050565b6108b9600080848152602001908152602001600020600201546108b4611237565b610d6f565b6108f8576040517f08c379a00000000000000000000000000000000000000000000000000000000081526004016108ef906124e0565b60405180910390fd5b61090282826114aa565b5050565b60008061091283610f25565b119050919050565b610922611237565b73ffffffffffffffffffffffffffffffffffffffff168173ffffffffffffffffffffffffffffffffffffffff161461098f576040517f08c379a000000000000000000000000000000000000000000000000000000000815260040161098690612620565b60405180910390fd5b610999828261153d565b5050565b600060016109aa83610f25565b119050919050565b3073ffffffffffffffffffffffffffffffffffffffff163373ffffffffffffffffffffffffffffffffffffffff1614610a20576040517f08c379a0000000000000000000000000000000000000000000000000000000008152600401610a1790612600565b60405180910390fd5b7f11c24f4ead16507c69ac467fbd5e4eed5fb5c699626d2cc6d66421df253886d560025482604051610a5392919061267b565b60405180910390a18060028190555050565b6000868686868686604051602001610a8296959493929190612344565b6040516020818303038152906040528051906020012090509695505050505050565b7fb09aa5aeb3702cfd50b6b62bc4532604938f21248a27a1d5ca736082b6819cc1610ad681610ad1611237565b610d6f565b80610ae85750610ae7816000610d6f565b5b610b27576040517f08c379a0000000000000000000000000000000000000000000000000000000008152600401610b1e90612520565b60405180910390fd5b878790508a8a905014610b6f576040517f08c379a0000000000000000000000000000000000000000000000000000000008152600401610b6690612500565b60405180910390fd5b858590508a8a905014610bb7576040517f08c379a0000000000000000000000000000000000000000000000000000000008152600401610bae90612500565b60405180910390fd5b6000610bc98b8b8b8b8b8b8b8b610da7565b9050610bd5818461123f565b60005b8b8b9050811015610d0c5780827f4cf4410cc57040e44862ef0f45f3dd5a5e02db8eb8add648d4b0e236f1d07dca8e8e85818110610c3f577f4e487b7100000000000000000000000000000000000000000000000000000000600052603260045260246000fd5b9050602002016020810190610c549190611aec565b8d8d86818110610c8d577f4e487b7100000000000000000000000000000000000000000000000000000000600052603260045260246000fd5b905060200201358c8c87818110610ccd577f4e487b7100000000000000000000000000000000000000000000000000000000600052603260045260246000fd5b9050602002810190610cdf91906126a4565b8c8b604051610cf3969594939291906123a0565b60405180910390a380610d05906128f3565b9050610bd8565b505050505050505050505050565b7fb09aa5aeb3702cfd50b6b62bc4532604938f21248a27a1d5ca736082b6819cc181565b6000610d67826000808681526020019081526020016000206000016115d090919063ffffffff16565b905092915050565b6000610d98826000808681526020019081526020016000206000016115ea90919063ffffffff16565b905092915050565b6000801b81565b60008888888888888888604051602001610dc89897969594939291906123fc565b60405160208183030381529060405280519060200120905098975050505050505050565b7fb09aa5aeb3702cfd50b6b62bc4532604938f21248a27a1d5ca736082b6819cc1610e1e81610e19611237565b610d6f565b80610e305750610e2f816000610d6f565b5b610e6f576040517f08c379a0000000000000000000000000000000000000000000000000000000008152600401610e6690612520565b60405180910390fd5b610e788261099d565b610eb7576040517f08c379a0000000000000000000000000000000000000000000000000000000008152600401610eae906125e0565b60405180910390fd5b6001600083815260200190815260200160002060009055817fbaa1eb22f2a492ba1a5fea61b8df4d27c6c8b5f3971e63bb58fa14ff72eedb7060405160405180910390a25050565b6000610f1e60008084815260200190815260200160002060000161161a565b9050919050565b600060016000838152602001908152602001600020549050919050565b610f6860008084815260200190815260200160002060020154610f63611237565b610d6f565b610fa7576040517f08c379a0000000000000000000000000000000000000000000000000000000008152600401610f9e90612560565b60405180910390fd5b610fb1828261153d565b5050565b7fd8aa0f3194971a2a116679f7c2090f6939c8d4e01a2a8d7e41d55e5351469e63610fe781610fe2611237565b610d6f565b80610ff95750610ff8816000610d6f565b5b611038576040517f08c379a000000000000000000000000000000000000000000000000000000000815260040161102f90612520565b60405180910390fd5b868690508989905014611080576040517f08c379a000000000000000000000000000000000000000000000000000000000815260040161107790612500565b60405180910390fd5b8484905089899050146110c8576040517f08c379a00000000000000000000000000000000000000000000000000000000081526004016110bf90612500565b60405180910390fd5b60006110da8a8a8a8a8a8a8a8a610da7565b90506110e5846112f7565b60005b8a8a90508110156111e7576111d682828d8d85818110611131577f4e487b7100000000000000000000000000000000000000000000000000000000600052603260045260246000fd5b90506020020160208101906111469190611aec565b8c8c8681811061117f577f4e487b7100000000000000000000000000000000000000000000000000000000600052603260045260246000fd5b905060200201358b8b878181106111bf577f4e487b7100000000000000000000000000000000000000000000000000000000600052603260045260246000fd5b90506020028101906111d191906126a4565b61134f565b806111e0906128f3565b90506110e8565b506111f181611447565b50505050505050505050565b6000600254905090565b600061122f836000018373ffffffffffffffffffffffffffffffffffffffff1660001b61162f565b905092915050565b600033905090565b61124882610906565b15611288576040517f08c379a000000000000000000000000000000000000000000000000000000000815260040161127f906125a0565b60405180910390fd5b6112906111fd565b8110156112d2576040517f08c379a00000000000000000000000000000000000000000000000000000000081526004016112c990612580565b60405180910390fd5b6112dc428261169f565b60016000848152602001908152602001600020819055505050565b6000801b81148061130d575061130c8161087e565b5b61134c576040517f08c379a0000000000000000000000000000000000000000000000000000000008152600401611343906124c0565b60405180910390fd5b50565b60008473ffffffffffffffffffffffffffffffffffffffff168484846040516113799291906122d0565b60006040518083038185875af1925050503d80600081146113b6576040519150601f19603f3d011682016040523d82523d6000602084013e6113bb565b606091505b50509050806113ff576040517f08c379a00000000000000000000000000000000000000000000000000000000081526004016113f690612640565b60405180910390fd5b85877fc2617efa69bab66782fa219543714338489c4e9e178271560a91b82c3f612b58878787876040516114369493929190612304565b60405180910390a350505050505050565b61145081610839565b61148f576040517f08c379a0000000000000000000000000000000000000000000000000000000008152600401611486906125c0565b60405180910390fd5b60018060008381526020019081526020016000208190555050565b6114d18160008085815260200190815260200160002060000161120790919063ffffffff16565b15611539576114de611237565b73ffffffffffffffffffffffffffffffffffffffff168173ffffffffffffffffffffffffffffffffffffffff16837f2f8788117e7eff1d82e926ec794901d17c78024a50270940304540a733656f0d60405160405180910390a45b5050565b611564816000808581526020019081526020016000206000016116fd90919063ffffffff16565b156115cc57611571611237565b73ffffffffffffffffffffffffffffffffffffffff168173ffffffffffffffffffffffffffffffffffffffff16837ff6391f5c32d9c69d2a47ea670b442974b53935d1edc7fd64eb21e047a839171b60405160405180910390a45b5050565b60006115df836000018361172d565b60001c905092915050565b6000611612836000018373ffffffffffffffffffffffffffffffffffffffff1660001b6117c7565b905092915050565b6000611628826000016117ea565b9050919050565b600061163b83836117c7565b611694578260000182908060018154018082558091505060019003906000526020600020016000909190919091505582600001805490508360010160008481526020019081526020016000208190555060019050611699565b600090505b92915050565b60008082846116ae9190612808565b9050838110156116f3576040517f08c379a00000000000000000000000000000000000000000000000000000000081526004016116ea90612540565b60405180910390fd5b8091505092915050565b6000611725836000018373ffffffffffffffffffffffffffffffffffffffff1660001b6117fb565b905092915050565b600081836000018054905011611778576040517f08c379a000000000000000000000000000000000000000000000000000000000815260040161176f906124a0565b60405180910390fd5b8260000182815481106117b4577f4e487b7100000000000000000000000000000000000000000000000000000000600052603260045260246000fd5b9060005260206000200154905092915050565b600080836001016000848152602001908152602001600020541415905092915050565b600081600001805490509050919050565b6000808360010160008481526020019081526020016000205490506000811461197957600060018261182d919061285e565b9050600060018660000180549050611845919061285e565b90506000866000018281548110611885577f4e487b7100000000000000000000000000000000000000000000000000000000600052603260045260246000fd5b90600052602060002001549050808760000184815481106118cf577f4e487b7100000000000000000000000000000000000000000000000000000000600052603260045260246000fd5b90600052602060002001819055506001836118ea9190612808565b876001016000838152602001908152602001600020819055508660000180548061193d577f4e487b7100000000000000000000000000000000000000000000000000000000600052603160045260246000fd5b6001900381819060005260206000200160009055905586600101600087815260200190815260200160002060009055600194505050505061197f565b60009150505b92915050565b60008135905061199481612da8565b92915050565b60008083601f8401126119ac57600080fd5b8235905067ffffffffffffffff8111156119c557600080fd5b6020830191508360208202830111156119dd57600080fd5b9250929050565b60008083601f8401126119f657600080fd5b8235905067ffffffffffffffff811115611a0f57600080fd5b602083019150836020820283011115611a2757600080fd5b9250929050565b60008083601f840112611a4057600080fd5b8235905067ffffffffffffffff811115611a5957600080fd5b602083019150836020820283011115611a7157600080fd5b9250929050565b600081359050611a8781612dbf565b92915050565b60008083601f840112611a9f57600080fd5b8235905067ffffffffffffffff811115611ab857600080fd5b602083019150836001820283011115611ad057600080fd5b9250929050565b600081359050611ae681612dd6565b92915050565b600060208284031215611afe57600080fd5b6000611b0c84828501611985565b91505092915050565b60008060008060008060a08789031215611b2e57600080fd5b6000611b3c89828a01611985565b9650506020611b4d89828a01611ad7565b955050604087013567ffffffffffffffff811115611b6a57600080fd5b611b7689828a01611a8d565b94509450506060611b8989828a01611a78565b9250506080611b9a89828a01611a78565b9150509295509295509295565b600080600080600080600060c0888a031215611bc257600080fd5b6000611bd08a828b01611985565b9750506020611be18a828b01611ad7565b965050604088013567ffffffffffffffff811115611bfe57600080fd5b611c0a8a828b01611a8d565b95509550506060611c1d8a828b01611a78565b9350506080611c2e8a828b01611a78565b92505060a0611c3f8a828b01611ad7565b91505092959891949750929550565b60008060008060008060008060a0898b031215611c6a57600080fd5b600089013567ffffffffffffffff811115611c8457600080fd5b611c908b828c0161199a565b9850985050602089013567ffffffffffffffff811115611caf57600080fd5b611cbb8b828c01611a2e565b9650965050604089013567ffffffffffffffff811115611cda57600080fd5b611ce68b828c016119e4565b94509450506060611cf98b828c01611a78565b9250506080611d0a8b828c01611a78565b9150509295985092959890939650565b600080600080600080600080600060c08a8c031215611d3857600080fd5b60008a013567ffffffffffffffff811115611d5257600080fd5b611d5e8c828d0161199a565b995099505060208a013567ffffffffffffffff811115611d7d57600080fd5b611d898c828d01611a2e565b975097505060408a013567ffffffffffffffff811115611da857600080fd5b611db48c828d016119e4565b95509550506060611dc78c828d01611a78565b9350506080611dd88c828d01611a78565b92505060a0611de98c828d01611ad7565b9150509295985092959850929598565b600060208284031215611e0b57600080fd5b6000611e1984828501611a78565b91505092915050565b60008060408385031215611e3557600080fd5b6000611e4385828601611a78565b9250506020611e5485828601611985565b9150509250929050565b60008060408385031215611e7157600080fd5b6000611e7f85828601611a78565b9250506020611e9085828601611ad7565b9150509250929050565b600060208284031215611eac57600080fd5b6000611eba84828501611ad7565b91505092915050565b6000611ecf8383611ef1565b60208301905092915050565b6000611ee8848484612058565b90509392505050565b611efa81612892565b82525050565b611f0981612892565b82525050565b6000611f1b8385612729565b9350611f26826126fb565b8060005b85811015611f5f57611f3c828461279a565b611f468882611ec3565b9750611f518361270f565b925050600181019050611f2a565b5085925050509392505050565b6000611f78838561273a565b935083602084028501611f8a84612705565b8060005b87811015611fd0578484038952611fa582846127b1565b611fb0868284611edb565b9550611fbb8461271c565b935060208b019a505050600181019050611f8e565b50829750879450505050509392505050565b6000611fee838561274b565b93507f07ffffffffffffffffffffffffffffffffffffffffffffffffffffffffffffff83111561201d57600080fd5b60208302925061202e8385846128e4565b82840190509392505050565b612043816128a4565b82525050565b612052816128b0565b82525050565b6000612064838561275c565b93506120718385846128e4565b61207a8361296b565b840190509392505050565b6000612091838561276d565b935061209e8385846128e4565b6120a78361296b565b840190509392505050565b60006120be838561277e565b93506120cb8385846128e4565b82840190509392505050565b60006120e4602283612789565b91506120ef8261297c565b604082019050919050565b6000612107602683612789565b9150612112826129cb565b604082019050919050565b600061212a602f83612789565b915061213582612a1a565b604082019050919050565b600061214d602383612789565b915061215882612a69565b604082019050919050565b6000612170602e83612789565b915061217b82612ab8565b604082019050919050565b6000612193601b83612789565b915061219e82612b07565b602082019050919050565b60006121b6603083612789565b91506121c182612b30565b604082019050919050565b60006121d9602683612789565b91506121e482612b7f565b604082019050919050565b60006121fc602f83612789565b915061220782612bce565b604082019050919050565b600061221f602a83612789565b915061222a82612c1d565b604082019050919050565b6000612242603183612789565b915061224d82612c6c565b604082019050919050565b6000612265602b83612789565b915061227082612cbb565b604082019050919050565b6000612288602f83612789565b915061229382612d0a565b604082019050919050565b60006122ab603383612789565b91506122b682612d59565b604082019050919050565b6122ca816128da565b82525050565b60006122dd8284866120b2565b91508190509392505050565b60006020820190506122fe6000830184611f00565b92915050565b60006060820190506123196000830187611f00565b61232660208301866122c1565b8181036040830152612339818486612085565b905095945050505050565b600060a0820190506123596000830189611f00565b61236660208301886122c1565b8181036040830152612379818688612085565b90506123886060830185612049565b6123956080830184612049565b979650505050505050565b600060a0820190506123b56000830189611f00565b6123c260208301886122c1565b81810360408301526123d5818688612085565b90506123e46060830185612049565b6123f160808301846122c1565b979650505050505050565b600060a0820190508181036000830152612417818a8c611f0f565b9050818103602083015261242c81888a611fe2565b90508181036040830152612441818688611f6c565b90506124506060830185612049565b61245d6080830184612049565b9998505050505050505050565b600060208201905061247f600083018461203a565b92915050565b600060208201905061249a6000830184612049565b92915050565b600060208201905081810360008301526124b9816120d7565b9050919050565b600060208201905081810360008301526124d9816120fa565b9050919050565b600060208201905081810360008301526124f98161211d565b9050919050565b6000602082019050818103600083015261251981612140565b9050919050565b6000602082019050818103600083015261253981612163565b9050919050565b6000602082019050818103600083015261255981612186565b9050919050565b60006020820190508181036000830152612579816121a9565b9050919050565b60006020820190508181036000830152612599816121cc565b9050919050565b600060208201905081810360008301526125b9816121ef565b9050919050565b600060208201905081810360008301526125d981612212565b9050919050565b600060208201905081810360008301526125f981612235565b9050919050565b6000602082019050818103600083015261261981612258565b9050919050565b600060208201905081810360008301526126398161227b565b9050919050565b600060208201905081810360008301526126598161229e565b9050919050565b600060208201905061267560008301846122c1565b92915050565b600060408201905061269060008301856122c1565b61269d60208301846122c1565b9392505050565b600080833560016020038436030381126126bd57600080fd5b80840192508235915067ffffffffffffffff8211156126db57600080fd5b6020830192506001820236038313156126f357600080fd5b509250929050565b6000819050919050565b6000819050919050565b6000602082019050919050565b6000602082019050919050565b600082825260208201905092915050565b600082825260208201905092915050565b600082825260208201905092915050565b600082825260208201905092915050565b600082825260208201905092915050565b600081905092915050565b600082825260208201905092915050565b60006127a96020840184611985565b905092915050565b600080833560016020038436030381126127ca57600080fd5b83810192508235915060208301925067ffffffffffffffff8211156127ee57600080fd5b60018202360384131561280057600080fd5b509250929050565b6000612813826128da565b915061281e836128da565b9250827fffffffffffffffffffffffffffffffffffffffffffffffffffffffffffffffff038211156128535761285261293c565b5b828201905092915050565b6000612869826128da565b9150612874836128da565b9250828210156128875761288661293c565b5b828203905092915050565b600061289d826128ba565b9050919050565b60008115159050919050565b6000819050919050565b600073ffffffffffffffffffffffffffffffffffffffff82169050919050565b6000819050919050565b82818337600083830152505050565b60006128fe826128da565b91507fffffffffffffffffffffffffffffffffffffffffffffffffffffffffffffffff8214156129315761293061293c565b5b600182019050919050565b7f4e487b7100000000000000000000000000000000000000000000000000000000600052601160045260246000fd5b6000601f19601f8301169050919050565b7f456e756d657261626c655365743a20696e646578206f7574206f6620626f756e60008201527f6473000000000000000000000000000000000000000000000000000000000000602082015250565b7f54696d656c6f636b436f6e74726f6c6c65723a206d697373696e67206465706560008201527f6e64656e63790000000000000000000000000000000000000000000000000000602082015250565b7f416363657373436f6e74726f6c3a2073656e646572206d75737420626520616e60008201527f2061646d696e20746f206772616e740000000000000000000000000000000000602082015250565b7f54696d656c6f636b436f6e74726f6c6c65723a206c656e677468206d69736d6160008201527f7463680000000000000000000000000000000000000000000000000000000000602082015250565b7f54696d656c6f636b436f6e74726f6c6c65723a2073656e64657220726571756960008201527f726573207065726d697373696f6e000000000000000000000000000000000000602082015250565b7f536166654d6174683a206164646974696f6e206f766572666c6f770000000000600082015250565b7f416363657373436f6e74726f6c3a2073656e646572206d75737420626520616e60008201527f2061646d696e20746f207265766f6b6500000000000000000000000000000000602082015250565b7f54696d656c6f636b436f6e74726f6c6c65723a20696e73756666696369656e7460008201527f2064656c61790000000000000000000000000000000000000000000000000000602082015250565b7f54696d656c6f636b436f6e74726f6c6c65723a206f7065726174696f6e20616c60008201527f7265616479207363686564756c65640000000000000000000000000000000000602082015250565b7f54696d656c6f636b436f6e74726f6c6c65723a206f7065726174696f6e20697360008201527f206e6f7420726561647900000000000000000000000000000000000000000000602082015250565b7f54696d656c6f636b436f6e74726f6c6c65723a206f7065726174696f6e20636160008201527f6e6e6f742062652063616e63656c6c6564000000000000000000000000000000602082015250565b7f54696d656c6f636b436f6e74726f6c6c65723a2063616c6c6572206d7573742060008201527f62652074696d656c6f636b000000000000000000000000000000000000000000602082015250565b7f416363657373436f6e74726f6c3a2063616e206f6e6c792072656e6f756e636560008201527f20726f6c657320666f722073656c660000000000000000000000000000000000602082015250565b7f54696d656c6f636b436f6e74726f6c6c65723a20756e6465726c79696e67207460008201527f72616e73616374696f6e20726576657274656400000000000000000000000000602082015250565b612db181612892565b8114612dbc57600080fd5b50565b612dc8816128b0565b8114612dd357600080fd5b50565b612ddf816128da565b8114612dea57600080fd5b5056fea26469706673582212209263a6d3923531219ea92d639de4e1f565d75f5e66fbd8d10cad15782ebaeacd64736f6c63430008040033",
  "linkReferences": {},
  "deployedLinkReferences": {}
}