{
  "_format": "hh-sol-artifact-1",
  "contractName": "TimelockController",
  "sourceName": "contracts/OpenZeppelin/access/TimelockController.sol",
  "abi": [
    {
      "inputs": [
        {
          "internalType": "uint256",
          "name": "minDelay",
          "type": "uint256"
        },
        {
          "internalType": "address[]",
          "name": "proposers",
          "type": "address[]"
        },
        {
          "internalType": "address[]",
          "name": "executors",
          "type": "address[]"
        }
      ],
      "stateMutability": "nonpayable",
      "type": "constructor"
    },
    {
      "anonymous": false,
      "inputs": [
        {
          "indexed": true,
          "internalType": "bytes32",
          "name": "id",
          "type": "bytes32"
        },
        {
          "indexed": true,
          "internalType": "uint256",
          "name": "index",
          "type": "uint256"
        },
        {
          "indexed": false,
          "internalType": "address",
          "name": "target",
          "type": "address"
        },
        {
          "indexed": false,
          "internalType": "uint256",
          "name": "value",
          "type": "uint256"
        },
        {
          "indexed": false,
          "internalType": "bytes",
          "name": "data",
          "type": "bytes"
        }
      ],
      "name": "CallExecuted",
      "type": "event"
    },
    {
      "anonymous": false,
      "inputs": [
        {
          "indexed": true,
          "internalType": "bytes32",
          "name": "id",
          "type": "bytes32"
        },
        {
          "indexed": true,
          "internalType": "uint256",
          "name": "index",
          "type": "uint256"
        },
        {
          "indexed": false,
          "internalType": "address",
          "name": "target",
          "type": "address"
        },
        {
          "indexed": false,
          "internalType": "uint256",
          "name": "value",
          "type": "uint256"
        },
        {
          "indexed": false,
          "internalType": "bytes",
          "name": "data",
          "type": "bytes"
        },
        {
          "indexed": false,
          "internalType": "bytes32",
          "name": "predecessor",
          "type": "bytes32"
        },
        {
          "indexed": false,
          "internalType": "uint256",
          "name": "delay",
          "type": "uint256"
        }
      ],
      "name": "CallScheduled",
      "type": "event"
    },
    {
      "anonymous": false,
      "inputs": [
        {
          "indexed": true,
          "internalType": "bytes32",
          "name": "id",
          "type": "bytes32"
        }
      ],
      "name": "Cancelled",
      "type": "event"
    },
    {
      "anonymous": false,
      "inputs": [
        {
          "indexed": false,
          "internalType": "uint256",
          "name": "oldDuration",
          "type": "uint256"
        },
        {
          "indexed": false,
          "internalType": "uint256",
          "name": "newDuration",
          "type": "uint256"
        }
      ],
      "name": "MinDelayChange",
      "type": "event"
    },
    {
      "anonymous": false,
      "inputs": [
        {
          "indexed": true,
          "internalType": "bytes32",
          "name": "role",
          "type": "bytes32"
        },
        {
          "indexed": true,
          "internalType": "bytes32",
          "name": "previousAdminRole",
          "type": "bytes32"
        },
        {
          "indexed": true,
          "internalType": "bytes32",
          "name": "newAdminRole",
          "type": "bytes32"
        }
      ],
      "name": "RoleAdminChanged",
      "type": "event"
    },
    {
      "anonymous": false,
      "inputs": [
        {
          "indexed": true,
          "internalType": "bytes32",
          "name": "role",
          "type": "bytes32"
        },
        {
          "indexed": true,
          "internalType": "address",
          "name": "account",
          "type": "address"
        },
        {
          "indexed": true,
          "internalType": "address",
          "name": "sender",
          "type": "address"
        }
      ],
      "name": "RoleGranted",
      "type": "event"
    },
    {
      "anonymous": false,
      "inputs": [
        {
          "indexed": true,
          "internalType": "bytes32",
          "name": "role",
          "type": "bytes32"
        },
        {
          "indexed": true,
          "internalType": "address",
          "name": "account",
          "type": "address"
        },
        {
          "indexed": true,
          "internalType": "address",
          "name": "sender",
          "type": "address"
        }
      ],
      "name": "RoleRevoked",
      "type": "event"
    },
    {
      "inputs": [],
      "name": "DEFAULT_ADMIN_ROLE",
      "outputs": [
        {
          "internalType": "bytes32",
          "name": "",
          "type": "bytes32"
        }
      ],
      "stateMutability": "view",
      "type": "function"
    },
    {
      "inputs": [],
      "name": "EXECUTOR_ROLE",
      "outputs": [
        {
          "internalType": "bytes32",
          "name": "",
          "type": "bytes32"
        }
      ],
      "stateMutability": "view",
      "type": "function"
    },
    {
      "inputs": [],
      "name": "PROPOSER_ROLE",
      "outputs": [
        {
          "internalType": "bytes32",
          "name": "",
          "type": "bytes32"
        }
      ],
      "stateMutability": "view",
      "type": "function"
    },
    {
      "inputs": [],
      "name": "TIMELOCK_ADMIN_ROLE",
      "outputs": [
        {
          "internalType": "bytes32",
          "name": "",
          "type": "bytes32"
        }
      ],
      "stateMutability": "view",
      "type": "function"
    },
    {
      "inputs": [
        {
          "internalType": "bytes32",
          "name": "id",
          "type": "bytes32"
        }
      ],
      "name": "cancel",
      "outputs": [],
      "stateMutability": "nonpayable",
      "type": "function"
    },
    {
      "inputs": [
        {
          "internalType": "address",
          "name": "target",
          "type": "address"
        },
        {
          "internalType": "uint256",
          "name": "value",
          "type": "uint256"
        },
        {
          "internalType": "bytes",
          "name": "data",
          "type": "bytes"
        },
        {
          "internalType": "bytes32",
          "name": "predecessor",
          "type": "bytes32"
        },
        {
          "internalType": "bytes32",
          "name": "salt",
          "type": "bytes32"
        }
      ],
      "name": "execute",
      "outputs": [],
      "stateMutability": "payable",
      "type": "function"
    },
    {
      "inputs": [
        {
          "internalType": "address[]",
          "name": "targets",
          "type": "address[]"
        },
        {
          "internalType": "uint256[]",
          "name": "values",
          "type": "uint256[]"
        },
        {
          "internalType": "bytes[]",
          "name": "datas",
          "type": "bytes[]"
        },
        {
          "internalType": "bytes32",
          "name": "predecessor",
          "type": "bytes32"
        },
        {
          "internalType": "bytes32",
          "name": "salt",
          "type": "bytes32"
        }
      ],
      "name": "executeBatch",
      "outputs": [],
      "stateMutability": "payable",
      "type": "function"
    },
    {
      "inputs": [],
      "name": "getMinDelay",
      "outputs": [
        {
          "internalType": "uint256",
          "name": "duration",
          "type": "uint256"
        }
      ],
      "stateMutability": "view",
      "type": "function"
    },
    {
      "inputs": [
        {
          "internalType": "bytes32",
          "name": "role",
          "type": "bytes32"
        }
      ],
      "name": "getRoleAdmin",
      "outputs": [
        {
          "internalType": "bytes32",
          "name": "",
          "type": "bytes32"
        }
      ],
      "stateMutability": "view",
      "type": "function"
    },
    {
      "inputs": [
        {
          "internalType": "bytes32",
          "name": "role",
          "type": "bytes32"
        },
        {
          "internalType": "uint256",
          "name": "index",
          "type": "uint256"
        }
      ],
      "name": "getRoleMember",
      "outputs": [
        {
          "internalType": "address",
          "name": "",
          "type": "address"
        }
      ],
      "stateMutability": "view",
      "type": "function"
    },
    {
      "inputs": [
        {
          "internalType": "bytes32",
          "name": "role",
          "type": "bytes32"
        }
      ],
      "name": "getRoleMemberCount",
      "outputs": [
        {
          "internalType": "uint256",
          "name": "",
          "type": "uint256"
        }
      ],
      "stateMutability": "view",
      "type": "function"
    },
    {
      "inputs": [
        {
          "internalType": "bytes32",
          "name": "id",
          "type": "bytes32"
        }
      ],
      "name": "getTimestamp",
      "outputs": [
        {
          "internalType": "uint256",
          "name": "timestamp",
          "type": "uint256"
        }
      ],
      "stateMutability": "view",
      "type": "function"
    },
    {
      "inputs": [
        {
          "internalType": "bytes32",
          "name": "role",
          "type": "bytes32"
        },
        {
          "internalType": "address",
          "name": "account",
          "type": "address"
        }
      ],
      "name": "grantRole",
      "outputs": [],
      "stateMutability": "nonpayable",
      "type": "function"
    },
    {
      "inputs": [
        {
          "internalType": "bytes32",
          "name": "role",
          "type": "bytes32"
        },
        {
          "internalType": "address",
          "name": "account",
          "type": "address"
        }
      ],
      "name": "hasRole",
      "outputs": [
        {
          "internalType": "bool",
          "name": "",
          "type": "bool"
        }
      ],
      "stateMutability": "view",
      "type": "function"
    },
    {
      "inputs": [
        {
          "internalType": "address",
          "name": "target",
          "type": "address"
        },
        {
          "internalType": "uint256",
          "name": "value",
          "type": "uint256"
        },
        {
          "internalType": "bytes",
          "name": "data",
          "type": "bytes"
        },
        {
          "internalType": "bytes32",
          "name": "predecessor",
          "type": "bytes32"
        },
        {
          "internalType": "bytes32",
          "name": "salt",
          "type": "bytes32"
        }
      ],
      "name": "hashOperation",
      "outputs": [
        {
          "internalType": "bytes32",
          "name": "hash",
          "type": "bytes32"
        }
      ],
      "stateMutability": "pure",
      "type": "function"
    },
    {
      "inputs": [
        {
          "internalType": "address[]",
          "name": "targets",
          "type": "address[]"
        },
        {
          "internalType": "uint256[]",
          "name": "values",
          "type": "uint256[]"
        },
        {
          "internalType": "bytes[]",
          "name": "datas",
          "type": "bytes[]"
        },
        {
          "internalType": "bytes32",
          "name": "predecessor",
          "type": "bytes32"
        },
        {
          "internalType": "bytes32",
          "name": "salt",
          "type": "bytes32"
        }
      ],
      "name": "hashOperationBatch",
      "outputs": [
        {
          "internalType": "bytes32",
          "name": "hash",
          "type": "bytes32"
        }
      ],
      "stateMutability": "pure",
      "type": "function"
    },
    {
      "inputs": [
        {
          "internalType": "bytes32",
          "name": "id",
          "type": "bytes32"
        }
      ],
      "name": "isOperation",
      "outputs": [
        {
          "internalType": "bool",
          "name": "pending",
          "type": "bool"
        }
      ],
      "stateMutability": "view",
      "type": "function"
    },
    {
      "inputs": [
        {
          "internalType": "bytes32",
          "name": "id",
          "type": "bytes32"
        }
      ],
      "name": "isOperationDone",
      "outputs": [
        {
          "internalType": "bool",
          "name": "done",
          "type": "bool"
        }
      ],
      "stateMutability": "view",
      "type": "function"
    },
    {
      "inputs": [
        {
          "internalType": "bytes32",
          "name": "id",
          "type": "bytes32"
        }
      ],
      "name": "isOperationPending",
      "outputs": [
        {
          "internalType": "bool",
          "name": "pending",
          "type": "bool"
        }
      ],
      "stateMutability": "view",
      "type": "function"
    },
    {
      "inputs": [
        {
          "internalType": "bytes32",
          "name": "id",
          "type": "bytes32"
        }
      ],
      "name": "isOperationReady",
      "outputs": [
        {
          "internalType": "bool",
          "name": "ready",
          "type": "bool"
        }
      ],
      "stateMutability": "view",
      "type": "function"
    },
    {
      "inputs": [
        {
          "internalType": "bytes32",
          "name": "role",
          "type": "bytes32"
        },
        {
          "internalType": "address",
          "name": "account",
          "type": "address"
        }
      ],
      "name": "renounceRole",
      "outputs": [],
      "stateMutability": "nonpayable",
      "type": "function"
    },
    {
      "inputs": [
        {
          "internalType": "bytes32",
          "name": "role",
          "type": "bytes32"
        },
        {
          "internalType": "address",
          "name": "account",
          "type": "address"
        }
      ],
      "name": "revokeRole",
      "outputs": [],
      "stateMutability": "nonpayable",
      "type": "function"
    },
    {
      "inputs": [
        {
          "internalType": "address",
          "name": "target",
          "type": "address"
        },
        {
          "internalType": "uint256",
          "name": "value",
          "type": "uint256"
        },
        {
          "internalType": "bytes",
          "name": "data",
          "type": "bytes"
        },
        {
          "internalType": "bytes32",
          "name": "predecessor",
          "type": "bytes32"
        },
        {
          "internalType": "bytes32",
          "name": "salt",
          "type": "bytes32"
        },
        {
          "internalType": "uint256",
          "name": "delay",
          "type": "uint256"
        }
      ],
      "name": "schedule",
      "outputs": [],
      "stateMutability": "nonpayable",
      "type": "function"
    },
    {
      "inputs": [
        {
          "internalType": "address[]",
          "name": "targets",
          "type": "address[]"
        },
        {
          "internalType": "uint256[]",
          "name": "values",
          "type": "uint256[]"
        },
        {
          "internalType": "bytes[]",
          "name": "datas",
          "type": "bytes[]"
        },
        {
          "internalType": "bytes32",
          "name": "predecessor",
          "type": "bytes32"
        },
        {
          "internalType": "bytes32",
          "name": "salt",
          "type": "bytes32"
        },
        {
          "internalType": "uint256",
          "name": "delay",
          "type": "uint256"
        }
      ],
      "name": "scheduleBatch",
      "outputs": [],
      "stateMutability": "nonpayable",
      "type": "function"
    },
    {
      "inputs": [
        {
          "internalType": "uint256",
          "name": "newDelay",
          "type": "uint256"
        }
      ],
      "name": "updateDelay",
      "outputs": [],
      "stateMutability": "nonpayable",
      "type": "function"
    },
    {
      "stateMutability": "payable",
      "type": "receive"
    }
  ],
  "bytecode": "0x60806040523480156200001157600080fd5b50604051620022bf380380620022bf8339810160408190526200003491620003e9565b6200004f6000805160206200225f83398151915280620001e1565b620000796000805160206200227f8339815191526000805160206200225f833981519152620001e1565b620000a36000805160206200229f8339815191526000805160206200225f833981519152620001e1565b620000be6000805160206200225f8339815191523362000233565b620000d96000805160206200225f8339815191523062000233565b60005b825181101562000142576200012f6000805160206200227f8339815191528483815181106200011b57634e487b7160e01b600052603260045260246000fd5b60200260200101516200023360201b60201c565b6200013a816200045a565b9050620000dc565b5060005b81518110156200019857620001856000805160206200229f8339815191528383815181106200011b57634e487b7160e01b600052603260045260246000fd5b62000190816200045a565b905062000146565b5060028390556040805160008152602081018590527f11c24f4ead16507c69ac467fbd5e4eed5fb5c699626d2cc6d66421df253886d5910160405180910390a150505062000498565b600082815260208190526040808220600201549051839285917fbd79b86ffe0ab8e8776151514217cd7cacd52c909f66475c3af44e129f0b00ff9190a460009182526020829052604090912060020155565b6200023f828262000243565b5050565b60008281526020818152604090912062000268918390620010b3620002aa821b17901c565b156200023f5760405133906001600160a01b0383169084907f2f8788117e7eff1d82e926ec794901d17c78024a50270940304540a733656f0d90600090a45050565b6000620002c1836001600160a01b038416620002ca565b90505b92915050565b60008181526001830160205260408120546200031357508154600181810184556000848152602080822090930184905584548482528286019093526040902091909155620002c4565b506000620002c4565b80516001600160a01b03811681146200033457600080fd5b919050565b600082601f8301126200034a578081fd5b815160206001600160401b038083111562000369576200036962000482565b8260051b604051601f19603f8301168101818110848211171562000391576200039162000482565b60405284815283810192508684018288018501891015620003b0578687fd5b8692505b85831015620003dd57620003c8816200031c565b845292840192600192909201918401620003b4565b50979650505050505050565b600080600060608486031215620003fe578283fd5b835160208501519093506001600160401b03808211156200041d578384fd5b6200042b8783880162000339565b9350604086015191508082111562000441578283fd5b50620004508682870162000339565b9150509250925092565b60006000198214156200047b57634e487b7160e01b81526011600452602481fd5b5060010190565b634e487b7160e01b600052604160045260246000fd5b611db780620004a86000396000f3fe60806040526004361061019a5760003560e01c80638065657f116100e1578063b1c5f4271161008a578063d45c443511610064578063d45c4435146104c8578063d547741f146104f5578063e38335e514610515578063f27a0c921461052857600080fd5b8063b1c5f42714610468578063c4d252f514610488578063ca15c873146104a857600080fd5b80639010d07c116100bb5780639010d07c146103fb57806391d1485414610433578063a217fddf1461045357600080fd5b80638065657f146103875780638f2a0bb0146103a75780638f61f4f5146103c757600080fd5b80632ab0f5291161014357806336568abe1161011d57806336568abe14610327578063584b153e1461034757806364d623531461036757600080fd5b80632ab0f529146102b65780632f2ff15d146102e757806331d507501461030757600080fd5b8063134008d311610174578063134008d31461024357806313bc9f2014610256578063248a9ca31461028657600080fd5b806301d5062a146101a657806307bd0265146101c85780630d3cf6fc1461020f57600080fd5b366101a157005b600080fd5b3480156101b257600080fd5b506101c66101c13660046118bd565b61053d565b005b3480156101d457600080fd5b506101fc7fd8aa0f3194971a2a116679f7c2090f6939c8d4e01a2a8d7e41d55e5351469e6381565b6040519081526020015b60405180910390f35b34801561021b57600080fd5b506101fc7f5f58e3a2316349923ce3780f8d587db2d72378aed66a8261c916544fa6846ca581565b6101c6610251366004611853565b61064c565b34801561026257600080fd5b50610276610271366004611a83565b610728565b6040519015158152602001610206565b34801561029257600080fd5b506101fc6102a1366004611a83565b60009081526020819052604090206002015490565b3480156102c257600080fd5b506102766102d1366004611a83565b6000908152600160208190526040909120541490565b3480156102f357600080fd5b506101c6610302366004611a9b565b61074e565b34801561031357600080fd5b50610276610322366004611a83565b6107ea565b34801561033357600080fd5b506101c6610342366004611a9b565b610803565b34801561035357600080fd5b50610276610362366004611a83565b61088b565b34801561037357600080fd5b506101c6610382366004611a83565b6108a1565b34801561039357600080fd5b506101fc6103a2366004611853565b610957565b3480156103b357600080fd5b506101c66103c23660046119d5565b610996565b3480156103d357600080fd5b506101fc7fb09aa5aeb3702cfd50b6b62bc4532604938f21248a27a1d5ca736082b6819cc181565b34801561040757600080fd5b5061041b610416366004611ac6565b610bff565b6040516001600160a01b039091168152602001610206565b34801561043f57600080fd5b5061027661044e366004611a9b565b610c20565b34801561045f57600080fd5b506101fc600081565b34801561047457600080fd5b506101fc610483366004611930565b610c38565b34801561049457600080fd5b506101c66104a3366004611a83565b610c7d565b3480156104b457600080fd5b506101fc6104c3366004611a83565b610dd3565b3480156104d457600080fd5b506101fc6104e3366004611a83565b60009081526001602052604090205490565b34801561050157600080fd5b506101c6610510366004611a9b565b610dea565b6101c6610523366004611930565b610e78565b34801561053457600080fd5b506002546101fc565b7fb09aa5aeb3702cfd50b6b62bc4532604938f21248a27a1d5ca736082b6819cc16105688133610c20565b806105795750610579816000610c20565b6105e15760405162461bcd60e51b815260206004820152602e60248201527f54696d656c6f636b436f6e74726f6c6c65723a2073656e64657220726571756960448201526d3932b9903832b936b4b9b9b4b7b760911b60648201526084015b60405180910390fd5b60006105f1898989898989610957565b90506105fd81846110c8565b6000817f4cf4410cc57040e44862ef0f45f3dd5a5e02db8eb8add648d4b0e236f1d07dca8b8b8b8b8b8a60405161063996959493929190611be0565b60405180910390a3505050505050505050565b7fd8aa0f3194971a2a116679f7c2090f6939c8d4e01a2a8d7e41d55e5351469e636106778133610c20565b806106885750610688816000610c20565b6106eb5760405162461bcd60e51b815260206004820152602e60248201527f54696d656c6f636b436f6e74726f6c6c65723a2073656e64657220726571756960448201526d3932b9903832b936b4b9b9b4b7b760911b60648201526084016105d8565b60006106fb888888888888610957565b9050610706846111dc565b6107158160008a8a8a8a61126d565b61071e8161138b565b5050505050505050565b6000818152600160205260408120546001811180156107475750428111155b9392505050565b60008281526020819052604090206002015461076a9033610c20565b6107dc5760405162461bcd60e51b815260206004820152602f60248201527f416363657373436f6e74726f6c3a2073656e646572206d75737420626520616e60448201527f2061646d696e20746f206772616e74000000000000000000000000000000000060648201526084016105d8565b6107e6828261141a565b5050565b60008181526001602052604081205481905b1192915050565b6001600160a01b03811633146108815760405162461bcd60e51b815260206004820152602f60248201527f416363657373436f6e74726f6c3a2063616e206f6e6c792072656e6f756e636560448201527f20726f6c657320666f722073656c66000000000000000000000000000000000060648201526084016105d8565b6107e68282611473565b60008181526001602081905260408220546107fc565b3330146109165760405162461bcd60e51b815260206004820152602b60248201527f54696d656c6f636b436f6e74726f6c6c65723a2063616c6c6572206d7573742060448201527f62652074696d656c6f636b00000000000000000000000000000000000000000060648201526084016105d8565b60025460408051918252602082018390527f11c24f4ead16507c69ac467fbd5e4eed5fb5c699626d2cc6d66421df253886d5910160405180910390a1600255565b600086868686868660405160200161097496959493929190611be0565b6040516020818303038152906040528051906020012090509695505050505050565b7fb09aa5aeb3702cfd50b6b62bc4532604938f21248a27a1d5ca736082b6819cc16109c18133610c20565b806109d257506109d2816000610c20565b610a355760405162461bcd60e51b815260206004820152602e60248201527f54696d656c6f636b436f6e74726f6c6c65723a2073656e64657220726571756960448201526d3932b9903832b936b4b9b9b4b7b760911b60648201526084016105d8565b888714610a905760405162461bcd60e51b815260206004820152602360248201527f54696d656c6f636b436f6e74726f6c6c65723a206c656e677468206d69736d616044820152620e8c6d60eb1b60648201526084016105d8565b888514610aeb5760405162461bcd60e51b815260206004820152602360248201527f54696d656c6f636b436f6e74726f6c6c65723a206c656e677468206d69736d616044820152620e8c6d60eb1b60648201526084016105d8565b6000610afd8b8b8b8b8b8b8b8b610c38565b9050610b0981846110c8565b60005b8a811015610bf15780827f4cf4410cc57040e44862ef0f45f3dd5a5e02db8eb8add648d4b0e236f1d07dca8e8e85818110610b5757634e487b7160e01b600052603260045260246000fd5b9050602002016020810190610b6c9190611839565b8d8d86818110610b8c57634e487b7160e01b600052603260045260246000fd5b905060200201358c8c87818110610bb357634e487b7160e01b600052603260045260246000fd5b9050602002810190610bc59190611cdc565b8c8b604051610bd996959493929190611be0565b60405180910390a3610bea81611d50565b9050610b0c565b505050505050505050505050565b6000828152602081905260408120610c1790836114cc565b90505b92915050565b6000828152602081905260408120610c1790836114d8565b60008888888888888888604051602001610c59989796959493929190611c1e565b60405160208183030381529060405280519060200120905098975050505050505050565b7fb09aa5aeb3702cfd50b6b62bc4532604938f21248a27a1d5ca736082b6819cc1610ca88133610c20565b80610cb95750610cb9816000610c20565b610d1c5760405162461bcd60e51b815260206004820152602e60248201527f54696d656c6f636b436f6e74726f6c6c65723a2073656e64657220726571756960448201526d3932b9903832b936b4b9b9b4b7b760911b60648201526084016105d8565b610d258261088b565b610d975760405162461bcd60e51b815260206004820152603160248201527f54696d656c6f636b436f6e74726f6c6c65723a206f7065726174696f6e20636160448201527f6e6e6f742062652063616e63656c6c656400000000000000000000000000000060648201526084016105d8565b6000828152600160205260408082208290555183917fbaa1eb22f2a492ba1a5fea61b8df4d27c6c8b5f3971e63bb58fa14ff72eedb7091a25050565b6000818152602081905260408120610c1a906114fa565b600082815260208190526040902060020154610e069033610c20565b6108815760405162461bcd60e51b815260206004820152603060248201527f416363657373436f6e74726f6c3a2073656e646572206d75737420626520616e60448201527f2061646d696e20746f207265766f6b650000000000000000000000000000000060648201526084016105d8565b7fd8aa0f3194971a2a116679f7c2090f6939c8d4e01a2a8d7e41d55e5351469e63610ea38133610c20565b80610eb45750610eb4816000610c20565b610f175760405162461bcd60e51b815260206004820152602e60248201527f54696d656c6f636b436f6e74726f6c6c65723a2073656e64657220726571756960448201526d3932b9903832b936b4b9b9b4b7b760911b60648201526084016105d8565b878614610f725760405162461bcd60e51b815260206004820152602360248201527f54696d656c6f636b436f6e74726f6c6c65723a206c656e677468206d69736d616044820152620e8c6d60eb1b60648201526084016105d8565b878414610fcd5760405162461bcd60e51b815260206004820152602360248201527f54696d656c6f636b436f6e74726f6c6c65723a206c656e677468206d69736d616044820152620e8c6d60eb1b60648201526084016105d8565b6000610fdf8a8a8a8a8a8a8a8a610c38565b9050610fea846111dc565b60005b8981101561109d5761108d82828d8d8581811061101a57634e487b7160e01b600052603260045260246000fd5b905060200201602081019061102f9190611839565b8c8c8681811061104f57634e487b7160e01b600052603260045260246000fd5b905060200201358b8b8781811061107657634e487b7160e01b600052603260045260246000fd5b90506020028101906110889190611cdc565b61126d565b61109681611d50565b9050610fed565b506110a78161138b565b50505050505050505050565b6000610c17836001600160a01b038416611504565b6110d1826107ea565b156111445760405162461bcd60e51b815260206004820152602f60248201527f54696d656c6f636b436f6e74726f6c6c65723a206f7065726174696f6e20616c60448201527f7265616479207363686564756c6564000000000000000000000000000000000060648201526084016105d8565b6002548110156111bc5760405162461bcd60e51b815260206004820152602660248201527f54696d656c6f636b436f6e74726f6c6c65723a20696e73756666696369656e7460448201527f2064656c6179000000000000000000000000000000000000000000000000000060648201526084016105d8565b6111c64282611553565b6000928352600160205260409092209190915550565b8015806111f85750600081815260016020819052604090912054145b61126a5760405162461bcd60e51b815260206004820152602660248201527f54696d656c6f636b436f6e74726f6c6c65723a206d697373696e67206465706560448201527f6e64656e6379000000000000000000000000000000000000000000000000000060648201526084016105d8565b50565b6000846001600160a01b031684848460405161128a929190611b9d565b60006040518083038185875af1925050503d80600081146112c7576040519150601f19603f3d011682016040523d82523d6000602084013e6112cc565b606091505b50509050806113435760405162461bcd60e51b815260206004820152603360248201527f54696d656c6f636b436f6e74726f6c6c65723a20756e6465726c79696e67207460448201527f72616e73616374696f6e2072657665727465640000000000000000000000000060648201526084016105d8565b85877fc2617efa69bab66782fa219543714338489c4e9e178271560a91b82c3f612b588787878760405161137a9493929190611bad565b60405180910390a350505050505050565b61139481610728565b6114065760405162461bcd60e51b815260206004820152602a60248201527f54696d656c6f636b436f6e74726f6c6c65723a206f7065726174696f6e20697360448201527f206e6f742072656164790000000000000000000000000000000000000000000060648201526084016105d8565b600090815260016020819052604090912055565b600082815260208190526040902061143290826110b3565b156107e65760405133906001600160a01b0383169084907f2f8788117e7eff1d82e926ec794901d17c78024a50270940304540a733656f0d90600090a45050565b600082815260208190526040902061148b90826115b2565b156107e65760405133906001600160a01b0383169084907ff6391f5c32d9c69d2a47ea670b442974b53935d1edc7fd64eb21e047a839171b90600090a45050565b6000610c1783836115c7565b6001600160a01b03811660009081526001830160205260408120541515610c17565b6000610c1a825490565b600081815260018301602052604081205461154b57508154600181810184556000848152602080822090930184905584548482528286019093526040902091909155610c1a565b506000610c1a565b6000806115608385611d21565b905083811015610c175760405162461bcd60e51b815260206004820152601b60248201527f536166654d6174683a206164646974696f6e206f766572666c6f77000000000060448201526064016105d8565b6000610c17836001600160a01b038416611676565b815460009082106116405760405162461bcd60e51b815260206004820152602260248201527f456e756d657261626c655365743a20696e646578206f7574206f6620626f756e60448201527f647300000000000000000000000000000000000000000000000000000000000060648201526084016105d8565b82600001828154811061166357634e487b7160e01b600052603260045260246000fd5b9060005260206000200154905092915050565b6000818152600183016020526040812054801561178957600061169a600183611d39565b85549091506000906116ae90600190611d39565b905060008660000182815481106116d557634e487b7160e01b600052603260045260246000fd5b906000526020600020015490508087600001848154811061170657634e487b7160e01b600052603260045260246000fd5b60009182526020909120015561171d836001611d21565b6000828152600189016020526040902055865487908061174d57634e487b7160e01b600052603160045260246000fd5b60019003818190600052602060002001600090559055866001016000878152602001908152602001600020600090556001945050505050610c1a565b6000915050610c1a565b80356001600160a01b03811681146117aa57600080fd5b919050565b60008083601f8401126117c0578182fd5b50813567ffffffffffffffff8111156117d7578182fd5b6020830191508360208260051b85010111156117f257600080fd5b9250929050565b60008083601f84011261180a578182fd5b50813567ffffffffffffffff811115611821578182fd5b6020830191508360208285010111156117f257600080fd5b60006020828403121561184a578081fd5b610c1782611793565b60008060008060008060a0878903121561186b578182fd5b61187487611793565b955060208701359450604087013567ffffffffffffffff811115611896578283fd5b6118a289828a016117f9565b979a9699509760608101359660809091013595509350505050565b600080600080600080600060c0888a0312156118d7578081fd5b6118e088611793565b965060208801359550604088013567ffffffffffffffff811115611902578182fd5b61190e8a828b016117f9565b989b979a50986060810135976080820135975060a09091013595509350505050565b60008060008060008060008060a0898b03121561194b578081fd5b883567ffffffffffffffff80821115611962578283fd5b61196e8c838d016117af565b909a50985060208b0135915080821115611986578283fd5b6119928c838d016117af565b909850965060408b01359150808211156119aa578283fd5b506119b78b828c016117af565b999c989b509699959896976060870135966080013595509350505050565b600080600080600080600080600060c08a8c0312156119f2578081fd5b893567ffffffffffffffff80821115611a09578283fd5b611a158d838e016117af565b909b50995060208c0135915080821115611a2d578283fd5b611a398d838e016117af565b909950975060408c0135915080821115611a51578283fd5b50611a5e8c828d016117af565b9a9d999c50979a969997986060880135976080810135975060a0013595509350505050565b600060208284031215611a94578081fd5b5035919050565b60008060408385031215611aad578182fd5b82359150611abd60208401611793565b90509250929050565b60008060408385031215611ad8578182fd5b50508035926020909101359150565b81835260006020808501808196508560051b8101915084845b87811015611b675782840389528135601e19883603018112611b20578687fd5b8701803567ffffffffffffffff811115611b38578788fd5b803603891315611b46578788fd5b611b538682898501611b74565b9a87019a9550505090840190600101611b00565b5091979650505050505050565b81835281816020850137506000828201602090810191909152601f909101601f19169091010190565b8183823760009101908152919050565b6001600160a01b0385168152836020820152606060408201526000611bd6606083018486611b74565b9695505050505050565b6001600160a01b038716815285602082015260a060408201526000611c0960a083018688611b74565b60608301949094525060800152949350505050565b60a0808252810188905260008960c08301825b8b811015611c5f576001600160a01b03611c4a84611793565b16825260209283019290910190600101611c31565b5083810360208501528881527f07ffffffffffffffffffffffffffffffffffffffffffffffffffffffffffffff891115611c97578283fd5b8860051b9150818a60208301370160208181018381528483039091016040850152611cc381888a611ae7565b6060850196909652505050608001529695505050505050565b6000808335601e19843603018112611cf2578283fd5b83018035915067ffffffffffffffff821115611d0c578283fd5b6020019150368190038213156117f257600080fd5b60008219821115611d3457611d34611d6b565b500190565b600082821015611d4b57611d4b611d6b565b500390565b6000600019821415611d6457611d64611d6b565b5060010190565b634e487b7160e01b600052601160045260246000fdfea26469706673582212201b7a7101f0dc69e2e4c1f73cfdbc66bdb1f169089ecda0b284911fca06fb110664736f6c634300080400335f58e3a2316349923ce3780f8d587db2d72378aed66a8261c916544fa6846ca5b09aa5aeb3702cfd50b6b62bc4532604938f21248a27a1d5ca736082b6819cc1d8aa0f3194971a2a116679f7c2090f6939c8d4e01a2a8d7e41d55e5351469e63",
  "linkReferences": {},
  "deployedLinkReferences": {}
}